:100000000C9421060C94C0060C94C0060C94C006F7
:100010000C94C0060C94C0060C94C0060C94C00648
:100020000C94C0060C94C0060C94C0060C94C00638
:100030000C94C0060C949B070C94CB070C94C00640
:100040000C94C0060C94C0060C94C0060C94C00618
:100050000C94C0060C94C0060C94C0060C94C00608
:100060000C94C0060C94C0060C94C0060C94C006F8
:100070008B11991108123D1529159C11AB11BA115C
:100080001115C811D611000000000000000000008A
:100090000000000000000000000000000000000060
:1000A0000000000000000000000000000000000050
:1000B0000000000000000000000000000000000040
:1000C0000000000000000000000000000000000030
:10046000000000000000000000000000000000018B
:10047000D0000000000000000000000000000000AC
:1004800000000000000000000000000000478000A5
:10049000000000000000000000000000000000005C
:1004A00000000000000000000000050F0000000038
:1004B000000000000000000000000000000000003C
:1004C0000000000000000000503C000000000000A0
:1004D000000000000000000000000000000000001C
:1004E00000000000000500B4000000000000000053
:1004F00000000000000000000000000000000000FC
:100500000000005551E00000000000000000000065
:1005100000000000000000000000000000000000DB
:10052000155547C00000000000000000000000005A
:100530000000000000000000000000000001555510
:100540004F0000000000000000000000000000005C
:1005500000000000001564005540001555502D00A6
:100560000000050455555501555555541550016663
:100570005AA8001AB80065E001555554B84000006B
:100580000754555555415555AAAD6AA406ABC9A89F
:10059000001AB80156D015555555E04400000B150A
:1005A0004001559155555A6D6AA81AAB85440029EA
:1005B000B40156D155A55553C141AAAAAF156AAA8F
:1005C00055D15AFFEAAC2AA92AAF0000006AB0014F
:1005D00056955BE5554B4102EAAAA9157EAA56D568
:1005E0005BAAAA7C1AAAAABC0000006AE0015555C1
:1005F000BF45552E010380000054740157C55A00B1
:100600001AB80AAAAAF00000006AE001555BE45596
:10061000557801055559005155556F455E002AB46E
:1006200006AAABC0000000AAE006AAFE415554F09D
:100630000500001D005545557C055D006AB001AA06
:10064000AF00000000AAD0055BE0055553C00400D0
:10065000001C0055155554156C0059B001AAA8008E
:10066000000001A6C0055F0015554B805507FFFC33
:100670000141FFF959156C006AE006AAA9000000C3
:1006800001AB80055E0055555E05554FAAA40002DA
:10069000EAA95A1578006AE01AAAAA00000002AB7B
:1006A00085555D0155557C55155D00010152C0050C
:1006B0005E157855AAD06ABEAA40000006AA555514
:1006C0006C015555F441E0555554A15555554D15FE
:1006D0005555AAC1AAFAAA80000006AAAA956C05D7
:1006E0005555952FE0000000E10555552C15555541
:1006F0005786ABE2AAA0000006AAAAAA781555550B
:1007000006FE15555551D5555555F865AAAAAB9A0B
:10071000AF81AAF000000BFFFFFFF85555556FD0D1
:100720002FFFFFFFC7FFFFFFD0BFFFFFFF5FFD00F1
:10073000BFE000000155555550555556F900055577
:100740005555415555550015555555055000154001
:100750000000055555555155556F955555555555ED
:1007600055429659696AA40186A91AA4AA90000064
:100770001AAAAAAA95555AF96AAAAAAAAAAAAA9B23
:10078000ABAEADB5B402DFA579546E5000001AAA25
:10079000AAAA4695BF96AAAAAAAAAAAAAA8B557AD5
:1007A000F5F5E79B9EA8B9502C0000000000000062
:1007B000155BF81400000000000000050010505503
:1007C000515515545550140000000000000055BF4D
:1007D0008000000000000000000000000000000099
:1007E0000000000000000000000000016BF40000A9
:1007F00000000000000000000000000000000000F9
:1008000000000000000000000002FE0000000000E8
:1008100000000000000000000000000000000000D8
:10082000000000000000001FE400000000000000C5
:1008300000000000000000000000000000000000B8
:1008400000000000001E000000000000000000008A
:100850000000000000000000000000000000000098
:100860000000000000000000000000000000000088
:100870000000000000000000000000000000000078
:100880000000000000000000000000000000000068
:100BC000000000000000000CB767000055000001A5
:100BD000554000055A4000057B4001557A4007FD0D
:100BE0005E4005FFE54015FFF800697D550065553D
:100BF00069545555696905556769055D5F64035515
:100C0000555001DDD000055D4000055D70000555C3
:100C10005C0001A9690001A96A4001A51A5001649C
:100C200005900754055017D007D05F4007D07D00CE
:100C300007D07D0001D07D0007F57F4007FD5540BE
:100C4000055511241FBECFEFD0E1DEBFCDBF14BECE
:100C500088E10FB6F89480936000109260000FBE98
:100C600011E0A0E0B1E0EEE7F7E302C005900D92DD
:100C7000A431B107D9F71FE0A4E1B1E001C01D9292
:100C8000AB32B107E1F7F894EDE7FCE080E090E0EB
:100C900020E802C02193019632E08C309307D4F310
:100CA0008DE79CE090938A0E8093890E10928B0EB4
:100CB000EEE8FEE080E090E003C0108201963A96F4
:100CC00084309105D4F39093BD0E8093BC0E91E0D7
:100CD0009093AE0E9093AF0E9093AD0E1092810054
:100CE00015BC8FEF87B984B988E98AB95C9A8CE022
:100CF00081B98BEF82B91092580C86E08093590C21
:100D0000109285001092840083E0809389008DE822
:100D10008093880089E08093810082E080936F0057
:100D200082E484BD17BC95BD83E88093B000109227
:100D3000B3009093B10081E185B910926D0C1092CF
:100D40005C0C10925D0C1092680C1092670C109263
:100D50006C0C10926B0C1092700C0E94021180E0CF
:100D60000E94341080FF03C084E00E9431100E9472
:100D70001F1078940E941F100E9404190C94BD1B30
:100D80000C940000A6E8B1E01197F1F70000000014
:100D9000C4E1D1E044270CD134E43A95F1F70000E6
:100DA000000014D037E23A95F1F7000040FDC25E32
:100DB00040FDDF4F4395403C71F7FAD0E1E0E0930E
:100DC0005A0CE2E0E093360011240895BE0134E5A8
:100DD000BCE02EE10991A02FA295A695A695A3703F
:100DE000A30F0C9008B800C00000A02FA295A3701C
:100DF000A30F0C90000008B8000000C0A02FA6951B
:100E0000A695A370A30F0C9008B800C0A02FA370E4
:100E1000A30F0C9009912A9508B8E9F6C895C895D2
:100E2000002400C008B8EB010895E607F007FE07AC
:100E3000190728980E949A09E7E1EA95F1F7289A9C
:100E40001CD1E0E0F6E0FFD0E0FF32D0E0FF2FC0A1
:100E50002F933F934F935F936F937F938F939F93C2
:100E6000AF93BF9378941124E0915E0CF0915F0CE6
:100E7000E115F10509F009950E941F100E944B1120
:100E80000E9453100E94C7081124E091600CF09159
:100E9000610CE115F10509F00995BF91AF919F91A2
:100EA0008F917F916F915F914F913F912F91089515
:100EB000EF93E091590CE93DE0F5E937D0F12F923D
:100EC0003F924F925F926F927F928F929F92AF92DA
:100ED000BF92CF92DF92EF92FF920F931F932F93C7
:100EE0003F934F935F936F937F938F939F93AF93B2
:100EF000BF93CF93DF930E94C206DF91CF91BF9142
:100F0000AF919F918F917F916F915F914F913F91A1
:100F10002F911F910F91FF90EF90DF90CF90BF9096
:100F2000AF909F908F907F906F905F904F903F9089
:100F30002F90EF910895FF93EF93EFB7EF93E09128
:100F40008400EE50E13000F0E23000F0E33000F0D9
:100F5000E43000F0E53000F0E63000F0E73000F07B
:100F6000E83000F0E93000F005D0EF91EFBFEF91ED
:100F7000FF9118950F921F92EAE2FEE00090580C44
:100F8000000C1124E00DF11D05901490F00109955D
:100F90001F900F900895EF93EFB7EF93289AE09189
:100FA0006F00EB7FE0936F00EF91EFBFEF9118952B
:100FB00028980E949A09E5E1EA95F1F7E091590C29
:100FC000EA95E093590C289A00C0089528980E9449
:100FD000C109289A0000E1E0F6E035D047D0089535
:100FE00028980E94C109E0EB0000EA95E9F70000AB
:100FF0000000289AF6E0E2E026D0089528980E94A2
:10100000C109289A0000E3E0FDEF1DD0E091590CE2
:10101000E53091F4E0915B0CE1300000F0916D0C53
:1010200019F4F0916D0CF195E3E0E0938900EDE89F
:10103000EF0FE09388000895E3E0E0938900EDE886
:10104000E093880008950090590C0A9410905F0076
:1010500011FC0F2E0092590C0090580C11FC0E2E12
:101060000092580CE0E011FCE1E00895E3E0E09329
:101070008900EDE8E09388000895E7E0E0938900B7
:10108000EBE1E093880008950000000000000000FC
:101090000000000000000000000000000000000050
:1010A0000000000000000000000000000000000040
:1010B0000000000000000000000000000000000030
:1010C0000000000000000000000000000000000020
:1010D0000000000000000000000000000000000010
:1010E0000000000000000000000000000000000000
:1010F00000000000000000000000000000000000F0
:1011000099277727833008F00895E0E0FEE1660F25
:10111000771FE60FF71FA591B491EEE8FEE02AE0F5
:10112000289FE00DF11DA183B283112408959091B1
:10113000AD0E9170880F892B8093AD0E089599277D
:101140007727EEE8FEE02AE0289FE00DF11D6E3FD4
:1011500031F46091AD0E6E7F6093AD0E0BC06F3FAA
:1011600031F46091AD0E6E6F6093AD0E03C074E10B
:10117000760F75831124089599277727EEE8FEE00E
:101180002AE0289FE00DF11D6083112408950E943C
:10119000B81200908B0E002019F4ADE7BCE002C03D
:1011A000A3E8BDE021E0022600928B0E22E020930E
:1011B0008C0E2F923F924F925F926F927F928F92FE
:1011C0009F92AF92BF92CF92DF92EF92FF920F93D6
:1011D0001F93CF93DF935091AC0E6091AE0E709140
:1011E000AF0E8091B00E20908F0E3090900E4090F8
:1011F000920E5090930E6090910E10918E0E709002
:10120000990E80909A0E90909B0EA0909C0EB0909C
:101210009D0E2091980EC090A30ED090A40EE09049
:10122000A60EF090A70E0091A50E3091A20E9FEF92
:10123000620C431CF2014491410300240008C12DBB
:10124000D02D970CA81CF5014491420300240008FE
:10125000C10DD01D0C0DED1CF7014491430300247A
:101260000008C10DD01D8A956AF44091AD0E842FFF
:101270008695062E0694062600FA7695679576F9E9
:1012800040FF66F940E860FD4FE745030024000891
:10129000C10DD01D0024C038D0050CF0CFE70A9452
:1012A000C038D0050CF4C0E8C058CD939A9509F029
:1012B000BFCF40918C0E4A9540938C0E97E009F079
:1012C000B7CF6092910E4092920E90929B0EA09298
:1012D0009C0E0093A50EE092A60E6093AE0E709346
:1012E000AF0E8093B00EDF91CF911F910F91FF90C1
:1012F000EF90DF90CF90BF90AF909F908F907F90B6
:101300006F905F904F903F902F900895E091890EDD
:10131000F0918A0E019100000093B3000EE0E938CD
:10132000F0070DE71CE008F0F801E093890EF09358
:101330008A0E08950C949C090C949E090F931F9398
:101340002F93E091890EF0918A0E01910093B300E2
:101350000EE0E938F00710F40000000010F0EDE7AF
:10136000FCE0E093890EF0938A0EC895C895C89565
:10137000C895C895C895000000002F911F910F9146
:1013800008950000E091590CE0FFD8CFE1E1EA9523
:10139000F1F70000000008950000000000000000C8
:1013A000000000000000000000000000000000003D
:1013B000000000000000000000000000000000002D
:1013C000000000000000000000000000000000001D
:1013D000000000000000000000000000000000000D
:1013E00000000000000000000000000000000000FD
:1013F00000000000000000000000000000000000ED
:10140000000306090C101316191C1F2225282B2E69
:10141000313336393C3F414447494C4E515355587E
:101420005A5C5E60626466686A6B6D6F707173743B
:10143000757678797A7A7B7C7D7D7E7E7E7F7F7FF4
:101440007F7F7F7F7E7E7E7D7D7C7B7A7A797876DA
:1014500075747371706F6D6B6A68666462605E5CF0
:101460005A585553514E4C494744413F3C39363305
:10147000312E2B2825221F1C191613100C090603C8
:1014800000FDFAF7F4F0EDEAE7E4E1DEDBD8D5D2CF
:10149000CFCDCAC7C4C1BFBCB9B7B4B2AFADABA89A
:1014A000A6A4A2A09E9C9A9896959391908F8D8CBD
:1014B0008B8A8887868685848383828282818181E4
:1014C0008181818182828283838485868687888ADE
:1014D0008B8C8D8F9091939596989A9C9EA0A2A4A8
:1014E000A6A8ABADAFB2B4B7B9BCBFC1C4C7CACD73
:1014F000CFD2D5D8DBDEE1E4E7EAEDF0F4F7FAFD90
:10150000808182838485868788898A8B8C8D8E8F63
:10151000909192939495969798999A9B9C9D9E9F53
:10152000A0A1A2A3A4A5A6A7A8A9AAABACADAEAF43
:10153000B0B1B2B3B4B5B6B7B8B9BABBBCBDBEBF33
:10154000C0C1C2C3C4C5C6C7C8C9CACBCCCDCECF23
:10155000D0D1D2D3D4D5D6D7D8D9DADBDCDDDEDF13
:10156000E0E1E2E3E4E5E6E7E8E9EAEBECEDEEEF03
:10157000F0F1F2F3F4F5F6F7F8F9FAFBFCFDFEFFF3
:10158000000102030405060708090A0B0C0D0E0FE3
:10159000101112131415161718191A1B1C1D1E1FD3
:1015A000202122232425262728292A2B2C2D2E2FC3
:1015B000303132333435363738393A3B3C3D3E3FB3
:1015C000404142434445464748494A4B4C4D4E4FA3
:1015D000505152535455565758595A5B5C5D5E5F93
:1015E000606162636465666768696A6B6C6D6E6F83
:1015F000707172737475767778797A7B7C7D7E7F73
:1016000000020406080A0C0E10121416181A1C1EEA
:1016100020222426282A2C2E30323436383A3C3EDA
:1016200040424446484A4C4E50525456585A5C5ECA
:1016300060626466686A6C6E70727476787A7C7EBA
:101640007F7D7B79777573716F6D6B69676563619A
:101650005F5D5B59575553514F4D4B49474543418A
:101660003F3D3B39373533312F2D2B29272523217A
:101670001F1D1B19171513110F0D0B09070503016A
:10168000FFFDFBF9F7F5F3F1EFEDEBE9E7E5E3E15A
:10169000DFDDDBD9D7D5D3D1CFCDCBC9C7C5C3C14A
:1016A000BFBDBBB9B7B5B3B1AFADABA9A7A5A3A13A
:1016B0009F9D9B99979593918F8D8B89878583812A
:1016C00080828486888A8C8E90929496989A9C9E2A
:1016D000A0A2A4A6A8AAACAEB0B2B4B6B8BABCBE1A
:1016E000C0C2C4C6C8CACCCED0D2D4D6D8DADCDE0A
:1016F000E0E2E4E6E8EAECEEF0F2F4F6F8FAFCFEFA
:101700007F7F7F7F7F7F7F7F7F7F7F7F7F7F7F7FE9
:101710007F7F7F7F7F7F7F7F7F7F7F7F7F7F7F7FD9
:101720007F7F7F7F7F7F7F7F7F7F7F7F7F7F7F7FC9
:101730007F7F7F7F7F7F7F7F7F7F7F7F7F7F7F7FB9
:101A00000309131E28313A40464C5054585B5E611E
:101A1000636567696B6C6E6F7071727374757677DE
:101A2000777879797A7A7B7B7C7C7C7D7D7D7E7E04
:101A30007E7E7F7F7F7F7F7F7F7F7F7F7F7F7F7FB8
:101A40007F7F7F7F7F7F7F7F7F7F7F7F7F7E7E7EA9
:101A50007E7D7D7D7C7C7C7B7B7A7A7979787777DB
:101A6000767574737271706F6E6C6B6967656361A4
:101A70005E5B5854504C46403A31281E130903000F
:101A8000C6CCD5DBDFE3E5E7E9EAEBECEDEEEFEF23
:101A9000F0F0F0F1F1F1F1F2F2F2F2F2F2F2F2F32F
:101AA000F3F3F3F3F3F3F3F3F3F3F3F3F3F3F3F306
:101AB000F3F3F3F3F3F3F3F3F3F3F3F3F3F3F3F3F6
:101AC000F3F3F3F3F3F3F3F3F3F3F3F3F3F3F3F3E6
:101AD000F3F3F3F3F3F3F3F3F3F3F3F3F3F3F3F3D6
:101AE000F2F2F2F2F2F2F2F2F1F1F1F1F0F0F0EFE3
:101AF000EFEEEDECEBEAE9E7E5E3DFDBD5CCC600A2
:101B000000283D42302D2C2B2C2D2E2F30323335FA
:101B100037393B3D3F414345484A4C4E505355575A
:101B2000595B5D5F61636567696B6C6E707173743F
:101B3000757778797A7B7C7D7D7E7E7F7F7F7F7FE6
:101B40007F7F7F7F7F7F7E7E7D7D7C7B7A797877CC
:101B500075747371706E6C6B69676563615F5D5BF3
:101B600059575553504E4C4A484543413F3D3B39E8
:101B700037353332302F2E2D2C2B2C2D30423D2853
:101B800000E9E5FED4D7D7D7D6D4D2D0CECCCAC8B8
:101B9000C6C3C1BFBDBAB8B6B4B1AFADABA9A7A5F6
:101BA000A3A19F9E9C9A999795949391908F8D8CC9
:101BB0008B8A8988888786858584848483838383C8
:101BC0008383838383848484858586878888898AC0
:101BD0008B8C8D8F909193949597999A9C9E9FA1B1
:101BE000A3A5A7A9ABADAFB1B4B6B8BABDBFC1C3C9
:101BF000C6C8CACCCED0D2D4D6D7D7D7D4FEE5E982
:101C0000F9F8F9F5EBE1DDDEE0E2E4E5E6E5E4E252
:101C1000DED9D2CAC1B7ACA299918A86838180806D
:101C20008182838586888A8C8D8F909293959697F2
:101C300098999A9B9B9C9D9D9D9E9E9E9F9F9F9FDA
:101C40009F9F9F9E9E9E9D9D9D9C9B9B9A999897D2
:101C500096959392908F8D8C8A88868583828180D9
:101C6000808183868A9199A2ACB7C1CAD2D9DEE2BB
:101C7000E4E5E6E5E4E2E0DEDDE1EBF5F9F8F900C4
:101C80000708070B151F2322201E1C1B1A1B1C1ED6
:101C900022272E363F49545E676F767A7E7F7F7F9C
:101CA0007F7E7D7B7A7876747371706E6D6B6A69F6
:101CB00068676665656464636362626261616161ED
:101CC00061616162626263636364656566676869D6
:101CD0006A6B6D6E7071737476787A7B7D7E7F7FB0
:101CE0007F7F7E7A766F675E54493F362E27221EAD
:101CF0001C1B1A1B1C1E2022231F150B0708070084
:101D00001F313D444E5354565A5F64696E74767960
:101D10007C7F7F7F7F7F7F7F7F7F7F7F7F7F7F7FD6
:101D20007F7F7F7F7F7F7F7F7F7F7F7F7F7F7F7FC3
:101D30007F7F7F7F7F7F7F7F7F7F7F7F7F7F7F7FB3
:101D40007F7F7F7F7F7F7F7F7F7F7F7F7F7F7F7FA3
:101D50007F7F7F7F7F7F7F7F7F7F7F7F7F7F7F7F93
:101D60007F7F7F7F7F7F7F7F7F7F7F7F7F7F7F7F83
:101D70007F7F7F7F7F7F7F7F7F7F7F7C7871684CD5
:101D80002C1C120C0A0B0A05FDF3E9DFD4CAC0B7FC
:101D9000AEA69E97918B8685828080808080808091
:101DA0008080808080808080808080808080808033
:101DB0008080808080808080808080808080808023
:101DC0008080808080808080808080808080808013
:101DD0008080808080808080808080808080808003
:101DE00080808080808080808080808080808080F3
:101DF000808080808087919DACC4CBD4DDF2FAFADC
:101E000022002400260028002B002D003000330083
:101E1000360039003D004000440048004C005100AD
:101E200056005B00600066006C0073007900810062
:101E3000880090009900A200AC00B600C100CC0060
:101E4000D800E500F3000101100121013201440135
:101E500057016C0181019801B001CA01E50102023C
:101E60002102410264028802AE02D702030330035A
:101E700061039403CB03050442048304C7041005E3
:101E80005D05AF0505066106C20629079607090824
:101E9000830805098E09200ABA0A5D0B0A0CC10CD9
:101EA000840D510E2B0F121007110A121D1340142E
:101EB0007415BA1614188319071BA31C571E242067
:101EC0000E22142439267F28E82A752D293006335E
:101ED0000F364539AD3C49401B442848734CFE50F1
:101EE000CF55EA5A51600C661D6C8B725A799280FC
:101EF00037885090E598FDA19FABD3B5A3C00000F3
:101F0000A0E0B0E0E6E8FFE00C948E1BEC01A880B6
:101F1000B980CA80DB80A114B104C104D10441F4AA
:101F200084E2A82E89EDB82E8BE5C82E87E0D82E46
:101F3000C601B5012DE133EF41E050E00E946B1B7B
:101F400027EA31E440E050E00E94031B7B018C0152
:101F5000C601B5012DE133EF41E050E00E946B1B5B
:101F6000CA01B9012CEE34EF4FEF5FEF0E94031B63
:101F70006E0D7F1D801F911F97FF04C06150704040
:101F800080409048688379838A839B839B013F7755
:101F9000C901CDB7DEB7EAE00C94AA1B0E94800FFE
:101FA000089580E191E00E94800F0895A0E0B0E0E4
:101FB0008093100190931101A0931201B09313012B
:101FC00008958837D8F46036C8F44370E82FFF27A7
:101FD000E370EE0FE050FF4F7EE1869586959927DE
:101FE000679F800D911D8C5E9E4FDC016C918191ED
:101FF00090816823499F60296C9311240895883744
:10200000E0F46036D0F4E82FFF27E370EE0FE050E5
:10201000FF4F7EE1869586959927679F800D911DDC
:102020008C5E9E4FDC018C916191708186237130B2
:1020300011F0879F812D1124089588270895089510
:10204000E0E4FBE0A4E1B1E060E06D933197E9F7F3
:102050001124089580915A0C0895112410925A0C5D
:10206000089580936D0C0895882329F48091650C60
:102070009091660C08958091690C90916A0C089576
:10208000882329F48091670C9091680C08958091C1
:102090006B0C90916C0C089578E07A95F1F7000044
:1020A0000197D1F708958091700C882309F4A9C095
:1020B0008091710C882309F051C08091720C0E94AC
:1020C0003410282F86FF0FC08091730C9091740CF0
:1020D00002979093740C8093730C97FF04C0109236
:1020E000740C1092730C27FF12C08091730C9091A6
:1020F000740C02969093740C8093730C883E910537
:1021000034F087EE90E09093740C8093730C24FF6E
:102110000FC08091750C9091760C02979093760C7D
:102120008093750C97FF04C01092760C1092750C7A
:1021300025FF67C08091750C9091760C0296909364
:10214000760C8093750C883D91050CF45AC087ED90
:1021500090E09093760C8093750C08958091720CAA
:102160000E9440109C014091730C5091740C8F7729
:10217000907027FF0EC0BA01681B790B7093740C26
:102180006093730C77FF14C01092740C1092730C50
:102190000FC0840F951F9093740C8093730C883E2E
:1021A000910534F087EE90E09093740C8093730C5B
:1021B0004091750C5091760C832F992737FF10C0F2
:1021C0008F7790709A01281B390B3093760C2093EF
:1021D000750C37FF16C01092760C1092750C08958E
:1021E0008F779070840F951F9093760C8093750C69
:1021F000883D910534F087ED90E09093760C8093C4
:10220000750C0895FF920F931F93CF93DF93129A4B
:102210008091700C882329F081E090E00E944C109E
:1022200002C0C895C895129800E010E0C0E0D0E068
:10223000FF2416950795D695C79513988091700C35
:10224000882329F085E090E00E944C1002C0C895D8
:10225000C895009B1068019BD068139A8091700C00
:10226000882329F085E090E00E944C1002C0C895B8
:10227000C895F39480E1F816E1F61093660C00938C
:10228000650CD0936A0CC093690CDF91CF911F91BC
:102290000F91FF900895FF920F931F93CF93DF93B9
:1022A0000E9402118091650C9091660C97FD06C00A
:1022B0008091690C90916A0C97FF27C081E090E0B3
:1022C0000E944C1000E010E0C0E0D0E0FF24000FBE
:1022D000111FCC0FDD1F1398C895C895C895C895D8
:1022E000009B0160019BC160139A88E090E00E940E
:1022F0004C10F39480E1F81651F71093680C00939A
:10230000670CD0936C0CC0936B0CDF91CF911F9135
:102310000F91FF90089590E026E130E0829FF00158
:10232000839FF00D929FF00D1124ED53F14F6287C2
:1023300008956093AD0E089590E026E130E0829F0D
:10234000F001839FF00D929FF00D1124ED53F14F9A
:1023500013861182089590E026E130E0829FF0011B
:10236000839FF00D929FF00D1124ED53F14F81E00A
:10237000838B089590E026E130E0829FF001839FF7
:10238000F00D929FF00D1124ED53F14F61870895E8
:1023900090E026E130E0829FF001839FF00D929F54
:1023A000F00D1124ED53F14F6483089590E026E180
:1023B00030E0829FF001839FF00D929FF00D112479
:1023C000ED53F14F65830895DC01ED91FC91119778
:1023D000AF014F5F5F4F11965C934E93E4912E2FA8
:1023E00030E0E7FF13C02F7730703695322F222769
:1023F00037952795FA014F5F5F4FE4918E2F8F77C6
:10240000280F311DE7FDF1CF4D935C93C90108956D
:102410000E949F080895EF92FF920F931F93CF930E
:10242000DF93182F062FF42EE22EC82FD0E086E17E
:1024300090E0C89FF001C99FF00DD89FF00D1124C6
:10244000ED53F14F8385882321F08181882309F0A2
:1024500088C0EE2091F486E190E0C89FF001C99F0A
:10246000F00DD89FF00D1124ED53F14F138A8285A2
:10247000882309F076C0108674C0133059F481E0C7
:1024800091E09093AF0E8093AE0E81E08093AD0EFD
:102490000F2D08C0812F60E00E949F08812F6F2DB3
:1024A0000E9480080F3799F486E190E0C89FF00100
:1024B000C99FF00DD89FF00D1124ED53F14F80917D
:1024C000200F878781E29FE0958B848B30C089E065
:1024D000089FC0011124E0911D0FF0911E0FE80F1D
:1024E000F91F3396459154914115510571F486E1D8
:1024F00090E0C89FF001C99FF00DD89FF00D112406
:10250000ED53F14F158A148A12C0FA01249186E125
:1025100090E0C89FF001C99FF00DD89FF00D1124E5
:10252000ED53F14F27874F5F5F4F558B448B86E10B
:1025300090E0C89FF001C99FF00DD89FF00D1124C5
:10254000ED53F14F108A1286048711829FEF918715
:10255000E086F282118A81E08387138A128A1482CC
:102560009683DF91CF911F910F91FF90EF90089587
:10257000CF92DF92FF920F931F93CF93DF93ECECF8
:10258000FEE08181282F332727FD30958081280F99
:10259000311D2F3F310519F014F02FEF30E0C90144
:1025A00037FF02C080E090E0808376964FE0E4320F
:1025B000F40739F780917C0C882309F028C144C1C5
:1025C000E091260FF091270F9F012F5F3F4F30932F
:1025D000270F2093260F44914F3F69F5A9014F5FC4
:1025E0005F4F5093270F4093260FF90184918F324C
:1025F00019F410927C0C19C1863009F0FBC0FA0165
:102600003196CF0101969093270F8093260FE49186
:10261000E33529F490932A0F8093290FEBC0E5341A
:1026200009F0E8C08091290F90912A0F9093270F0D
:102630008093260FDFC047FF02C040931F0F542F27
:102640005F70842F90E0807F9070803B910531F126
:10265000803C910581F18039910509F043C0C901A1
:102660000196F901449101969093270F8093260FCC
:102670000197FC012491852F90E08C9FF0018D9FA4
:10268000F00D9C9FF00D1124ED53F14F80818823B4
:1026900009F4B0C0220F852F648553C0C90101968B
:1026A000F901449101969093270F8093260F01978B
:1026B000FC01249153C02F5F3F4F3093270F20938D
:1026C000260F21503040F9012491852F90E08C9FF6
:1026D000F0018D9FF00D9C9FF00D1124ED53F14FF3
:1026E000248788C080911F0F582F5F7090E0807FF3
:1026F0009070803B910541F1803C910509F46EC0DA
:102700008039910509F076C02F5F3F4F3093270F36
:102710002093260F21503040F9012491852F90E01D
:102720008C9FD0018D9FB00D9C9FB00D1124AD5397
:10273000B14F8C91882309F45DC0220F852F1C9620
:102740006C910E940B1256C02F5F3F4F3093270FA2
:102750002093260F21503040F9012491473071F425
:10276000852F90E08C9FF0018D9FF00D9C9FF00DC8
:102770001124ED53F14F220F27833CC04B3071F4ED
:10278000852F90E08C9FF0018D9FF00D9C9FF00DA8
:102790001124ED53F14F220F26832CC04C3571F4D8
:1027A000852F90E08C9FF0018D9FF00D9C9FF00D88
:1027B0001124ED53F14F220F24831CC04436D1F471
:1027C000852F90E08C9FF0018D9FF00D9C9FF00D68
:1027D0001124ED53F14F220F25830CC0852F90E07B
:1027E0008C9FF0018D9FF00D9C9FF00D1124ED53F7
:1027F000F14F448786E29FE00E94E4119093250FF9
:102800008093240F10921C0F10921B0F02C0C6E180
:10281000D0E060911B0F70911C0F8091240F90915C
:10282000250F6817790709F4CBCE6F5F7F4F709340
:102830001C0F60931B0F8091210F9091220F019626
:102840009093220F8093210F0EE81EE0C4ECDEE08F
:10285000FF24BFEFCB2ED12C8A89882309F05EC0DC
:102860008B899C89892B09F456C09F858E85981782
:1028700008F04CC050C08B852B893C898F37E9F418
:10288000D9018D91BC8BAB8B8F3F01F1F901618137
:102890001196BC8BAB8BE82FF0E0EE0FFF1FE059D9
:1028A000FF4F0190F081E02D8F2D0995EB89FC8978
:1028B00081918E87FC8BEB8B28C0A9014F5F5F4F06
:1028C0005C8B4B8BF90184918F3F21F418821C8A19
:1028D0001B8A21C04F5F5F4F5C8B4B8B4150504038
:1028E000FA01649190E0880F991F80599F4FFC0175
:1028F000259134918F2DF9010995EB89FC89319649
:10290000FC8BEB8B3197E491EE871F869F858E853C
:10291000981709F4B0CF8F858F5F8F878A858823BA
:1029200019F420E030E06BC088898F3F11F08F5F91
:10293000888B9F81992309F45CC02885222309F4A0
:1029400058C08E81882309F454C04091230F44233A
:1029500009F44FC0899FC001112480509F4F892FD7
:10296000992730E0B901869F9001879F300D969F8F
:10297000300D112420503F4F232F33278D8190E0BD
:10298000FC012E9FC0012F9F900D3E9F900D1124A2
:1029900080509F4F892F9927242F30E0AC01429F10
:1029A000C001439F900D529F900D112480509F4F66
:1029B000292F33278B818823F1F0EA81F0E0E05062
:1029C000FC4EE491E058E89FC001112480509F4FD5
:1029D000892F9927B601681B790B629FC001639FFD
:1029E000900D729F900D112480509F4F292F3327F7
:1029F00002C020E030E08A819C81890F8A83F8013F
:102A00002083F394065F1F4F6696F4E0FF1609F0EB
:102A100023CFDF91CF911F910F91FF90DF90CF9047
:102A20000895FF920F931F93082FF62E0E9480089F
:102A300010E086E190E0089FF001099FF00D189FDB
:102A4000F00D1124ED53F14FF2821F910F91FF9081
:102A50000895962F482F50E026E130E0429FF00184
:102A6000439FF00D529FF00D1124ED53F14F628101
:102A7000691B62830E9480080895482F50E026E178
:102A800030E0429FF001439FF00D529FF00D112462
:102A9000ED53F14F9281690F62830E94800808957F
:102AA0000F931F93CF93DF938C01C0E0D0E007C05A
:102AB0000E942A108823E1F30E942D102196C0174E
:102AC000D107B4F3DF91CF911F910F9108952F9209
:102AD0003F924F925F926F927F928F929F92AF92AE
:102AE000BF92CF92DF92EF92FF920F931F93DF93EB
:102AF000CF93CDB7DEB72C970FB6F894DEBF0FBEDD
:102B0000CDBF1092540C86EF8093550C84EA8093CD
:102B1000560C82E58093570C80E098EDAFEFBFEF45
:102B20008B839C83AD83BE831982A3C0C801B70188
:102B3000A60195010E94031B7B018C017DE0159588
:102B40000795F794E7947A95D1F7EE0CFF1C001FD8
:102B5000111F8B819C81AD81BE81E80EF91E0A1F79
:102B60001B1FAF80B884C984DA84A20CB31CC41CB8
:102B7000D51CA618B708C808D908C601B501A60112
:102B800095010E94031B1B012C015DE055944794A5
:102B9000379427945A95D1F7C801B701A801970136
:102BA0000E94031B3B014C014DE095948794779460
:102BB00067944A95D1F7D401C301820D931DA41DDA
:102BC000B51D81509048A040B04044F48B859C8551
:102BD00001969C878B87409709F0A8CF8B859C85B1
:102BE0000B970597B0F08B859C850697059720F489
:102BF0008A81698142E010C08B859C850497029789
:102C000020F48A81698143E007C0AB85BC851497B5
:102C10002CF48A81698141E00E94E10FBA81BF5F93
:102C2000BA83B837A9F08F819885A985BA85835270
:102C30009F4FAF4FBF4F8F839887A987BA875C019B
:102C40006D01EB80FC800D811E811C861B8695CF5B
:102C500099819F5F99839036C9F08B819C81AD816A
:102C6000BE818B529F4FAF4FBF4F8B839C83AD83F1
:102C7000BE83A12C38EBB32E3FEFC32E3FEFD32EF4
:102C8000AF82B886C986DA861A82DBCF2C960FB659
:102C9000F894DEBF0FBECDBFCF91DF911F910F9192
:102CA000FF90EF90DF90CF90BF90AF909F908F906C
:102CB0007F906F905F904F903F902F9008952F924C
:102CC0003F924F925F926F927F928F929F92AF92BC
:102CD000BF92CF92DF92EF92FF920F931F93CF9309
:102CE000DF93282E362EA22E842E9924C401880F1D
:102CF000991FCC27DD27C81BD90B23966624772480
:102D000044245524B62CB20CD82CD30C8B2D6D2D0D
:102D10004A2D0E94E10FE82CE20CC62CC30C8E2D2C
:102D20006C2D4A2D0E94E10FF22CF6188F2D6D2D7F
:102D30004A2D0E94E10FD32CD6188E2D6D2D4A2DD1
:102D40000E94E10FE32CE8188F2D6E2D4A2D0E9472
:102D5000E10F122D1819812F6D2D4A2D0E94E10FC0
:102D60008B2D6E2D4A2D0E94E10F812F6C2D4A2D47
:102D70000E94E10FD7FF04C02696C40DD51D0DC0DB
:102D80002A96C30188199909880F991F880F991FDE
:102D9000C80FD91F0894810891080894611C711C00
:102DA00084E090E0480E591E861497040CF0AACFD8
:102DB000DF91CF911F910F91FF90EF90DF90CF9017
:102DC000BF90AF909F908F907F906F905F904F904B
:102DD0003F902F9008952F923F924F925F926F9263
:102DE0007F928F929F92AF92BF92CF92DF92EF929B
:102DF000FF920F931F93CF93DF93202E482E5524DD
:102E000050E044195509662E772430E02619370919
:102E10006A0157FF04C0CC24DD24C41AD50A790105
:102E200037FF04C0EE24FF24E21AF30A57FF04C060
:102E300088248A94982C03C001E0802E912C37FFBF
:102E400004C0AA24AA94BA2C03C011E0A12EB12C6C
:102E5000CE14DF04F4F0E601D595C795382C982CF4
:102E6000940C00E010E011C0CE0DDF1DCC15DD0587
:102E700024F0CC19DD096A0C7B1C892D662D422DAE
:102E80000E94E10F0F5F1F4F930C0C151D0564F39B
:102E90001CC0E701D595C7953A2CBA2CB60C00E0BA
:102EA00010E0CC0DDD1DCE15DF0524F0CE19DF09B5
:102EB000480C591C842D6B2D422D0E94E10F0F5F91
:102EC0001F4FB30C0E151F0564F3DF91CF911F91B7
:102ED0000F91FF90EF90DF90CF90BF90AF909F90B9
:102EE0008F907F906F905F904F903F902F900895BC
:102EF000CF92DF92EF92FF920F931F93182FD62E4F
:102F0000F42EC22EEE2011F4E62E3FC0481710F426
:102F1000F12E142FA12FA695A6957F2D7695769547
:102F2000802F90E0AC0166E0440F551F6A95E1F7F1
:102F30009C0154E0220F331F5A95E1F7422B402B9E
:102F4000880F991F880F991F482B6D2D3EE10FC0E8
:102F5000639FC00111242A2F8C5E9E4F05C0FC0187
:102F6000E20FF11D40832F5F7217C8F76F5FC6161F
:102F700078F71CC0812F6E2D402F0E94E10F8F2DFE
:102F80006E2D402F0E94E10FE394CE1498F7E12EAE
:102F90000AC08E2D6D2D402F0E94E10F8E2D6C2DBD
:102FA000402F0E94E10FE394EF1498F31F910F91CB
:102FB000FF90EF90DF90CF900895EF92FF920F93E4
:102FC0001F93DF93CF9300D000D0CDB7DEB78FEF44
:102FD000898386EF8A8384EA8B8382E58C8300E091
:102FE00010E07E010894E11CF11C57C0F701E60FC8
:102FF000F71F2081FB01EC5AF34F822F86958695AF
:10300000869590E087709070089FA001099F500DF1
:10301000189F500D112483E0559547958A95E1F747
:10302000440F440F440F822F90E087709070DC01B2
:103030000A9FC0010B9F900D1A9F900D1124B3E0C1
:1030400095958795BA95E1F7482B22952695277097
:1030500030E026703070029FC001039F900D129FD8
:10306000900D1124A3E095958795AA95E1F78670B8
:1030700090708295880F807E482B40836F5F7F4FD2
:103080006430710509F0B2CF83E090E00E945015E2
:103090000F5F1F4F0930110519F060E070E0A6CFF7
:1030A0008FEF8093540C86EF8093550C84EA8093C5
:1030B000560C82E58093570C0F900F900F900F9055
:1030C000CF91DF911F910F91FF90EF900895EF92B4
:1030D000FF920F931F93DF93CF9300D000D0CDB713
:1030E000DEB78091540C89838091550C8A8380913E
:1030F000560C8B838091570C8C8382E390E00E9466
:10310000501508E010E07E010894E11CF11C58C045
:10311000F701E60FF71F2081FB01EC5AF34F822FD6
:1031200086958695869590E087709070089FA0019F
:10313000099F500D189F500D1124A3E055954795F8
:10314000AA95E1F7440F440F440F822F90E0877057
:103150009070DC010A9FC0010B9F900D1A9F900D8B
:10316000112433E0959587953A95E1F7482B229500
:103170002695277030E026703070029FC001039FB3
:10318000900D129F900D112423E0959587952A9517
:10319000E1F7867090708295880F807E482B40837F
:1031A0006F5F7F4F6430710509F0B2CF83E090E02C
:1031B0000E94501501501040BFEF0F3F1B0719F040
:1031C00060E070E0A5CF0E94201085E090E00E94B2
:1031D00050150E94D10F8093540C0E94D10F809300
:1031E000550C0E94D10F8093560C0E94D10F8093F2
:1031F000570C0F900F900F900F90CF91DF911F9170
:103200000F91FF90EF9008957F928F929F92AF92CF
:10321000BF92CF92DF92EF92FF920F931F93CF93C3
:10322000DF930E94201084E00E9431108EE596E327
:103230000E94D60FE7ECFBE08490319674903196B3
:1032400094901092540C1092550C1092560C1092AF
:10325000570C80E090E0FC01EA57FF4FE491DC015D
:10326000AC5EBE4FEC9301962BE08034920799F749
:103270000E94DD178AE090E00E9450150E946718B6
:10328000C0E0D0E00E94D10F8C010E94D10F7C01E0
:103290000E94D10F6C010E94D10F5C010E94D10FDE
:1032A000FC01C80167E770E00E94361B182FC701B8
:1032B0006FE570E00E94361B382FC60167E770E0AB
:1032C0000E94361B482FC5016FE570E00E94361B37
:1032D000282FCF0163E070E00E94361B082F0F5F9C
:1032E000812F632F0E94EB162196C83CD10551F621
:1032F0000E946718C0E0D0E00E94D10F8C010E94AC
:10330000D10F7C010E94D10F6C010E94D10F5C0192
:103310000E94D10FFC01C80167E770E00E94361BD4
:10332000182FC7016FE570E00E94361B382FC601C9
:1033300067E770E00E94361B482FC5016FE570E01B
:103340000E94361B282FCF0163E070E00E94361BDD
:10335000082F0F5F812F632FEE24E3940E947817CC
:103360002196C83CD10541F60E946718C0E0D0E024
:103370000E94D10F8C010E94D10F7C010E94D10FBD
:103380006C010E94D10F9C01C80167E770E00E94A8
:10339000361BF82FC7016FE570E00E94361BE82F3F
:1033A000C60160E570E00E94361B482FC90163E04A
:1033B00070E00E94361B282F2F5F8F2F6E2F0E94E8
:1033C0005F162196C83CD10599F60E946718C0E0A7
:1033D000D0E00E94D10F8C010E94D10F7C010E948D
:1033E000D10F6C010E94D10F5C010E94D10FFC0132
:1033F000C80167E770E00E94361B182FC7016FE510
:1034000070E00E94361B382FC60167E770E00E940B
:10341000361B482FC5016FE570E00E94361B282F30
:10342000CF0163E070E00E94361B082F0F5F812FF1
:10343000632FEE240E9478172196C83CD10549F6E7
:103440000E946718C0E0D0E00E94D10F8C010E945A
:10345000D10F7C010E94D10F9C01C80167E770E089
:103460000E94361BF82FC7016FE570E00E94361BE3
:10347000E82FC90163E070E00E94361B482F4F5FC0
:103480008F2F6E2F0E94E10F219681E0C039D8075F
:10349000D9F60E9467180E94D10F8093540C809235
:1034A000550C7092560C9092570CAA24BB240E9483
:1034B000D10F67E770E00E94361B082F0E94D10FE2
:1034C0006FE570E00E94361B182F0E94D10F80FF1D
:1034D00007C0E12EC0E0D0E01DEFF12EF00E7DC060
:1034E000E12EC0E0D0E0B3E0FB2EF00E3AC08C2D10
:1034F00086958695FE01E80FF11DE653F44F149171
:10350000412F429546954695437029F0802F835070
:103510006E2D0E94E10F412F4295437029F0802FBC
:1035200082506E2D0E94E10F412F469546954370C3
:1035300029F0802F81506E2D0E94E10F412F4370A2
:1035400021F0802F6E2D0E94E10F24E0C20E0C5F4F
:1035500080E1C81661F6E3942496C837D10509F4D2
:103560003FC00F2DCC24C3CF8C2D86958695FE01B0
:10357000E80FF11DE653F44F1491412F4295469503
:103580004695437029F0802F8D5F6E2D0E94E10FCC
:10359000412F4295437029F0802F8E5F6E2D0E943F
:1035A000E10F412F46954695437029F0802F8F5F9C
:1035B0006E2D0E94E10F412F437021F0802F6E2D60
:1035C0000E94E10F24E0C20E045080E1C81661F6AB
:1035D000E3942496C837D10519F00F2DCC24C4CF1D
:1035E0000894A11CB11C2FE0A216B10409F05FCF12
:1035F0008AE090E00E9450150E9467180E946715AB
:103600000E9467181ECE629FD001739FF001829FB7
:10361000E00DF11D649FE00DF11D929FF00D839F61
:10362000F00D749FF00D659FF00D9927729FB00DFE
:10363000E11DF91F639FB00DE11DF91FBD01CF0111
:1036400011240895AA1BBB1B51E107C0AA1FBB1F71
:10365000A617B70710F0A61BB70B881F991F5A951E
:10366000A9F780959095BC01CD01089597FB092E8F
:1036700007260AD077FD04D0E5DF06D000201AF433
:10368000709561957F4F0895F6F7909581959F4FBE
:103690000895A1E21A2EAA1BBB1BFD010DC0AA1F93
:1036A000BB1FEE1FFF1FA217B307E407F50720F0AB
:1036B000A21BB30BE40BF50B661F771F881F991F26
:1036C0001A9469F760957095809590959B01AC016F
:1036D000BD01CF01089597FB092E05260ED057FD99
:1036E00004D0D7DF0AD0001C38F4509540953095AF
:1036F00021953F4F4F4F5F4F0895F6F79095809576
:10370000709561957F4F8F4F9F4F08952F923F92F5
:103710004F925F926F927F928F929F92AF92BF92E1
:10372000CF92DF92EF92FF920F931F93CF93DF938D
:10373000CDB7DEB7CA1BDB0B0FB6F894DEBF0FBEEA
:10374000CDBF09942A88398848885F846E847D8437
:103750008C849B84AA84B984C884DF80EE80FD8039
:103760000C811B81AA81B981CE0FD11D0FB6F894AF
:0E377000DEBF0FBECDBFED010895F894FFCF70
:10377E003F40CF10F304FC01C00430100C40030195
:04378E000100000036
:00000001FF
