:10F000000C946B780C947F780C947F780C947F78B8
:10F010000C947F780C947F780C947F780C947F7894
:10F020000C947F780C947F780C947F780C947F7884
:10F030000C947F780C9455790C947F780C947F789D
:10F040000C947F780C947F780C947F780C947F7864
:10F050000C947F780C947F780C947F780C947F7854
:10F060000C947F780C947F780C947F780C947F7844
:10F070003E3E20557A65626F782067616D656C6FE2
:10F0800061646572204D656E7520416C70686131F8
:10F09000203C3C00534420494E4954204F4B0053E0
:10F0A0004420494E4954204641494C3A204E4F2075
:10F0B000434152443F00424C4F434B205245414450
:10F0C000204641494C004C4953542046494C452068
:10F0D0004641494C000011241FBECFEFD0E1DEBFF6
:10F0E000CDBF1DE0A0E0B1E001C01D92A13EB1077F
:10F0F000E1F70E94E4790E945F7D0C94477F0C94B5
:10F10000007800005BA4F6F6F6A45B528779A47938
:10F11000B179F1788EE591E00197F1F700C0C0E098
:10F12000D1E06091BD0B78E0679F702D6627E1D03C
:10F1300036E23A95F1F70E94BA7836E13A95F1F75E
:10F1400000C07A9559F06395683019F0C89500C0F1
:10F15000EECF662730E5C30FD61FE9CF34E03A95EE
:10F16000F1F700C0C6D011E01093BA0BE2E0E093D3
:10F17000360008950027E4E0F1EFE60FF01F449019
:10F18000DE0158E0E0ECF9E0E60FF01FCF010D9151
:10F19000059FE00DF11D2D90008118E2222D07FD45
:10F1A000242D28B94D91222D06FD242D28B9459FE7
:10F1B000222D05FD242D28B9080E191E222D04FD2F
:10F1C000242D28B9F0011A95222D03FD242D28B9EC
:10F1D0000081222D2D9028B909F7C895002708B97C
:10F1E000089528980E944C7AE7E1EA95F1F7289A69
:10F1F000E7E0E0938900EBE1E0938800E0E0F6E0EF
:10F20000B8D0E0FF30D0E0FF03C078940E940979C5
:10F2100008958F93129A0C940D790C940F7912988B
:10F22000EE27FF2784E08A95F1F78CE0EE0FFF1FB1
:10F230000099E160139A0C941D790C941F7913982E
:10F240000C9422790C9424790C9426790C942879C6
:10F250008A9561F7E095F095FF70E093C00BF0930D
:10F26000C10B8F910895EF93FDEF0090BC0BF01947
:10F27000E091B90BEF17B8F40090BD0BE8E00E9EDB
:10F28000F019E091B90BEF1770F0EDE1FF27008066
:10F290000F92EA95E1F70E948A78E1E0FF270F904C
:10F2A0000192EE31E0F3EF910895FF93EF93EFB702
:10F2B000EF93E0918400EE50F1E0EF1700F0F3954A
:10F2C000F431D8F305D0EF91EFBFEF91FF9118958E
:10F2D0000F921F92ECE0F1EF0090B80B000C11249C
:10F2E000E00DF11D05901490F00109951F900F900D
:10F2F000089528980E944C7AE5E1EA95F1F7E091AB
:10F30000B90BEA95E093B90B289A00C008952898A4
:10F310000E944C7A289AE1E0F6E02BD0E3E0E093FB
:10F320008900EDE8E0938800F091BE0BF03059F0D1
:10F33000F093BC0BF091BF0BF093BD0BFF27F09344
:10F34000BE0BF093BF0B089528980E944C7AE0EB17
:10F350000000EA95E9F700C0289AF6E0E2E009D05B
:10F36000089528980E944C7A289AE3E0FDEF01D096
:10F3700008950090B90B0A9410905F0011FC0F2EB5
:10F380000092B90B0090B80B11FC0E2E0092B80B36
:10F39000E0E011FCE1E00895E0ECF8E0A0E0B1E08D
:10F3A00011241D923197E9F70895992730E5639F5D
:10F3B000880F080E191EA0E0B1E0A00DB11D40524B
:10F3C0004D932C9311240895F89444274093C30B34
:10F3D0004093BE0B4093BF0B409381004093450088
:10F3E00040938500409384004FEF47B944B940E90A
:10F3F0004AB941E04C7F4C6041B91298139800E043
:10F400000093B80B06E00093B90B43E040938900EA
:10F410004DE84093880049E04093810042E04093EA
:10F420006F0042E44093440040E04093470041E0D5
:10F430004093450043E84093B00040E04093B30060
:10F4400041E04093B10041E145B944E14093BC0B38
:10F450004CE14093BD0BE4E4F5EFA0ECB9E08FE3A1
:10F460000591159125913591459178E00D9365E0D1
:10F47000441F331F221F111F001F6A95C9F77A9579
:10F48000A9F78A9569F705B7102F016005BF12E04B
:10F4900015BF7894112408950F931F93E9E0EA951E
:10F4A000F1F700000091C20B1091C30BE091C40B67
:10F4B00001030024065AE055101110400093C20BBE
:10F4C0001093C30BE093C40B00E8101A1092B30022
:10F4D0001F910F910895F999FECF92BD81BD60BD36
:10F4E000F894FA9AF99A78940895F999FECF92BD12
:10F4F00081BDF894F89A80B5789408959091BA0BEC
:10F500009030E1F399279093BA0B8A95B9F7089553
:10F51000FC01E050FF4F418332966A95E1F7089570
:10F52000DC01A050BF4FFB0180819591F7FD892F31
:10F53000882339F0803408F08F7D80528D934D936D
:10F54000F3CF08950000000000239C420080DEE419
:10F5500000000002BEA57D4043A0C17080CE44449F
:10F560004E6045288AC9A063100000002210842044
:10F57000804108421100029DF728000109F21000A5
:10F5800000000031880001F0000000000031800020
:10F590004444400074675CC5C023084211C07442F3
:10F5A0006443E07442E0C5C011952F8840FC21E01F
:10F5B000C5C03221E8C5C0F8444421007462E8C5E2
:10F5C000C07462F089800018C031800018C0318892
:10F5D0000888820820003E007C004104111100745C
:10F5E00042620080746F5BC1C074631FC620F46305
:10F5F000E8C7C074610845C0F46318C7C0FC21E8BF
:10F6000043E0FC21E84200746178C5E08C63F8C6F1
:10F610002071084211C0084218C5C08CA98A4A202E
:10F6200084210843E08EEB18C6208E6B38C6207408
:10F630006318C5C0F463E8420074631AC9A0F46398
:10F64000E946207460E0C5C0F9084210808C631858
:10F65000C5C08C6318A8808C6B5AD5408C54454625
:10F66000208C62A21080F0888843C032118420C0B0
:10F67000326D4B24C0000000000000001F93182FC3
:10F68000742F842F82958F70A62FBB27A7FDB0956E
:10F69000412F552747FD5095282F30E08A3090F4B0
:10F6A00088E290E0A89FF001A99FF00DB89FF00DAF
:10F6B0001124E40FF51FEE0FFF1FE050FF4F205FF6
:10F6C0003F4F11C088E290E0A89FF001A99FF00D84
:10F6D000B89FF00D1124E40FF51FEE0FFF1FE0504F
:10F6E000FF4F295E3F4F31832083872F8F70A62FD6
:10F6F000BB27A7FDB095412F552747FD5095282FD3
:10F7000030E08A3090F488E290E0A89FF001A99F51
:10F71000F00DB89FF00D1124E40FF51FEE0FFF1F41
:10F72000EE5FFE4F205F3F4F11C088E290E0A89F40
:10F73000F001A99FF00DB89FF00D1124E40FF51F03
:10F74000EE0FFF1FEE5FFE4F295E3F4F3183208398
:10F750001F910895FF920F931F93182F062FF42ED9
:10F76000452F0E943E7B812F8E5F602F4F2D0E9480
:10F770003E7B1F910F91FF900895CF92DF92EF9201
:10F78000FF920F931F93D82EC62E79018A019A01FA
:10F79000442755276C2DA9010E94AA7B8D2D8C5FD3
:10F7A0006C2DA7010E94AA7B1F910F91FF90EF90F3
:10F7B000DF90CF900895FC0183858E75C1F4908110
:10F7C000953EA9F0953099F09E3289F08085843578
:10F7D00071F48185883559F48285843541F49233FA
:10F7E00031F420E08181813419F421E001C020E06E
:10F7F000822F08958F929F92AF92BF92CF92DF9205
:10F80000EF92FF920F931F93CF93DF93EC014B0185
:10F810008C859D855C01CC24DD248091D70B909153
:10F82000D80BA091D90BB091DA0BA80EB91ECA1E45
:10F83000DB1E6091DB0B70E080E090E02E853F8561
:10F8400040E050E00E94287FA60EB71EC81ED91EB9
:10F8500082E064E1A60195010E94BD7B2889398977
:10F860004A895B8982E065E10E94BD7B2C8D3D8DDC
:10F870004E8D5F8D82E066E10E94BD7B4091DB0B87
:10F8800082E067E150E00E94AA7B4C855D8582E0C2
:10F8900068E10E94AA7B4E855F8582E069E10E9453
:10F8A000AA7B4091C50B5091C60B4F5F5F4F5093A1
:10F8B000C60B4093C50B4150504082E06AE10E9464
:10F8C000AA7B2091CF0B3091D00B4091D10B50915E
:10F8D000D20B8EE164E10E94BD7B4A8D5B8D8EE18F
:10F8E00065E10E94AA7B88899989AA89BB892C8DA8
:10F8F0003D8D4E8D5F8DE12CE2E0FE2E012D112D10
:10F90000E80EF91E0A1F1B1FE216F306040715076F
:10F9100058F0B901681B790BF40171836083288B5F
:10F92000398B4A8B5B8B34C080E092E0F401918389
:10F930008083E88AF98A0A8B1B8B2C853D852F5F93
:10F940003F4F3D872C878091DB0B90E028173907CC
:10F95000F9F46F8570E080E090E02091CF0B30915A
:10F96000D00B4091D10B5091D20B620F731F841FAB
:10F97000951F0E946C7EEE85FF85F070EE0FFF1FD5
:10F98000EF51F44F808191819F878E871D861C8661
:10F99000C601B5010E946C7E80E090E0DF91CF91BE
:10F9A0001F910F91FF90EF90DF90CF90BF90AF909D
:10F9B0009F908F900895CF93DF93EC0148C080E033
:10F9C00090E02091D30B3091D40B4091D50B509106
:10F9D000D60B620F731F841F951F0E946C7E90913F
:10F9E000DE0B903148F5A92FB0E0F5E0AA0FBB1F60
:10F9F000FA95E1F7AF51B44F20E030E0FE01E20F9D
:10FA0000F31F8D9180832F5F3F4F20323105B1F777
:10FA10008881882371F09F5F9093DE0B188A198A82
:10FA20001A8A1B8A1D861C868A8D9B8D02979F874A
:10FA30008E8720E030E018C01092DE0B8091DC0B46
:10FA40009091DD0B01969093DD0B8093DC0B609120
:10FA5000DC0B7091DD0B8091DB0B90E06817790770
:10FA600008F4ADCF22E030E0C901DF91CF910895D5
:10FA70001F9381EE9BE00E94A07E182F882319F42B
:10FA800064E970EF02C06FE970EF8EEC93E040E044
:10FA90000E94907A112369F780E01F9108950E94D7
:10FAA000CC7980E090E068E240E50E94887A86E0C8
:10FAB00090E060E770EF40E50E94907A0895CF9261
:10FAC000DF92EF92FF920F931F93DF93CF93CDB707
:10FAD000DEB7A2970FB6F894DEBF0FBECDBF0E946F
:10FAE0004F7D0E94387D0E944F7D8E010D5F1F4F1C
:10FAF000C8010E94DB7C9C018B81882311F1232BA0
:10FB0000C1F4C8010E94DB7B882391F3F801A4EBC8
:10FB1000B5E09E01255F3F4F80818E3709F48DE26D
:10FB200090E080978D939D933196E217F307A1F7AC
:10FB300008C08EE298E066EC70EF40E00E94907A98
:10FB4000D7CF93E0C92ED12CCC0EDD1E7E010894B8
:10FB5000E11CF11C08E210E0C601B7010E94FA7B2B
:10FB6000892BA1F5A1EEBBE042E032E02C91822F7F
:10FB700080528B3508F020E2822F81568A3108F4BA
:10FB80002F7D842F90E0809FF001819FF00D909F4A
:10FB9000F00D1124E30FF11DEE0FFF1FE050FF4F9A
:10FBA000822F90E08097918380833F5F363210F000
:10FBB0004F5F32E011968DE0A13EB807B9F649815A
:10FBC0005A818EE166E10E94AA7B07C08EE298E02E
:10FBD00066EB70EF40E00E94907A8091C00B9091AC
:10FBE000C10B84FF07C08091C00B9091C10B892B82
:10FBF000D1F7B2CF8091C00B9091C10B80FFEDCFB8
:10FC0000ABCF8FEF8EBD8DB587FBEEF78EB5089528
:10FC1000EFEFFFEF319719F0F4DF8F3FD9F308953D
:10FC2000EFEFFFEF319719F0ECDF8E3FD9F7089532
:10FC30009AE0E7DF9A95E9F78BB180648BB9089574
:10FC40009BB19F7B9BB9982FDCDF892F8064DADF23
:10FC5000872FD8DF862FD6DF852FD4DF842FD2DF02
:10FC600085E9D0DFCEDF08959093C70B8093C80B52
:10FC700085B18F75806485B984B1806A84B95E9AD4
:10FC8000569A209A80E58CBD81E08DBD9AE0B9DF5F
:10FC90009A95E9F780E070E060E050E040E0D0DF66
:10FCA000B7DF813019F0C4DF81E00895AADF80302A
:10FCB00039F081E070E060E050E040E0C1DFF6CF75
:10FCC000B7DF8FEF8093C90B8093CA0B8093CB0B68
:10FCD0008093CC0B882708952091C90B3091CA0BD3
:10FCE0004091CB0B5091CC0B26173707480759078B
:10FCF00029F16093C90B7093CA0B8093CB0B90933F
:10FD0000CC0B4427562F672F782F8894551F661FDA
:10FD1000771F81E195DF84DF8E3F19F089DF8FEF58
:10FD20000895B091C70BA091C80BE0E0F2E069DF45
:10FD30008D933197E1F765DF64DF7ADF88270895D7
:10FD40002F923F924F925F928093CD0B9093CE0B68
:10FD50001C010E94347E81115EC099278827772775
:10FD600066270E946C7EF101E254FE4F848186304A
:10FD700011F080EF089560857185828593852B0150
:10FD80000E946C7EF10181898093DF0B82898093D0
:10FD9000E00B85858093DB0B86859927480E591EDD
:10FDA0004092CF0B5092D00B9093D10B9093D20BEB
:10FDB0006689778988278894661F771F881F640D56
:10FDC000751D891F6093D30B7093D40B8093D50B53
:10FDD0009093D60B1B012C019093DE0B9093DC0BC0
:10FDE0009093DD0B0E946C7E8091DF0B9091E00B75
:10FDF00082958F709295792F707F872B9F70280E38
:10FE0000391E411C2092D70B3092D80B4092D90B4F
:10FE10005092DA0B80E05F904F903F902F900895C2
:10FE20000F931F93FC016091DE0B70E2679F80913E
:10FE3000CE0B9091CD0B800D911D11248C01099555
:10FE4000803011F400271127C8011F910F910895E8
:10FE5000629FD001739FF001829FE00DF11D649FAE
:10FE6000E00DF11D929FF00D839FF00D749FF00D3A
:10FE7000659FF00D9927729FB00DE11DF91F639FDB
:10FE8000B00DE11DF91FBD01CF0111240895F894B3
:02FE9000FFCFA2
:040000030000F00009
:00000001FF
