:100000000C942A480C94D2480C94D2480C94D248B0
:100010000C94D2480C94D2480C94D2480C94D248F8
:100020000C94D2480C94D2480C94D2480C94D248E8
:100030000C94D2480C948A490C94D2480C94D2481F
:100040000C94D2480C94D2480C94D2480C94D248C8
:100050000C94D2480C94D2480C94D2480C94D248B8
:100060000C94D2480C94D2480C94D2480C94D248A8
:100070000000000000000000000000000000000080
:100080000000000000000000000000000000000070
:100090000000000000000000000000000000000060
:1000A0000000000000000000000000000000000050
:1000B0000000000000000000000000000000000040
:1000C00000000049000000495252000052525C2DCD
:1000D0000000000000000000000000000000000020
:1000E0000040000000494A52004952525B1C5253E2
:1000F0001C25241B2425251B0A0A2D1C12120A0A62
:100100000000000000000000404949494949525B95
:100110005B5B525B1C1C1312241C12090909120997
:100120000909090A0A0A0A0A0A13120A0A12130A10
:100130000000000000009252525252521312130952
:10014000001C0A1212401B65090A0009241B120038
:1001500000251C1C010025241C1C0024252424240B
:100160000000000000005249494000001B135249A2
:100170004900641C1C5B4A481C651C2552491C1C18
:10018000652464491C1C652564491C1C6D2E5C4952
:100190000000000000000000000000490000000016
:1001A000535200000053522500004A5225250000FA
:1001B0005B251300005B53000A1C095B1C657F373D
:1001C0004052522E2E1C525C2E251B1324251C1C23
:1001D00012002525120000121B0000132E37001BF1
:1001E00037372E2E37372E2E2E2E2E2E6E6E6E1C5D
:1001F0001313120009131200001213130012251C0E
:1002000013132E371C131313361C131B1B1B251320
:100210001C1C1B1B1B1C1C1C1C1C1C1C1C1C1C132A
:100220001312121313001313131C000913131C01D0
:100230000037131C13002E2E1C1C001C772E2500CB
:10024000137F251C010A37241C1C0A2E25250900B2
:10025000132E242525252E252525252525252D2E3E
:10026000251B2E2E251C1325251C1C1C1C011C1CAB
:100270001300011C0A000165775C016E7F6E521B42
:1002800025256D1C524925251C1353001C1C1C528E
:100290004A001B135B5B000009525C0000005B5CC2
:1002A000000000001B000000000000000000000033
:1002B000135B7F776E6E136577766E6E1B65777650
:1002C00076761B5BBF76B67609136DBFB7B6001B9B
:1002D000125C76BF0000121B125B00000000090ACE
:1002E0006E6E6E77241C6E6E77251C1C6E776E1CEE
:1002F0001C1C76761C1C2425B765646D6D1B766D01
:100300006D5B09125B5C5B125B641213131B1212B0
:100310001C1C1C1C1C241C1C242525242425251BDA
:1003200000002513000064BF00096EBFBF6D6EBFE3
:100330006D5B12135B12131209000901000000002B
:100340002E1C0900096E010009767F7F12777F7FDE
:100350006412BF775B121B095B121B0900001B09AB
:10036000000000000000000000000000000000008D
:100370007F7F5313130064121B0100001B12000047
:10038000000000000000000000000000000000006D
:10039000000000000000000000000000000000005D
:1003A0000000000000002600000026002F000000D2
:1003B0002F00370000003700FF000000FF00BF00E3
:1003C0000000BF00370000370000002626000000B4
:1003D000000000000000262626262600000000005F
:1003E0002F000000003700000000FF00000000BFE9
:1003F0000000000037000000000026262626260008
:100400000000000000002626262626002F000000FF
:100410000000370000000000FFFFFFFF0000BF00EA
:1004200000000000370000000000262626262600D7
:100430000000000000002626262600002F000000F5
:100440002F00370000003700FFFFFFFF0000BF0054
:100450000000BF00370000003700262626260000D7
:10046000000000000000000026262600002F0000EB
:100470002F00370000003700FF000000FF00BF0022
:100480000000BF00370000370000262626000000CD
:100490000000000000002600000026002F000000E1
:1004A0002F000037003700000000FF00000000BFF1
:1004B00000BF0000370000003700260000002600C3
:1004C000000000000000000000000000000000002C
:1004D000000000000000000000000000000000001C
:1004E0000000009B000000529BA400005B9B6D7706
:1004F00000000000000000000000000000000000FC
:10050000005B000000E4F6FF099BEDF6FFBFA4AD21
:10051000BFBFBFBF767F7FB7B7BF7F766EB7B7BFAE
:1005200000000000000000005BB6F6F6F6FFFFFFDB
:10053000FFBFFFFFFFBFBFAEFFFFFFB7AD65FFFF10
:10054000B7B6AD65FFFFBFB7AE6EFFFFBFB7B7650C
:10055000000000000000F6F6EDEDADA4B66D6D5C98
:10056000526E6565655265765C5C52536E246552C9
:10057000526E25255B52772D2525526E6E2D252531
:10058000000000000000A49B9B4900006564A49B40
:1005900092006D2525649349656E652E9B52242536
:1005A0006D25655225246D2D655225256E2E6452CC
:1005B00000000000000000000000004A00000000F1
:1005C0005B9B0000005B5B2D0000525B2E2E000148
:1005D0005B2D1C01005C5B014A654A5B1C6E7F77EA
:1005E000495B9B77776D5B65776E65656D2D25251E
:1005F0005C522E25130949641C09095C7F7F091C84
:100600007F7F777F777F77777F7F7776777F7F6E44
:10061000656E6EA4B6FF655BA4B7BFFF526DBFBF2A
:10062000BFFF7FBFBFBFBFFFBFBFB7BFFFFF7FB76A
:10063000BFBFFFFF6EB7BFBFFFFF77BFBFBFFFFFEB
:10064000FFFFBFBFB75BFFFFBFBFA464FFFFBFAD2E
:10065000A47FFFFFBFA4BF7FFFBFADBFBFBFFFB67B
:10066000BFBFBF77F7BFBFBF7777FFBFBFBF6452C2
:100670006D7F6E2E2D2D7F766E6E6E2E7777777650
:100680002E1C7F776E251C25776525251C096E6E2F
:100690001C0949255B494A6E7F645377BF775B5CD1
:1006A000256E6E255B4A25651C1B5B002524245B9B
:1006B00053001C1B5B5C00000A5B64000000646468
:1006C000000000005C0000000000000000000000CE
:1006D0005B5C7FBF77765C6D7FB777775C6D7FBF44
:1006E00077775C64BFBFBFBF0A5C6EBFBFBF0065EA
:1006F000646DBFBF00005B6D646D00000000125BA5
:100700007777777F6E6E77777F766D7677BF776D49
:100710006E76BF7F6D6E767FBF7676BFBF76BFBFCA
:10072000BFB664ADADB6B6ADBFFF646DADB6AD647A
:1007300077BFBFBFFFFF77BFBFBFFFFF7FBFBFBF99
:10074000FFF6BFB7ADF6FFFFA4ADFFFFFFFFFFFF52
:10075000FFFFFFFFFFFFFFF6A4005B520000000059
:10076000BFBFAD5B64BFB6ADADBFFFBFFFFFFFFF57
:10077000BF64FFFFBFB6765BFFBFBF5B0000FF5CDF
:100780000000000000000000000000000000000069
:10079000BFBF645C5C006E5C654900006D5B00007F
:1007A0000000000000000000000000000000000049
:1007B0000000000000000000000000000000000039
:1007C0000600040000000100020003000400050010
:1007D00006000700080009000A000B000C000D00CD
:1007E0000E000F0010000000110012001300140092
:1007F000150016000600030000001700180019007D
:100800001A001B001C001D001E001F0020002100FC
:10081000220023002400250026000000000208001A
:10082000085504085A0000F8000990000A1E320515
:100830000000FF0000001C08000000005753655333
:100840003B54525A3C5A685377538653225A945316
:10085000A25300FF06015300C00000904C6B00C281
:100860000000B2076E0092286B00C1000091476B38
:100870000B92346B0C90476B0092286B0091446B89
:100880000B90486B0092346B0091456B0C904A6B57
:100890000092286B0091476B0B904C6B0092346B6D
:1008A0000091446B06904A6B06486B0092286B00DF
:1008B00091456B0C90476B0092346B0091446B0B2D
:1008C00090456B00922D6B0091406B0C92396B0B35
:1008D00090456B00922D6B0091406B0C90486B0023
:1008E00092396B0091456B0C904C6B00922D6B0014
:1008F00091486B0B92396B0C904A6B00922D6B00F8
:1009000091476B0B90486B0092396B0091456B0CD3
:1009100090476B00922C6B0091446B0C92386B0BE0
:1009200090476B00922C6B0091446B0C90486B00CD
:1009300092386B0091456B0B904A6B0092286B00CC
:1009400091476B0C92346B0C904C6B0092286B00AF
:1009500091476B0B92346B0C90486B00922D6B009F
:1009600091456B0B92396B0C90456B00922D6B008F
:1009700091406B0B92396B0C90456B00922D6B0084
:1009800091406B0C92396B0B2D6B00912F6B0C927D
:10099000306B0091396B0B92266B0091326B0C908F
:1009A0004A6B0092326B0091456B0C92266B0B9058
:1009B0004D6B0092326B00914A6B0C90516B009220
:1009C000266B00914D6B0B92326B0C904F6B00922B
:1009D000266B00914C6B0C904D6B0092326B00912A
:1009E0004A6B0B904C6B00922D6B0091486B0C92F4
:1009F000396B0B2D6B0C90486B0092396B00914555
:100A00006B0C904C6B00922D6B0091456B0B9239E7
:100A10006B0C904A6B00922D6B0091476B0B9048CA
:100A20006B0092396B0091456B0C90476B00922CD8
:100A30006B0091446B0C92386B0B90476B00922CBF
:100A40006B0091446B0C90486B0092386B009145A1
:100A50006B0B904A6B0092286B0091476B0C9234A1
:100A60006B0B904C6B0092286B0091476B0C92348F
:100A70006B0C90486B00922D6B0091456B0B92397B
:100A80006B0C90456B00922D6B0091406B0B923973
:100A90006B0C90456B00922D6B0091406B0C923962
:100AA0006B0B2D6B0C396B0B904C6B0092286B0011
:100AB00091476B0C92346B0C90476B0092286B0043
:100AC00091446B0B90486B0092346B0091456B0C1A
:100AD000904A6B0092286B0091476B0B904C6B0017
:100AE00092346B0091446B06904A6B06486B0092FF
:100AF000286B0091456B0C90476B0092346B009112
:100B0000446B0B90456B00922D6B0091406B0C92E7
:100B1000396B0B90456B00922D6B0091406B0C90E4
:100B2000486B0092396B0091456B0C904C6B0092B6
:100B30002D6B0091486B0B92396B0C904A6B0092B5
:100B40002D6B0091476B0B90486B0092396B0091B5
:100B5000456B0C90476B00922C6B0091446B0B9291
:100B6000386B0C90476B00922C6B0091446B0C908F
:100B7000486B0092386B0091456B0B904A6B00926A
:100B8000286B0091476B0C92346B0B904C6B00926E
:100B9000286B0091476B0C92346B0C90486B009261
:100BA0002D6B0091456B0B92396B0C90456B00924D
:100BB0002D6B0091406B0B92396B0C90456B009242
:100BC0002D6B0091406B0C92396B0B2D6B00912FAC
:100BD0006B0C92306B0091396B0B92266B0091324B
:100BE0006B0C904A6B0092326B0091456B0C922615
:100BF0006B0B904D6B0092326B00914A6B0C9051D5
:100C00006B0092266B00914D6B0B92326B0C904FE8
:100C10006B0092266B00914C6B0C904D6B009232E6
:100C20006B00914A6B0B904C6B00922D6B009148BE
:100C30006B0C92396B0B2D6B0C90486B0092396BDF
:100C40000091456B0B904C6B00922D6B0091456BA6
:100C50000C92396B0C904A6B00922D6B0091476B94
:100C60000B90486B0092396B0091456B0C90476B71
:100C700000922C6B0091446B0B92386B0C90476B7D
:100C800000922C6B0091446B0C90486B0092386B77
:100C90000091456B0B904A6B0092286B0091476B5B
:100CA0000C92346B0B904C6B0092286B0091476B4D
:100CB0000C92346B0C90486B00922D6B0091456B3D
:100CC0000B92396B0C90456B00922D6B0091406B31
:100CD0000B92396B0C90456B00922D6B0091406B21
:100CE0000C92396B0B2D6B0C396B0B90406B009297
:100CF0002D6B00913C6B0C92346B0C2D6B0B346B99
:100D00000C903C6B00922D6B0091396B0B92346B05
:100D10000C2D6B0B346B0C903E6B00922C6B009186
:100D2000386B0C92346B0B2C6B0C346B0B903B6B55
:100D300000922C6B0091386B0C92346B0C2C6B0B6B
:100D4000346B0C903C6B00922D6B0091396B0B92C5
:100D5000346B0C2D6B0C346B0B2D6B0091396B0CC1
:100D600092346B0B2D6B0C346B0C2C6B0091386B2D
:100D70000B92346B0C2C6B0B346B0C2C6B0C346B9C
:100D80000B2C6B0C346B0B90406B00922D6B009115
:100D90003C6B0C92346B0B2D6B0C346B0C903C6BDE
:100DA00000922D6B0091396B0B92346B0C2D6B0BF9
:100DB000346B0C903E6B00922C6B0091386B0C9254
:100DC000346B0B2C6B0C346B0B903B6B00922C6BCD
:100DD0000091386B0C92346B0C2C6B0B346B0C90B9
:100DE0003C6B00922D6B0091396B0B92346B0C9025
:100DF000406B00922D6B00913C6B0C92346B0B900E
:100E0000456B00922D6B0091406B0C92346B0B90F4
:100E1000456B00922D6B0C346B0C90446B00922C44
:100E20006B0091406B0B92346B0C2C6B0B346B0C86
:100E30002C6B0B346B0C2C6B0C346B0BFF060145CD
:100E400000FF2F0000FF06015300C00000B0075054
:100E500000C10000B1075000C20000922C7F00C307
:100E60000708922C00002F7F092F000090447F007C
:100E7000913F7F0092337F09330000277F092700CD
:100E8000002C7F092C0000337F09330000913F00C4
:100E90000090440000437F00913F7F0092337F1118
:100EA000330000913F000090430000427F00913FDB
:100EB0007F00922C7F092C00002F7F092F00003328
:100EC0007F09330000277F09270000913F00009031
:100ED000420000417F00913F7F00922C7F092C004F
:100EE00000337F09330000913F0000904100004033
:100EF0007F00913A7F0092337F11330000913A00D6
:100F000000904000003E7F00913A7F00922E7F09C2
:100F10002E0000903E00003F7F0092307F0930009D
:100F200000903F0000913A000092337F09330000A7
:100F3000903E7F00913A7F0092277F092700009022
:100F40003E00003F7F00922E7F092E0000903F0060
:100F500000913A000092337F09330000903E7F00F9
:100F6000913A7F0092337F09903E00003F7F083F17
:100F7000000092330000913A0000922E7F092E006B
:100F80000090317F00912E7F0092307F0930000069
:100F900090310000337F0092337F0933000090339B
:100FA0000000912E000090317F0092277F092700DA
:100FB0000090310000337F00912E7F00922E7F0938
:100FC0002E0000337F09330000912E000090330083
:100FD00000377F0091337F0092337F1133000091FF
:100FE00033000090370000922C7F092C00002F7FE7
:100FF000092F000090447F00913F7F0092337F09CA
:10100000330000277F092700002C7F092C000033C4
:101010007F09330000913F000090440000437F00AF
:10102000913F7F0092337F11330000913F00009089
:10103000430000427F00913F7F00922C7F092C00EB
:10104000002F7F092F0000337F09330000277F091D
:10105000270000913F000090420000417F00913F37
:101060007F00922C7F092C0000337F093300009110
:101070003F000090410000407F00913A7F00923392
:101080007F11330000913A0000904000003E7F0045
:10109000913A7F00922E7F092E0000903E00003F83
:1010A0007F0092307F09300000903F0000913A00AD
:1010B0000092337F09330000903E7F00913A7F0019
:1010C00092277F09270000903E00003F7F00922E6C
:1010D0007F092E0000903F0000913A000092337F7C
:1010E00009330000903E7F00913A7F0092337F09E0
:1010F000903E00003F7F083F000092330000913A8D
:101100000000922E7F092E000090317F00912E7FEB
:101110000092307F0930000090310000337F009250
:10112000337F0933000090330000912E000090318E
:101130007F0092277F0927000090310000337F0055
:10114000912E7F00922E7F092E0000337F093300FD
:1011500000912E0000903300003A7F0091337F0011
:1011600092337F1133000091330000903A00004326
:101170007F00912F7F002F7F00922C7F092C000091
:1011800090430000447F00922F7F092F000090447D
:10119000000092337F00337F09330000330000905A
:1011A000437F0092277F0927000090430000447F7F
:1011B00000922C7F092C000090440000922F7F09A0
:1011C0002F0000903B7F0092337F00337F09330074
:1011D00000330000277F08270000903B0000912F7C
:1011E00000002F000090437F0091307F00307F008F
:1011F000922C7F092C000090430000447F00923025
:101200007F0930000090440000923468003468097F
:1012100034000034000090437F0092247F092400B2
:101220000090430000447F00922C7F092C00009026
:1012300044000092307F09300000903B7F009234E0
:101240006800346809340000340000247F0824005A
:1012500000903B00009130000030000090437F0080
:1012600091317F00922C7F092C00009043000044B4
:101270007F0092346809340000904400009238687E
:101280000938000090437F0092247F0924000090D9
:10129000430000447F00922C7F092C000090440002
:1012A0000092346809340000903C7F00923868094D
:1012B000380000247F08240000903C000091310099
:1012C0000090437F0091327F00922C7F092C000018
:1012D00090430000447F0092346809340000904439
:1012E00000009238680938000090437F0092257F03
:1012F0000925000090430000447F00922C7F092CB8
:1013000000009044000092346809340000903E7F51
:101310000092386809380000257F08250000903EBB
:10132000000091320000903F7F0091377F009233A0
:101330007F0933000091370000903F00003F7F009D
:1013400091377F0092337F0933000091370000907E
:101350003F00003F7F0091377F0092337F123300C0
:101360000091370000903F0000922B7F122B00006D
:1013700090437F0091337F0092277F1127000091D7
:10138000330000904300003F7F0091377F0092338D
:101390007F0933000091370000903F00003F7F003D
:1013A00091377F0092337F0933000091370000901E
:1013B0003F00003F7F0091377F0092337F12330060
:1013C0000091370000903F0000922C7F122C00000B
:1013D00090447F0091337F0092277F112700009176
:1013E000330000904400003F7F00913A7F00923329
:1013F0007F09330000913A0000903F00003F7F00DA
:10140000913A7F0092337F09330000913A000090B7
:101410003F00003F7F00913A7F0092337F123300FC
:1014200000913A0000903F00123E7F0091387F000B
:1014300092337F08330000337F0933000091380076
:1014400000903E00003F7F0091377F00922C7F0983
:101450002C000091370000903F0000337F00913056
:101460007F0092337F0933000091300000903300F9
:1014700000347F00912F7F0092346809340000917E
:101480002F000090340000357F00912F7F009235AF
:101490006809350000912F000090350000367F006C
:1014A000912E7F0092366809360000912E00009040
:1014B000360000377F00912D7F0092376809370092
:1014C00000912D000090370000387F00912C7F00A4
:1014D00092386808380000912C0000903800003ADB
:1014E0007F00912B7F00923A68093A0000912B000F
:1014F00000903A0000387F0091337F00922C7F09E2
:101500002C0009337F09330000337F093300092C95
:101510007F092C00002F7F082F0000337F09330044
:10152000009133000090380000922C7F092C0009B4
:10153000903E7F0091387F0092337F093300009006
:101540003E00003F7F0092337F09330000903F0050
:101550000091380009903E7F0091387F00922C7FE7
:10156000092C0000903E00003F7F0092327F08323D
:101570000000903F00009138000092337F09330053
:101580000090377F0091337F00922B7F092B000959
:10159000337F09330000337F093300092B7F092B88
:1015A0000000337F08330000337F0933000091339C
:1015B000000090370000922B7F092B0009903E7F9E
:1015C00000913A7F0092337F09330000903E000083
:1015D0003F7F0092337F09330000903F0000913A33
:1015E0000009903E7F00913A7F00922B7F092B00EB
:1015F00000903E00003F7F0092327F083200009052
:101600003F0000913A000092337F09330000903B85
:101610007F0091347F0092287F092800092F7F09DD
:101620002F00002F7F092F0009287F092800002C98
:101630007F082C00002F7F092F00009134000090BC
:101640003B000092287F0928000990407F00913BD1
:101650007F00922F7F092F000090400000427F0002
:10166000922F7F092F000090420000913B000990CB
:10167000407F00913B7F0092287F09280000904026
:101680000000427F00922C7F082C00009042000056
:10169000913B0000922F7F092F0000903F7F009127
:1016A0003A7F00922B7F092B0009337F093300001A
:1016B000913A0000903F0000337F00912E7F00920E
:1016C000337F093300092B7F092B0000912E000086
:1016D000903300003F7F00913A7F0092307F0830C6
:1016E0000000337F09330000913A0000903F000969
:1016F0003D7F0091377F0092337F0933000091379F
:101700000000903D00003D7F0091377F0092327FC6
:101710000932000091370000903D00003D7F0091AC
:10172000377F0092307F0930000091370000903DF4
:1017300000003A7F0091377F00922F7F092F000031
:1017400091370000903A00003A7F0091377F009275
:101750002F7F092F000091370000903A0000377F5B
:101760000091307F00922E7F082E00009130000003
:1017700090370000377F0091307F00922B7F09FF68
:1017800006014500922B00009130000090370000C8
:10179000FF2F0000B0077F00B1077F00B2077F0076
:1017A000C20D00B2077F00922B5A00B3077F0007DB
:1017B000400093046401C11F00B1076E00912B57D4
:1017C0000293040000C01F00B0076E00902B420877
:1017D000922B00012B5A0093046401912B00002BE3
:1017E0005702902B000093040000902B4208922B8C
:1017F00000012E5A01912B00002E5702902B000061
:101800002E4208922E00012F5A01912E00002F57D0
:1018100002902E00002F4208922F0001305A0191B1
:101820002F0000305702902F000030420892300005
:10183000012F5A01913000002F5702903000002FE5
:101840004208922F00012E5A01912F00002E5702BC
:10185000902F00002E4208922E00012D5A01912E49
:1018600000002D5702902E00002D4208922D0001FD
:101870002B5A0093046401912D00002B5702902DE8
:10188000000093040000902B4108922B00012B5A7A
:101890000093046401912B00002B5702902B000051
:1018A00093040000902B4108922B00012E5A0191C5
:1018B0002B00002E5702902B00002E4108922E0084
:1018C000012F5A01912E00002F5702902E00002F59
:1018D0004108922F0001305A01912F000030570229
:1018E000902F0000304108923000012F5A019130B2
:1018F00000002F5702903000002F4108922F000166
:101900002E5A01912F00002E5702902F00002E41D9
:1019100008922E00012D5A01912E00002D570290A1
:101920002E00002D4108922D0000FF060153019268
:10193000435A0093076401912D0000526801902DD5
:1019400000003E5D0193070002924300019307648B
:101950000207000492435A00930764019152000069
:10196000536801903E0000405D01930700029243DE
:101970000007465A00930764019153000052680122
:10198000904000003E5D01930700029246000193E3
:1019900007640207000492475A00930764019152BA
:1019A0000000536801903E0000405D019307000273
:1019B000924700073C5A009307640191530000517D
:1019C000680190400000405D0193070002923C00D6
:1019D0000193076402070004923C5A0093076401D4
:1019E000915100004F6801904000003F5D01930756
:1019F0000002923C00073F5A0093076401914F0098
:101A0000004F6801903F00003E5D01930700029285
:101A10003F00019307640207000492405A009307B5
:101A20006401914F0000516801903E00003C5D014F
:101A30009307000292400007435A00930764019104
:101A4000510000526801903C00003E5D0193070088
:101A500002924300019307640207000492435A0074
:101A60009307640191520000536801903E000040CA
:101A70005D019307000292430007465A00930764F2
:101A80000191530000516801904000003E5D0193B8
:101A90000700029246000193076402070004924780
:101AA0005A0093076401915100004F6801903E0075
:101AB000003E5D0193070002924700073C5A0191E6
:101AC0004F00004F6801903E0000405D03923C00D3
:101AD000139304640304000290400000914F00003F
:101AE00090377F00912B7F032B000090370000364A
:101AF0007F00912A7F032A000090360000357F0086
:101B000091297F0329000090350000347F0091283F
:101B10007F0328000090340000337F0091277F0767
:101B200092435A0093076401912700005268019084
:101B30003300003E5D0193070002924300019307CA
:101B4000640207000492435A009307640191520013
:101B500000536801903E0000405D0193070002922F
:101B6000430007465A0093076401915300005268EE
:101B700001904000003F5D01930700029246000182
:101B80009307640207000492475A00930764019187
:101B9000520000536801903F0000405D0193070030
:101BA00002924700073C5A009307640191530000DA
:101BB00051680190400000405D0193070002923C93
:101BC000000193076402070004923C5A00930764E3
:101BD00001915100004F6801904000003F5D01936A
:101BE000070002923C00073F5A0093076401914F9F
:101BF00000004F6801903F00003E5D019307000226
:101C0000923F00019307640207000492405A009338
:101C1000076401914F0000516801903E0000405D53
:101C20000193070002924000072B5A0093046401BD
:101C30009151000090400000376200912F620293A2
:101C4000040002922B00012B5A0190370000912FC3
:101C5000000090376200912F6204922B00012B5AF2
:101C600001912F000090370000376200912F620A27
:101C7000922B00012D5A0093046401912F000090D3
:101C80003700003762009130620293040002922D07
:101C900000012D5A0190370000913000009037620A
:101CA0000091306204922D00012D5A019130000004
:101CB000903700003762009130620A922D00012EA9
:101CC0005A0093046401913000009037000037629D
:101CD000009131620293040002922E00012E5A01FB
:101CE000903700009131000090376200913162041A
:101CF000922E00012E5A01913100009037000037DA
:101D000062009131620A922E00012F5A00930464FE
:101D10000191310000903700003762009132620279
:101D200093040002922F00012F5A01903700009176
:101D30003200009037620091326204922F00012F2E
:101D40005A019132000090370000376200913262F0
:101D50000A922F0001435A00930764019132000058
:101D6000526801903700003E5D01930700029243E4
:101D700000019307640207000492435A009307642A
:101D80000191520000536801903E0000405D0193B4
:101D900007000292430007465A00930764019153DB
:101DA0000000526801904000003E5D019307000270
:101DB000924600019307640207000492475A009379
:101DC00007640191520000536801903E0000405D9D
:101DD0000193070002924700073C5A0093076401F1
:101DE0009153000051680190400000405D0193074D
:101DF0000002923C000193076402070004923C5ADF
:101E00000093076401915100004F68019040000069
:101E10003F5D0193070002923C00073F5A00930781
:101E20006401914F00004F6801903F00003E5D014A
:101E300093070002923F0001930764020700049297
:101E4000405A0093076401914F0000516801903E91
:101E500000003C5D019307000292400007435A00D6
:101E60009307640191510000526801903C00003ECC
:101E70005D0193070002924300019307640207008B
:101E80000492435A00930764019152000053680181
:101E9000903E0000405D0193070002924300074618
:101EA0005A0093076401915300005168019040006B
:101EB000003E5D0193070002924600019307640211
:101EC00007000492475A0093076401915100004FA4
:101ED0006801903E00003E5D0193070002924700BA
:101EE000073C5A0093076401914F00004F6801902E
:101EF0003E0000405D0193070002923C002B435AD4
:101F00000093076401914F00005268019040000067
:101F10003E5D0193070002924300019307640207AC
:101F2000000492435A0093076401915200005368E1
:101F300001903E0000405D019307000292430007BC
:101F4000465A009307640191530000526801904083
:101F500000003E5D01930700029246000193076472
:101F60000207000492475A0093076401915200004F
:101F7000536801903E0000405D01930700029247C4
:101F800000073C5A00930764019153000051680117
:101F900090400000405D0193070002923C000193D5
:101FA000076402070004923C5A00930764019151B0
:101FB00000004F680190400000405D01930700025F
:101FC000923C00073F5A0093076401914F00004F75
:101FD000680190400000405D0193070002923F00BD
:101FE000019307640207000492405A0093076401BA
:101FF000914F000051680190400000405D0193073F
:10200000000292400007930764030700009151000B
:1020100000626D02904000005C7F04916200005CF1
:102020006D02905C0000567F04915C0000586D05C5
:1020300090560000537F0191580000576D0890534F
:102040000000487F04915700005C6D02904800003A
:10205000517F035100003E7F01915C0000566D0BE3
:10206000903E0000627F01915600004B6D0290622D
:1020700000005C7F035C0000587F01914B00004929
:102080006D0290580000457F06450000427F0342E4
:102090000000567F0191490000456D0393076402DB
:1020A000905600004B7F0193070002904B000049BF
:1020B0007F03490000477F03470000457F03450039
:1020C00000467F03460000437F0792305A00930783
:1020D0006401914500004B680190430000435D019D
:1020E00093070003923000009307640207000090FA
:1020F000430000435D0492305A0093076401914B02
:1021000000004C680190430000435D019307000309
:1021100092300006335A0093076401914C00004B43
:10212000680190430000435D019307000392330070
:10213000009307640207000492345A009307640175
:10214000914B00004C680190430000435D019307F0
:10215000000392340006295A0093076401914C0051
:10216000004A680190430000415D0193070003921B
:10217000290000295A0093076402070004922900ED
:1021800000295A0093076401914A000048680190B1
:10219000410000465D0193070003922900062C5A76
:1021A00000930764019148000048680190460000D0
:1021B000455D0193070003922C000093076402071A
:1021C0000004922D5A00930764019148000045686D
:1021D0000190450000415D0193070003922D000628
:1021E000305A0093076401914500004B680190410B
:1021F0000000435D019307000392300000930764E1
:102200000207000090430000435D0492305A00939F
:10221000076401914B00004C680190430000435D4E
:10222000019307000392300006335A0093076401BC
:10223000914C00004A680190430000435D01930700
:102240000003923300009307640207000492345A9B
:102250000093076401914A00004868019043000020
:10226000435D019307000392340006295A00930747
:1022700064019148000048680190430000455D01F9
:102280009307000392290000295A0093076402076C
:102290000004922900002C5A0093076403070003EE
:1022A000922C00062D5A0093076403070003922D19
:1022B00000009307640207000492315A00930764F8
:1022C0000307000392310006305A0093076401911E
:1022D0004800004B670190450000435D01930700F3
:1022E000039230000093076402070000904300004F
:1022F000435D0492305A0093076401914B00004CF7
:10230000670190430000435D019307000392300092
:1023100006335A0093076401914C00004B6701900B
:10232000430000435D0193070003923300009307CD
:10233000640207000492345A0093076401914B0031
:10234000004C670190430000435D01930700039236
:10235000340006295A0093076401914C00004A6733
:102360000190430000415D019307000392290000A2
:10237000295A009307640207000492290000295A91
:102380000093076401914A000048670190410000F2
:10239000465D0193070003922900062C5A0093071B
:1023A00064019148000048670190460000455D01C6
:1023B00093070003922C0000930764020700049225
:1023C0002D5A00930764019148000045670190452C
:1023D0000000415D0193070003922D0006325A0070
:1023E0009307640191450000426701904100003964
:1023F0005D01930700039232000093076402070017
:102400000492325A0093076401914200004567022A
:102410009307000392320006365A00930764019135
:1024200045000047670293070003923600009307B8
:10243000640207000492395A00930764019147002F
:10244000004A670190390000425D01930700039242
:10245000390006375A0093076401914A0000486723
:102460000190420000435D01930700039237000092
:10247000375A009307640207000492370000375A66
:10248000009307640307000392370006375A00934E
:102490000764019148000047680190430000415ED5
:1024A00001930700039237000093076402070004BA
:1024B00092375A00930764030700039237000630EF
:1024C0005A0093076401914700004B680190410056
:1024D00000375D019307000392300000305A0093EB
:1024E00007640207000090370000375D0492300057
:1024F00000305A0093076401914B00004C68019032
:102500003700003C5D019307000392300006335A08
:102510000093076401914C00004A6801903C000060
:102520003B5D0193070003923300009307640207A9
:10253000000492345A0093076401914A00004868ED
:1025400001903B00003A5D019307000392340006BE
:10255000355A009307640191480000486801903A99
:102560000000395D019307000392350012295A00DB
:102570009307640307000090390000914800009021
:1025800035630091296D0C92290009305A00930798
:102590006401912900004B680190350000375D010E
:1025A0009307000392300000305A0093076402073B
:1025B000000090370000375D0492300000305A0070
:1025C00093076401914B00004C6801903700003C78
:1025D0005D019307000392300006335A00930764AD
:1025E00001914C00004A6801903C00003B5D019362
:1025F000070003923300009307640207000492343B
:102600005A0093076401914A0000486801903B001A
:10261000003A5D019307000392340006355A009397
:1026200007640191480000486801903A0000395D54
:102630000193070003923500122A5A00930764029F
:1026400090390000367F0193070005914800002A69
:102650006D07922A0009345A0093076401912A00F9
:10266000004B680190360000375D0193070003922C
:10267000340000345A0093076402070000903700CA
:1026800000375D0492340000345A009307640191CE
:102690004B00004C680190370000375D0193070044
:1026A0000392340006345A0093076401914C0000F1
:1026B0004B680190370000375D01930700039234A7
:1026C00000009307640207000492345A00930764E1
:1026D00001914B00004C680190370000375D019379
:1026E00007000392340006325A0093076401914CAC
:1026F00000004A680190370000355D019307000330
:10270000923200009307640207000492325A009349
:10271000076401914A000048680190350000355D6A
:10272000019307000392320006325A0093076401B6
:102730009148000048680190350000355D0193071D
:102740000003923200009307640207000492325A99
:10275000009307640191480000456801903500002E
:10276000355D019307000392320006375A00930744
:1027700064019145000048680190350000355D0115
:102780009307000392370000375A06370000375A84
:1027900006370006375A0093076401914800004A43
:1027A000680190350000355D019307000392370002
:1027B00000375A06370000375A06370006305A00ED
:1027C00093076401914A0000486801903500003485
:1027D0005D0193070003923000069307640307002E
:1027E0000307640307000392305A009307640191C2
:1027F00048000090340000307F0091247F0293074E
:10280000000C92300009305A0093076401903000A8
:102810000091240000903C6C0091347F01930700EC
:1028200004923000009307640207000492305A00BB
:1028300093076401903C0000376C029307000392F9
:10284000300006375A0093076401903700003C6C53
:102850000293070003923700009307640207000405
:1028600092305A0093076401903C00003E6C019343
:1028700007000492300000305A00930764020700FA
:1028800004923000002F5A00930764019134000035
:10289000903E00003C6C0091327F0193070004924F
:1028A0002F000093076402070004922F5A00930739
:1028B0006401903C0000376C0293070003922F00E4
:1028C00006375A00930764019132000090370000E8
:1028D000436C0091377F0293070003923700009307
:1028E000076402070004922F5A0093076401904383
:1028F0000000376C0193070004922F00002F5A004C
:1029000093076402070004922F00002D5A009307DA
:10291000640191370000903700003C6C0091307FDB
:102920000193070004922D0000930764020700043E
:10293000922D5A0093076401903C0000376C02937B
:10294000070003922D0006375A0093076401903761
:1029500000003C6C02930700039237000093076469
:1029600002070004922D5A0093076401903C000076
:102970003E6C0193070004922D00002D5A0093072E
:102980006402070004922D00002B5A009307640193
:10299000903E00003C6C0193070004922B000093D2
:1029A000076402070004922B5A0093076401903CCD
:1029B0000000376C0293070003922B0006375A0081
:1029C0009307640190370000436C02930700039261
:1029D00037000093076402070004922B5A00930704
:1029E000640190430000376C0193070004922B00B0
:1029F000002B5A0093076402070004922B00002961
:102A00005A009307640191300000903700003C6C3D
:102A10000091397F01930700049229000093076415
:102A20000207000492295A0093076401903C0000B9
:102A3000376C029307000392290006355A0093076A
:102A40006401903700003C6C02930700039235004C
:102A5000009307640207000492295A009307640157
:102A6000903C00003E6C019307000492290000296D
:102A70005A009307640207000492290000285A00B4
:102A80009307640191390000903E00003C6C009176
:102A9000377F019307000492280000930764020720
:102AA000000492285A0093076401903C0000376CA0
:102AB000029307000392280006355A009307640129
:102AC0009137000090370000436C00913C7F0293E7
:102AD0000700039235000093076402070004922860
:102AE0005A009307640190430000376C019307007C
:102AF0000492280000285A009307640207000492F9
:102B0000280000325A0093076401913C000090377E
:102B10000000416C0091357F019307000492320060
:102B2000009307640207000492325A00930764017D
:102B300090410000356C0293070003923200063288
:102B40005A0093076401903500003C6C0293070023
:102B500003923200009307640207000492325A0085
:102B600093076401903C00003E6D019307000492BE
:102B7000320000325A0093076402070004923200C8
:102B8000002B5A0093076401903E00003C6D0193B6
:102B9000070004922B000093076402070004922BA5
:102BA0005A0093076401903C0000356D02930700C2
:102BB00003922B00062B5A00930764019035000006
:102BC0003B6D0293070003922B00009307640207FA
:102BD0000004922B5A0093076401903B0000356D6E
:102BE0000193070004922B00002B5A009307640204
:102BF000070004922B0000305A00930764019135BE
:102C00000000903500003C6D0091347F0193070077
:102C100004923000009307640207000492305A00C7
:102C200093076401903C0000376D02930700039204
:102C3000300006375A0093076401903700003C6D5E
:102C40000293070003923700009307640207000411
:102C500092305A0093076401903C00003E6D01934E
:102C600007000492300000305A0093076402070006
:102C700004923000002F5A00930764019134000041
:102C8000903E00003C6D0091327F0193070004925A
:102C90002F000093076402070004922F5A00930745
:102CA0006401903C0000376D0293070003922F00EF
:102CB00006375A00930764019132000090370000F4
:102CC000436D0091377F0293070003923700009312
:102CD000076402070004922F5A009307640190438F
:102CE0000000376D0193070004922F00002F5A0057
:102CF00093076402070004922F00002D5A009307E7
:102D0000640191370000903700003C6D0091307FE6
:102D10000193070004922D0000930764020700044A
:102D2000922D5A0093076401903C0000376D029386
:102D3000070003922D0006375A009307640190376D
:102D400000003C6D02930700039237000093076474
:102D500002070004922D5A0093076401903C000082
:102D60003E6D0193070004922D00002D5A00930739
:102D70006402070004922D00002B5A00930764019F
:102D8000903E00003C6D0193070004922B000093DD
:102D9000076402070004922B5A0093076401903CD9
:102DA0000000376D0293070003922B0006375A008C
:102DB0009307640190370000436D0293070003926C
:102DC00037000093076402070004922B5A00930710
:102DD000640190430000376D0193070004922B00BB
:102DE000002B5A0093076402070004922B0000296D
:102DF0005A009307640191300000903700003C6D49
:102E00000091397F01930700049229000093076421
:102E10000207000492295A0093076401903C0000C5
:102E2000376D029307000392290006355A00930775
:102E30006401903700003C6D029307000392350057
:102E4000009307640207000492295A009307640163
:102E5000903C00003E6D0193070004922900002978
:102E60005A009307640207000492290000285A00C0
:102E70009307640191390000903E00003C6D009181
:102E8000377F01930700049228000093076402072C
:102E9000000492285A0093076401903C0000376DAB
:102EA000029307000392280006355A009307640135
:102EB0009137000090370000436D00913B7F0293F3
:102EC000070003923500009307640207000492286C
:102ED0005A009307640190430000376D0193070087
:102EE0000492280000285A00930764020700049205
:102EF000280000325A0093076401913B000090378C
:102F00000000416D00913C7F019307000492320064
:102F1000009307640207000492325A009307640189
:102F200090410000356D0293070003923200063293
:102F30005A0093076401903500003C6D029307002E
:102F400003923200009307640207000492325A0091
:102F500093076401903C00003E6D019307000492CA
:102F6000320000325A0093076402070004923200D4
:102F7000002B5A0093076401903E00003C6D0193C2
:102F8000070004922B000093076402070004922BB1
:102F90005A0093076401903C0000356D02930700CE
:102FA00003922B00062B5A00930764019035000012
:102FB0003B6D0293070003922B0000930764020706
:102FC0000004922B5A0093076401903B0000356D7A
:102FD0000193070004922B00002B5A009307640210
:102FE000070004922B0000305A0093076401913CC3
:102FF00000004B680190350000375E019307000325
:1030000092300000305A00930764020700009037A6
:103010000000375E0492300000305A0093076401CC
:10302000914B00004C6801903700003C5E01930713
:10303000000392300006335A0093076401914C005C
:10304000004A6801903C00003B5E01930700039238
:103050003300009307640207000492345A00930778
:103060006401914A0000486801903B00003A5E010B
:103070009307000392340006355A009307640191C8
:10308000480000486801903A0000395E019307004B
:103090000392350012295A00930764030700009039
:1030A000390000914800009035630091296D0C9221
:1030B000290009305A0093076401912900004B68E8
:1030C0000190350000375E01930700039230000045
:1030D000305A009307640207000090370000375E03
:1030E0000492300000305A0093076401914B0000B5
:1030F0004C6801903700003C5E019307000392305A
:103100000006335A0093076401914C00004A68019D
:10311000903C00003B5E0193070003923300009354
:1031200007640207000492345A0093076401914A2D
:103130000000486801903B00003A5E0193070003DD
:1031400092340006355A0093076401914800004804
:103150006801903A0000395E019307000392350040
:10316000122A5A009307640290390000367F0193B7
:10317000070005914800002A6D07922A0009345A79
:103180000093076401912A00004B6801903600000B
:10319000375E019307000392340000345A0093070E
:1031A000640207000090370000375E04923400008C
:1031B000345A0093076401914B00004C680190372A
:1031C0000000375E019307000392340006345A0072
:1031D00093076401914C00004B6801903700003761
:1031E0005E01930700039234000093076402070016
:1031F0000492345A0093076401914B00004C68011B
:1032000090370000375E01930700039234000632C6
:103210005A0093076401914C00004A6801903700FE
:1032200000355E01930700039232000093076402A9
:1032300007000492325A0093076401914A00004843
:10324000680190350000355E01930700039232005B
:1032500006325A00930764019148000048680190C3
:10326000350000355E01930700039232000093079A
:10327000640207000492325A0093076401914800E7
:103280000045680190350000355E01930700039208
:10329000320006375A0093076401914500004868E0
:1032A0000190350000355E0193070003923700005E
:1032B000375A06370000375A06370006375A009348
:1032C000076401914800004A680190350000355EAE
:1032D000019307000392370000375A063700003782
:1032E0005A06370006305A0093076401914A0000DD
:1032F00048680190350000345E0193070003923066
:1033000000069307640307000307640307000392A2
:10331000305A009307640191480000903400003057
:103320007F0091247F029307000C92300009245AF9
:10333000009307640191240000245702903000009C
:10334000930700009024420892240001245A00931D
:103350000764019124000024570290240000930781
:1033600000009024420892240001275A0093076429
:1033700001912400002757019307000190240000C9
:1033800027420892270001285A0191270000285758
:10339000029027000028420892280001295A009331
:1033A0000764019128000029570193070001902824
:1033B000000029420892290001295A0191290000A0
:1033C00029570290290000294208922900012A5A0F
:1033D0000093076401912900002A57019307000117
:1033E000902900002A4208922A00012B5A01912AB2
:1033F00000002B5702902A00002B4208922B00015C
:10340000245A0093076401912B0000245702902B4B
:103410000000930700009024420892240001245ADF
:1034200000930764019124000024570193070001D1
:103430009024000024420892240001275A00930798
:103440006401912400002757029024000093070094
:10345000009027420892270001285A009307640130
:103460009127000028570290270000930700009042
:1034700028420892280001295A0191280000295762
:10348000029028000029420892290001295A01913E
:10349000290000295702902900002942089229009A
:1034A000012A5A0093076401912900002A570193C9
:1034B000070001902900002A4208922A00012B5A95
:1034C0000093076401912A00002B5702902A000004
:1034D00093070000902B4208922B0001245A00937E
:1034E000076401912B0000245702902B00009307E2
:1034F00000009024420892240001245A009307649B
:10350000019124000024570290240000930700003A
:103510009024420892240001275A009307640191E5
:103520002400002757019307000190240000274240
:103530000892270001285A0191270000285702907D
:1035400027000028420892280001295A00930764A6
:1035500001912800002957019307000190280000DD
:1035600029420892290001295A019129000029576E
:103570000290290000294208922900012A5A00934A
:10358000076401912900002A57019307000190293F
:1035900000002A4208922A00012B5A01912A0000B9
:1035A0002B5702902A00002B4208922B0001335A1D
:1035B0000093076401912B0000335702902B000009
:1035C000930700009033420892330001325A00936F
:1035D00007640191330000325701930700019033D3
:1035E000000026420892320001315A00930764011C
:1035F000913200003157029026000093070000909E
:1036000031420892310001305A0093076401913130
:1036100000003057029031000093070000903042C4
:1036200008923000012F5A01913000002F5702906C
:103630003000002F4208922F00012E5A01912F00D6
:10364000002E5702902F00002E4208922E00012DCE
:103650005A0093076401912E00002D570193070033
:1036600001902E00002D4208922D00012C5A00934B
:10367000076401912D00002C5702902D0000930744
:103680000000902C4208922C0001245A00930764F9
:1036900001912C0000245702902C00009307000099
:1036A0009024420892240001245A00930764019157
:1036B00024000024570193070001902400002442B5
:1036C0000892240001275A00930764019124000006
:1036D0002757029024000093070000902742089289
:1036E000270001285A0093076401912700002857FA
:1036F00002902700009307000090284208922800BB
:1037000001295A009307640191280000295702906B
:1037100028000093070000902942089229000129FF
:103720005A0093076401912900002957029029004B
:10373000009307000090294208922900012A5A00AC
:1037400093076401912900002A57029029000093F1
:10375000070000902A4208922A00012B5A00930782
:103760006401912A00002B5702902A000093070061
:1037700000902B4208922B0001245A009307640109
:10378000912B0000245702902B000093070000901B
:1037900024420892240001245A00930764019124D2
:1037A00000002457019307000190240000244208E0
:1037B00092240001275A00930764019124000027F6
:1037C0005702902400009307000090274208922798
:1037D0000001285A0093076401912700002857022E
:1037E00090270000930700009028420892280001CB
:1037F000295A009307640191280000295702902854
:103800000000930700009029420892290001295ADC
:1038100001912900002957029029000029420892AD
:103820002900012A5A01912900002A5702902900F3
:10383000002A4208922A00012B5A00930764019142
:103840002A00002B5702902A000093070000902BBB
:103850004208922B0001245A0093076401912B0027
:1038600000245702902B0000930700009024420888
:1038700092240001245A009307640191240000243B
:10388000570193070001902400002442089224006D
:1038900001275A00930764019124000027570290E2
:1038A0002400009307000090274208922700012877
:1038B0005A009307640191270000285702902700BF
:1038C00000930700009028420892280001295A001E
:1038D0009307640191280000295702902800009363
:1038E0000700009029420892290001295A009307F5
:1038F00064019129000029570290290000930700D4
:103900000090294208922900012A5A009307640175
:10391000912900002A570290290000930700009087
:103920002A4208922A00012B5A0093076401912A27
:1039300000002B5702902A000093070000902B42B2
:1039400008922B0001335A0093076401912B000069
:10395000335702902B0000930700009033420892E7
:10396000330001325A00930764019133000032574B
:1039700001930700019033000026420892320001B3
:10398000315A0093076401913200003157029026AA
:103990000000930700009031420892310001305A34
:1039A000009307640191310000305702903100000C
:1039B0009307000090304208923000012F5A009384
:1039C000076401913000002F5702903000009307E8
:1039D0000000902F4208922F00012E5A01912F00D3
:1039E000002E5702902F00002E4208922E00012D2B
:1039F0005A01912E00002D5702902E00002D4208F2
:103A0000922D00012C5A0093076401912D00002C87
:103A10005702902D000093070000902C4208922C32
:103A200000012B5A0093076401912C00002B5702D0
:103A3000902C000093070000902B4208922B00016D
:103A40002A5A0093076401912B00002A5702902BF9
:103A5000000093070000902A4208922A00492B5A3E
:103A60000093076401912A00002B5702902A00005E
:103A700093070000902B4208922B00012A5A0093D2
:103A8000076401912B00002A5702902B0000930736
:103A90000000902A4208922A00492B5A009307649A
:103AA00001912A00002B5802902A00009307000081
:103AB000902B4208922B00012A5A0093076401912F
:103AC0002B00002A5802902B000093070000902A38
:103AD0004208922A00492C5A0093076401912A0057
:103AE000002C5802902A000093070000902C4308F5
:103AF000922C003D93076403070012FF0601450462
:103B0000912C0001902C0000FF2F0000C00300B09A
:103B1000077F00904C7F00B1077F00913C5200B2BC
:103B2000077F0092306C00C20300C103089230008E
:103B300000913C0000904C00114C7F00913C5200E1
:103B400092306C09300000913C0000904C0000481D
:103B50007F009137520837000090480000487F00EE
:103B60009137520092306C0930000091370000907C
:103B700048000092306C0830000090487F00913976
:103B8000520092356C0935000091390000904800D0
:103B900009457F009135520092356C08350000913F
:103BA00035000090450000417F0091305200923076
:103BB0006C093000009130000090410000457F000A
:103BC0009135520092356C08350000913500009017
:103BD000450000477F009137520092376C0937004B
:103BE000009137000090470008922B6C092B0009C8
:103BF000FF0601530092307C0830000990407F009E
:103C0000913C60083C000090400000417F00913EE4
:103C1000600092377C09370000913E00009041001F
:103C200000437F0091406008400000904300004541
:103C30007F009141600941000090450000922B7C7B
:103C4000092B000090407F00913C600892307C047A
:103C5000913C0000904000059230000090437F00AE
:103C60009140600D40000090430004447F00913F6C
:103C7000600092377C08370000913F0000904400BC
:103C800000457F0091406012922B7C082B00099127
:103C90004000009045000092307C083000099040C0
:103CA0007F00913C60083C000090400000417F0094
:103CB000913E600092377C09370000913E000090F1
:103CC000410000437F0091406009400000904300A4
:103CD00000457F009141600841000090450000923E
:103CE0002B7C092B000090477F00914360009231AC
:103CF0007C08310000914300009047000092327C24
:103D00000932000090477F00914360084300009013
:103D1000470009467F009142600092377C093700D6
:103D2000009142000090460000457F0091416011E3
:103D3000922B7C082B0009914100009045000092D5
:103D4000327C08320009903E7F00913B60093B00C5
:103D500000903E0000407F00913C600092377C085C
:103D6000370000913C000090400000417F00913EF0
:103D700060093E000090410000437F00913E6008D2
:103D80003E000090430000922B7C092B0000903EE7
:103D90007F00913B600892327C05913B0000903E91
:103DA00000049232000090417F00913E600D3E0081
:103DB0000090410004427F00913D600092377C09F1
:103DC000370000913D000090420000437F00913E8B
:103DD0006011922B7C082B0000317C09310000918E
:103DE0003E00009043000092327C09320008903E71
:103DF0007F00913B60093B0000903E0000407F0047
:103E0000913C600092377C08370000913C000090A4
:103E1000400000417F00913E60093E00009041005B
:103E200000437F00913E60083E00009043000092F6
:103E30002B7C092B000090457F00914060094000D9
:103E4000009045000092307C0830000090457F00D3
:103E50009140600940000090450008447F00913F78
:103E6000600092377C09370000913F0000904400C9
:103E700000437F0091406011922B7C092B00089138
:103E80004000009043000092307C093000089040D0
:103E90007F00913C60093C000090400000417F00A1
:103EA000913E600092377C08370000913E00009000
:103EB000410000437F0091406009400000904300B2
:103EC00000457F009141600941000090450000924B
:103ED0002B7C082B000090407F00913C60099230C1
:103EE0007C04913C0000904000049230000090431C
:103EF0007F009140600D40000090430004447F002B
:103F0000913F600092377C09370000913F0000909C
:103F1000440000457F0091406011922B7C092B00EA
:103F200008914000009045000092307C0930000666
:103F300090407F00913C600B3C00009040000041AD
:103F40007F00913E600092377C09370002913E006D
:103F50000090410000437F009140600A40000090C3
:103F6000430000457F0091416005922A7C06914103
:103F7000000090450000467F0091436002922A00B5
:103F8000002F7C092F00009143000090460000455F
:103F90007F009141600092307C08300012357C082F
:103FA00035000F914100009045000292297C0929BB
:103FB000000090447F009140600840000090440061
:103FC00000457F009141600092307C0930000091F3
:103FD00041000090450000477F0091436009430085
:103FE0000090470000487F00914560084500009020
:103FF0004800004A7F009147600092357C093500F7
:104000000491470000904A0004457F0091416009F7
:1040100041000090450000477F00914360009229D5
:104020007C082900009143000090470000487F0071
:1040300091456009450000904800004A7F00914783
:104040006000922A7C092A0011367C083600009113
:10405000470000904A0000487F00914360114300F0
:1040600000904800004A7F0091476000922A7C0936
:104070002A000091470000904A00004C7F009148C0
:104080006000922F7C092F000091480000904C00A6
:104090000092307C08300000904C7F00914860090D
:1040A000480000904C0008487F0091436000923720
:1040B0007C093700009143000090480008437F00CE
:1040C0009140600940000090430000922B7C092B36
:1040D000000090477F009143600843000090470034
:1040E00000477F0091436000922D7C092D001191C3
:1040F00043000090470000457F00914060009239E6
:104100007C083900122D7C082D00009140000090A1
:10411000450000447F0091406000922B7C092B00F9
:10412000009140000090440000457F0091416000F4
:1041300092297C0829000091410000904500004729
:104140007F009143600943000090470000487F00D2
:1041500091456008450000904800004A7F00914763
:10416000600092357C0935000491470000904A00B8
:1041700005457F00914160084100009045000047DF
:104180007F009143600092297C092900009143003F
:104190000090470000487F0091456008450000906E
:1041A0004800004A7F0091476000922B7C092B0059
:1041B0001191470000904A000092377C09370000B7
:1041C000904C7F0091436011922B7C082B00009152
:1041D000430000904C0000922F7C092F0000904873
:1041E0007F009140600092307C08300012377C08DC
:1041F0003700119140000090480000922B7C092B61
:104200000008307C09300011377C093700112B7C05
:10421000082B000991407F0092307C0491400005FA
:10422000923000009140690440000490407F00916A
:104230003C60093C000090400000417F00913E60DE
:104240000092377C08370000913E0000904100004A
:10425000437F009140600940000090430000457F8B
:10426000009141600841000090450000922B7C09BC
:104270002B000090407F00913C600992307C0491BB
:104280003C0000904000049230000090437F009179
:1042900040600D40000090430004447F00913F6067
:1042A0000092377C09370000913F000090440000E5
:1042B000457F0091406008457F0545000445690041
:1042C000922B7C0491450005922B000091447F04C1
:1042D0004400044000009045000091437F00446981
:1042E0000092307C049144000043000592300000AD
:1042F0009143690443000490407F00913C60093C75
:10430000000090400000417F00913E600092377CA9
:1043100008370000913E000090410000437F00916B
:1043200040600940000090430000457F00914160DB
:104330000941000090450000922B7C082B00009062
:10434000477F009143600092317C09310000914326
:1043500000009047000092327C0832000090477FB6
:10436000009143600943000090470008467F009198
:1043700042600092377C093700009142000090466D
:104380000000457F0091416009437F0443000443DE
:104390006900922B7C0491430005922B0008914107
:1043A00000009045000091417F0092327C059141D0
:1043B00000049232000091416904410004903E7F64
:1043C00000913B60093B0000903E0000407F00915F
:1043D0003C600092377C09370000913C000090401F
:1043E0000000417F00913E60083E000090410000C7
:1043F000437F00913E60093E000090430000922BF5
:104400007C082B0000903E7F00913B600992327C3B
:1044100004913B0000903E00049232000090417FE6
:1044200000913E600D3E000090410005427F0091EA
:104430003D600092377C08370000913D00009042BB
:104440000000437F00913E6009437F044300044322
:104450006900477F00922B7C0591470000430004D0
:10446000922B0000914769004A7F0092317C0491B1
:104470004A000047000490430000913E0000923142
:104480000000914A690092327C05914A0004923200
:104490000009903E7F00913B60083B0000903E0089
:1044A00000407F00913C600092377C09370000910A
:1044B0003C000090400000417F00913E60083E00BB
:1044C0000090410000437F00913E60093E00009053
:1044D000430000922B7C082B000090457F00914008
:1044E00060094000009045000092307C09300000D7
:1044F00090457F00914060084000009045000944CD
:104500007F00913F600092377C08370000913F00A8
:104510000090440000437F0091406009477F0447BA
:104520000004476900922B7C0591470004922B0000
:104530000091437F04430005400000904300009138
:10454000407F0043690092307C04914300004000AA
:1045500004923000009140690440000590407F00C3
:10456000913C60083C000090400000417F00913E7B
:10457000600092377C09370000913E0000904100B6
:1045800000437F00914060084000009043000045D8
:104590007F009141600941000090450000922B7C12
:1045A000092B000090407F00913C600892307C0411
:1045B000913C0000904000059230000090437F0045
:1045C0009140600D40000090430004447F00913F03
:1045D000600092377C08370000913F000090440053
:1045E00000457F0091406009457F0445000545690D
:1045F00000922B7C0491450004922B00099140000D
:10460000009045000091437F0092307C049143006C
:1046100004923000009143690543000290407F00FE
:10462000913C600A3C000090400000417F00913EB8
:10463000600092377C09370002913E0000904100F3
:1046400000437F009140600B400000904300004514
:104650007F0091416004922A7C07914100009045BF
:104660000000467F0091436002922A00002F7C08E0
:104670002F00009143000090460000457F009141CB
:10468000600092307C09300011357C0935000F91B3
:104690004100009045000292297C082900009044C6
:1046A0007F009140600940000090440000457F0079
:1046B00091416000457F0092307C04914500049058
:1046C000450000914100009230000090477F00912A
:1046D0004360004569054500044300009047000021
:1046E000487F0091456009450000904800004A7FDE
:1046F0000091417F0047600092357C0491410004A5
:104700009235000091416904410000470000904A41
:104710000005457F0091416000457F04450004414C
:10472000000090450000477F00914360004569000C
:1047300092297C05914500049047000091430000B8
:104740009229000090487F00914560084500009044
:104750004800004A7F0091447F00476000922A7C15
:104760000591440004922A00009144690444000D1C
:10477000487F0092367C0491480005904A000091E1
:104780004700009236000090487F00914360004847
:104790006904480004447F05440004430000904835
:1047A00000004A7F0091446900476000922A7C041F
:1047B00091440004904A000091470000922A0000B2
:1047C000904C7F0091486000922F7C092F0000914F
:1047D000480000904C000091437F0092307C04918F
:1047E00043000592300000904C7F009143690048DF
:1047F0006004430004480000904C0009487F009189
:10480000407F0043600092377C0491400004904850
:10481000000091430000923700009140690540007C
:104820000490437F0091406000437F0443000440B4
:1048300000009043000091436900922B7C05914356
:104840000004922B000090477F0091436000447F5A
:104850000444000543000090470000477F00914357
:104860006000446900457F00922D7C049145000062
:10487000440004922D00009145690445000D430059
:104880000090470000457F0091406000497F009202
:10489000397C059149000492390000914969044925
:1048A0000004457F05450004456900922D7C049174
:1048B0004500059045000091400000922D000090B9
:1048C000447F0091406000447F00922B7C0491441F
:1048D00000049044000091400000922B000090459D
:1048E0007F0091416000446900457F0092297C046B
:1048F0009145000044000590450000914100009260
:1049000029000090477F00914360004569044500FD
:104910000443000090470000487F0091456009452E
:104920000000904800004A7F0091487F0092357C4B
:104930000491480004923500009148690548000040
:10494000904A0004457F0091416000457F04450086
:104950000541000090450000477F009143600045FD
:10496000690092297C04914500049047000091431E
:1049700000009229000090487F00914560094500A1
:1049800000904800004A7F0091437F0047600092FA
:104990002B7C0491430004922B0000914369054352
:1049A000000C470000904A0000914A7F0092377C3B
:1049B00005914A000492370000904C7F00914360BB
:1049C000004A69044A0005430000437F0443000491
:1049D000436900922B7C0491430005922B000090C8
:1049E0004C0000922F7C082F000090487F009140DF
:1049F0006000487F0092307C0591480004923000AE
:104A0000009148690448000D437F0092377C04916F
:104A100043000592370000914369044300044000BD
:104A200000407F04400005904800009140690092DA
:104A30002B7C0491400004922B0000913C7F053CAC
:104A400000043C690092307C04913C0004923000E8
:104A500012377C083700112B7C092B000890437F0C
:104A6000004C640091485100922B7C00434C05435C
:104A700000009043000091480000904C0004922BED
:104A80000000904F7F009143540092307C003C1B0B
:104A90000040400440000091430000904F0000920D
:104AA0003C0005300000904E7F00914F54044F00B1
:104AB00000904E00044C64004F7F00914851004E1E
:104AC0005400922B7C00434C04430000904F0000A4
:104AD00091480000904C0000914E0005922B000080
:104AE000904C64005B7F00914851004F5400923716
:104AF0007C003C1B00404000434C04430000904CB1
:104B00000000914F0000905B00009240000091482F
:104B10000000923C000437000090437F00915B54FA
:104B200000923C1B00404005400000904300009173
:104B30005B0000923C0004904C64004F7F00914366
:104B40005400485100922B7C00434C0443000090D9
:104B50004F000091430000904C00009148000492E7
:104B60002B0000904C64004F7F00914951004F543E
:104B70000092317C003C1B00404000434C05430048
:104B800000904C0000914F0000904F0000924000B8
:104B90000091490000923C000431000090437F00E6
:104BA000914F5400923D1B00404004400000904350
:104BB0000000914F0000923D0005904C64004F7F33
:104BC000009143540049510092317C00434C04430E
:104BD0000000904F000091430000904C000091496C
:104BE0000004904F7F00914F5400923D1B004040C5
:104BF00004400000914F0000923D0000904F0005DE
:104C000092310000904C6400547F00914951004F54
:104C10005400922D7C00434C04430000905400004B
:104C200091490000904C0000914F0004922D00002B
:104C3000904C64005B7F00914951005454009237BE
:104C40007C003D1B00404000434C05430000904C5D
:104C5000000091540000905B0000924000009149D8
:104C60000000923D000437000090437F00915B54A8
:104C700000923D1B00404004400000904300009122
:104C80005B0000923D0004904C64004F7F00914314
:104C90005400495100922D7C00434C054300009084
:104CA0004F000091430000904C0000914900049295
:104CB0002D000090437F004C6400914951004F54F7
:104CC0000092317C003D1B00404000434C044300F7
:104CD0000090430000914F0000904C000092400073
:104CE0000091490000923D000531000090437F0093
:104CF0004D6400914354004A510092327C003D1BA8
:104D000000404000454C0445000090430000914A9B
:104D10000000904D00009240000091430000923D41
:104D20000004904F7F0091435400923E1B0041408D
:104D30000441000091430000923E0000904F0005A6
:104D400092320000904E7F00914F54044F0000902B
:104D50004E00044D64004F7F00914A51004E5400B4
:104D600092327C00454C05450000904F0000914A6E
:104D70000000904D0000914E000492320000904DD2
:104D800064005B7F00914A51004F540092327C00D6
:104D90003E1B00414000454C04450000904D000082
:104DA000914F0000905B000092410000914A00008A
:104DB000923E000432000090437F004C6400914911
:104DC00051005B540092347C003E1B004140004582
:104DD0004C0545000090430000915B0000904C00A2
:104DE000009241000091490000923E00043400000E
:104DF000904D64004F7F00914354004A510092351A
:104E00007C003D1B00404000484C04480000904D91
:104E10000000914A0000904F000092400000914332
:104E20000000923D0005350000904F64005B7F005C
:104E3000914A51004F540092377C003E1B00414084
:104E4000004A4C044A0000904F0000914F0000902F
:104E50005B000092410000914A0000923E0004373E
:104E60000000915B5400923E1B004340044300004D
:104E70003E0000915B000543480443000490432E2C
:104E800000914F48054F0000904300044F2E0091C1
:104E90005B4800922B7C04915B0000904F000492D1
:104EA0002B0000905B2E055B0004914F48044F00DF
:104EB00005904F2E0091434800922B7C04914300B3
:104EC00000904F0004922B000090432E0091374831
:104ED0000437000090430005372E00437F004C64E8
:104EE0000091485100922B7C00434C0443000090F9
:104EF0004300004C000037000091480004922B0052
:104F000000904F7F009143540092307C003C1B0086
:104F100040400540000091430000904F0000923C4B
:104F20000004300000904E7F00914F54044F000069
:104F3000904E00044C64004F7F00914851004E5445
:104F400000922B7C00434C05430000904F000091E1
:104F5000480000904C0000914E0004922B000090FD
:104F60004C64005B7F00914851004F540092377CA5
:104F7000003C1B00404000434C04430000904C00A8
:104F800000914F0000905B000092400000914800AB
:104F900000923C000537000090437F00915B540075
:104FA000923C1B0040400440000090430000915B95
:104FB0000000923C0004904C64004F7F00914354E9
:104FC00000485100922B7C00434C04430000904F5A
:104FD000000091430000904C000091480005922B86
:104FE0000000904C64004F7F00914951004F5400E5
:104FF00092317C003C1B00404000434C04430000C5
:10500000904C0000914F0000904F00009240000033
:1050100091490000923C000431000090437F0091D0
:105020004F5400923D1B004040054000009043005B
:1050300000914F0000923D0004904C64004F7F00AF
:105040009143540049510092317C00434C04430089
:1050500000904F000091430000904C0000914900E7
:1050600004904F7F00914F5400923D1B004040053B
:10507000400000914F0000923D0000904F000492CC
:10508000310000904C6400547F00914951004F540E
:1050900000922D7C00434C0443000090540000918A
:1050A000490000904C0000914F0005922D000090A7
:1050B0004C64005B7F009149510054540092377C4E
:1050C000003D1B00404000434C04430000904C0056
:1050D0000091540000905B00009240000091490054
:1050E00000923D000437000090437F00915B540024
:1050F000923D1B0040400440000090430000915B43
:105100000000923D0005904C64004F7F0091435495
:1051100000495100922D7C00434C04430000904F05
:10512000000091430000904C000091490004922D32
:10513000000090437F004C6400914951004F54009F
:1051400092317C003D1B00404000434C0543000071
:1051500090430000914F0000904C000092400000EE
:1051600091490000923D000431000090437F004DC2
:105170006400914354004A510092327C003D1B0070
:10518000404000454C0445000090430000914A0017
:1051900000904D00009240000091430000923D00BD
:1051A00004904F7F0091435400923E1B0041400504
:1051B00041000091430000923E0000904F00049295
:1051C000320000904E7F00914F54044F0000904EEB
:1051D00000054D64004F7F00914A51004E540092EB
:1051E000327C00454C04450000904F0000914A007D
:1051F00000904D0000914E000492320000904D64EA
:10520000005B7F00914A51004F540092327C003E77
:105210001B00414000454C04450000904D000091AA
:105220004F0000905B000092410000914A00009204
:105230003E000532000090437F004C6400914951CC
:10524000005B540092347C003E1B00414000454C02
:105250000445000090430000915B0000904C00006A
:105260009241000091490000923E000434000090F9
:105270004D64004F7F00914354004A510092357CA9
:10528000003D1B00404000484C05480000904D0088
:1052900000914A0000904F000092400000914300AE
:1052A00000923D0004350000904F64005B7F009148
:1052B0004A51004F540092377C003E1B0041400091
:1052C0004A4C044A0000904F0000914F0000905B50
:1052D000000092410000914A0000923E0004370015
:1052E00000915B5400923E1B004340054300003E8A
:1052F0000000915B0015922B7C092B00082C7C0987
:105300002C00002D7C082D00002F7C09FF06014594
:1053100000922F0000307C0930000890407F0091FF
:105320003C60093C000090400000417F00913E60DD
:105330000092377C08370000913E00009041000049
:10534000437F009140600940000090430000457F8A
:10535000009141600841000090450000922B7C09BB
:105360002B000090407F00913C600D3C000090407D
:105370000000FF2F0000C00300B0077F00C10C0039
:10538000B1077F00C20C00B2077F0092393100B331
:10539000077F0093074B00B4077F00B5077F00B677
:1053A000077F00B7077F00B8077F00B3077F00BA09
:1053B000077F00BB077F00BC077F00BD077F00BEE3
:1053C000077F00BF077F01904868009141510B9211
:1053D00039310093074B0190486800914151059283
:1053E0003B310093074B01904A6800914351119261
:1053F0003C310093074B01904D6800914551059257
:105400003C310093074B01904C6800914351059249
:1054100037310093074B0190486800914051059245
:105420003B310093074B01904A6800914351119220
:105430003C310093074B01904D6800914551059216
:105440003E310093074B01904F6800914651059201
:105450003F310093074B01905068009148510592ED
:1054600042310093074B0190516800914A510293D9
:10547000074B03074B03074B03074B03074B060779
:10548000370607370607370607370BFF2F0000C020
:105490001100B0077F00C10300B1077F00C20B00FD
:1054A000B2077F0092326900C30700B3077F009301
:1054B0000D3200903E7F0A9232690093073E0290BF
:1054C0003E7F049232690093073E01903E7F059231
:1054D0002D690093073E0190397F0B922D6900934F
:1054E000073E0090397F0B92326900930D32019094
:1054F0003E7F0B9232690093073E01903E7F0492FB
:1055000032690093073E01903E7F05922D6900931A
:10551000073E0190397F0B922D690093073E019061
:10552000397F0A92326900930D3201903E7F0A92D0
:1055300032690093073E01903E7F059232690093E5
:10554000073E01903E7F05922D690093073E019032
:10555000397F0A922D690093073E0190397F0B92A3
:10556000326900930D3201903E7F0A9232690093B6
:10557000073E01903E7F059232690093073E0190FD
:105580003E7F05922D6900930D320190397F0B9279
:105590002D6900930D370090397F0BFF06015300F2
:1055A00092326900930D3C01903E7F0091395D0A73
:1055B0009232690093073E0190457F0091415D055D
:1055C0009232690093073E06922D690093073E00D0
:1055D000904A7F0091415D0B922D690093073E0137
:1055E00090497F0091435D0B9232690093073E0121
:1055F000904A7F0091415D0A9232690093073E0113
:1056000090457F0091405D059232690093073E010D
:1056100090457F0091415D05922D690093073E0101
:1056200090467F0091435D0A922D690093073E01E9
:1056300090437F0091405D0B9232690093073E00DA
:1056400090457F0091415D0B9232690093073E01C6
:1056500090417F00913D5D059232690093073E00C5
:1056600090417F00913E5D05922D690093073E01B8
:1056700090437F0091405D0B922D690093073E019E
:1056800090407F00913D5D0A9232690093073E0190
:1056900090417F00913E5D0B9232690093073E017D
:1056A000903E7F0091385D059232690093073E017C
:1056B000903E7F0091395D05922D690093073E0071
:1056C00090407F00913D5D0B922D690093073E0154
:1056D000903D7F0091395D0A9232690093073E0147
:1056E000903E7F0091395D0B9232690093073E0036
:1056F00090397F0091355D059232690093073E062F
:105700009231690093073E01903A7F0091375D0B1B
:10571000922D690093073E01903D7F0091375D0A0D
:105720009232690093073E01903E7F0091395D0BF4
:105730009232690093073E0190397F0091355D05F3
:105740009232690093073E059231690093073E014A
:10575000903A7F0091375D0B922D690093073E01CF
:1057600090407F00913D5D0A9232690093073E01AF
:10577000903E7F0091395D0A9232690093073E01A5
:1057800090457F0091415D059232690093073E0686
:10579000922D690093073E01904A7F0091415D0A76
:1057A000922D690093073E0190497F0091435D0B64
:1057B0009232690093073E01904A7F0091415D0B50
:1057C0009232690093073E0090457F0091405D054D
:1057D0009232690093073E0190457F0091415D053B
:1057E000922D690093073E0190467F0091435D0A28
:1057F000922D690093073E0290437F0091405D0A1D
:105800009232690093073E0190457F0091415D0A05
:105810009232690093073E0190417F00913D5D0502
:105820009232690093073E0190417F00913E5D05F1
:10583000922D690093073E0190437F0091405D0ADD
:10584000922D690093073E0190407F00913D5D0BD2
:105850009232690093073E0190417F00913E5D0ABC
:105860009232690093073E01903E7F0091385D05BA
:105870009232690093073E01903E7F0091395D05A9
:10588000922D690093073E0190407F00913D5D0A93
:10589000922D690093073E01903D7F0091395D0A8A
:1058A0009232690093073E02903E7F0091395D0A73
:1058B0009232690093073E0190397F0091355D0572
:1058C0009232690093073E069231690093073E00C9
:1058D000903A7F0091375D0B922D690093073E014E
:1058E000903D7F0091375D0B9232690093073E0037
:1058F000903E7F0091395D0B9232690093073E0123
:1059000090397F0091355D059232690093073E051D
:105910009231690093073E02903A7F0091375D0A09
:10592000922D690093073E0190407F00913D5D0AF2
:105930009232690093073E01903E7F0091395D0BE2
:105940009232690093073E069232690093073E0542
:10595000922E690093073E0C922B690093073E0B31
:105960009232690093073E0C9232690093073E051C
:105970009232690093073E069231690093073E0117
:1059800090407F0091395D0A922D690093073E0295
:10599000903D7F0091395D0A9232690093073E0184
:1059A000903E7F0091395D0B9232690093073E056E
:1059B0009232690093073E06922E690093073E0CCF
:1059C000922B690093073E0B9232690093073E0BBE
:1059D0009232690093073E069232690093073E06B1
:1059E000922B690093073E0190407F00913C5D0A35
:1059F0009224690C29690093073E0190417F0A9225
:105A000035690093073E0190417F05922969009313
:105A1000073E0190417F059224690093073E019063
:105A2000437F0A9230690093073E0190407F0B92BA
:105A300029690093073E0190417F0A9235690093DE
:105A4000073E0190417F059229690093073E01902E
:105A5000417F049224690093073E0290437F0A929B
:105A600030690093073E0190407F0B9229690093B3
:105A7000073E0090417F0B9235690093073E0692E6
:105A800029690093073E069224690093073E0B9212
:105A900030690093073E0B9229690093073E0C92F0
:105AA00035690093073E059229690093073E0692E7
:105AB00024690093073E0190437F0091405D0B9263
:105AC00030690093073E0B9229690093073E0190CD
:105AD000457F0091415D0B9235690093073E01902F
