:100000000C943F220C94E6220C94E6220C94E622F7
:100010000C94E6220C94E6220C94E6220C94E62240
:100020000C94E6220C94E6220C94E6220C94E62230
:100030000C94E6220C9410240C94E6220C94E622F4
:100040000C94E6220C94E6220C94E6220C94E62210
:100050000C94E6220C94E6220C94E6220C94E62200
:100060000C94E6220C94E6220C94E6220C94E622F0
:10007000544F4B454E21004552524F523A31005297
:100080005252525252525252525252525252525250
:100090005252525252525252525252525252525240
:1000A0005252525252525252525252525252525230
:1000B0005252525252525252525252525252525220
:1000C00052524949525252525249A45B49525252D9
:1000D0005200B6F65B4952525209F6FFFFA409528C
:1000E0004909FFFFFFFFAD524952FFFFFFFFFF52DB
:1000F000095BFFFFFFFFFF0909ADFFFFFFFFFF5295
:1001000052525252525252525252525252525252CF
:10011000525252525252524952524909095252496C
:100120004909495BA4A452F6ADB6FFFFFFF652FFA2
:10013000FFFFFFFFFFA452FFFFFFFFFFFF525252DE
:100140000909094952525209525B5B5B52525209EA
:100150005B6464A4525252095BA4A4A45252520993
:100160005264A4A4525252095B64A46452525209CC
:100170005BA4A4A4525252095B64A4644952525233
:1001800052524909090949525249525B5B64525221
:10019000520912A4AD645252520952ADA4AD52524A
:1001A000520952A4ADAD5252520952ADA4A45B52B1
:1001B00052095264ADA45252520952ADA4AD5249F3
:1001C00009090909090909095B5B5B5B64645B490F
:1001D000ADADADADADADAD4964646464A4646452CD
:1001E0005252524909000052525249090052E452F7
:1001F00052090052A4ADAD090052A4ADADADAD0998
:1002000009090909090909646464646464A409EDBD
:10021000ADADEDB6EDB6526464EDB6ADB6ED52528D
:10022000A4ADADADADAD49ADEDADADED644952ADF3
:10023000ADAD5B52524949AD5B49525252494909F1
:100240000909090909090964646464A464A464F6D9
:10025000ADF6F6B6F6B6F6EDB6F6AD64A464A4B6A1
:10026000ADADA400000000EDB6F6A45B525B52AD4C
:10027000F6ADADF6B6ADF6F6ADB6F6ADADF6AD098A
:100280000909090949490964A46464A4A4009BF606
:10029000B6F6F6B6F600A464A464A4A4A4006400B0
:1002A000000952525200A4525B525252520964B693
:1002B000ED5B52525209A4B6B69B52525200A409A9
:1002C0000909090909090964A4A464A464A4A4F699
:1002D000FFB6F6F6F6FFB6F6B6F6B664AD64A4FF62
:1002E000F6B65249525249B6B6F65252525252F6E8
:1002F000ADF65209090909B6F6B69B5B5B5B5B0973
:100300000909090949490964ADA464AD5249A4FF2A
:10031000F6F6FFF65B52FFA4ADFFB6FF5B52F600A8
:100320005BF6FFB65B52BF095BB6F6F65B52FF00A9
:100330005BF6B6F65B52F65BA4B6F6FF5B52F609C7
:1003400049525252525252AD5B094952525249B629
:10035000FFF65209490909FFF6B6FFA44952F6F61D
:10036000FFFFF6BFFFFFB6B6FFF6FFFFF6FFFFF693
:10037000FFEDB6F6FFFFF6BFF6AD005BB6AD52522D
:10038000490909090909090009ADADA449A4AD5BF2
:10039000FFFFFFFF52BFFFFFFFB6FFF652FFF6FF62
:1003A000F6FFFFFF52FFFFFFFFFFF6FF52FFF6A42D
:1003B000F6FFBFFF52F6FF00FFFFF6FF52FFFF09F7
:1003C00009090909090909A46DAD64ADA4A4ADFF2B
:1003D000F6FFF6FFF6BFF6B6FFA46DA464A464FFB3
:1003E000A4000000000000FFF65B5B5B5B5B5BBF93
:1003F000F6F6F6F6BFF6FFF6FFFFBFF6F6B6F6091D
:100400000909495252490064A4A4A4490909A4FF56
:10041000F6BFF6495BB6FFF6B6F6B649A4FFFFFF96
:10042000F6F6F649525BADF6BFFFB649525249F6B1
:10043000F6F6F649525252B6F6B6B65252525249F2
:10044000A4FFFFFFFFFFFFFFFFFFFFFFFFFFFFFF17
:10045000FFFFFFFFFFFFFFFFFFFFFFFFFFFFFFFFAC
:10046000FFFFFFFFFFFFFF52ADF6FFFFFFFFFF5251
:10047000095BF6FFFFFFFF525209F6FFFFFFFFFF88
:10048000FFFFFFFFAD5252FFFFFFFFFF5B5252FF26
:10049000FFFFFFF6525252FFFFFFFFFF5B5252FF7A
:1004A000FFFFFFFFAD5252FFFFFFFFFFFFA449FF19
:1004B000FFFFFFFFFFF652FFFFFFFFFFFFFFAD094A
:1004C00052A45BA4090909095BA464A4521252094D
:1004D0005B9BA4A464A4A4495B64A464A4A4A452E4
:1004E0005249494949494952525252525252525222
:1004F0005252525252525252525252525252520925
:10050000090052A4ADA4521252525B64A46452A4D6
:1005100064A464A4A4A452A4A4A4ADA4ADAD5249FF
:1005200049494949495252525252525252525252D8
:1005300052525252525252525252525252525209E4
:10054000A4A4ADA4ADAD5B49A4A4A4ADAD52520921
:10055000ADA4ADA4A4ADAD52ADADADADADADA452A5
:1005600049494949494949525252525252525252AA
:1005700052525252525252525252525252525209A4
:10058000000909090900525252525252525249ADC1
:10059000ADADADADADED52ADADEDADEDADB64949E5
:1005A0004949494949525252525252525252525258
:1005B000525252525252525252525252525252ADC0
:1005C000F6ADB600000000ADADB6ED5B525B5BED85
:1005D000B6EDB6EDB6EDB6ADB6ADADB6ADB6ED4970
:1005E000494949494949495252525252525252522A
:1005F000525252525252525252525252525252002D
:1006000000090949490064525B5B5B5B5B00A4F62F
:10061000F6B6F6F6B600A4ADB6EDB6ADF609644989
:1006200049494949525252525252525252525252CE
:10063000525252525252525252525252525252F6F6
:10064000B6F6F6F6F6F6B6F6F6FFB6F6BFF6FFB66F
:10065000F6B65249494949B6B6F65B52525252492A
:100660004952525252525252525252525252525273
:10067000525252525252525252525252525252F6B6
:10068000FFF6B6F65B52FFF6B6FFFFF65B52B6001A
:100690005BF6F6B65B52FF525BB6F6F65B52B652AD
:1006A0005249495252524952525252525252525245
:1006B000525252525252525252525252525252F676
:1006C000BFA44952525252FFF66D5252525252F644
:1006D000FFA45252525252F6B6AD525252525249A1
:1006E00052525252525252525252525252525252EA
:1006F000525252525252525252525252525252002C
:10070000FFFFFFFF52BFFF00F6BFF6FF52FFF600EC
:10071000FFF6FFB652F6BF09F6FFF6FF52FFF6529C
:1007200052494952524949525252525252525252CD
:10073000525252525252525252525252525252FFEC
:10074000A4094949494949F66D525252525252FF41
:10075000A4525252525252F6AD5252525252525228
:100760005252525252525252525252525252525269
:100770005252525252525252525252525252524962
:10078000494952525252525252525252525252525B
:10079000FFFFFF525252FF52FF52FF525252FF527E
:1007A000FFFFFF52FF52FF525252525252525252C8
:1007B0005252525252525252525252525252525219
:1007C0005209ADFFFFFFFF5252495BFFFFFFB652D8
:1007D000524949FFFFAD5252525209F6F652525257
:1007E000525252A452525252525252525252525297
:1007F000525252525252525252525252525252AD7E
:1008000052525B52A4A4A4525252525252525252C9
:1008100052525252525252525252525252525252B8
:1008200052525252525252525252525252525252A8
:100830005252525252525252525252525252525298
:1008400052525252520900525252525209005252BE
:100850005252520900529B5252520900529B485226
:10086000520900529B4848520900529B4848480987
:1008700000529B4848484809009B4848484848005F
:100880000000000000000052525252525252529B3D
:100890009B9B9B9B9B9B9B48484848484848484893
:1008A00048484848484848484848484848484848C8
:1008B0004848484848484848484848484848480000
:1008C0000000000000495252525252525200A49B62
:1008D0009B9B9B9B9A00AD48484848484800AD48C0
:1008E000484848484800AD48484848484800AD484E
:1008F000484848484800AD48484848484800AD097D
:10090000009B484848484809009B484848484809CF
:10091000009B484848484809009B484848484809BF
:10092000009B484848484809009B484848484809AF
:10093000009B484848484809009B48484848484860
:100940004848484848484848484848484848484827
:100950004848484848484848484848484848484817
:100960004848484848484848484848484848484807
:100970004848484848484848489B489B4848489BFE
:10098000489B489B489B4848004800480048009BBB
:10099000489B489B489B4848004800480048009BAB
:1009A000489B484848484848004800484848489BB1
:1009B000489B484848484848004800484848489BA1
:1009C000489B489B48484848004800480048489B86
:1009D000489B489B484848480048004800484848C9
:1009E000489B489B48484848484800480048484871
:1009F000489B489B48484848484800480048484861
:100A00004848489B489B4848484848480048004850
:100A10004848489B489B4848484848480048004840
:100A200048484848489B484848484848484800483B
:100A300048484848489B4848484848484848009BD8
:100A40004848484848484848004848484848489B1B
:100A50004848484848484848004848484848489B0B
:100A60004848484848484848004848484848489BFB
:100A70004848484848484848004848484848489BEB
:100A8000489B489B489B4848004800480048009BBA
:100A9000489B489B489B48480048004800480048FD
:100AA00048484848484848484848484848484848C6
:100AB0004848484848484848484848484848489B63
:100AC000489B484848484848004800484848489B90
:100AD000489B484848484848004800484848489B80
:100AE000489B484848484848004800484848489B70
:100AF000489B4848484848480048004848484848B3
:100B0000489B489B4848484848480048004848484F
:100B1000489B489B4848484848480048004848483F
:100B2000489B489B4848484848480048004848482F
:100B3000489B489B48484848484800480048489BCC
:100B4000489B489B48484848004800480048489B04
:100B5000489B489B48484848004800480048484847
:100B60004848484848484848484848484848484805
:100B700048484848484848484848484848484848F5
:100B800048484848484848484848484848484848E5
:100B900048484848484848484848484848484848D5
:100BA00048484848484848484848484848484848C5
:100BB00048484848484848484848484848484848B5
:100BC000484848484800AD48484848484800AD486B
:100BD000484848484800AD48484848484800AD485B
:100BE000484848484800AD48484848484800AD484B
:100BF000484848484800AD48484848484800AD483B
:100C00004848004800484848489B489B484848484E
:100C100048480048004848484848484848484848E4
:100C20004848484848484848484848484848484844
:100C30004848484848484848489B489B484848488E
:100C400048484848489B4848484848484848004819
:100C500048484848489B4848484848484848004809
:100C600048484848489B48484848484848480048F9
:100C700048484848489B48484848484848480048E9
:100C80004848484848484848484848484848489B91
:100C9000489B489B489B4848004800480048009BA8
:100CA000489B489B489B4848004800480048009B98
:100CB000489B4848484848480048004848484848F1
:100CC000489B489B48484848484800480048489B3B
:100CD000489B489B48484848004800480048489B73
:100CE000489B489B484848480048004800484848B6
:100CF0004848484848484848484848484848484874
:100D00004848484848484848484848484848489B10
:100D1000489B489B489B4848004800480048009B27
:100D2000489B489B489B484800480048004800486A
:100D30004848484848484848484848484848484833
:100D4000489B489B48484848484800480048489BBA
:100D5000489B489B48484848004800480048489BF2
:100D6000489B489B48484848004800480048484835
:100D7000489B489B48484848484800480048489B8A
:100D8000489B484848484848004800484848489BCD
:100D9000489B489B489B4848004800480048009BA7
:100DA000489B489B489B48480048004800480048EA
:100DB00048484848484848484848484848484848B3
:100DC0004848484848484848484848484848489B50
:100DD000489B489B48484848004800480048489B72
:100DE000489B489B484848480048004800484848B5
:100DF000489B489B48484848484800480048489B0A
:100E0000489B484848484848004800484848489B4C
:100E1000489B489B489B4848004800480048009B26
:100E2000489B489B489B4848004800480048009B16
:100E3000489B48484848484800480048484848486F
:100E40004848004800484848489B489B484848480C
:100E500048480048004848484848484848484848A2
:100E60004848484848484848484848484848484802
:100E70004848484848484848484848484848489B9F
:100E8000489B484848484848004800484848489BCC
:100E9000489B484848484848004800484848489BBC
:100EA000489B489B489B4848004800480048009B96
:100EB000489B489B489B48480048004800480048D9
:100EC000489B489B4848484848480048004848488C
:100ED000489B489B48484848484800480048489B29
:100EE000489B489B48484848004800480048489B61
:100EF000489B489B484848480048004800484848A4
:100F000048484848489B4848484848484848004856
:100F100048484848489B4848484848484848004846
:100F2000489B489B489B4848484800480048004820
:100F3000489B489B489B4848484800480048009BBD
:100F40004848484848484848004848484848489B16
:100F50004848484848484848004848484848489B06
:100F6000489B489B48484848004800480048489BE0
:100F7000489B489B48484848004800480048484823
:100F800048484848484848484848484848484848E1
:100F90004848484848484848484848484848489B7E
:100FA000489B489B48484848004800480048489BA0
:100FB000489B489B484848480048004800484848E3
:100FC00048484848484848484848484848484848A1
:100FD0004848484848484848484848484848489B3E
:100FE000489B489B489B4848004800480048009B55
:100FF000489B489B489B48480048004800480009D7
:10100000009B484848484809009B484848484809C8
:10101000009B484848484809009B484848484809B8
:10102000009B484848484809009B484848484809A8
:1010300000000000000000ADB6F6F6F6F6F6F64841
:101040004848484848484848484848484848484820
:101050004848484848484848484848484848484810
:101060004848484848484848484848484848480048
:1010700000000000000000F6F6F6F6F6F6F6F64878
:10108000484848480052AD484848480052F6A448ED
:1010900048480052F6A45248480052F6A45252481A
:1010A0000052F6A45252520052F6A45252525252D8
:1010B000F6A45252525252F6A45252525252525224
:1010C0005252525252525252525252525252525200
:1010D00052525252525252525252525252525252F0
:1010E0005252525252525252525252525252520032
:1010F0000000000000000000F6F6F6F6F6F6F652E4
:1011000052525252525252525252525252525252BF
:1011100052525252525252525252525252525252AF
:1011200052525252525252525252525252525200F1
:1011300000000000000000F6F6F6F6F6F6F6F652AD
:10114000525252525252525252525252525252527F
:10115000525252525252525252525252525252526F
:1011600052525252525252525252525252525200B1
:10117000000000000000F6F6F6F6F6F6F6F6F65277
:101180005252525252520952525252525209005223
:10119000525252520900005252525209000000525B
:1011A0005252090000000052520900000000005293
:1011B0000900000000000009000000000000000914
:1011C00009090909090909000000000000000000E0
:1011D000000000000000000000000000000000000F
:1011E00000000000000000000000000000000000FF
:1011F000000000000000000000000000000000A44B
:1012000052525252525252AD52525252525252AD08
:1012100052525252525252AD52525252525252ADF8
:1012200052525252525252AD52525252525252ADE8
:1012300052525252525252AD525252525252525233
:101240005252525252520952525252525252095210
:101250005252525252520952525252525252095200
:1012600052525252525209525252525252520952F0
:101270005252525252520952525252525252090032
:10128000000000000000000000000000000000005E
:10129000000000000000000000000000000000004E
:1012A000000000000000000000000000000000003E
:1012B000000000000000000000000000000000AD81
:1012C00052525252525252AD52525252525252AD48
:1012D00052525252525252AD52525252525252AD38
:1012E00052525252525252AD52525252525252AD28
:1012F00052525252525252AD525252525252525273
:10130000525252525252095252525252525209524F
:10131000525252525252095252525252525209523F
:10132000525252525252095252525252525209522F
:1013300052525252525249525252525252529B009F
:10134000000000000000AD000000000000ADF6004D
:1013500000000000ADF65B00000000A4F65B520048
:101360000000A4F65B52520000A4F65B52525200F9
:10137000A4F65B52525252A4F65B5252525252B6EB
:10138000525252525252525B525252525252525234
:10139000525252525252525252525252525252522D
:1013A000525252525252525252525252525252521D
:1013B000525252525252525252525252525252520D
:1013C000525252525252AD525252525252525252A2
:1013D00052525252525252525252525252525252ED
:1013E00052525252525252525252525252525252DD
:1013F000525252525252525252525252525252B669
:10140000F6F6F6F6F6F6F652525252525252525240
:1014100052525252525252525252525252525252AC
:10142000525252525252525252525252525252529C
:10143000525252525252525252525252525252F6E8
:10144000F6F6F6F6F6F6F652525252525252525200
:10145000525252525252525252525252525252526C
:10146000525252525252525252525252525252525C
:10147000525252525252525252525252525252F6A8
:101480005B52525252525252525252525252525233
:10149000525252525252525252525252525252522C
:1014A000525252525252525252525252525252521C
:1014B0005252525252525252525252525252520955
:1014C0000909090909090909FFFFF6F6F6F6F609FF
:1014D000ADF6F6F6F6F6F609ADADA4A4A4A4A409FB
:1014E000ADADA4A4A4A4A409ADADA4A4A4A4A409CE
:1014F000ADADA4A4A4A4A409ADADA4A4A4A4A409BE
:1015000009090909090909F6F6F6F6F6F6F6F6F6F6
:10151000F6F6F6F6F6F6F6A4A4A4A4A4A4A4A4A44D
:10152000A400A4A400A4A4A40000A40000A4A400F7
:101530000000000000A4A4A40000A40000A4A409CA
:1015400009090909094952F6F6F6F6B65BA452F6FE
:10155000F6F6F6A449A452A4A4A4A45249AD52A4F8
:10156000A4A4A45249AD52A4A4A4A45249AD52A427
:10157000A4A4A45249AD52A4A4A4A45249AD5209B2
:1015800009090909090909F6F6F6F6F6F6F6F6F676
:10159000F6F6F6F6F6F6F6A4A400A4A4A4A4A4A471
:1015A000A40000A4A4A4A4A4A4000000A4A4A4A42F
:1015B000A400000000A4A4A4A4000000A4A4A40902
:1015C00009090909090909F6F6F6F6F6F6F6F6F636
:1015D000F6F6F6F6F6F6F6A4A4A4A4A4A4A4A4A48D
:1015E0000000A40000A4A4A40000A40000A4A4A4DB
:1015F0000000A40000A4A4A40000A40000A4A40966
:1016000009090909090909F6F6F6F6F6F6F6F6F6F5
:10161000F6F6F6F6F6F6F6A4A4A4A4A4A4A4A4A44C
:101620000000000000A4A4A40000000000A4A4A4E2
:101630000000000000A4A4A40000000000A4A4096D
:101640000909090909090909FFFFF6F6F6F6F6097D
:10165000ADF6F6F6F6F6F609ADADA4A4A4A4A40979
:10166000ADADA4000000A409ADADA400A4A4A409DC
:10167000ADADA4000000A409ADADA4A4A400A409CC
:1016800009090909090909F6F6F6F6F6F6F6F6F675
:10169000F6F6F6F6F6F6F6A4A4A4A4A4A4A4A40070
:1016A000A4A400A400A40000A400A4A400A400001A
:1016B00000A4A4A400A40000A400A4A400A4000901
:1016C00009090909094952F6F6F6F6B65BA452F67D
:1016D000F6F6F6A449A452A4A4A4A45249AD52A477
:1016E000A400A45249AD5200A400A45249AD52A492
:1016F0000000A45249AD52A4A400A45249AD52091D
:101700000909090909090949494949494949494909
:1017100009FFFFF6F6F6F64909ADF6F6F6F6F649D4
:1017200009ADADA4A4A4A44909ADADA4A4A4A44941
:1017300009ADADA4A4A4A44909ADADA4A4A4A40971
:10174000090909090909094949494949494949F61C
:10175000F6F6F6F6F6F6F6F6F6F6F6F6F6F6F6A47B
:10176000A4A4A4A4A4A4A4A4A4A400A4A400A4A481
:10177000A40000A40000A4A4000000000000A4092C
:1017800009090909094952494949494949A452F6EF
:10179000F6F6F6F6B6A452F6F6F6F6F6A4AD52A4B0
:1017A000A4A4A4A452AD52A4A4A4A4A452AD52A42F
:1017B000A4A4A4A452AD52A4A4A4A4A452AD5209BA
:1017C00009090909090909094949494949494909C9
:1017D00049FFFFF6F6F6F60949ADF6F6F6F6F60914
:1017E00049ADADA4A4A4A40949ADADA4A4A4A40981
:1017F00049ADADA4A4A4A40949ADADA4A4A4A40971
:10180000090909090909094949494949494949F65B
:10181000F6F6F6F6F6F6F6F6F6F6F6F6F6F6F6A4BA
:10182000A4A400A4A4A4A4A4A4A40000A4A4A4A464
:10183000A4A4000000A4A4A4A4A400000000A4097F
:10184000090909090909094949494949494949F61B
:10185000F6F6F6F6F6F6F6F6F6F6F6F6F6F6F6A47A
:10186000A4A4A4A4A4A4A4A4A40000A40000A4A4C8
:10187000A40000A40000A4A4A40000A40000A409E3
:10188000090909090909094949494949494949F6DB
:10189000F6F6F6F6F6F6F6F6F6F6F6F6F6F6F6A43A
:1018A000A4A4A4A4A4A4A4A4A40000000000A4A42C
:1018B000A40000000000A4A4A40000000000A409EB
:1018C00009090909090909094949494949494909C8
:1018D00049FFFFF6F6F6F60949ADF6F6F6F6F60913
:1018E00049ADADA4A4A4A40949ADADA4000000096C
:1018F00049ADADA400A4A40949ADADA40000000900
:10190000090909090909094949494949494949F65A
:10191000F6F6F6F6F6F6F6F6F6F6F6F6F6F6F6A4B9
:10192000A4A4A4A4A4A4A4A400A4A400A400A4A463
:1019300000A400A4A400A4A40000A4A4A400A409DA
:1019400009090909094952494949494949A452F62D
:10195000F6F6F6F6B6A452F6F6F6F6F6A4AD52A4EE
:10196000A4A4A4A452AD5200A4A400A452AD520059
:1019700000A400A452AD5200A40000A452AD52092C
:10198000ADADA4A4A4A4A409ADADA4A4A4A4A40929
:10199000A452525252525209494949494949494966
:1019A0009BADB6B6B6B6B65252525252525252527F
:1019B000525252525252525252525252525252A4B5
:1019C000A400A4A400A4A4A4A4A4A4A4A4A4A45271
:1019D000525252525252524949494949494949B6CB
:1019E000B6B6B6B6B6B6B65252525252525252521B
:1019F000525252525252525252525252525252A475
:101A0000A4A4A45249AD52A4A4A4A45249AD5252D4
:101A10005252525249AD52494949494949AD52B6CB
:101A2000B6B6B6F6FFF65252525252525252525275
:101A3000525252525252525252525252525252A434
:101A4000A40000A4A4A4A4A4A400A4A4A4A4A45294
:101A5000525252525252524949494949494949B64A
:101A6000B6B6B6B6B6B6B65252525252525252529A
:101A7000525252525252525252525252525252A4F4
:101A80000000A40000A4A4A4A4A4A4A4A4A4A452F8
:101A9000525252525252524949494949494949B60A
:101AA000B6B6B6B6B6B6B65252525252525252525A
:101AB000525252525252525252525252525252A4B4
:101AC0000000000000A4A4A4A4A4A4A4A4A4A4525C
:101AD000525252525252524949494949494949B6CA
:101AE000B6B6B6B6B6B6B65252525252525252521A
:101AF000525252525252525252525252525252090F
:101B0000ADADA4000000A409ADADA4A4A4A4A40993
:101B1000A4525252525252094949494949494949E4
:101B20009BADB6B6B6B6B6525252525252525252FD
:101B300052525252525252525252525252525200D7
:101B4000A4A400A400A400A4A4A4A4A4A4A4A45293
:101B5000525252525252524949494949494949B649
:101B6000B6B6B6B6B6B6B652525252525252525299
:101B7000525252525252525252525252525252A4F3
:101B8000A400A45249AD52A4A4A4A45249AD5252F7
:101B90005252525249AD52494949494949AD52B64A
:101BA000B6B6B6F6FFF652525252525252525252F4
:101BB000525252525252525252525252525252490E
:101BC00009ADADA4A4A4A44909ADADA4A4A4A4499D
:101BD00009ADADA4A4A4A40909A452525252524979
:101BE0009BADB6B6B6B6B65252525252525252523D
:101BF000525252525252525252525252525252A473
:101C0000A40000A40000A4A4A4A400A4A400A4A46C
:101C1000A4A4A4A4A4A4A45252525252525252B602
:101C2000B6B6B6B6B6B6B6525252525252525252D8
:101C3000525252525252525252525252525252A432
:101C4000A4A4A4A452AD52A4A4A4A4A452AD52A48A
:101C5000A4A4A4A452AD52525252525252AD52B602
:101C6000B6B6B6F6FFF65252525252525252525233
:101C7000525252525252525252525252525252098D
:101C800049ADADA4A4A4A40949ADADA4A4A4A409DC
:101C900049ADADA4A4A4A40949A452525252524938
:101CA0009BADB6B6B6B6B65252525252525252527C
:101CB000525252525252525252525252525252A4B2
:101CC000A4A4000000A4A4A4A4A40000A4A4A4A408
:101CD000A4A400A4A4A4A45252525252525252B6E6
:101CE000B6B6B6B6B6B6B652525252525252525218
:101CF000525252525252525252525252525252A472
:101D0000A40000A40000A4A4A40000A40000A4A4B3
:101D1000A4A4A4A4A4A4A45252525252525252B601
:101D2000B6B6B6B6B6B6B6525252525252525252D7
:101D3000525252525252525252525252525252A431
:101D4000A40000000000A4A4A40000000000A4A4BB
:101D5000A4A4A4A4A4A4A45252525252525252B6C1
:101D6000B6B6B6B6B6B6B652525252525252525297
:101D7000525252525252525252525252525252098C
:101D800049ADADA4A4A4000949ADADA4000000096B
:101D900049ADADA4A4A4A40949A452525252524937
:101DA0009BADB6B6B6B6B65252525252525252527B
:101DB000525252525252525252525252525252A4B1
:101DC00000A400A4A400A4A400A4A400A400A4A4AB
:101DD000A4A4A4A4A4A4A45252525252525252B641
:101DE000B6B6B6B6B6B6B652525252525252525217
:101DF0005252525252525252525252525252520015
:101E0000A4A400A452AD5200A4A400A452AD52A4B4
:101E1000A4A4A4A452AD52525252525252AD52B640
:101E2000B6B6B6F6FFF65252525252525252525271
:101E300052525252525252525252525252525200D4
:101E40000000000000000000000000000000000092
:101E50000000000000000000000000000000000082
:101E60000000000000000000000000000000000072
:101E70000000000000000000000000000000000062
:101E80000000A4A4000000000000A4A400000000C2
:101E90000000A4A4000000000000A4A400000000B2
:101EA0000000A4A4000000000000000000000000EA
:101EB0000000A4A4000000000000000000000000DA
:101EC000A4A400A4A4000000A4A400A4A4000000F2
:101ED00000A40000A4000000A40000A40000000072
:101EE00000000000000000000000000000000000F2
:101EF00000000000000000000000000000000000E2
:101F0000000000000000000000A40000A400000089
:101F1000A4A4A4A4A4A4000000A40000A4000000A1
:101F200000A40000A4000000A4A4A4A4A4A4000091
:101F300000A40000A4000000000000000000000059
:101F40000000A40000000000A4A4A4A4A4A400A471
:101F50000000A40000000000A4A4A4A4A4000000A9
:101F60000000A40000A400A4A4A4A4A4A400000051
:101F70000000A4000000000000000000000000A419
:101F8000A4000000000000A4A40000A400000000C1
:101F90000000A4000000000000A4000000000000F9
:101FA000A4000000000000A40000A4A400000000A1
:101FB0000000A4A4000000000000000000000000D9
:101FC00000A4A40000000000A40000A40000000081
:101FD000A4A400A400000000A4A4A400000000A485
:101FE0000000A4A400A400A4000000A4A400000019
:101FF000A4A4A4A400A400000000000000000000AD
:10200000A4A4000000000000A4A400000000000040
:1020100000A4000000000000A40000000000000078
:1020200000000000000000000000000000000000B0
:1020300000000000000000000000000000000000A0
:102040000000A4A4A400000000A4A400000000005C
:10205000A4A4000000000000A4A4000000000000F0
:10206000A4A400000000000000A4A40000000000E0
:102070000000A4A4A4000000000000000000000074
:1020800000A4A4A400000000000000A4A40000001C
:1020900000000000A4A4000000000000A4A40000B0
:1020A00000000000A4A40000000000A4A4000000A0
:1020B00000A4A4A400000000000000000000000034
:1020C00000000000000000000000A400000000006C
:1020D000A400A400A400000000A4A4A40000000028
:1020E000A400A400A40000000000A4000000000060
:1020F00000000000000000000000000000000000E0
:1021000000000000000000000000A400000000002B
:102110000000A40000000000A4A4A4A4A4000000E7
:102120000000A400000000000000A4000000000067
:10213000000000000000000000000000000000009F
:10214000000000000000000000000000000000008F
:10215000000000000000000000000000000000007F
:1021600000A4A4000000000000A4A40000000000DF
:10217000A4A4000000000000000000000000000017
:10218000000000000000000000000000000000004F
:102190000000000000000000A4A4A4A4A40000000B
:1021A000000000000000000000000000000000002F
:1021B000000000000000000000000000000000001F
:1021C000000000000000000000000000000000000F
:1021D00000000000000000000000000000000000FF
:1021E000000000000000000000A4A40000000000A7
:1021F00000A4A40000000000000000000000000097
:102200000000000000A4000000000000A400000086
:10221000000000A4000000000000A4000000000076
:1022200000A4000000000000A4000000000000A4C2
:10223000000000000000000000000000000000009E
:1022400000A4A4A400000000A40000A4A40000A412
:10225000A4000000A4A400A4A4000000A4A400A45E
:10226000A4000000A4A40000A4A40000A400000096
:1022700000A4A4A400000000000000000000000072
:102280000000A4A40000000000A4A4A4000000001A
:102290000000A4A4000000000000A4A400000000AE
:1022A0000000A4A4000000000000A4A4000000009E
:1022B000A4A4A4A4A4A40000000000000000000046
:1022C000A4A4A4A4A40000A4A4000000A4A400004A
:1022D000000000A4A4A4000000A4A4A4A400000082
:1022E000A4A4A4A4000000A4A4A40000000000A4CE
:1022F000A4A4A4A4A4A40000000000000000000006
:10230000A4A4A4A4A4A40000000000A4A4000000AD
:102310000000A4A40000000000A4A4A4A4000000E5
:1023200000000000A4A400A4A4000000A4A40000D5
:10233000A4A4A4A4A4000000000000000000000069
:102340000000A4A4A400000000A4A4A4A400000011
:10235000A4A400A4A40000A4A40000A4A40000A4B9
:10236000A4A4A4A4A4A40000000000A4A40000004D
:10237000000000A4A400000000000000000000A471
:10238000A4A4A4A4A40000A4A4000000000000A42D
:10239000A4A4A4A4A400000000000000A4A40000C1
:1023A00000000000A4A400A4A4000000A4A4000055
:1023B000A4A4A4A4A40000000000000000000000E9
:1023C00000A4A4A4A4000000A4A40000000000A491
:1023D000A4000000000000A4A4A4A4A4A40000A4DD
:1023E000A4000000A4A400A4A4000000A4A4000071
:1023F000A4A4A4A4A400000000000000000000A405
:10240000A4A4A4A4A4A400A4A4000000A4A4000064
:10241000000000A4A40000000000A4A4000000002C
:1024200000A4A4000000000000A4A400000000001C
:1024300000A4A40000000000000000000000000054
:10244000A4A4A4A4000000A4A4000000A40000A46C
:10245000A4A40000A4000000A4A4A4A4000000A45C
:102460000000A4A4A4A400A400000000A4A40000F0
:10247000A4A4A4A4A4000000000000000000000028
:10248000A4A4A4A4A40000A4A4000000A4A400A4E4
:10249000A4000000A4A40000A4A4A4A4A4A4000078
:1024A00000000000A4A40000000000A4A40000009C
:1024B000A4A4A4A40000000000000000000000008C
:1024C000000000000000000000A4A40000000000C4
:1024D00000A4A400000000000000000000000000B4
:1024E000000000000000000000A4A40000000000A4
:1024F00000A4A40000000000000000000000000094
:102500000000000000000000A4A400000000000083
:10251000A4A4000000000000000000000000000073
:10252000A4A4000000000000A4A40000000000001B
:1025300000A4000000000000A40000000000000053
:10254000000000A4A40000000000A4A400000000FB
:1025500000A4A40000000000A4A4000000000000EB
:1025600000A4A400000000000000A4A400000000DB
:10257000000000A4A4000000000000000000000013
:10258000000000000000000000000000000000004B
:10259000A4A4A4A4A4000000000000000000000007
:1025A0000000000000000000A4A4A4A4A4000000F7
:1025B000000000000000000000000000000000001B
:1025C00000A4A400000000000000A4A4000000007B
:1025D000000000A4A400000000000000A4A400006B
:1025E000000000A4A40000000000A4A4000000005B
:1025F00000A4A40000000000000000000000000093
:10260000A4A4A4A4000000A4A40000A4A4000000AA
:10261000000000A4A400000000A4A4A40000000086
:1026200000A4A40000000000000000000000000062
:1026300000A4A40000000000000000000000000052
:1026400000A4A4A400000000A4000000A40000A4B2
:102650000000A400A40000A400A400A4A40000A4FE
:102660000000A4A400000000A4000000000000007E
:1026700000A4A4A4A40000000000000000000000CA
:1026800000A4A4A400000000A4A400A4A40000A42A
:10269000A4000000A4A400A4A4000000A4A400A41A
:1026A000A4A4A4A4A4A400A4A4000000A4A400A41E
:1026B000A4000000A4A4000000000000000000A48A
:1026C000A4A4A4A4A40000A4A4000000A4A400A4A2
:1026D000A4000000A4A400A4A4A4A4A4A40000A492
:1026E000A4000000A4A400A4A4000000A4A400A4CA
:1026F000A4A4A4A4A40000000000000000000000A6
:1027000000A4A4A4A4000000A4A40000A4A400A405
:10271000A4000000000000A4A4000000000000A429
:10272000A400000000000000A4A40000A4A4000075
:1027300000A4A4A4A400000000000000000000A465
:10274000A4A4A4A4000000A4A40000A4A40000A4C5
:10275000A4000000A4A400A4A4000000A4A400A459
:10276000A4000000A4A400A4A40000A4A40000A449
:10277000A4A4A4A40000000000000000000000A425
:10278000A4A4A4A4A4A400A4A4000000000000A485
:10279000A4000000000000A4A4A4A4A4A40000A419
:1027A000A4000000000000A4A4000000000000A499
:1027B000A4A4A4A4A4A4000000000000000000A49D
:1027C000A4A4A4A4A4A400A4A4000000000000A445
:1027D000A4000000000000A4A4A4A4A4A40000A4D9
:1027E000A4000000000000A4A4000000000000A459
:1027F000A400000000000000000000000000000035
:1028000000A4A4A4A4A40000A4A40000000000A4A8
:10281000A4000000000000A4A40000A4A4A400A43C
:10282000A4000000A4A40000A4A40000A4A400002C
:1028300000A4A4A4A4A4000000000000000000A4C0
:10284000A4000000A4A400A4A4000000A4A400A468
:10285000A4000000A4A400A4A4A4A4A4A4A400A46C
:10286000A4000000A4A400A4A4000000A4A400A448
:10287000A4000000A4A4000000000000000000006C
:10288000A4A4A4A4A4A400000000A4A40000000028
:102890000000A4A4000000000000A4A400000000A8
:1028A0000000A4A4000000000000A4A40000000098
:1028B000A4A4A4A4A4A40000000000000000000040
:1028C0000000A4A4A4A40000000000A4A400000030
:1028D000000000A4A4000000000000A4A400000068
:1028E000000000A4A40000A4000000A4A4000000B4
:1028F000A4A4A4A40000000000000000000000A4A4
:10290000A4000000A4A400A4A40000A4A40000A4A7
:10291000A400A4A4000000A4A4A4A400000000A497
:10292000A4A4A4A4000000A4A400A4A4A40000A43F
:10293000A40000A4A4A40000000000000000000007
:10294000A4A4000000000000A4A4000000000000F7
:10295000A4A4000000000000A4A4000000000000E7
:10296000A4A4000000000000A4A4000000000000D7
:10297000A4A4A4A4A4A4000000000000000000A4DB
:10298000A4000000A4A400A4A4A400A4A4A400A4DF
:10299000A4A4A4A4A4A400A4A4A4A4A4A4A400A43F
:1029A000A400A400A4A400A4A4000000A4A400A463
:1029B000A4000000A4A4000000000000000000A487
:1029C000A4000000A4A400A4A4A40000A4A400A443
:1029D000A4A4A400A4A400A4A4A4A4A4A4A400A4A3
:1029E000A400A4A4A4A400A4A40000A4A4A400A4DB
:1029F000A4000000A4A400000000000000000000EB
:102A0000A4A4A4A4A40000A4A4000000A4A400A45E
:102A1000A4000000A4A400A4A4000000A4A400A496
:102A2000A4000000A4A400A4A4000000A4A400002A
:102A3000A4A4A4A4A400000000000000000000A4BE
:102A4000A4A4A4A4A40000A4A4000000A4A400A41E
:102A5000A4000000A4A400A4A4000000A4A400A456
:102A6000A4A4A4A4A40000A4A4000000000000A446
:102A7000A4000000000000000000000000000000B2
:102A8000A4A4A4A4A40000A4A4000000A4A400A4DE
:102A9000A4000000A4A400A4A4000000A4A400A416
:102AA000A400A4A4A4A400A4A40000A4A400000062
:102AB000A4A4A4A400A4000000000000000000A43E
:102AC000A4A4A4A4A40000A4A4000000A4A400A49E
:102AD000A4000000A4A400A4A40000A4A4A400A432
:102AE000A4A4A4A4000000A4A400A4A4A40000A47E
:102AF000A40000A4A4A40000000000000000000046
:102B0000A4A4A4A4000000A4A40000A4A40000A401
:102B1000A400000000000000A4A4A4A4A4000000DD
:102B200000000000A4A400A4A4000000A4A40000CD
:102B3000A4A4A4A4A4000000000000000000000061
:102B4000A4A4A4A4A4A400000000A4A40000000065
:102B50000000A4A4000000000000A4A400000000E5
:102B60000000A4A4000000000000A4A400000000D5
:102B70000000A4A40000000000000000000000A469
:102B8000A4000000A4A400A4A4000000A4A400A425
:102B9000A4000000A4A400A4A4000000A4A400A415
:102BA000A4000000A4A400A4A4000000A4A40000A9
:102BB000A4A4A4A4A400000000000000000000A43D
:102BC000A4000000A4A400A4A4000000A4A400A4E5
:102BD000A4000000A4A400A4A4A400A4A4A4000031
:102BE000A4A4A4A4A400000000A4A4A400000000C5
:102BF0000000A4000000000000000000000000A48D
:102C0000A4000000A4A400A4A4000000A4A400A4A4
:102C1000A400A400A4A400A4A4A4A4A4A4A400A404
:102C2000A4A4A4A4A4A400A4A4A400A4A4A400A450
:102C3000A4000000A4A4000000000000000000A404
:102C4000A4000000A4A400A4A4A400A4A4A40000C0
:102C5000A4A4A4A4A400000000A4A4A40000000054
:102C6000A4A4A4A4A40000A4A4A400A4A4A400A4B4
:102C7000A4000000A4A40000000000000000000068
:102C8000A4A40000A4A40000A4A40000A4A4000024
:102C9000A4A40000A4A4000000A4A4A4A400000014
:102CA0000000A4A4000000000000A4A40000000094
:102CB0000000A4A40000000000000000000000A428
:102CC000A4A4A4A4A4A40000000000A4A4A4000040
:102CD0000000A4A4A400000000A4A4A4000000001C
:102CE000A4A4A400000000A4A4A40000000000A468
:102CF000A4A4A4A4A4A400000000000000000000FC
:102D000000A4A4A4A400000000A4A40000000000EB
:102D100000A4A4000000000000A4A4000000000023
:102D200000A4A4000000000000A4A4000000000013
:102D300000A4A4A4A4000000000000000000000003
:102D400000A4A4A4A4000000A400000000A400A407
:102D50000000A4A40000A4A400A400000000A4A4F7
:102D600000A400000000A4A40000A4A40000A4008B
:102D7000A400000000A4000000A4A4A4A40000007B
:102D800000A4A4A4A4000000000000A4A40000006B
:102D9000000000A4A4000000000000A4A4000000A3
:102DA000000000A4A4000000000000A4A400000093
:102DB00000A4A4A4A4000000000000000000000083
:102DC00000A4A4000000000000A4A4A400000000CF
:102DD00000A4A4A4A400000000A4A4A4A4A400002F
:102DE00000A4A4A4A400000000A4A4A40000000067
:102DF00000A4A4000000000000000000000000008B
:102E000000000000000000000000000000000000C2
:102E1000A4A40000000000A4A4A4A40000A400A492
:102E20000000A4A4A4A40000000000A4A4000000CA
:102E3000000000000000000000000000000000484A
:102E40004848484848484848484848484848484802
:102E500048484848484848484848484848484848F2
:102E600048484848484848484848484848484848E2
:102E700048484848484848484848484848484848D2
:102E800048484848484848484848484848484848C2
:102E90004848484848484848489B4848484848485F
:102EA000489B484848484848489B484848484848FC
:102EB0004848484848484848489B4848484848483F
:102EC0004848484848484848484848484848484882
:102ED000484848484848489B9B489B9B4848484826
:102EE0009B48489B484848484848484848484848BC
:102EF0004848484848484848484848484848484852
:102F00004848484848484848484848484848484841
:102F100048484848484848489B489B484848489B38
:102F20009B9B9B9B484848489B489B484848489BDC
:102F30009B9B9B9B484848489B489B48484848481F
:102F40004848484848484848484848484848484801
:102F5000484848484848484848489B48484848489E
:102F60009B9B9B9B9B4848489B489B48484848489C
:102F70009B9B9B9B9B48484848489B4848484848DF
:102F800048484848484848484848484848484848C1
:102F900048484848484848484848484848484848B1
:102FA0009B48489B4848484848489B4848484848A8
:102FB000489B48489B4848484848484848484848EB
:102FC0004848484848484848484848484848484881
:102FD0004848484848484848489B4848484848481E
:102FE0009B9B9B48484848489B489B9B4848489B1C
:102FF00048489B48484848489B9B489B4848484805
:103000004848484848484848484848484848484840
:10301000484848484848484848489B4848484848DD
:10302000489B4848484848484848484848484848CD
:103030004848484848484848484848484848484810
:103040004848484848484848484848484848484800
:10305000484848484848484848489B48484848489D
:10306000489B484848484848489B4848484848483A
:10307000489B48484848484848489B48484848482A
:1030800048484848484848484848484848484848C0
:103090004848484848484848489B4848484848485D
:1030A00048489B484848484848489B4848484848FA
:1030B00048489B4848484848489B484848484848EA
:1030C0004848484848484848484848484848484880
:1030D0004848484848484848484848484848489B1D
:1030E000489B489B484848489B9B9B484848489B6E
:1030F000489B489B484848484848484848484848AA
:10310000484848484848484848484848484848483F
:103110004848484848484848489B484848484848DC
:10312000489B48484848489B9B9B9B9B484848482D
:10313000489B484848484848489B48484848484869
:1031400048484848484848484848484848484848FF
:1031500048484848484848484848484848484848EF
:1031600048484848484848484848484848484848DF
:10317000489B4848484848489B4848484848484829
:1031800048484848484848484848484848484848BF
:103190004848484848484848484848484848489B5C
:1031A0009B9B9B9B48484848484848484848484853
:1031B000484848484848484848484848484848488F
:1031C000484848484848484848484848484848487F
:1031D000484848484848484848484848484848486F
:1031E000484848484848484848484848484848485F
:1031F0004848484848484848489B484848484848FC
:10320000484848484848484848484848484848483E
:1032100048484848484848484848489B48484848DB
:1032200048489B4848484848489B48484848484878
:103230009B4848484848489B484848484848484868
:1032400048484848484848484848484848484848FE
:1032500048484848484848489B9B9B484848489BA2
:103260009B48489B4848489B489B489B4848489BEC
:1032700048489B9B484848489B9B9B48484848482F
:1032800048484848484848484848484848484848BE
:103290004848484848484848489B4848484848485B
:1032A0009B9B484848484848489B484848484848A5
:1032B000489B4848484848489B9B9B484848484842
:1032C000484848484848484848484848484848487E
:1032D000484848484848489B9B9B9B484848484822
:1032E0004848489B484848489B9B9B484848489BBF
:1032F000484848484848489B9B9B9B9B48484848AF
:10330000484848484848484848484848484848483D
:10331000484848484848489B9B9B9B4848484848E1
:103320004848489B484848489B9B9B4848484848D1
:103330004848489B4848489B9B9B9B48484848486E
:1033400048484848484848484848484848484848FD
:10335000484848484848489B48489B484848489BF4
:1033600048489B484848489B9B9B9B9B48484848EB
:1033700048489B484848484848489B484848484827
:1033800048484848484848484848484848484848BD
:10339000484848484848489B9B9B9B484848489B0E
:1033A000484848484848489B9B9B9B484848484851
:1033B0004848489B4848489B9B9B9B4848484848EE
:1033C000484848484848484848484848484848487D
:1033D00048484848484848489B9B9B484848489B21
:1033E000484848484848489B9B9B9B484848489BBE
:1033F0004848489B484848489B9B9B484848484801
:10340000484848484848484848484848484848483C
:10341000484848484848489B9B9B9B9B484848488D
:103420004848489B4848484848489B484848484876
:10343000489B484848484848489B48484848484866
:1034400048484848484848484848484848484848FC
:1034500048484848484848489B9B9B484848489BA0
:103460004848489B484848489B9B9B484848489B3D
:103470004848489B484848489B9B9B484848484880
:1034800048484848484848484848484848484848BC
:1034900048484848484848489B9B9B484848489B60
:1034A0004848489B484848489B9B9B9B48484848FD
:1034B0004848489B484848489B9B9B484848484840
:1034C000484848484848484848484848484848487C
:1034D000484848484848484848484848484848486C
:1034E00048489B4848484848484848484848484809
:1034F00048489B48484848484848484848484848F9
:10350000484848484848484848484848484848483B
:10351000484848484848484848484848484848482B
:1035200048489B48484848484848484848484848C8
:1035300048489B4848484848489B48484848484865
:1035400048484848484848484848484848484848FB
:10355000484848484848484848489B484848484898
:10356000489B4848484848489B4848484848484835
:10357000489B48484848484848489B484848484825
:1035800048484848484848484848484848484848BB
:1035900048484848484848484848484848484848AB
:1035A0009B9B9B9B4848484848484848484848484F
:1035B0009B9B9B9B4848484848484848484848483F
:1035C000484848484848484848484848484848487B
:1035D00048484848484848489B4848484848484818
:1035E000489B48484848484848489B4848484848B5
:1035F000489B4848484848489B48484848484848A5
:10360000484848484848484848484848484848483A
:1036100048484848484848489B9B9B484848484831
:103620004848489B48484848489B9B484848484821
:103630004848484848484848489B484848484848B7
:1036400048484848484848484848484848484848FA
:1036500048484848484848489B9B9B484848489B9E
:103660004848489B4848489B489B9B9B4848489BE8
:10367000489B489B48484848489B9B48484848487E
:1036800048484848484848484848484848484848BA
:1036900048484848484848489B9B9B484848489B5E
:1036A0004848489B4848489B9B9B9B9B4848489B55
:1036B0004848489B4848489B4848489B4848484891
:1036C000484848484848484848484848484848487A
:1036D000484848484848489B9B9B9B484848489BCB
:1036E0004848489B4848489B9B9B9B484848489B68
:1036F0004848489B4848489B9B9B9B4848484848AB
:103700004848484848484848484848484848484839
:1037100048484848484848489B9B9B9B4848489B8A
:10372000484848484848489B484848484848489B73
:1037300048484848484848489B9B9B9B48484848BD
:1037400048484848484848484848484848484848F9
:10375000484848484848489B9B9B9B484848489B4A
:103760004848489B4848489B4848489B4848489B8D
:103770004848489B4848489B9B9B9B48484848482A
:1037800048484848484848484848484848484848B9
:10379000484848484848489B9B9B9B9B4848489BB7
:1037A000484848484848489B9B9B9B484848489BFA
:1037B000484848484848489B9B9B9B9B48484848EA
:1037C0004848484848484848484848484848484879
:1037D000484848484848489B9B9B9B9B4848489B77
:1037E000484848484848489B9B9B9B484848489BBA
:1037F000484848484848489B4848484848484848F6
:103800004848484848484848484848484848484838
:1038100048484848484848489B9B9B9B4848489B89
:10382000484848484848489B489B9B9B4848489B79
:103830004848489B484848489B9B9B4848484848BC
:1038400048484848484848484848484848484848F8
:10385000484848484848489B4848489B4848489BEF
:103860004848489B4848489B9B9B9B9B4848489B93
:103870004848489B4848489B4848489B48484848CF
:1038800048484848484848484848484848484848B8
:1038900048484848484848489B9B9B4848484848AF
:1038A000489B484848484848489B484848484848F2
:1038B000489B4848484848489B9B9B48484848483C
:1038C0004848484848484848484848484848484878
:1038D0004848484848484848489B9B9B484848486F
:1038E00048489B484848484848489B484848489B5F
:1038F00048489B48484848489B9B4848484848484F
:103900004848484848484848484848484848484837
:10391000484848484848489B4848489B4848489B2E
:103920009B489B484848489B489B48484848489B78
:1039300048489B484848489B4848489B484848480E
:1039400048484848484848484848484848484848F7
:10395000484848484848489B484848484848489B41
:10396000484848484848489B484848484848489B31
:10397000484848484848489B9B9B9B9B4848484828
:1039800048484848484848484848484848484848B7
:10399000484848484848489B4848489B4848489BAE
:1039A0009B489B9B4848489B489B489B4848489B52
:1039B0004848489B4848489B4848489B484848488E
:1039C0004848484848484848484848484848484877
:1039D000484848484848489B4848489B4848489B6E
:1039E0009B48489B4848489B489B489B4848489B65
:1039F00048489B9B4848489B4848489B48484848FB
:103A00004848484848484848484848484848484836
:103A100048484848484848489B9B9B484848489BDA
:103A20004848489B4848489B4848489B4848489BCA
:103A30004848489B484848489B9B9B4848484848BA
:103A400048484848484848484848484848484848F6
:103A5000484848484848489B9B9B9B484848489B47
:103A60004848489B4848489B9B9B9B484848489BE4
:103A7000484848484848489B484848484848484873
:103A800048484848484848484848484848484848B6
:103A900048484848484848489B9B9B484848489B5A
:103AA0004848489B4848489B489B489B4848489BF7
:103AB00048489B48484848489B9B489B484848483A
:103AC0004848484848484848484848484848484876
:103AD000484848484848489B9B9B9B484848489BC7
:103AE0004848489B4848489B9B9B9B9B4848489B11
:103AF00048489B484848489B4848489B484848484D
:103B00004848484848484848484848484848484835
:103B100048484848484848489B9B9B9B4848489B86
:103B2000484848484848489B9B9B9B9B4848484876
:103B30004848489B4848489B9B9B9B484848484866
:103B400048484848484848484848484848484848F5
:103B5000484848484848489B9B9B9B9B4848484846
:103B6000489B484848484848489B4848484848482F
:103B7000489B484848484848489B4848484848481F
:103B800048484848484848484848484848484848B5
:103B9000484848484848489B4848489B4848489BAC
:103BA0004848489B4848489B4848489B4848489B49
:103BB0004848489B484848489B9B9B484848484839
:103BC0004848484848484848484848484848484875
:103BD000484848484848489B4848489B4848489B6C
:103BE0004848489B484848489B489B48484848485C
:103BF0009B489B4848484848489B4848484848484C
:103C00004848484848484848484848484848484834
:103C1000484848484848489B4848489B4848489B2B
:103C2000489B489B4848489B489B489B4848484875
:103C30009B489B48484848489B489B4848484848B8
:103C400048484848484848484848484848484848F4
:103C5000484848484848489B4848489B484848483E
:103C60009B489B4848484848489B484848484848DB
:103C70009B489B484848489B4848489B4848484878
:103C800048484848484848484848484848484848B4
:103C9000484848484848489B4848489B4848489BAB
:103CA0004848489B484848489B9B9B484848484848
:103CB000489B484848484848489B484848484848DE
:103CC0004848484848484848484848484848484874
:103CD000484848484848489B9B9B9B9B48484848C5
:103CE00048489B4848484848489B484848484848AE
:103CF0009B4848484848489B9B9B9B9B4848484852
:103D00004848484848484848484848484848484833
:103D100048484848484848489B9B9B48484848482A
:103D20009B484848484848489B484848484848486D
:103D30009B484848484848489B9B9B4848484848B7
:103D400048484848484848484848484848484848F3
:103D500048484848484848489B489B484848489BEA
:103D60009B9B9B9B4848489B9B9B9B9B48484848E8
:103D7000489B484848484848489B4848484848481D
:103D800048484848484848484848484848484848B3
:103D900048484848484848489B9B9B4848484848AA
:103DA00048489B484848484848489B4848484848ED
:103DB00048489B48484848489B9B9B484848484837
:103DC0004848484848484848484848484848484873
:103DD0004848484848484848489B48484848484810
:103DE0009B489B484848489B4848489B4848484807
:103DF0004848484848484848484848484848484843
:103E00004848484848484848484848484848484832
:103E10004848484848484848484848484848484822
:103E20004848484848484848484848484848484812
:103E3000484848484848489B9B9B9B9B484848FFAC
:103E4000FFFFFFFFFFFFFFFFADADADADADADADFFC0
:103E5000ADADFF5BADADFFFFADADFF5BADADFFFF4A
:103E6000ADADFF5BADADFFFFADADADADADADADFF8C
:103E70005B5252525252525200000000000000FFAA
:103E8000FFFFFFFFFFFF52ADADADADADAD5B005B22
:103E9000ADADFF5BAD52005BADADFF5BAD52005B06
:103EA000ADADFF5BAD5200ADADADADADAD520052AD
:103EB000525252525252000000000000000000FE18
:103EC000FFFFFFFFFF00FEFEFFADADADAD00FEFE4C
:103ED000FFADFFFFAD00FEFEFFAD5252AD00FEFE96
:103EE000FFADADADAD00FEFEFFADFFFFAD00FEFED0
:103EF000FFAD5252AD00FEFEFF0000000000FE00CC
:103F000000FEFEFEFEFEFE00FF00FEFEFEFEFE00C8
:103F1000FFFF00FEFEFEFE00FFFFFF00FEFEFE00B4
:103F2000FFFFFFFF00FEFE00FFFFFFFFFF00FE00A0
:103F3000FFFFFFFFFFFF0000FFFFFFFF0000FE008D
:103F4000FEFEFEFEFEFEFE0000FEFEFEFEFEFE008B
:103F5000FF00FEFEFEFEFE00FFFF00FEFEFEFE0076
:103F6000FFFFFF00FEFEFE00FFFFFFFF00FEFE0062
:103F7000FFFFFFFFFF00FE00FFFFFFFFFFFF00FE50
:103F8000FEFEFEFEFEFEFEFEFEFEFEFEFEFEFEFE51
:103F9000FEFEFEFEFEFEFEFEFEFEFEFEFEFEFEFE41
:103FA000FEFEFEFEFEFEFEFEFEFEFEFEFEFEFEFE31
:103FB000FEFEFEFEFEFEFEFEFEFEFEFEFEFEFE001F
:103FC000FF0000FF00FEFE0000FE00FFFF00FEFEFF
:103FD000FEFE0000FF00FEFEFEFEFE0000FEFEFEF6
:103FE000FEFEFEFEFEFEFEFEFEFEFEFEFEFEFEFEF1
:103FF000FEFEFEFEFEFEFEFEFEFEFEFEFEFEFE00DF
:10400000FFFFFFFF00000000FFFFFFFF00FEFE00BC
:10401000FF0000FFFF00FE0000FE00FFFF00FEFEAD
:10402000FEFEFE00FFFF00FEFEFEFE00FFFF00FEA4
:10403000FEFEFEFE0000FEFEFEFEFEFEFEFEFE1E7C
:104040001B00000000000000000000000000000154
:10405000020000000000000000000000000000005E
:1040600000030405060708090A0B0C0D0E0F1000CB
:10407000000000000000000000000000000000112F
:1040800012131415161718191A1B1C1D1E000000F8
:10409000000000000000000000000000001F2020C1
:1040A0002020202020202020202020202020202010
:1040B000202020202020210000000022232425266B
:1040C0002728252825292A242B242B282524252484
:1040D000252C2C2C2D00000000222E292A2F2730E1
:1040E0003132333433343536352C2A363334332CAD
:1040F0002C2C2D00000000223738393A3B383C3D4B
:10410000392C2A3D3938392C2A38393D392C2C2C78
:104110002D00000000222C2C2C2C2C2C2C2C2C2C98
:104120002C2C2C2C2C2C2C2C2C2C2C2C2C2C2D00FA
:104130000000003E3F3F3F3F3F3F3F3F3F3F3F3F4D
:104140003F3F3F3F3F3F3F3F3F3F3F3F400000003B
:104150000041424242424242424242424242424282
:104160004242424242424242424243000000000078
:10417000000000000000000000000000000000003F
:10418000000000000000000000000000000000002F
:10419000000000000000000000000000000000001F
:1041A000000000000000000000000000000000000F
:1041B00000000000000000000000000000000000FF
:1041C000000000000000000000444545454545450D
:1041D000454545454545454545454545454545458F
:1041E00045454546000047484848484848484848EB
:1041F000484848484848484848484848484848483F
:1042000048490000474848484848484848484848BE
:10421000484848484848484848484848484848491D
:10422000000047484848484848484848484848489F
:10423000484848484848484848484848484900008D
:1042400047484848484848484848484848484848EF
:10425000484848484848484848484849000047486E
:1042600048484848484848484848484848484848CE
:10427000484848484848484848490000474848484E
:1042800048484848484848484848484848484848AE
:10429000484848484848484900004748484848482E
:1042A000484848484848484848484848484848488E
:1042B000484848484849000047484848484848480E
:1042C000484848484848484848484848484848486E
:1042D00048484849000047484848484848484848EE
:1042E000484848484848484848484848484848484E
:1042F00048490000474848484848484848484848CE
:10430000484848484848484848484848484848492C
:1043100000004748484848484848484848484848AE
:10432000484848484848484848484848484900009C
:104330004A484848484848484848484848484848FB
:10434000484848484848484848484B4C00004D4E6B
:104350004F4F4F4F4F4F4F4F4F4F4F4F4F4F4F4F6D
:104360004F4F4F4F4F4F4F4F5000000103232E37F9
:1043700002032425292A3839020326272F273A3B0E
:10438000020328253031383C0203282532333D39D9
:104390000203292A34332C2A0203242B34353D39D5
:1043A0000203242B36353839020328252C2A2C2ADF
:1043B00002032425363338390203242534333D39AA
:1043C00002032C2C2C2C2C2C0302515253646566B6
:1043D00003025A5B5C6D6E6F03025154536467664F
:1043E00003025D5E5C70716F030251555364686631
:1043F00003025D5F5C70726F03025156536469661D
:1044000003025D605C70736F03025758596A6B6CEE
:104410000302616263747576020100010101020109
:104420000204074649525354205245414420474F05
:104430004F442020200046495253542052454144C5
:10444000204641494C454400494E495420474F4F6E
:104450004420202000494E4954204641494C4544BF
:1044600000534543544F52004E4F20534420434184
:1044700052442044455445435445442100001124EE
:104480001FBECFEFD0E1DEBFCDBF14BE88E10FB6B7
:10449000F89480936000109260000FBE11E0A0E0DD
:1044A000B1E0E0E9FFE702C005900D92AE36B1073A
:1044B000D9F71EE0AEE6B1E001C01D92AB3EB107F8
:1044C000E1F7F894ECE2F8E080E090E020E802C048
:1044D0002193019632E08C309307D4F38CE298E07C
:1044E0009093390A8093380A10923A0AEDE3FAE081
:1044F00080E090E003C0108201963A9684309105E6
:10450000D4F381E080935D0A80935E0A80935C0A15
:104510001092810015BCE0E9FAE080E090E028ED1F
:1045200003C020830196349684309105D4F3909390
:104530008B0A80938A0A8FEF87B984B980E88AB999
:104540008CE081B98BEF82B91092060886E08093E7
:104550000708109285001092840083E08093890000
:104560008DE88093880089E08093810082E08093C9
:104570006F0082E484BD17BC91E095BD83E8809311
:10458000B0001092B3009093B10081E185B9109210
:10459000170810920A0810920B0810921208109235
:1045A00011081092160810921508109220080E9407
:1045B000212F80E00E94FE2580FF03C084E00E943E
:1045C000FB2578940E94B63A0C94C63F0C940000E8
:1045D0004F2459246724BB23E0EEF7E0C0E8D1E084
:1045E0002091A10A0027A081B181AC0FBD1F1C91B1
:1045F0001283021708F4102F1C93339603950C3086
:1046000090F309E40C5016E01A95F1F70A95D9F7E2
:1046100016E01A95F1F700C0C0E8D1E008EDA02E31
:10462000662778E02DD133E23A95F1F70E945223C4
:104630003FE03A95F1F700C0AA94A9F00000639515
:1046400000000000683029F0C895C895C8950000A2
:10465000E9CF6627002430E2C30FD01D0000000020
:1046600000000000DFCFC895C895C895C895C895CB
:104670000000000005D10E94E72F11E00091090819
:1046800001270093090820910A08002309F0212737
:1046900020930A08E1E0E0930808E2E0E0933600A6
:1046A00011240895DE01679F000000910C0810910D
:1046B0000D0800501340000D111D180100EE14E00C
:1046C000000D111D280130E41EE12D912C306FB634
:1046D00060FA239FA1010EF4A201040E151EF00141
:1046E000F6F0059108B92D91059108B9239F059120
:1046F00008B92C306FB6059108B908F4A2010591EC
:1047000008B960FA040E059108B9151E1A950591AD
:1047100008B9059139F1F00108B91EF700C00191FF
:1047200008B92D910191000008B9239F0191000063
:1047300008B92C306FB660FA019108B90EF0A101EA
:104740000191040E08B9151E00C0019108B90000BE
:1047500000C0019108B901911A9521F0F00108B942
:1047600006F6DDCF08B90027C895000008B905E0B6
:104770000A95F1F7089528980E942527E7E1EA9520
:10478000F1F7289AE3D0E0E0F6E0C6D0E0FF05D0EC
:10479000E0FF02C00E94C7260895EF93E09107084A
:1047A000E53EE0F5ED30D0F12F923F924F925F92CF
:1047B0006F927F928F929F92AF92BF92CF92DF9231
:1047C000EF92FF920F931F932F933F934F935F931B
:1047D0006F937F938F939F93AF93BF93CF93DF9309
:1047E0000E94EC22DF91CF91BF91AF919F918F9169
:1047F0007F916F915F914F913F912F911F910F91F9
:10480000FF90EF90DF90CF90BF90AF909F908F90F0
:104810007F906F905F904F903F902F90EF91089511
:10482000FF93EF93EFB7EF93E0918400EE50E13008
:1048300000F0E23000F0E33000F0E43000F0E5306A
:1048400000F0E63000F0E73000F0E83000F0E9304A
:1048500000F005D0EF91EFBFEF91FF9118950F9207
:104860001F92E0EDF5E400900608000C1124E00D25
:10487000F11D05901490F00109951F900F90089577
:1048800028980E942527E5E1EA95F1F7E0910708CD
:10489000EA95E0930708289A0000000008952898F8
:1048A0000E944E27289A0000E1E0F6E035D047D07C
:1048B000089528980E944E27E0EB0000EA95E9F75A
:1048C00000000000289AF6E0E2E026D0089528983B
:1048D0000E944E27289A0000E3E0FDEF1DD0E091F2
:1048E0000708E53091F4E0910908E1300000F0910B
:1048F000170819F4F0911708F195E3E0E0938900A7
:10490000EDE8EF0FE09388000895E3E0E09389007D
:10491000EDE8E09388000895009007080A9410904D
:104920005F0011FC0F2E009207080090060811FC92
:104930000E2E00920608E0E011FCE1E00895E3E0AD
:10494000E0938900EDE8E09388000895E7E0E093C4
:104950008900EBE1E09388000895E0E6F3E0A0E849
:10496000B1E06CE06D933197E9F711240895CC0321
:10497000CC03CC03CC03CC03CC03CC03CC03CC03BF
:10498000CC03CC03CC03CC03CC03CC03CC03CC03AF
:10499000CC03CC03CC03CC03CC03CC03CC03CC039F
:1049A000CC03CC03CC03CC03CC03CC03CC03CC038F
:1049B000CC03CC03CC03CC03CC03CC03CC03CC037F
:1049C000CC03CC03CC03CC03CC03CC03CC03CC036F
:1049D000CC039927772720E2629F080E191EA0E8D2
:1049E000B1E0A00DB11D445F4C93112408950895CA
:1049F000992720E2629F080E191EA0E8B1E0A00DE1
:104A0000B11D50910E08450F4C93112408958093C9
:104A10000E080895809304089093050808958093E4
:104A20000C0890930D0808958091080808951124AA
:104A300010920808089580E891E0809361009093B7
:104A40006100089580E890E0809361009093610098
:104A5000089520E4E0910C08F0910D088C50829F9D
:104A6000E00DF11DA0EEB4E0629FA00DB11D002489
:104A700005900D9205900D9205900D9205900D9266
:104A800005900D9205900D9205900D9205900D9256
:104A900005900D9205900D9205900D9205900D9246
:104AA00005900D9205900D9205900D9205900D9236
:104AB00005900D9205900D9205900D9205900D9226
:104AC00005900D9205900D9205900D9205900D9216
:104AD00005900D9205900D9205900D9205900D9206
:104AE00005900D9205900D9205900D9205900D92F6
:104AF00005900D9205900D9205900D9205900D92E6
:104B000005900D9205900D9205900D9205900D92D5
:104B100005900D9205900D9205900D9205900D92C5
:104B200005900D9205900D9205900D9205900D92B5
:104B300005900D9205900D9205900D9205900D92A5
:104B400005900D9205900D9205900D9205900D9295
:104B500005900D9205900D9205900D9205900D9285
:104B600005900D9205900D9205900D9205900D9275
:104B70001124089594E0899FEFE8FAE0E00DF11D1B
:104B80008281E0910408F091050890E4899FE00D8E
:104B9000F11DA0EEB4E0699FA00DB11D11244030BD
:104BA00021F4A20FB11D822F04C088E0821BE80F00
:104BB000F11D503031F498E0939FA00DB11D932F5B
:104BC00006C098E0931B58E0599FE00DF11D112499
:104BD0003EEF58E0591B48E0481B259123132C93C6
:104BE00011964A95D1F7E80FF11DA80FB11D5A95FE
:104BF00091F711240895809317080895882329F4C4
:104C000080910F0890911008089580911308909159
:104C100014080895882329F48091110890911208AE
:104C200008958091150890911608089578E07A9576
:104C3000F1F700000197D1F70895F999FECF92BDE1
:104C400081BD60BDF894FA9AF99A78940895F9991B
:104C5000FECF92BD81BDF894F89A80B578940895FE
:104C60000000000000000000000000000000000044
:104C70000000000000000000000000000000000034
:104C80000000000000000000000000000000000024
:104C90000000000000000000000000000000000014
:104CA0000000000000000000000000000000000004
:104CB00000000000000000000000000000000000F4
:104CC00000000000000000000000000000000000E4
:104CD00000000000000000000000000000000000D4
:104CE00000000000000000000000000000000000C4
:104CF00000000000000000000000000000000000B4
:104D000099277727833008F00895E0E0F9E5660FEA
:104D1000771FE60FF71FA591B491EDE3FAE02AE0C3
:104D2000289FE00DF11DA183B28311240895909175
:104D30005C0A9170880F892B80935C0A08959927EB
:104D40007727EDE3FAE02AE0289FE00DF11D6E3FA2
:104D500031F460915C0A6E7F60935C0A0BC06F3F18
:104D600031F460915C0A6E6F60935C0A03C07FE46B
:104D7000760F75831124089599277727EDE3FAE0DC
:104D80002AE0289FE00DF11D6083112408952F93E0
:104D90003F934F935F936F937F938F939F93AF93C3
:104DA000BF93789411240E9476300E946A2F0E944B
:104DB000722E0E943C310E940A332F923F924F92F2
:104DC0005F926F927F928F929F92AF92BF92CF929B
:104DD000DF92EF92FF920F931F93CF93DF93009098
:104DE0003A0A002019F4ACE2B8E002C0A2E3B9E04C
:104DF00001E0002600923A0A02E000933B0ADF91AC
:104E0000CF911F910F91FF90EF90DF90CF90BF90C7
:104E1000AF909F908F907F906F905F904F903F905A
:104E20002F90992780910608772760910708112411
:104E30000E94E62FBF91AF919F918F917F916F91CB
:104E40005F914F913F912F9108950C9427270C94D7
:104E500029270F931F932ABDE091380AF091390A50
:104E6000019100000093B3000AE0E833F00710F46A
:104E70000000000010F0ECE2F8E0E093380AF09354
:104E8000390AC895C895C895C895C895C8950000B1
:104E9000000000002AB51F910F9108950000E091D5
:104EA0000708E0FFD6CFE1E1EA95F1F70000000046
:104EB0000895000000000000000000000000000055
:104EC00000000000000000000000000000000000E2
:104ED00000000000000000000000000000000000D2
:104EE00000000000000000000000000000000000C2
:104EF00000000000000000000000000000000000B2
:104F0000000306090C101316191C1F2225282B2E2E
:104F1000313336393C3F414447494C4E5153555843
:104F20005A5C5E60626466686A6B6D6F7071737400
:104F3000757678797A7A7B7C7D7D7E7E7E7F7F7FB9
:104F40007F7F7F7F7E7E7E7D7D7C7B7A7A7978769F
:104F500075747371706F6D6B6A68666462605E5CB5
:104F60005A585553514E4C494744413F3C393633CA
:104F7000312E2B2825221F1C191613100C0906038D
:104F800000FDFAF7F4F0EDEAE7E4E1DEDBD8D5D294
:104F9000CFCDCAC7C4C1BFBCB9B7B4B2AFADABA85F
:104FA000A6A4A2A09E9C9A9896959391908F8D8C82
:104FB0008B8A8887868685848383828282818181A9
:104FC0008181818182828283838485868687888AA3
:104FD0008B8C8D8F9091939596989A9C9EA0A2A46D
:104FE000A6A8ABADAFB2B4B7B9BCBFC1C4C7CACD38
:104FF000CFD2D5D8DBDEE1E4E7EAEDF0F4F7FAFD55
:10500000808182838485868788898A8B8C8D8E8F28
:10501000909192939495969798999A9B9C9D9E9F18
:10502000A0A1A2A3A4A5A6A7A8A9AAABACADAEAF08
:10503000B0B1B2B3B4B5B6B7B8B9BABBBCBDBEBFF8
:10504000C0C1C2C3C4C5C6C7C8C9CACBCCCDCECFE8
:10505000D0D1D2D3D4D5D6D7D8D9DADBDCDDDEDFD8
:10506000E0E1E2E3E4E5E6E7E8E9EAEBECEDEEEFC8
:10507000F0F1F2F3F4F5F6F7F8F9FAFBFCFDFEFFB8
:10508000000102030405060708090A0B0C0D0E0FA8
:10509000101112131415161718191A1B1C1D1E1F98
:1050A000202122232425262728292A2B2C2D2E2F88
:1050B000303132333435363738393A3B3C3D3E3F78
:1050C000404142434445464748494A4B4C4D4E4F68
:1050D000505152535455565758595A5B5C5D5E5F58
:1050E000606162636465666768696A6B6C6D6E6F48
:1050F000707172737475767778797A7B7C7D7E7F38
:1051000000020406080A0C0E10121416181A1C1EAF
:1051100020222426282A2C2E30323436383A3C3E9F
:1051200040424446484A4C4E50525456585A5C5E8F
:1051300060626466686A6C6E70727476787A7C7E7F
:105140007F7D7B79777573716F6D6B69676563615F
:105150005F5D5B59575553514F4D4B49474543414F
:105160003F3D3B39373533312F2D2B29272523213F
:105170001F1D1B19171513110F0D0B09070503012F
:10518000FFFDFBF9F7F5F3F1EFEDEBE9E7E5E3E11F
:10519000DFDDDBD9D7D5D3D1CFCDCBC9C7C5C3C10F
:1051A000BFBDBBB9B7B5B3B1AFADABA9A7A5A3A1FF
:1051B0009F9D9B99979593918F8D8B8987858381EF
:1051C00080828486888A8C8E90929496989A9C9EEF
:1051D000A0A2A4A6A8AAACAEB0B2B4B6B8BABCBEDF
:1051E000C0C2C4C6C8CACCCED0D2D4D6D8DADCDECF
:1051F000E0E2E4E6E8EAECEEF0F2F4F6F8FAFCFEBF
:105200007F7F7F7F7F7F7F7F7F7F7F7F7F7F7F7FAE
:105210007F7F7F7F7F7F7F7F7F7F7F7F7F7F7F7F9E
:105220007F7F7F7F7F7F7F7F7F7F7F7F7F7F7F7F8E
:105230007F7F7F7F7F7F7F7F7F7F7F7F7F7F7F7F7E
:105500000309131E28313A40464C5054585B5E61E3
:10551000636567696B6C6E6F7071727374757677A3
:10552000777879797A7A7B7B7C7C7C7D7D7D7E7EC9
:105530007E7E7F7F7F7F7F7F7F7F7F7F7F7F7F7F7D
:105540007F7F7F7F7F7F7F7F7F7F7F7F7F7E7E7E6E
:105550007E7D7D7D7C7C7C7B7B7A7A7979787777A0
:10556000767574737271706F6E6C6B696765636169
:105570005E5B5854504C46403A31281E13090300D4
:10558000C6CCD5DBDFE3E5E7E9EAEBECEDEEEFEFE8
:10559000F0F0F0F1F1F1F1F2F2F2F2F2F2F2F2F3F4
:1055A000F3F3F3F3F3F3F3F3F3F3F3F3F3F3F3F3CB
:1055B000F3F3F3F3F3F3F3F3F3F3F3F3F3F3F3F3BB
:1055C000F3F3F3F3F3F3F3F3F3F3F3F3F3F3F3F3AB
:1055D000F3F3F3F3F3F3F3F3F3F3F3F3F3F3F3F39B
:1055E000F2F2F2F2F2F2F2F2F1F1F1F1F0F0F0EFA8
:1055F000EFEEEDECEBEAE9E7E5E3DFDBD5CCC60067
:1056000000283D42302D2C2B2C2D2E2F30323335BF
:1056100037393B3D3F414345484A4C4E505355571F
:10562000595B5D5F61636567696B6C6E7071737404
:10563000757778797A7B7C7D7D7E7E7F7F7F7F7FAB
:105640007F7F7F7F7F7F7E7E7D7D7C7B7A79787791
:1056500075747371706E6C6B69676563615F5D5BB8
:1056600059575553504E4C4A484543413F3D3B39AD
:1056700037353332302F2E2D2C2B2C2D30423D2818
:1056800000E9E5FED4D7D7D7D6D4D2D0CECCCAC87D
:10569000C6C3C1BFBDBAB8B6B4B1AFADABA9A7A5BB
:1056A000A3A19F9E9C9A999795949391908F8D8C8E
:1056B0008B8A89888887868585848484838383838D
:1056C0008383838383848484858586878888898A85
:1056D0008B8C8D8F909193949597999A9C9E9FA176
:1056E000A3A5A7A9ABADAFB1B4B6B8BABDBFC1C38E
:1056F000C6C8CACCCED0D2D4D6D7D7D7D4FEE5E947
:10570000F9F8F9F5EBE1DDDEE0E2E4E5E6E5E4E217
:10571000DED9D2CAC1B7ACA299918A868381808032
:105720008182838586888A8C8D8F909293959697B7
:1057300098999A9B9B9C9D9D9D9E9E9E9F9F9F9F9F
:105740009F9F9F9E9E9E9D9D9D9C9B9B9A99989797
:1057500096959392908F8D8C8A888685838281809E
:10576000808183868A9199A2ACB7C1CAD2D9DEE280
:10577000E4E5E6E5E4E2E0DEDDE1EBF5F9F8F90089
:105780000708070B151F2322201E1C1B1A1B1C1E9B
:1057900022272E363F49545E676F767A7E7F7F7F61
:1057A0007F7E7D7B7A7876747371706E6D6B6A69BB
:1057B00068676665656464636362626261616161B2
:1057C000616161626262636363646565666768699B
:1057D0006A6B6D6E7071737476787A7B7D7E7F7F75
:1057E0007F7F7E7A766F675E54493F362E27221E72
:1057F0001C1B1A1B1C1E2022231F150B0708070049
:105800001F313D444E5354565A5F64696E74767925
:105810007C7F7F7F7F7F7F7F7F7F7F7F7F7F7F7F9B
:105820007F7F7F7F7F7F7F7F7F7F7F7F7F7F7F7F88
:105830007F7F7F7F7F7F7F7F7F7F7F7F7F7F7F7F78
:105840007F7F7F7F7F7F7F7F7F7F7F7F7F7F7F7F68
:105850007F7F7F7F7F7F7F7F7F7F7F7F7F7F7F7F58
:105860007F7F7F7F7F7F7F7F7F7F7F7F7F7F7F7F48
:105870007F7F7F7F7F7F7F7F7F7F7F7C7871684C9A
:105880002C1C120C0A0B0A05FDF3E9DFD4CAC0B7C1
:10589000AEA69E97918B8685828080808080808056
:1058A00080808080808080808080808080808080F8
:1058B00080808080808080808080808080808080E8
:1058C00080808080808080808080808080808080D8
:1058D00080808080808080808080808080808080C8
:1058E00080808080808080808080808080808080B8
:1058F000808080808087919DACC4CBD4DDF2FAFAA1
:1059000022002400260028002B002D003000330048
:10591000360039003D004000440048004C00510072
:1059200056005B00600066006C0073007900810027
:10593000880090009900A200AC00B600C100CC0025
:10594000D800E500F30001011001210132014401FA
:1059500057016C0181019801B001CA01E501020201
:105960002102410264028802AE02D702030330031F
:1059700061039403CB03050442048304C7041005A8
:105980005D05AF0505066106C206290796070908E9
:10599000830805098E09200ABA0A5D0B0A0CC10C9E
:1059A000840D510E2B0F121007110A121D134014F3
:1059B0007415BA1614188319071BA31C571E24202C
:1059C0000E22142439267F28E82A752D2930063323
:1059D0000F364539AD3C49401B442848734CFE50B6
:1059E000CF55EA5A51600C661D6C8B725A799280C1
:1059F00037885090E598FDA19FABD3B5A3C00000B8
:105A000080912308089580912508089580918C0A3B
:105A100090918D0A08950F93FC0161834283238343
:105A20000483168215821086178211861286809151
:105A300027088F5F809327080F9108959093870A16
:105A40008093860A7093850A6093840A81E080932C
:105A500028080895AF92BF92CF92DF92EF92FF9203
:105A60000F931F93CF93DF93809122080E94FE250E
:105A7000EC01809123089091240843E09595879547
:105A80004A95E1F7B82E809125089091260833E0D9
:105A9000959587953A95E1F7E82EA09027084091D3
:105AA0008C0A50918D0A4C235D2370912908E09156
:105AB000840AF091850AFF2400E010E0CB2CDD245D
:105AC000A82FB0E098C03181B31608F472C02381CA
:105AD000832F90E0820F911DC816D9060CF069C083
:105AE0006281E61608F465C02481862F90E0820F5B
:105AF000911DA817B9070CF05CC0818541155105AF
:105B0000C9F0882309F04EC04781508541155105E1
:105B100019F0832F0E94FE2FE091840AF091850AEC
:105B2000E00FF11F81E08187E091860AF091870AFA
:105B300061E05AC08130B1F5828545815681882364
:105B4000A1F04115510519F0832F0E94FE2FE0911D
:105B5000840AF091850AE00FF11F11861286E09108
:105B6000860AF091870A63E03FC04115510519F09C
:105B7000832F0E94FE2FE091840AF091850AE00FA6
:105B8000F11F118681E08287E091860AF091870AF1
:105B900062E08F2D0995D0932B08C0932A081092AC
:105BA000290833C07F3019F58285882301F11286D8
:105BB00028C041155105D9F481858130C1F4458152
:105BC00056814115510521F06281832F0E94FE2FDD
:105BD000E091840AF091850AE00FF11F1186E091AF
:105BE000860AF091870A60E08F2D09950AC0F39428
:105BF0003B96055F1F4FFA1408F465CF7F5F7093E3
:105C00002908D0932B08C0932A08DF91CF911F91C8
:105C10000F91FF90EF90DF90CF90BF90AF900895DD
:105C20000F931F93DC01862F642FF90111968C933B
:105C3000119712964C93129716963C932E931597A4
:105C400018961C930E93179719961C921997949176
:105C500013969C93139731969491319714969C9335
:105C600014971A961C92AF010E94FE2F809127086C
:105C70008F5F809327081F910F91089588E090E02F
:105C80000E949A3080E00E94FE2597FF0DC081E0BF
:105C9000809321081092220880E092E090938D0A70
:105CA00080938C0A81E008951092210810922208B6
:105CB00080E091E090938D0A80938C0A81E00E94AD
:105CC000FE2597FD02C080E0089581E080932108C1
:105CD0008093220880E092E090938D0A80938C0A52
:105CE00080E108950F9380912008882309F4A7C0CC
:105CF00080912108882309F043C0809122080E94E6
:105D0000FE25282F86FF0FC080912308909124083C
:105D10000297909324088093230897FF04C0109261
:105D200024081092230827FF12C080912308909125
:105D3000240802969093240880932308883E9105B6
:105D400034F087EE90E0909324088093230824FF9A
:105D50000FC08091250890912608029790932608FD
:105D60008093250897FF04C01092260810922508FA
:105D700025FF59C08091250890912608029646C0BB
:105D8000809122080E940A269C014091230850918C
:105D900024088F77907027FF0EC0BA01681B790B1B
