:100000000C9443000C9439010C9439010C9439017F
:100010000C9439010C9439010C9439010C94390178
:100020000C9439010C9439010C9439010C94390168
:100030000C9439010C9442020C9472020C94390114
:100040000C9439010C9439010C9439010C94390148
:100050000C9439010C9439010C9439010C94390138
:100060000C9439010C9439010C9439010C94390128
:100070009B0CC00CCF0CE00C3B0D960DD20DF70D78
:100080001C0E460E6B0E11241FBECFEFD0E1DEBF5B
:10009000CDBFE4E5F0E0108288E10FB6F8948093DC
:1000A0006000109260000FBE11E0A0E0B1E0E2E35A
:1000B000FBE302C005900D92A630B107D9F71FE00F
:1000C000A6E0B1E001C01D92AA31B107E1F7F894B2
:1000D0001092AC0E1092AB0E12C08091AB0E9091AC
:1000E000AC0EFC01E459F34F80E880838091AB0EA5
:1000F0009091AC0E01969093AC0E8093AB0E8091D4
:10010000AB0E9091AC0E22E08C30920734F38CE66B
:100110009CE09093790E8093780E10927A0E109254
:10012000AC0E1092AB0E1AC08091AB0E9091AC0E3B
:10013000880F991F9C01220F331F220F331F820F3C
:10014000931FFC01E358F14F10828091AB0E909108
:10015000AC0E01969093AC0E8093AB0E8091AB0EDB
:100160009091AC0E84309105FCF281E080939D0E5D
:1001700081E080939E0E81E080939C0EE1E8F0E0A8
:100180001082E5E4F0E01082E7E2F0E08FEF808398
:10019000E4E2F0E08FEF8083EAE2F0E088E9808338
:1001A000ABE2B0E0EBE2F0E0808180618C93E1E2D1
:1001B000F0E08CE08083E2E2F0E08BEF808310924D
:1001C000480C86E08093490CE5E8F0E01082E4E812
:1001D000F0E01082E9E8F0E083E08083E8E8F0E016
:1001E0008DE88083E1E8F0E089E08083EFE6F0E0ED
:1001F00082E08083E4E4F0E082E48083E7E4F0E0FE
:100200001082E5E4F0E081E08083E0EBF0E083E859
:100210008083E3EBF0E01082E1EBF0E081E08083AB
:10022000E5E2F0E081E1808310925D0C10924C0CCD
:1002300010924D0C1092580C1092570C10925C0CAE
:1002400010925B0C10925E0C0E948A0A80E00E9461
:100250006B0A81709070882319F084E00E94680A0C
:100260000E94BB0178940E94BB010E94C11A0C94A9
:10027000971D0C940000EEEDC8950000EA95E1F79B
:10028000C895C895C6E0D1E000EEA02E6627409044
:10029000460C43944092460C552431D135E23A95B0
:1002A000F1F70E947C0137E13A95F1F743945394BA
:1002B000AA9489F0C8956395683029F0C895C895C7
:1002C000C8950000EACF662700243EE1C30FD01D89
:1002D000C8950000E2CF35E03A95F1F700C00FD1A4
:1002E00011E000914B0C012700934B0C10934A0C2A
:1002F000E2E0E09336000895DE0178E000248EE429
:1003000094E0860F901D4D91479FFC01E00DF11D7B
:1003100010812EE1442D5FEF242E17FD252E28B8E5
:100320000D91242E16FD252E28B8079F242E15FD8D
:10033000252E28B8080E191E242E14FD252E28B8A7
:10034000F001312F242E33FD252E28B81081242EC4
:1003500032FD252E28B800C0242E31FD252E28B8C8
:1003600000002A95242E30FD252E28B8A9F6C89520
:10037000002408B8089508958D029702A502C001CF
:1003800028980E941A04E7E1EA95F1F7289A1CD10F
:10039000E0E0F6E0FFD0E0FF32D0E0FF2FC02F9387
:1003A0003F934F935F936F937F938F939F93AF93FD
:1003B000BF9378941124E0914E0CF0914F0CE1150D
:1003C000F10509F009950E94BB010E94170B0E94DC
:1003D000900B0E9447031124E091500CF091510CB6
:1003E000E115F10509F00995BF91AF919F918F91AA
:1003F0007F916F915F914F913F912F910895EF936E
:10040000E091490CE93EE0F5E930D0F12F923F92BE
:100410004F925F926F927F928F929F92AF92BF9214
:10042000CF92DF92EF92FF920F931F932F933F9300
:100430004F935F936F937F938F939F93AF93BF93EC
:10044000CF93DF930E943B01DF91CF91BF91AF919A
:100450009F918F917F916F915F914F913F912F91DC
:100460001F910F91FF90EF90DF90CF90BF90AF90D2
:100470009F908F907F906F905F904F903F902F90C4
:10048000EF910895FF93EF93EFB7EF93E09184001E
:10049000EE50E13000F0E23000F0E33000F0E43004
:1004A00000F0E53000F0E63000F0E73000F0E83032
:1004B00000F0E93000F005D0EF91EFBFEF91FF9130
:1004C00018950F921F92E8E7F3E00090480C000C9B
:1004D0001124E00DF11D05901490F00109951F9075
:1004E0000F900895EF93EFB7EF93289AE0916F0084
:1004F000EB7FE0936F00EF91EFBFEF911895289895
:100500000E941A04E5E1EA95F1F7E091490CEA95B9
:10051000E093490C289A00C0089528980E9441044D
:10052000289A0000E1E0F6E035D047D008952898F9
:100530000E944104E0EB0000EA95E9F700000000AA
:10054000289AF6E0E2E026D0089528980E94410417
:10055000289A0000E3E0FDEF1DD0E091490CE53062
:1005600091F4E0914B0CE1300000F0915D0C19F436
:10057000F0915D0CF195E3E0E0938900EDE8EF0F79
:10058000E09388000895E3E0E0938900EDE8E093CC
:10059000880008950090490C0A9410905F0011FCA7
:1005A0000F2E0092490C0090480C11FC0E2E009268
:1005B000480CE0E011FCE1E00895E3E0E0938900FD
:1005C000EDE8E09388000895E7E0E0938900EBE12F
:1005D000E093880008950000000000000000000083
:1005E000000000000000000000000000000000000B
:1005F00000000000000000000000000000000000FB
:1006000099277727833008F00895E0E0F3E1660F3B
:10061000771FE60FF71FA591B491EDE7FEE02AE002
:10062000289FE00DF11DA183B283112408959091BC
:100630009C0E9170880F892B80939C0E08959927AA
:100640007727EDE7FEE02AE0289FE00DF11D6E3FE1
:1006500031F460919C0E6E7F60939C0E0BC06F3FD7
:1006600031F460919C0E6E6F60939C0E03C079E034
:10067000760F75831124089599277727EDE7FEE01B
:100680002AE0289FE00DF11D6083112408950E9447
:10069000900E00907A0E002019F4ACE6BCE002C087
:1006A000A2E7BDE021E0022600927A0E22E020932C
:1006B0007B0E2F923F924F925F926F927F928F921A
:1006C0009F92AF92BF92CF92DF92EF92FF920F93E1
:1006D0001F93CF93DF9350919B0E60919D0E70916D
:1006E0009E0E80919F0E20907E0E30907F0E409047
:1006F000810E5090820E6090800E10917D0E709051
:10070000880E8090890E90908A0EA0908B0EB090EB
:100710008C0E2091870EC090920ED090930EE09098
:10072000950EF090960E0091940E3091910E9FEFE1
:10073000620C431CF2014491410300240008C12DC6
:10074000D02D970CA81CF501449142030024000809
:10075000C10DD01D0C0DED1CF70144914303002485
:100760000008C10DD01D8A956AF440919C0E842F1B
:100770008695062E0694062600FA7695679576F9F4
:1007800040FF66F940E860FD4FE74503002400089C
:10079000C10DD01D0024C038D0050CF0CFE70A945D
:1007A000C038D0050CF4C0E8C058CD939A9509F034
:1007B000BFCF40917B0E4A9540937B0E97E009F0A6
:1007C000B7CF6092800E4092810E90928A0EA092D6
:1007D0008B0E0093940EE092950E60939D0E709395
:1007E0009E0E80939F0EDF91CF911F910F91FF90EE
:1007F000EF90DF90CF90BF90AF909F908F907F90C1
:100800006F905F904F903F902F900895E091780EF9
:10081000F091790E019100000093B3000EE0E837EB
:10082000F0070CE61CE008F0F801E093780EF09376
:10083000790E08950C941C040C941E040F931F93BE
:100840002F93E091780EF091790E01910093B3000F
:100850000EE0E837F00710F40000000010F0ECE6BE
:10086000FCE0E093780EF093790EC895C895C89592
:10087000C895C895C895000000002F911F910F9151
:1008800008950000E091490CE0FFD8CFE1E1EA953E
:10089000F1F70000000008950000000000000000D3
:1008A0000000000000000000000000000000000048
:1008B0000000000000000000000000000000000038
:1008C0000000000000000000000000000000000028
:1008D0000000000000000000000000000000000018
:1008E0000000000000000000000000000000000008
:1008F00000000000000000000000000000000000F8
:10090000000306090C101316191C1F2225282B2E74
:10091000313336393C3F414447494C4E5153555889
:100920005A5C5E60626466686A6B6D6F7071737446
:10093000757678797A7A7B7C7D7D7E7E7E7F7F7FFF
:100940007F7F7F7F7E7E7E7D7D7C7B7A7A797876E5
:1009500075747371706F6D6B6A68666462605E5CFB
:100960005A585553514E4C494744413F3C39363310
:10097000312E2B2825221F1C191613100C090603D3
:1009800000FDFAF7F4F0EDEAE7E4E1DEDBD8D5D2DA
:10099000CFCDCAC7C4C1BFBCB9B7B4B2AFADABA8A5
:1009A000A6A4A2A09E9C9A9896959391908F8D8CC8
:1009B0008B8A8887868685848383828282818181EF
:1009C0008181818182828283838485868687888AE9
:1009D0008B8C8D8F9091939596989A9C9EA0A2A4B3
:1009E000A6A8ABADAFB2B4B7B9BCBFC1C4C7CACD7E
:1009F000CFD2D5D8DBDEE1E4E7EAEDF0F4F7FAFD9B
:100A0000808182838485868788898A8B8C8D8E8F6E
:100A1000909192939495969798999A9B9C9D9E9F5E
:100A2000A0A1A2A3A4A5A6A7A8A9AAABACADAEAF4E
:100A3000B0B1B2B3B4B5B6B7B8B9BABBBCBDBEBF3E
:100A4000C0C1C2C3C4C5C6C7C8C9CACBCCCDCECF2E
:100A5000D0D1D2D3D4D5D6D7D8D9DADBDCDDDEDF1E
:100A6000E0E1E2E3E4E5E6E7E8E9EAEBECEDEEEF0E
:100A7000F0F1F2F3F4F5F6F7F8F9FAFBFCFDFEFFFE
:100A8000000102030405060708090A0B0C0D0E0FEE
:100A9000101112131415161718191A1B1C1D1E1FDE
:100AA000202122232425262728292A2B2C2D2E2FCE
:100AB000303132333435363738393A3B3C3D3E3FBE
:100AC000404142434445464748494A4B4C4D4E4FAE
:100AD000505152535455565758595A5B5C5D5E5F9E
:100AE000606162636465666768696A6B6C6D6E6F8E
:100AF000707172737475767778797A7B7C7D7E7F7E
:100B000000020406080A0C0E10121416181A1C1EF5
:100B100020222426282A2C2E30323436383A3C3EE5
:100B200040424446484A4C4E50525456585A5C5ED5
:100B300060626466686A6C6E70727476787A7C7EC5
:100B40007F7D7B79777573716F6D6B6967656361A5
:100B50005F5D5B59575553514F4D4B494745434195
:100B60003F3D3B39373533312F2D2B292725232185
:100B70001F1D1B19171513110F0D0B090705030175
:100B8000FFFDFBF9F7F5F3F1EFEDEBE9E7E5E3E165
:100B9000DFDDDBD9D7D5D3D1CFCDCBC9C7C5C3C155
:100BA000BFBDBBB9B7B5B3B1AFADABA9A7A5A3A145
:100BB0009F9D9B99979593918F8D8B898785838135
:100BC00080828486888A8C8E90929496989A9C9E35
:100BD000A0A2A4A6A8AAACAEB0B2B4B6B8BABCBE25
:100BE000C0C2C4C6C8CACCCED0D2D4D6D8DADCDE15
:100BF000E0E2E4E6E8EAECEEF0F2F4F6F8FAFCFE05
:100C00007F7F7F7F7F7F7F7F7F7F7F7F7F7F7F7FF4
:100C10007F7F7F7F7F7F7F7F7F7F7F7F7F7F7F7FE4
:100C20007F7F7F7F7F7F7F7F7F7F7F7F7F7F7F7FD4
:100C30007F7F7F7F7F7F7F7F7F7F7F7F7F7F7F7FC4
:100F00000309131E28313A40464C5054585B5E6129
:100F1000636567696B6C6E6F7071727374757677E9
:100F2000777879797A7A7B7B7C7C7C7D7D7D7E7E0F
:100F30007E7E7F7F7F7F7F7F7F7F7F7F7F7F7F7FC3
:100F40007F7F7F7F7F7F7F7F7F7F7F7F7F7E7E7EB4
:100F50007E7D7D7D7C7C7C7B7B7A7A7979787777E6
:100F6000767574737271706F6E6C6B6967656361AF
:100F70005E5B5854504C46403A31281E130903001A
:100F8000C6CCD5DBDFE3E5E7E9EAEBECEDEEEFEF2E
:100F9000F0F0F0F1F1F1F1F2F2F2F2F2F2F2F2F33A
:100FA000F3F3F3F3F3F3F3F3F3F3F3F3F3F3F3F311
:100FB000F3F3F3F3F3F3F3F3F3F3F3F3F3F3F3F301
:100FC000F3F3F3F3F3F3F3F3F3F3F3F3F3F3F3F3F1
:100FD000F3F3F3F3F3F3F3F3F3F3F3F3F3F3F3F3E1
:100FE000F2F2F2F2F2F2F2F2F1F1F1F1F0F0F0EFEE
:100FF000EFEEEDECEBEAE9E7E5E3DFDBD5CCC600AD
:1010000000283D42302D2C2B2C2D2E2F3032333505
:1010100037393B3D3F414345484A4C4E5053555765
:10102000595B5D5F61636567696B6C6E707173744A
:10103000757778797A7B7C7D7D7E7E7F7F7F7F7FF1
:101040007F7F7F7F7F7F7E7E7D7D7C7B7A797877D7
:1010500075747371706E6C6B69676563615F5D5BFE
:1010600059575553504E4C4A484543413F3D3B39F3
:1010700037353332302F2E2D2C2B2C2D30423D285E
:1010800000E9E5FED4D7D7D7D6D4D2D0CECCCAC8C3
:10109000C6C3C1BFBDBAB8B6B4B1AFADABA9A7A501
:1010A000A3A19F9E9C9A999795949391908F8D8CD4
:1010B0008B8A8988888786858584848483838383D3
:1010C0008383838383848484858586878888898ACB
:1010D0008B8C8D8F909193949597999A9C9E9FA1BC
:1010E000A3A5A7A9ABADAFB1B4B6B8BABDBFC1C3D4
:1010F000C6C8CACCCED0D2D4D6D7D7D7D4FEE5E98D
:10110000F9F8F9F5EBE1DDDEE0E2E4E5E6E5E4E25D
:10111000DED9D2CAC1B7ACA299918A868381808078
:101120008182838586888A8C8D8F909293959697FD
:1011300098999A9B9B9C9D9D9D9E9E9E9F9F9F9FE5
:101140009F9F9F9E9E9E9D9D9D9C9B9B9A999897DD
:1011500096959392908F8D8C8A88868583828180E4
:10116000808183868A9199A2ACB7C1CAD2D9DEE2C6
:10117000E4E5E6E5E4E2E0DEDDE1EBF5F9F8F900CF
:101180000708070B151F2322201E1C1B1A1B1C1EE1
:1011900022272E363F49545E676F767A7E7F7F7FA7
:1011A0007F7E7D7B7A7876747371706E6D6B6A6901
:1011B00068676665656464636362626261616161F8
:1011C00061616162626263636364656566676869E1
:1011D0006A6B6D6E7071737476787A7B7D7E7F7FBB
:1011E0007F7F7E7A766F675E54493F362E27221EB8
:1011F0001C1B1A1B1C1E2022231F150B070807008F
:101200001F313D444E5354565A5F64696E7476796B
:101210007C7F7F7F7F7F7F7F7F7F7F7F7F7F7F7FE1
:101220007F7F7F7F7F7F7F7F7F7F7F7F7F7F7F7FCE
:101230007F7F7F7F7F7F7F7F7F7F7F7F7F7F7F7FBE
:101240007F7F7F7F7F7F7F7F7F7F7F7F7F7F7F7FAE
:101250007F7F7F7F7F7F7F7F7F7F7F7F7F7F7F7F9E
:101260007F7F7F7F7F7F7F7F7F7F7F7F7F7F7F7F8E
:101270007F7F7F7F7F7F7F7F7F7F7F7C7871684CE0
:101280002C1C120C0A0B0A05FDF3E9DFD4CAC0B707
:10129000AEA69E97918B868582808080808080809C
:1012A000808080808080808080808080808080803E
:1012B000808080808080808080808080808080802E
:1012C000808080808080808080808080808080801E
:1012D000808080808080808080808080808080800E
:1012E00080808080808080808080808080808080FE
:1012F000808080808087919DACC4CBD4DDF2FAFAE7
:1013000022002400260028002B002D00300033008E
:10131000360039003D004000440048004C005100B8
:1013200056005B00600066006C007300790081006D
:10133000880090009900A200AC00B600C100CC006B
:10134000D800E500F3000101100121013201440140
:1013500057016C0181019801B001CA01E501020247
:101360002102410264028802AE02D7020303300365
:1013700061039403CB03050442048304C7041005EE
:101380005D05AF0505066106C2062907960709082F
:10139000830805098E09200ABA0A5D0B0A0CC10CE4
:1013A000840D510E2B0F121007110A121D13401439
:1013B0007415BA1614188319071BA31C571E242072
:1013C0000E22142439267F28E82A752D2930063369
:1013D0000F364539AD3C49401B442848734CFE50FC
:1013E000CF55EA5A51600C661D6C8B725A79928007
:1013F00037885090E598FDA19FABD3B5A3C00000FE
:10140000A0E0B0E0E6E0FAE00C94681DEC01A880F2
:10141000B980CA80DB80A114B104C104D10441F4B5
:1014200084E2A82E89EDB82E8BE5C82E87E0D82E51
:10143000C601B5012DE133EF41E050E00E94451DAA
:1014400027EA31E440E050E00E94261D7B018C0138
:10145000C601B5012DE133EF41E050E00E94451D8A
:10146000CA01B9012CEE34EF4FEF5FEF0E94261D49
:101470006E0D7F1D801F911F97FF04C0615070404B
:1014800080409048688379838A839B839B013F7760
:10149000C901CDB7DEB7EAE00C94841D0E94000AB2
:1014A000089581E091E00E94000A0895A0E0B0E074
:1014B0008093010190930201A0930301B093040172
:1014C000089580914A0C0895112410924A0C0895B1
:1014D00080935D0C0895882329F48091550C909198
:1014E000560C08958091590C90915A0C08958823B8
:1014F00029F48091570C9091580C089580915B0CC1
:1015000090915C0C089578E07A95F1F700000197CE
:10151000D1F70895DF93CF9300D000D00F92CDB7CD
:10152000DEB71D821C821B821A82A2E2B0E0E2E2D8
:10153000F0E0808184608C9380915E0C882329F098
:1015400081E090E00E94830A02C0C895C895A2E29B
:10155000B0E0E2E2F0E080818B7F8C9319824FC093
:101560008C819D81969587959D838C838A819B81B3
:10157000969587959B838A83A2E2B0E0E2E2F0E051
:101580008081877F8C9380915E0C882329F085E091
:1015900090E00E94830A02C0C895C895E0E2F0E09E
:1015A0008081882F90E081709070009729F48C8161
:1015B0009D8190689D838C83E0E2F0E08081882F9C
:1015C00090E082709070009729F48A819B819068E6
:1015D0009B838A83A2E2B0E0E2E2F0E0808188604F
:1015E0008C9380915E0C882329F085E090E00E9426
:1015F000830A02C0C895C89589818F5F89838981D4
:10160000803108F4ADCF8C819D819093560C8093EE
:10161000550C8A819B8190935A0C8093590C0F90A2
:101620000F900F900F900F90CF91DF910895DF935F
:10163000CF9300D000D00F92CDB7DEB71D821C82B1
:101640001B821A820E948A0A8091550C9091560C36
:1016500099233CF08091590C90915A0C99230CF0ED
:1016600057C081E090E00E94830A198241C08C81BA
:101670009D81880F991F9D838C838A819B81880F10
:10168000991F9B838A83A2E2B0E0E2E2F0E08081CE
:10169000877F8C93C895C895C895C895E0E2F0E01F
:1016A0008081882F90E081709070009729F48C8160
:1016B0009D8181609D838C83E0E2F0E08081882FB2
:1016C00090E082709070009729F48A819B818160FC
:1016D0009B838A83A2E2B0E0E2E2F0E0808188604E
:1016E0008C9388E090E00E94830A89818F5F8983D0
:1016F0008981803108F4BBCF8C819D819093580CF7
:101700008093570C8A819B8190935C0C80935B0C37
:101710000F900F900F900F900F90CF91DF91089541
:10172000DF93CF9300D0CDB7DEB780915E0C8823D6
:1017300009F4FCC080915F0C882309F073C080918C
:10174000600C0E946B0A9A83898389819A818074D4
:101750009070009799F08091610C9091620C0297C3
:101760009093620C8093610C8091610C9091620C5B
:10177000992324F41092620C1092610C89819A8151
:10178000807890700097B1F08091610C9091620C1C
:1017900002969093620C8093610C8091610C909101
:1017A000620C883E910534F087EE90E09093620CD5
:1017B0008093610C89819A8180719070009799F073
:1017C0008091630C9091640C02979093640C8093C9
:1017D000630C8091630C9091640C992324F4109213
:1017E000640C1092630C89819A81807290700097CA
:1017F00009F49CC08091630C9091640C02969093C4
:10180000640C8093630C8091630C9091640C883D10
:1018100091050CF48BC087ED90E09093640C80935D
:10182000630C84C08091600C0E94770A9A8389833C
:1018300089819A81807890700097E1F08091610CA5
:101840009091620C9C0189819A818F779070A90197
:10185000481B590BCA019093620C8093610C8091D4
:10186000610C9091620C99230CF51092620C10920D
:10187000610C1CC089819A819C012F773070809106
:10188000610C9091620C820F931F9093620C809375
:10189000610C8091610C9091620C883E910534F04E
:1018A00087EE90E09093620C8093610C89819A811D
:1018B0009923F4F48091630C9091640C9C018981CC
:1018C0009A81892F99278F779070A901481B590B0E
:1018D000CA019093640C8093630C8091630C909187
:1018E000640C99231CF51092640C1092630C1EC0BA
:1018F00089819A81892F99279C012F773070809157
:10190000630C9091640C820F931F9093640C8093EE
:10191000630C8091630C9091640C883D910534F0C8
:1019200087ED90E09093640C8093630C0F900F9080
:10193000CF91DF910895DF93CF9300D0CDB7DEB77D
:1019400089836A838981482F50E0CA019C01220F54
:10195000331F240F351FC901880F991F880F991F46
:10196000880F991F821B930B840F951FFC01E45471
:10197000F14F8A8180830F900F90CF91DF9108956E
:10198000DF93CF9300D0CDB7DEB789836A838A8196
:1019900080939C0E0F900F90CF91DF910895DF936D
:1019A000CF9300D0CDB7DEB789836A839A818981CE
:1019B000692F0E941F030F900F90CF91DF91089520
:1019C000DF93CF9300D0CDB7DEB789836A83898157
:1019D000682F70E08981482F50E0CA019C01220FD6
:1019E000331F240F351FC901880F991F880F991FB6
:1019F000880F991F821B930B840F951FFC01EC54D9
:101A0000F14F90818A81492F480FCB019C01220F11
:101A1000331F260F371FC901880F991F880F991F81
:101A2000880F991F821B930B860F971FFC01EC54A4
:101A3000F14F40838981482F50E0CA019C01220F59
:101A4000331F240F351FC901880F991F880F991F55
:101A5000880F991F821B930B840F951FFC01EC5478
:101A6000F14F90818981692F0E9400030F900F90A0
:101A7000CF91DF910895DF93CF9300D0CDB7DEB73C
:101A800089836A838981682F70E08981482F50E0BB
:101A9000CA019C01220F331F240F351FC901880F73
:101AA000991F880F991F880F991F821B930B840F12
:101AB000951FFC01EC54F14F90818A81492F481BFE
:101AC000CB019C01220F331F260F371FC901880F3E
:101AD000991F880F991F880F991F821B930B860FE0
:101AE000971FFC01EC54F14F40838981482F50E04F
:101AF000CA019C01220F331F240F351FC901880F13
:101B0000991F880F991F880F991F821B930B840FB1
:101B1000951FFC01EC54F14F90818981692F0E943F
:101B200000030F900F90CF91DF910895DF93CF9333
:101B300000D0CDB7DEB789836A838981482F50E012
:101B4000CA019C01220F331F240F351FC901880FC2
:101B5000991F880F991F880F991F821B930B840F61
:101B6000951FFC01E354F14F10828981482F50E00A
:101B7000CA019C01220F331F240F351FC901880F92
:101B8000991F880F991F880F991F821B930B840F31
:101B9000951FFC01ED54F14F10820F900F90CF91E3
:101BA000DF910895DF93CF9300D0CDB7DEB789835F
:101BB0006A838981482F50E0CA019C01220F331F9C
:101BC000240F351FC901880F991F880F991F880F8F
:101BD000991F821B930B840F951FFC01EB53F14F50
:101BE00081E080830F900F90CF91DF910895DF9374
:101BF000CF9300D0CDB7DEB789836A838981482F20
:101C000050E06A81CA019C01220F331F240F351F47
:101C1000C901880F991F880F991F880F991F821B70
:101C2000930B840F951FFC01E554F14F60830F90D7
:101C30000F90CF91DF910895DF93CF9300D0CDB770
:101C4000DEB789836A839A818981692F0E940003A4
:101C50008981482F50E06A81CA019C01220F331FFD
:101C6000240F351FC901880F991F880F991F880FEE
:101C7000991F821B930B840F951FFC01EC54F14FAD
:101C800060830F900F90CF91DF910895DF93CF93F2
:101C900000D0CDB7DEB789836A838981482F50E0B1
:101CA0006A81CA019C01220F331F240F351FC9010D
:101CB000880F991F880F991F880F991F821B930BFC
:101CC000840F951FFC01EA54F14F60830F900F9031
:101CD000CF91DF910895DF93CF9300D0CDB7DEB7DA
:101CE00089836A838981482F50E06A81CA019C01F7
:101CF000220F331F240F351FC901880F991F880F2A
:101D0000991F880F991F821B930B840F951FFC014D
:101D1000E954F14F60830F900F90CF91DF910895B8
:101D20001F93DF93CF93CDB7DEB7C154D0400FB62A
:101D3000F894DEBF0FBECDBF1BAA66C08BA9482F8B
:101D400050E0CA019C01220F331F240F351FC90127
:101D5000880F991F880F991F880F991F821B930B5B
:101D6000840F951FFC01E554F14F8081682F70E0CE
:101D70008BA9482F50E0CA019C01220F331F240F6A
:101D8000351FC901880F991F880F991F880F991F48
:101D9000821B930B840F951FFC01E454F14F80814B
:101DA000992787FD9095860F971F99AF88AF88ADCB
:101DB00099AD99231CF419AE18AE0AC088AD99AD3F
:101DC0008F3F910529F024F08FEF90E099AF88AF15
:101DD0008BA9482F50E068ADCA019C01220F331F28
:101DE000240F351FC901880F991F880F991F880F6D
:101DF000991F821B930B840F951FFC01E554F14F33
:101E000060838BA98F5F8BAB8BA9843008F496CF4E
:101E100080916B0C882309F4F9C2DAC28091150F06
:101E20009091160F9AAB89AB01969093160F809301
:101E3000150FE9A9FAA9849188AB88A98DAF8DAD5A
:101E40008F3F09F056C08091150F9091160F9FA7F4
:101E50008EA701969093160F8093150FEEA5FFA500
:101E600084918DA78DA58DAF8DAD8F3219F4109211
:101E70006B0CBAC28DAD863009F09EC28091150FF1
:101E80009091160F9CA78BA701969093160F8093A5
:101E9000150FEBA5FCA584918AA78AA58DAF80912B
:101EA000150F9091160F99A788A701969093160F7A
:101EB0008093150FE8A5F9A584918FA38FA18CAF0E
:101EC0008CAD833549F48091150F9091160F909346
:101ED000190F8093180F70C28CAD853409F06CC255
:101EE0008091180F9091190F9093160F8093150FF2
:101EF00063C28DAD88231CF48DAD80930E0F8DAD24
:101F00008F708BAF8DAD882F90E09C01207F30705B
:101F100022963FAF2EAF229722964EAD5FAD22970D
:101F2000403B510509F46DC022968EAD9FAD2297BE
:101F3000803C910509F404C122962EAD3FAD229755
:101F40002039310509F027C18091150F9091160FA6
:101F50009EA38DA301969093160F8093150FEDA16C
:101F6000FEA184918CA38CA18DAF8091150F9091CF
:101F7000160F9BA38AA301969093160F8093150FBB
:101F8000EAA1FBA1849189A389A1880F8CAF8BADB5
:101F9000482F50E0CA019C01220F331F240F351F28
:101FA000C901880F991F880F991F880F991F821BDD
:101FB000930B840F951FFC01EE54F14F8081882311
:101FC00009F4FAC18BAD482F50E0CA019C01220FE1
:101FD000331F240F351FC901880F991F880F991FC0
:101FE000880F991F821B930B840F951FFC01E254ED
:101FF000F14F90818BAD692F4DAD2CAD0E94E5174F
:10200000DBC18091150F9091160F98A38F8F0196C9
:102010009093160F8093150FEF8DF8A184918E8FFA
:102020008E8D8DAF8091150F9091160F9D8F8C8F97
:1020300001969093160F8093150FEC8DFD8D849172
:102040008B8F8B8D8CAF8DAD8730E1F48BAD482FAE
:1020500050E08CAD682F660FCA019C01220F331F20
:10206000240F351FC901880F991F880F991F880FEA
:10207000991F821B930B840F951FFC01E754F14FAE
:1020800060839AC18DAD8B30E1F48BAD482F50E069
:102090008CAD682F660FCA019C01220F331F240FDD
:1020A000351FC901880F991F880F991F880F991F25
:1020B000821B930B840F951FFC01E854F14F608342
:1020C0007BC18DAD8C35E1F48BAD482F50E08CADEC
:1020D000682F660FCA019C01220F331F240F351F82
:1020E000C901880F991F880F991F880F991F821B9C
:1020F000930B840F951FFC01EA54F14F60835CC180
:102100008DAD843609F058C18BAD482F50E08CADB1
:10211000682F660FCA019C01220F331F240F351F41
:10212000C901880F991F880F991F880F991F821B5B
:10213000930B840F951FFC01E954F14F60833CC160
:102140008091150F9091160F9A8F898F0196909319
:10215000160F8093150FE98DFA8D8491888F888DE5
:102160008DAF8BAD482F50E0CA019C01220F331F69
:10217000240F351FC901880F991F880F991F880FD9
:10218000991F821B930B840F951FFC01E254F14FA2
:102190008DAD808311C180910E0F8F708BAF8091B8
:1021A0000E0F882F90E0AC01407F50705FAF4EAFB4
:1021B0008EAD9FAD803B910509F458C02EAD3FAD6B
:1021C000203C310509F4DFC04EAD5FAD403951050B
:1021D00009F0F2C08091150F9091160F9F8B8E8B96
:1021E00001969093160F8093150FEE89FF898491C5
:1021F0008D8B8D89880F8CAF8BAD482F50E0CA0135
:102200009C01220F331F240F351FC901880F991F0E
:10221000880F991F880F991F821B930B840F951F9E
:10222000FC01EE54F14F8081882309F4C5C08BADC9
:10223000482F50E0CA019C01220F331F240F351F85
:10224000C901880F991F880F991F880F991F821B3A
:10225000930B840F951FFC01E254F14F90818BADDD
:10226000692F4DAD2CAD0E94E517A6C08091150FCA
:102270009091160F9C8B8B8B01969093160F8093E9
:10228000150FEB89FC8984918A8B8A898CAF8DAD7F
:102290008730E1F48BAD482F50E08CAD682F660F8E
:1022A000CA019C01220F331F240F351FC901880F5B
:1022B000991F880F991F880F991F821B930B840FFA
:1022C000951FFC01E754F14F608376C08DAD8B30D4
:1022D000E1F48BAD482F50E08CAD682F660FCA013A
:1022E0009C01220F331F240F351FC901880F991F2E
:1022F000880F991F880F991F821B930B840F951FBE
:10230000FC01E854F14F608357C08DAD8C35E1F48A
:102310008BAD482F50E08CAD682F660FCA019C0131
:10232000220F331F240F351FC901880F991F880FF3
:10233000991F880F991F821B930B840F951FFC0117
:10234000EA54F14F608338C08DAD8436A9F58BAD6A
:10235000482F50E08CAD682F660FCA019C01220FF8
:10236000331F240F351FC901880F991F880F991F2C
:10237000880F991F821B930B840F951FFC01E95452
:10238000F14F608319C08BAD482F50E0CA019C010A
:10239000220F331F240F351FC901880F991F880F83
:1023A000991F880F991F821B930B840F951FFC01A7
:1023B000E254F14F8DAD808385E19FE00E94891743
:1023C0009093140F8093130F10920B0F10920A0F1B
:1023D00020910A0F30910B0F8091130F9091140FE1
:1023E0002817390709F41ACD80910A0F90910B0F25
:1023F000019690930B0F80930A0F8091100F90918C
:10240000110F01969093110F8093100F198A72C5C6
:102410008989482F50E0CA019C01220F331F240FE5
:10242000351FC901880F991F880F991F880F991FA1
:10243000821B930B840F951FFC01EB53F14F90818E
:1024400081E08927882309F4F2C28989482F50E066
:10245000CA019C01220F331F240F351FC901880FA9
:10246000991F880F991F880F991F821B930B840F48
:10247000951FFC01EA53F14F80819181009709F487
:10248000A7C28989482F50E0CA019C01220F331F3F
:10249000240F351FC901880F991F880F991F880FB6
:1024A000991F821B930B840F951FFC01EE53F14F74
:1024B00060818989482F50E0CA019C01220F331F97
:1024C000240F351FC901880F991F880F991F880F86
:1024D000991F821B930B840F951FFC01EF53F14F43
:1024E0008081681708F474C240C28989482F50E07F
:1024F000CA019C01220F331F240F351FC901880F09
:10250000991F880F991F880F991F821B930B840FA7
:10251000951FFC01E254F14F80818F3709F0FBC019
:102520008989482F50E0CA019C01220F331F240FD4
:10253000351FC901880F991F880F991F880F991F90
:10254000821B930B840F951FFC01EA53F14F0190FE
:10255000F081E02D80818DAFBF016F5F7F4FCA0199
:102560009C01220F331F240F351FC901880F991FAB
:10257000880F991F880F991F821B930B840F951F3B
:10258000FC01EA53F14F718360838DAD8F3F91F56C
:102590008989482F50E0CA019C01220F331F240F64
:1025A000351FC901880F991F880F991F880F991F20
:1025B000821B930B840F951FFC01ED54F14F108289
:1025C0008989482F50E0CA019C01220F331F240F34
:1025D000351FC901880F991F880F991F880F991FF0
:1025E000821B930B840F951FFC01EA53F14F11825C
:1025F0001082EEC18989482F50E0CA019C01220F48
:10260000331F240F351FC901880F991F880F991F89
:10261000880F991F821B930B840F951FFC01EA53AF
:10262000F14F0190F081E02D80818CAFBF016F5F91
:102630007F4FCA019C01220F331F240F351FC90190
:10264000880F991F880F991F880F991F821B930B62
:10265000840F951FFC01EA53F14F718360838DADA8
:10266000882F90E0880F991FFC01E059FF4F0190DF
:10267000F081E02D9CAD8989692F09958989682FA2
:1026800070E08989482F50E0CA019C01220F331F56
:10269000240F351FC901880F991F880F991F880FB4
:1026A000991F821B930B840F951FFC01EA53F14F76
:1026B000A081B1818C91182FCB019C01220F331F77
:1026C000260F371FC901880F991F880F991F880F80
:1026D000991F821B930B860F971FFC01EF53F14F3D
:1026E0001083BD016F5F7F4FCA019C01220F331F12
:1026F000240F351FC901880F991F880F991F880F54
:10270000991F821B930B840F951FFC01EA53F14F15
:102710007183608312C18989482F50E0CA019C01EE
:10272000220F331F240F351FC901880F991F880FEF
:10273000991F880F991F821B930B840F951FFC0113
:10274000EA53F14F80819181988B8F87BC016F5F35
:102750007F4FCA019C01220F331F240F351FC9016F
:10276000880F991F880F991F880F991F821B930B41
:10277000840F951FFC01EA53F14F71836083EF854D
:10278000F88984918E878E858DAF8DAD8F3F91F5C1
:102790008989482F50E0CA019C01220F331F240F62
:1027A000351FC901880F991F880F991F880F991F1E
:1027B000821B930B840F951FFC01ED54F14F108287
:1027C0008989482F50E0CA019C01220F331F240F32
:1027D000351FC901880F991F880F991F880F991FEE
:1027E000821B930B840F951FFC01EA53F14F11825A
:1027F0001082EEC08989482F50E0CA019C01220F47
:10280000331F240F351FC901880F991F880F991F87
:10281000880F991F821B930B840F951FFC01EA53AD
:10282000F14F808191819D878C87BC016F5F7F4FC5
:10283000CA019C01220F331F240F351FC901880FC5
:10284000991F880F991F880F991F821B930B840F64
:10285000951FFC01EA53F14F71836083EC85FD8580
:1028600084918B878B858CAF8DAD882F90E0880FFE
:10287000991F80599F4F9A87898789859A85FC017E
:102880008591949198878F83FA87E9878F819885BE
:10289000FC019CAD8989692F09958989682F70E0B1
:1028A0008989482F50E0CA019C01220F331F240F51
:1028B000351FC901880F991F880F991F880F991F0D
:1028C000821B930B840F951FFC01EA53F14F80810B
:1028D00091819E838D83DC011196CA019C01220F98
:1028E000331F240F351FC901880F991F880F991FA7
:1028F000880F991F821B930B840F951FFC01EA53CD
:10290000F14FB183A083ED81FE8184918C834C8152
:10291000CB019C01220F331F260F371FC901880FDF
:10292000991F880F991F880F991F821B930B860F81
:10293000971FFC01EF53F14F40838989482F50E0E6
:10294000CA019C01220F331F240F351FC901880FB4
:10295000991F880F991F880F991F821B930B840F53
:10296000951FFC01EE53F14F10828989482F50E0EA
:10297000CA019C01220F331F240F351FC901880F84
:10298000991F880F991F880F991F821B930B840F23
:10299000951FFC01EE53F14F60818989482F50E06B
:1029A000CA019C01220F331F240F351FC901880F54
:1029B000991F880F991F880F991F821B930B840FF3
:1029C000951FFC01EF53F14F8081681709F48DCDFD
:1029D0008989482F50E0CA019C01220F331F240F20
:1029E000351FC901880F991F880F991F880F991FDC
:1029F000821B930B840F951FFC01EE53F14F8081D6
:102A0000682F6F5FCA019C01220F331F240F351FEF
:102A1000C901880F991F880F991F880F991F821B62
:102A2000930B840F951FFC01EE53F14F608389894E
:102A3000482F50E0CA019C01220F331F240F351F7D
:102A4000C901880F991F880F991F880F991F821B32
:102A5000930B840F951FFC01E354F14F8081882371
:102A600009F432C28989482F50E0CA019C01220F23
:102A7000331F240F351FC901880F991F880F991F15
:102A8000880F991F821B930B840F951FFC01ED5338
:102A9000F14F80818F3F79F18989482F50E0CA0139
:102AA0009C01220F331F240F351FC901880F991F66
:102AB000880F991F880F991F821B930B840F951FF6
:102AC000FC01ED53F14F8081682F6F5FCA019C01BB
:102AD000220F331F240F351FC901880F991F880F3C
:102AE000991F880F991F821B930B840F951FFC0160
:102AF000ED53F14F60838989482F50E0CA019C0152
:102B0000220F331F240F351FC901880F991F880F0B
:102B1000991F880F991F821B930B840F951FFC012F
:102B2000E654F14F8081882309F481C18989482FB7
:102B300050E0CA019C01220F331F240F351FC90129
:102B4000880F991F880F991F880F991F821B930B5D
:102B5000840F951FFC01E554F14F8081882309F40F
:102B600066C18989482F50E0CA019C01220F331F9A
:102B7000240F351FC901880F991F880F991F880FCF
:102B8000991F821B930B840F951FFC01E754F14F93
:102B90008081882309F44BC18091120F882309F4A6
:102BA00046C18989482F50E0CA019C01220F331F7A
:102BB000240F351FC901880F991F880F991F880F8F
:102BC000991F821B930B840F951FFC01E654F14F54
:102BD0008081682F70E08989482F50E0CA019C01EC
:102BE000220F331F240F351FC901880F991F880F2B
:102BF000991F880F991F821B930B840F951FFC014F
:102C0000E754F14F8081882F90E09C01629FC001C2
:102C1000639F900D729F900D112480509F4F9FAB2A
:102C20008EAB8EA99FA9892F99279FAB8EAB8989DF
:102C3000482F50E0CA019C01220F331F240F351F7B
:102C4000C901880F991F880F991F880F991F821B30
:102C5000930B840F951FFC01E554F14F8081282FC1
:102C600030E08EA99FA9AC01249FC001259F900D43
:102C7000349F900D112480509F4F9FAB8EAB8EA937
:102C80009FA9892F99279FAB8EAB8989482F50E048
:102C9000CA019C01220F331F240F351FC901880F61
:102CA000991F880F991F880F991F821B930B840F00
:102CB000951FFC01E854F14F8081282F30E08EA948
:102CC0009FA9AC01249FC001259F900D349F900DBA
:102CD000112480509F4F9FAB8EAB8EA99FA9892F47
:102CE00099279FAB8EAB8091120F282F30E08EA9D1
:102CF0009FA9AC01249FC001259F900D349F900D8A
:102D0000112480509F4F9FAB8EAB8EA99FA9892F16
:102D100099279FAB8EAB8989482F50E0CA019C014F
:102D2000220F331F240F351FC901880F991F880FE9
:102D3000991F880F991F821B930B840F951FFC010D
:102D4000EA54F14F8081882309F473C08989482FA0
:102D500050E0CA019C01220F331F240F351FC90107
:102D6000880F991F880F991F880F991F821B930B3B
:102D7000840F951FFC01EB54F14F8081882F90E068
:102D80008050974F9B838A83EA81FB81849189835A
:102D900089818AAF8AAD80588AAF8989482F50E0EF
:102DA000CA019C01220F331F240F351FC901880F50
:102DB000991F880F991F880F991F821B930B840FEF
:102DC000951FFC01EA54F14F8081282F30E08AAD35
:102DD000882F90E0AC01249FC001259F900D349F67
:102DE000900D112480509F4F9DAB8CAB8CA99DA959
:102DF000892F99279DAB8CAB2FEF30E08CA99DA933
:102E0000281B390B8EA99FA9AC01249FC001259FC7
:102E1000900D349F900D112480509F4F9FAB8EAB2F
:102E20008EA99FA9892F99279FAB8EAB02C01FAA9D
:102E30001EAA8989682F70E08989482F50E0CA014D
:102E40009C01220F331F240F351FC901880F991FC2
:102E5000880F991F880F991F821B930B840F951F52
:102E6000FC01EB54F14FA0818989482F50E0CA0141
:102E70009C01220F331F240F351FC901880F991F92
:102E8000880F991F880F991F821B930B840F951F22
:102E9000FC01E954F14F80814A2F480FCB019C017E
:102EA000220F331F260F371FC901880F991F880F64
:102EB000991F880F991F821B930B860F971FFC0188
:102EC000EB54F14F408302C01FAA1EAA8989882FA4
:102ED00090E04EA9880F991F9C01220F331F220FEB
:102EE000331F820F931FFC01E358F14F4083898900
:102EF0008F5F898B8989843008F48ACACF5BDF4F62
:102F00000FB6F894DEBF0FBECDBFCF91DF911F91FA
:102F10000895DF93CF93CDB7DEB72B970FB6F89414
:102F2000DEBF0FBECDBF9B878A87EA85FB85808188
:102F300091819E838D830196EA85FB8591838083B1
:102F4000ED81FE8184918C838C81882F90E099871C
:102F500088878885998580789070009759F1888551
:102F600099858F77907099878887888599859C0146
:102F70003695322F222737952795EA85FB85808164
:102F800091819B838A830196EA85FB859183808367
:102F9000EA81FB818491898389818F838F81882F46
:102FA00090E08F779070820F931F998788878F8129
:102FB0008823DCF2888599852B960FB6F894DEBFBE
:102FC0000FBECDBFCF91DF910895DF93CF93CDB7E3
:102FD000DEB72F970FB6F894DEBF0FBECDBF8C873C
:102FE0006D874E872F878C85482F50E0CA019C0142
:102FF000220F331F240F351FC901880F991F880F17
:10300000991F880F991F821B930B840F951FFC013A
:10301000E354F14F908181E089278823D9F48C858E
:10302000482F50E0CA019C01220F331F240F351F87
:10303000C901880F991F880F991F880F991F821B3C
:10304000930B840F951FFC01ED54F14F8081882371
:1030500009F06AC28F85882309F04CC08C85482FFF
:1030600050E0CA019C01220F331F240F351FC901F4
:10307000880F991F880F991F880F991F821B930B28
:10308000840F951FFC01EB53F14F10828C85482F64
:1030900050E0CA019C01220F331F240F351FC901C4
:1030A000880F991F880F991F880F991F821B930BF8
:1030B000840F951FFC01E454F14F8081882309F0AF
:1030C00033C28C85482F50E0CA019C01220F331F68
:1030D000240F351FC901880F991F880F991F880F6A
:1030E000991F821B930B840F951FFC01E654F14F2F
:1030F00010821AC28C85833061F48E858D8781E0C1
:1031000091E090939E0E80939D0E81E080939C0EA3
:1031100008C08C8560E00E941F038C856E850E942C
:1031200000038D858F3709F040C08FE09FE09B87BB
:103130008A878C85482F50E0EA85FB856081CA012B
:103140009C01220F331F240F351FC901880F991FBF
:10315000880F991F880F991F821B930B840F951F4F
:10316000FC01EF53F14F60838A859B8501969B8715
:103170008A878C85482F50E06A857B85CA019C012F
:10318000220F331F240F351FC901880F991F880F85
:10319000991F880F991F821B930B840F951FFC01A9
:1031A000EA53F14F7183608381C040910C0F5091BD
:1031B0000D0F8D85282F30E0C901880F991F880FCA
:1031C000991F880F991F820F931F840F951F0396D5
:1031D0009F838E838E819F81FC01859194919D8335
:1031E0008C83FF83EE838C819D8199878887888576
:1031F00099850097D1F48C85482F50E0CA019C0135
:10320000220F331F240F351FC901880F991F880F04
:10321000991F880F991F821B930B840F951FFC0128
:10322000EA53F14F1182108241C08C85482F50E043
:10323000888599859B838A83888599850196998756
:103240008887EA81FB81849189836981CA019C0115
:10325000220F331F240F351FC901880F991F880FB4
:10326000991F880F991F821B930B840F951FFC01D8
:10327000EF53F14F60838C85482F50E0CA019C01C9
:10328000220F331F240F351FC901880F991F880F84
:10329000991F880F991F821B930B840F951FFC01A8
:1032A000EA53F14F88859985918380838C85482FD7
:1032B00050E0CA019C01220F331F240F351FC901A2
:1032C000880F991F880F991F880F991F821B930BD6
:1032D000840F951FFC01EE53F14F10828C85482F0F
:1032E00050E0CA019C01220F331F240F351FC90172
:1032F000880F991F880F991F880F991F821B930BA6
:10330000840F951FFC01E454F14F10828C85482FE7
:1033100050E0CA019C01220F331F240F351FC90141
:10332000880F991F880F991F880F991F821B930B75
:10333000840F951FFC01E254F14F8D8580838C85AD
:10334000482F50E0CA019C01220F331F240F351F64
:10335000C901880F991F880F991F880F991F821B19
:10336000930B840F951FFC01ED54F14F10828C8557
:10337000482F50E0CA019C01220F331F240F351F34
:10338000C901880F991F880F991F880F991F821BE9
:10339000930B840F951FFC01E554F14F8FEF808351
:1033A0008C85482F50E0CA019C01220F331F240F47
:1033B000351FC901880F991F880F991F880F991F02
:1033C000821B930B840F951FFC01E654F14F8F85F0
:1033D00080838C85482F50E0CA019C01220F331F47
:1033E000240F351FC901880F991F880F991F880F57
:1033F000991F821B930B840F951FFC01EC54F14F16
:103400008E8580838C85482F50E0CA019C01220F55
:10341000331F240F351FC901880F991F880F991F6B
:10342000880F991F821B930B840F951FFC01ED538E
:10343000F14F10828C85482F50E0CA019C01220F69
:10344000331F240F351FC901880F991F880F991F3B
:10345000880F991F821B930B840F951FFC01E35467
:10346000F14F81E080838C85482F50E0CA019C0198
:10347000220F331F240F351FC901880F991F880F92
:10348000991F880F991F821B930B840F951FFC01B6
:10349000EB53F14F10828C85482F50E0CA019C01FC
:1034A000220F331F240F351FC901880F991F880F62
:1034B000991F880F991F821B930B840F951FFC0186
:1034C000EC53F14F10828C85482F50E0CA019C01CB
:1034D000220F331F240F351FC901880F991F880F32
:1034E000991F880F991F821B930B840F951FFC0156
:1034F000EA54F14F10828C85482F50E0CA019C019C
:10350000220F331F240F351FC901880F991F880F01
:10351000991F880F991F821B930B840F951FFC0125
:10352000E854F14F8FEF80832F960FB6F894DEBFEB
:103530000FBECDBFCF91DF910895DF93CF9300D021
:1035400000D0CDB7DEB79C838B831A8219820BC063
:103550000E94610A8823E1F30E94640A89819A81AA
:1035600001969A83898329813A818B819C812817CE
:10357000390774F30F900F900F900F90CF91DF9158
:103580000895CF92DF92EF92FF920F931F93DF93F4
:10359000CF9300D000D000D0CDB7DEB784E00E943A
:1035A000680A1E821D820BC08D819E81FC01EA5F2C
:1035B000FE4F10828D819E8101969E838D838D8129
:1035C0009E8123E0883492077CF38EE596E30E9487
:1035D000560A1C821B822AC00E94510A28EE30E043
:1035E000B9010E94F11C6C010E94510A28ED30E0E3
:1035F000B9010E94F11C8C010E94510A28EE30E0B2
:10360000B9010E94F11C7C010E94510A28ED30E0B2
:10361000B9010E94F11C9C01C601B801A7010E94DA
:10362000371B8B819C8101969C838B838B819C8132
:10363000843691058CF28CE390E00E949D1A1A82E8
:1036400019820BC089819A81FC01EA5FFE4F1082CA
:1036500089819A8101969A83898389819A8123E05D
:10366000883492077CF381E080930001B2CFDF932E
:10367000CF93CDB7DEB7A2970FB6F894DEBF0FBEDB
:10368000CDBF988F8F8B7A8F698F5C8F4B8F3E8FDA
:103690002D8F2B8D3C8D8F89988DA901481B590B3F
:1036A000CA019C8B8B8B2D8D3E8D898D9A8DA901A6
:1036B000481B590BCA019A8B898B8B899C899C87E3
:1036C0008B878B859C8599233CF48B859C85909575
:1036D00081959F4F9C878B8789899A899A8789874B
:1036E00089859A8599233CF489859A859095819559
:1036F0009F4F9A8789878B899C8999232CF081E039
:1037000090E09AA389A304C04FEF5FEF5AA349A3A7
:1037100089A19AA1988B8F8789899A8999232CF0FE
:1037200041E050E058A34F8F04C08FEF9FEF98A364
:103730008F8F4F8D58A15E874D8789859A85959586
:10374000879598878F838B859C85959587959E8394
:103750008D838F89988D9C838B83898D9A8D9A8395
:1037600089832B853C8589859A85281739070CF430
:103770003EC01E8A1D8A33C02D813E8189859A856F
:10378000820F931F9E838D832D813E818B859C8527
:103790002817390794F02D813E818B859C85A901DE
:1037A000481B590BCA019E838D8329813A818D85DF
:1037B0009E85820F931F9A8389832B813C818F85FD
:1037C0009889820F931F9C838B838B819981692FAA
:1037D0000E943D1C8D899E8901969E8B8D8B2D8923
:1037E0003E898B859C852817390734F23DC01E8A97
:1037F0001D8A33C02F8138858B859C85820F931F4E
:1038000098878F832F81388589859A85281739076E
:1038100094F02F81388589859A85A901481B590B19
:10382000CA0198878F832B813C818F859889820F6D
:10383000931F9C838B8329813A818D859E85820F7E
:10384000931F9A8389838B819981692F0E943D1CE4
:103850008D899E8901969E8B8D8B2D893E898985C8
:103860009A852817390734F2A2960FB6F894DEBF6E
:103870000FBECDBFCF91DF910895DF93CF93CDB72A
:10388000DEB729970FB6F894DEBF0FBECDBF88878D
:1038900069878985869586958695282F30E0C901A8
:1038A000880F991F820F931F9C01220F331F220F35
:1038B000331F820F931F880F991F9C01888586955F
:1038C00086958695882F90E0820F931F9F838E8325
:1038D0008E819F81FC01EA5FFE4F80818D838D8107
:1038E000882379F5809100018E3F08F05DC08091BA
:1038F00000018D83198216C08D81882F90E09C0174
:10390000220F331F220F331F220F331F8981882F6D
:1039100090E0820F931FFC01E25BFB4F10828981D4
:103920008F5F89838981883038F38E819F81FC0184
:10393000EA5FFE4F8D818083809100018F5F8093CD
:1039400000018D81882F90E09C01220F331F220FF0
:10395000331F220F331F8985882F90E08770907066
:10396000820F931F9C838B838B819C81FC01E25B84
:10397000FB4F80818A838885882F90E09C01277087
:10398000307080E890E0022E02C0959587950A94E9
:10399000E2F7982F8A81892B8A838B819C81FC0195
:1039A000E25BFB4F8A81808329960FB6F894DEBFD5
:1039B0000FBECDBFCF91DF910895AA1BBB1B51E174
:1039C00007C0AA1FBB1FA617B70710F0A61BB70B8F
:1039D000881F991F5A95A9F780959095BC01CD0134
:1039E000089597FB092E07260AD077FD04D0E5DF5E
:1039F00006D000201AF4709561957F4F0895F6F770
:103A0000909581959F4F0895A1E21A2EAA1BBB1B8A
:103A1000FD010DC0AA1FBB1FEE1FFF1FA217B3079A
:103A2000E407F50720F0A21BB30BE40BF50B661FB0
:103A3000771F881F991F1A9469F760957095809574
:103A400090959B01AC01BD01CF010895629FD0010B
:103A5000739FF001829FE00DF11D649FE00DF11D49
:103A6000929FF00D839FF00D749FF00D659FF00DF8
:103A70009927729FB00DE11DF91F639FB00DE11DE5
:103A8000F91FBD01CF011124089597FB092E0526CA
:103A90000ED057FD04D0B8DF0AD0001C38F4509582
:103AA0004095309521953F4F4F4F5F4F0895F6F762
:103AB00090958095709561957F4F8F4F9F4F08959A
:103AC0002F923F924F925F926F927F928F929F922E
:103AD000AF92BF92CF92DF92EF92FF920F931F931C
:103AE000CF93DF93CDB7DEB7CA1BDB0B0FB6F894CD
:103AF000DEBF0FBECDBF09942A88398848885F840D
:103B00006E847D848C849B84AA84B984C884DF807D
:103B1000EE80FD800C811B81AA81B981CE0FD11D61
:103B20000FB6F894DEBF0FBECDBFED010895F89437
:023B3000FFCFC5
:063B32000101000000008B
:00000001FF
