:100000000C944B000C94EA000C94EA000C94EA0067
:100010000C94EA000C94EA000C94EA000C94EA00B8
:100020000C94EA000C94EA000C94EA000C94EA00A8
:100030000C94EA000C9426020C9456020C94EA00EC
:100040000C94EA000C94EA000C94EA000C94EA0088
:100050000C94EA000C94EA000C94EA000C94EA0078
:100060000C94EA000C94EA000C94EA000C94EA0068
:10007000700B7E0BEE0B230F0F0F810B900B9F0B62
:10008000F70EAD0BBB0B544F4B454E210045525262
:100090004F523A31000011241FBECFEFD0E1DEBF36
:1000A000CDBF14BE88E10FB6F89480936000109223
:1000B00060000FBE11E0A0E0B1E0EAE8F3E202C0A8
:1000C00005900D92A030B107D9F717E0A0E0B1E09C
:1000D00001C01D92A834B107E1F7F894EBE7F2E014
:1000E00080E090E020E802C02193019632E08C305D
:1000F0009307D4F38BE792E090938804809387046E
:1001000010928904ECE8F4E080E090E003C01082F3
:1001100001963A9684309105D4F39093C00480936D
:10012000BF0491E09093AC049093AD049093AB0422
:100130001092810015BC8FEF87B984B988E98AB91C
:100140005C9A8CE081B98BEF82B91092580286E0FC
:1001500080935902109285001092840083E080936E
:1001600089008DE88093880089E08093810082E097
:1001700080936F0082E484BD17BC95BD83E88093B3
:10018000B0001092B3009093B10081E185B9109254
:100190006D0210925C0210925D0210926802109241
:1001A000670210926C0210926B0210926E020E9413
:1001B000E70A80E00E94120A80FF03C084E00E94E8
:1001C0000F0A0E94940178940E948D010E941311DD
:1001D0000C94C3110C940000E2E3C8950000EA956A
:1001E000E1F7C895C8950AEA1127A1E0B1E01D938F
:1001F0001D930A95E1F705E5902FD02E0AEA10E04D
:100200007801552764EE772786E04FEF662420912A
:100210005502213041F44EBD56D19D2521D0739514
:100220006A95C9F708C04FD181EA91E00197F1F7CB
:1002300000C06A95C1F747D111E000915B02012728
:1002400000935B0220915C02002309F02127209398
:100250005C02E1E0E0935A02E2E0E09336000895A8
:10026000A1E0B1E0ED0171FDAE0D71FDBF1D71FFAB
:10027000CE0D71FFDF1DC90FD61D24E500001EB590
:100280004EBD3D9138B9199300C000C03D9138B9B9
:100290002A95A1F700001EB5199368B88A9529F030
:1002A0003AE23A95F1F700C0089536E04EBD25E0F8
:1002B0002A95F1F73A9500001EB5C1F786E008953A
:1002C00020918904222319F0EBE7F2E002C0E1E873
:1002D000F3E086E091E04FEF4EBD24E02A95F1F780
:1002E000019700003DB53EB53193B1F73EEF4EBDED
:1002F00025E02A95F1F73A951DB52EB5C1F721E015
:1003000020935502089581E080935602089580E07D
:100310008093550280935602089508958091560265
:10032000803009F0CDDF0895A1E0B1E080E89FEFD3
:100330009D938A95E9F710925502109256020895FE
:1003400070027A028802A40128980E942304E7E13F
:10035000EA95F1F7289A1BD1E0E0F6E0FED0E0FF45
:1003600032D0E0FF2FC02F933F934F935F936F9353
:100370007F938F939F93AF93BF9378941124E091D1
:100380005E02F0915F02E115F10509F009950E9406
:100390008E010E94300B0E94380A0E9447031124EC
:1003A000E0916002F0916102E115F10509F0099513
:1003B000BF91AF919F918F917F916F915F914F917D
:1003C0003F912F910895EF93E0915902E93EE0F5B6
:1003D000E530D0F12F923F924F925F926F927F92D1
:1003E0008F929F92AF92BF92CF92DF92EF92FF9245
:1003F0000F931F932F933F934F935F936F937F932D
:100400008F939F93AF93BF93CF93DF930E94EC00A2
:10041000DF91CF91BF91AF919F918F917F916F911C
:100420005F914F913F912F911F910F91FF90EF900E
:10043000DF90CF90BF90AF909F908F907F906F9004
:100440005F904F903F902F90EF910895FF93EF931F
:10045000EFB7EF93E0918400EE50E13000F0E2302E
:1004600000F0E33000F0E43000F0E53000F0E6307A
:1004700000F0E73000F0E83000F0E93000F005D09F
:10048000EF91EFBFEF91FF9118950F921F92E0E46B
:10049000F3E000905802000C1124E00DF11D0590CE
:1004A0001490F00109951F900F900895EF93EFB706
:1004B000EF93289AE0916F00EB7FE0936F00EF914C
:1004C000EFBFEF91189528980E942304E5E1EA9583
:1004D000F1F7E0915902EA95E0935902289A0895BC
:1004E00028980E944A04289A0000E1E0F6E035D0FE
:1004F00047D0089528980E944A04E0EB0000EA954E
:10050000E9F700000000289AF6E0E2E026D008951E
:1005100028980E944A04289A0000E3E0FDEF1DD0CD
:10052000E0915902E53091F4E0915B02E130000086
:10053000F0916D0219F4F0916D02F195E3E0E09312
:100540008900EDE8EF0FE09388000895E3E0E09381
:100550008900EDE8E09388000895009059020A941C
:1005600010905F0011FC0F2E00925902009058026B
:1005700011FC0E2E00925802E0E011FCE1E008951B
:10058000E3E0E0938900EDE8E09388000895E7E078
:10059000E0938900EBE1E0938800089500000000FB
:1005A000000000000000000000000000000000004B
:1005B000000000000000000000000000000000003B
:1005C000000000000000000000000000000000002B
:1005D000000000000000000000000000000000001B
:1005E000000000000000000000000000000000000B
:1005F00000000000000000000000000000000000FB
:1006000099277727833008F00895E0E0F3E1660F3B
:10061000771FE60FF71FA591B491ECE8F4E02AE00C
:10062000289FE00DF11DA183B283112408959091BC
:10063000AB049170880F892B8093AB0408959927A0
:100640007727ECE8F4E02AE0289FE00DF11D6E3FEB
:1006500031F46091AB046E7F6093AB040BC06F3FCD
:1006600031F46091AB046E6F6093AB0403C079E02A
:10067000760F75831124089599277727ECE8F4E025
:100680002AE0289FE00DF11D6083112408950E9447
:100690009E0C00908904002019F4ABE7B2E002C080
:1006A000A1E8B3E021E002260092890422E0209331
:1006B0008A042F923F924F925F926F927F928F9215
:1006C0009F92AF92BF92CF92DF92EF92FF920F93E1
:1006D0001F93CF93DF935091AA046091AC04709163
:1006E000AD048091AE0420908D0430908E04409033
:1006F00090045090910460908F0410918C0470903D
:1007000097048090980490909904A0909A04B090D7
:100710009B0420919604C090A104D090A204E09084
:10072000A404F090A5040091A3043091A0049FEFCD
:10073000620C431CF2014491410300240008C12DC6
:10074000D02D970CA81CF501449142030024000809
:10075000C10DD01D0C0DED1CF70144914303002485
:100760000008C10DD01D8A956AF44091AB04842F16
:100770008695062E0694062600FA7695679576F9F4
:1007800040FF66F940E860FD4FE74503002400089C
:10079000C10DD01D0024C038D0050CF0CFE70A945D
:1007A000C038D0050CF4C0E8C058CD939A9509F034
:1007B000BFCF40918A044A9540938A0497E009F09C
:1007C000B7CF60928F044092900490929904A092C7
:1007D0009A040093A304E092A4046093AC04709381
:1007E000AD048093AE04DF91CF911F910F91FF90E4
:1007F000EF90DF90CF90BF90AF909F908F907F90C1
:100800006F905F904F903F902F9099278091580262
:1008100077276091590211240E94ED0B0895E09111
:100820008704F0918804019100000093B30004E074
:10083000E738F0070BE712E008F0F801E0938704CF
:10084000F093880408950C9425040C9427040F93C6
:100850001F932F93E0918704F091880401910093F6
:10086000B30004E0E738F00710F40000000010F0D7
:10087000EBE7F2E0E0938704F0938804C895C8950D
:10088000C895C895C895C895000000002F911F9184
:100890000F9108950000E0915902E0FFD8CFE1E107
:1008A000EA95F1F700000000089500000000000044
:1008B0000000000000000000000000000000000038
:1008C0000000000000000000000000000000000028
:1008D0000000000000000000000000000000000018
:1008E0000000000000000000000000000000000008
:1008F00000000000000000000000000000000000F8
:10090000000306090C101316191C1F2225282B2E74
:10091000313336393C3F414447494C4E5153555889
:100920005A5C5E60626466686A6B6D6F7071737446
:10093000757678797A7A7B7C7D7D7E7E7E7F7F7FFF
:100940007F7F7F7F7E7E7E7D7D7C7B7A7A797876E5
:1009500075747371706F6D6B6A68666462605E5CFB
:100960005A585553514E4C494744413F3C39363310
:10097000312E2B2825221F1C191613100C090603D3
:1009800000FDFAF7F4F0EDEAE7E4E1DEDBD8D5D2DA
:10099000CFCDCAC7C4C1BFBCB9B7B4B2AFADABA8A5
:1009A000A6A4A2A09E9C9A9896959391908F8D8CC8
:1009B0008B8A8887868685848383828282818181EF
:1009C0008181818182828283838485868687888AE9
:1009D0008B8C8D8F9091939596989A9C9EA0A2A4B3
:1009E000A6A8ABADAFB2B4B7B9BCBFC1C4C7CACD7E
:1009F000CFD2D5D8DBDEE1E4E7EAEDF0F4F7FAFD9B
:100A0000808182838485868788898A8B8C8D8E8F6E
:100A1000909192939495969798999A9B9C9D9E9F5E
:100A2000A0A1A2A3A4A5A6A7A8A9AAABACADAEAF4E
:100A3000B0B1B2B3B4B5B6B7B8B9BABBBCBDBEBF3E
:100A4000C0C1C2C3C4C5C6C7C8C9CACBCCCDCECF2E
:100A5000D0D1D2D3D4D5D6D7D8D9DADBDCDDDEDF1E
:100A6000E0E1E2E3E4E5E6E7E8E9EAEBECEDEEEF0E
:100A7000F0F1F2F3F4F5F6F7F8F9FAFBFCFDFEFFFE
:100A8000000102030405060708090A0B0C0D0E0FEE
:100A9000101112131415161718191A1B1C1D1E1FDE
:100AA000202122232425262728292A2B2C2D2E2FCE
:100AB000303132333435363738393A3B3C3D3E3FBE
:100AC000404142434445464748494A4B4C4D4E4FAE
:100AD000505152535455565758595A5B5C5D5E5F9E
:100AE000606162636465666768696A6B6C6D6E6F8E
:100AF000707172737475767778797A7B7C7D7E7F7E
:100B000000020406080A0C0E10121416181A1C1EF5
:100B100020222426282A2C2E30323436383A3C3EE5
:100B200040424446484A4C4E50525456585A5C5ED5
:100B300060626466686A6C6E70727476787A7C7EC5
:100B40007F7D7B79777573716F6D6B6967656361A5
:100B50005F5D5B59575553514F4D4B494745434195
:100B60003F3D3B39373533312F2D2B292725232185
:100B70001F1D1B19171513110F0D0B090705030175
:100B8000FFFDFBF9F7F5F3F1EFEDEBE9E7E5E3E165
:100B9000DFDDDBD9D7D5D3D1CFCDCBC9C7C5C3C155
:100BA000BFBDBBB9B7B5B3B1AFADABA9A7A5A3A145
:100BB0009F9D9B99979593918F8D8B898785838135
:100BC00080828486888A8C8E90929496989A9C9E35
:100BD000A0A2A4A6A8AAACAEB0B2B4B6B8BABCBE25
:100BE000C0C2C4C6C8CACCCED0D2D4D6D8DADCDE15
:100BF000E0E2E4E6E8EAECEEF0F2F4F6F8FAFCFE05
:100C00007F7F7F7F7F7F7F7F7F7F7F7F7F7F7F7FF4
:100C10007F7F7F7F7F7F7F7F7F7F7F7F7F7F7F7FE4
:100C20007F7F7F7F7F7F7F7F7F7F7F7F7F7F7F7FD4
:100C30007F7F7F7F7F7F7F7F7F7F7F7F7F7F7F7FC4
:100F00000309131E28313A40464C5054585B5E6129
:100F1000636567696B6C6E6F7071727374757677E9
:100F2000777879797A7A7B7B7C7C7C7D7D7D7E7E0F
:100F30007E7E7F7F7F7F7F7F7F7F7F7F7F7F7F7FC3
:100F40007F7F7F7F7F7F7F7F7F7F7F7F7F7E7E7EB4
:100F50007E7D7D7D7C7C7C7B7B7A7A7979787777E6
:100F6000767574737271706F6E6C6B6967656361AF
:100F70005E5B5854504C46403A31281E130903001A
:100F8000C6CCD5DBDFE3E5E7E9EAEBECEDEEEFEF2E
:100F9000F0F0F0F1F1F1F1F2F2F2F2F2F2F2F2F33A
:100FA000F3F3F3F3F3F3F3F3F3F3F3F3F3F3F3F311
:100FB000F3F3F3F3F3F3F3F3F3F3F3F3F3F3F3F301
:100FC000F3F3F3F3F3F3F3F3F3F3F3F3F3F3F3F3F1
:100FD000F3F3F3F3F3F3F3F3F3F3F3F3F3F3F3F3E1
:100FE000F2F2F2F2F2F2F2F2F1F1F1F1F0F0F0EFEE
:100FF000EFEEEDECEBEAE9E7E5E3DFDBD5CCC600AD
:1010000000283D42302D2C2B2C2D2E2F3032333505
:1010100037393B3D3F414345484A4C4E5053555765
:10102000595B5D5F61636567696B6C6E707173744A
:10103000757778797A7B7C7D7D7E7E7F7F7F7F7FF1
:101040007F7F7F7F7F7F7E7E7D7D7C7B7A797877D7
:1010500075747371706E6C6B69676563615F5D5BFE
:1010600059575553504E4C4A484543413F3D3B39F3
:1010700037353332302F2E2D2C2B2C2D30423D285E
:1010800000E9E5FED4D7D7D7D6D4D2D0CECCCAC8C3
:10109000C6C3C1BFBDBAB8B6B4B1AFADABA9A7A501
:1010A000A3A19F9E9C9A999795949391908F8D8CD4
:1010B0008B8A8988888786858584848483838383D3
:1010C0008383838383848484858586878888898ACB
:1010D0008B8C8D8F909193949597999A9C9E9FA1BC
:1010E000A3A5A7A9ABADAFB1B4B6B8BABDBFC1C3D4
:1010F000C6C8CACCCED0D2D4D6D7D7D7D4FEE5E98D
:10110000F9F8F9F5EBE1DDDEE0E2E4E5E6E5E4E25D
:10111000DED9D2CAC1B7ACA299918A868381808078
:101120008182838586888A8C8D8F909293959697FD
:1011300098999A9B9B9C9D9D9D9E9E9E9F9F9F9FE5
:101140009F9F9F9E9E9E9D9D9D9C9B9B9A999897DD
:1011500096959392908F8D8C8A88868583828180E4
:10116000808183868A9199A2ACB7C1CAD2D9DEE2C6
:10117000E4E5E6E5E4E2E0DEDDE1EBF5F9F8F900CF
:101180000708070B151F2322201E1C1B1A1B1C1EE1
:1011900022272E363F49545E676F767A7E7F7F7FA7
:1011A0007F7E7D7B7A7876747371706E6D6B6A6901
:1011B00068676665656464636362626261616161F8
:1011C00061616162626263636364656566676869E1
:1011D0006A6B6D6E7071737476787A7B7D7E7F7FBB
:1011E0007F7F7E7A766F675E54493F362E27221EB8
:1011F0001C1B1A1B1C1E2022231F150B070807008F
:101200001F313D444E5354565A5F64696E7476796B
:101210007C7F7F7F7F7F7F7F7F7F7F7F7F7F7F7FE1
:101220007F7F7F7F7F7F7F7F7F7F7F7F7F7F7F7FCE
:101230007F7F7F7F7F7F7F7F7F7F7F7F7F7F7F7FBE
:101240007F7F7F7F7F7F7F7F7F7F7F7F7F7F7F7FAE
:101250007F7F7F7F7F7F7F7F7F7F7F7F7F7F7F7F9E
:101260007F7F7F7F7F7F7F7F7F7F7F7F7F7F7F7F8E
:101270007F7F7F7F7F7F7F7F7F7F7F7C7871684CE0
:101280002C1C120C0A0B0A05FDF3E9DFD4CAC0B707
:10129000AEA69E97918B868582808080808080809C
:1012A000808080808080808080808080808080803E
:1012B000808080808080808080808080808080802E
:1012C000808080808080808080808080808080801E
:1012D000808080808080808080808080808080800E
:1012E00080808080808080808080808080808080FE
:1012F000808080808087919DACC4CBD4DDF2FAFAE7
:1013000022002400260028002B002D00300033008E
:10131000360039003D004000440048004C005100B8
:1013200056005B00600066006C007300790081006D
:10133000880090009900A200AC00B600C100CC006B
:10134000D800E500F3000101100121013201440140
:1013500057016C0181019801B001CA01E501020247
:101360002102410264028802AE02D7020303300365
:1013700061039403CB03050442048304C7041005EE
:101380005D05AF0505066106C2062907960709082F
:10139000830805098E09200ABA0A5D0B0A0CC10CE4
:1013A000840D510E2B0F121007110A121D13401439
:1013B0007415BA1614188319071BA31C571E242072
:1013C0000E22142439267F28E82A752D2930063369
:1013D0000F364539AD3C49401B442848734CFE50FC
:1013E000CF55EA5A51600C661D6C8B725A79928007
:1013F00037885090E598FDA19FABD3B5A3C00000FE
:10140000992728E2629F080E191EA0E0B1E0A00D06
:10141000B11D50916402450F4C931124089580939F
:101420006D020895882329F48091650290916602E7
:1014300008958091690290916A020895882329F4A1
:101440008091670290916802089580916B0290915B
:101450006C02089578E07A95F1F700000197D1F7D2
:1014600008958EBD95E09A95F1F78DB58EB50895E6
:1014700080916E02882309F4A9C080916F028823AD
:1014800009F051C0809170020E94120A282F86FF35
:101490000FC0809171029091720202979093720234
:1014A0008093710297FF04C0109272021092710231
:1014B00027FF12C080917102909172020296909360
:1014C000720280937102883E910534F087EE90E0BD
:1014D000909372028093710224FF0FC08091730277
:1014E000909174020297909374028093730297FF15
:1014F00004C0109274021092730225FF67C080919D
:101500007302909174020296909374028093730216
:10151000883D91050CF45AC087ED90E090937402D9
:10152000809373020895809170020E941E0A9C01AC
:1015300040917102509172028F77907027FF0EC018
:10154000BA01681B790B709372026093710277FF86
:1015500014C010927202109271020FC0840F951F76
:101560009093720280937102883E910534F087EE69
:1015700090E09093720280937102409173025091B7
:101580007402832F992737FF10C08F7790709A01CC
:10159000281B390B309374022093730237FF16C057
:1015A000109274021092730208958F779070840FD6
:1015B000951F9093740280937302883D910534F0D7
:1015C00087ED90E090937402809373020895FF92E8
:1015D0000F931F93CF93DF93129A80916E0288230B
:1015E00029F081E090E00E942A0A02C0C895C895BF
:1015F000129800E010E0C0E0D0E0FF2416950795B7
:10160000D695C795139880916E02882329F085E0BE
:1016100090E00E942A0A02C0C895C895009B1068F5
:10162000019BD068139A80916E02882329F085E08F
:1016300090E00E942A0A02C0C895C895F39480E100
:10164000F816E1F61093660200936502D0936A02E1
:10165000C0936902DF91CF911F910F91FF90089580
:10166000FF920F931F93CF93DF930E94E70A80911D
:1016700065029091660297FD06C080916902909183
:101680006A0297FF27C081E090E00E942A0A00E0EA
:1016900010E0C0E0D0E0FF24000F111FCC0FDD1FD1
:1016A0001398C895C895C895C895009B0160019B83
:1016B000C160139A88E090E00E942A0AF39480E1C6
:1016C000F81651F71093680200936702D0936C02EA
:1016D000C0936B02DF91CF911F910F91FF900895FE
:1016E00090E026E130E0829FF001839FF00D929F11
:1016F000F00D1124EA53FB4F628708956093AB0409
:10170000089590E026E130E0829FF001839FF00D84
:10171000929FF00D1124EA53FB4F13861182089516
:1017200090E026E130E0829FF001839FF00D929FD0
:10173000F00D1124EA53FB4F81E0838B089590E074
:1017400026E130E0829FF001839FF00D929FF00D23
:101750001124EA53FB4F6187089590E026E130E0C1
:10176000829FF001839FF00D929FF00D1124EA53A8
:10177000FB4F6483089590E026E130E0829FF00102
:10178000839FF00D929FF00D1124EA53FB4F658368
:101790000895DC01ED91FC911197AF014F5F5F4F10
:1017A00011965C934E93E4912E2F30E0E7FF13C027
:1017B0002F7730703695322F222737952795FA01EB
:1017C0004F5F5F4FE4918E2F8F77280F311DE7FD1C
:1017D000F1CF4D935C93C901089508950E941F03B2
:1017E0000895EF92FF920F931F93CF93DF93182FDB
:1017F000062FF42EE22EC82FD0E086E190E0C89F9D
:10180000F001C99FF00DD89FF00D1124EA53FB4F52
:101810008385882321F08181882309F088C0EE2008
:1018200091F486E190E0C89FF001C99FF00DD89F28
:10183000F00D1124EA53FB4F138A8285882309F0A7
:1018400076C0108674C0133059F481E091E0909313
:10185000AD048093AC0481E08093AB040F2D08C0ED
:10186000812F60E00E941F03812F6F2D0E940003D3
:101870000F3799F486E190E0C89FF001C99FF00D01
:10188000D89FF00D1124EA53FB4F809123058787E1
:1018900084E295E0958B848B30C089E0089FC0017D
:1018A0001124E0912005F0912105E80FF91F3396EE
:1018B000459154914115510571F486E190E0C89F1E
:1018C000F001C99FF00DD89FF00D1124EA53FB4F92
:1018D000158A148A12C0FA01249186E190E0C89F0B
:1018E000F001C99FF00DD89FF00D1124EA53FB4F72
:1018F00027874F5F5F4F558B448B86E190E0C89FF1
:10190000F001C99FF00DD89FF00D1124EA53FB4F51
:10191000108A1286048711829FEF9187E086F282F7
:10192000118A81E08387138A128A14829683DF9159
:10193000CF911F910F91FF90EF900895CF92DF927A
:10194000FF920F931F93CF93DF93EFECF4E081812D
:10195000282F332727FD30958081280F311D2F3FF9
:10196000310519F014F02FEF30E0C90137FF02C044
:1019700080E090E08083769645E0E732F40739F71F
:1019800080917A02882309F028C144C1E091290599
:10199000F0912A059F012F5F3F4F30932A05209336
:1019A000290544914F3F69F5A9014F5F5F4F50935F
:1019B0002A0540932905F90184918F3219F4109278
:1019C0007A0219C1863009F0FBC0FA013196CF01C5
:1019D000019690932A0580932905E491E33529F433
:1019E00090932D0580932C05EBC0E53409F0E8C0F9
:1019F00080912C0590912D0590932A0580932905BF
:101A0000DFC047FF02C040932205542F5F70842F30
:101A100090E0807F9070803B910531F1803C910592
:101A200081F18039910509F043C0C9010196F9019E
:101A30004491019690932A05809329050197FC0112
:101A40002491852F90E08C9FF0018D9FF00D9C9F3D
:101A5000F00D1124EA53FB4F8081882309F4B0C0B4
:101A6000220F852F648553C0C9010196F901449165
:101A7000019690932A05809329050197FC012491F2
:101A800053C02F5F3F4F30932A05209329052150E3
:101A90003040F9012491852F90E08C9FF0018D9FBB
:101AA000F00D9C9FF00D1124EA53FB4F248788C052
:101AB00080912205582F5F7090E0807F9070803B6E
:101AC000910541F1803C910509F46EC08039910582
:101AD00009F076C02F5F3F4F30932A0520932905E8
:101AE00021503040F9012491852F90E08C9FD00146
:101AF0008D9FB00D9C9FB00D1124AA53BB4F8C91AC
:101B0000882309F45DC0220F852F1C966C910E94DA
:101B1000F10B56C02F5F3F4F30932A0520932905C4
:101B200021503040F9012491473071F4852F90E025
:101B30008C9FF0018D9FF00D9C9FF00D1124EA53B6
:101B4000FB4F220F27833CC04B3071F4852F90E070
:101B50008C9FF0018D9FF00D9C9FF00D1124EA5396
:101B6000FB4F220F26832CC04C3571F4852F90E05B
:101B70008C9FF0018D9FF00D9C9FF00D1124EA5376
:101B8000FB4F220F24831CC04436D1F4852F90E0F4
:101B90008C9FF0018D9FF00D9C9FF00D1124EA5356
:101BA000FB4F220F25830CC0852F90E08C9FF00106
:101BB0008D9FF00D9C9FF00D1124EA53FB4F44873D
:101BC00089E295E00E94C90B909328058093270530
:101BD00010921F0510921E0502C0C6E1D0E0609170
:101BE0001E0570911F0580912705909128056817A3
:101BF000790709F4CBCE6F5F7F4F70931F05609319
:101C00001E05809124059091250501969093250548
:101C1000809324050CE814E0C7ECD4E0FF24BFEF68
:101C2000CB2ED12C8A89882309F05EC08B899C89B0
:101C3000892B09F456C09F858E85981708F04CC0F3
:101C400050C08B852B893C898F37E9F4D9018D9160
:101C5000BC8BAB8B8F3F01F1F90161811196BC8B7D
:101C6000AB8BE82FF0E0EE0FFF1FE059FF4F019024
:101C7000F081E02D8F2D0995EB89FC8981918E876C
:101C8000FC8BEB8B28C0A9014F5F5F4F5C8B4B8BAC
:101C9000F90184918F3F21F418821C8A1B8A21C08C
:101CA0004F5F5F4F5C8B4B8B41505040FA0164910A
:101CB00090E0880F991F80599F4FFC012591349126
:101CC0008F2DF9010995EB89FC893196FC8BEB8B03
:101CD0003197E491EE871F869F858E85981709F4CA
:101CE000B0CF8F858F5F8F878A85882319F420E096
:101CF00030E06BC088898F3F11F08F5F888B9F81A8
:101D0000992309F45CC02885222309F458C08E81E8
:101D1000882309F454C040912605442309F44FC098
:101D2000899FC001112480509F4F892F992730E04F
:101D3000B901869F9001879F300D969F300D112429
:101D400020503F4F232F33278D8190E0FC012E9FA1
:101D5000C0012F9F900D3E9F900D112480509F4FEA
:101D6000892F9927242F30E0AC01429FC001439F67
:101D7000900D529F900D112480509F4F292F332793
:101D80008B818823F1F0EA81F0E0E050F74FE49195
:101D9000E058E89FC001112480509F4F892F992758
:101DA000B601681B790B629FC001639F900D729F03
:101DB000900D112480509F4F292F332702C020E01F
:101DC00030E08A819C81890F8A83F8012083F39413
:101DD000065F1F4F6696F4E0FF1609F023CFDF91F0
:101DE000CF911F910F91FF90DF90CF900895FF92B8
:101DF0000F931F93082FF62E0E94000310E086E138
:101E000090E0089FF001099FF00D189FF00D11243C
:101E1000EA53FB4FF2821F910F91FF900895962F86
:101E2000482F50E026E130E0429FF001439FF00D43
:101E3000529FF00D1124EA53FB4F6281691B6283AC
:101E40000E9400030895482F50E026E130E0429FB1
:101E5000F001439FF00D529FF00D1124EA53FB4F08
:101E60009281690F62830E9400030895FF920F938D
:101E70001F93CF93DF938C01F62EEA01FE0144916C
:101E80002196442349F0802F0F5F1F4F4F77405218
:101E90006F2D0E94000AF2CFDF91CF911F910F9119
:101EA000FF9008950E94310A08951F9310E08FEF6C
:101EB0000E94520F1F5F1A30D1F75E9A1F9108954A
:101EC000CF93DF93CFEFDFEF8FEF05C08FEF0E944F
:101ED000520F8E3F11F02197C9F7C095D095D0933E
:101EE0003305C0933205DF91CF910895CF93DF93EF
:101EF000CFEFDFEF05C08FEF0E94520F8F3F19F435
:101F00002197C9F78FEFDF91CF910895DF92EF927C
:101F1000FF920F931F93182FE62E072FD42EF52E26
:101F20005E988FEF0E94520F812F80640E94520FA3
:101F3000802F0E94520F8E2D0E94520F8F2D0E94D3
:101F4000520F8D2D0E94520F85E90E94520F8FEF84
:101F50000E94520F1F910F91FF90EF90DF90089514
:101F6000CF93DF9385B18F7585B92E9A84B1806A3E
:101F700084B95E9A569A209A80E58CBD81E08DBD29
:101F8000C0E0D0E08FEF0E94520F2196CA30D105F9
:101F9000C9F780E060E070E040E050E00E94860F0A
:101FA0000E94760F813021F00E94550F81E010C011
:101FB0008FEF0E94520F882341F081E060E070E0D3
:101FC00040E050E00E94860FF3CF0E94550F80E062
:101FD000DF91CF910895EF92FF920F931F93CF93CC
:101FE000DF937B018C01EA018091B404882341F0E6
:101FF00082E090E061E070E04DE850E00E94360F32
:10200000A701542F4427550F81E127E01695079526
:10201000F794E7942A95D1F7B7010E94860F0E94A2
:10202000600F8E3F29F00E94550F2FEF3FEF16C033
:1020300000E010E08FEF0E94520F89930F5F1F4F57
:1020400082E000301807B1F78FEF0E94520F8FEF38
:102050000E94520F0E94550F20E030E0C901DF912D
:10206000CF911F910F91FF90EF900895CF92DF9243
:10207000EF92FF920F931F936C0160913C0570915A
:102080003D0580913E0590913F0525E0660F771F45
:10209000881F991F2A95D1F7209134053091350575
:1020A00040913605509137050E94A81179018A01A7
:1020B0008091380590913905A0913A05B0913B0582
:1020C000E80EF91E0A1F1B1FF601628D738D625008
:1020D000704080E090E020914005309141054091B2
:1020E0004205509143050E946711E60EF71E081F36
:1020F000191FB701C8011F910F91FF90EF90DF905A
:10210000CF9008958F929F92AF92BF92CF92DF921D
:10211000EF92FF920F931F936C0160E070E080E0FC
:1021200090E0A6010E94EB0F86EC91E0C80ED91E4C
:10213000F60180809180A280B3808AE39EEFC80E72
:10214000D91EC501B401A6010E94EB0FF6016685F8
:102150007785E688F7882189328940E050E020932E
:102160003C0530933D0540933E0550933F05238544
:10217000348540E050E0209334053093350540939A
:10218000360550933705258530E040E050E0209338
:1021900040053093410540934205509343058827FD
:1021A00077FD8095982F680D791D8A1D9B1DEE0C7B
:1021B000FF1C0027F7FC0095102F6E0D7F1D801F60
:1021C000911F609338057093390580933A05909379
:1021D0003B05A6010E94EB0F1F910F91FF90EF901E
:1021E000DF90CF90BF90AF909F908F9008951F93F6
:1021F000F89410E10E94B00F9BB191279BB98823FE
:10220000C9F710E160E070E080E090E048E455E05C
:102210000E94EB0F9BB191279BB9882399F7789483
:102220005C981F9108950F931F930E94F71088E404
:1022300095E00E948210E8E4F5E090E083858E75D9
:1022400031F58081882319F1853E09F18530F9F057
:102250008E32E9F080858535D1F481858A35B9F4EF
:1022600082858D34A1F4892F90E075E0880F991F45
:102270007A95E1F7885B9A4F0E9436106093440587
:1022800070934505809346059093470504C09F5F72
:10229000B096903199F60091440510914505209132
:1022A000460530914705A801542F4427550F82E178
:1022B00097E036952795179507959A95D1F7B80128
:1022C0000E94860F0E94600F0E948301FFCF629FD1
:1022D000D001739FF001829FE00DF11D649FE00D1E
:1022E000F11D929FF00D839FF00D749FF00D659F7F
:1022F000F00D9927729FB00DE11DF91F639FB00D7E
:10230000E11DF91FBD01CF0111240895A1E21A2E8C
:10231000AA1BBB1BFD010DC0AA1FBB1FEE1FFF1F89
:10232000A217B307E407F50720F0A21BB30BE40BD9
:10233000F50B661F771F881F991F1A9469F7609520
:102340007095809590959B01AC01BD01CF010895DA
:1023500097FB092E05260ED057FD04D0D7DF0AD0F3
:10236000001C38F450954095309521953F4F4F4FC4
:102370005F4F0895F6F790958095709561957F4F22
:0A2380008F4F9F4F0895F894FFCF90
:00000001FF
