:100000000C94EF3D0C948D3E0C948D3E0C948D3EE3
:100010000C948D3E0C948D3E0C948D3E0C948D3E34
:100020000C948D3E0C948D3E0C948D3E0C948D3E24
:100030000C948D3E0C94593F0C948D3E0C948D3E47
:100040000C948D3E0C948D3E0C948D3E0C948D3E04
:100050000C948D3E0C948D3E0C948D3E0C948D3EF4
:100060000C948D3E0C948D3E0C948D3E0C948D3EE4
:100070005A5501200101003808000000000000006E
:100080000000000000000000000000000000000070
:10009000EE42FC42474375436143FF420E431D431A
:1000A0004A432B43394300020800085504085A000C
:1000B00000F8000990000A1E32050000FF00000051
:1000C000A60000000000000000000000000000008A
:1000D0000000000000000000000000000000000020
:1000E0000000000000000000000000000000000010
:1000F0000000000000000000000000000000000000
:1001000000000000000000000000000000000000EF
:1001100000000000000000000049000000495252A9
:10012000000052525C2D00000000000000000000A2
:100130000000000000000040000000494A52004951
:1001400052525B1C52531C25241B2425251B0A0AD2
:100150002D1C12120A0A0000000000000000404995
:1001600049494949525B5B5B525B1C1C1312241CBE
:100170001209090912090909090A0A0A0A0A0A13CD
:10018000120A0A12130A0000000000009252525292
:10019000525213121309001C0A1212401B65090A5D
:1001A0000009241B120000251C1C010025241C1C16
:1001B0000024252424240000000000005249494066
:1001C00000001B1352494900641C1C5B4A481C6513
:1001D0001C2552491C1C652464491C1C6525644966
:1001E0001C1C6D2E5C490000000000000000000097
:1001F0000049000000005352000000535225000047
:100200004A52252500005B251300005B53000A1CA1
:10021000095B1C657F374052522E2E1C525C2E25E6
:100220001B1324251C1C12002525120000121B0084
:1002300000132E37001B37372E2E37372E2E2E2E3B
:100240002E2E6E6E6E1C1313120009131200001274
:1002500013130012251C13132E371C131313361CF3
:10026000131B1B1B25131C1C1B1B1B1C1C1C1C1CDD
:100270001C1C1C1C1C131312121313001313131C2D
:10028000000913131C010037131C13002E2E1C1C15
:10029000001C772E2500137F251C010A37241C1C07
:1002A0000A2E25250900132E242525252E25252552
:1002B000252525252D2E251B2E2E251C1325251CF9
:1002C0001C1C1C011C1C1300011C0A000165775C2E
:1002D000016E7F6E521B25256D1C524925251C136E
:1002E00053001C1C1C524A001B135B5B000009528C
:1002F0005C0000005B5C000000001B0000000000D0
:10030000000000000000135B7F776E6E1365777648
:100310006E6E1B65777676761B5BBF76B6760913B5
:100320006DBFB7B6001B125C76BF0000121B125BDC
:1003300000000000090A6E6E6E77241C6E6E772531
:100340001C1C6E776E1C1C1C76761C1C2425B76545
:10035000646D6D1B766D6D5B09125B5C5B125B649B
:100360001213131B12121C1C1C1C1C241C1C2425E5
:1003700025242425251B00002513000064BF000947
:100380006EBFBF6D6EBF6D5B12135B12131209005F
:100390000901000000002E1C0900096E0100097609
:1003A0007F7F12777F7F6412BF775B121B095B121E
:1003B0001B0900001B0900000000000000000000F5
:1003C0000000000000007F7F5313130064121B0124
:1003D00000001B12000000000000000000000000F0
:1003E000000000000000000000000000000000000D
:1003F00000000000000000000000000026000000D7
:1004000026002F0000002F00370000003700FF00FB
:100410000000FF00BF000000BF00370000370000F1
:1004200000262600000000000000000026262626E8
:100430002600000000002F00000000370000000030
:10044000FF00000000BF00000000370000000000B7
:100450002626262626000000000000002626262646
:1004600026002F0000000000370000000000FFFF02
:10047000FFFF0000BF000000000037000000000088
:100480002626262626000000000000002626262616
:1004900000002F0000002F00370000003700FFFF92
:1004A000FFFF0000BF000000BF0037000000370062
:1004B0002626262600000000000000000000262658
:1004C0002600002F00002F00370000003700FF003B
:1004D0000000FF00BF000000BF0037000037000031
:1004E0002626260000000000000000002600000074
:1004F00026002F0000002F0000370037000000000A
:10050000FF00000000BF00BF000037000000370000
:10051000260000002600000000000000000000008F
:1005200000000000000000000000000000000000CB
:100530000000000000000000009B000000529BA48F
:1005400000005B9B6D7700000000000000000000D1
:10055000000000000000005B000000E4F6FF099BC3
:10056000EDF6FFBFA4ADBFBFBFBF767F7FB7B7BFFC
:100570007F766EB7B7BF00000000000000005BB6DA
:10058000F6F6F6FFFFFFFFBFFFFFFFBFBFAEFFFFA7
:10059000FFB7AD65FFFFB7B6AD65FFFFBFB7AE6E86
:1005A000FFFFBFB7B765000000000000F6F6EDEDF5
:1005B000ADA4B66D6D5C526E6565655265765C5C2A
:1005C00052536E246552526E25255B52772D252598
:1005D000526E6E2D2525000000000000A49B9B4953
:1005E00000006564A49B92006D2525649349656EA7
:1005F000652E9B5224256D25655225246D2D65524F
:1006000025256E2E6452000000000000000000004E
:10061000004A000000005B9B0000005B5B2D0000B7
:10062000525B2E2E00015B2D1C01005C5B014A65B4
:100630004A5B1C6E7F77495B9B77776D5B65776E56
:1006400065656D2D25255C522E25130949641C090D
:10065000095C7F7F091C7F7F777F777F77777F7F3C
:100660007776777F7F6E656E6EA4B6FF655BA4B705
:10067000BFFF526DBFBFBFFF7FBFBFBFBFFFBFBFC9
:10068000B7BFFFFF7FB7BFBFFFFF6EB7BFBFFFFFA3
:1006900077BFBFBFFFFFFFFFBFBFB75BFFFFBFBF9E
:1006A000A464FFFFBFADA47FFFFFBFA4BF7FFFBF58
:1006B000ADBFBFBFFFB6BFBFBF77F7BFBFBF7777C5
:1006C000FFBFBFBF64526D7F6E2E2D2D7F766E6E85
:1006D0006E2E777777762E1C7F776E251C257765B3
:1006E00025251C096E6E1C0949255B494A6E7F64ED
:1006F0005377BF775B5C256E6E255B4A25651C1BB7
:100700005B002524245B53001C1B5B5C00000A5B20
:10071000640000006464000000005C000000000051
:100720000000000000005B5C7FBF77765C6D7FB7E8
:1007300077775C6D7FBF77775C64BFBFBFBF0A5CB4
:100740006EBFBFBF0065646DBFBF00005B6D646DB1
:1007500000000000125B7777777F6E6E77777F7689
:100760006D7677BF776D6E76BF7F6D6E767FBF7665
:1007700076BFBF76BFBFBFB664ADADB6B6ADBFFF87
:10078000646DADB6AD6477BFBFBFFFFF77BFBFBFBE
:10079000FFFF7FBFBFBFFFF6BFB7ADF6FFFFA4AD42
:1007A000FFFFFFFFFFFFFFFFFFFFFFFFFFF6A400BC
:1007B0005B5200000000BFBFAD5B64BFB6ADADBF14
:1007C000FFBFFFFFFFFFBF64FFFFBFB6765BFFBF4A
:1007D000BF5B0000FF5C00000000000000000000A4
:1007E000000000000000BFBF645C5C006E5C6549F7
:1007F00000006D5B00000000000000000000000031
:1008000000000000000000000000000000000000E8
:1008100000000000000006000400000001000200CB
:1008200003000400050006000700080009000A0094
:100830000B000C000D000E000F0010000000110056
:10084000120013001400150016000600030000003B
:100850001700180019001A001B001C001D001E00C4
:100860001F00200021002200230024002500260074
:10087000000000408891D2E4ADB5B6BEBFFFFFFFD7
:10088000FFFFFFFFFFFFFFFFFFFFFFFFFFFFFFFF78
:10089000FFFFFFFFFFFFFFFFFFFFFFFFFFFFFFFF68
:1008A000FFFFFFFFFFFFFFFFFFFFFFFFFFFFFFFF58
:1008B00000000000FFFF00000000FFFF000000003C
:1008C000FFFF00000000FFFF00000000FFFF00002E
:1008D0000000FFFF00000000FFFF00000000FFFF1E
:1008E000FFFFFFFFFFFFFFFFFFFFFFFFFFFFFFFF18
:1008F000FFFFFFFFFFFFFFFFFFFF0000FFFFFF0005
:100900000000FFFF00000000FFFF00000000FFFFED
:1009100000000000FFFF00000000FFFF00000000DB
:10092000FFFF000000000000FFFFFFFF0000FFFFCF
:10093000FFFF0000FFFFFFFF0000FFFFFFFF0000C1
:1009400000000000000000000000000000000000A7
:10095000000000000000000000000000FF00000098
:100960000000FFFF00000000FFFF00000000FFFF8D
:10097000FFFFFFFFFFFFFFFFFFFFFFFFFFFFFFFF87
:10098000FFFFFFFFFF00FFFFFFFF0000FFFFFF0073
:100990000000FFFF00000000FFFF00000000FFFF5D
:1009A000FFFFFFFFFFFFFFFFFFFFFFFFFFFFFFFF57
:1009B0000000000000000000000000000000000037
:1009C0000000000000000000000000000000FFFF29
:1009D00000000000FFFF00000000FFFF000000001B
:1009E0000000000000000000000000000000000007
:1009F00000000000000000000000000000000000F7
:100A0000FFFFFFFF0000FFFFFFFF0000FFFFFFFFF2
:100A10000000FFFFFFFF0000FFFFFFFF0000FFFFE0
:100A2000FFFF0000FFFFFFFF0000FFFFFFFFFFFFD2
:100A300000000000FFFF00000000FFFF00000000BA
:100A4000FFFFFFFFFFFFFFFFFFFFFFFFFFFFFFFFB6
:100A5000FFFFFFFFFFFFFFFFFFFFFFFFFFFF0000A4
:100A60000000000000000000000000000000000086
:100A7000FFFFFFFFFF00FFFFFFFFFFFFFFFFFFFF85
:100A8000FFFFFFFFFFFFFFFFFFFFFFFFFFFFFFFF76
:100A9000FF000000FFFFFF000000FFFFFFFF00005E
:100AA000FFFFFFFF0000FFFFFFFFFF00FFFFFFFF53
:100AB000FF00FFFFFFFFFFFFFFFFFFFFFFFFFFFF45
:100AC000FFFFFFFFFFFFFFFFFFFFFFFFFFFFFFFF36
:100AD000FFFFFFFFFFFFFFFFFFFFFF00FFFFFFFF25
:100AE000FF00FFFFFFFF0000FFFFFFFF0000FF0010
:100AF00000000000FF0000000000000000000000F7
:100B000000000000000000000000000000000000E5
:100B100000000000000000000000000000000000D5
:100B200000000000FF0000000000FF0000000000C7
:100B3000FF0000000000FFFF00000000FFFF0000BA
:100B40000000FFFF00000000FFFF00000000FFFFAB
:100B5000FFFF0000FFFFFF000000FFFFFF0000009D
:100B6000FFFFFF000000FFFF00000000FFFF00008C
:100B70000000FFFF00000000FFFF00000000FFFF7B
:100B800000000000FFFFFF000000FFFFFF0000006B
:100B9000FFFFFF000000FFFFFF000000FFFF00005D
:100BA0000000FF0000000000FF0000000000FFFF49
:100BB00000000000FF0000000000FF000000000037
:100BC000FF0000000000FF0000000000FFFF000029
:100BD0000000FFFFFF000000FFFFFF000000FFFF1D
:100BE000FFFFFFFFFFFFFFFFFFFFFFFFFFFFFFFF15
:100BF000FFFFFFFFFFFFFFFFFFFFFFFFFFFFFFFF05
:100C0000FF00FFFFFFFF0000FFFF00000000FFFFED
:100C100000000000FFFF00000000FFFF00000000D8
:100C2000FF000000000000000000000000000000C5
:100C30000000000000000000000000000000FFFFB6
:100C400000000000FFFF00000000FFFF00000000A8
:100C5000FFFFFF000000FFFFFFFF0000FFFFFFFF9F
:100C6000FF00FFFFFFFFFFFFFFFFFFFFFFFF000091
:100C70000000000000000000000000000000000074
:100C80000000000000000000000000000000000064
:100C90000000000000000000FFFF00000000FFFF58
:100CA000FFFFFFFFFFFFFFFFFF00FFFFFFFFFF0052
:100CB000FFFFFFFFFFFFFFFFFFFFFFFFFFFFFFFF44
:100CC000FFFFFFFFFFFFFFFFFFFFFFFFFFFF000032
:100CD0000000000000000000000000000000000014
:100CE000000000000000FFFFFF000000FFFFFFFF0B
:100CF000FFFFFFFFFFFFFFFFFFFFFFFFFFFF000002
:100D000000000000000000000000000000000000E3
:100D1000000000000000000000000000FFFF0000D5
:100D20000000FFFFFFFF0000FFFFFF000000FFFFCC
:100D3000FFFFFFFFFFFFFFFFFFFFFFFFFFFFFFFFC3
:100D4000FFFFFFFFFFFFFFFFFFFFFFFFFFFF0000B1
:100D50000000000000000000FF0000000000FFFF96
:100D6000FFFF0000FFFFFFFFFF00FFFFFFFFFF008F
:100D7000FFFFFFFF0000FF00000000000000000078
:100D80000000000000000000000000000000FFFF65
:100D9000FF000000FFFFFFFF0000FFFFFFFFFF005D
:100DA000FFFFFFFFFF00FFFFFFFFFF00FFFFFFFF51
:100DB000FF00FFFFFFFFFF00FFFFFFFFFF00FFFF40
:100DC000FFFFFFFFFFFFFFFFFFFFFFFFFFFFFF0032
:100DD000FFFFFFFFFF00FFFFFFFFFF00FFFFFFFF21
:100DE000FF00FFFFFFFFFF00FFFFFFFFFF00FF000F
:100DF00000000000000000000000000000000000F3
:100E000000000000000000000000000000000000E2
:100E100000000000000000000000000000000000D2
:100E200000000000000000000000000000000000C2
:100E300000FFFFFF0000FFFFFFFF0000FFFFFFFFBD
:100E40000000FFFFFFFF0000FFFFFFFF00000000AA
:100E50000000000000000000000000000000000092
:100E6000000000000000000000000000000000FF83
:100E7000FFFF0000FFFFFFFF00FFFFFFFFFF00007D
:100E80000000000000000000000000000000000062
:100E9000000000000000000000000000FF00000053
:100EA0000000FF0000000000FF0000000000000044
:100EB0000000000000000000000000000000000032
:100EC0000000000000FF00000000FFFF0000000025
:100ED000FFFF00000000FFFF00000000FFFF000018
:100EE0000000000000000000000000000000000002
:100EF000FFFF00000000FFFF00000000FFFF0000F8
:100F00000000FFFF00000000FFFF00000000FFFFE7
:100F1000FFFFFF00FFFFFFFFFF00FFFFFFFFFF00DE
:100F2000FFFFFFFFFF00FFFFFFFFFF00FFFFFFFFCF
:100F3000FF00FFFFFFFFFF00FFFFFFFF0000FFFFBD
:100F4000FFFFFF00FFFFFFFFFF00FFFFFFFFFF00AE
:100F5000FFFFFFFFFF00FFFFFFFFFF00FFFFFFFF9F
:100F6000FF00FFFFFFFFFF00FFFFFFFFFFFF00008D
:100F70000000000000000000000000000000000071
:100F80000000000000000000000000000000000061
:100F900000FF0000000000FF0000000000FF000054
:100FA00000000000000000FFFFFF00FFFFFFFFFF49
:100FB000FFFFFFFFFFFFFFFFFFFFFF00FFFFFFFF40
:100FC0000000FFFFFF000000FFFFFF000000000027
:100FD00000000000FFFF00000000FFFFFF00000016
:100FE000FFFFFF0000000000000000000000000004
:100FF0000000000000000000000000000000FFFFF3
:10100000FFFF0000FFFFFFFFFFFFFFFFFFFFFFFFEE
:10101000FFFFFFFFFFFFFFFFFFFF0000FFFFFFFFDE
:101020000000FFFFFFFF0000FFFFFFFF00000000C8
:1010300000000000FFFF00000000FFFFFFFF0000B6
:10104000FFFFFFFF0000FFFFFFFFFF0000FFFFFFAC
:10105000FF0000FFFFFFFF0000FFFFFFFF00000099
:10106000000000000000000000FF000000FFFFFF84
:101070000000FFFFFFFF0000FFFFFFFF00FFFFFF7B
:10108000FF0000FFFFFFFF0000FFFFFFFFFF00006A
:1010900000000000FFFFFFFF0000FFFFFFFFFF0059
:1010A000FFFFFFFFFFFF0000FFFFFFFF000000FF4B
:1010B000FFFF000000FFFFFFFFFFFFFFFFFF00003B
:1010C0000000000000000000000000000000FFFF22
:1010D000000000FFFFFF000000FFFFFFFF0000FF18
:1010E000FFFFFF0000FFFFFFFF000000FFFF000009
:1010F00000000000FFFFFFFFFFFFFFFFFFFFFFFFFC
:10110000FFFFFFFFFFFFFF0000000000FF000000E7
:101110000000FFFFFFFFFFFFFFFFFFFFFFFF0000DB
:101120000000000000000000000000000000FFFFC1
:10113000000000FFFFFF000000FFFFFF000000FFB6
:10114000FFFF000000FFFFFF00000000FFFF0000A6
:10115000000000000000000000000000000000FF90
:101160000000000000FF00000000FFFF0000000082
:10117000FFFF000000FFFFFF000000FFFFFF00FF78
:10118000FFFFFFFFFFFFFFFFFFFFFFFF00FFFFFF6E
:10119000FFFF00FFFFFFFF0000FFFFFFFF0000FF5A
:1011A000FFFFFF0000FFFFFFFFFFFFFFFFFFFF004C
:1011B00000000000FF0000000000FF000000000031
:1011C000FF0000000000FF0000000000FF00000022
:1011D0000000FF0000000000FFFFFF000000000013
:1011E00000000000FFFFFFFF0000FFFFFFFF000007
:1011F000FFFFFFFF0000FFFFFFFF0000FFFFFFFFFB
:101200000000FFFFFFFF0000FFFFFFFF00000000E6
:101210000000000000FFFFFFFF0000FFFFFFFF00D6
:1012200000FFFFFFFF0000FFFFFFFF0000FFFFFFC9
:10123000FF0000FFFFFFFF0000FFFFFFFF000000B7
:101240000000000000FFFFFFFFFF00FFFFFFFFFFA8
:1012500000FFFFFFFFFF0000000000FF0000000094
:1012600000FF00000000FFFF000000FFFFFF000084
:1012700000000000FFFFFFFFFF00FFFFFFFFFF0078
:10128000FFFFFFFFFF00FFFFFFFF0000FFFFFFFF6B
:101290000000FFFFFF000000FFFF00000000000053
:1012A0000000FFFF00000000FFFF00000000FFFF44
:1012B00000000000FFFF00000000FFFFFF00000033
:1012C000FFFFFF000000FFFFFF000000FFFFFFFF28
:1012D00000000000FFFFFFFFFFFFFFFFFFFFFFFF1A
:1012E000FFFFFFFFFFFFFFFF000000FFFFFF000009
:1012F0000000FFFF00000000FFFF000000000000F2
:1013000000000000FF0000000000FFFF00000000E0
:10131000FFFFFF000000FFFFFF000000FFFFFFFFD7
:101320000000FFFFFFFF0000FFFFFFFF00000000C5
:101330000000000000000000FFFF0000FFFFFFFFB3
:1013400000FFFFFFFFFF00FFFFFFFFFFFFFFFFFFAB
:10135000FF00FFFFFFFF0000FFFFFFFF0000000096
:1013600000000000FFFFFF000000FFFFFFFFFF0085
:10137000FFFFFFFFFFFF00FFFFFFFFFF0000FFFF7A
:10138000FFFF000000FFFFFF000000FFFFFF000065
:10139000000000000000FFFFFFFF000000FFFFFF54
:1013A00000000000FFFF00000000FFFFFF00000042
:1013B00000FFFF0000000000FF0000000000000030
:1013C00000000000FF000000FFFFFF000000FFFF23
:1013D000FFFF00FFFFFFFFFFFFFFFFFFFFFFFFFF1C
:1013E000FFFFFFFFFFFFFF00FFFFFFFFFF00000009
:1013F00000000000FFFFFF000000FFFF00000000F2
:10140000FF000000000000000000000000000000DD
:101410000000000000000000000000000000FFFFCE
:10142000FFFF0000FFFFFFFF0000FFFFFFFF0000C6
:10143000FFFFFFFF0000FFFFFFFF0000FFFFFFFFB8
:101440000000FFFFFFFF0000FFFFFFFF00000000A4
:10145000000000FF0000000000FF0000000000008E
:10146000000000000000000000000000000000007C
:101470000000000000000000000000000000FFFF6E
:10148000FF000000FFFFFFFF0000FFFFFFFFFF0066
:10149000FFFFFFFFFFFF00FFFFFFFFFF000000FF58
:1014A000FFFF00000000000000000000000000003E
:1014B000000000000000000000000000000000002C
:1014C000FFFFFF000000FFFFFF000000FFFF000024
:1014D0000000000000000000000000000000FFFF0E
:1014E000FFFF0000FFFFFFFF0000FFFFFFFF000006
:1014F000FFFFFFFF0000FFFFFFFF0000FFFFFFFFF8
:10150000000000000000000000000000000000FFDC
:10151000FFFFFF0000FFFFFFFF0000FFFFFFFF00D6
:1015200000FFFFFFFF0000FFFFFFFF0000FFFFFFC6
:10153000FF0000000000000000000000000000FFAD
:10154000FFFFFFFF00FFFFFFFF000000FFFFFFFFA7
:101550000000FFFFFFFF000000FFFFFF0000000092
:1015600000FF000000000000000000000000FFFF7E
:10157000FFFFFFFF0000000000000000000000006F
:10158000FFFFFFFFFFFFFFFFFFFFFFFFFFFFFFFF6B
:10159000FF00000000000000000000000000FF004D
:1015A000000000FF000000000000000000FF00003D
:1015B000000000FFFFFF000000FFFFFF0000000031
:1015C000FFFF000000000000000000000000FFFF1F
:1015D000FFFFFFFF0000FFFFFFFF000000FFFFFF16
:1015E000FFFFFFFFFFFFFFFFFFFFFFFFFFFFFFFF0B
:1015F0000000000000000000000000000000FF00EC
:10160000000000FFFF0000000000FF0000FF0000DE
:10161000FF0000FFFFFF000000FFFFFF00000000D1
:10162000FFFF000000000000000000000000FF00BD
:1016300000FFFFFFFF0000FFFFFFFF0000000000B2
:10164000FF0000000000000000000000000000009B
:101650000000000000000000000000000000FFFF8C
:10166000FFFFFFFFFFFFFFFFFFFF000000FFFFFF87
:10167000000000FFFFFF000000FFFFFF000000FF71
:10168000FFFF000000000000000000000000FFFF5E
:10169000FF000000FFFFFF000000FF00000000004F
:1016A000FF0000000000FF0000000000FF0000003D
:1016B0000000000000000000000000000000FFFF2C
:1016C000FFFF0000FFFFFFFF0000FFFFFFFFFF0025
:1016D00000FFFFFFFFFF00FFFFFFFFFF000000FF15
:1016E000FFFF00000000000000000000000000FFFD
:1016F000FFFFFF0000FFFFFFFF0000FFFFFFFF00F5
:10170000FFFFFFFFFF00FFFFFFFFFF00FFFFFFFFE7
:1017100000000000000000000000000000000000C9
:1017200000FFFFFF0000FFFFFFFF0000FFFFFFFFC4
:1017300000FFFFFFFFFF00FFFFFFFFFF00FFFFFFB6
:10174000FFFF000000000000000000000000FFFF9D
:1017500000000000FF0000000000FF00000000008B
:10176000FFFFFFFFFF00FFFFFFFFFF00FFFFFFFF87
:10177000FF00000000000000000000000000FF006B
:101780000000FFFF00000000FFFF00000000FFFF5F
:1017900000000000FFFF00000000FFFF000000004D
:1017A00000FF000000000000000000000000FFFF3C
:1017B00000000000FFFF000000FFFFFF0000FFFF30
:1017C000FFFFFFFFFFFFFFFFFFFFFFFFFFFFFFFF29
:1017D000FFFF000000000000000000000000FFFF0D
:1017E000FFFF0000FFFFFFFF0000FFFFFF00000002
:1017F000FFFFFF000000FFFF0000000000000000EE
:101800000000000000000000000000000000FFFFDA
:10181000FFFF0000FFFFFFFFFF0000FFFFFFFFFFD4
:1018200000FFFFFFFFFF0000FFFFFFFF00000000C1
:10183000FFFF0000000000000000000000000000AA
:1018400000FFFFFF0000FFFFFFFF00FFFFFFFFFFA4
:10185000FFFFFFFFFFFFFFFFFFFFFF00FFFFFF0096
:101860000000000000000000000000000000FF0079
:1018700000000000FF00000000FF00000000FFFF6C
:1018800000000000FFFF000000FFFFFF0000FFFF5F
:10189000FFFF000000000000000000000000FFFF4C
:1018A000FFFFFF00FFFFFFFFFFFFFFFFFFFFFFFF47
:1018B000FFFF00FFFFFFFFFF00FFFFFFFF00000033
:1018C000FFFF00000000000000000000000000001A
:1018D00000000000000000000000FF000000000009
:1018E000FF0000000000FFFF00000000FFFFFF00FE
:1018F0000000000000000000000000000000FFFFEA
:10190000FFFF0000FFFFFFFF0000FFFFFF000000E0
:10191000FFFFFF000000FFFFFF000000FFFFFF00D0
:101920000000FFFFFF000000FFFFFF0000000000BD
:1019300000000000000000000000FF0000000000A8
:10194000FF0000000000FF0000000000FF0000009A
:101950000000FF0000000000FF0000000000FFFF8B
:10196000FF000000FFFFFF000000FFFFFF0000007E
:10197000FFFFFF000000FFFF00000000FFFF00006E
:101980000000FFFF00000000FFFF00000000FF005C
:1019900000000000FF0000000000FF000000000049
:1019A000FF0000000000FFFF00000000FFFF00003C
:1019B0000000FFFF00000000FFFF00000000FFFF2D
:1019C00000000000FF0000000000FF000000000019
:1019D000FF0000000000FF00000000000000000009
:1019E0000000000000000000000000000000FFFFF9
:1019F00000000000FFFFFF000000FFFFFF000000ED
:101A0000FFFFFF000000FFFFFF000000FFFFFFFFE0
:101A10000000FFFFFFFF0000FFFFFFFF0000FFFFD0
:101A2000FFFFFFFFFFFFFFFFFF00FFFFFFFFFF00C4
:101A3000FFFFFFFFFF00FFFFFFFF0000FFFFFFFFB3
:101A40000000FFFFFFFF0000FFFFFF000000FFFF9F
:101A5000FFFF0000FFFFFFFFFF00FFFFFFFFFF0092
:101A6000FFFFFFFFFF00FFFFFFFFFFFFFFFFFFFF85
:101A7000FFFFFFFFFFFFFFFFFFFFFFFFFFFF000074
:101A80000000000000000000000000000000000056
:101A90000000000000000000000000000000000046
:101AA0000000000000000000FF0000000000FFFF39
:101AB000FFFFFFFFFFFFFFFFFFFFFFFFFFFFFFFF36
:101AC000FFFFFFFFFFFFFFFFFFFFFFFFFFFFFFFF26
:101AD000FFFFFFFFFFFFFFFFFFFFFFFFFF00FFFF15
:101AE000FF000000FFFF00000000FFFF00000000FB
:101AF000FF0000000000FF0000000000FF000000E9
:101B00000000000000000000000000000000FF00D6
:101B100000000000FFFF00000000FFFF00000000C9
:101B2000FFFFFF000000FFFFFF000000FFFFFF00BE
:101B30000000FFFFFFFF0000FFFFFFFFFF00FFFFB0
:101B4000FFFFFF00FFFFFFFFFF00FFFFFFFF0000A1
:101B5000FFFFFFFF0000FFFFFF000000FFFFFF008F
:101B60000000FFFF00000000FFFF00000000FFFF7B
:101B7000FFFFFF00FFFFFFFFFF00FFFFFFFFFFFF73
:101B8000FFFFFFFFFFFFFFFFFFFFFFFFFFFFFFFF65
:101B9000FFFFFFFFFFFFFFFFFFFFFFFFFFFF000053
:101BA0000000000000000000000000000000000035
:101BB000000000000000FF0000000000FF00000027
:101BC0000000FFFF00000000FFFF00000000FFFF1B
:101BD000FFFFFFFFFFFFFFFFFFFFFFFFFFFFFFFF15
:101BE000FFFFFFFFFF00FFFFFFFF0000FFFFFFFF02
:101BF0000000FFFFFF000000FFFFFF000000FFFFED
:101C0000FF000000FFFFFFFF0000FFFFFFFF0000DD
:101C1000FFFFFFFFFF00FFFFFFFFFFFFFFFFFFFFD3
:101C2000FFFFFFFFFFFFFFFFFFFFFFFFFFFF0000C2
:101C300000000000000000000000000000000000A4
:101C40000000000000000000000000000000000094
:101C50000000FF0000000000FF0000000000FFFF88
:101C600000000000FFFF00000000FFFF0000000078
:101C7000FFFF00000000FFFF00000000FFFF00006A
:101C80000000FFFFFF000000FFFFFFFF0000FFFF5D
:101C900000000000FFFF00000000FFFF0000000048
:101CA000FFFF00000000FFFF00000000FFFF00003A
:101CB0000000FF0000000000000000000000000025
:101CC0000000000000000000000000000000000014
:101CD0000000000000000000000000000000000004
:101CE00000000000000000000000000000000000F4
:101CF00000FF00000000FFFFFF000000FFFFFF00EB
:101D0000000000FF0000000000FF000000000000D5
:101D10000000000000FF000000000000000000FFC5
:101D2000FF00FFFF00FFFF00FFFF00FF0000FF00BC
:101D300000000000000000000000000000000000A3
:101D40000000000000000000000000000000000093
:101D5000000000000000FF00FF0000FFFFFFFFFF8A
:101D60000000FF00FF000000FF00FF0000FFFFFF7A
:101D7000FFFF0000FF00FF00000000000000000067
:101D8000FF0000000000FFFFFF0000FF0000000058
:101D90000000FFFF000000000000FF0000FFFFFF49
:101DA0000000000000FF000000000000000000FF35
:101DB000FF0000FF00FFFF0000FF00000000FF0029
:101DC000000000FF00000000FF00000000FF000016
:101DD000FFFF00FF0000FFFF000000000000000008
:101DE000FF00000000FF00FF000000FF00FF0000F8
:101DF0000000FF00000000FF00FF00FF00FF0000E8
:101E0000FF000000FFFF00FF0000000000000000D6
:101E1000FFFF00000000FFFF00000000FF000000C7
:101E200000000000000000000000000000000000B2
:101E300000000000000000000000000000000000A2
:101E400000FF00000000FF0000000000FF00000095
:101E50000000FF0000000000FF0000000000FF0085
:101E60000000000000FF0000000000000000000073
:101E7000FF000000000000FF0000000000FF000065
:101E8000000000FF0000000000FF0000000000FF55
:101E900000000000FF000000000000000000000043
:101EA000000000000000FF00FF000000FFFFFF0037
:101EB00000FFFFFFFFFF0000FFFFFF000000FF002B
:101EC000FF00000000000000000000000000000013
:101ED00000000000000000FF0000000000FF000004
:101EE00000FFFFFFFFFF000000FF0000000000FFF9
:101EF00000000000000000000000000000000000E2
:101F000000000000000000000000000000000000D1
:101F10000000000000000000000000000000FFFFC3
:101F200000000000FFFF00000000FF0000000000B4
:101F300000000000000000000000000000000000A1
:101F400000FFFFFFFFFF0000000000000000000096
:101F50000000000000000000000000000000000081
:101F60000000000000000000000000000000000071
:101F70000000000000000000000000000000FFFF63
:101F800000000000FFFF0000000000000000000053
:101F9000000000000000000000FF00000000FF0043
:101FA000000000FF00000000FF00000000FF000034
:101FB0000000000000000000000000000000000021
:101FC000FFFFFF0000FF000000FF00FF0000FFFF19
:101FD00000FF00FF00FF00FFFF0000FF00FF000008
:101FE00000FF0000FFFFFF000000000000000000F5
:101FF00000FF00000000FFFF0000000000FF0000E5
:10200000000000FF0000000000FF0000000000FFD3
:1020100000000000FFFFFF000000000000000000C3
:10202000FFFFFF0000FF000000FF0000000000FFB6
:10203000000000FFFF000000FF00000000FF0000A4
:10204000000000FFFFFFFFFF000000000000000095
:10205000FFFFFF0000FF000000FF0000000000FF86
:102060000000FFFFFF000000000000FF00FF000075
:1020700000FF0000FFFFFF00000000000000000064
:102080000000FF00000000FFFF000000FF00FF0055
:1020900000FF0000FF0000FFFFFFFFFF0000000047
:1020A000FF0000000000FF0000000000000000FF33
:1020B000FFFFFFFF00FF0000000000FF0000000026
:1020C00000FFFFFFFF000000000000FF00FF000016
:1020D00000FF0000FFFFFF00000000000000000004
:1020E00000FFFF000000FF00000000FF00000000F4
:1020F00000FFFFFFFF0000FF000000FF00FF0000E7
:1021000000FF0000FFFFFF0000000000000000FFD4
:10211000FFFFFFFF0000000000FF00000000FF00C5
:10212000000000FF00000000FF0000000000FF00B2
:1021300000000000FF0000000000000000000000A0
:10214000FFFFFF0000FF000000FF00FF000000FF96
:102150000000FFFFFF0000FF000000FF00FF000085
:1021600000FF0000FFFFFF00000000000000000073
:10217000FFFFFF0000FF000000FF00FF000000FF66
:102180000000FFFFFFFF0000000000FF0000000054
:10219000FF000000FFFF0000000000000000000042
:1021A000000000000000000000000000FFFF000031
:1021B0000000FFFF00000000000000000000FFFF23
:1021C00000000000FFFF0000000000000000000011
:1021D000000000000000000000000000FFFF000001
:1021E0000000FFFF00000000000000000000FFFFF3
:1021F00000000000FFFF00000000FF0000000000E2
:102200000000FF00000000FF00000000FF000000D1
:1022100000FF000000000000FF000000000000FFC1
:10222000000000000000FF000000000000000000AF
:102230000000000000000000000000FFFFFFFFFFA3
:1022400000000000000000000000000000FFFFFF91
:10225000FFFF000000000000000000000000000080
:10226000FF000000000000FF000000000000FF0071
:102270000000000000FF00000000FF00000000FF61
:1022800000000000FF00000000000000000000004F
:10229000FFFFFF0000FF000000FF0000000000FF44
:1022A000000000FFFF00000000FF00000000000031
:1022B0000000000000FF000000000000000000001F
:1022C000FFFFFF0000FF000000FF00FF00FFFFFF17
:1022D00000FF00FF00FF00FF00FFFFFF00FF000006
:1022E00000000000FFFFFF000000000000000000F1
:1022F000FFFFFF0000FF000000FF00FF000000FFE5
:1023000000FF000000FF00FFFFFFFFFF00FF0000D5
:1023100000FF00FF000000FF00000000000000FFC1
:10232000FFFFFF0000FF000000FF00FF000000FFB4
:1023300000FFFFFFFF0000FF000000FF00FF0000A4
:1023400000FF00FFFFFFFF00000000000000000092
:10235000FFFFFF0000FF000000FF00FF0000000083
:1023600000FF0000000000FF0000000000FF000070
:1023700000FF0000FFFFFF0000000000000000FF62
:10238000FFFFFF0000FF000000FF00FF000000FF54
:1023900000FF000000FF00FF000000FF00FF000042
:1023A00000FF00FFFFFFFF0000000000000000FF33
:1023B000FFFFFFFF00FF0000000000FF0000000023
:1023C00000FFFFFFFF0000FF0000000000FF000013
:1023D000000000FFFFFFFFFF00000000000000FF03
:1023E000FFFFFFFF00FF0000000000FF00000000F3
:1023F00000FFFFFFFF0000FF0000000000FF0000E3
:10240000000000FF000000000000000000000000CD
:10241000FFFFFF0000FF000000FF00FF00000000C2
:1024200000FF00FFFFFF00FF000000FF00FF0000B3
:1024300000FF0000FFFFFFFF00000000000000FFA2
:10244000000000FF00FF000000FF00FF000000FF91
:1024500000FFFFFFFFFF00FF000000FF00FF000084
:1024600000FF00FF000000FF00000000000000006F
:10247000FFFFFF00000000FF0000000000FF000061
:10248000000000FF0000000000FF0000000000FF4F
:1024900000000000FFFFFF0000000000000000003F
:1024A000000000FF0000000000FF0000000000FF2F
:1024B0000000000000FF00FF000000FF00FF000020
:1024C00000FF0000FFFFFF0000000000000000FF11
:1024D000000000FF00FF0000FF0000FF00FF000001
:1024E00000FFFF00000000FF00FF000000FF0000F1
:1024F000FF0000FF000000FF00000000000000FFE0
:102500000000000000FF0000000000FF00000000CD
:1025100000FF0000000000FF0000000000FF0000BE
:10252000000000FFFFFFFFFF00000000000000FFB1
:10253000000000FF00FFFF00FFFF00FF00FF00FFA3
:1025400000FF000000FF00FF000000FF00FF000090
:1025500000FF00FF000000FF00000000000000FF7F
:10256000000000FF00FFFF0000FF00FF00FF00FF72
:1025700000FF0000FFFF00FF000000FF00FF000061
:1025800000FF00FF000000FF00000000000000004E
:10259000FFFFFF0000FF000000FF00FF000000FF42
:1025A00000FF000000FF00FF000000FF00FF000030
:1025B00000FF0000FFFFFF0000000000000000FF20
:1025C000FFFFFF0000FF000000FF00FF000000FF12
:1025D00000FFFFFFFF0000FF0000000000FF000001
:1025E000000000FF000000000000000000000000EC
:1025F000FFFFFF0000FF000000FF00FF000000FFE2
:1026000000FF000000FF00FF00FF00FF00FF0000D0
:10261000FF000000FFFF00FF00000000000000FFBF
:10262000FFFFFF0000FF000000FF00FF000000FFB1
:1026300000FFFFFFFF0000FF0000FF0000FF0000A1
:1026400000FF00FF000000FF00000000000000008D
:10265000FFFFFF0000FF000000FF00FF0000000080
:102660000000FFFFFF000000000000FF00FF00006F
:1026700000FF0000FFFFFF0000000000000000FF5F
:10268000FFFFFFFF000000FF0000000000FF000050
:10269000000000FF0000000000FF0000000000FF3D
:1026A0000000000000FF000000000000000000FF2C
:1026B000000000FF00FF000000FF00FF000000FF1F
:1026C00000FF000000FF00FF000000FF00FF00000F
:1026D00000FF0000FFFFFF0000000000000000FFFF
:1026E000000000FF00FF000000FF00FF000000FFEF
:1026F00000FF000000FF00FF000000FF0000FF00DF
:10270000FF00000000FF000000000000000000FFCC
:10271000000000FF00FF000000FF00FF00FF00FFBF
:1027200000FF00FF00FF00FF00FF00FF00FF00FFB1
:1027300000FF0000FF00FF0000000000000000FF9D
:10274000000000FF00FF000000FF0000FF00FF008E
:10275000000000FF00000000FF00FF0000FF00007D
:1027600000FF00FF000000FF00000000000000FF6D
:10277000000000FF00FF000000FF00FF000000FF5E
:102780000000FF00FF00000000FF0000000000FF4D
:102790000000000000FF000000000000000000FF3B
:1027A000FFFFFF0000000000FF00000000FF00002E
:1027B0000000FF00000000FF0000000000FF00001C
:1027C000000000FFFFFFFF0000000000000000000D
:1027D000FFFFFF000000FF0000000000FF000000FE
:1027E0000000FF0000000000FF0000000000FF00EC
:1027F00000000000FFFFFF000000000000000000DC
:102800000000000000FF000000000000FF000000CA
:10281000000000FF000000000000FF0000000000BA
:1028200000FF0000000000000000000000000000A9
:10283000FFFFFF0000000000FF0000000000FF009D
:1028400000000000FF0000000000FF00000000008A
:10285000FF000000FFFFFF0000000000000000007C
:1028600000FF00000000FF00FF0000FF000000FF6D
:102870000000000000000000000000000000000058
:102880000000000000000000000000000000000048
:102890000000000000000000000000000000000038
:1028A0000000000000000000000000000000000028
:1028B0000000000000000000FFFFFFFFFFFF00001E
:1028C000FFFF00000000FFFF0000000000FF00000D
:1028D00000000000000000000000000000000000F8
:1028E00000000000000000000000000000000000E8
:1028F000000000000000000000000000FFFFFF00DB
:102900000000000000FF0000FFFFFFFF00FF0000CD
:1029100000FF0000FFFFFFFF00000000000000FFBD
:102920000000000000FF0000000000FFFFFFFF00AC
:1029300000FF000000FF00FF000000FF00FF00009C
:1029400000FF00FFFFFFFF0000000000000000008C
:10295000000000000000000000000000FFFFFF007A
:1029600000FF000000FF00FF0000000000FF00006B
:1029700000FF0000FFFFFF0000000000000000005B
:10298000000000FF0000000000FF0000FFFFFFFF4D
:1029900000FF000000FF00FF000000FF00FF00003C
:1029A00000FF0000FFFFFFFF00000000000000002C
:1029B000000000000000000000000000FFFFFF001A
:1029C00000FF000000FF00FFFFFFFF0000FF00000E
:1029D00000000000FFFFFF000000000000000000FA
:1029E00000FFFF000000FF0000000000FF000000EB
:1029F00000FFFFFFFF000000FF0000000000FF00DD
:102A000000000000FF0000000000000000000000C7
:102A1000000000000000000000000000FFFFFFFFBA
:102A200000FF000000FF00FF000000FF0000FFFFAC
:102A3000FFFF0000000000FF0000FFFFFF0000FF9D
:102A40000000000000FF0000000000FFFFFF00008A
:102A500000FF0000FF0000FF0000FF0000FF00007B
:102A6000FF0000FF0000FF00000000000000000069
:102A700000FF0000000000000000000000FF000058
:102A8000000000FF0000000000FF0000000000FF49
:102A90000000000000FFFF00000000000000000038
:102AA0000000FF00000000000000000000FFFF0029
:102AB00000000000FF0000000000FF000000000018
:102AC000FF0000FF0000FF000000FFFF000000FF0C
:102AD0000000000000FF0000000000FF0000FF00F9
:102AE00000FF00FF000000FFFF00000000FF00FFEC
:102AF000000000FF0000FF000000000000000000D8
:102B000000FF0000000000FF0000000000FF0000C8
:102B1000000000FF0000000000FF0000000000FFB8
:102B20000000000000FFFF000000000000000000A7
:102B30000000000000000000000000FFFF00FF0098
:102B400000FF00FF00FF00FF00FF00FF00FF00008C
:102B500000FF00FF000000FF000000000000000078
:102B60000000000000000000000000FFFFFF000068
:102B700000FF0000FF0000FF0000FF0000FF00005A
:102B8000FF0000FF0000FF00000000000000000048
:102B9000000000000000000000000000FFFFFF0038
:102BA00000FF000000FF00FF000000FF00FF00002A
:102BB00000FF0000FFFFFF00000000000000000019
:102BC0000000000000000000000000FFFFFFFF0009
:102BD00000FF000000FF00FF000000FF00FF0000FA
:102BE00000FF00FFFFFFFF0000FF000000000000EB
:102BF000000000000000000000000000FFFFFFFFD9
:102C000000FF000000FF00FF000000FF00FF0000C9
:102C100000FF0000FFFFFFFF0000000000FF0000BA
:102C20000000000000000000000000FF00FFFF00A7
:102C30000000FF0000FF0000FF0000000000FF0098
:102C4000000000FFFFFF0000000000000000000087
:102C5000000000000000000000000000FFFFFF0077
:102C600000FF000000000000FFFFFF000000000068
:102C700000FF0000FFFFFF00000000000000000058
:102C8000000000000000FF00000000FFFFFFFF0049
:102C90000000FF0000000000FF0000000000FF0037
:102CA000FF00000000FF0000000000000000000026
:102CB0000000000000000000000000FF0000FF0016
:102CC00000FF0000FF0000FF0000FF0000FF00FF0A
:102CD000FF000000FF00FF000000000000000000F7
:102CE0000000000000000000000000FF000000FFE6
:102CF00000FF000000FF00FF000000FF0000FF00D9
:102D0000FF00000000FF00000000000000000000C5
:102D10000000000000000000000000FF000000FFB5
:102D200000FF000000FF00FF00FF00FF00FFFFFFAB
:102D3000FFFF0000FF00FF00000000000000000097
:102D40000000000000000000000000FF0000FF0085
:102D500000FF0000FF000000FFFF000000FF000078
:102D6000FF0000FF0000FF00000000000000000066
:102D70000000000000000000000000FF0000FF0055
:102D800000FF0000FF0000FF0000FF000000FFFF49
:102D9000FF00000000FF000000FFFF000000000037
:102DA0000000000000000000000000FFFFFFFF0027
:102DB00000000000FF000000FFFF000000FF000017
:102DC000000000FFFFFFFF00000000000000000007
:102DD00000FFFF000000FF0000000000FF000000F7
:102DE00000FFFF0000000000FF0000000000FF00E7
:102DF0000000000000FFFF000000000000000000D5
:102E000000FF0000000000FF0000000000FF0000C5
:102E1000000000000000000000FF0000000000FFB4
:102E20000000000000FF00000000000000000000A3
:102E3000FFFF000000000000FF0000000000FF0096
:102E400000000000FFFF00000000FF000000000085
:102E5000FF000000FFFF0000000000000000000075
:102E6000FF00FF0000FF00FF000000000000000066
:102E70000000000000000000000000000000000052
:102E80000000000000000000000000000000000042
:102E900000FF00000000FFFFFF0000FFFF00FFFF3A
:102EA00000FF000000FF00FF000000FF00FFFFFF29
:102EB000FFFF000000000000000000000000C7C786
:102EC000C7C7C7C7C7C7C7C7C7C7C7C7C7C7C7C792
:102ED000C7C7C7C7C7C7C7C7C7C7C7C7C7C7C7C782
:102EE000C7C7C7C7C7C7C7C7C7C7C7C7C7C7281CBC
:102EF000000000000000000000016C6C6C6C6C6C49
:102F00006C6C6C6C6C6C6C6C6C6C6C6C6C6C6C6C01
:102F10006C6C6C6C6C6C6C6C000000000000000051
:102F20000203046C6C6C6C6C6C6C6C6C6C6C6C6C1C
:102F30006C6C6C6C6C6C6C6C6C6C6C6C6C6C6C6CD1
:102F400000000000000005060708090A046C6C6C0C
:102F50006C6C6C6C6C6C6C6C6C6C6C6C6C6C6C6CB1
:102F60006C6C6C6C6C6C6C6C0000000000000B6C8A
:102F70006C08000C0D6C6C6C6C6C6C6C6C6C6C6C20
:102F80006C6C6C6C6C6C6C6C6C6C6C6C6C6C6C6C81
:102F9000000000000000000E6C08000F6C6C6C6CF0
:102FA0006C6C6C6C6C6C6C6C6C6C6C6C6C6C6C6C61
:102FB0006C6C6C6C6C6C6C6C0000000000000010A1
:102FC0006C0800116C6C6C6C6C6C6C6C6C6C6C6C6C
:102FD0006C6C6C6C6C6C6C6C6C6C6C6C6C6C6C6C31
:102FE00000000000000012136C080014156C6C6CDB
:102FF0006C6C6C6C6C6C6C6C6C6C6C6C6C6C6C6C11
:103000006C6C6C6C6C6C6C6C00000000001617181B
:103010006C0800191A6C6C6C6C6C6C6C6C6C6C6C65
:103020006C6C6C6C6C6C6C6C6C6C6C6C6C6C6C6CE0
:10303000000000000000001B6C081C1D6C6C1E6C66
:103040006C6C6C6C6C6C6C1F206C6C6C6C6C6C21A4
:10305000226C6C6C6C6C6C6C000000000000002337
:103060006C082425262728292A2B2C2D2E2D2F309D
:1030700031323334352A2B363738393A3B3C3D6CC4
:10308000000000000000003E6C08003F4041424349
:10309000444546474847494A4B4C4D4E4F4445509E
:1030A000515253545556576C000000000000005810
:1030B0006C0800596C6C6C6C6C6C6C6C6C6C6C6C33
:1030C0006C6C6C6C6C6C6C6C6C6C6C6C6C6C6C6C40
:1030D000000000000000005A6C08005B6C6C6C6C17
:1030E0006C6C6C6C6C6C6C6C6C6C6C6C6C6C6C6C20
:1030F0006C6C6C6C6C6C6C6C000000000000005C14
:103100006C08005D6C6C6C6C6C6C6C6C6C6C6C6CDE
:103110006C6C6C6C6C6C6C6C6C6C6C6C6C6C6C6CEF
:103120000000000000005E6C6C08005F606C6C6C5E
:103130006C6C6C6C6C6C6C6C6C6C6C6C6C6C6C6CCF
:103140006C6C6C6C6C6C6C6C000000000061626CF0
:103150006C080000636C6C6C6C6C6C6C6C6C6C6CF4
:103160006C6C6C6C6C6C6C6C6C6C6C6C6C6C6C6C9F
:103170000000000000646C6C6C08000065666C6CFC
:103180006C6C6C6C6C6C6C6C6C6C6C6C6C6C6C6C7F
:103190006C6C6C6C6C6C6C6C00000000671D6C6C73
:1031A0006C0800000068696C6C6C6C6C6C6C6C6C0E
:1031B0006C6C6C6C6C6C6C6C6C6C6C6C6C6C6C6C4F
:1031C000000000006A6C6C6C6C08000000006B6C06
:1031D0006C6C6C6C6C6C6C6C6C6C6C6C6C6C6C6C2F
:1031E0006C6C6C6C6C6C6C6C00000000000000007F
:1031F00000016C6C6C6C6C6C6C6C6C6C6C6C6C6CE6
:103200006C6C6C6C6C6C6C6C6C6C6C6C6C6C6C6CFE
:10321000000000000000000000016C6C6C6C6C6C25
:103220006C6C6C6C6C6C6C6C6C6C6C6C6C6C6C6CDE
:103230006C6C6C6C6C6C6C6C00000000000000002E
:1032400000016C6C6C6C6C6C6C6C6C6C6C6C6C6C95
:103250006C6C6C6C6C6C6C6C6C6C6C6C6C6C6C6CAE
:10326000000000000000000000016C6C6C6C6C6CD5
:103270006C6C6C6C6C6C6C6C6C6C6C6C6C6C6C6C8E
:103280006C6C6C6C6C6C6C6C0000000000000000DE
:1032900000016C6C6C6C6C6C6C6C6C6C6C6C6C6C45
:1032A0006C6C6C6C6C6C6C6C6C6C6C6C6C6C6C6C5E
:1032B000000000000000000000016C6C6C6C6C6C85
:1032C0006C6C6C6C6C6C6C6C6C6C6C6C6C6C6C6C3E
:1032D0006C6C6C6C6C6C6C6C00000000000000008E
:1032E00000016C6C6C6C6C6C6C6C6C6C6C6C6C6CF5
:1032F0006C6C6C6C6C6C6C6C6C6C6C6C6C6C6C6C0E
:10330000000000000000000000016C6C6C6C6C6C34
:103310006C6C6C6C6C6C6C6C6C6C6C6C6C6C6C6CED
:103320006C6C6C6C6C6C6C6C00000000000000003D
:1033300000016C6C6C6C6C6C6C6C6C6C6C6C6C6CA4
:103340006C6C6C6C6C6C6C6C6C6C6C6C6C6C6C6CBD
:10335000000000000000000000000000000000006D
:10336000000000000000000000000000000000005D
:10337000000000000000000000000000000000004D
:10338000000000000000000000000000000000003D
:10339000000000000000000000000000000000002D
:1033A0000000000000000000000000000000003FDE
:1033B0000000000000000000003F0000003F00008F
:1033C00037370000003737370000373737373F00CF
:1033D000370707070000370737373F0037373737DA
:1033E0003F00000000003F00003F000037370000B2
:1033F000000037373700003F37373737000037379F
:1034000037370000073737373700370707370000EF
:1034100000000000000000000000000000000000AC
:1034200000003F00000000000000000000003F001E
:10343000000000000000000000000000000000008C
:10344000000000000000000000000000000000007C
:1034500000000000FFFFFFFF0000FFFFFFFF000074
:10346000000000FF0000000000FF0000000000FF5F
:10347000000000000000000000000000000000004C
:103480000000FFFFFFFFFFFFFFFFFFFFFFFFFFFF4A
:1034900000000000FFFF00000000FFFF0000000030
:1034A000000000000000000000000000000000001C
:1034B00000000000FFFF000000FFFFFF000000FF12
:1034C000FFFF000000FFFFFFFFFF00FFFFFFFFFF08
:1034D00000000000000000000000000000000000EC
:1034E00000000000000000000000000000000000DC
:1034F00000000000FFFF00000000FFFFFF0000FFD2
:1035000000000000000000000000000000000000BB
:103510000000FFFFFF000000FFFF000000000000B0
:1035200000000000FFFF000000FFFFFF0000FFFFA2
:10353000000000000000000000000000000000008B
:10354000000000000000000000000000000000007B
:1035500000000000FF00FFFFFFFFFFFFFFFFFFFF76
:10356000000000000000000000000000000000005B
:10357000000000000000FFFF000000FFFFFF000050
:1035800000FFFFFF000000FFFFFF000000FFFF0043
:10359000000000000000000000000000000000002B
:1035A000000000000000000000000000000000001B
:1035B000000000000000FFFFFF0000FFFF00000010
:1035C00000000000000000000000000000000000FB
:1035D000000000FFFFFF000000FFFF0000000000F0
:1035E0000000000000FFFF000000FFFFFF0000FFE1
:1035F00000000000000000000000000000000000CB
:1036000000000000000000000000000000000000BA
:1036100000000000FFFF00FFFFFFFFFFFFFFFFFFB5
:10362000000000000000000000000000000000009A
:10363000000000000000000000000000000000008A
:1036400000000000FF00000000FFFF000000FFFF7F
:10365000000000000000000000000000000000006A
:10366000000000000000000000000000000000005A
:1036700000000000FFFFFFFFFFFFFFFFFFFFFFFF56
:10368000000037003737003737003737003700374B
:103690003700003737370037F7F73700370000F7C4
:1036A000F7F70000F7F7F7F7000000000000000050
:1036B000373F373700000000370000003737000081
:1036C000003F0000000000000000003F000000007C
:1036D00000000000000000000000000000000000EA
:1036E000003F00000000000000000000000000009B
:1036F00000000000000000000000000000000000CA
:1037000000000000000000000000000000000000B9
:103710000000000000FF0000000000FF00000000AB
:10372000FFFF00000000FFFF00000000FFFF00009F
:103730000000FFFF0000000000000000000000008B
:10374000FFFF00000000FF0000000000FF0000007D
:103750000000FF0000000000FF0000000000FF006C
:103760000000000000000000000000000000000059
:1037700000FFFFFF000000FFFF000000FFFFFF0051
:103780000000FFFFFF000000FFFF000000FFFFFF41
:10379000000000FF0000000000000000000000002A
:1037A000FFFFFF0000FFFFFFFF0000FFFFFF000023
:1037B00000FFFFFF000000FFFFFF0000FFFFFFFF13
:1037C0000000FFFF000000000000000000000000FB
:1037D000FFFF0000FFFFFFFF0000FFFFFF000000F2
:1037E000FFFFFF000000FFFFFF0000FFFFFFFF00E3
:1037F00000FFFFFF000000000000000000000000CC
:10380000FF000000FFFFFF0000FFFFFF000000FFC0
:10381000FFFF000000FFFFFF000000FFFF000000AF
:1038200000FFFF000000000000000000000000009A
:10383000000000FFFFFF000000FFFFFF0000FFFF90
:10384000FFFF0000FFFFFF000000FFFF000000007F
:10385000FFFF00000000000000000000000000006A
:10386000FFFF00000000FF0000000000FFFF00005D
:103870000000FFFFFF00000000FFFF0000FF00FF4F
:10388000FFFF00FF0000000000000000000000003B
:10389000FFFF000000FFFFFF0000FFFFFF00000030
:1038A000FFFFFF000000FFFFFF000000FFFFFF0021
:1038B0000000FFFF0000000000000000000000000A
:1038C000FF0000FFFFFFFF0000FFFFFFFF0000FF02
:1038D000FF00FF0000FFFFFF000000FFFFFF0000F0
:1038E0000000FFFF000000000000000000FFFFFFDD
:1038F000000000FFFFFF000000FFFF00000000FFCE
:10390000FF000000FFFFFF00FFFFFFFFFF00FF00C1
:10391000FFFF000000FFFFFF0000FFFFFF000000AF
:103920000000000000000000000000000000000097
:1039300000000000FFFF00000000FFFF000000FF8C
:10394000FFFF000000000000000000000000000079
:103950000000000000000000000000000000000067
:10396000000000FFFFFF000000FFFFFF000000FF5E
:10397000FFFF000000000000000000000000000049
:103980000000000000000000000000000000000037
:10399000000000FFFF00000000FFFF000000FFFF2D
:1039A000FF00000000000000000000000000000018
:1039B000C7C7C7C7C7C7C7C7C7C7C7C7C7C7C7C797
:1039C000C7C7C7C7C7C7C7C7C7C7C7C7C7C7C7C787
:1039D000C7C7C7C7C7C7C7C7C7C7C7C7C7C7C7C777
:1039E00028020000000000000000000001020304A3
:1039F00005060708090A0B0C0D0E0F100000000049
:103A000000000000000000000000000000000000B6
:103A100000000000001112131415161718191A1BB4
:103A2000171C1D1E1F2021000000000000000000C8
:103A30000000000000000000000000000000000086
:103A40000000000000000000000000000000000076
:103A50000000000000000000000000000000000066
:103A60000000B7B77777B7B7B77777B7B7B77777D4
:103A7000B7B7B777B7B7B7777777B7B77777B7B756
:103A8000B77777B7B7B77777B7B7B725B7B7B77798
:103A9000771CB7B77777B7B7B77777B7B7B7777711
:103AA000B7B7B777B7B7B7777777B7251C1C25B700
:103AB0002577BFBF372577BFFFBFBFB7BFFFFFBFAA
:103AC000BF77B7B77777B7B7B77777B7B7B777773E
:103AD000B7B7B777B7B7B7777777B7B77777B7B7F6
:103AE000B77777B7B7B72577B7B7B7771CB7B777D3
:103AF0007777B7B77777B7B7B77777B7B7B7777756
:103B0000B7B7B777B7B7B7251C6EB7B7771CBF770E
:103B1000B777771CBF777777B71CBF77B7B7B7256D
:103B2000BFBFB7B77777B7B7B77777B7B7B7777795
:103B3000B7B7B777771C1C1C1C7765BFBFBF77650D
:103B400065BFFFBF776565BFFFBF7765B7BFFFBFC5
:103B5000BFB7B7B77777B7B7B77777B7B7B777776D
:103B6000B7B7B7776E1C25777777BF771C77B7B76E
:103B7000BF771CB7B7B7BF771CB7B777BF772577C5
:103B80007777B7B77777B7B7B77777B7B7B77777C5
:103B9000B7B7B777B7B7B7777777B7B77777B7B735
:103BA000B77777B7251C7777B72577B7B7B7B71C3F
:103BB000FF7FB7B77777B7B7B77777251C257777C4
:103BC000B71C7777B7B725FF7FB7251CBF256EBF1A
:103BD000B7FFBFB777BFFF7FBFBFBFBF7FBFBFBF4D
:103BE000BFBFB7B77777B7B7B77777B7B7B7257727
:103BF000B7B7B7771C6EB777777777256E77B7B794
:103C0000BF6E1C6EB7B7BF77251CB777BFB7251C33
:103C10007777B7B77777B7B7B77777B7B7B7777734
:103C2000B7B7B777B7B7B7777777B7B77777B76EED
:103C3000B77777B76E1C7777B7B72577B7B7B7770A
:103C40001CBFB7B77777B7B7B777251CB7B7772556
:103C5000BFBF6577B71C65651CB71C6EBFBF771CFF
:103C600077656EBFBF77BF77656EBF77BFBF77BF22
:103C7000BF77B7B77777B7B7B77777B7B7B777778C
:103C8000B7B7B777B7B7B77777776EB77777B7B78D
:103C9000256E77B7B7B7251CB7B7B777251CB777A9
:103CA0007777B7B77777B7B7B77777B7B7B77777A4
:103CB000B7B7B777B7B7B7777777B7B777252E2581
:103CC000B777771C7F777777B71C77BFB7B7B76EB3
:103CD0001C7FB7B7251CB7B7B725BFBF65B7771C23
:103CE00065651C7725BFFFB777257765B76665776C
:103CF000FFB7776EFF77FFFFBFBFBFB7BF7FBFBF05
:103D0000BFB7B7B77777B7B7B77777B7B7B77777BB
:103D1000B7B7B777B7B7B7777777252E2577B7B720
:103D2000FF251CB7B7B777251CB7B7776E1C6E7722
:103D30007777B7B77777B725B77777B7B7B77777A5
:103D4000B7B7B72EB7B7B777771CB7B77777B72EB0
:103D5000B77777B7B7777777B7B7B777B7B7B777B3
:103D60007725B7BFBFBF372E2E77B7372E1D2565F6
:103D70006565652577BFFFBF772E252E6E2E25251D
:103D80001CB7B76E2E1C25FFBF776E1C2EFFBF77AA
:103D90006E2525B77777B7B7777777B7B7B72EB7E9
:103DA000B7B7B7771CB7B77777772EB77777B7B747
:103DB000777777B7B7B77777B7B7B7772EB7B777DC
:103DC0007777B7B7777725BFB77777B76E657777A8
:103DD000B7B7B71CB7B7B777771CB7B77777B71C44
:103DE000B77777B76E257777B7B71C6EB7B7B77762
:103DF0001C77BFBFBFBFBFBF656E776E65656EB70F
:103E0000B7B76E6E77BFFFBF776E77BFFFBF776EB6
:103E100077BFFFBF776EB7BFFFBF776E7FBFFFBFB4
:103E2000B76E77257777B7B7666E77B7B7B71C7772
:103E3000B7B7B7771CB7B77777771CB77777B7B7C8
:103E4000256E77B7B7B7251CB7B7B7772E1CB777EE
:103E50007777B7B7B71C7777B777776E1C1C77770C
:103E6000B7B7B777B7B7B777776EB7B777776E2546
:103E7000B777776E25777777B7257777B7B7B71C9A
:103E80007777656E77B7BFBF6E656E7FBFFF251D05
:103E9000B7FFFFBF1D77FFFFBFB7777FFFFFBFB73C
:103EA000B7FFFFFFBF77B7FFFFBFBF6E7FFFFFBF4B
:103EB000B76EBFB7251CB7B7B7B71C6EB7B7B77724
:103EC0001CB7B77777256E7777776E1C7777B7B79C
:103ED0006E1C77B7B7B76E1CB7B7B7776E256E771E
:103EE0007777B7B777771CBFB77777B76E257777D0
:103EF000B7B7B71CB7B7B7776E1CB7B77777B71C2C
:103F0000B77777B7251D7777B7B71C6EB7B7B76E9A
:103F10001C77BFBFBFBFB76EBFBFBF776E25656ED3
:103F2000776E656577BFFFBF776666666E666625E6
:103F30006EB7B7B76E6EB7BFFFBF776E7FBFFFBFFD
:103F4000B76E251C7777B7B7256E77B7B7B71C77ED
:103F5000B7B7B7771C6EB77777771CB77777B7B7F0
:103F60001D2577B7B7B76E1CB7B7B7776E1C6E77DE
:103F70007777B7B777772577B77777B7651C777790
:103F8000B7B76E1CB7B7B777B71CB7B777776E1DE3
:103F9000B77777B725657777B7B71C6EB7B7B76EC2
:103FA0001C77BFBFBF776E25656E776E656577BF7F
:103FB000FFBF776666666E6666666EB7B7B76E6E8B
:103FC000B7BFFFBF776EB7BFFFBF776E7FBFFFBFC3
:103FD000B76E1C257777B7B71C6577B7B7B71C6E78
:103FE000B7B7B7771CB7B77777771D6E7777B7B75F
:103FF000652577B7B7B76E1CB7B7B7776E1C6E7706
:104000007777B7B777772E1CB77777B72577777736
:10401000B72E1C7FB7B7B71CBF2EB7B7771C77BFBB
:10402000B77777B7251C7777B7B7B777B7B7B777CD
:10403000777777FFBF776E2E7FFFBFB76E6EFFFF7C
:10404000BFB76E6E25252E252525FFFFBFBF7777CD
:104050001C1C1C1C1C1C2E2E2E2E2E2EB7B7B77708
:1040600077771C2E7777B7B71C25B7B7B7B72E1C55
:104070002EB7B77725251C77777725251C77B7B717
:104080001C2577B7B7B77777B7B7B777B7B7B7772D
:104090007777B7B7771C6E77B777251C657F77770B
:1040A0001CBF776EB7B71C77BFBFB7B7256E6E6EF4
:1040B000B77777251C1C7777B7B7B725B7B7B7772A
:1040C00077777FFFFFBFB76E7FFFFFBFB76E2525F6
:1040D0002E252525FFFFBFBFBF776E6E6E6E6E6EFD
:1040E0001C1C1C1C1C1C252525252525B7B7B777AE
:1040F00077776E252577B7B76E251C25B7B76E6E17
:10410000251CB7777777251C77776E256525B7B798
:104110001C1C25B7B7B72577B7B7B777B7B7B77749
:104120007777B7B77777B7B7B77777B7B7B777771F
:10413000B7B7B777B7B7B777776EB7B7776E251CCE
:10414000B77777257F777777B71C77BFB7B7B76E25
:104150001C7FB76EFFBF6EB72525FFBF25256EFFFD
:10416000FFBFBF6E6EBFBF77776E6565BF77256592
:104170007725BF772577FF256E6E6EB7BF7FBFBFF0
:10418000BFB7B7B77777B7B7B77777B7B7B7777737
:10419000B7B7B7776EB7B77777771C1D6E77B7B7B6
:1041A000FF2525B7B7B777251CB7B7776E1C6E7795
:1041B00077772626666666266666662626266666FD
:1041C000262666666626266626262626665D251C23
:1041D0002666661C7F776666261C77BF6626261DC8
:1041E000657F266EFFBF6E262525FFBF25256EFF46
:1041F000FFBFBF6E6EBFBF77776E6565BF77256502
:104200007725BF772577FF256E6E6EB7BF7FBFBF5F
:10421000BFB7262666666626666666262626666614
:10422000262666662626266666661C1D5D6666660A
:10423000FF251C66262677251C2666666E651D668C
:1042400066662626661C6E7766665D1C657F6666FA
:104250001CBF776E66261C77BFBF26261D6E6E6E4E
:104260006666661D1C1C66662626661D6626266614
:1042700066667FFFFFBFB76E7FFFFFBFB76E252566
:104280002E252525FFFFBFBFBF776E6E6E6E6E6E4B
:104290001C1C1C1C1C1C1D1D1D1D1D1D66262666B0
:1042A00066666E251D2666266E251C1D26266E6EEC
:1042B000251C66667777251C66666E25651D662655
:1042C0001C1C1D2626261D66262666666626266674
:1042D00066662626666666266666662626266666FE
:1042E000262666666626266666662626666666262E
:1042F00066666626262666662626661D6626266667
:10430000661C262666666626666666262626666617
:1043100026266666662626666666261D1C1C1D26E3
:104320001D77BFBF371D77BFFFBFBFB7BFFFFFBF41
:10433000BF77262666666626666666262626666633
:1043400026266666662626666666262666666626CD
:104350006666662626261D66262666661C26266650
:10436000666626266666662666666626262666666D
:10437000262666666626261D1C652626661CBF77D1
:104380006666661CBF776666261CBF776626261D96
:10439000BFBF26266666662666666626262666668B
:1043A00026266666661C1C1C1C6665BFBFBF77653B
:1043B00065BFFFBF776565BFFFBF7765B7BFFFBF4D
:1043C000BFB7262666666626666666262626666663
:1043D00026266666651C1D666666BF771C666626B1
:1043E000BF771C262626BF771C266666BF771D660C
:1043F00066662626666666266666662626266666DD
:10440000262666666626266666662626666666260C
:10441000666666261D1C6666261D77B76626261C00
:10442000FF7F2626666666266666661D1C1D666616
:104430001D1C7777661D6EFF7FB71D1CBF256EBFE5
:10444000B7FFBFB777BFFF7FBFBFBFBF7FBFBFBFD4
:10445000BFBF2626666666266666662626261D6613
:10446000262666661C1D2666666677251D666626F8
:10447000BF6E1C262626BF77251D6666BFB7251C86
:10448000666626266666662666666626262666664C
:10449000262666666626266666662626666666267C
:1044A00066666626261D666626261D7766262666AD
:1044B0001CBF26266666662666661D1C2626661DA9
:1044C000BFBF6566661C65656E661D6EBFBF771DE6
:1044D00077656EBFBF77BF77656EBF77BFBF77BFAA
:1044E000BF77262666666626666666262626666682
:1044F000262666666626266666662626666666261C
:104500001D6666262626251D26266666251C266629
:1045100066662626666666266666662626266666BB
:10452000262666666626266626262626661D2E25ED
:104530002666661C7F776666261C77BF6626261D64
:10454000657F26661D1C2626661DBFBF6526661C68
:1045500065656E661DBFFFB7771D7765B7666577C2
:10456000FFB7776EFF77FFFFBFBFBFB7BF7FBFBF8C
:10457000BFB72626666666266666662626266666B1
:1045800026266666262626666666252E1D666666CD
:10459000FF251C66262677251C2666666E651D6629
:1045A000666626266666661D666666262626666634
:1045B0002626661D66262666661C26266666661DF7
:1045C000666666262626666626266666662626664B
:1045D000661C1D26666666262666662626261D66D7
:1045E000262666661C26266666661D26666666267E
:1045F0006666662626266666262666661D26266664
:1046000066662626665D2EBF666666261D6566663C
:104610002626661C66262666661C26266666661C98
:10462000666666261D25666626261C6E6626261D7F
:104630001C77772E5D666626651D662626261C6617
:10464000262666661C26266666661C26666666261E
:10465000251D66262626251C262666662E1C5D66DA
:1046600066662626661C77776666661D1C1C66666F
:10467000262666666626266666652626666665259D
:104680006666662625776666261D77776626261C6B
:104690007777656E77B7BFBF66656E7FBFFF651DB5
:1046A000B7FFFFBF1D77FFFFBFB7777FFFFFBFB724
:1046B000B7FFFFFFBF77B7FFFFBFBF6E7FFFFFBF33
:1046C000B76EBFB7251C6626B7B71C652626B77719
:1046D0001C2666667725656666666E1C66666626B7
:1046E0006E1C662626266E1C262666666E251D66B0
:1046F0006666262666661CBF666666261D77666643
:104700002626661C662626661D1C26266666661CF0
:10471000666666261D65666626261C6E6626261D4E
:104720001C77251C66666626251D662626261C66C1
:10473000262666661C1D266666661C266666662636
:10474000651D662626266E1C262666666E1C5D6620
:104750006666262666661D7766666626661C66663B
:1047600026261D1C66262666661C262666661D6590
:10477000666666261C6E666626261C6E6626261DE6
:104780001C77251D666666261C66662626261C1D69
:10479000262666661C2626666666651D666666268D
:1047A0006E1C662626266E1C262666666E1C5D66B8
:1047B0006666B7B77777B7B7B77777B7B7B77777AB
:1047C000B7B7B777B7B7B7777777B7B77777B7B7F9
:1047D000B77777B7B76E7777B7B7B713B7B7B77796
:1047E0007701B7B77777B7B7B77777B7B7B77777CF
:1047F000B7B7B777B7B7B77777776E0A01010A6EA1
:1048000001010101010001015C010100015CFF13D4
:104810000100B7B77777B7B7B77777B7B7B7777715
:10482000B7B7B777B7B7B7777777B7B77777B7B798
:104830006E7777B7B7B71377B7B7B77700B7B777EC
:104840007777B7B77777B7B7B77777B7B7B77777F8
:10485000B7B7B777B7B7B7130A01B7B777005C092F
:10486000B777770002097777B70A0209B7B7B76E4B
:104870000102B7B77777B7B7B77777B7B7B77777B3
:10488000B7B7B7776E0A0101016E14005C01091415
:1048900013000A01091309000A01090901000101B5
:1048A0000101B7B77777B7B7B77777B7B7B7777784
:1048B000B7B7B7770A0213777777020A0077B7B7E7
:1048C000020100B7B7B702000AB7B77701006E77E9
:1048D0007777B7B77777B7B7B77777B7B7B7777768
:1048E000B7B7B777B7B7B7777777B7B77777B7B7D8
:1048F000B77777B76E1C7777B76E0A0AB7B7B71C6A
:104900000B00B7B77777B7B7B777771C0A6E7777AB
:104910006E0A090BB76E1C0A00026E0B0A0000003B
:10492000130A02001302020000020200000000004D
:104930000000B7B77777B7B7B77777B7B7B76E77FE
:10494000B7B7B7770A6EB777777700026E77B7B7E2
:1049500000010A6EB7B70000016EB7770000020AC7
:104960007777B7B77777B7B7B77777B7B7B77777D7
:10497000B7B7B777B7B7B7777777B7B77777B76E90
:10498000B77777B76E1C7777B7B71300B7B7B77736
:104990000A00B7B77777B7B7B72E000B2EB7770AED
:1049A0005C000A776E1D00001C6E0A0B02010013EA
:1049B0005C000B0201000A5C000B0100000A5C00B5
:1049C0000000B7B77777B7B7B77777B7B7B7777765
:1049D000B7B7B777B7B7B77777776EB77777B7B730
:1049E0001C6E77B7B7B70213B7B7B777020AB777B6
:1049F0007777B7B77777B7B7B77777B7B7B7777747
:104A0000B7B7B777B7B7B777772EB7B777001C01C7
:104A1000B777770A02137777B71C000AB7B7B76E74
:104A20000A02B72E000B2EB7B70A5C000AB777133D
:104A300000001C770A000900000A0A010A09010A9D
:104A40005C005C13005C0000000000000900000036
:104A50000000B7B77777B7B7B77777B7B7B77777D4
:104A6000B7B7B7772EB7B7777777011C0077B7B7A7
:104A70000B0A0AB7B7B700001CB7B777000A6E7702
:104A80007777B7B77777B713B77777B7B76E7777A3
:104A9000B7B7B71CB7B7B7777701B7B77777B7139B
:104AA000B77777B7B76E7777B7B7B76EB7B7B77768
:104AB000771C0101130101001301010100130A0019
:104AC0000000000A010101010101000A5C0A000066
:104AD00001000101000001000A01000001001301B2
:104AE000000013B77777B7B76E7777B7B7B71CB74C
:104AF000B7B7B77701B7B777777713B77777B7B720
:104B00006E7777B7B7B76E77B7B7B7771CB7B777A2
:104B10007777B7B777771C01B77777B76E00777776
:104B2000B7B7B700B7B7B7777700B7B777776E0083
:104B3000B77777B71C007777B7B71C01B7B7B76EF1
:104B4000000101010101010100000000000001015C
:104B50000101010101000A0001010100130001012E
:104B6000010013000001000A5C01000200135C0157
:104B70000001001C7777B7B7006E77B7B7B700773B
:104B8000B7B7B77700B7B7777777006E7777B7B7EC
:104B9000001C77B7B7B7001CB7B7B77701006E77BF
:104BA0007777B7B7B70A0000B777776E0A0A7777D3
:104BB000B7B7B777B7B7B777776EB7B777776E000E
:104BC000B777776E0A007777B71C0000B7B7B70AD8
:104BD00000000A0A000000006E1C0A000000770AAC
:104BE00000000A0A0A000A135C00000A135C0000B5
:104BF000000A5C1300010A135C0A00010A13FF0A91
:104C000000010000020AB7B70000016EB7B700014B
:104C10001CB7B777010A6E777777010A7777B7B74E
:104C2000010A77B7B7B701096EB7B77701001C77EC
:104C30007777B7B777770A01B77777B71C007777B9
:104C4000B7B7B70AB7B7B7771C0AB7B777776500B2
:104C5000B77777B76E007777B7B71C01B7B7B76E7E
:104C60000A01000001000001010101010102020A24
:104C7000130A020200020202010002135C0A02028D
:104C8000010013000001000A5C01000200135C0136
:104C90000001020A7777B7B7021C77B7B7B70A7770
:104CA000B7B7B7770A1CB777777700657777B7B765
:104CB000006E77B7B7B7001CB7B7B777010A6E7742
:104CC0007777B7B777771C00B77777B7B70A777773
:104CD000B7B71C0AB7B7B7776500B7B777776E0075
:104CE000B77777B71C007777B7B70A01B7B7B76E52
:104CF0000A01010101010102020A130A0202000273
:104D00000202010002135C0A020201001300010109
:104D1000010013000001000A5C01000200135C01A5
:104D20000001021C7777B7B70AB777B7B7B70A1C85
:104D3000B7B7B7770065B7777777006E7777B7B78C
:104D4000001C77B7B7B7000AB7B7B777010A6E7715
:104D50007777B7B777776E01B77777B71C01777733
:104D6000B76E1C00B7B7B71C0100B7B777130101C6
:104D7000B777776E13017777B7B7B76EB7B7B777EF
:104D8000777700005C010000000AFF0101000A13B0
:104D9000130A0100000000000000010A130A0101CB
:104DA0000101010101011C1C1C1C1C1CB7B7B777B9
:104DB0007777006E7777B7B7001CB7B7B7B7000043
:104DC0006EB7B77700011C77777701011377B7B714
:104DD00001136EB7B7B76E77B7B7B777B7B7B7770F
:104DE0007777B7B76E0A0100B7771C01000A7777AB
:104DF0000009010AB7B700000913B7B70A0101019A
:104E0000B7776E1301017777B7B76E1CB7B7B7776F
:104E100077770A13FF0A0000135CFF0A01000A0AF1
:104E20000A0A0A015CFF5C13130901010101010078
:104E30000101010101011C1C1C1C1C1CB7B7B77728
:104E4000777702000A6EB7B70109011CB7B70101F5
:104E50000000B7770000000077770001010AB7B7BC
:104E60000101136EB7B71C6EB7B7B777B7B7B7778F
:104E70007777B7B77777B7B7B77777B7B7B77777C2
:104E8000B7B7B777B7B7B7777777B7B7776E130294
:104E9000B777770A02137777B71C0002B7B7B76EF8
:104EA0000A00B7B70A00B7B7B7770A00B7B70A0A58
:104EB0000A000A0A000000000000020A00000B0BB2
:104EC000020A00000B000B030A0A03001301000092
:104ED0000000B7B77777B7B7B77777B7B7B7777750
:104EE000B7B7B777B7B7B777777702136E77B7B734
:104EF00000000AB7B7B700001CB7B777000A6E7793
:104F0000777726266666662666666626262666669F
:104F1000262666666626266666662626661D1302B1
:104F20006666660A02136666261D00026626266607
:104F30000A0026660A00662666660A0026260A0A0F
:104F40000A000A0A000000000000020A00000B0B21
:104F5000020A00000B000B030A0A03001301000001
:104F6000000026266666662666666626262666662D
:104F70002626666666262666666602131D66662611
:104F800000000A26262600001D266666000A266600
:104F9000666626261D0A010066660A01000A666624
:104FA0000009010A66260000091326260A010101EC
:104FB00066661D130101666626261D1D6626266689
:104FC00066660A13FF0A0000135CFF0A01000A0A62
:104FD0000A0A0A015CFF5C131309010101010100C7
:104FE0000101010101011D1D1D1D1D1D66262666F5
:104FF000666602000A1D66260109010A26260101CD
:10500000000066660000000066660001010A662670
:105010000101131D26261D1D2626666666262666A8
:1050200066662626666666266666662626266666A0
:105030002626666666262666666626266666666690
:1050400066666626261D66662626660A6626266625
:1050500066012626666666266666662626266666D5
:10506000262666666626266666661D0A01010A1DF4
:1050700001010101010001015C010100015CFF135C
:10508000010026266666662666666626262666660B
:105090002626666666262666666626266666662670
:1050A0001D66662626260A6626266666002626666B
:1050B0006666262666666626666666262626666610
:1050C000262666666626260B0A01262666005C09E9
:1050D0006666660002096666260A02096626261DBD
:1050E00001022626666666266666662626266666A9
:1050F000262666661D0A0101011D14005C010914C3
:1051000013000A01091309000A010909010001013C
:105110000101262666666626666666262626666679
:10512000262666660A020B666666020A0066662620
:1051300002010026262602000A26666601001D6678
:10514000666626266666662666666626262666667F
:1051500026266666662626666666262666666626AF
:10516000666666261D0A6666261D0A0A6626260AE1
:105170000B00262666666626666666140A1D666647
:105180001D0A090B661D140A00021D0B0A0000000F
:10519000130A0200130202000002020000000000D5
:1051A00000002626666666266666662626261D6634
:1051B000262666660A1D2666666600021D66662647
:1051C00000010A1D26260000011D66660000020A75
:1051D00066662626666666266666662626266666EF
:1051E0002626666666262666666626266666661D28
:1051F000666666261D1366662626130066262666E4
:105200000A00262666666626661D000B1D26660AAF
:105210005C000A661D1300000B1D0A0B020100133F
:105220005C000B0201000A5C000B0100000A5C003C
:10523000000026266666662666666626262666665A
:10524000262666666626266666661D2666666626C7
:105250000A1D66262626021326266666020A26668A
:10526000666626266666662666666626262666665E
:105270002626666666262666661D262666001C01AC
:105280006666660A02136666261D000A662626669C
:105290000A02261D000B1D26660A5C000A266613FC
:1052A00000000B660A000900000A0A010A09010A47
:1052B0005C005C13005C00000000000009000000BE
:1052C00000002626666666266666662626266666CA
:1052D000262666661D2626666666011C006666260C
:1052E0000B0A0A26262600001D266666000A266688
:1052F000666626266666660A66666626261D6666F3
:1053000026266613662626666601262666666613C8
:1053100066666626261D66662626661D662626663F
:10532000660A0A26666666261D66662626261366B1
:1053300026266666016626666666136666666626C5
:105340001D66662626261D66262666660A262666AB
:105350006666262666660A01666666261D0066661D
:1053600026266600662626666600262666661D00D8
:10537000666666260A00666626260A016626261DD9
:105380000001000A66666626001D6626262600665F
:1053900026266666002626666666001D6666662602
:1053A000000A66262626000A2626666601001D6675
:1053B00066662626660A00006666661D0A0A666636
:1053C00026266666662626666613262666661D00FF
:1053D0006666661D0A006666261300006626260AB3
:1053E00000000A0A000000001D0B0A000000130A5A
:1053F00000000A0A0A000A135C00000A135C00009D
:10540000000A5C1300010A135C0A00010A13FF0A78
:1054100000010000020A66260000011D2626000188
:105420000A266666010A1D666666010A66666626C3
:10543000010A6626262601091D26666601001366F6
:105440006666262666660A01666666261D0066662C
:105450002626260A66262626130A262666661C00A7
:10546000666666261D00666626260A016626261DD5
:105470000001020A66666626021D662626260A26A0
:10548000262666660A1326666666001C666666261B
:10549000001D66262626000A2626666601001D6671
:1054A0006666262666661D0066666626260A6666A7
:1054B0002626130A662626661C00262666666600D1
:1054C000666666261D00666626260A016626261D75
:1054D0000001021D666666260A26662626260A132F
:1054E00026266666001C26666666002666666626B2
:1054F000001D66262626000A2626666601001D6611
:105500006666FFFFFFFFFFFF373737373737B7B71D
:10551000B7B7B7B73737373737373737373737371B
:105520003737373737376F6F6F6F6F6F1414141447
:105530001414FFFFFFFFFFFF372E1C142E37AF1C84
:1055400077AF14B72E0B372E0B372E0B0B0B0B37F9
:105550002E14372E14376F6F6F6F6F6F141414146F
:105560001414FFFFFFFFFFFF2E14141C2E37AF147F
:1055700077AF1DB72E0B0B0B26372E0B372E1D3793
:105580002E14141C2E376F6F6F6F6F6F141414145A
:105590001414FFFFFFFFFFFF372E14142E37AF1D2B
:1055A00077AF1DB72E0B373737372E0B372E1D37FA
:1055B000372E141C2E376F6F6F6F6F6F1414141407
:1055C0001414FFFFFFFFFFFF2E14141C2E37AF141F
:1055D00077AF1DB72E0B372E0B372E0B372E1D37FF
:1055E0002E14141C2E376F6F6F6F6F6F14141414FA
:1055F0001414FFFFFFFFFFFF2E1414141437AF1411
:1056000077B7B7B72E0B0B0B37372E0B373737372C
:105610002E14141414376F6F6F6F6F6F14141414EB
:105620001414FFFFFFFFFFFF2E1414141437AF14E0
:1056300077B7B7B72E0B0B0B37372E0B37373737FC
:105640002E14373737376F6F6F6F6F6F1414141452
:105650001414FFFFFFFFFFFF372E25141437AF147C
:1056600077B7B7B72E0B370B0B372E14372E1D37E6
:10567000372E251414376F6F6F6F6F6F1414141457
:105680001414FFFFFFFFFFFF2E14372E1437AF1443
:1056900077AF14B72E0B0B0B0B372E0B372E0B37A8
:1056A0002E14372E14376F6F6F6F6F6F141414141E
:1056B0001414262666661D2E666666661C77666668
:1056C000261D1C7F6626261CBF2E2626661C77BF3D
:1056D000666666261D1C666626266666662626663D
:1056E000666677FFBF776E2E7FFFBFB76E6EFFFFD8
:1056F000BFB76E6E25252E252525FFFFBFBF777707
:105700001C1C1C1C1C1C1D1D1D1D1D1D662626662B
:1057100066661C1D66666626251C662626262E1CC9
:105720001D26666625251C66666625251C6666663A
:105730001C1D66262626666626266666662626665C
:105740006666262666661D01666666660A016666E8
:10575000261400006626261301002626660A01018B
:105760006666661D140166662626661D6626266622
:10577000666600005C010000000AFF0101000A13D8
:10578000130A0100000000000000010A130A0101D1
:105790000101010101011D1D1D1D1D1D662626663D
:1057A0006666001D66666666000A66262626000096
:1057B0001426662600011366666601010A6666669F
:1057C00001141D2626261D662626662666262666C2
:1057D0006666FF37B7376F14FF37B7376F14FF3779
:1057E000B7376F14FF37B7376F14FF37B7376F14FA
:1057F000FF37B7376F14FF37B7376F14FF37B73737
:105800006F14FF37B7376F14FF37B7376F14FF2E9A
:105810001C376F14FF1C0B376F14FF2E0B376F14E0
:10582000FF2E0B376F14FF1414146F14FF37B737A4
:105830006F14FF37B7376F14FF37B7376F14FF1C7C
:105840001C2E6F14FF37B71C6F14FF250B2E6F141F
:10585000FF1CB7376F14FF1414146F14FF37B737DA
:105860006F14FF37B7376F14FF37B7376F14FF1D4B
:1058700014146F14FF37B7136F14FF370B2E6F1408
:10588000FF37B71C6F14FF1D1C2E6F14FF37B7377F
:105890006F14FF37B7376F14FF37B7376F14FF1424
:1058A000B7146F14FF13B7136F14FF1C0B0B6F1497
:1058B000FF37B70B6F14FF37B7146F14FF37B737C5
:1058C0006F14FF37B7376F14FF37B7376F14FF14F4
:1058D000141C6F14FF13B7376F14FF0B0B2E6F14CC
:1058E000FF37B71C6F14FF141C2E6F14FF37B73728
:1058F0006F14FF37B7376F14FF37B7376F14FF2EAA
:105900001C1D6F14FF1CB7376F14FF0B0B256F1492
:10591000FF0BB70B6F14FF2513256F14FF37B73735
:105920006F14FF37B7376F14FF37B7376F14FF1493
:1059300014146F14FF37AF1C6F14FF37652E6F14EC
:10594000FF371C376F14FF3714376F14FF37B73723
:105950006F14FF37B7376F14FF2E1C2E6F14FF0B19
:10596000B70B6F14FF1D141D6F14FF0BB70B6F14D3
:10597000FF0BAF0B6F14FF2E1C2E6F14FF37B737C2
:105980006F14FFFFFFFFFFFFFF3737373737FF3752
:10599000B7B7B7B7FF37B7373737FF37B737373707
:1059A000FF37B7373737FF37B7376F6FFF37B7373F
:1059B0006F14FFFFFFFFFFFF373737376F14B7B79D
:1059C000B7376F143737B7376F143737B7376F14A8
:1059D0003737B7376F146F37B7376F14BF37B737ED
:1059E0006F14FF37B7376F14FF37B7373737FF37C5
:1059F000B7B7B7B7FF3737373737FF3737373737A7
:105A0000FF3737373737FF6F6F6F6F6FFF1414141F
:105A10001414BF37B7376F143737B7376F14B7B7AA
:105A2000B7376F14373737376F14373737376F1447
:105A3000373737376F146F6F6F6F6F141414141478
:105A40001414B7B77777B7B7B77777B7B7B77777AC
:105A5000B7B7B777B7B7B7777777B7B77777B7B756
:105A6000B77777B7B7B77777B7B7B777B7B7B77746
:105A70007777262666666626666666262626666624
:105A80002626666666262666666626266666666636
:105A90006666666626266666262666666626266626
:105AA0006666C0C0C0C0C0C0C0C0C0C0C0C0C0C0AA
:105AB000C0C0C0C0C0C0C0C0C0C0C0C0C0C0C0C0E6
:105AC000C0C0C0C0C0C0C0C0C0C0C0C0C0C0C0C0D6
:105AD000C0C00000FFFFFF0000FF000000FF00FF4C
