:100000000C944B0B0C94E70B0C94E70B0C94E70B44
:100010000C94E70B0C94E70B0C94E70B0C94E70B98
:100020000C94E70B0C94E70B0C94E70B0C94E70B88
:100030000C94E70B0C949F0C0C94E70B0C94E70BBF
:100040000C94E70B0C94E70B0C94E70B0C94E70B68
:100050000C94E70B0C94E70B0C94E70B0C94E70B58
:100060000C94E70B0C94E70B0C94E70B0C94E70B48
:100070000000000000000000000000000000000080
:100080000000000000000000000000000000000070
:100090000000000000000000000000000000000060
:1000A0000000000000000000000000000000000050
:1000B0000000000000000000000000000000000040
:1000C00000000049000000495252000052525C2DCD
:1000D0000000000000000000000000000000000020
:1000E0000040000000494A52004952525B1C5253E2
:1000F0001C25241B2425251B0A0A2D1C12120A0A62
:100100000000000000000000404949494949525B95
:100110005B5B525B1C1C1312241C12090909120997
:100120000909090A0A0A0A0A0A13120A0A12130A10
:100130000000000000009252525252521312130952
:10014000001C0A1212401B65090A0009241B120038
:1001500000251C1C010025241C1C0024252424240B
:100160000000000000005249494000001B135249A2
:100170004900641C1C5B4A481C651C2552491C1C18
:10018000652464491C1C652564491C1C6D2E5C4952
:100190000000000000000000000000490000000016
:1001A000535200000053522500004A5225250000FA
:1001B0005B251300005B53000A1C095B1C657F373D
:1001C0004052522E2E1C525C2E251B1324251C1C23
:1001D00012002525120000121B0000132E37001BF1
:1001E00037372E2E37372E2E2E2E2E2E6E6E6E1C5D
:1001F0001313120009131200001213130012251C0E
:1002000013132E371C131313361C131B1B1B251320
:100210001C1C1B1B1B1C1C1C1C1C1C1C1C1C1C132A
:100220001312121313001313131C000913131C01D0
:100230000037131C13002E2E1C1C001C772E2500CB
:10024000137F251C010A37241C1C0A2E25250900B2
:10025000132E242525252E252525252525252D2E3E
:10026000251B2E2E251C1325251C1C1C1C011C1CAB
:100270001300011C0A000165775C016E7F6E521B42
:1002800025256D1C524925251C1353001C1C1C528E
:100290004A001B135B5B000009525C0000005B5CC2
:1002A000000000001B000000000000000000000033
:1002B000135B7F776E6E136577766E6E1B65777650
:1002C00076761B5BBF76B67609136DBFB7B6001B9B
:1002D000125C76BF0000121B125B00000000090ACE
:1002E0006E6E6E77241C6E6E77251C1C6E776E1CEE
:1002F0001C1C76761C1C2425B765646D6D1B766D01
:100300006D5B09125B5C5B125B641213131B1212B0
:100310001C1C1C1C1C241C1C242525242425251BDA
:1003200000002513000064BF00096EBFBF6D6EBFE3
:100330006D5B12135B12131209000901000000002B
:100340002E1C0900096E010009767F7F12777F7FDE
:100350006412BF775B121B095B121B0900001B09AB
:10036000000000000000000000000000000000008D
:100370007F7F5313130064121B0100001B12000047
:10038000000000000000000000000000000000006D
:10039000000000000000000000000000000000005D
:1003A0000000000000002600000026002F000000D2
:1003B0002F00370000003700FF000000FF00BF00E3
:1003C0000000BF00370000370000002626000000B4
:1003D000000000000000262626262600000000005F
:1003E0002F000000003700000000FF00000000BFE9
:1003F0000000000037000000000026262626260008
:100400000000000000002626262626002F000000FF
:100410000000370000000000FFFFFFFF0000BF00EA
:1004200000000000370000000000262626262600D7
:100430000000000000002626262600002F000000F5
:100440002F00370000003700FFFFFFFF0000BF0054
:100450000000BF00370000003700262626260000D7
:10046000000000000000000026262600002F0000EB
:100470002F00370000003700FF000000FF00BF0022
:100480000000BF00370000370000262626000000CD
:100490000000000000002600000026002F000000E1
:1004A0002F000037003700000000FF00000000BFF1
:1004B00000BF0000370000003700260000002600C3
:1004C000000000000000000000000000000000002C
:1004D000000000000000000000000000000000001C
:1004E0000000009B000000529BA400005B9B6D7706
:1004F00000000000000000000000000000000000FC
:10050000005B000000E4F6FF099BEDF6FFBFA4AD21
:10051000BFBFBFBF767F7FB7B7BF7F766EB7B7BFAE
:1005200000000000000000005BB6F6F6F6FFFFFFDB
:10053000FFBFFFFFFFBFBFAEFFFFFFB7AD65FFFF10
:10054000B7B6AD65FFFFBFB7AE6EFFFFBFB7B7650C
:10055000000000000000F6F6EDEDADA4B66D6D5C98
:10056000526E6565655265765C5C52536E246552C9
:10057000526E25255B52772D2525526E6E2D252531
:10058000000000000000A49B9B4900006564A49B40
:1005900092006D2525649349656E652E9B52242536
:1005A0006D25655225246D2D655225256E2E6452CC
:1005B00000000000000000000000004A00000000F1
:1005C0005B9B0000005B5B2D0000525B2E2E000148
:1005D0005B2D1C01005C5B014A654A5B1C6E7F77EA
:1005E000495B9B77776D5B65776E65656D2D25251E
:1005F0005C522E25130949641C09095C7F7F091C84
:100600007F7F777F777F77777F7F7776777F7F6E44
:10061000656E6EA4B6FF655BA4B7BFFF526DBFBF2A
:10062000BFFF7FBFBFBFBFFFBFBFB7BFFFFF7FB76A
:10063000BFBFFFFF6EB7BFBFFFFF77BFBFBFFFFFEB
:10064000FFFFBFBFB75BFFFFBFBFA464FFFFBFAD2E
:10065000A47FFFFFBFA4BF7FFFBFADBFBFBFFFB67B
:10066000BFBFBF77F7BFBFBF7777FFBFBFBF6452C2
:100670006D7F6E2E2D2D7F766E6E6E2E7777777650
:100680002E1C7F776E251C25776525251C096E6E2F
:100690001C0949255B494A6E7F645377BF775B5CD1
:1006A000256E6E255B4A25651C1B5B002524245B9B
:1006B00053001C1B5B5C00000A5B64000000646468
:1006C000000000005C0000000000000000000000CE
:1006D0005B5C7FBF77765C6D7FB777775C6D7FBF44
:1006E00077775C64BFBFBFBF0A5C6EBFBFBF0065EA
:1006F000646DBFBF00005B6D646D00000000125BA5
:100700007777777F6E6E77777F766D7677BF776D49
:100710006E76BF7F6D6E767FBF7676BFBF76BFBFCA
:10072000BFB664ADADB6B6ADBFFF646DADB6AD647A
:1007300077BFBFBFFFFF77BFBFBFFFFF7FBFBFBF99
:10074000FFF6BFB7ADF6FFFFA4ADFFFFFFFFFFFF52
:10075000FFFFFFFFFFFFFFF6A4005B520000000059
:10076000BFBFAD5B64BFB6ADADBFFFBFFFFFFFFF57
:10077000BF64FFFFBFB6765BFFBFBF5B0000FF5CDF
:100780000000000000000000000000000000000069
:10079000BFBF645C5C006E5C654900006D5B00007F
:1007A0000000000000000000000000000000000049
:1007B0000000000000000000000000000000000039
:1007C0000600040000000100020003000400050010
:1007D00006000700080009000A000B000C000D00CD
:1007E0000E000F0010000000110012001300140092
:1007F000150016000600030000001700180019007D
:100800001A001B001C001D001E001F0020002100FC
:10081000220023002400250026000000000208001A
:10082000085504085A0000F8000990000A1E320515
:100830000000FF0000001C0800000000B816C616EB
:1008400050172A1B141BC916D816E716FA1AF516E4
:10085000031700000000000000000000000000007E
:100860000000000000000000000000000000000088
:100870000000000000000000000000000000000078
:1008800000000000FF00000000FFFFFF000000FF6D
:10089000FFFF00000000FF0000000000FF0000005C
:1008A0000000000000000000FF0000000000000049
:1008B0000000FFFF00FFFF00FFFF00FFFF00FF0041
:1008C00000FF000000000000000000000000000029
:1008D0000000000000000000000000000000000018
:1008E000000000000000000000FF00FF0000FFFF0C
:1008F000FFFFFF0000FF00FF000000FF00FF0000FF
:10090000FFFFFFFFFF0000FF00FF000000000000EE
:10091000000000FF0000000000FFFFFF0000FF00DC
:100920000000000000FFFF000000000000FF0000CA
:10093000FFFFFF0000000000FF00000000000000BB
:100940000000FFFF0000FF00FFFF0000FF000000AD
:1009500000FF00000000FF00000000FF000000009A
:10096000FF0000FFFF00FF0000FFFF00000000008D
:10097000000000FF00000000FF00FF000000FF007B
:10098000FF00000000FF00000000FF00FF00FF006C
:10099000FF0000FF000000FFFF00FF00000000005C
:1009A000000000FFFF00000000FFFF00000000FF4C
:1009B0000000000000000000000000000000000037
:1009C0000000000000000000000000000000000027
:1009D00000000000FF00000000FF0000000000FF1A
:1009E0000000000000FF0000000000FF0000000009
:1009F00000FF000000000000FF00000000000000F9
:100A0000000000FF000000000000FF0000000000E8
:100A1000FF0000000000FF0000000000FF000000D9
:100A20000000FF00000000FF0000000000000000C8
:100A3000000000000000000000FF00FF000000FFB9
:100A4000FFFF0000FFFFFFFFFF0000FFFFFF0000B0
:100A500000FF00FF00000000000000000000000098
:100A600000000000000000000000FF000000000087
:100A7000FF000000FFFFFFFFFF000000FF0000007D
:100A80000000FF0000000000000000000000000067
:100A90000000000000000000000000000000000056
:100AA0000000000000000000000000000000000046
:100AB00000FFFF00000000FFFF00000000FF00003B
:100AC0000000000000000000000000000000000026
:100AD00000000000FFFFFFFFFF000000000000001B
:100AE0000000000000000000000000000000000006
:100AF00000000000000000000000000000000000F6
:100B000000000000000000000000000000000000E5
:100B100000FFFF00000000FFFF00000000000000D9
:100B2000000000000000000000000000FF000000C6
:100B300000FF00000000FF00000000FF00000000B8
:100B4000FF000000000000000000000000000000A6
:100B50000000002F2F2F00002F0000002F002F007B
:100B6000002F2F002F002F002F002F2F00002F000D
:100B70002F0000002F00002F2F2F0000000000008A
:100B8000000000002F000000002F2F0000000000D8
:100B90002F00000000002F00000000002F000000C8
:100BA00000002F000000002F2F2F00000000000089
:100BB0000000002F2F2F00002F0000002F0000004A
:100BC00000002F0000002F2F0000002F0000000069
:100BD0002F00000000002F2F2F2F2F0000000000FB
:100BE0000000002F2F2F00002F0000002F0000001A
:100BF00000002F00002F2F2F0000000000002F000A
:100C00002F0000002F00002F2F2F000000000000F9
:100C100000000000002F000000002F2F0000002F18
:100C2000002F00002F00002F00002F2F2F2F2F004C
:100C30000000002F00000000002F00000000000056
:100C400000002F2F2F2F2F002F00000000002F005B
:100C5000000000002F2F2F2F0000000000002F00A9
:100C60002F0000002F00002F2F2F00000000000099
:100C7000000000002F2F0000002F000000002F00B8
:100C8000000000002F2F2F2F00002F0000002F004A
:100C90002F0000002F00002F2F2F00000000000069
:100CA00000002F2F2F2F2F00000000002F0000002A
:100CB000002F000000002F000000002F00000000A7
:100CC000002F00000000002F0000000000000000C6
:100CD0000000002F2F2F00002F0000002F002F00FA
:100CE00000002F00002F2F2F00002F0000002F00EA
:100CF0002F0000002F00002F2F2F00000000000009
:100D00000000002F2F2F00002F0000002F002F00C9
:100D100000002F00002F2F2F2F00000000002F00B9
:100D20000000002F0000002F2F0000000000000036
:100D3000000000000000000000000000000000FFB4
:100D4000FF00000000FFFF000000000000000000A6
:100D500000FFFF00000000FFFF0000000000000097
:100D6000000000000000000000000000000000FF84
:100D7000FF00000000FFFF00000000000000000076
:100D800000FFFF00000000FFFF00000000FF000068
:100D9000000000000000FF00000000FF0000000055
:100DA000FF00000000FF000000000000FF00000046
:100DB000000000FF000000000000FF000000000035
:100DC0000000000000000000000000000000FFFF25
:100DD000FFFFFF0000000000000000000000000016
:100DE000FFFFFFFFFF000000000000000000000008
:100DF000000000FF000000000000FF0000000000F5
:100E000000FF000000000000FF00000000FF0000E5
:100E10000000FF00000000FF0000000000000000D4
:100E2000000000FFFFFF0000FF000000FF000000C7
:100E30000000FF000000FFFF00000000FF000000B6
:100E40000000000000000000FF00000000000000A3
:100E5000000000FFFFFF0000FF000000FF00FF0098
:100E6000FFFFFF00FF00FF00FF00FF00FFFFFF008C
:100E7000FF000000000000FFFFFF00000000000076
:100E8000000000FFFFFF0000FF000000FF00FF0068
:100E90000000FF00FF000000FF00FFFFFFFFFF005A
:100EA000FF000000FF00FF000000FF000000000046
:100EB0000000FFFFFFFF0000FF000000FF00FF0039
:100EC0000000FF00FFFFFFFF0000FF000000FF0029
:100ED000FF000000FF00FFFFFFFF00000000000018
:100EE000000000FFFFFF0000FF000000FF00FF0008
:100EF00000000000FF0000000000FF0000000000F4
:100F0000FF000000FF0000FFFFFF000000000000E6
:100F10000000FFFFFFFF0000FF000000FF00FF00D8
:100F20000000FF00FF000000FF00FF000000FF00C6
:100F3000FF000000FF00FFFFFFFF000000000000B7
:100F40000000FFFFFFFFFF00FF0000000000FF00A8
:100F500000000000FFFFFFFF0000FF000000000096
:100F6000FF0000000000FFFFFFFFFF000000000087
:100F70000000FFFFFFFFFF00FF0000000000FF0078
:100F800000000000FFFFFFFF0000FF000000000066
:100F9000FF0000000000FF00000000000000000053
:100FA000000000FFFFFF0000FF000000FF00FF0047
:100FB00000000000FF00FFFFFF00FF000000FF0037
:100FC000FF000000FF0000FFFFFFFF000000000027
:100FD0000000FF000000FF00FF000000FF00FF0016
:100FE0000000FF00FFFFFFFFFF00FF000000FF0009
:100FF000FF000000FF00FF000000FF0000000000F5
:10100000000000FFFFFF00000000FF0000000000E4
:10101000FF0000000000FF0000000000FF000000D3
:101020000000FF00000000FFFFFF000000000000C4
:10103000000000000000FF0000000000FF000000B2
:101040000000FF0000000000FF00FF000000FF00A4
:10105000FF000000FF0000FFFFFF00000000000095
:101060000000FF000000FF00FF0000FF0000FF0085
:10107000FF000000FFFF00000000FF00FF00000075
:10108000FF0000FF0000FF000000FF000000000064
:101090000000FF0000000000FF0000000000FF0053
:1010A00000000000FF0000000000FF000000000042
:1010B000FF0000000000FFFFFFFFFF000000000036
:1010C0000000FF000000FF00FFFF00FFFF00FF0027
:1010D000FF00FF00FF000000FF00FF000000FF0016
:1010E000FF000000FF00FF000000FF000000000004
:1010F0000000FF000000FF00FFFF0000FF00FF00F6
:10110000FF00FF00FF0000FFFF00FF000000FF00E6
:10111000FF000000FF00FF000000FF0000000000D3
:10112000000000FFFFFF0000FF000000FF00FF00C5
:101130000000FF00FF000000FF00FF000000FF00B4
:10114000FF000000FF0000FFFFFF000000000000A4
:101150000000FFFFFFFF0000FF000000FF00FF0096
:101160000000FF00FFFFFFFF0000FF000000000085
:10117000FF0000000000FF00000000000000000071
:10118000000000FFFFFF0000FF000000FF00FF0065
:101190000000FF00FF000000FF00FF00FF00FF0055
:1011A000FF0000FF000000FFFF00FF000000000044
:1011B0000000FFFFFFFF0000FF000000FF00FF0036
:1011C0000000FF00FFFFFFFF0000FF0000FF000026
:1011D000FF000000FF00FF000000FF000000000013
:1011E000000000FFFFFF0000FF000000FF00FF0005
:1011F0000000000000FFFFFF000000000000FF00F3
:10120000FF000000FF0000FFFFFF000000000000E3
:101210000000FFFFFFFFFF000000FF0000000000D4
:10122000FF0000000000FF0000000000FF000000C1
:101230000000FF0000000000FF00000000000000B0
:101240000000FF000000FF00FF000000FF00FF00A3
:101250000000FF00FF000000FF00FF000000FF0093
:10126000FF000000FF0000FFFFFF00000000000083
:101270000000FF000000FF00FF000000FF00FF0073
:101280000000FF00FF000000FF00FF000000FF0063
:1012900000FF00FF00000000FF0000000000000051
:1012A0000000FF000000FF00FF000000FF00FF0043
:1012B000FF00FF00FF00FF00FF00FF00FF00FF0036
:1012C000FF00FF00FF0000FF00FF00000000000023
:1012D0000000FF000000FF00FF000000FF0000FF13
:1012E00000FF00000000FF00000000FF00FF000002
:1012F000FF000000FF00FF000000FF0000000000F2
:101300000000FF000000FF00FF000000FF00FF00E2
:101310000000FF0000FF00FF00000000FF000000D1
:101320000000FF0000000000FF00000000000000BF
:101330000000FFFFFFFF0000000000FF00000000B2
:10134000FF00000000FF00000000FF0000000000A0
:10135000FF0000000000FFFFFFFF00000000000092
:1013600000000000FFFF000000FF0000000000FF81
:1013700000000000FFFF0000000000FF0000000070
:1013800000FF000000000000FFFF00000000000060
:1013900000000000FFFF000000FF0000FF00FF0052
:1013A000FFFF00FFFF00FF0000FFFF00FFFF00FF47
:1013B00000FF0000FF000000FFFF00000000000031
:1013C000000000FFFF000000000000FF0000000020
:1013D00000FF0000000000FFFF00000000FF000011
:1013E000000000FF000000FFFF0000000000000000
:1013F000000030202020383830303838181830308D
:10140000383818183030383818183030383818183C
:1014100030302020181830202020201820202020B4
:1014200020200101010202020101010A010A020158
:10143000010B1301020101130A020201010A130246
:10144000020201130B020201010A0A020102021345
:1014500013010A02020202020A0B0B0A010A130A12
:101460000A0B1301130B0A130A02130A0B0A1302C5
:101470000202010201010201010101010102020255
:1014800002000A02020202020A0B0B0A010A130AF4
:101490000A0B1301130B0A130A02130A0B0A130295
:1014A000020201130B020201010A0A0201020213E5
:1014B00013010101010202020101010A010A0201F4
:1014C000010B1301020101130A020201010A1302B6
:1014D00002020102010102010001010101020202F6
:1014E00002000A02020202020A0B0B0A010A130A94
:1014F0000A0B1301130B0A130A02130A0B0A130235
:1015000013130A130B02130A0A0A0A020B1313130A
:1015100013010A02020202020A0B3F3F010A13FFF3
:10152000FFFFFF013F00FF00FF3F3FFFFFFFFF3FC7
:101530003F3F3F3F3F3F133F3F3F3F020B133F3F84
:1015400013010A02020202020A0B3F3F010A13FFC3
:10155000FFFFFF013FFF00FF003F3FFFFFFFFF3F97
:101560003F3F3F3F3F3F133F3F3F3F020B133F3F54
:1015700013010A02020202020A0B3F3F010A130092
:10158000FF00FF013FFFFFFFFF3F3FFFFFFFFF3F68
:101590003F3F3F3F3F3F133F3F3F3F020B133F3F24
:1015A00013010A02020202020A0B3F3F010A13FF63
:1015B000FFFFFF013FFFFFFFFF3F3F00FF00FF3F37
:1015C0003F3F3F3F3F3F133F3F3F3F020B133F3FF4
:1015D00013010AFF0202FF020AFFFFFFFF0A13FFC7
:1015E0000A0BFF0113FF0A13FF0213FFFFFFFF02A5
:1015F00013FF0A13FF0213FF0A0AFF020B13131350
:1016000013010000000000000000000000000000C6
:1016100000000000000000000000000000000000CA
:1016200000000000000000000000000000000000BA
:101630000000C7C7C7C7C7C7C7C7C7C7C7C7C7C7C8
:10164000C7C7C7C7C7C7C7C7C7C7C7C7C7C7C7C72A
:10165000C7C7C7C7C7C7C7C7C7C7C7C7C7C7C7C71A
:10166000C7C700594F5520455343415045442100B9
:1016700053494D504C45204D415A452044454D4F0E
:10168000202D20434C415920434F5747494C4C2C67
:1016900020323030380011241FBECFEFD0E1DEBF42
:1016A000CDBF14BE88E10FB6F8948093600010920D
:1016B00060000FBE11E0A0E0B1E0E0EFFDE302C08A
:1016C00005900D92A831B107D9F710E1A8E1B1E07A
:1016D00001C01D92A236B107E1F7F894E1E0FAE00B
:1016E00080E090E020E802C02193019632E08C3047
:1016F0009307D4F381E09AE090930E0C80930D0C45
:1017000010920F0CE2E1FCE080E090E003C0108258
:1017100001963A9684309105D4F390933B0C8093D4
:101720003A0C91E09093320C9093330C9093310CDF
:101730001092810015BC8FEF87B984B980E88AB90F
:101740008CE081B98BEF82B91092E00986E080933A
:10175000E109109285001092840083E08093890053
:101760008DE88093880089E08093810082E08093F7
:101770006F0082E484BD17BC95BD83E88093B00000
:101780001092B3009093B10081E185B91092F409F1
:101790001092E4091092E5091092EF091092EE09F7
:1017A0001092F3091092F20910923C0C0E94E1157C
:1017B00080E00E94E50D80FF03C084E00E94E20DFE
:1017C00078940E946A160E94CE1C0C94F61E0C940B
:1017D0000000DE0CE80CF60C4A0CEEEDC89500009B
:1017E000EA95E1F7C895C895C0E2D1E000EEA02ED9
:1017F000662776E0D4D03FE13A95F1F70E94280CB5
:1018000030E23A95F1F7AA9489F0C895639568306B
:1018100029F0C895C895C8950000ECCF662700242C
:1018200030E5C30FD01DC8950000E4CF35E03A95F0
:10183000F1F700C0B4D011E00091E3090127009353
:10184000E30900FF1093E209E2E0E0933600089517
:10185000DE01679FC0014D915D91480F591FFA014C
:1018600028E2059108B94D91059108B95D9105915E
:1018700008B900C0059108B9480F591F059108B96A
:101880000591FA012A9508B961F700C00027000008
:1018900008B9089528980E94A00FE7E1EA95F1F7AA
:1018A000289AE3D0E0E0F6E0C6D0E0FF05D0E0FF04
:1018B00002C00E94C70E0895EF93E091E109E93E4E
:1018C000E0F5E930D0F12F923F924F925F926F9204
:1018D0007F928F929F92AF92BF92CF92DF92EF92C0
:1018E000FF920F931F932F933F934F935F936F93A9
:1018F0007F938F939F93AF93BF93CF93DF930E9478
:10190000ED0BDF91CF91BF91AF919F918F917F911F
:101910006F915F914F913F912F911F910F91FF9088
:10192000EF90DF90CF90BF90AF909F908F907F907F
:101930006F905F904F903F902F90EF910895FF939D
:10194000EF93EFB7EF93E0918400EE50E13000F0B9
:10195000E23000F0E33000F0E43000F0E53000F079
:10196000E63000F0E73000F0E83000F0E93000F059
:1019700005D0EF91EFBFEF91FF9118950F921F9255
:10198000E2EDF7E10090E009000C1124E00DF11DFB
:1019900005901490F00109951F900F9008952898D4
:1019A0000E94A00FE5E1EA95F1F7E091E109EA95DF
:1019B000E093E109289A00000000089528980E9409
:1019C000C90F289A0000E1E0F6E035D047D008952D
:1019D00028980E94C90FE0EB0000EA95E9F70000A3
:1019E0000000289AF6E0E2E026D0089528980E94A8
:1019F000C90F289A0000E3E0FDEF1DD0E091E10956
:101A0000E53091F4E091E309E1300000F091F40950
:101A100019F4F091F409F195E3E0E0938900EDE821
:101A2000EF0FE09388000895E3E0E0938900EDE88C
:101A3000E093880008950090E1090A9410905F00F7
:101A400011FC0F2E0092E1090090E00911FC0E2E0E
:101A50000092E009E0E011FCE1E00895E3E0E093AA
:101A60008900EDE8E09388000895E7E0E0938900BD
:101A7000EBE1E09388000895E0E6F4E0A0E2B1E055
:101A80006091EA097091EB096D937D933197E1F7CD
:101A9000112408950F931F9380E694E0A0E2B1E033
:101AA000E091E809F091E90940E30091E60910911D
:101AB000E70965917591649F9001749F300D200F27
:101AC000311F2D933D930197A1F711241F910F9181
:101AD000089599277727332720E5629F880F080EFE
:101AE000131EE091E809F091E909E00DF11D45911F
:101AF0005591A0E2B1E0A00DB11D20E3429FB001DD
:101B0000529F700D4091E6095091E709640F751FCF
:101B10006D937C93112408959927552728E2220F6D
:101B2000629F880F080E191EA0E2B1E0A00DB11D42
:101B30006091EA097091EB0920E3429F600D711DED
:101B40006D937C93112408959927772728E2220F1B
:101B5000629F880F080E191EA0E2B1E0A00DB11D12
:101B60006091E6097091E70920E3429F600D711DC5
:101B7000529F700D6D937C93112408958093E80912
:101B80009093E90908958093EA099093EB090895E9
:101B90008093E6099093E70908958091E2090895FA
:101BA00011241092E209089580E891E08093610089
:101BB00090936100089580E890E080936100909395
:101BC000610008958093F4090895882329F4809191
:101BD000EC099091ED0908958091F0099091F10937
:101BE0000895882329F48091EE099091EF090895D2
:101BF0008091F2099091F309089578E07A95F1F7D0
:101C000000000197D1F70895F999FECF92BD81BDEB
:101C100060BDF894FA9AF99A78940895F999FECFEC
:101C200092BD81BDF894F89A80B57894089500002B
:101C300000000000000000000000000000000000A4
:101C40000000000000000000000000000000000094
:101C50000000000000000000000000000000000084
:101C60000000000000000000000000000000000074
:101C70000000000000000000000000000000000064
:101C80000000000000000000000000000000000054
:101C90000000000000000000000000000000000044
:101CA0000000000000000000000000000000000034
:101CB0000000000000000000000000000000000024
:101CC0000000000000000000000000000000000014
:101CD0000000000000000000000000000000000004
:101CE00000000000000000000000000000000000F4
:101CF00000000000000000000000000000000000E4
:101D000099277727833008F00895E0E0FAE2660F1C
:101D1000771FE60FF71FA591B491E2E1FCE02AE0FE
:101D2000289FE00DF11DA183B283112408959091A5
:101D3000310C9170880F892B8093310C089599276D
:101D40007727E2E1FCE02AE0289FE00DF11D6E3FDD
:101D500031F46091310C6E7F6093310C0BC06F3F9A
:101D600031F46091310C6E6F6093310C03C070E2FE
:101D7000760F75831124089599277727E2E1FCE017
:101D80002AE0289FE00DF11D6083112408952F9310
:101D90003F934F935F936F937F938F939F93AF93F3
:101DA000BF93789411240E943F1B0E942A160E9420
:101DB00024182F923F924F925F926F927F928F9250
:101DC0009F92AF92BF92CF92DF92EF92FF920F93CA
:101DD0001F93CF93DF9300900F0C002019F4A1E024
:101DE000BAE002C0A7E0BBE001E0002600920F0CC1
:101DF00002E00093100C5091300C6091320C709105
:101E0000330C8091340C2090130C3090140C4090C3
:101E1000160C5090170C6090150C1091120C7090CD
:101E20001D0C80901E0C90901F0CA090200CB09068
:101E3000210C20911C0CC090270CD090280CE09015
:101E40002A0CF0902B0C0091290C3091260C9FEF5E
:101E5000620C431CF2014491410300240008C12D8F
:101E6000D02D970CA81CF5014491420300240008D2
:101E7000C10DD01D0C0DED1CF7014491430300244E
:101E80000008C10DD01D8A956AF44091310C842F51
:101E90008695062E0694062600FA7695679576F9BD
:101EA00040FF66F940E860FD4FE745030024000865
:101EB000C10DD01D0024C038D0050CF0CFE70A9426
:101EC000C038D0050CF4C0E8C058CD939A9509F0FD
:101ED000BFCF4091100C4A954093100C97E009F049
:101EE000B7CF6092150C4092160C90921F0CA092E6
:101EF000200C0093290CE0922A0C6093320C709312
:101F0000330C8093340CDF91CF911F910F91FF9090
:101F1000EF90DF90CF90BF90AF909F908F907F9089
:101F20006F905F904F903F902F90BF91AF919F9196
:101F30008F917F916F915F914F913F912F91089574
:101F40000C94A20F0C94A40F0F931F932ABDE09141
:101F50000D0CF0910E0C019100000093B3000CE009
:101F6000ED30F00710F40000000010F0E1E0FAE0BE
:101F7000E0930D0CF0930E0CC895C895C895C895C4
:101F8000C895C8950000000000002AB51F910F9168
:101F900008950000E091E109E0FFD6CFE1E1EA9584
:101FA000F1F70000000008950000000000000000AC
:101FB0000000000000000000000000000000000021
:101FC0000000000000000000000000000000000011
:101FD0000000000000000000000000000000000001
:101FE00000000000000000000000000000000000F1
:101FF00000000000000000000000000000000000E1
:10200000000306090C101316191C1F2225282B2E5D
:10201000313336393C3F414447494C4E5153555872
:102020005A5C5E60626466686A6B6D6F707173742F
:10203000757678797A7A7B7C7D7D7E7E7E7F7F7FE8
:102040007F7F7F7F7E7E7E7D7D7C7B7A7A797876CE
:1020500075747371706F6D6B6A68666462605E5CE4
:102060005A585553514E4C494744413F3C393633F9
:10207000312E2B2825221F1C191613100C090603BC
:1020800000FDFAF7F4F0EDEAE7E4E1DEDBD8D5D2C3
:10209000CFCDCAC7C4C1BFBCB9B7B4B2AFADABA88E
:1020A000A6A4A2A09E9C9A9896959391908F8D8CB1
:1020B0008B8A8887868685848383828282818181D8
:1020C0008181818182828283838485868687888AD2
:1020D0008B8C8D8F9091939596989A9C9EA0A2A49C
:1020E000A6A8ABADAFB2B4B7B9BCBFC1C4C7CACD67
:1020F000CFD2D5D8DBDEE1E4E7EAEDF0F4F7FAFD84
:10210000808182838485868788898A8B8C8D8E8F57
:10211000909192939495969798999A9B9C9D9E9F47
:10212000A0A1A2A3A4A5A6A7A8A9AAABACADAEAF37
:10213000B0B1B2B3B4B5B6B7B8B9BABBBCBDBEBF27
:10214000C0C1C2C3C4C5C6C7C8C9CACBCCCDCECF17
:10215000D0D1D2D3D4D5D6D7D8D9DADBDCDDDEDF07
:10216000E0E1E2E3E4E5E6E7E8E9EAEBECEDEEEFF7
:10217000F0F1F2F3F4F5F6F7F8F9FAFBFCFDFEFFE7
:10218000000102030405060708090A0B0C0D0E0FD7
:10219000101112131415161718191A1B1C1D1E1FC7
:1021A000202122232425262728292A2B2C2D2E2FB7
:1021B000303132333435363738393A3B3C3D3E3FA7
:1021C000404142434445464748494A4B4C4D4E4F97
:1021D000505152535455565758595A5B5C5D5E5F87
:1021E000606162636465666768696A6B6C6D6E6F77
:1021F000707172737475767778797A7B7C7D7E7F67
:1022000000020406080A0C0E10121416181A1C1EDE
:1022100020222426282A2C2E30323436383A3C3ECE
:1022200040424446484A4C4E50525456585A5C5EBE
:1022300060626466686A6C6E70727476787A7C7EAE
:102240007F7D7B79777573716F6D6B69676563618E
:102250005F5D5B59575553514F4D4B49474543417E
:102260003F3D3B39373533312F2D2B29272523216E
:102270001F1D1B19171513110F0D0B09070503015E
:10228000FFFDFBF9F7F5F3F1EFEDEBE9E7E5E3E14E
:10229000DFDDDBD9D7D5D3D1CFCDCBC9C7C5C3C13E
:1022A000BFBDBBB9B7B5B3B1AFADABA9A7A5A3A12E
:1022B0009F9D9B99979593918F8D8B89878583811E
:1022C00080828486888A8C8E90929496989A9C9E1E
:1022D000A0A2A4A6A8AAACAEB0B2B4B6B8BABCBE0E
:1022E000C0C2C4C6C8CACCCED0D2D4D6D8DADCDEFE
:1022F000E0E2E4E6E8EAECEEF0F2F4F6F8FAFCFEEE
:102300007F7F7F7F7F7F7F7F7F7F7F7F7F7F7F7FDD
:102310007F7F7F7F7F7F7F7F7F7F7F7F7F7F7F7FCD
:102320007F7F7F7F7F7F7F7F7F7F7F7F7F7F7F7FBD
:102330007F7F7F7F7F7F7F7F7F7F7F7F7F7F7F7FAD
:102600000309131E28313A40464C5054585B5E6112
:10261000636567696B6C6E6F7071727374757677D2
:10262000777879797A7A7B7B7C7C7C7D7D7D7E7EF8
:102630007E7E7F7F7F7F7F7F7F7F7F7F7F7F7F7FAC
:102640007F7F7F7F7F7F7F7F7F7F7F7F7F7E7E7E9D
:102650007E7D7D7D7C7C7C7B7B7A7A7979787777CF
:10266000767574737271706F6E6C6B696765636198
:102670005E5B5854504C46403A31281E1309030003
:10268000C6CCD5DBDFE3E5E7E9EAEBECEDEEEFEF17
:10269000F0F0F0F1F1F1F1F2F2F2F2F2F2F2F2F323
:1026A000F3F3F3F3F3F3F3F3F3F3F3F3F3F3F3F3FA
:1026B000F3F3F3F3F3F3F3F3F3F3F3F3F3F3F3F3EA
:1026C000F3F3F3F3F3F3F3F3F3F3F3F3F3F3F3F3DA
:1026D000F3F3F3F3F3F3F3F3F3F3F3F3F3F3F3F3CA
:1026E000F2F2F2F2F2F2F2F2F1F1F1F1F0F0F0EFD7
:1026F000EFEEEDECEBEAE9E7E5E3DFDBD5CCC60096
:1027000000283D42302D2C2B2C2D2E2F30323335EE
:1027100037393B3D3F414345484A4C4E505355574E
:10272000595B5D5F61636567696B6C6E7071737433
:10273000757778797A7B7C7D7D7E7E7F7F7F7F7FDA
:102740007F7F7F7F7F7F7E7E7D7D7C7B7A797877C0
:1027500075747371706E6C6B69676563615F5D5BE7
:1027600059575553504E4C4A484543413F3D3B39DC
:1027700037353332302F2E2D2C2B2C2D30423D2847
:1027800000E9E5FED4D7D7D7D6D4D2D0CECCCAC8AC
:10279000C6C3C1BFBDBAB8B6B4B1AFADABA9A7A5EA
:1027A000A3A19F9E9C9A999795949391908F8D8CBD
:1027B0008B8A8988888786858584848483838383BC
:1027C0008383838383848484858586878888898AB4
:1027D0008B8C8D8F909193949597999A9C9E9FA1A5
:1027E000A3A5A7A9ABADAFB1B4B6B8BABDBFC1C3BD
:1027F000C6C8CACCCED0D2D4D6D7D7D7D4FEE5E976
:10280000F9F8F9F5EBE1DDDEE0E2E4E5E6E5E4E246
:10281000DED9D2CAC1B7ACA299918A868381808061
:102820008182838586888A8C8D8F909293959697E6
:1028300098999A9B9B9C9D9D9D9E9E9E9F9F9F9FCE
:102840009F9F9F9E9E9E9D9D9D9C9B9B9A999897C6
:1028500096959392908F8D8C8A88868583828180CD
:10286000808183868A9199A2ACB7C1CAD2D9DEE2AF
:10287000E4E5E6E5E4E2E0DEDDE1EBF5F9F8F900B8
:102880000708070B151F2322201E1C1B1A1B1C1ECA
:1028900022272E363F49545E676F767A7E7F7F7F90
:1028A0007F7E7D7B7A7876747371706E6D6B6A69EA
:1028B00068676665656464636362626261616161E1
:1028C00061616162626263636364656566676869CA
:1028D0006A6B6D6E7071737476787A7B7D7E7F7FA4
:1028E0007F7F7E7A766F675E54493F362E27221EA1
:1028F0001C1B1A1B1C1E2022231F150B0708070078
:102900001F313D444E5354565A5F64696E74767954
:102910007C7F7F7F7F7F7F7F7F7F7F7F7F7F7F7FCA
:102920007F7F7F7F7F7F7F7F7F7F7F7F7F7F7F7FB7
:102930007F7F7F7F7F7F7F7F7F7F7F7F7F7F7F7FA7
:102940007F7F7F7F7F7F7F7F7F7F7F7F7F7F7F7F97
:102950007F7F7F7F7F7F7F7F7F7F7F7F7F7F7F7F87
:102960007F7F7F7F7F7F7F7F7F7F7F7F7F7F7F7F77
:102970007F7F7F7F7F7F7F7F7F7F7F7C7871684CC9
:102980002C1C120C0A0B0A05FDF3E9DFD4CAC0B7F0
:10299000AEA69E97918B8685828080808080808085
:1029A0008080808080808080808080808080808027
:1029B0008080808080808080808080808080808017
:1029C0008080808080808080808080808080808007
:1029D00080808080808080808080808080808080F7
:1029E00080808080808080808080808080808080E7
:1029F000808080808087919DACC4CBD4DDF2FAFAD0
:102A000022002400260028002B002D003000330077
:102A1000360039003D004000440048004C005100A1
:102A200056005B00600066006C0073007900810056
:102A3000880090009900A200AC00B600C100CC0054
:102A4000D800E500F3000101100121013201440129
:102A500057016C0181019801B001CA01E501020230
:102A60002102410264028802AE02D702030330034E
:102A700061039403CB03050442048304C7041005D7
:102A80005D05AF0505066106C20629079607090818
:102A9000830805098E09200ABA0A5D0B0A0CC10CCD
:102AA000840D510E2B0F121007110A121D13401422
:102AB0007415BA1614188319071BA31C571E24205B
:102AC0000E22142439267F28E82A752D2930063352
:102AD0000F364539AD3C49401B442848734CFE50E5
:102AE000CF55EA5A51600C661D6C8B725A799280F0
:102AF00037885090E598FDA19FABD3B5A3C00000E7
:102B0000A0E0B0E0E6E8F5E10C94C71EEC01A88077
:102B1000B980CA80DB80A114B104C104D10441F49E
:102B200084E2A82E89EDB82E8BE5C82E87E0D82E3A
:102B3000C601B5012DE133EF41E050E00E94A41E33
:102B400027EA31E440E050E00E94851E7B018C01C1
:102B5000C601B5012DE133EF41E050E00E94A41E13
:102B6000CA01B9012CEE34EF4FEF5FEF0E94851ED2
:102B70006E0D7F1D801F911F97FF04C06150704034
:102B800080409048688379838A839B839B013F7749
:102B9000C901CDB7DEB7EAE00C94E31E0E948015B0
:102BA000089584E191E00E9480150895A0E0B0E0CE
:102BB0008093140190931501A0931601B09317010F
:102BC0000895FF920F931F93CF93DF93129A8091F2
:102BD0003C0C882329F081E090E00E94FD0D02C0AA
:102BE000C895C895129800E010E0C0E0D0E0FF243E
:102BF00016950795D695C795139880913C0C882318
:102C000029F085E090E00E94FD0D02C0C895C895AE
:102C1000009B1068019BD068139A80913C0C88231C
:102C200029F085E090E00E94FD0D02C0C895C8958E
:102C3000F39480E1F816E1F61093ED090093EC09A6
:102C4000D093F109C093F009DF91CF911F910F91BB
:102C5000FF900895FF920F931F93CF93DF930E94ED
:102C6000E1158091EC099091ED0997FD06C08091E6
:102C7000F0099091F10997FF27C081E090E00E9450
:102C8000FD0D00E010E0C0E0D0E0FF24000F111FB8
:102C9000CC0FDD1F1398C895C895C895C895009BA3
:102CA0000160019BC160139A88E090E00E94FD0DD5
:102CB000F39480E1F81651F71093EF090093EE09B1
:102CC000D093F309C093F209DF91CF911F910F9137
:102CD000FF900895EF92FF920F931F9303E318E084
:102CE000C8010E94111770E7E72E70E0F72EC701A8
:102CF0000E94C80DC7010E94C30D0E943C0D8FE0C9
:102D000090E00E94631BC8010E94111741E06FEF21
:102D100080E00E947C1A00EC17E0A8016CE082E1E0
:102D20000E94961B83E090E00E94631B44EF57E0F3
:102D30006CE082E10E94961B82E090E00E94631B9F
:102D4000A8016CE082E10E94961B84E190E00E9461
:102D5000631B8AE090E00E94631B0E943C0D84E1AB
:102D600090E00E94631B1F910F91FF90EF900895D8
:102D700090E026E130E0829FF001839FF00D929F6A
:102D8000F00D1124E15CF34F628708956093310CDC
:102D9000089590E026E130E0829FF001839FF00DDE
:102DA000929FF00D1124E15CF34F13861182089578
:102DB00090E026E130E0829FF001839FF00D929F2A
:102DC000F00D1124E15CF34F81E0838B089590E0D6
:102DD00026E130E0829FF001839FF00D929FF00D7D
:102DE0001124E15CF34F6187089590E026E130E023
:102DF000829FF001839FF00D929FF00D1124E15C02
:102E0000F34F6483089590E026E130E0829FF00163
:102E1000839FF00D929FF00D1124E15CF34F6583C9
:102E2000089590939A0C8093990C8FE680939F0C51
:102E30001092000AEFE3FCE021E08FEF98E120839D
:102E400010868683878314861182958376963CE06C
:102E5000E739F307A1F70895DC01ED91FC91119793
:102E6000AF014F5F5F4F11965C934E93E4912E2F0D
:102E700030E0E7FF13C02F7730703695322F2227CE
:102E800037952795FA014F5F5F4FE4918E2F8F772B
:102E9000280F311DE7FDF1CF4D935C93C9010895D3
:102EA0000E949F0E0895EF92FF920F931F93CF936E
:102EB000DF93182F062FF42EE22EC82FD0E086E1E4
:102EC00090E0C89FF001C99FF00DD89FF00D11242C
:102ED000E15CF34F8385882321F08181882309F009
:102EE000ACC0EE2091F486E190E0C89FF001C99F4C
:102EF000F00DD89FF00D1124E15CF34F138A828509
:102F0000882309F09AC0108698C0133059F481E0E4
:102F100091E09093330C8093320C81E08093310CDC
:102F20000F2D08C060E0812F0E949F0E6F2D812F12
:102F30000E94800E0F3799F486E190E0C89FF0015F
:102F4000C99FF00DD89FF00D1124E15CF34F8091E3
:102F50009C0C87878DE99CE0958B848B30C089E041
:102F6000089FC0011124E091990CF0919A0CE80F90
:102F7000F91F3396459154914115510571F486E13D
:102F800090E0C89FF001C99FF00DD89FF00D11246B
:102F9000E15CF34F158A148A12C0FA01249186E18C
:102FA00090E0C89FF001C99FF00DD89FF00D11244B
:102FB000E15CF34F27874F5F5F4F558B448B86E172
:102FC00090E0C89FD001C99FB00DD89FB00D1124CB
:102FD000A15CB34F50961C9250971A961C921A9768
:102FE0001C960C931C9711961C9211972FEF199613
:102FF0002C9319971896EC9218978BE090E0C89F45
:10300000F001C99FF00DD89FF00D1124EE0FFF1FA6
:10301000EF5BF34FF08251961C92519781E01B9623
:103020008C931B9753961C92539752961C925297CF
:1030300014961C92149716962C93DF91CF911F91A2
:103040000F91FF90EF900895CF92DF92FF920F9330
:103050001F93CF93DF93E8E4FCE08181282F33278F
:1030600027FD30958081280F311D2F3F310519F044
:1030700014F02FEF30E0C90137FF02C080E090E08C
:10308000808376964CE0E03AF40739F78091000AA5
:10309000882309F027C143C1E091A20CF091A30C51
:1030A0009F012F5F3F4F3093A30C2093A20C4491BC
:1030B0004F3F69F5A9014F5F5F4F5093A30C4093B9
:1030C000A20CF90184918F3219F41092000A18C1F0
:1030D000863009F0FAC0FA013196CF01019690933B
:1030E000A30C8093A20CE491E33529F49093A60CF1
:1030F0008093A50CEAC0E53409F0E7C08091A50CE7
:103100009091A60C9093A30C8093A20CDEC047FF75
:1031100002C040939B0C542F5F70842F90E0807FFF
:103120009070803B910529F1803C910579F18039BF
:10313000910509F042C0C9010196F9014491019637
:103140009093A30C8093A20C0197FC012491852FEE
:1031500090E08C9FF0018D9FF00D9C9FF00D11244D
:10316000E15CF34F8081882309F4AFC0220F6485AE
:1031700052C0C9010196F901449101969093A30CA4
:103180008093A20C0197FC01249153C02F5F3F4F05
:103190003093A30C2093A20C21503040F9012491CC
:1031A000852F90E08C9FF0018D9FF00D9C9FF00D7E
:1031B0001124E15CF34F248788C080919B0C582F29
:1031C0005F7090E0807F9070803B910541F1803C82
:1031D000910509F46EC08039910509F076C02F5F22
:1031E0003F4F3093A30C2093A20C21503040F901A3
:1031F0002491852F90E08C9FD0018D9FB00D9C9FD6
:10320000B00D1124A15CB34F8C91882309F45DC0EB
:10321000220F1C966C91852F0E94531756C02F5F6A
:103220003F4F3093A30C2093A20C21503040F90162
:103230002491473071F4852F90E08C9FF0018D9F91
:10324000F00D9C9FF00D1124E15CF34F220F2783BA
:103250003CC04B3071F4852F90E08C9FF0018D9F26
:10326000F00D9C9FF00D1124E15CF34F220F26839B
:103270002CC04C3571F4852F90E08C9FF0018D9F10
:10328000F00D9C9FF00D1124E15CF34F220F24837D
:103290001CC04436D1F4852F90E08C9FF0018D9FA7
:1032A000F00D9C9FF00D1124E15CF34F220F25835C
:1032B0000CC0852F90E08C9FF0018D9FF00D9C9F9E
:1032C000F00D1124E15CF34F448782EA9CE00E94F8
:1032D0002C179093A10C8093A00C1092980C109234
:1032E000970C02C0C6E1D0E06091970C7091980CE9
:1032F0008091A00C9091A10C6817790709F4CCCEAD
:103300006F5F7F4F7093980C6093970C80919D0C2A
:1033100090919E0C019690939E0C80939D0C02E1DF
:103320001CE0C0E4DCE0FF24BFEFCB2ED12C8A8967
:10333000882309F05EC08B899C89892B09F456C0CB
:103340009F858E85981708F04CC050C08B852B89BF
:103350003C898F37E9F4D9018D91BC8BAB8B8F3FC2
:1033600001F1F90161811196BC8BAB8BE82FF0E084
:10337000EE0FFF1FE45CF74F0190F081E02D8F2DE1
:103380000995EB89FC8981918E87FC8BEB8B28C09A
:10339000A9014F5F5F4F5C8B4B8BF90184918F3F8D
:1033A00021F418821C8A1B8A21C04F5F5F4F5C8BFF
:1033B0004B8B41505040FA01649190E0880F991F67
:1033C000845C974FFC01259134918F2DF90109956B
:1033D000EB89FC893196FC8BEB8B3197E491EE877E
:1033E0001F869F858E85981709F4B0CF8F858F5FD4
:1033F0008F878A85882319F420E030E06BC08889A4
:103400008F3F11F08F5F888B9F81992309F45CC0F7
:103410002885222309F458C08E81882309F454C0DA
:1034200040919F0C442309F44FC0899FC00111248F
:1034300080509F4F892F992730E0B901869F9001D6
:10344000879F300D969F300D112420503F4F232F22
:1034500033278D8190E0FC012E9FC0012F9F900D9E
:103460003E9F900D112480509F4F892F9927242F24
:1034700030E0AC01429FC001439F900D529F900DE0
:10348000112480509F4F292F33278B818823F1F0FF
:10349000EA81F0E0E050F04EE491E058E89FC0018E
:1034A000112480509F4F892F9927B601681B790BF3
:1034B000629FC001639F900D729F900D11248050F8
:1034C0009F4F292F332702C020E030E08A819C8162
:1034D000890F8A83F8012083F394065F1F4F669655
:1034E000F4E0FF1609F023CFDF91CF911F910F91E8
:1034F000FF90DF90CF9008951F93CF93DF93582FC5
:1035000089E0589FC00111242091990C30919A0CA8
:10351000280F391FC9010396FC01A591B491F90147
:1035200084918150823010F413E01DC08091560CBC
:103530008823B1F08091620C851711F4442381F443
:1035400080916C0C882371F08091780C851711F4B0
:10355000442341F49091660C80917C0C891710F4FF
:1035600011E001C012E0212F30E0FD01449186E11D
:1035700090E0289FE001299FD00D389FD00D1124A5
:10358000C15CD34F4F871196BD8BAC8B188A8BE0F3
:1035900090E0289FF001299FF00D389FF00D112435
:1035A000EE0FFF1FEF5BF34F80E5808368878FEF9F
:1035B00089871A861B8A198A21E02B871A8A5D87D8
:1035C00029831C828E83133049F481E091E090932B
:1035D000330C8093320C2093310C08C060E5812FAE
:1035E0000E94800E6A89812F0E949F0EDF91CF91E9
:1035F0001F910895FF920F931F93082FF62E0E949C
:10360000800E10E08BE090E0089FF001099FF00D24
:10361000189FF00D1124EE0FFF1FEF5BF34FF082A8
:103620001F910F91FF900895962F482F50E02BE0A7
:1036300030E0429FF001439FF00D529FF00D1124A6
:10364000EE0FFF1FEF5BF34F6081691B60830E94E9
:10365000800E0895482F50E02BE030E0429FF001AB
:10366000439FF00D529FF00D1124EE0FFF1FEF5BF3
:10367000F34F9081690F60830E94800E08958091BE
:10368000A90C8823F9F08091AA0C8823C1F48091B9
:10369000A70C8093AA0C9091AB0CE92FF0E0E150BD
:1036A000FF4F808187B98091A80C890F8093AB0C64
:1036B000882311F08D3031F41092A90C08958150B7
:1036C0008093AA0C08950F931F93CF93DF938C01DF
:1036D000C0E0D0E007C00E94CD0D8823E1F30E9436
:1036E000D00D2196C017D107B4F3DF91CF911F9170
:1036F0000F910895FF920F931F93CF93DF938C0147
:10370000F62EEA01FE0144912196442349F0802FD0
:103710000F5F1F4F4F7740526F2D0E948C0DF2CFDD
:10372000DF91CF911F910F91FF9008957F928F921B
:103730009F92AF92BF92CF92DF92EF92FF920F9340
:103740001F93CF93DF93782E862EEA01FA01C5905E
:10375000D490FA013296A590B49000E016C0FC0116
:10376000EE0DFF1D3296EE0FFF1FEC0FFD1F459172
:103770005491692D812F870D0E94A40D1F5F812F09
:1037800090E08C159D055CF30F5F802F90E08A150B
:103790009B055CF48C9D70018D9DF00C9C9DF00C44
:1037A000112410E0902E980CEACFDF91CF911F9159
:1037B0000F91FF90EF90DF90CF90BF90AF909F90D0
:1037C0008F907F9008956F927F928F929F92AF9289
:1037D000BF92CF92DF92EF92FF920F931F93CF93FE
:1037E000DF938C01EB016A0188809980FC01A08045
:1037F000B1809A0146E2642E712CF901E45FFE4F1C
:103800008081E82EFF24E7FCF094A701440F551FA8
:10381000480D591DF901E05FFE4F8081682F772721
:1038200067FD7095DB01AA0FBB1FAA0DBB1DA69DEE
:10383000F001A79DF00DB69DF00D1124E40FF51FCA
:10384000E455F34F8081813609F52083F8018081AA
:103850009181680F791F86E290E0689FF001699F6F
:10386000F00D789FF00D1124EE0DFF1D88819981D8
:10387000E80FF91FE455F34F80E2808359834883B2
:10388000F801B183A08321E030E017C0B9016F5F78
:103890007F4F80E090E02330310514F481E090E028
:1038A000869F9001879F300D969F300D11242C1517
:1038B0003D0509F0A2CF20E030E0C901DF91CF91B2
:1038C0001F910F91FF90EF90DF90CF90BF90AF903E
:1038D0009F908F907F906F900895CF92DF92EF929C
:1038E000FF921F93CF93DF9382EF93E10E94C80D65
:1038F000C0E0D0E056E2C52ED12C29C0F70180816E
:103900008F3479F080352CF4803241F08A3279F4AA
:103910000BC0813661F440E050E00BC045E050E060
:1039200008C04AE050E005C047E050E002C042E075
:1039300050E06C2F812F0E94A40D0894E11CF11C13
:103940001F5F1832D9F62196C831D10569F0CC9D98
:103950007001CD9DF00CDC9DF00C11248CEA9CE0F4
:10396000E80EF91E13E0CACF13E045E050E068E12D
:10397000812F0E94A40D1F5F1832B9F740E756E16E
:103980006AE170E083E090E00E947A1BDF91CF91C2
:103990001F91FF90EF90DF90CF9008952F923F926C
:1039A0004F925F926F927F928F929F92AF92BF924F
:1039B000CF92DF92EF92FF920F931F93DF93CF93FB
:1039C00000D000D0CDB7DEB782E598E00E94C30DED
:1039D0000E943C0D53985B9A5524EE24662477246C
:1039E00096E2892E912C80E2382E04E0202E1AE2F5
:1039F000412E20E030E022C0289DF001299DF00DED
:103A0000389DF00D1124E455F34F80E090E0181636
:103A1000190664F4121613064CF48432910531F041
:103A20002831310519F041E6408301C0308201960A
:103A300031968532910559F72F5F3F4F2931310576
:103A4000DCF282E090E09A8389839C838B832092CE
:103A5000FA0C0E94D11583709070AC01BE016D5FAD
:103A60007F4FCE0101960E94E31B892B91F749817C
:103A70005A812B813C81489DF001499DF00D589D54
:103A8000F00D1124E20FF31FE455F34F8081A82FAE
:103A9000BB27A7FDB0953082A430B105BCF4FD0171
:103AA000E45FFE4F80816EEF8602C0011124820F19
:103AB000931F9C838B83A05FBE4F8C918602C001B5
:103AC0001124840F951F9A838983C3CF0E94D11537
:103AD000F82E82508232D0F70E94D115182F8250D2
:103AE0008631D0F7812F90E0AF2CBB24889DF00168
:103AF000899DF00D989DF00D1124EA0DFB1DE455F4
:103B0000F34F8081813611F340820E94D11583707A
:103B1000813051F0813028F0823059F0833081F4C7
:103B20000BC0B2E05B2E02C0A2E25A2EF2E0EF2EF2
:103B300007C0E2E25E2E02C072E0572E66E1E62E7A
:103B4000C52CDD24C5018C199D090F964F97E8F20D
:103B5000AE2CBB24A89CF001A99CF00DB89CF00DE4
:103B60001124EC0DFD1DE455F34F8FE48083A6C0B6
:103B70000894611C711C80E00E94E50D082F81E013
:103B800090E00E94631B002309F495C0812F90E010
:103B9000AF2DB0E0889DF001899DF00D989DF00D4E
:103BA0001124EA0FFB1FE455F34F308205FF10C0CC
:103BB0000196889DF001899DF00D989DF00D1124CE
:103BC000EA0FFB1FE455F34F8081813609F01F5F38
:103BD00004FF12C0812F90E00197889DF001899D1C
:103BE000F00D989DF00D1124EA0FFB1FE455F34FE3
:103BF0008081813609F0115006FF12C0812F90E0BC
:103C00009C01289DC001299D900D389D900D112487
:103C1000A80FB91FA555B34F8C91813609F0FA94BE
:103C200007FF11C0812F90E0889DF001899DF00D64
:103C3000989DF00D1124E455F34FEF0DF11D818196
:103C4000813609F0F394812F90E0889DF001899DE1
:103C5000F00D989DF00D1124EF0DF11DE455F34F7B
:103C600080818F3439F586E290E0A89EF001A99E0C
:103C7000F00DB89EF00D1124EC0DFD1DE455F34F31
:103C800040820E946D1C43E656E169E170E08EE0DF
:103C900090E00E947A1B8EE190E00E94631B1EE080
:103CA0004BE050E069E1812F0E94A40D1F5F1A31A3
:103CB000B9F79FCE4082C3010E94D6150E946D1CA9
:103CC0004B9956CF96CEA1E21A2EAA1BBB1BFD0123
:103CD0000DC0AA1FBB1FEE1FFF1FA217B307E407EB
:103CE000F50720F0A21BB30BE40BF50B661F771F43
:103CF000881F991F1A9469F7609570958095909523
:103D00009B01AC01BD01CF010895629FD001739F5B
:103D1000F001829FE00DF11D649FE00DF11D929F67
:103D2000F00D839FF00D749FF00D659FF00D9927A6
:103D3000729FB00DE11DF91F639FB00DE11DF91FCA
:103D4000BD01CF011124089597FB092E05260ED041
:103D500057FD04D0B8DF0AD0001C38F450954095C8
:103D6000309521953F4F4F4F5F4F0895F6F790954F
:103D70008095709561957F4F8F4F9F4F08952F923B
:103D80003F924F925F926F927F928F929F92AF92EB
:103D9000BF92CF92DF92EF92FF920F931F93CF9338
:103DA000DF93CDB7DEB7CA1BDB0B0FB6F894DEBFCF
:103DB0000FBECDBF09942A88398848885F846E84F5
:103DC0007D848C849B84AA84B984C884DF80EE803F
:103DD000FD800C811B81AA81B981CE0FD11D0FB648
:103DE000F894DEBF0FBECDBFED010895F894FFCF6C
:103DF00000408891D2E4ADB5B6BEBFFF0100FF0020
:083E000000FF000101000000B9
:00000001FF
