:100000000C945D4B0C94DF4B0C94DF4B0C94DF4B4A
:100010000C94DF4B0C94DF4B0C94DF4B0C94DF4BB8
:100020000C94DF4B0C94DF4B0C94DF4B0C94DF4BA8
:100030000C94DF4B0C94FF5D0C94DF4B0C94DF4B66
:100040000C94DF4B0C94DF4B0C94DF4B0C94DF4B88
:100050000C94DF4B0C94DF4B0C94DF4B0C94DF4B78
:100060000C94DF4B0C94DF4B0C94DF4B0C94DF4B68
:100070000000000000000000000000000000000080
:100080000000000000000000000000000000000070
:100090000000000000000000000000000000000060
:1000A0000000000000000000000000000000000050
:1000B0000000000000000000000000000000000040
:1000C00000000049000000495252000052525C2DCD
:1000D0000000000000000000000000000000000020
:1000E0000040000000494A52004952525B1C5253E2
:1000F0001C25241B2425251B0A0A2D1C12120A0A62
:100100000000000000000000404949494949525B95
:100110005B5B525B1C1C1312241C12090909120997
:100120000909090A0A0A0A0A0A13120A0A12130A10
:100130000000000000009252525252521312130952
:10014000001C0A1212401B65090A0009241B120038
:1001500000251C1C010025241C1C0024252424240B
:100160000000000000005249494000001B135249A2
:100170004900641C1C5B4A481C651C2552491C1C18
:10018000652464491C1C652564491C1C6D2E5C4952
:100190000000000000000000000000490000000016
:1001A000535200000053522500004A5225250000FA
:1001B0005B251300005B53000A1C095B1C657F373D
:1001C0004052522E2E1C525C2E251B1324251C1C23
:1001D00012002525120000121B0000132E37001BF1
:1001E00037372E2E37372E2E2E2E2E2E6E6E6E1C5D
:1001F0001313120009131200001213130012251C0E
:1002000013132E371C131313361C131B1B1B251320
:100210001C1C1B1B1B1C1C1C1C1C1C1C1C1C1C132A
:100220001312121313001313131C000913131C01D0
:100230000037131C13002E2E1C1C001C772E2500CB
:10024000137F251C010A37241C1C0A2E25250900B2
:10025000132E242525252E252525252525252D2E3E
:10026000251B2E2E251C1325251C1C1C1C011C1CAB
:100270001300011C0A000165775C016E7F6E521B42
:1002800025256D1C524925251C1353001C1C1C528E
:100290004A001B135B5B000009525C0000005B5CC2
:1002A000000000001B000000000000000000000033
:1002B000135B7F776E6E136577766E6E1B65777650
:1002C00076761B5BBF76B67609136DBFB7B6001B9B
:1002D000125C76BF0000121B125B00000000090ACE
:1002E0006E6E6E77241C6E6E77251C1C6E776E1CEE
:1002F0001C1C76761C1C2425B765646D6D1B766D01
:100300006D5B09125B5C5B125B641213131B1212B0
:100310001C1C1C1C1C241C1C242525242425251BDA
:1003200000002513000064BF00096EBFBF6D6EBFE3
:100330006D5B12135B12131209000901000000002B
:100340002E1C0900096E010009767F7F12777F7FDE
:100350006412BF775B121B095B121B0900001B09AB
:10036000000000000000000000000000000000008D
:100370007F7F5313130064121B0100001B12000047
:10038000000000000000000000000000000000006D
:10039000000000000000000000000000000000005D
:1003A0000000000000002600000026002F000000D2
:1003B0002F00370000003700FF000000FF00BF00E3
:1003C0000000BF00370000370000002626000000B4
:1003D000000000000000262626262600000000005F
:1003E0002F000000003700000000FF00000000BFE9
:1003F0000000000037000000000026262626260008
:100400000000000000002626262626002F000000FF
:100410000000370000000000FFFFFFFF0000BF00EA
:1004200000000000370000000000262626262600D7
:100430000000000000002626262600002F000000F5
:100440002F00370000003700FFFFFFFF0000BF0054
:100450000000BF00370000003700262626260000D7
:10046000000000000000000026262600002F0000EB
:100470002F00370000003700FF000000FF00BF0022
:100480000000BF00370000370000262626000000CD
:100490000000000000002600000026002F000000E1
:1004A0002F000037003700000000FF00000000BFF1
:1004B00000BF0000370000003700260000002600C3
:1004C000000000000000000000000000000000002C
:1004D000000000000000000000000000000000001C
:1004E0000000009B000000529BA400005B9B6D7706
:1004F00000000000000000000000000000000000FC
:10050000005B000000E4F6FF099BEDF6FFBFA4AD21
:10051000BFBFBFBF767F7FB7B7BF7F766EB7B7BFAE
:1005200000000000000000005BB6F6F6F6FFFFFFDB
:10053000FFBFFFFFFFBFBFAEFFFFFFB7AD65FFFF10
:10054000B7B6AD65FFFFBFB7AE6EFFFFBFB7B7650C
:10055000000000000000F6F6EDEDADA4B66D6D5C98
:10056000526E6565655265765C5C52536E246552C9
:10057000526E25255B52772D2525526E6E2D252531
:10058000000000000000A49B9B4900006564A49B40
:1005900092006D2525649349656E652E9B52242536
:1005A0006D25655225246D2D655225256E2E6452CC
:1005B00000000000000000000000004A00000000F1
:1005C0005B9B0000005B5B2D0000525B2E2E000148
:1005D0005B2D1C01005C5B014A654A5B1C6E7F77EA
:1005E000495B9B77776D5B65776E65656D2D25251E
:1005F0005C522E25130949641C09095C7F7F091C84
:100600007F7F777F777F77777F7F7776777F7F6E44
:10061000656E6EA4B6FF655BA4B7BFFF526DBFBF2A
:10062000BFFF7FBFBFBFBFFFBFBFB7BFFFFF7FB76A
:10063000BFBFFFFF6EB7BFBFFFFF77BFBFBFFFFFEB
:10064000FFFFBFBFB75BFFFFBFBFA464FFFFBFAD2E
:10065000A47FFFFFBFA4BF7FFFBFADBFBFBFFFB67B
:10066000BFBFBF77F7BFBFBF7777FFBFBFBF6452C2
:100670006D7F6E2E2D2D7F766E6E6E2E7777777650
:100680002E1C7F776E251C25776525251C096E6E2F
:100690001C0949255B494A6E7F645377BF775B5CD1
:1006A000256E6E255B4A25651C1B5B002524245B9B
:1006B00053001C1B5B5C00000A5B64000000646468
:1006C000000000005C0000000000000000000000CE
:1006D0005B5C7FBF77765C6D7FB777775C6D7FBF44
:1006E00077775C64BFBFBFBF0A5C6EBFBFBF0065EA
:1006F000646DBFBF00005B6D646D00000000125BA5
:100700007777777F6E6E77777F766D7677BF776D49
:100710006E76BF7F6D6E767FBF7676BFBF76BFBFCA
:10072000BFB664ADADB6B6ADBFFF646DADB6AD647A
:1007300077BFBFBFFFFF77BFBFBFFFFF7FBFBFBF99
:10074000FFF6BFB7ADF6FFFFA4ADFFFFFFFFFFFF52
:10075000FFFFFFFFFFFFFFF6A4005B520000000059
:10076000BFBFAD5B64BFB6ADADBFFFBFFFFFFFFF57
:10077000BF64FFFFBFB6765BFFBFBF5B0000FF5CDF
:100780000000000000000000000000000000000069
:10079000BFBF645C5C006E5C654900006D5B00007F
:1007A0000000000000000000000000000000000049
:1007B0000000000000000000000000000000000039
:1007C0000600040000000100020003000400050010
:1007D00006000700080009000A000B000C000D00CD
:1007E0000E000F0010000000110012001300140092
:1007F000150016000600030000001700180019007D
:100800001A001B001C001D001E001F0020002100FC
:10081000220023002400250026000000000208001A
:10082000085504085A0000F8000990000A1E320515
:100830000000FF0000001C0800000000374C454C81
:10084000234DAA509650484C574C664C7E50744CE1
:10085000824C0000000100020003000400050100BA
:10086000010101020103010401050200020102026B
:10087000020302040205030003010302030303044D
:100880000305040004010402040304040405050034
:10089000050105020503050405050600060106021B
:1008A00006030604060507000701070207030704FD
:1008B00007050800080108020803080408050900E4
:1008C000090109020903090409050A000A010A02CB
:1008D0000A030A040A050B000B010B020B030B04AD
:1008E0000B050C000C010C020C030C040C050D0094
:1008F0000D010D020D030D040D050E000E010E027B
:100900000E030E040E050F000F010F020F030F045C
:100910000F05100010011002100310041005110043
:10092000110111021103110411051200120112022A
:10093000120312041205130013011302130313040C
:1009400013051400140114021403140414051500F3
:1009500015011502150315041505160016011602DA
:1009600016031604160517001701170217031704BC
:1009700017051800180118021803180418051900A3
:10098000190119021903190419051A001A011A028A
:100990001A031A041A051B001B011B021B031B046C
:1009A0001B051C001C011C021C031C041C051D0053
:1009B0001D011D021D031D041D051E001E011E023A
:1009C0001E031E041E051F001F011F021F031F041C
:1009D0001F050300010101010000000000000000EC
:1009E0000000000001000001010000010000000003
:1009F00000000000000000010101010000000000F3
:100A000000000001000001010000010000000000E2
:100A100000000003020000020202000000000000CB
:100A200000000000000202000200000200000000BE
:100A300000000000000000020202000002000000AE
:100A4000000000000002000002000202000000009E
:100A50000000000003000003030303000000000087
:100A6000000000000000030000030000030300007A
:100A7000000000000000000003030303000000006A
:100A8000000000000003030000030000030000005A
:100A90000000000000020404040400000000000044
:100AA0000000000000000404040400000000000036
:100AB0000000000000000404040400000000000026
:100AC0000000000000000404040400000000000016
:100AD00000000000000003000500050505000000FF
:100AE00000000000000000000500000505000500F2
:100AF00000000000000000000000050505000500E2
:100B000000000000000000000500050500000500D1
:100B100000000000000000040000000006060606B9
:100B200000000000000000000000060000000600B9
:100B300000000600000006000000000000000000A9
:100B40000606060600000000000600000006000081
:100B5000000600000006000003070700000707006A
:100B60000000000000000000000000070007070070
:100B70000700000000000000000000000707000060
:100B8000070700000000000000000700070700073B
:100B90000000000000000000003230303820414CDE
:100BA000454320424F555251554500485454503A00
:100BB0002F2F5757572E42454C4F4749432E434FEF
:100BC0004D2F555A45424F58004C4943454E4345D9
:100BD0004420554E44455220474E552047504C2006
:100BE0005633003120504C41594552003220504C70
:100BF0004159455200565320435055004F505449D7
:100C00004F4E530047414D45204F56455221005904
:100C10004F552057494E2100594F55204C4F5345B1
:100C20002121005052455353005354415254004720
:100C3000414D45204F5054494F4E5300534F4E475E
:100C40003A004241434B20544F204D454E55004DF4
:100C5000454E5500504C41590047484F535420428F
:100C60004C4F434B3A00594553004E4F200000FF74
:100C700006015300C00000904C6B00C20000922897
:100C80006B00C1000091476B1792346B1890476B53
:100C90000092286B0091446B1890486B0092346B63
:100CA0000091456B18904A6B0092286B0091476B3E
:100CB00018904C6B0092346B0091446B0C904A6B13
:100CC0000C486B0092286B0091456B1890476B00A5
:100CD00092346B0091446B1890456B00922D6B0021
:100CE00091406B1892396B1890456B00922D6B00F8
:100CF00091406B1890486B0092396B0091456B18CE
:100D0000904C6B00922D6B0091486B1892396B18C8
:100D1000904A6B00922D6B0091476B1890486B00C6
:100D200092396B0091456B1890476B00922C6B00C9
:100D300091446B1892386B1890476B00922C6B00A3
:100D400091446B1890486B0092386B0091456B187A
:100D5000904A6B0092286B0091476B1892346B1885
:100D6000904C6B0092286B0091476B1892346B1873
:100D700090486B00922D6B0091456B1892396B185F
:100D800090456B00922D6B0091406B1892396B1857
:100D900090456B00922D6B0091406B1892396B1847
:100DA0002D6B00912F6B1892306B0091396B18925C
:100DB000266B0091326B18904A6B0092326B009157
:100DC000456B1892266B18904D6B0092326B009118
:100DD0004A6B1890516B0092266B00914D6B1892E4
:100DE000326B18904F6B0092266B00914C6B1890F1
:100DF0004D6B0092326B00914A6B18904C6B0092D5
:100E00002D6B0091486B1892396B182D6B18904818
:100E10006B0092396B0091456B18904C6B00922DD2
:100E20006B0091456B1892396B18904A6B00922DAC
:100E30006B0091476B1890486B0092396B0091459D
:100E40006B1890476B00922C6B0091446B18923892
:100E50006B1890476B00922C6B0091446B18904874
:100E60006B0092386B0091456B18904A6B0092288A
:100E70006B0091476B1892346B18904C6B00922862
:100E80006B0091476B1892346B1890486B00922D51
:100E90006B0091456B1892396B1890456B00922D41
:100EA0006B0091406B1892396B1890456B00922D36
:100EB0006B0091406B1892396B182D6B18396B18B9
:100EC000904C6B0092286B0091476B1892346B1713
:100ED00090476B0092286B0091446B1890486B0010
:100EE00092346B0091456B18904A6B0092286B000E
:100EF00091476B18904C6B0092346B0091446B0CD3
:100F0000904A6B0C486B0092286B0091456B1890CF
:100F1000476B0092346B0091446B1890456B0092C4
:100F20002D6B0091406B1892396B1890456B0092B5
:100F30002D6B0091406B1890486B0092396B0091BB
:100F4000456B18904C6B00922D6B0091486B18927A
:100F5000396B18904A6B00922D6B0091476B18907B
:100F6000486B0092396B0091456B1890476B00926B
:100F70002C6B0091446B1892386B1890476B009261
:100F80002C6B0091446B1890486B0092386B009169
:100F9000456B18904A6B0092286B0091476B189232
:100FA000346B18904C6B0092286B0091476B189231
:100FB000346B1890486B00922D6B0091456B189222
:100FC000396B1890456B00922D6B0091406B189215
:100FD000396B1890456B00922D6B0091406B189205
:100FE000396B182D6B00912F6B1892306B00913973
:100FF0006B1892266B0091326B18904A6B009232FC
:101000006B0091456B1892266B18904D6B009232D5
:101010006B00914A6B1890516B0092266B00914DBA
:101020006B1892326B18904F6B0092266B00914CAC
:101030006B18904D6B0092326B00914A6B18904C7C
:101040006B00922D6B0091486B1892396B182D6BC9
:101050001890486B0092396B0091456B18904C6B5F
:1010600000922D6B0091456B1892396B18904A6B6A
:1010700000922D6B0091476B1890486B0092396B72
:101080000091456B1890476B00922C6B0091446B5C
:101090001892386B1890476B00922C6B0091446B40
:1010A0001890486B0092386B0091456B18904A6B12
:1010B0000092286B0091476B1892346B18904C6B20
:1010C0000092286B0091476B1892346B1890486B14
:1010D00000922D6B0091456B1892396B1890456BFF
:1010E00000922D6B0091406B1892396B1890456BF4
:1010F00000922D6B0091406B1892396B182D6B1874
:10110000396B1890406B00922D6B00913C6B1892DC
:10111000346B182D6B17346B18903C6B00922D6B51
:101120000091396B1892346B182D6B18346B189032
:101130003E6B00922C6B0091386B1892346B182C1C
:101140006B18346B18903B6B00922C6B0091386BD2
:101150001892346B182C6B18346B18903C6B0092FF
:101160002D6B0091396B1892346B182D6B18346B02
:10117000182D6B0091396B1892346B182D6B183445
:101180006B182C6B0091386B1892346B182C6B1801
:10119000346B182C6B18346B182C6B18346B18903C
:1011A000406B00922D6B00913C6B1892346B182DA4
:1011B0006B18346B18903C6B00922D6B0091396B5F
:1011C0001892346B182D6B18346B18903E6B00928C
:1011D0002C6B0091386B1892346B182C6B18346B95
:1011E00018903B6B00922C6B0091386B1892346B0B
:1011F000182C6B18346B18903C6B00922D6B00917F
:10120000396B1892346B1890406B00922D6B0091E3
:101210003C6B1892346B1890456B00922D6B0091CB
:10122000406B1892346B1890456B00922D6B1834FC
:101230006B1890446B00922C6B0091406B189234A9
:101240006B182C6B18346B182C6B18346B182C6BB8
:1012500018346B18FF06014500FF2F0000C0110075
:10126000C10300C20B0092326900C30700930D3224
:1012700001903E7F169232690093073E02903E7FB6
:101280000A9232690093073E03903E7F0A922D69CD
:101290000093073E0290397F16922D690093073E16
:1012A0000290397F1692326900930D3202903E7F90
:1012B000179232690093073E02903E7F0A9232698C
:1012C0000093073E01903E7F0A922D690093073EEE
:1012D0000390397F16922D690093073E0390397F62
:1012E0001692326900930D3201903E7F1792326957
:1012F0000093073E02903E7F0A9232690093073EB8
:1013000003903E7F0A922D690093073E0190397F3A
:1013100016922D690093073E0390397F1692326929
:1013200000930D3202903E7F169232690093073E81
:1013300002903E7F0A9232690093073E02903E7F00
:101340000B922D6900930D320290397F16922D6910
:1013500000930D370290397F16FF06015300923239
:101360006900930D3C02903E7F0091395D179232E7
:10137000690093073E0290457F0091415D0A9232D9
:10138000690093073E0C922D690093073E01904A35
:101390007F0091415D17922D690093073E029049AD
:1013A0007F0091435D179232690093073E02904A95
:1013B0007F0091415D159232690093073E0390458D
:1013C0007F0091405D0A9232690093073E0290458A
:1013D0007F0091415D0A922D690093073E0390467C
:1013E0007F0091435D16922D690093073E01904363
:1013F0007F0091405D179232690093073E0290454D
:101400007F0091415D179232690093073E01904140
:101410007F00913D5D0A9232690093073E02904140
:101420007F00913E5D0A922D690093073E03904331
:101430007F0091405D16922D690093073E02904017
:101440007F00913D5D169232690093073E02904104
:101450007F00913E5D179232690093073E02903EF5
:101460007F0091385D0A9232690093073E02903EF8
:101470007F0091395D0A922D690093073E029040EA
:101480007F00913D5D16922D690093073E02903DCD
:101490007F0091395D179232690093073E02903EBA
:1014A0007F0091395D169232690093073E019039B1
:1014B0007F0091355D0B9232690093073E0C9231AB
:1014C000690093073E02903A7F0091375D17922D95
:1014D000690093073E02903D7F0091375D1592327F
:1014E000690093073E03903E7F0091395D1692326A
:1014F000690093073E0390397F0091355D0A92326F
:10150000690093073E0C9231690093073E01903ABF
:101510007F0091375D17922D690093073E0290403E
:101520007F00913D5D179232690093073E01903E26
:101530007F0091395D169232690093073E03904512
:101540007F0091415D0A9232690093073E0C922D13
:10155000690093073E02904A7F0091415D16922DEB
:10156000690093073E0290497F0091435D179232D4
:10157000690093073E02904A7F0091415D169232C6
:10158000690093073E0290457F0091405D0A9232C8
:10159000690093073E0290457F0091415D0A922DBC
:1015A000690093073E0290467F0091435D17922D9C
:1015B000690093073E0290437F0091405D1692328E
:1015C000690093073E0190457F0091415D1792327B
:1015D000690093073E0290417F00913D5D0A92327F
:1015E000690093073E0390417F00913E5D0A922D72
:1015F000690093073E0290437F0091405D15922D54
:10160000690093073E0390407F00913D5D16923242
:10161000690093073E0390417F00913E5D15923231
:10162000690093073E02903E7F0091385D0A923236
:10163000690093073E03903E7F0091395D0A922D29
:10164000690093073E0290407F00913D5D17922D07
:10165000690093073E01903D7F0091395D169232FB
:10166000690093073E02903E7F0091395D179232E8
:10167000690093073E0290397F0091355D0A9232EE
:10168000690093073E0C9231690093073E02903A3D
:101690007F0091375D16922D690093073E02903DC1
:1016A0007F0091375D179232690093073E02903EAA
:1016B0007F0091395D169232690093073E0290399E
:1016C0007F0091355D0A9232690093073E0C92319A
:1016D000690093073E03903A7F0091375D16922D83
:1016E000690093073E0190407F00913D5D17923263
:1016F000690093073E02903E7F0091395D17923258
:10170000690093073E0C9232690093073E0B922EBC
:10171000690093073E19922B690093073E18923295
:10172000690093073E199232690093073E0C92328A
:10173000690093073E0D9231690093073E01904086
:101740007F0091395D16922D690093073E02903D0E
:101750007F0091395D179232690093073E02903EF7
:101760007F0091395D169232690093073E0C9232E8
:10177000690093073E0C922E690093073E19922B45
:10178000690093073E189232690093073E1892321F
:10179000690093073E0D9232690093073E0C922B2D
:1017A000690093073E0190407F00913C5D179224B1
:1017B000691929690093073E0190417F16923569A6
:1017C0000093073E0390417F0A9229690093073EE8
:1017D0000290417F0A9224690093073E0390437F61
:1017E000159230690093073E0290407F1792296955
:1017F0000093073E0290417F179235690093073EA0
:101800000190417F0A9229690093073E0290417F2F
:101810000A9224690093073E0290437F1792306931
:101820000093073E0290407F169229690093073E7D
:101830000290417F169235690093073E0D92296907
:101840000093073E0C9224690093073E189230697A
:101850000093073E189229690093073E1992356953
:101860000093073E0B9229690093073E0D9224696D
:101870000093073E0290437F0091405D17923069CC
:101880000093073E179229690093073E0390457F16
:101890000091415D169235690093073E0390457FA4
:1018A0000091415D0A9229690093073E0190457FAE
:1018B0000091415D0A9224690093073E0290467FA1
:1018C0000091435D179230690093073E0290437F79
:1018D0000091405D169229690093073E0290457F72
:1018E0000091415D169235690093073E0290457F55
:1018F0000091415D0A9229690093073E0390457F5C
:101900000091415D0A9224690093073E0290467F50
:101910000091435D169230690093073E0290437F29
:101920000091405D169229690093073E0290457F21
:1019300000913C5D179235690093073E0C9229692E
:101940000093073E0B9224690093073E1992306979
:101950000093073E199229690093073E1892356952
:101960000093073E0C9229690093073E0D922B6964
:101970000093073E0190477F00913E5D16923769C4
:101980000093073E199224690093073E0290487F16
:101990000091405D169230690093073E0290487FA7
:1019A0000091415D0A9224690093073E0290487FAE
:1019B0000091435D0B9224690093073E0290487F9B
:1019C0000091405D169230690093073E0290487F77
:1019D0000091435D169229690093073E02904A7F69
:1019E0000091455D179235690093073E0290487F4C
:1019F0000091455D0A9229690093073E0C9229697E
:101A00000093073E0190487F0091455D179235692C
:101A10000093073E0290477F00913E5D1792246934
:101A20000093073E0290487F0091405D1592306917
:101A30000093073E0390487F0091415D0A9224691C
:101A40000093073E0290487F0091435D0A9224690B
:101A50000093073E0390487F0091405D16923069E5
:101A60000093073E0190487F0091435D17922969DA
:101A70000093073E02904A7F0091445D17923569BA
:101A80000093073E0190487F0091445D0A922969C6
:101A90000093073E0C9229690093073E0390487F0C
:101AA0000091445D169235690093073E0290477F8E
:101AB00000913E5D169224690093073E0290487F94
:101AC0000091405D179230690093073E0290487F75
:101AD0000091415D0A9224690093073E0290487F7D
:101AE0000091435D0A9224690093073E0290487F6B
:101AF0000091405D169230690093073E0290487F46
:101B00000091435D179224690093073E0290477F3E
:101B100000913E5D169230690093073E0190477F29
:101B20000091405D0B9224690093073E0290477F2D
:101B30000091415D0A9224690093073E0290477F1D
:101B400000913E5D179230690093073E0290477FF7
:101B50000091415D159224690093073E0390467FF2
:101B600000913E5D169230690093073E0390467FD8
:101B70000091405D0A9224690093073E0190467FE0
:101B80000091415D0B9224690093073E0190467FCE
:101B90000091405D179230690093073E0290437FA9
:101BA0000091405D179224690093073E0190407FA9
:101BB0000091375D169230690093073E0390417F94
:101BC00000913E5D0A9224690093073E0C922469BD
:101BD0000093073E0290437F0091405D169230696A
:101BE0000093073E02903C7F0091345D1792266976
:101BF0000093073E0290437F0091395D169232694F
:101C00000093073E0290417F0091395D0A92266958
:101C10000093073E0290417F0091395D0A92266948
:101C20000093073E02903C7F0091395D1792326924
:101C30000093073E0290417F0091395D169226691C
:101C40001832690093073E02903C7F0091395D0A8B
:101C50009226690093073E03903E7F00913B5D0A08
:101C60009226690093073E02903C7F0091395D15F2
:101C70009232690093073E0390397F0091355D16DB
:101C80009226690093073E0390437F0091385D15CB
:101C90009232690093073E0290417F0091385D0ABD
:101CA0009226690093073E0390417F0091385D0AB8
:101CB0009226690093073E02903C7F0091385D17A1
:101CC0009232690093073E0190417F0091385D1682
:101CD0009226691932690093073E02903C7F009179
:101CE000385D0A9226690093073E02903E7F00917C
:101CF0003A5D0A9226690093073E02903C7F00916C
:101D0000385D169232690093073E0290387F009149
:101D1000355D179224690093073E02903C7F009145
:101D2000345D169230690093073E0C92246900934B
:101D3000073E0C9224690093073E19923069009384
:101D4000073E189224690093073E19923069009368
:101D5000073E0C9224690093073E0B92246900937E
:101D6000073E199230690093073E18922469009348
:101D7000073E199230690093073E0C922469009344
:101D8000073E0D9224690093073E17923069009335
:101D9000073E199224690093073E18923069009318
:101DA000073E0C9224690093073E0C92346900931D
:101DB000073E02903D7F0091375D2F92326900937C
:101DC000073E02903E7F169232690093073E0390D1
:101DD0003E7F0A9232690093073E02903E7F0A924C
:101DE0002D690093073E0190397F17922D6900936A
:101DF000073E0290397F179232690093073E0190A7
:101E00003E7F169232690093073E03903E7F0A920E
:101E100032690093073E02903E7F0A922D6900933B
:101E2000073E0390397F15922D690093073E02907B
:101E3000397F179232690093073E02903E7F1792D6
:101E400032690093073E01903E7F0A923269009307
:101E5000073E02903E7F0A922D690093073E029052
:101E6000397F17922D690093073E0290397F1692B1
:101E700032690093073E02903E7F169232690093CA
:101E8000073E02903E7F0B9232690093073E02901C
:101E90003E7F0A922D690093073E0290397F169289
:101EA0002D690093073E0290397F16FF0601450019
:101EB0009232690093073E03903E7F0091395D1690
:101EC0009232690093073E0190457F0091415D0A7F
:101ED0009232690093073E0D922D690093073E02EE
:101EE000904A7F0091415D17922D690093073E0152
:101EF00090497F0091435D169232690093073E033B
:101F0000904A7F0091415D169232690093073E032B
:101F100090457F0091405D0A9232690093073E012F
:101F200090457F0091415D0A922D690093073E0222
:101F300090467F0091435D17922D690093073E0202
:101F400090437F0091405D169232690093073E02F4
:101F500090457F0091415D169232690093073E02E1
:101F600090417F00913D5D0A9232690093073E03E4
:101F700090417F00913E5D0A922D690093073E02D9
:101F800090437F0091405D16922D690093073E02B9
:101F900090407F00913D5D169232690093073E02AA
:101FA00090417F00913E5D179232690093073E0297
:101FB000903E7F0091385D0A9232690093073E019E
:101FC000903E7F0091395D0A922D690093073E0390
:101FD00090407F00913D5D16922D690093073E036E
:101FE000903D7F0091395D169232690093073E0162
:101FF000903E7F0091395D179232690093073E024F
:1020000090397F0091355D0A9232690093073E0D49
:102010009231690093073E01903A7F0091375D1637
:10202000922D690093073E03903D7F0091375D1626
:102030009232690093073E02903E7F0091395D160F
:102040009232690093073E0290397F0091355D0A14
:102050009232690093073E0D9231690093073E0268
:10206000903A7F0091375D16922D690093073E02EA
:1020700090407F00913D5D169232690093073E02C9
:10208000903E7F0091395D179232690093073E02BE
:1020900090457F0091415D0A9232690093073E0CA2
:1020A000922D690093073E01904A7F0091415D1790
:1020B000922D690093073E0290497F0091435D177E
:1020C0009232690093073E02904A7F0091415D156C
:1020D0009232690093073E0390457F0091405D0A6C
:1020E0009232690093073E0290457F0091415D0A5C
:1020F000922D690093073E0390467F0091435D1641
:10210000922D690093073E0190437F0091405D1737
:102110009232690093073E0290457F0091415D171E
:102120009232690093073E0190417F00913D5D0A24
:102130009232690093073E0290417F00913E5D0A12
:10214000922D690093073E0390437F0091405D16F6
:10215000922D690093073E0290407F00913D5D16ED
:102160009232690093073E0290417F00913E5D17D5
:102170009232690093073E02903E7F0091385D0ADB
:102180009232690093073E02903E7F0091395D0ACA
:10219000922D690093073E0290407F00913D5D16AD
:1021A000922D690093073E02903D7F0091395D17A3
:1021B0009232690093073E02903E7F0091395D168E
:1021C0009232690093073E0190397F0091355D0B93
:1021D0009232690093073E0C9231690093073E02E8
:1021E000903A7F0091375D17922D690093073E0268
:1021F000903D7F0091375D159232690093073E0351
:10220000903E7F0091395D169232690093073E033C
:1022100090397F0091355D0A9232690093073E0C38
:102220009231690093073E01903A7F0091375D1724
:10223000922D690093073E0290407F00913D5D170B
:102240009232690093073E01903E7F0091395D16FE
:102250009232690093073E0D9232690093073E0C5B
:10226000922E690093073E18922B690093073E193E
:102270009232690093073E189232690093073E0C30
:102280009232690093073E0C9231690093073E0237
:1022900090407F0091395D16922D690093073E03AF
:1022A000903D7F0091395D169232690093073E019F
:1022B000903E7F0091395D179232690093073E0C82
:1022C0009232690093073E0D922E690093073E17E4
:1022D000922B690093073E199232690093073E18CA
:1022E0009232690093073E0C9232690093073E0DCB
:1022F000922B690093073E0290407F00913C5D174E
:102300009224691729690093073E0290417F179232
:1023100035690093073E0290417F0A922969009334
:10232000073E0290417F0A9224690093073E029083
:10233000437F169230690093073E0290407F1792C8
:1023400029690093073E0290417F169235690093F8
:10235000073E0290417F0A9229690093073E02904E
:10236000417F0A9224690093073E0390437F1692AF
:1023700030690093073E0190407F179229690093CE
:10238000073E0290417F179235690093073E0C92F9
:1023900029690093073E0B9224690093073E199226
:1023A00030690093073E189229690093073E1992FD
:1023B00035690093073E0C9229690093073E0D9200
:1023C00024690093073E0190437F16923069009381
:1023D000073E199229690093073E0290457F1692A5
:1023E00035690093073E0290457F0A922969009360
:1023F000073E0290457F0A9224690093073E0290AF
:10240000467F179230690093073E0290437F1692F1
:1024100029690093073E0290457F16923569009323
:10242000073E0390457F0A9229690093073E029078
:10243000457F0A9224690093073E0190467F1792D8
:1024400030690093073E0290437F14FF2F0000C0C5
:102450000300C10C00C20C009239310093074B02FB
:1024600090486800914151179239310093074B020F
:10247000904868009141510B923B310093074B0209
:10248000904A680091435124923C310093074B02DB
:10249000904D68009145510B923C310093074B02DF
:1024A000904C68009143510B9237310093074B02D7
:1024B000904868009140510B923B310093074B02CA
:1024C000904A680091435124923C310093074B029B
:1024D000904D68009145510B923E310093074B029D
:1024E000904F68009146510B923F310093074B0289
:1024F000905068009148510B9242310093074B0273
:1025000090516800914A510493074B06074B070707
:102510004B06074B07074B0C07370D07370D0737DF
:102520000D073718FF2F000000000000000000001A
:10253000000000000000000000000000000000009B
:10254000000000000000000000000000000000008B
:10255000000000000000000000FF00000000FFFF7E
:10256000FF000000FFFFFF00000000FF0000000070
:1025700000FF0000000000000000000000FF00005D
:1025800000000000000000FFFF00FFFF00FFFF0051
:10259000FFFF00FF0000FF0000000000000000003F
:1025A000000000000000000000000000000000002B
:1025B0000000000000000000000000000000FF001C
:1025C000FF0000FFFFFFFFFF0000FF00FF00000013
:1025D000FF00FF0000FFFFFFFFFF0000FF00FF0004
:1025E0000000000000000000FF0000000000FFFFEE
:1025F000FF0000FF000000000000FFFF00000000DF
:102600000000FF0000FFFFFF0000000000FF0000CF
:1026100000000000000000FFFF0000FF00FFFF00BF
:1026200000FF00000000FF00000000FF00000000AD
:10263000FF00000000FF0000FFFF00FF0000FFFFA1
:102640000000000000000000FF00000000FF00FF8D
:10265000000000FF00FF00000000FF00000000FF7E
:1026600000FF00FF00FF0000FF000000FFFF00FF71
:102670000000000000000000FFFF00000000FFFF5E
:1026800000000000FF00000000000000000000004B
:10269000000000000000000000000000000000003A
:1026A000000000000000000000FF00000000FF002C
:1026B00000000000FF0000000000FF00000000001C
:1026C000FF0000000000FF000000000000FF00000D
:1026D0000000000000000000FF000000000000FFFC
:1026E0000000000000FF0000000000FF00000000EC
:1026F00000FF0000000000FF00000000FF000000DD
:102700000000000000000000000000000000FF00CA
:10271000FF000000FFFFFF0000FFFFFFFFFF0000C2
:10272000FFFFFF000000FF00FF00000000000000AE
:10273000000000000000000000000000000000FF9A
:102740000000000000FF000000FFFFFFFFFF00008F
:1027500000FF0000000000FF00000000000000007B
:102760000000000000000000000000000000000069
:102770000000000000000000000000000000000059
:10278000000000000000FFFF00000000FFFF00004D
:102790000000FF000000000000000000000000003A
:1027A000000000000000000000FFFFFFFFFF00002E
:1027B0000000000000000000000000000000000019
:1027C0000000000000000000000000000000000009
:1027D00000000000000000000000000000000000F9
:1027E000000000000000FFFF00000000FFFF0000ED
:1027F00000000000000000000000000000000000D9
:1028000000FF00000000FF00000000FF00000000CB
:10281000FF00000000FF00000000000000000000BA
:1028200000000000000000002F2F2F00002F0000EC
:10283000002F002F00002F2F002F002F002F002F20
:102840002F00002F002F0000002F00002F2F2F003F
:102850000000000000000000002F000000002F2FEB
:1028600000000000002F00000000002F000000000A
:10287000002F00000000002F000000002F2F2F006D
:1028800000000000000000002F2F2F00002F00008C
:10289000002F00000000002F0000002F2F0000007C
:1028A0002F000000002F00000000002F2F2F2F2FDF
:1028B00000000000000000002F2F2F00002F00005C
:1028C000002F00000000002F00002F2F2F0000001D
:1028D0000000002F002F0000002F00002F2F2F00DE
:1028E000000000000000000000002F000000002F8A
:1028F0002F0000002F002F00002F00002F00002FBE
:102900002F2F2F2F000000002F00000000002F00AD
:10291000000000000000002F2F2F2F2F002F00009D
:102920000000002F00000000002F2F2F2F000000BC
:102930000000002F002F0000002F00002F2F2F007D
:102940000000000000000000002F2F0000002F00FA
:102950000000002F00000000002F2F2F2F00002F5D
:102960000000002F002F0000002F00002F2F2F004D
:10297000000000000000002F2F2F2F2F000000006C
:10298000002F000000002F000000002F00000000BA
:102990002F00000000002F00000000002F000000AA
:1029A00000000000000000002F2F2F00002F00006B
:1029B000002F002F0000002F00002F2F2F00002FCE
:1029C0000000002F002F0000002F00002F2F2F00ED
:1029D00000000000000000002F2F2F00002F00003B
:1029E000002F002F0000002F00002F2F2F2F00009E
:1029F0000000002F000000002F0000002F2F00001B
:102A000000000000000000000000000000000000C6
:102A100000000000FFFF00000000FFFF00000000BA
:102A2000000000000000FFFF00000000FFFF0000AA
:102A30000000000000000000000000000000000096
:102A400000000000FFFF00000000FFFF000000008A
:102A5000000000000000FFFF00000000FFFF00007A
:102A60000000FF0000000000000000FF0000000068
:102A7000FF00000000FF00000000FF000000000059
:102A800000FF000000000000FF000000000000FF49
:102A90000000000000000000000000000000000036
:102AA000000000FFFFFFFFFF00000000000000002B
:102AB0000000000000FFFFFFFFFF0000000000001B
:102AC0000000000000000000FF000000000000FF08
:102AD000000000000000FF000000000000FF0000F8
:102AE0000000FF00000000FF00000000FF000000E9
:102AF0000000000000000000FFFFFF0000FF0000DA
:102B000000FF0000000000FF000000FFFF000000C9
:102B100000FF0000000000000000000000FF0000B7
:102B20000000000000000000FFFFFF0000FF0000A9
:102B300000FF00FF00FFFFFF00FF00FF00FF00FF9E
:102B400000FFFFFF00FF000000000000FFFFFF008C
:102B50000000000000000000FFFFFF0000FF000079
:102B600000FF00FF000000FF00FF000000FF00FF6B
:102B7000FFFFFFFF00FF000000FF00FF000000FF5D
:102B800000000000000000FFFFFFFF0000FF00004A
:102B900000FF00FF000000FF00FFFFFFFF0000FF3D
:102BA000000000FF00FF000000FF00FFFFFFFF002C
:102BB0000000000000000000FFFFFF0000FF000019
:102BC00000FF00FF0000000000FF0000000000FF09
:102BD0000000000000FF000000FF0000FFFFFF00FA
:102BE00000000000000000FFFFFFFF0000FF0000EA
:102BF00000FF00FF000000FF00FF000000FF00FFDB
:102C0000000000FF00FF000000FF00FFFFFFFF00CB
:102C100000000000000000FFFFFFFFFF00FF0000BA
:102C2000000000FF0000000000FFFFFFFF0000FFAA
:102C30000000000000FF0000000000FFFFFFFFFF9A
:102C400000000000000000FFFFFFFFFF00FF00008A
:102C5000000000FF0000000000FFFFFFFF0000FF7A
:102C60000000000000FF0000000000FF0000000066
:102C70000000000000000000FFFFFF0000FF000058
:102C800000FF00FF0000000000FF00FFFFFF00FF4B
:102C9000000000FF00FF000000FF0000FFFFFFFF3B
:102CA00000000000000000FF000000FF00FF000027
:102CB00000FF00FF000000FF00FFFFFFFFFF00FF1D
:102CC000000000FF00FF000000FF00FF000000FF09
:102CD0000000000000000000FFFFFF00000000FFF8
:102CE0000000000000FF0000000000FF00000000E6
:102CF00000FF0000000000FF00000000FFFFFF00D9
:102D00000000000000000000000000FF00000000C4
:102D100000FF0000000000FF0000000000FF00FFB7
:102D2000000000FF00FF000000FF0000FFFFFF00A9
:102D300000000000000000FF000000FF00FF000096
:102D4000FF0000FF00FF000000FFFF00000000FF89
:102D500000FF000000FF0000FF0000FF000000FF78
:102D600000000000000000FF0000000000FF000065
:102D7000000000FF0000000000FF0000000000FF56
:102D80000000000000FF0000000000FFFFFFFFFF49
:102D900000000000000000FF000000FF00FFFF0037
:102DA000FFFF00FF00FF00FF00FF000000FF00FF2B
:102DB000000000FF00FF000000FF00FF000000FF18
:102DC00000000000000000FF000000FF00FFFF0007
:102DD00000FF00FF00FF00FF00FF0000FFFF00FFFB
:102DE000000000FF00FF000000FF00FF000000FFE8
:102DF0000000000000000000FFFFFF0000FF0000D7
:102E000000FF00FF000000FF00FF000000FF00FFC8
:102E1000000000FF00FF000000FF0000FFFFFF00B8
:102E200000000000000000FFFFFFFF0000FF0000A7
:102E300000FF00FF000000FF00FFFFFFFF0000FF9A
:102E40000000000000FF0000000000FF0000000084
:102E50000000000000000000FFFFFF0000FF000076
:102E600000FF00FF000000FF00FF000000FF00FF68
:102E700000FF00FF00FF0000FF000000FFFF00FF59
:102E800000000000000000FFFFFFFF0000FF000047
:102E900000FF00FF000000FF00FFFFFFFF0000FF3A
:102EA0000000FF0000FF000000FF00FF000000FF27
:102EB0000000000000000000FFFFFF0000FF000016
:102EC00000FF00FF000000000000FFFFFF00000007
:102ED000000000FF00FF000000FF0000FFFFFF00F8
:102EE00000000000000000FFFFFFFFFF000000FFE8
:102EF0000000000000FF0000000000FF00000000D4
:102F000000FF0000000000FF0000000000FF0000C4
:102F100000000000000000FF000000FF00FF0000B4
:102F200000FF00FF000000FF00FF000000FF00FFA7
:102F3000000000FF00FF000000FF0000FFFFFF0097
:102F400000000000000000FF000000FF00FF000084
:102F500000FF00FF000000FF00FF000000FF00FF77
:102F6000000000FF0000FF00FF00000000FF000065
:102F700000000000000000FF000000FF00FF000054
:102F800000FF00FF00FF00FF00FF00FF00FF00FF49
:102F900000FF00FF00FF00FF00FF0000FF00FF0038
:102FA00000000000000000FF000000FF00FF000024
:102FB00000FF0000FF00FF00000000FF0000000015
:102FC000FF00FF0000FF000000FF00FF000000FF07
:102FD00000000000000000FF000000FF00FF0000F4
:102FE00000FF00FF000000FF0000FF00FF000000E6
:102FF00000FF0000000000FF0000000000FF0000D4
:1030000000000000000000FFFFFFFF0000000000C4
:10301000FF00000000FF00000000FF00000000FFB4
:103020000000000000FF0000000000FFFFFFFF00A5
:10303000000000000000000000FFFF000000FF0093
:1030400000000000FF00000000FFFF000000000083
:10305000FF0000000000FF000000000000FFFF0074
:10306000000000000000000000FFFF000000FF0063
:1030700000FF00FF00FFFF00FFFF00FF0000FFFF59
:1030800000FFFF00FF00FF0000FF000000FFFF0047
:103090000000000000000000FFFF00000000000032
:1030A000FF0000000000FF0000000000FFFF000024
:1030B0000000FF0000000000FF000000FFFF000014
:1030C0000000000000000000000000000000000000
:1030D00000000000000000000000000000000000F0
:1030E00000000000000000000000000000000000E0
:1030F00000000000000000FFFFFF7F7F24FFBBBB3C
:10310000BB1824FFBBFFBD18247FBBBD78181A7FF6
:10311000BB7878181A7FBB787818527FBB181818BC
:103120005224241A1A5252FFFFFF7F7F24FFECEC37
:10313000EC9024FFECFFF590247FECF5D9901A7FFA
:10314000ECD9D9901A7FECD9D990527FEC9090901D
:103150005224241A1A5252FFFFFF7F7F24FF6F6F01
:103160006F1424FF6FFFB714247F6FB71F141A7FEB
:103170006F1F1F141A7F6F1F1F14527F6F141414B8
:103180005224241A1A5252FFFFFF7F7F24FF7777C1
:10319000771C24FF77FFB71C247F77B72F1C1A7F7B
:1031A000772F2F1C1A7F772F2F1C527F771C1C1C08
:1031B0005224241A1A5252FFFFFF7F7F24FFE5E5B5
:1031C000E58A24FFE5FFEE8A247FE5EECB8A1A7FAD
:1031D000E5CBCB8A1A7FE5CBCB8A527FE58A8A8AF8
:1031E0005224241A1A5252FFFFFF7F7F24FFF3F369
:1031F000F39824FFF3FFF598247FF3F5F0981A7FF6
:10320000F3F0F0981A7FF3F0F098527FF3989898C3
:103210005224241A1A5252FFFFFF7F7F24FF5F5F60
:103220005F0424FF5FFFAF04247F5FAF07041A7FB2
:103230005F0707041A7F5F070704527F5F040404D7
:103240005224241A1A5252FFFFFFFFFF52FFADA46F
:10325000ADA452FFA4ADA4A452FFADADADA452FFE6
:10326000ADA4ADA452FFADADA4A452FFA4A4A4A4E8
:1032700052525252525252A4A4A4A4A4A4A45B49F0
:103280005B49A4A4495B495BA4A45B495B49A4A432
:10329000495B495BA4A45B495B49A4A4495B495BC6
:1032A000A4A4A4A4A4A4A4FFFFFFFFFFFFFFFFFFAB
:1032B000FFFFFFFFFFFFFFFFFFFFFFFFFFFFFFFF1E
:1032C000FFFFFFFFFFFFFFFFFFFFFFFFFFFFFFFF0E
:1032D000FFFFFFFFFFFFFFFFFF00000000FFF57F84
:1032E000000000FFECF57F00007FECFFD97F007F3E
:1032F000ECD9D924007FECD92400007FEC24000015
:1033000000242400000000FFFFFFBFBF3FFFFDFDC2
:10331000FD703FFFFDFFFF703FBFFDFF78702DBFC9
:10332000FD7878702DBFFD7878705BBFFD70707090
:103330005B3F3F2D2D5B5BFFFFFFBFBF3FFFFFFFED
:10334000FFD83FFFFFFFFFD83FBFFFFFF2D82DBFE1
:10335000FFF2F2D82DBFFFF2F2D85BBFFFD8D8D86A
:103360005B3F3F2D2D5B5BFFFFFFBFBF3FFFBFBF3D
:10337000BF1F3FFFBFFFFF1F3FBFBFFF371F2DBF57
:10338000BF37371F2DBFBF37371F5BBFBF1F1F1F83
:103390005B3F3F2D2D5B5BFFFFFFBFBF3FFFBFBF0D
:1033A000BF373FFFBFFFFF373FBFBFFF3F372DBFD7
:1033B000BF3F3F372DBFBF3F3F375BBFBF373737BB
:1033C0005B3F3F2D2D5B5BFFFFFFBFBF3FFFFFFF5D
:1033D000FFD53FFFFFFFFFD53FBFFFFFDED52DBF6E
:1033E000FFDEDED52DBFFFDEDED55BBFFFD5D5D539
:1033F0005B3F3F2D2D5B5BFFFFFFBFBF3FFFFDFD31
:10340000FDF03FFFFDFFFFF03FBFFDFFF8F02DBFD8
:10341000FDF8F8F02DBFFDF8F8F05BBFFDF0F0F01F
:103420005B3F3F2D2D5B5BFFFFFFBFBF3FFFAFAF9C
:10343000AF073FFFAFFFFF073FBFAFFF07072DBF3E
:10344000AF0707072DBFAF0707075BBFAF0707072A
:103450005B3F3F2D2D5B5B9A9A9A9A9A9A9A4848BD
:1034600048489A9A484848489A9A484848489A9AF0
:10347000484848489A9A484848489A9A4848484884
:103480009A9A9A9A9A9A9A00000000000000000006
:103490000000000000000000000000FF00FF00002E
:1034A0000000FF00000000FF00FF0000000000001F
:1034B00000000000000000999999999999999999AB
:1034C000999999999999999999999999999999996C
:1034D000999999999999999999999999999999995C
:1034E0009999999999999948484848484848484825
:1034F000994848484848E24848484848EA484848BF
:1035000099EAFEEA99484848EA4848484848E24863
:1035100048484848994848484848484848484848DA
:1035200048484848E2484848E24848EA48EA4848A3
:103530004848FE48484848EA48EA4848E248484877
:10354000E248484848484848484848484848484861
:10355000484848484848994848484848E248484800
:1035600048E2FEE248484848E24848484848994806
:1035700048484848484848484848484848484848CB
:103580004848484899484848484848E248E2484836
:103590004848FE48484848E248E2484848484848C1
:1035A000994848484848484848484848484848484A
:1035B000484848484848484848484848994848483A
:1035C0004899EA99484848489948484848484848E6
:1035D000484848484848484848484848484848486B
:1035E00048484848484848484848489948994848B9
:1035F0004848EA4848484899489948484848484807
:10360000484848484848484848484848484848483A
:10361000484848484848484848484848484848482A
:103620004848E24848484848484848484848484880
:10363000484848484848484848484848484848480A
:1036400048484848484848484848484848484848FA
:1036500048484848484848484848484848484848EA
:103660004848484848484800000000000000000062
:10367000990000000000E20000000000EA000000E5
:1036800099EAFEEA99000000EA0000000000E2006A
:103690000000000099000000000000000000000091
:1036A00000000000E2000000E20000EA00EA000082
:1036B0000000FE00000000EA00EA0000E200000056
:1036C000E200000000000000000000000000000018
:1036D000000000000000990000000000E20000006F
:1036E00000E2FEE200000000E2000000000099009D
:1036F00000000000000000000000000000000000CA
:103700000000000099000000000000E200E200005C
:103710000000FE00000000E200E2000000000000E7
:103720009900000000000000000000000000000000
:1037300000000000000000000000000099000000F0
:103740000099EA99000000009900000000000000C4
:103750000000000000000000000000000000000069
:103760000000000000000000000000990099000027
:103770000000EA000000009900990000000000002D
:103780000000000000000000000000000000000039
:103790000000000000000000000000000000000029
:1037A0000000E20000000000000000000000000037
:1037B00000000000000000999999999999999999A8
:1037C0009999999999999999999999999999999969
:1037D0009A5A9A999999995B1C5B9A99999A1C1C87
:1037E0001B9999995B2E36999999999999999999D3
:1037F0009999999999999999999999999999999939
:1038000099999999999999999999995B9A99999965
:10381000991C1B5B5A995A99999999999999999ACE
:103820009A999999995B5A9999995A1C1B51999906
:103830005B2E2552995A1C372E1B515B2E3737258C
:1038400052253737372E1B999999999999999999B2
:1038500099999999999999999999999999999999D8
:103860009999999999999999999999999999995A07
:103870005B519A5A5B1C2E999999999999999999A2
:1038800099999999999999999999999999999999A8
:10389000995A5A99995A5B5C5151995C2E534891A7
:1038A00099361C0949999999999999999999999948
:1038B0009999999999999999999999999999999978
:1038C000999999999999999999999999995A9A99A6
:1038D00099999A245B919900000000000000FFFF75
:1038E000FFFFFF000000FF00005A5A00FF00001C0D
:1038F0001C00FF00002E3700FF00001B1C00FF0013
:103900003751520000003700361C0000000037001D
:1039100000FFFF003700FF000000000000FFFFFF76
:10392000FF00000000000000000000373700FFFF2C
:10393000FF373700000000000000000000FF00FF1C
:10394000FFFF000000FF0000FF0000FF0000FFFF7E
:1039500000FFFFFF00FF00FF0000000000FF003736
:103960003700000000373700000000003700FF007C
:10397000FF000000FF00FFFF0000FF00FF00FF004E
:10398000FF00FF000000FF00FF000000FF00FF003D
:103990003700000000003700000091999900FF00F7
:1039A00099999900FF0099999900FF005A5A5AFF76
:1039B000FF001C1C1C00FF0037362D00FF002D1BD4
:1039C000120000001209499900000000000000A444
:1039D000A4A40000AD000000000000FFFF000013E1
:1039E000000000FF0000000000AD0000A4A4A4003F
:1039F00000000000000000000000003700A400A448
:103A0000000000AD00ADAD0000FF00FF00FF00FFB3
:103A100000FF0000FFAD00AD000000A400A4002ED8
:103A200000000000001B00000000000000A40000D7
:103A3000A4A4A4AD00AD000000FF00FF000000FF43
:103A400000FF00FFFFAD00AD0000ADA40000A4A486
:103A5000A400000000000000000037000000A400E7
:103A60003700A400AD003700AD00FF003700FF00B5
:103A7000FF003700FF00AD000000AD00A4A4A400CB
:103A8000A4000000000000000000005191A4A4A4C4
:103A9000005B5A00000000362DFFFF001C1C1C00BC
:103AA0000000131313000000005151A4A4A40099B6
:103AB00099000000009999999999999999999999DA
:103AC0009999999999999999999A5A5A5A5A5A99A0
:103AD0005A5B251C1C999951521B2599999999510A
:103AE000529999999999999999999A1B369999996D
:103AF000995B2E999999995A1C5A5A5A5A5A1C1CD0
:103B00001C1C1C1C1C2E37373737371B1C2E373715
:103B10003751521B2E373737361C1B5B5B37373715
:103B2000362E2E3737373737373737373737373738
:103B30003737373737373737373737373737373715
:103B4000373737373737372E373737372D37373718
:103B500037373737373737373737373737373737F5
:103B600037373737373737373737373737373737E5
:103B700037373737373737125B1C2E37372E2E370C
:103B800037373737373737372E37373737372E37D7
:103B900037373737373737373737373737373737B5
:103BA000373737373737372E12089199991C09491B
:103BB0009999991B099199999913525A5A5A5A1CD1
:103BC0001C1C1C1C1C37373737362D3737372D1B3D
:103BD0001237371C12094999999999999999999984
:103BE0009999999999999999995A5A5A5A5A9A1CFC
:103BF0002D1C5B51511C12090951990909519199C8
:103C00009951919999999999999999999A99999973
:103C10009999999999999999999999999999999914
:103C20009999999999995B645B5B5B995A5B1C2D97
:103C30002E99999951521C5B9A999999995B1C5BA1
:103C40009A99995A2D2E245B9A995B37372E25998C
:103C50005A2D3737375B5B25373737362E363737B0
:103C600037363737373737995A2E25519999643770
:103C70003652995A2E373725512D37373737253752
:103C800037373737373737373737373737373737C4
:103C900037373737373737999999995A5A99995AFF
:103CA0005B25125A642D371B492D37372D095137A3
:103CB00037371C499937373724535B373737362E18
:103CC0003637373737372D99999999999951999965
:103CD0009999999999999999999999999999999A53
:103CE0009A99999A995B5B645B5A992E251B1249A4
:103CF000991B0949519999999999999999999999DA
:103D00009999999999999999999999999A99999922
:103D100099995A5B9A99999999652E999A9A995B6A
:103D200037995B242D2D3799999999999999999952
:103D300099999999999999999999995B5A99999970
:103D40009A2E2491995B64372E5B6D37373737375E
:103D50003737373737373799999999999999999981
:103D60009999999999999999999999999999995B01
:103D70005B519999992E129199999925519A9A9AEC
:103D800099362D251B5299999999999999999999AB
:103D90009999999999999999999999999999999993
:103DA0009999999999999999999999999999999983
:103DB00099999999999A9A99999999999999999971
:103DC0009999999999999999999999999999999963
:103DD00099999999999999995A99995B9A63259979
:103DE0005B633636373625999999999999999999B6
:103DF0009999999999999999999999999999999933
:103E00009999999999999999999999599999999962
:103E1000995A9A9999999900000000003700A1A138
:103E2000A1000000FA0000FA0000FF0000FF0000FF
:103E3000FA0000FA0000A10000A100009999990081
:103E40000000000000003600000000000000A1A1FA
:103E50000000A1FA0000FA00FAFF0000FF00FFFADC
:103E60000000FA00FAA10000A100A1009999000049
:103E700000000000001B000000000000000000A186
:103E800000A1A10000FA00FA000000FF00FFFF00FF
:103E900000FA00FA000000A100A100999900009921
:103EA00099000000000000000000000037A10000A1
:103EB000A1003700FA00FA0037FF0000FF003700CA
:103EC000FA00FA003600A100A100009900009999BB
:103ED0009900000000000000000000000000A1A107
:103EE000A1A10000FA0000000000FFFFFF001C007D
:103EF000FA0000001300A1000000000099999999B0
:103F00000000000000000000000000000000272763
:103F10002727270000003700001C1C00FF001C138F
:103F2000130037001C51510027001C9999001500FF
:103F30002E9999000000360000000000000027279D
:103F400027000000370000370000FF0000FF0000DE
:103F50003737370000002700002700001500001544
:103F60000000000000000000000000000027002703
:103F7000272700370037000037FF00FF0000FF371A
:103F800000373737002700270000001500150037DD
:103F90003700000000372D00000037000000270028
:103FA00037002700370037003700FF003700FF00D9
:103FB00037003700370027000000270015151500CF
:103FC000150000000000000000001251912727009A
:103FD0002D5B5A00000037362DFFFF001C1C1C0013
:103FE0000000131313000000515151151500999949
:103FF00099000000999999999999999999999999FC
:10400000999A9A99999A9A5B1C999A5B1C2E1C5AB8
:104010005B5B5B131399515151515199999999993E
:1040200099999999999999995A5B2E37375B1C2ED2
:104030003737372E37373737371C1C1C1C1C1C13DF
:10404000131313131C51515149521C999999995B9F
:104050002E9999999A5C363737373737373737374C
:1040600037373737373737373737373737373737E0
:104070003737373737373737373737373737372ED9
:104080003637362E1C1B1B3737373737373737371E
:1040900037373737373737373737373737373737B0
:1040A00037373737373737373737373737373737A0
:1040B0003736373737372D3737373737373737379B
:1040C0003737373737373737373737373737373780
:1040D000373737373637373737372E2E3637373784
:1040E00037131B2E36373737371C12519137373677
:1040F0002D5B5A37373737362D1C1C1C1C1C1C1BDC
:1041000012131313131349515151511C5199999979
:10411000992E12919999999999999999999A999908
:104120009999991B5A9A9999991C2D1C5A999913E6
:104130001313135A9A51515151515199999999996F
:104140009999999999999999999999995299999926
:104150009A5B65999A5B24252E995B1B1B13139917
:104160005151515151999999999999999999999927
:104170009999999999999925373737373737373733
:104180003737372E2D2E373737121225373737511D
:10419000522D373737996437372E245A2E2E241252
:1041A000095B2412094991373737373737373737A3
:1041B000373737373737373737373737373737378F
:1041C000373737373725373737361C522E373724AE
:1041D000099964372E1248373737372E1237373759
:1041E00037372E3737372E2D2E37373724121337E0
:1041F00037371C49512D37372E5299521B25361C03
:1042000051999152132452495199999999645B9A01
:104210009999992D24645B9A9913131B1B5A9951F0
:10422000515151519999999999999999999999991E
:1042300099999999999999999951243737999A63A4
:104240002D3737995B1B1B1B3799919191633799D8
:1042500099999A251C9999995A525199999999998C
:104260009999999999999937373737373737373730
:104270003737373737373737372E2E37372D3751D0
:104280005B372D515A99992D13919999995A5199B2
:1042900099999999999999372E125191993736642C
:1042A0005A9A992D1B1B1B5A992E51919191992520
:1042B0005B99999999915251999999999999999943
:1042C0009999999999999999999999995B9999999C
:1042D00099995B99999999995199999999999999D4
:1042E000999999999999999999999999999999993E
:1042F000999999999999992E37373737372E3737B2
:104300003737365B2E2E372E255B995B24995B99C8
:104310009999519999999999999999999999999955
:1043200099999999999999245299999999245A996D
:104330009999995151999999995A999999999999BC
:1043400099999999999999999999999999999999DD
:10435000999999999999999999995B2E3699999AD8
:104360005B2E1B99995B1C1B09999A5A5208499913
:1043700099995191999999999999999999999999FD
:10438000999999999999992E1B131209521B1249BF
:104390004951994849519999995199999999999956
:1043A000999999999999999999999999999999997D
:1043B0009999999999999925373737361B5B2E37F3
:1043C000372D125A2537361B089A5B2E251248992D
:1043D0005A2D1B095199991B12489999995A49517B
:1043E000999999995199990951121B1C364899919B
:1043F00051121B5199999991519999999999999912
:10440000999999999999999999999999999999991C
:1044100099999999999999371C519999991C2D12A3
:10442000919999121B1B5199999951121199999926
:10443000999951519999999999999999999999997C
:104440009999999999999999999999999A999999DB
:1044500099999999999999999999999999999999CC
:1044600099999999999999999999999999999999BC
:10447000999999999999995A0949919999919199E3
:10448000999999999999999999999999999999999C
:10449000999999999999999999999999999999998C
:1044A00099999999999999995A2E24099199996468
:1044B00012499999995A4991999999915191999932
:1044C000999999999999999999999999999999995C
:1044D0009999999999999999999991521299999922
:1044E0009999919999999999999999999999999944
:1044F000999999999999999999999999999999992C
:10450000999999999999995199999999999199996B
:10451000999999999999999999999999999999990B
:1045200099999999999999999999999999999999FB
:1045300099999999999999999999999999999999EB
:104540009999999999999999999999999999990074
:10455000000000000000FFFFFF000000FF0000FF60
:104560000000FFFFFF0000999999999999999999ED
:1045700099999999999999999999999999A2A30031
:104580000000000000FFFFFF0000FFFF00FF00FF32
:1045900000FFFFFF00FF00999999999999999999BE
:1045A000999999999999999999ACEDEDEDACA300E8
:1045B0000000000000FF00FF0000FF0000FF00FF00
:1045C00000F600FFFF000099999999999999999996
:1045D00099999999999999999999999999999900E4
:1045E000AC9999999900FFF699999900F6FEA499CA
:1045F00099F6F6F6F65199999999999999999999FF
:10460000999999999999999999999999999999991A
:1046100099999999999999999999999999999AA3FF
:10462000A39AA3F5FFFFFF99999999999999999957
:1046300099999999999999999999999999999999EA
:104640009999999999999999999999ACECACA29958
:1046500099FFFFFFFFF6A3999999999999999999CB
:1046600099999999999999999999999999999999BA
:1046700099999999999999999999999999999999AA
:1046800099999999A2A3AC99999999999999999974
:10469000999999999999999999999999999999998A
:1046A000999999999999999999999999999999997A
:1046B00099A39A999999999999999A1B360000000A
:1046C00000000000FFFFFFFFFF000000FFFF001CD5
:1046D0001C003737002E3700FFFF001B1C00AAAA62
:1046E00000515200AAAA0037361C1B5B5B00003742
:1046F000362E2EFF003737373700000000003737DF
:104700003737370000FFFF0000FFFFAAAA000000B4
:10471000AAAAAAAA0000AA2E373737372D3737376B
:104720003737373737373737373737373737370050
:104730000000000000FFFF00FFFFFFAA0000AAAA80
:1047400000AA0000AAAA00125B1C2E37372E2E37B3
:104750003737373737373737003737000000000033
:104760000000373700FF0000FFFF00AAAA00AAAA36
:1047700000AAAA00AAAA002E120891999900000086
:1047800000009900FFFFFF0000FFFF00FFFF003760
:10479000370000FF0000FFFF00002D0000AAAA0064
:1047A00000000000AAAA009999999A1B36000000FF
:1047B0000000000047474747470000004747001CEC
:1047C0001C000606002E37009B9B001B1C009B9BB9
:1047D00000515200FFFF0037361C1B5B5B000037A7
:1047E000362E2E47003737373700000000003706D7
:1047F00006060600009B9B00009B9B9B9B00000005
:104800009BFFFFFF0000FF2E373737372D37373735
:10481000373737373737373737373737373737005F
:1048200000000000009B9B009B9B9B9B00009B9BB0
:1048300000FF0000FFFF00125B1C2E37372E2E37C3
:104840003737373737373737003737000000000042
:1048500000000606009B00009B9B009B9B009B9B0F
:1048600000FFFF00FFFF002E120891999900000041
:1048700000009900474747000047470047470006A8
:104880000600000600009B9B00002D00009B9B0083
:1048900000000000FFFF009999999A1B3600000064
:1048A0000000000032323232320000003232001C8E
:1048B0001C00FFFF002E3700FCFC001B1C003737DC
:1048C0000051520037370037361C1B5B5B00003746
:1048D000362E2E320037373737000000000037FF02
:1048E000FFFFFF0000FCFC0000FCFC37370000006D
:1048F000373737370000372E373737372D373737C9
:10490000373737373737373737373737373737006E
:104910000000000000FCFC00FCFCFC370000373706
:1049200000370000373700125B1C2E37372E2E372A
:104930003737373737373737003737000000000051
:104940000000FFFF00FC0000FCFC00373700373799
:10495000003737003737002E120891999900000070
:10496000000099003232320000323200323200FF51
:10497000FF0000FF0000FCFC00002D0000373700A6
:104980000000000037370099999999999999999958
:104990009999AC99999999ACB5999999A3B5AC990C
:1049A000999AADACAC9999A4ACA3A39999ADA3A3E2
:1049B000A3999AACA39B9B00FF0000FF0000FFFFA0
:1049C000FF0000000000000000ACACACAC00FFAC8D
:1049D000ACACAC0000A3A3A3A3A3000000000000A4
:1049E0000000FFFFFF0000FF00FF00FF00FF00FFCF
:1049F0000000FF000000000000FFFF00FFFFFFFFBE
:104A00000000FF00FFFF0000FFFFFF0000000000AC
:104A100000FFFFFF0000FF0000FF00FF00FF00FF9E
:104A20000000FF00000000000000ACACACACAC002B
:104A3000ACACACACAC00A3A3A3A3A30000000000EB
:104A400000FF00FF0000FF00F6F6F6519900B5B533
:104A5000F6499900ADADAD0899ACACAD9B4899ACA9
:104A6000ACAD495199A4AD52489999009B48919990
:104A70009900085199999999999999999999999918
:104A80009999999999999999999999999999999996
:104A9000999999999999999999999A999999999985
:104AA000A39999999999A39999999999A499999957
:104AB000A3F5F69999A3F6F6B599A3B5ADADADA357
:104AC000ADACACACACACACA4A4A4A4ACA3A3A3A369
:104AD000A3A39A9B9B9B9BF6FFFFFEFEFEF6F6F6BA
:104AE000F6F6F6B5B5B5B5B5B5ADADADADADADACEC
:104AF000ACACACACACA4A4A4A4A4A4A3A3A3A3A353
:104B0000A39B9B9B9B9B9BFEFEFEFEFFF6F6F6F691
:104B1000F6F6FEB5B5B5B5B5F6ADADADADADF5AC2A
:104B2000ACACACACADA4A4A4A4ACA3A3A3A3A4A418
:104B3000499A9AA3A451519A9999999999AC9199A2
:104B4000999999A45199999999A451999999995296
:104B50005199999999489999999999919999999966
:104B600099999999999999999999999999999999B5
:104B70009999A399999999A3F5999999A3ADAC9904
:104B8000999AACA3A399999AA35A9A99999AA35AD4
:104B90005A9999999A9A5A9AACF6FFFFFFF5F6F648
:104BA000F6F6F6B5ADB5B5B5B5ACACACACACACA342
:104BB000A3A3A3A3A39A9A9A9A9A9B5A5A5A5A5A67
:104BC0005B5A5A5A5A5251FFFFAC999999F6F6F628
:104BD0009A9999B5ADB65A9999ACACAC519999A33B
:104BE000AC52919999A35251999999519199999946
:104BF0009999999999999999999999999999999925
:104C00009999999999999999999999999999999914
:104C1000999999999A99999999999A999999999902
:104C200099999999999999999999999999999199FC
:104C30009A9A9999A3F6F6FEEDACB5B5ADADADA4D3
:104C4000A3A3A3A49A5A5A5A5A5A919A5A5191997B
:104C500099999999999999999999999999999999C4
:104C60009999995199999999995199999999999944
:104C700099999999999999999999999999999999A4
:104C800099999999999999995A006767005B1C00BD
:104C90006767002E3700FFFF001C1C003C3C001320
:104CA0001300ECEC00515100ECEC00999900060661
:104CB00000999900000000676700000067676700BF
:104CC000000067FFFF000000FF3C3C3C3C003CEC68
:104CD000ECECEC0000000000000037373737372ECF
:104CE0003637362E1C1B1B6700006767676700009E
:104CF000676700FF0000FFFF003C00003C3C000035
:104D00000000000000373737373737373737373746
:104D10003736373737372D6700006767006767001A
:104D2000676700FFFF00FFFF003C3C003C3C0000C9
:104D30000000ECEC003737000000002E3637373724
:104D400000131B2E36373700000067670000000095
:104D5000676700000000FFFF003C00003C3C00ECE7
:104D6000ECECECEC00ECECECEC00000006060000D7
:104D700099000000009999995A003333005B1C0098
:104D8000FAFA002E3700FAFA001C1C00FFFF00138D
:104D900013001F1F005151001F1F00999900373742
:104DA00000999900000000333300000033FAFA0044
:104DB0000000FAFAFA000000FAFFFFFFFF00FF1FF1
:104DC0001F1F1F0000000000000037373737372E45
:104DD0003637362E1C1B1B330000333333FA0000EA
:104DE000FAFA00FA0000FAFA00FF0000FFFF0000E4
:104DF0000000000000373737373737373737373756
:104E00003736373737372D330000333300FAFA009F
:104E1000FAFA00FAFA00FAFA00FFFF00FFFF0000BA
:104E200000001F1F003737000000002E36373737CD
:104E300000131B2E3637370000003333000000000C
:104E4000FAFA00000000FAFA00FF0000FFFF001F5E
:104E50001F1F1F1F001F1F1F1F00000037370000EC
:104E600099000000009999995A00FFFF005B1C000F
:104E70008686002E37008686001C1C00F2F2001386
:104E80001300323200515100FFFF00999900FFFFDB
:104E900000999900000000FFFF000000FF868600D7
:104EA000000086868600000086F2F2F2F200F232FE
:104EB0003232320000000000000037373737372E1B
:104EC0003637362E1C1B1BFF0000FFFFFF8600003D
:104ED000868600860000868600F20000F2F200005E
:104EE0000000000000373737373737373737373765
:104EF0003736373737372DFF0000FFFF0086860033
:104F0000868600868600868600F2F200F2F20000B5
:104F100000003232003737000000002E36373737B6
:104F200000131B2E363737000000FFFF0000000083
:104F3000868600000000868600FF0000F2F2003244
:104F40003232323200FFFFFFFF000000FFFF00009F
:104F500099000000009999999AAC5A5A5A9999ACBB
:104F60005A5A5A9999ACA35A59999999AC9B5A99FA
:104F70009999999BA49999999999519999999999DC
:104F80009999999999999900FF0000FF0000FFFFF6
:104F9000FF000000FF0000FF0000FFFFFF00000017
:104FA0000000000000525BA3A3A35A9991515151F4
:104FB00051999999999999FF00FF00FF00FFFFFF10
:104FC00000FF00FF00FF00FF00FF00FF0000FF00E8
:104FD000000000000052510848499151919199995F
:104FE000999999999999990000FF00FF005A00FF3B
:104FF000FF00000000FF00FF00FF00FF0000FF00B7
:10500000000000000099999999999999999999990D
:105010009999999999999900519999999951999929
:1050200099999900999999999900999999999900BB
:1050300099999999999999999999999999999999E0
:10504000999999999999999999999999A3999999C6
:105050009999A399999999999999999999999999B6
:1050600099999999999999999999999999999999B0
:10507000999999999999999B5A5A5A5A5AA35A594E
:10508000595959A39B5A595151999A5A5B9B9B99CB
:105090009999915151999999999999999999999918
:1050A000999999999999995A5A5A5A5A5A595959AA
:1050B000595A9B595A5A9B5B5A5B5A525249515101
:1050C00051519199999999999999999999999999E8
:1050D000999999999999995AA39B495199A3524998
:1050E00091999949519999999999999999999999D0
:1050F0009999999999999999999999999999999920
:10510000999999999999995A5251919999999999E5
:1051100099999999999999999999999999999999FF
:1051200099999999999999999999999999999999EF
:1051300099999999999999484848484848484848B8
:1051400048484848484848484848484848484848DF
:1051500048484848484848484848484848484848CF
:10516000B648484848B6B648484848484848484875
:1051700048484848484848484848484848484848AF
:105180004848484848484848484848B6B6B6B6B679
:10519000B6000000000000484848484848484848D1
:1051A000484848484848484848484848484848487F
:1051B0004848484848484848484848B64848484801
:1051C00048B6B64848484848484848484848484982
:1051D000484848484848484848484848484848484F
:1051E000484848484848484948484848484948483D
:1051F0004848480040484848484848B60048484859
:1052000048B60048484848B60048484848B60048AC
:10521000484848B60048484848B60048484848B654
:105220000048484848B60000B60048484800B60064
:1052300048484800B60048484800B600484848007A
:10524000B60048484800B60048484800B6004848FC
:105250004800B600484848484848484848484848F0
:105260004848484848484848524848484848F54807
:1052700048484851FE484848485AFE484848489BD4
:10528000FE4848484852FE48495AA39B485AF5FEF2
:10529000AC4948FEFEFE494848FEFEA4484848FE88
:1052A000FE9B484848FEFEA3484848FEFEAC4848DE
:1052B00048FEFEFE5A48484848484848484848483A
:1052C000484848484848484848484848484848485E
:1052D000484848484848484848484948484848484D
:1052E000484848484848484848000048484800005E
:1052F000004848400000000040000A5B5B0A48127A
:105300006D6E761C495B6D646D6D5151BFADB6AD70
:105310004849AD64AEA4484848484848F54848481C
:1053200048485A48484848484848484848484848EB
:1053300048484848484848484848484848484848ED
:1053400048484848484848FEFEFEFE9B48FEFEFE90
:10535000FEFEFEA3FEFEFEFEFE4851A4B5ACA34831
:1053600048484848484848484848484848484848BD
:1053700048484848484848484951484848F5F54948
:10538000484848F5524848484849484848484848E5
:10539000484848484848484848484848484848488D
:1053A0004848484848484851645C6D524848090A92
:1053B000124848495B5B5C494852ADADB6A44849C8
:1053C000A55BADA44849645C6D494849130A5B522A
:1053D0004849130B134948484848484848484848F2
:1053E000484848484848484848484848484848483D
:1053F000484848484848484848484848484848482D
:10540000484848494848484848484848484848481B
:10541000484848484848484849484848484809484A
:10542000484848480A48484848491248484848496E
:1054300013484848480A130913131352480A131310
:10544000135248131213131349131313131349134D
:10545000131313134A1313131313521313131313A6
:10546000520A1313131312484848484848484848FA
:1054700048484848484848484848484848484848AC
:10548000484848484848484848484849484848489B
:105490004849484848484848484848B60048484865
:1054A00048B60048484848B6B64848484848B6480C
:1054B000484848484848484848484848484848486C
:1054C000484848484848480000000000000000FFE5
:1054D0000000000000FF000000B600FFFFFFFF001B
:1054E00000FF0000004800FF00480048000000489E
:1054F00000484848484848000000000000FF0000FD
:10550000FFFFFFFF00FF000000FF00FF00B600FFED
:1055100000FF000000FF0000FFFFFF000000000090
:10552000004848484848480000000000000000FFCC
:10553000000000FF00FF000000FF00FF00B6B6FF04
:1055400000FF0000000000FFFFFFFF000000000060
:105550000048484848484800000000000000FFFF9D
:10556000FFFF0000FF000000FF00FF00B600FF008B
:10557000FF000000FF00FFFFFFFF00000000000031
:105580000048484848484800B60048484800B60027
:1055900048484800B600484848004000484848008D
:1055A000004848484800484848484848484848480B
:1055B000484848484848484848484848484848486B
:1055C000484848484848484848484848494848485A
:1055D0004848494848484848484848484848494849
:1055E0004848484849484848484949484848484838
:1055F0004948484848494948484848484948484827
:1056000048484848484848515B48484848525B48E1
:1056100048484848484848484848480A134848487D
:10562000490912484849A3095C4848496352AE48B1
:10563000485A64535B4800A4AD5B5B0000ADBFB744
:10564000B7F6FFBF6D656553130B0B0A13AD5B0A0D
:105650000AA56D5C640A0AAD5C65AD5B646D655B53
:1056600052091264655BADFFF65201B7B6AEAEBF2C
:10567000FF666E656E656E49484848484800484870
:1056800048484800514848484853514848484865A8
:105690005248484848095251484848FFFF51484835
:1056A0004876BFAD4948484848484848484848496E
:1056B000494848484849514848484849494848485D
:1056C0004849484848484849494848484849494855
:1056D000484848494048480000000000000000FFDA
:1056E0000000000000FF000000B600FFFFFFFF40C9
:1056F00000FF0000004800FF00480048000000488C
:105700000048484848484800B60048484800B600A5
:1057100048484800B600484848004000484848000B
:105720004048484848004848484848484848484849
:1057300048484848484848484848484848484848E9
:1057400048484848484848484848484848484848D9
:105750004848484848484848484848B6B6B6B6B6A3
:10576000B6B6B6B6B6B6B648484848000048484847
:105770004800FF4848484800FF4848484800FF485C
:1057800048484800FF4848484800FFB6B6B6B6004B
:10579000FFB6B6B6B60000000000000000FFFF0034
:1057A00000FF000000FF00FF000000FF00FF00FFFF
:1057B000FF0000FF0000000000FF0000B6B600FF81
:1057C000FF00B6B600000048480000000048000096
:1057D000FFFF004800FF0000FF4800FF0000FF48F7
:1057E00000FFFFFFFF0000FF0000FFFF00FF0000C1
:1057F000FF00000000000000000048000000FF0063
:105800004800FF00FF000000FF0000FF00FF000055
:105810000000FF0000004800FF004800B600FF0045
:10582000B600B6000000B600000000000000FFFF58
:10583000FF00FF00FF000000FF00FFFFFF00FF0070
:10584000FF000000FF00FF000000FF00FFFFFF005F
:10585000FF000000000000000000484848FFFF0073
:105860000048480000FF0048480000FF004848FF8B
:10587000FF000048480000FF0048480000FF00B655
:10588000B600000000B6B64800000048480000FF1F
:1058900000484800FFFF0048480000FF0048484813
:1058A00000FF0048480000FF00004800FFFFFF0025
:1058B000B60000000000B6484848484848484848F4
:1058C0004848484848484848484848484848484858
:1058D00048484848484848484848485B004848487D
:1058E00048B65B0048484848484840484848484906
:1058F0005B48484848495A48484848484848484802
:105900004848484848484849084848484849094894
:105910004848490909484848484848484848484884
:1059200048484848484848484848484848484848F7
:1059300048484848484848484848484848484848E7
:1059400051484848485B52484848494848484848B0
:10595000494848484849494848485152525148499D
:105960004952525B48494949495249009B40514973
:105970005B49AD009B5B4948B66D6413134812093F
:1059800012135B48526412B6004852B752655C006D
:105990001B125C6EB75BB612656E5B5B65651B1BAD
:1059A0005BA45B655C6EB7130A1D1302145B5C1C81
:1059B0000B5B6553FF5CAEB60A5C65145D5D0AB6B1
:1059C0006D14136EB7ADBF5365B6AE5B5C65655CB9
:1059D000136E5DAE655D6E1CB7FFF600480A65FF8D
:1059E000004848641B5A484848655C654848486E0A
:1059F000135C484848BF6512A448486D65B7A44881
:105A0000486514BF64484848485AA448484848492B
:105A100051494848484949484848484949484848F8
:105A2000490A09494848090A0A09494809090A016D
:105A3000490909090909014800000000480000FF60
:105A4000FF000000FF0000FF00000000FF00004812
:105A500000FF00004800FF0000000000FFFFFFFF04
:105A60000000000000000048484848B6B6484848D2
:105A700048B65B48484848B65B48484848B65B4823
:105A8000484848B65B48484848B65B48484848B626
:105A90005B48484848B65B5B5B5B5B5B5B00000058
:105AA00000000000000000000000000000000000F6
:105AB00000000000000000000000000000000000E6
:105AC000000000000000005B5B5B5B5B5B000000B4
:105AD000000000000000990000000000E20000004B
