:100000000C94B2380C9440390C9440390C9440391B
:100010000C9440390C9440390C9440390C9440397C
:100020000C9440390C9440390C9440390C9440396C
:100030000C9440390C9488500C9440390C944039FD
:100040000C9440390C9440390C9440390C9440394C
:100050000C9440390C9440390C9440390C9440393C
:100060000C9440390C9440390C9440390C9440392C
:100070000000000000000000000000000000000080
:100080000000000000000000000000000000000070
:100090000000000000000000000000000000000060
:1000A0000000000000000000000000000000000050
:1000B0000000000000000000000000000000000040
:1000C00000000049000000495252000052525C2DCD
:1000D0000000000000000000000000000000000020
:1000E0000040000000494A52004952525B1C5253E2
:1000F0001C25241B2425251B0A0A2D1C12120A0A62
:100100000000000000000000404949494949525B95
:100110005B5B525B1C1C1312241C12090909120997
:100120000909090A0A0A0A0A0A13120A0A12130A10
:100130000000000000009252525252521312130952
:10014000001C0A1212401B65090A0009241B120038
:1001500000251C1C010025241C1C0024252424240B
:100160000000000000005249494000001B135249A2
:100170004900641C1C5B4A481C651C2552491C1C18
:10018000652464491C1C652564491C1C6D2E5C4952
:100190000000000000000000000000490000000016
:1001A000535200000053522500004A5225250000FA
:1001B0005B251300005B53000A1C095B1C657F373D
:1001C0004052522E2E1C525C2E251B1324251C1C23
:1001D00012002525120000121B0000132E37001BF1
:1001E00037372E2E37372E2E2E2E2E2E6E6E6E1C5D
:1001F0001313120009131200001213130012251C0E
:1002000013132E371C131313361C131B1B1B251320
:100210001C1C1B1B1B1C1C1C1C1C1C1C1C1C1C132A
:100220001312121313001313131C000913131C01D0
:100230000037131C13002E2E1C1C001C772E2500CB
:10024000137F251C010A37241C1C0A2E25250900B2
:10025000132E242525252E252525252525252D2E3E
:10026000251B2E2E251C1325251C1C1C1C011C1CAB
:100270001300011C0A000165775C016E7F6E521B42
:1002800025256D1C524925251C1353001C1C1C528E
:100290004A001B135B5B000009525C0000005B5CC2
:1002A000000000001B000000000000000000000033
:1002B000135B7F776E6E136577766E6E1B65777650
:1002C00076761B5BBF76B67609136DBFB7B6001B9B
:1002D000125C76BF0000121B125B00000000090ACE
:1002E0006E6E6E77241C6E6E77251C1C6E776E1CEE
:1002F0001C1C76761C1C2425B765646D6D1B766D01
:100300006D5B09125B5C5B125B641213131B1212B0
:100310001C1C1C1C1C241C1C242525242425251BDA
:1003200000002513000064BF00096EBFBF6D6EBFE3
:100330006D5B12135B12131209000901000000002B
:100340002E1C0900096E010009767F7F12777F7FDE
:100350006412BF775B121B095B121B0900001B09AB
:10036000000000000000000000000000000000008D
:100370007F7F5313130064121B0100001B12000047
:10038000000000000000000000000000000000006D
:10039000000000000000000000000000000000005D
:1003A0000000000000002600000026002F000000D2
:1003B0002F00370000003700FF000000FF00BF00E3
:1003C0000000BF00370000370000002626000000B4
:1003D000000000000000262626262600000000005F
:1003E0002F000000003700000000FF00000000BFE9
:1003F0000000000037000000000026262626260008
:100400000000000000002626262626002F000000FF
:100410000000370000000000FFFFFFFF0000BF00EA
:1004200000000000370000000000262626262600D7
:100430000000000000002626262600002F000000F5
:100440002F00370000003700FFFFFFFF0000BF0054
:100450000000BF00370000003700262626260000D7
:10046000000000000000000026262600002F0000EB
:100470002F00370000003700FF000000FF00BF0022
:100480000000BF00370000370000262626000000CD
:100490000000000000002600000026002F000000E1
:1004A0002F000037003700000000FF00000000BFF1
:1004B00000BF0000370000003700260000002600C3
:1004C000000000000000000000000000000000002C
:1004D000000000000000000000000000000000001C
:1004E0000000009B000000529BA400005B9B6D7706
:1004F00000000000000000000000000000000000FC
:10050000005B000000E4F6FF099BEDF6FFBFA4AD21
:10051000BFBFBFBF767F7FB7B7BF7F766EB7B7BFAE
:1005200000000000000000005BB6F6F6F6FFFFFFDB
:10053000FFBFFFFFFFBFBFAEFFFFFFB7AD65FFFF10
:10054000B7B6AD65FFFFBFB7AE6EFFFFBFB7B7650C
:10055000000000000000F6F6EDEDADA4B66D6D5C98
:10056000526E6565655265765C5C52536E246552C9
:10057000526E25255B52772D2525526E6E2D252531
:10058000000000000000A49B9B4900006564A49B40
:1005900092006D2525649349656E652E9B52242536
:1005A0006D25655225246D2D655225256E2E6452CC
:1005B00000000000000000000000004A00000000F1
:1005C0005B9B0000005B5B2D0000525B2E2E000148
:1005D0005B2D1C01005C5B014A654A5B1C6E7F77EA
:1005E000495B9B77776D5B65776E65656D2D25251E
:1005F0005C522E25130949641C09095C7F7F091C84
:100600007F7F777F777F77777F7F7776777F7F6E44
:10061000656E6EA4B6FF655BA4B7BFFF526DBFBF2A
:10062000BFFF7FBFBFBFBFFFBFBFB7BFFFFF7FB76A
:10063000BFBFFFFF6EB7BFBFFFFF77BFBFBFFFFFEB
:10064000FFFFBFBFB75BFFFFBFBFA464FFFFBFAD2E
:10065000A47FFFFFBFA4BF7FFFBFADBFBFBFFFB67B
:10066000BFBFBF77F7BFBFBF7777FFBFBFBF6452C2
:100670006D7F6E2E2D2D7F766E6E6E2E7777777650
:100680002E1C7F776E251C25776525251C096E6E2F
:100690001C0949255B494A6E7F645377BF775B5CD1
:1006A000256E6E255B4A25651C1B5B002524245B9B
:1006B00053001C1B5B5C00000A5B64000000646468
:1006C000000000005C0000000000000000000000CE
:1006D0005B5C7FBF77765C6D7FB777775C6D7FBF44
:1006E00077775C64BFBFBFBF0A5C6EBFBFBF0065EA
:1006F000646DBFBF00005B6D646D00000000125BA5
:100700007777777F6E6E77777F766D7677BF776D49
:100710006E76BF7F6D6E767FBF7676BFBF76BFBFCA
:10072000BFB664ADADB6B6ADBFFF646DADB6AD647A
:1007300077BFBFBFFFFF77BFBFBFFFFF7FBFBFBF99
:10074000FFF6BFB7ADF6FFFFA4ADFFFFFFFFFFFF52
:10075000FFFFFFFFFFFFFFF6A4005B520000000059
:10076000BFBFAD5B64BFB6ADADBFFFBFFFFFFFFF57
:10077000BF64FFFFBFB6765BFFBFBF5B0000FF5CDF
:100780000000000000000000000000000000000069
:10079000BFBF645C5C006E5C654900006D5B00007F
:1007A0000000000000000000000000000000000049
:1007B0000000000000000000000000000000000039
:1007C0000600040000000100020003000400050010
:1007D00006000700080009000A000B000C000D00CD
:1007E0000E000F0010000000110012001300140092
:1007F000150016000600030000001700180019007D
:100800001A001B001C001D001E001F0020002100FC
:10081000220023002400250026000000000208001A
:10082000085504085A0000F8000990000A1E320515
:100830000000FF0000001C08000000009839A639E5
:10084000C63A76406240A939B839C7394A40D539E5
:10085000E33900000001000200030004000501006C
:10086000010101020103010401050200020102026B
:10087000020302040205030003010302030303044D
:100880000305040004010402040304040405050034
:10089000050105020503050405050600060106021B
:1008A00006030604060507000701070207030704FD
:1008B00007050800080108020803080408050900E4
:1008C000090109020903090409050A000A010A02CB
:1008D0000A030A040A050B000B010B020B030B04AD
:1008E0000B050C000C010C020C030C040C050D0094
:1008F0000D010D020D030D040D050E000E010E027B
:100900000E030E040E050F000F010F020F030F045C
:100910000F05100010011002100310041005110043
:10092000110111021103110411051200120112022A
:10093000120312041205130013011302130313040C
:1009400013051400140114021403140414051500F3
:1009500015011502150315041505160016011602DA
:1009600016031604160517001701170217031704BC
:1009700017051800180118021803180418051900A3
:10098000190119021903190419051A001A011A028A
:100990001A031A041A051B001B011B021B031B046C
:1009A0001B051C001C011C021C031C041C051D0053
:1009B0001D011D021D031D041D051E001E011E023A
:1009C0001E031E041E051F001F011F021F031F041C
:1009D0001F0500FF06015300C00000904C6B00C2D1
:1009E000000092286B00C1000091476B1792346B96
:1009F0001890476B0092286B0091446B1890486BDD
:100A00000092346B0091456B18904A6B0092286BF2
:100A10000091476B18904C6B0092346B0091446BC3
:100A20000C904A6B0C486B0092286B0091456B1838
:100A300090476B0092346B0091446B1890456B00AB
:100A4000922D6B0091406B1892396B1890456B009A
:100A5000922D6B0091406B1890486B0092396B009F
:100A600091456B18904C6B00922D6B0091486B1860
:100A700092396B18904A6B00922D6B0091476B185E
:100A800090486B0092396B0091456B1890476B0052
:100A9000922C6B0091446B1892386B1890476B0046
:100AA000922C6B0091446B1890486B0092386B004D
:100AB00091456B18904A6B0092286B0091476B1818
:100AC00092346B18904C6B0092286B0091476B1816
:100AD00092346B1890486B00922D6B0091456B1807
:100AE00092396B1890456B00922D6B0091406B18FA
:100AF00092396B1890456B00922D6B0091406B18EA
:100B000092396B182D6B00912F6B1892306B0091FE
:100B1000396B1892266B0091326B18904A6B0092D9
:100B2000326B0091456B1892266B18904D6B0092BA
:100B3000326B00914A6B1890516B0092266B0091BA
:100B40004D6B1892326B18904F6B0092266B009190
:100B50004C6B18904D6B0092326B00914A6B189061
:100B60004C6B00922D6B0091486B1892396B182DCD
:100B70006B1890486B0092396B0091456B18904C44
:100B80006B00922D6B0091456B1892396B18904A4F
:100B90006B00922D6B0091476B1890486B00923957
:100BA0006B0091456B1890476B00922C6B00914441
:100BB0006B1892386B1890476B00922C6B00914425
:100BC0006B1890486B0092386B0091456B18904AF7
:100BD0006B0092286B0091476B1892346B18904C05
:100BE0006B0092286B0091476B1892346B189048F9
:100BF0006B00922D6B0091456B1892396B189045E4
:100C00006B00922D6B0091406B1892396B189045D8
:100C10006B00922D6B0091406B1892396B182D6B05
:100C200018396B18904C6B0092286B0091476B1829
:100C300092346B1790476B0092286B0091446B18AD
:100C400090486B0092346B0091456B18904A6B0092
:100C500092286B0091476B18904C6B0092346B009C
:100C600091446B0C904A6B0C486B0092286B00917E
:100C7000456B1890476B0092346B0091446B189051
:100C8000456B00922D6B0091406B1892396B189058
:100C9000456B00922D6B0091406B1890486B009251
:100CA000396B0091456B18904C6B00922D6B009145
:100CB000486B1892396B18904A6B00922D6B00911B
:100CC000476B1890486B0092396B0091456B1890F8
:100CD000476B00922C6B0091446B1892386B189004
:100CE000476B00922C6B0091446B1890486B0092FC
:100CF000386B0091456B18904A6B0092286B0091FD
:100D0000476B1892346B18904C6B0092286B0091D3
:100D1000476B1892346B1890486B00922D6B0091C2
:100D2000456B1892396B1890456B00922D6B0091B2
:100D3000406B1892396B1890456B00922D6B0091A7
:100D4000406B1892396B182D6B00912F6B189230F5
:100D50006B0091396B1892266B0091326B18904A98
:100D60006B0092326B0091456B1892266B18904D78
:100D70006B0092326B00914A6B1890516B00922677
:100D80006B00914D6B1892326B18904F6B0092264E
:100D90006B00914C6B18904D6B0092326B00914A36
:100DA0006B18904C6B00922D6B0091486B18923928
:100DB0006B182D6B1890486B0092396B0091456B46
:100DC00018904C6B00922D6B0091456B1892396B0B
:100DD00018904A6B00922D6B0091476B1890486BEE
:100DE0000092396B0091456B1890476B00922C6B09
:100DF0000091446B1892386B1890476B00922C6BE3
:100E00000091446B1890486B0092386B0091456BD1
:100E100018904A6B0092286B0091476B1892346BC4
:100E200018904C6B0092286B0091476B1892346BB2
:100E30001890486B00922D6B0091456B1892396B9E
:100E40001890456B00922D6B0091406B1892396B96
:100E50001890456B00922D6B0091406B1892396B86
:100E6000182D6B18396B1890406B00922D6B009108
:100E70003C6B1892346B182D6B17346B18903C6BCD
:100E800000922D6B0091396B1892346B182D6B18F2
:100E9000346B18903E6B00922C6B0091386B18925B
:100EA000346B182C6B18346B18903B6B00922C6BC6
:100EB0000091386B1892346B182C6B18346B1890A7
:100EC0003C6B00922D6B0091396B1892346B182D8E
:100ED0006B18346B182D6B0091396B1892346B18AA
:100EE0002D6B18346B182C6B0091386B1892346B87
:100EF000182C6B18346B182C6B18346B182C6B185F
:100F0000346B1890406B00922D6B00913C6B1892E3
:100F1000346B182D6B18346B18903C6B00922D6B52
:100F20000091396B1892346B182D6B18346B189034
:100F30003E6B00922C6B0091386B1892346B182C1E
:100F40006B18346B18903B6B00922C6B0091386BD4
:100F50001892346B182C6B18346B18903C6B009201
:100F60002D6B0091396B1892346B1890406B009286
:100F70002D6B00913C6B1892346B1890456B00926E
:100F80002D6B0091406B1892346B1890456B00925A
:100F90002D6B18346B1890446B00922C6B009140B1
:100FA0006B1892346B182C6B18346B182C6B18342C
:100FB0006B182C6B18346B18FF06014500FF2F00CF
:100FC00000FF06015300C00000C10000C2000092F3
:100FD0002C7F00C30712922F7F1290447F00913F15
:100FE0007F0092337F13277F122C7F12337F139061
:100FF000437F00913F7F0092337F2490427F009196
:101000003F7F00922C7F132F7F12337F12277F1395
:1010100090417F00913F7F00922C7F12337F13908D
:10102000407F00913A7F0092337F24903E7F009171
:101030003A7F00922E7F13903F7F0092307F1233D1
:101040007F12903E7F00913A7F0092277F13903F5E
:101050007F00922E7F12337F12903E7F00913A7F65
:101060000092337F13903F7F12922E7F1290317F38
:1010700000912E7F0092307F1390337F0092337F58
:101080001290317F0092277F1390337F00912E7F43
:1010900000922E7F12337F1290377F0091337F00B2
:1010A00092337F252C7F122F7F1390447F00913F36
:1010B0007F0092337F12277F122C7F13337F129091
:1010C000437F00913F7F0092337F2590427F0091C4
:1010D0003F7F00922C7F122F7F13337F12277F12C6
:1010E00090417F00913F7F00922C7F13337F1290BD
:1010F000407F00913A7F0092337F25903E7F0091A0
:101100003A7F00922E7F12903F7F0092307F123301
:101110007F13903E7F00913A7F0092277F12903F8D
:101120007F00922E7F13337F12903E7F00913A7F93
:101130000092337F12903F7F13922E7F1290317F67
:1011400000912E7F0092307F1290337F0092337F88
:101150001390317F0092277F1290337F00912E7F72
:1011600000922E7F12337F13903A7F0091337F00DD
:1011700092337F2590437F00912F7F002F7F009235
:101180002C7F1290447F00922F7F12337F00337F99
:101190001390437F0092277F1290447F00922C7F10
:1011A000122F7F13903B7F0092337F00337F1227F3
:1011B0007F1290437F0091307F00307F00922C7F20
:1011C0001390447F0092307F12346800346812908C
:1011D000437F0092247F1390447F00922C7F123033
:1011E0007F13903B7F0092346800346812247F1292
:1011F00090437F0091317F00922C7F1390447F00B9
:101200009234681238681290437F0092247F1390C2
:10121000447F00922C7F12346812903C7F009238F9
:101220006813247F1290437F0091327F00922C7FBD
:101230001390447F009234681238681290437F0004
:1012400092257F1390447F00922C7F123468129075
:101250003E7F0092386813257F12903F7F009137C0
:101260007F0092337F12903F7F0091377F0092334F
:101270007F13903F7F0091377F0092337F242B7F35
:101280002590437F0091337F0092277F25903F7FF9
:101290000091377F0092337F12903F7F0091377F1C
:1012A0000092337F13903F7F0091377F0092337F0E
:1012B000242C7F2590447F0091337F0092277F2547
:1012C000903F7F00913A7F0092337F12903F7F00E2
:1012D000913A7F0092337F13903F7F00913A7F00D5
:1012E00092337F49903E7F0091387F0092337F1286
:1012F000337F13903F7F0091377F00922C7F1290B5
:10130000337F0091307F0092337F1290347F0091C1
:101310002F7F009234681390357F00912F7F0092C9
:1013200035681290367F00912E7F009236681290B9
:10133000377F00912D7F009237681390387F00919E
:101340002C7F0092386812903A7F00912B7F009298
:101350003A681390387F0091337F00922C7F2433BA
:101360007F13337F242C7F132F7F12337F122C7F28
:1013700025903E7F0091387F0092337F12903F7F0F
:101380000092337F25903E7F0091387F00922C7F22
:1013900013903F7F0092327F12337F1290377F008D
:1013A00091337F00922B7F25337F12337F252B7F54
:1013B00012337F13337F122B7F25903E7F00913AAB
:1013C0007F0092337F12903F7F0092337F25903EC3
:1013D0007F00913A7F00922B7F12903F7F009232E4
:1013E0007F13337F12903B7F0091347F0092287FE0
:1013F000252F7F122F7F25287F122C7F132F7F12FE
:10140000287F2590407F00913B7F00922F7F129094
:10141000427F00922F7F2590407F00913B7F00927A
:10142000287F1290427F00922C7F122F7F13903FD3
:101430007F00913A7F00922B7F25337F1290337F7C
:1014400000912E7F0092337F252B7F12903F7F00EB
:10145000913A7F0092307F12337F25903D7F00913B
:10146000377F0092337F12903D7F0091377F00924B
:10147000327F13903D7F0091377F0092307F129032
:101480003A7F0091377F00922F7F12903A7F009130
:10149000377F00922F7F1390377F0091307F00922B
:1014A0002E7F1290377F0091307F00922B7F13FFA9
:1014B00006014500FF2F0000C00C0090405000C105
:1014C0000C0091365000C20D0092267F0093074118
:1014D00000C30700C10311904050009136500092A4
:1014E000267F12930741129040500091365000928F
:1014F000267F0093074123903C5000913650009284
:10150000267F009307411290405000913650009280
:10151000267F009307412390435000913B50009257
:10152000377F009307413507411291375000922BC6
:101530007F1293074112074111074112903C50005E
:1015400091345000922B7F00930741230741129062
:101550003750009130500092287F069307410C07C6
:10156000412390345000912B500092247F00930728
:10157000411807410C07411190395000913050003B
:1015800092297F1293074112903B500091325000F4
:10159000922B7F069307410C074111903A5000911E
:1015A000315000922A7F12903950009130500092B1
:1015B000297F009307411807410C90375000913064
:1015C000500092287F0093074117904050009137B8
:1015D000500092307F0C9307410C90435000913B98
:1015E000500092347F0C9307410B90455000913C82
:1015F000500092357F00930741249041500091396B
:10160000500092327F009307411290435000913B6B
:10161000500092347F059307410C074112904050CF
:10162000009139500092307F1293074111903C5045
:101630000091345000922D7F069307410C903E504C
:101640000091355000922F7F0093074112903B503C
:101650000091325000922B7F129307411707410CE3
:10166000903C500091345000922B7F00930741230F
:10167000074112903750009130500092287F069316
:1016800007410C07412390345000912B50009224C5
:101690007F009307411807410C0741119039500012
:1016A0009130500092297F1293074112903B5000D5
:1016B00091325000922B7F069307410C0741119005
:1016C0003A500091315000922A7F12903950009187
:1016D00030500092297F009307411807410C903742
:1016E00050009130500092287F009307411790409E
:1016F00050009137500092307F0C9307410C90437B
:101700005000913B500092347F0C9307410B904561
:101710005000913C500092357F0093074124904146
:1017200050009139500092327F009307411290434C
:101730005000913B500092347F059307410C0741C4
:1017400012904050009139500092307F129307411F
:1017500011903C500091345000922D7F0693074128
:101760000C903E500091355000922F7F009307411E
:1017700012903B500091325000922B7F1293074100
:101780001707410C92247F00930741239043500098
:10179000914050009307411290425000913F5000F9
:1017A000922B7F069307410C90415000913E5000D0
:1017B00093074112903F5000913B501192307F00AF
:1017C0009307411290405000913C50069307410C02
:1017D00092297F00930741119038500091345012A4
:1017E000903950009135500093074112903C5000C1
:1017F0009137500092307F069307410C92307F0062
:10180000930741119039500091305012903C500094
:101810009134500092297F0093074112903E50006E
:10182000913550069307410C92247F009307412382
:101830009043500091405000930741129042500055
:10184000913F500092287F069307410B9041500032
:10185000913E500093074112903F5000913B50122F
:10186000922B7F009307411290405000913C500012
:1018700092307F059307410C074112904850009128
:1018800041500092437F12930741119048500091BC
:1018900041500092437F069307410C9048500091BD
:1018A00041500092437F0093074124922B7F009385
:1018B00007411707410C92247F009307412390436F
:1018C0005000914050009307411290425000913FC8
:1018D0005000922B7F069307410C90415000913E9F
:1018E000500093074112903F5000913B50119230AD
:1018F0007F009307411290405000913C500693079F
:10190000410C92297F009307411190385000913487
:101910005012903950009135500093074112903C7D
:1019200050009137500092307F069307410C92305F
:101930007F00930741119039500091305012903C34
:1019400050009134500092297F0093074112903E3D
:101950005000913550069307410C92247F00930765
:101960004123903F500091385000922C7F00930704
:10197000411807410B074112903E5000913550002D
:10198000922E7F129307411707410C903C50009113
:1019900034500092307F0093074124074111922B6D
:1019A0007F069307410C922B7F00930741249224DA
:1019B0007F009307411707410C92247F0093074152
:1019C00023904350009140500093074112904250A1
:1019D00000913F5000922B7F069307410C9041509D
:1019E00000913E500093074112903F5000913B50B0
:1019F0001192307F009307411290405000913C506B
:101A0000069307410C92297F0093074112903850AA
:101A10000091345011903950009135500093074196
:101A200012903C50009137500092307F069307414E
:101A30000C92307F00930741119039500091305043
:101A400012903C50009134500092297F009307413E
:101A500012903E5000913550069307410C92247F1E
:101A60000093074123904350009140500093074159
:101A70001290425000913F500092287F06930741F8
:101A80000B90415000913E500093074112903F50FF
:101A900000913B5012922B7F0093074112904050CF
:101AA00000913C500092307F059307410C07411292
:101AB000904850009141500092437F12930741118A
:101AC000904850009141500092437F069307410C8B
:101AD000904850009141500092437F009307412469
:101AE000922B7F009307411707410C92247F0093AC
:101AF00007412390435000914050009307411290BA
:101B0000425000913F5000922B7F069307410C906A
:101B1000415000913E500093074112903F50009178
:101B20003B501192307F009307411290405000913A
:101B30003C50069307410C92297F00930741129075
:101B40003850009134501190395000913550009325
:101B5000074112903C50009137500092307F06931D
:101B600007410C92307F009307411190395000914A
:101B7000305012903C50009134500092297F0093D5
:101B8000074112903E5000913550069307410C9248
:101B9000247F0093074123903F50009138500092DA
:101BA0002C7F009307411807410B074112903E50CC
:101BB0000091355000922E7F129307411707410C78
:101BC000903C50009134500092307F0093074124A4
:101BD000074111922B7F069307410C922B7F0093B4
:101BE00007412492247F009307411707410C903C42
:101BF00050009138500092207F0093074112903C92
:101C000050009138501193074112903C5000913888
:101C1000500092277F0093074124903C5000913858
:101C2000500093074111903E5000913A5000922C81
:101C30007F00930741249040500091375000922B31
:101C40007F0093074112903C50009134502390390B
:101C500050009134500092247F0093074112903736
:101C600050009130501193074112921F7F0093074B
:101C70004112074112903C50009138500092207F51
:101C80000093074111903C50009138501293074146
:101C900012903C50009138500092277F00930741EA
:101CA00023903C50009138500093074112903E50D1
:101CB00000913A5000922C7F0093074112904050BF
:101CC0000091375011922B7F009307413592247F6A
:101CD0000093074124074112921F7F00930741118F
:101CE000074112903C50009138500092207F0093A1
:101CF000074112903C5000913850119307411290C7
:101D00003C50009138500092277F00930741249067
:101D10003C50009138500093074111903E50009183
:101D20003A5000922C7F009307412490405000913C
:101D3000375000922B7F0093074112903C50009146
:101D4000345023903950009134500092247F0093F6
:101D50000741129037500091305011930741129271
:101D60001F7F0093074112074112904050009136A7
:101D7000500092267F009307411190405000913609
:101D8000500092267F1293074112904050009136E6
:101D9000500092267F0093074123903C50009136DB
:101DA000500092267F0093074112904050009136D8
:101DB000500092267F009307412390435000913BAF
:101DC000500092377F0093074135074112913750F9
:101DD00000922B7F12930741120741110741129085
:101DE0003C500091345000922B7F00930741230711
:101DF0004112903750009130500092287F0693078F
:101E0000410C07412390345000912B500092247FC5
:101E1000009307411807410C074112903950009177
:101E200030500092297F1193074112903B5000914E
:101E3000325000922B7F069307410C074111903AD4
:101E4000500091315000922A7F1290395000913009
:101E5000500092297F009307411807410C9037509A
:101E6000009130500092287F009307411790405016
:101E7000009137500092307F0C9307410C904350F3
:101E800000913B500092347F0C9307410B904550DA
:101E900000913C500092357F0093074124904150BF
:101EA000009139500092327F0093074112904350C5
:101EB00000913B500092347F069307410B0741127B
:101EC000904050009139500092307F129307411199
:101ED000903C500091345000922D7F069307410CA6
:101EE000903E500091355000922F7F009307411291
:101EF000903B500091325000922B7F129307411774
:101F000007410C903C500091345000922B7F00937D
:101F1000074124074111903750009130500092281A
:101F20007F069307410C07412390345000912B50BA
:101F30000092247F009307411807410C074112903B
:101F40003950009130500092297F1193074112902F
:101F50003B500091325000922B7F069307410C07B3
:101F60004111903A500091315000922A7F129039DD
:101F700050009130500092297F009307411807418B
:101F80000C903750009130500092287F0093074109
:101F900017904050009137500092307F0C930741CA
:101FA0000C90435000913B500092347F0C930741BA
:101FB0000B90455000913C500092357F00930741B3
:101FC00024904150009139500092327F0093074194
:101FD0001290435000913B500092347F069307418A
:101FE0000B074112904050009139500092307F12FF
:101FF00093074111903C500091345000922D7F0680
:102000009307410C903E500091355000922F7F0075
:1020100093074112903B500091325000922B7F1257
:102020009307411707410C90405000913C5000929B
:10203000247F0093074112903C5000913950239027
:1020400037500091345000922A7F0093074112923A
:102050002B7F009307412390385000913450009219
:10206000307F009307412490395000913550009201
:10207000297F009307411290415000913C501192EA
:10208000297F1290415000913C50009307411290DB
:102090003950009135500092307F009307411192E2
:1020A000307F12297F0093074124903B50009137E5
:1020B000500092267F0093074117904550009141B0
:1020C0005018904550009141500692297F00930787
:1020D00041119045500091415000922B7F00930791
:1020E0004118904350009140500C922F7F0093076D
:1020F000410C90415000913E501790405000913C4F
:102100005000922B7F0093074112903C5000913970
:102110005012922B7F119039500091355000930747
:102120004112903750009134500092307F00930755
:10213000411292307F122B7F009307412390405031
:1021400000913C500092247F0093074112903C5034
:1021500000913950239037500091345000922A7FDB
:102160000093074112922B7F009307412390385030
:10217000009134500092307F0093074124903950F1
:10218000009135500092297F0093074112904150F1
:1021900000913C501192297F1290415000913C5087
:1021A0000093074112903950009135500092307FD2
:1021B000009307411192307F12297F009307412439
:1021C000903B500091375000922B7F0093074111B4
:1021D00090415000913E5000922B7F24904150003E
:1021E000913E5000922B7F00930741119041500087
:1021F000913E5000922B7F00930741189040500071
:10220000913C5000922D7F0C9307410C903E500062
:10221000913B5000922F7F17903C50009137500017
:1022200092307F009307411291345012922B7F110C
:1022300091345000930741129130500092247F0056
:102240009307412407412390405000913C50009255
:10225000247F0093074112903C5000913950239005
:1022600037500091345000922A7F00930741129218
:102270002B7F0093074123903850009134500092F7
:10228000307F0093074124903950009135500092DF
:10229000297F009307411290415000913C501192C8
:1022A000297F1290415000913C50009307411290B9
:1022B0003950009135500092307F009307411192C0
:1022C000307F12297F0093074124903B50009137C3
:1022D000500092267F00930741179045500091418E
:1022E0005018904550009141500692297F00930765
:1022F00041119045500091415000922B7F0093076F
:102300004118904350009140500C922F7F0093074A
:10231000410C90415000913E501790405000913C2C
:102320005000922B7F0093074112903C500091394E
:102330005012922B7F119039500091355000930725
:102340004112903750009134500092307F00930733
:10235000411292307F122B7F00930741239040500F
:1023600000913C500092247F0093074112903C5012
:1023700000913950239037500091345000922A7FB9
:102380000093074112922B7F00930741239038500E
:10239000009134500092307F0093074124903950CF
:1023A000009135500092297F0093074112904150CF
:1023B00000913C501192297F1290415000913C5065
:1023C0000093074112903950009135500092307FB0
:1023D000009307411192307F12297F009307412417
:1023E000903B500091375000922B7F009307411192
:1023F00090415000913E5000922B7F24904150001C
:10240000913E5000922B7F00930741119041500064
:10241000913E5000922B7F0093074118904050004E
:10242000913C5000922D7F0C9307410C903E500040
:10243000913B5000922F7F17903C500091375000F5
:1024400092307F009307411291345012922B7F12E9
:1024500091345000930741119130500092247F0035
:1024600093074124074123903C500091385000923B
:10247000207F0093074112903C50009138501293F6
:10248000074111903C50009138500092277F0093F3
:10249000074124903C50009138500093074111901F
:1024A0003E5000913A5000922C7F009307412490B7
:1024B00040500091375000922B7F009307411290BB
:1024C0003C50009134502390395000913450009288
:1024D000247F0093074112903750009130501193A0
:1024E000074112921F7F0093074112074112903C4F
:1024F00050009138500092207F0093074111903C8A
:1025000050009138501293074112903C500091387E
:10251000500092277F0093074123903C5000913850
:10252000500093074112903E5000913A5000922C77
:102530007F00930741129040500091375011922B29
:102540007F009307413692247F0093074123074180
:1025500012921F7F0093074111074112903C5000D7
:102560009138500092207F0093074112903C500018
:102570009138501293074111903C5000913850000F
:1025800092277F0093074124903C500091385000DF
:1025900093074111903E5000913A5000922C7F00D9
:1025A000930741249040500091375000922B7F00B8
:1025B00093074112903C50009134502390395000C1
:1025C0009134500092247F009307411290375000BD
:1025D0009130501193074112921F7F0093074112CF
:1025E000074112904050009136500092267F009390
:1025F000074111904050009136500092267F12936F
:10260000074112904050009136500092267F00936F
:10261000074123903C50009136500092267F009352
:10262000074112904050009136500092267F00934F
:1026300007412390435000913B500092377F009315
:1026400007413607411191375000922B7F129307B3
:10265000411207411107411290405000913C500037
:1026600092247F0093074112903C500091395023EF
:102670009037500091345000922A7F009307411206
:10268000922B7F00930741239038500091345000E3
:1026900092307F00930741249039500091355000CB
:1026A00092297F009307411290415000913C5011B4
:1026B00092297F1290415000913C500093074112A3
:1026C000903950009135500092307F0093074111AE
:1026D00092307F12297F0093074124903B50009154
:1026E00037500092267F0093074117904550009184
:1026F000415018904550009141500692297F009317
:102700000741119045500091415000922B7F00935A
:10271000074118904350009140500C922F7F009336
:1027200007410C90415000913E501790405000914D
:102730003C5000922B7F0093074112903C50009137
:10274000395012922B7F12903950009135500093DE
:10275000074111903750009134500092307F009320
:1027600007411292307F122B7F0093074123904044
:102770005000913C500092247F0093074112903CFE
:102780005000913950239037500091345000922AD4
:102790007F0093074112922B7F00930741239038CB
:1027A00050009134500092307F00930741249039BB
:1027B00050009135500092297F00930741129041BB
:1027C0005000913C501192297F1290415000913C51
:1027D00050009307411290395000913550009230CB
:1027E0007F009307411192307F12297F00930741A8
:1027F00024903B500091375000922B7F009307416B
:102800001190415000913E5000922B7F24904150F6
:1028100000913E5000922B7F00930741129041504F
:1028200000913E5000922B7F00930741179040503B
:1028300000913C5000922D7F0C9307410C903E502C
:1028400000913B5000922F7F17903C5000913750E1
:102850000092307F009307411291345012922B7FE7
:102860001291345000930741119130500092247F0F
:10287000009307412407410CFF2F0000C003009084
:102880004C7F00913C520092306C00C20300C103A7
:1028900035904C7F00913C520092306C1190487FF3
:1028A000009137521290487F009137520092306C5D
:1028B00012306C1190487F009139520092356C248F
:1028C00090457F009135520092356C1290417F0007
:1028D0009130520092306C1190457F00913552003A
:1028E00092356C1290477F009137520092376C23DB
:1028F0002B6C24FF0601530092307C2390407F0014
:10290000913C601290417F00913E600092377C12B2
:1029100090437F009140601190457F00914160128B
:10292000922B7C1290407F00913C601292307C117F
:1029300090437F009140602490447F00913F60006D
:1029400092377C1190457F0091406024922B7C232C
:10295000307C2490407F00913C601190417F009139
:102960003E600092377C1290437F0091406012904D
:10297000457F0091416012922B7C1190477F00911E
:1029800043600092317C12327C1290477F00914369
:10299000602390467F009142600092377C12904500
:1029A0007F0091416023922B7C24327C23903E7FD8
:1029B00000913B601290407F00913C600092377C18
:1029C0001290417F00913E601190437F00913E60E4
:1029D00012922B7C12903E7F00913B601192327CD0
:1029E0001290417F00913E602490427F00913D60B3
:1029F0000092377C1190437F00913E6024922B7CA3
:102A000011317C12327C24903E7F00913B6011900A
:102A1000407F00913C600092377C1290417F009192
:102A20003E601290437F00913E6011922B7C129089
:102A3000457F009140601292307C1290457F00915A
:102A400040602390447F00913F600092377C129059
:102A5000437F0091406023922B7C24307C23904064
:102A60007F00913C601290417F00913E6000923760
:102A70007C1190437F009140601290457F0091410E
:102A80006012922B7C1290407F00913C601192303A
:102A90007C1290437F009140602390447F00913FDF
:102AA000600092377C1290457F0091406024922B09
:102AB0007C23307C1F90407F00913C601690417FCA
:102AC00000913E600092377C1690437F00914060F9
:102AD0001690457F0091416009922A7C0E90467FB6
:102AE0000091436004922F7C1290457F00914160D9
:102AF0000092307C35357C35297C1290447F0091E2
:102B000040601190457F009141600092307C1290AE
:102B1000477F009143601290487F0091456012907A
:102B20004A7F009147600092357C2390457F009159
:102B300041601290477F009143600092297C119080
:102B4000487F0091456012904A7F00914760009253
:102B50002A7C35367C1290487F0091436023904A4E
:102B60007F0091476000922A7C12904C7F00914830
:102B70006000922F7C12307C12904C7F0091486054
:102B80002390487F009143600092377C2390437FDD
:102B90000091406012922B7C1290477F009143601D
:102BA0001290477F0091436000922D7C3590457FC5
:102BB000009140600092397C352D7C1290447F005A
:102BC00091406000922B7C1190457F009141600004
:102BD00092297C1290477F009143601290487F00B9
:102BE00091456011904A7F009147600092357C24A6
:102BF00090457F009141601290477F0091436000B3
:102C000092297C1190487F0091456012904A7F0084
:102C100091476000922B7C35377C12904C7F00915D
:102C2000436023922B7C122F7C1290487F009140AE
:102C3000600092307C35377C352B7C23307C3637F6
:102C40007C352B7C2391407F0092307C129140692F
:102C50001290407F00913C601190417F00913E6056
:102C60000092377C1290437F009140601290457F24
:102C70000091416011922B7C1290407F00913C604A
:102C80001292307C1290437F009140602390447FE9
:102C900000913F600092377C1290457F0091406028
:102CA00011457F12456900922B7C1291447F12439B
:102CB0007F0044690092307C119143691290407FFB
:102CC00000913C601290417F00913E600092377C01
:102CD0001190437F009140601290457F00914160C8
:102CE00012922B7C1290477F009143600092317CBE
:102CF00011327C1290477F009143602390467F0001
:102D00009142600092377C1290457F0091416012A1
:102D1000437F12436900922B7C2391417F009232C2
:102D20007C1291416911903E7F00913B601290406E
:102D30007F00913C600092377C1290417F00913E71
:102D4000601290437F00913E6011922B7C12903E66
:102D50007F00913B601292327C1190417F00913E46
:102D6000602490427F00913D600092377C12904336
:102D70007F00913E6011437F12436900477F0092BC
:102D80002B7C12914769004A7F0092317C11914A55
:102D9000690092327C24903E7F00913B601290400B
:102DA0007F00913C600092377C1190417F00913E02
:102DB000601290437F00913E6012922B7C119045EF
:102DC0007F009140601292307C1290457F009140CC
:102DD000602390447F00913F600092377C129043C3
:102DE0007F0091406012477F11476900922B7C124F
:102DF00091437F12407F0043690092307C129140E2
:102E0000691190407F00913C601290417F00913E9B
:102E1000600092377C1290437F0091406011904592
:102E20007F0091416012922B7C1290407F00913C78
:102E3000601292307C1190437F0091406024904456
:102E40007F00913F600092377C1190457F00914058
:102E50006012457F12456900922B7C2391437F00CD
:102E600092307C129143690D90407F00913C601636
:102E700090417F00913E600092377C1790437F0025
:102E80009140601690457F0091416009922A7C0D27
:102E900090467F0091436004922F7C1290457F0002
:102EA0009141600092307C35357C35297C1290440C
:102EB0007F009140601290457F0091416000457F06
:102EC0000092307C1190477F009143600045691269
:102ED00090487F0091456012904A7F0091417F00A9
:102EE00047600092357C129141691190457F0091B5
:102EF000416000457F1290477F0091436000456923
:102F00000092297C1290487F0091456011904A7F81
:102F10000091447F00476000922A7C12914469240A
:102F2000487F0092367C1190487F009143600048B2
:102F30006912447F12904A7F009144690047600003
:102F4000922A7C11904C7F0091486000922F7C1255
:102F500091437F0092307C12904C7F009143690036
:102F600048602390487F0091407F00436000923783
:102F70007C129140691290437F0091406000437F32
:102F800011436900922B7C1290477F0091436000AF
:102F9000447F1290477F0091436000446900457F61
:102FA00000922D7C129145692390457F00914060ED
:102FB00000497F0092397C1291496911457F124581
:102FC0006900922D7C1290447F0091406000447F04
:102FD00000922B7C1290457F009141600044690073
:102FE000457F0092297C1190477F00914360004506
:102FF000691290487F0091456012904A7F00914885
:103000007F0092357C119148691290457F00914173
:103010006000457F1290477F009143600045690042
:1030200092297C1290487F0091456011904A7F0060
:1030300091437F00476000922B7C12914369234AA1
:103040007F0092377C12904C7F00914360004A6968
:1030500012437F12436900922B7C112F7C129048FF
:103060007F0091406000487F0092307C1291486957
:1030700023437F0092377C1291436912407F1140B5
:103080006900922B7C12913C7F123C690092307C4B
:1030900035377C352B7C2390437F004C640091486E
:1030A0005100922B7C00434C12904F7F009143546F
:1030B0000092307C003C1B00404012904E7F0091FB
:1030C0004F5412904C64004F7F00914851004E5471
:1030D00000922B7C00434C11904C64005B7F00916C
:1030E0004851004F540092377C003C1B0040400088
:1030F000434C1290437F00915B5400923C1B004074
:103100004012904C64004F7F00914354004851009E
:10311000922B7C00434C11904C64004F7F009149EE
:1031200051004F540092317C003C1B004040004352
:103130004C1290437F00914F5400923D1B00404041
:1031400012904C64004F7F0091435400495100920B
:10315000317C00434C12904F7F00914F5400923DC0
:103160001B00404011904C6400547F009149510075
:103170004F5400922D7C00434C12904C64005B7FB6
:10318000009149510054540092377C003D1B00408F
:103190004000434C1290437F00915B5400923D1BD2
:1031A00000404011904C64004F7F0091435400490F
:1031B0005100922D7C00434C1290437F004C6400E0
:1031C000914951004F540092317C003D1B0040401A
:1031D00000434C1290437F004D6400914354004AD9
:1031E000510092327C003D1B00404000454C129043
:1031F0004F7F0091435400923E1B00414011904E7E
:103200007F00914F5412904D64004F7F00914A51BE
:10321000004E540092327C00454C12904D64005B8D
:103220007F00914A51004F540092327C003E1B00B7
:10323000414000454C1190437F004C64009149513E
:10324000005B540092347C003E1B00414000454C22
:1032500012904D64004F7F00914354004A510092F8
:10326000357C003D1B00404000484C12904F6400EC
:103270005B7F00914A51004F540092377C003E1B07
:10328000004140004A4C12915B5400923E1B0043A7
:1032900040119143481290432E00914F4812904F95
:1032A0002E00915B4800922B7C11905B2E12914F67
:1032B0004812904F2E0091434800922B7C1290436D
:1032C0002E009137481190372E00437F004C640048
:1032D00091485100922B7C00434C12904F7F0091FB
:1032E00043540092307C003C1B00404012904E7FC3
:1032F00000914F5411904C64004F7F009148510051
:103300004E5400922B7C00434C12904C64005B7F27
:1033100000914851004F540092377C003C1B004004
:103320004000434C1290437F00915B5400923C1B41
:1033300000404012904C64004F7F0091435400487D
:103340005100922B7C00434C11904C64004F7F0045
:10335000914951004F540092317C003C1B00404089
:1033600000434C1290437F00914F5400923D1B004C
:10337000404012904C64004F7F00914354004951EB
:103380000092317C00434C11904F7F00914F5400CC
:10339000923D1B00404012904C6400547F009149C4
:1033A00051004F5400922D7C00434C12904C64000D
:1033B0005B7F009149510054540092377C003D1BC3
:1033C00000404000434C1290437F00915B540092B8
:1033D0003D1B00404011904C64004F7F00914354CE
:1033E00000495100922D7C00434C1290437F004CC9
:1033F0006400914951004F540092317C003D1B0004
:10340000404000434C1290437F004D640091435470
:10341000004A510092327C003D1B00404000454C68
:1034200011904F7F0091435400923E1B0041401287
:10343000904E7F00914F5412904D64004F7F009149
:103440004A51004E540092327C00454C12904D641B
:10345000005B7F00914A51004F540092327C003E45
:103460001B00414000454C1190437F004C6400918B
:103470004951005B540092347C003E1B00414000E7
:10348000454C12904D64004F7F00914354004A51C7
:103490000092357C003D1B00404000484C12904F8C
:1034A00064005B7F00914A51004F540092377C00CA
:1034B0003E1B004140004A4C11915B5400923E1B60
:1034C000004340362B7C232C7C122D7C112F7C1248
:1034D000FF0601450092307C2490407F00913C60C3
:1034E0001190417F00913E600092377C1290437FA3
:1034F000009140601290457F0091416011922B7CB9
:103500001290407F00913C601BFF2F0000C0030021
:10351000C10C00C20C009239310093074B02904855
:103520006800914151179239310093074B0290483E
:1035300068009141510B923B310093074B02904A36
:10354000680091435124923C310093074B02904D07
:1035500068009145510B923C310093074B02904C0F
:1035600068009143510B9237310093074B0290480A
:1035700068009140510B923B310093074B02904AF7
:10358000680091435124923C310093074B02904DC7
:1035900068009145510B923E310093074B02904FCA
:1035A00068009146510B923F310093074B029050B7
:1035B00068009148510B9242310093074B029051A1
:1035C0006800914A510493074B06074B07074B06C7
:1035D000074B07074B0C07370D07370D07370D074C
:1035E0003718FF2F0000C01100C10300C20B00926A
:1035F000326900C30700930D3201903E7F1692326C
:10360000690093073E02903E7F0A92326900930759
:103610003E03903E7F0A922D690093073E02903947
:103620007F16922D690093073E0290397F169232E1
:103630006900930D3202903E7F1792326900930722
:103640003E02903E7F0A9232690093073E01903E0F
:103650007F0A922D690093073E0390397F16922DC1
:10366000690093073E0390397F1692326900930DEB
:103670003201903E7F179232690093073E02903EDE
:103680007F0A9232690093073E03903E7F0A922D93
:10369000690093073E0190397F16922D69009307C8
:1036A0003E0390397F1692326900930D3202903EAC
:1036B0007F169232690093073E02903E7F0A923253
:1036C000690093073E02903E7F0B922D6900930D97
:1036D000320290397F16922D6900930D370290398E
:1036E0007F16FF0601530092326900930D3C029051
:1036F0003E7F0091395D179232690093073E029038
:10370000457F0091415D0A9232690093073E0C9219
:103710002D690093073E01904A7F0091415D179209
:103720002D690093073E0290497F0091435D1792F7
:1037300032690093073E02904A7F0091415D1592E5
:1037400032690093073E0390457F0091405D0A92E5
:1037500032690093073E0290457F0091415D0A92D5
:103760002D690093073E0390467F0091435D1692BA
:103770002D690093073E0190437F0091405D1792B1
:1037800032690093073E0290457F0091415D179298
:1037900032690093073E0190417F00913D5D0A929E
:1037A00032690093073E0290417F00913E5D0A928C
:1037B0002D690093073E0390437F0091405D169270
:1037C0002D690093073E0290407F00913D5D169267
:1037D00032690093073E0290417F00913E5D17924F
:1037E00032690093073E02903E7F0091385D0A9255
:1037F00032690093073E02903E7F0091395D0A9244
:103800002D690093073E0290407F00913D5D169226
:103810002D690093073E02903D7F0091395D17921C
:1038200032690093073E02903E7F0091395D169207
:1038300032690093073E0190397F0091355D0B920C
:1038400032690093073E0C9231690093073E029063
:103850003A7F0091375D17922D690093073E0290E1
:103860003D7F0091375D159232690093073E0390CA
:103870003E7F0091395D169232690093073E0390B6
:10388000397F0091355D0A9232690093073E0C92B0
:1038900031690093073E01903A7F0091375D17929E
:1038A0002D690093073E0290407F00913D5D179285
:1038B00032690093073E01903E7F0091395D169278
:1038C00032690093073E0390457F0091415D0A9263
:1038D00032690093073E0C922D690093073E0290D7
:1038E0004A7F0091415D16922D690093073E029038
:1038F000497F0091435D179232690093073E029021
:103900004A7F0091415D169232690093073E029012
:10391000457F0091405D0A9232690093073E029014
:10392000457F0091415D0A922D690093073E029008
:10393000467F0091435D17922D690093073E0290E8
:10394000437F0091405D169232690093073E0190DB
:10395000457F0091415D179232690093073E0290C6
:10396000417F00913D5D0A9232690093073E0390CA
:10397000417F00913E5D0A922D690093073E0290BF
:10398000437F0091405D15922D690093073E03909F
:10399000407F00913D5D169232690093073E03908F
:1039A000417F00913E5D159232690093073E02907F
:1039B0003E7F0091385D0A9232690093073E039082
:1039C0003E7F0091395D0A922D690093073E029077
:1039D000407F00913D5D17922D690093073E019055
:1039E0003D7F0091395D169232690093073E029047
:1039F0003E7F0091395D179232690093073E029035
:103A0000397F0091355D0A9232690093073E0C922E
:103A100031690093073E02903A7F0091375D16921C
:103A20002D690093073E02903D7F0091375D17920C
:103A300032690093073E02903E7F0091395D1692F5
:103A400032690093073E0290397F0091355D0A92FA
:103A500032690093073E0C9231690093073E039050
:103A60003A7F0091375D16922D690093073E0190D1
:103A7000407F00913D5D179232690093073E0290AE
:103A80003E7F0091395D179232690093073E0C9298
:103A900032690093073E0B922E690093073E1992FC
:103AA0002B690093073E189232690093073E1992E2
:103AB00032690093073E0C9232690093073E0D92E3
:103AC00031690093073E0190407F0091395D169265
:103AD0002D690093073E02903D7F0091395D17925A
:103AE00032690093073E02903E7F0091395D169245
:103AF00032690093073E0C9232690093073E0C92A4
:103B00002E690093073E19922B690093073E189285
:103B100032690093073E189232690093073E0D9276
:103B200032690093073E0C922B690093073E019087
:103B3000407F00913C5D1792246919296900930721
:103B40003E0190417F169235690093073E039041F4
:103B50007F0A9229690093073E0290417F0A9224CE
:103B6000690093073E0390437F15923069009307E5
:103B70003E0290407F179229690093073E029041D0
:103B80007F179235690093073E0190417F0A922981
:103B9000690093073E0290417F0A922469009307CF
:103BA0003E0290437F179230690093073E02904097
:103BB0007F169229690093073E0290417F16923545
:103BC000690093073E0D9229690093073E0C9224E9
:103BD000690093073E189230690093073E189229B6
:103BE000690093073E199235690093073E0B9229AD
:103BF000690093073E0D9224690093073E029043AB
:103C00007F0091405D179230690093073E1792291B
:103C1000690093073E0390457F0091415D16923500
:103C2000690093073E0390457F0091415D0A922908
:103C3000690093073E0190457F0091415D0A9224FF
:103C4000690093073E0290467F0091435D179230D2
:103C5000690093073E0290437F0091405D169229D0
:103C6000690093073E0290457F0091415D169235B1
:103C7000690093073E0290457F0091415D0A9229B9
:103C8000690093073E0390457F0091415D0A9224AD
:103C9000690093073E0290467F0091435D16923083
:103CA000690093073E0290437F0091405D16922980
:103CB000690093073E0290457F00913C5D17923565
:103CC000690093073E0C9229690093073E0B9224EA
:103CD000690093073E199230690093073E199229B3
:103CE000690093073E189235690093073E0C9229AC
:103CF000690093073E0D922B690093073E019047A0
:103D00007F00913E5D169237690093073E19922419
:103D1000690093073E0290487F0091405D16923003
:103D2000690093073E0290487F0091415D0A92240A
:103D3000690093073E0290487F0091435D0B9224F7
:103D4000690093073E0290487F0091405D169230D3
:103D5000690093073E0290487F0091435D169229C7
:103D6000690093073E02904A7F0091455D179235A6
:103D7000690093073E0290487F0091455D0A9229B1
:103D8000690093073E0C9229690093073E01904811
:103D90007F0091455D179235690093073E02904779
:103DA0007F00913E5D179224690093073E02904880
:103DB0007F0091405D159230690093073E03904863
:103DC0007F0091415D0A9224690093073E0290486A
:103DD0007F0091435D0A9224690093073E03904857
:103DE0007F0091405D169230690093073E01904834
:103DF0007F0091435D179229690093073E02904A24
:103E00007F0091445D179235690093073E01904809
:103E10007F0091445D0A9229690093073E0C922924
:103E2000690093073E0390487F0091445D169235E8
:103E3000690093073E0290477F00913E5D169224F1
:103E4000690093073E0290487F0091405D179230D1
:103E5000690093073E0290487F0091415D0A9224D9
:103E6000690093073E0290487F0091435D0A9224C7
:103E7000690093073E0290487F0091405D169230A2
:103E8000690093073E0290487F0091435D1792249A
:103E9000690093073E0290477F00913E5D16923085
:103EA000690093073E0190477F0091405D0B92248B
:103EB000690093073E0290477F0091415D0A92247A
:103EC000690093073E0290477F00913E5D17923054
:103ED000690093073E0290477F0091415D1592244F
:103EE000690093073E0390467F00913E5D16923035
:103EF000690093073E0390467F0091405D0A92243B
:103F0000690093073E0190467F0091415D0B92242A
:103F1000690093073E0190467F0091405D17923003
:103F2000690093073E0290437F0091405D17922401
:103F3000690093073E0190407F0091375D169230F3
:103F4000690093073E0390417F00913E5D0A9224F1
:103F5000690093073E0C9224690093073E02904348
:103F60007F0091405D169230690093073E02903CBD
:103F70007F0091345D179226690093073E029043BB
:103F80007F0091395D169232690093073E0290419D
:103F90007F0091395D0A9226690093073E029041A5
:103FA0007F0091395D0A9226690093073E02903C9A
:103FB0007F0091395D179232690093073E0290416C
:103FC0007F0091395D169226691832690093073E89
:103FD00002903C7F0091395D0A9226690093073E6A
:103FE00003903E7F00913B5D0A9226690093073E55
:103FF00002903C7F0091395D159232690093073E33
:104000000390397F0091355D169226690093073E33
:104010000390437F0091385D159232690093073E0B
:104020000290417F0091385D0A9226690093073E15
:104030000390417F0091385D0A9226690093073E04
:1040400002903C7F0091385D179232690093073EE1
:104050000190417F0091385D1692266919326900FE
:1040600093073E02903C7F0091385D0A92266900DA
:1040700093073E02903E7F00913A5D0A92266900C6
:1040800093073E02903C7F0091385D1692326900A2
:1040900093073E0290387F0091355D1792246900A6
:1040A00093073E02903C7F0091345D169230690088
:1040B00093073E0C9224690093073E0C92246900FA
:1040C00093073E199230690093073E1892246900C5
:1040D00093073E199230690093073E0C92246900C1
:1040E00093073E0B9224690093073E1992306900B2
:1040F00093073E189224690093073E199230690095
:1041000093073E0C9224690093073E0D92246900A8
:1041100093073E179230690093073E199224690075
:1041200093073E189230690093073E0C9224690071
:1041300093073E0C9234690093073E02903D7F0046
:1041400091375D2F9232690093073E02903E7F16B1
:104150009232690093073E03903E7F0A92326900D3
:1041600093073E02903E7F0A922D690093073E011D
:1041700090397F17922D690093073E0290397F177F
:104180009232690093073E01903E7F169232690099
:1041900093073E03903E7F0A9232690093073E02E6
:1041A000903E7F0A922D690093073E0390397F1558
:1041B000922D690093073E0290397F179232690071
:1041C00093073E02903E7F179232690093073E01AB
:1041D000903E7F0A9232690093073E02903E7F0A2A
:1041E000922D690093073E0290397F17922D690046
:1041F00093073E0290397F169232690093073E0280
:10420000903E7F169232690093073E02903E7F0BEC
:104210009232690093073E02903E7F0A922D690018
:1042200093073E0290397F16922D690093073E0254
:1042300090397F16FF060145009232690093073ED0
:1042400003903E7F0091395D169232690093073EDC
:104250000190457F0091415D0A9232690093073ECB
:104260000D922D690093073E02904A7F0091415DB7
:1042700017922D690093073E0190497F0091435D9D
:10428000169232690093073E03904A7F0091415D88
:10429000169232690093073E0390457F0091405D7E
:1042A0000A9232690093073E0190457F0091415D7B
:1042B0000A922D690093073E0290467F0091435D6C
:1042C00017922D690093073E0290437F0091405D55
:1042D000169232690093073E0290457F0091415D3E
:1042E000169232690093073E0290417F00913D5D36
:1042F0000A9232690093073E0390417F00913E5D30
:104300000A922D690093073E0290437F0091405D21
:1043100016922D690093073E0290407F00913D5D0B
:10432000169232690093073E0290417F00913E5DF4
:10433000179232690093073E02903E7F0091385DEC
:104340000A9232690093073E01903E7F0091395DE9
:104350000A922D690093073E0390407F00913D5DD6
:1043600016922D690093073E03903D7F0091395DC1
:10437000169232690093073E01903E7F0091395DAD
:10438000179232690093073E0290397F0091355DA4
:104390000A9232690093073E0D9231690093073EFD
:1043A00001903A7F0091375D16922D690093073E88
:1043B00003903D7F0091375D169232690093073E6E
:1043C00002903E7F0091395D169232690093073E5C
:1043D0000290397F0091355D0A9232690093073E61
:1043E0000D9231690093073E02903A7F0091375D4C
:1043F00016922D690093073E0290407F00913D5D2B
:10440000169232690093073E02903E7F0091395D1B
:10441000179232690093073E0290457F0091415DFB
:104420000A9232690093073E0C922D690093073E71
:1044300001904A7F0091415D17922D690093073EDC
:104440000290497F0091435D179232690093073EC5
:1044500002904A7F0091415D159232690093073EB8
:104460000390457F0091405D0A9232690093073EB8
:104470000290457F0091415D0A922D690093073EAD
:104480000390467F0091435D16922D690093073E8D
:104490000190437F0091405D179232690093073E7F
:1044A0000290457F0091415D179232690093073E6B
:1044B0000190417F00913D5D0A9232690093073E71
:1044C0000290417F00913E5D0A922D690093073E64
:1044D0000390437F0091405D16922D690093073E43
:1044E0000290407F00913D5D169232690093073E35
:1044F0000290417F00913E5D179232690093073E22
:1045000002903E7F0091385D0A9232690093073E27
:1045100002903E7F0091395D0A922D690093073E1B
:104520000290407F00913D5D16922D690093073EF9
:1045300002903D7F0091395D179232690093073EEA
:1045400002903E7F0091395D169232690093073EDA
:104550000190397F0091355D0B9232690093073EDF
:104560000C9231690093073E02903A7F0091375DCB
:1045700017922D690093073E02903D7F0091375DB1
:10458000159232690093073E03903E7F0091395D9A
:10459000169232690093073E0390397F0091355D92
:1045A0000A9232690093073E0C9231690093073EEC
:1045B00001903A7F0091375D17922D690093073E75
:1045C0000290407F00913D5D179232690093073E53
:1045D00001903E7F0091395D169232690093073E4B
:1045E0000D9232690093073E0C922E690093073EAC
:1045F00018922B690093073E199232690093073E87
:10460000189232690093073E0C9232690093073E7C
:104610000C9231690093073E0290407F0091395D12
:1046200016922D690093073E03903D7F0091395DFE
:10463000169232690093073E01903E7F0091395DEA
:10464000179232690093073E0C9232690093073E3D
:104650000D922E690093073E17922B690093073E37
:10466000199232690093073E189232690093073E0F
:104670000C9232690093073E0D922B690093073E1E
:104680000290407F00913C5D1792246917296900D0
:1046900093073E0290417F179235690093073E02CF
:1046A00090417F0A9229690093073E0290417F0A58
:1046B0009224690093073E0290437F16923069006E
:1046C00093073E0290407F179229690093073E02AC
:1046D00090417F169235690093073E0290417F0A10
:1046E0009229690093073E0290417F0A9224690053
:1046F00093073E0390437F169230690093073E0173
:1047000090407F179229690093073E0290417F17DE
:104710009235690093073E0C9229690093073E0B7E
:104720009224690093073E199230690093073E185E
:104730009229690093073E199235690093073E0C50
:104740009229690093073E0D9224690093073E0168
:1047500090437F169230690093073E1992296900B1
:1047600093073E0290457F169235690093073E02FB
:1047700090457F0A9229690093073E0290457F0A7F
:104780009224690093073E0290467F179230690099
:1047900093073E0290437F169229690093073E02D9
:1047A00090457F169235690093073E0390457F0A36
:1047B0009229690093073E0290457F0A922469007E
:1047C00093073E0190467F179230690093073E029F
:1047D00090437F14FF2F0000FF06015300C010001C
:1047E000C11000C20B00922D5A0093072001914581
:1047F0007F0A9307200E903D620091457F00922D25
:104800005A00930E200A07200591457F0A457F0034
:1048100092285A009307200A07200191407F0A92AC
:104820002C5A00930E2004903B6200913E7F0A4078
:104830007F009307200A922D5A0093072005914587
:104840007F0A9307200A922D5A00930E2001903D73
:10485000620091457F0A9307200491457F0A457FB6
:104860000092285A009307200A07200591477F0AE3
:10487000903E620091497F00922F5A00930E200AC9
:1048800007200191477F0A922D5A00930720049137
:10489000457F0A9307200A922D5A00930E20059017
:1048A0003D620091457F0A457F009307200A922CC4
:1048B0005A009307200191477F0A930720049145EE
:1048C0007F0A903D620091447F00922D5A00930E22
:1048D000200A07200591457F0A477F00922A5A0047
:1048E0009307200B91497F0A922D5A0093072004C9
:1048F000903B620091477F0A497F0A92285A0093B1
:1049000007200591477F0A9307200A922C5A0093AB
:104910000E2001903B620091467F0E477F0A4A7F3E
:104920000092265A009307200A07200F903E62004B
:10493000914A7F00922D5A00930E200A0720019180
:104940004A7F0A922D5A0093072004914A7F0A4514
:104950007F009307200A922D5A00930E2005904065
:10496000620091437F0A457F009307200A92265AEE
:104970000093072001914A7F0A9307200E903E6220
:1049800000914A7F00922D5A00930E200A072005BD
:10499000914A7F0A4A7F00922D5A009307200A0706
:1049A0002001914C7F0A922D5A00930E20049040D2
:1049B0006200914E7F0A4C7F009307200A92265A8C
:1049C0000093072005914A7F0A9307200A922D5AE7
:1049D00000930E2001903E6200914A7F0A930720C7
:1049E0000491497F0A477F00922C5A009307200ABE
:1049F00007200F903E620091477F00922F5A00934C
:104A00000E200A07200191457F0A92255A0093073C
:104A1000200491447F0A457F0A922C5A0093072074
:104A200005903E620091447F0A457F0A92285A0011
:104A30009307200191447F0A9307200E903E620065
:104A400091427F00922F5A00930E200F91447F0ACB
:104A5000457F00922D5A009307200A07200B922DC4
:104A60005A00930E2004903D620091457F0A457FD5
:104A7000009307200A92285A009307200591457F4A
:104A80000A407F009307200A922C5A00930E2001BF
:104A9000903B6200913E7F0A9307200491407F0A79
:104AA000457F00922D5A009307200A07200F903D62
:104AB000620091457F00922D5A00930E200A072034
:104AC0000191457F0A92285A009307200491457F5F
:104AD0000A477F009307200A922F5A00930E200561
:104AE000903E620091497F0A477F009307200A9217
:104AF0002D5A009307200191457F0A9307200E90BD
:104B00003D620091457F00922D5A00930E200A07C6
:104B1000200591457F0A477F00922C5A0093072079
:104B20000A07200191457F0A922D5A00930E200416
:104B3000903D620091447F0A457F009307200A92CE
:104B40002A5A009307200591477F0A497F0A922D30
:104B50005A0093072001903B620091477F0E497FE6
:104B60000A477F0092285A009307200A07200F90D7
:104B70003B620091467F00922C5A00930E200B91CD
:104B8000477F0A92245A0093072004914C7F0A938E
:104B900007200A92305A00930E200590406200913F
:104BA0004C7F0A4C7F009307200A922B5A009307F0
:104BB0002001914C7F0A93072004914A7F0A90407C
:104BC000620091487F0092305A00930E200A07201D
:104BD00005914A7F0A4C7F0092245A009307200ACD
:104BE00007200B92305A00930E20049040620091EF
:104BF0004C7F0A4C7F009307200A922B5A009307A0
:104C00002005914C7F0A4A7F009307200A92305A70
:104C100000930E20019040620091487F0A93072084
:104C200004914A7F0A4C7F0092285A19903E6200F4
:104C300091407F00922C5A009307200A922C5A0030
:104C400093072001903E620091427F0A922C5A0005
:104C500093072004903E620091447F14922C5A00E6
:104C600093072005903E620091407F0A903E6200CB
:104C700091497F00922C5A009307200A922C5A00E7
:104C800093072001903E620091477F31903D620082
:104C900091457F00922D5A00930E200B91517F0A6F
:104CA0009307201DFF06014515FF2F000002060097
:104CB00000FB00FF0000F405030C05040C05030CC9
:104CC00005040C05050000FF00FF0002090000F1CB
:104CD0000400F900FF00010A0000E20201050101E1
:104CE0000301010102050000FF0000E702030C04BC
:104CF000050000FF0000F100085A0204030204044A
:104D000002040502040602050000FF00010100077D
:104D1000900000E208050000FF0002080107C8013A
:104D200006000100E700FF0001000007A00000EC02
:104D30000100FE00010100FF0001030000E2030189
:104D40000604010903050000FF0002010107C80174
:104D500006000100EC00FF0002040000F10400F96D
:104D600000FF0002010000F100FF0000ED0001065D
:104D700002010100FF0000EC000102010700020730
:104D8000FF00010300FF0002080007640100140592
:104D900000F700FF0002090000F100FF000204001C
:104DA00000F800085003084E03085402084C02089B
:104DB0005802084A01085C0000FC03086003085A16
:104DC00003086003085A03086003085A010500003D
:104DD000FF0002040000FB00083E01030201030281
:104DE00001030201030201030201040A010302019B
:104DF0000302010302010302010302010402010391
:104E00000201030201030201030201030201040A79
:104E10000103020103020103020103020103020173
:104E2000040501030201030201030201030201035D
:104E3000020104050103020103020103020103024E
:104E4000010302010405010302010302010302013F
:104E5000030201030201050000FF000203000856DF
:104E600002040A0204080204060204040204020006
:104E700008420203050204020203050203050204BC
:104E8000020203050000F8040305040405040305F9
:104E900004040504030504040504030501050000DA
:104EA000FF0002040000FB000834010302010304B8
:104EB00001030601040A01030201030401030601C0
:104EC000040A0103020103040103060104050103AE
:104ED00002010304010306020302020304020306A3
:104EE0000304050303020303040303060404050487
:104EF000030204030404030601050000FF00070089
:104F00000402040007FF000990000A3C0000FB01B6
:104F10000850030305030405030305030405030305
:104F20000503040503030503040503030503040542
:104F300003030503040503030503050000FF000741
:104F4000000402040007FF000990000A3C0000FB77
:104F500001085303030503040503030503040503C4
:104F60000305030405030305030405030305030404
:104F70000503030503040503030503050000FF0003
:104F800007000402040007FF000990000A3C00002B
:104F9000FB01085603030503040503030503040589
:104FA00003030503040503030503040503030503C5
:104FB000040503030503040503030503050000FFBF
:104FC0000007000402040007FF000990000A3C00EB
:104FD00000FB01085903030503040503030503044B
:104FE0000503030503040503030503040503030583
:104FF000030405030305030405030305030500007B
:10500000FF0002020106000100E000FF00020101B2
:1050100006000100E000FF0002080106000100E0B8
:1050200000FF0002050106000100E000FF00020988
:105030000106000100E000FF000000AC4C00000091
:1050400000000000B44C00000000000000C84C004C
:10505000000000000000CA4C00000000010000D564
:105060004C00000000000000E94C000000000000BF
:1050700000F44C000000000100000B4D0000000097
:10508000000000194D00000000010000274D000045
:105090000000010000384D00000000000000494DF4
:1050A00000000000000000574D000000000000005C
:1050B000624D000000000100006A4D000000000188
:1050C0000000754D00000000000000864D0000004B
:1050D00000000000944D000000000000009C4D0006
:1050E000000000000000D14D000000000000005A48
:1050F0004E00000000000000A14E00000000000073
:1051000000FD4E000000000000003E4F00000000C7
:105110000000007F4F00000000000000C04F0000B2
:1051200000000000000150000000000000000C50D2
:105130000000000000000017500000000000000008
:105140002250000000000000002D50000000000070
:10515000000000000000000000000000000000004F
:10516000000000000000000000000000000000003F
:10517000000000000000000000000000000000002F
:1051800000FF00000000FFFFFF000000FFFFFF0026
:10519000000000FF0000000000FF00000000000011
:1051A0000000000000FF000000000000000000FF01
:1051B000FF00FFFF00FFFF00FFFF00FF0000FF00F8
:1051C00000000000000000000000000000000000DF
:1051D00000000000000000000000000000000000CF
:1051E000000000000000FF00FF0000FFFFFFFFFFC6
:1051F0000000FF00FF000000FF00FF0000FFFFFFB6
:10520000FFFF0000FF00FF000000000000000000A2
:10521000FF0000000000FFFFFF0000FF0000000093
:105220000000FFFF000000000000FF0000FFFFFF84
:105230000000000000FF000000000000000000FF70
:10524000FF0000FF00FFFF0000FF00000000FF0064
:10525000000000FF00000000FF00000000FF000051
:10526000FFFF00FF0000FFFF000000000000000043
:10527000FF00000000FF00FF000000FF00FF000033
:105280000000FF00000000FF00FF00FF00FF000023
:10529000FF000000FFFF00FF000000000000000012
:1052A000FFFF00000000FFFF00000000FF00000003
:1052B00000000000000000000000000000000000EE
:1052C00000000000000000000000000000000000DE
:1052D00000FF00000000FF0000000000FF000000D1
:1052E0000000FF0000000000FF0000000000FF00C1
:1052F0000000000000FF00000000000000000000AF
:10530000FF000000000000FF0000000000FF0000A0
:10531000000000FF0000000000FF0000000000FF90
:1053200000000000FF00000000000000000000007E
:10533000000000000000FF00FF000000FFFFFF0072
:1053400000FFFFFFFFFF0000FFFFFF000000FF0066
:10535000FF0000000000000000000000000000004E
:1053600000000000000000FF0000000000FF00003F
:1053700000FFFFFFFFFF000000FF0000000000FF34
:10538000000000000000000000000000000000001D
:10539000000000000000000000000000000000000D
:1053A0000000000000000000000000000000FFFFFF
:1053B00000000000FFFF00000000FF0000000000F0
:1053C00000000000000000000000000000000000DD
:1053D00000FFFFFFFFFF00000000000000000000D2
:1053E00000000000000000000000000000000000BD
:1053F00000000000000000000000000000000000AD
:105400000000000000000000000000000000FFFF9E
:1054100000000000FFFF000000000000000000008E
:10542000000000000000000000FF00000000FF007E
:10543000000000FF00000000FF00000000FF00006F
:10544000000000000000000000000000000000005C
:105450002F2F2F00002F0000002F002F00002F2FD4
:10546000002F002F002F002F2F00002F002F0000F3
:10547000002F00002F2F2F00000000000000000070
:10548000002F000000002F2F00000000002F000060
:105490000000002F00000000002F00000000002F7F
:1054A000000000002F2F2F0000000000000000006F
:1054B0002F2F2F00002F0000002F00000000002FD2
:1054C0000000002F2F0000002F000000002F000020
:1054D0000000002F2F2F2F2F0000000000000000E1
:1054E0002F2F2F00002F0000002F00000000002FA2
:1054F00000002F2F2F0000000000002F002F0000C1
:10550000002F00002F2F2F000000000000000000DF
:1055100000002F000000002F2F0000002F002F00A0
:10552000002F00002F00002F2F2F2F2F0000000032
:105530002F00000000002F00000000000000002FDE
:105540002F2F2F2F002F00000000002F0000000041
:10555000002F2F2F2F0000000000002F002F000031
:10556000002F00002F2F2F0000000000000000007F
:10557000002F2F0000002F000000002F000000006F
:10558000002F2F2F2F00002F0000002F002F0000D2
:10559000002F00002F2F2F00000000000000002F20
:1055A0002F2F2F2F00000000002F000000002F00E1
:1055B0000000002F000000002F00000000002F005E
:1055C000000000002F0000000000000000000000AC
:1055D0002F2F2F00002F0000002F002F0000002F82
:1055E00000002F2F2F00002F0000002F002F0000A1
:1055F000002F00002F2F2F000000000000000000EF
:105600002F2F2F00002F0000002F002F0000002F51
:1056100000002F2F2F2F00000000002F000000009F
:105620002F0000002F2F00000000000000000000ED
:10563000000000000000000000000000FFFF00006C
:105640000000FFFF00000000000000000000FFFF5E
:1056500000000000FFFF000000000000000000004C
:10566000000000000000000000000000FFFF00003C
:105670000000FFFF00000000000000000000FFFF2E
:1056800000000000FFFF00000000FF00000000001D
:10569000000000FF00000000FF00000000FF00000D
:1056A0000000FF000000000000FF000000000000FC
:1056B000FF000000000000FF0000000000000000EC
:1056C0000000000000000000000000FFFFFFFFFFDF
:1056D00000000000000000000000000000FFFFFFCD
:1056E000FFFF0000000000000000000000000000BC
:1056F000FF000000000000FF000000000000FF00AD
:105700000000000000FF00000000FF00000000FF9C
:1057100000000000FF00000000000000000000008A
:10572000FFFFFF0000FF000000FF0000000000FF7F
:10573000000000FFFF00000000FF0000000000006C
:105740000000000000FF000000000000000000005A
:10575000FFFFFF0000FF000000FF00FF00FFFFFF52
:1057600000FF00FF00FF00FF00FFFFFF00FF000041
:1057700000000000FFFFFF0000000000000000002C
:10578000FFFFFF0000FF000000FF00FF000000FF20
:1057900000FF000000FF00FFFFFFFFFF00FF000011
:1057A00000FF00FF000000FF00000000000000FFFD
:1057B000FFFFFF0000FF000000FF00FF000000FFF0
:1057C00000FFFFFFFF0000FF000000FF00FF0000E0
:1057D00000FF00FFFFFFFF000000000000000000CE
:1057E000FFFFFF0000FF000000FF00FF00000000BF
:1057F00000FF0000000000FF0000000000FF0000AC
:1058000000FF0000FFFFFF0000000000000000FF9D
:10581000FFFFFF0000FF000000FF00FF000000FF8F
:1058200000FF000000FF00FF000000FF00FF00007D
:1058300000FF00FFFFFFFF0000000000000000FF6E
:10584000FFFFFFFF00FF0000000000FF000000005E
:1058500000FFFFFFFF0000FF0000000000FF00004E
:10586000000000FFFFFFFFFF00000000000000FF3E
:10587000FFFFFFFF00FF0000000000FF000000002E
:1058800000FFFFFFFF0000FF0000000000FF00001E
:10589000000000FF00000000000000000000000009
:1058A000FFFFFF0000FF000000FF00FF00000000FE
:1058B00000FF00FFFFFF00FF000000FF00FF0000EF
:1058C00000FF0000FFFFFFFF00000000000000FFDE
:1058D000000000FF00FF000000FF00FF000000FFCD
:1058E00000FFFFFFFFFF00FF000000FF00FF0000C0
:1058F00000FF00FF000000FF0000000000000000AB
:10590000FFFFFF00000000FF0000000000FF00009C
:10591000000000FF0000000000FF0000000000FF8A
:1059200000000000FFFFFF0000000000000000007A
:10593000000000FF0000000000FF0000000000FF6A
:105940000000000000FF00FF000000FF00FF00005B
:1059500000FF0000FFFFFF0000000000000000FF4C
:10596000000000FF00FF0000FF0000FF00FF00003C
:1059700000FFFF00000000FF00FF000000FF00002C
:10598000FF0000FF000000FF00000000000000FF1B
:105990000000000000FF0000000000FF0000000009
:1059A00000FF0000000000FF0000000000FF0000FA
:1059B000000000FFFFFFFFFF00000000000000FFED
:1059C000000000FF00FFFF00FFFF00FF00FF00FFDF
:1059D00000FF000000FF00FF000000FF00FF0000CC
:1059E00000FF00FF000000FF00000000000000FFBB
:1059F000000000FF00FFFF0000FF00FF00FF00FFAE
:105A000000FF0000FFFF00FF000000FF00FF00009C
:105A100000FF00FF000000FF000000000000000089
:105A2000FFFFFF0000FF000000FF00FF000000FF7D
:105A300000FF000000FF00FF000000FF00FF00006B
:105A400000FF0000FFFFFF0000000000000000FF5B
:105A5000FFFFFF0000FF000000FF00FF000000FF4D
:105A600000FFFFFFFF0000FF0000000000FF00003C
:105A7000000000FF00000000000000000000000027
:105A8000FFFFFF0000FF000000FF00FF000000FF1D
:105A900000FF000000FF00FF00FF00FF00FF00000C
:105AA000FF000000FFFF00FF00000000000000FFFB
:105AB000FFFFFF0000FF000000FF00FF000000FFED
:105AC00000FFFFFFFF0000FF0000FF0000FF0000DD
:105AD00000FF00FF000000FF0000000000000000C9
