:100000000C94AA580C9454590C9454590C94545967
:100010000C9454590C9454590C9454590C945459AC
:100020000C9454590C9454590C9454590C9454599C
:100030000C9454590C943F700C9454590C9454598A
:100040000C9454590C9454590C9454590C9454597C
:100050000C9454590C9454590C9454590C9454596C
:100060000C9454590C9454590C9454590C9454595C
:100070000000000000000000000000000000000080
:100080000000000000000000000000000000000070
:100090000000000000000000000000000000000060
:1000A0000000000000000000000000000000000050
:1000B0000000000000000000000000000000000040
:1000C00000000049000000495252000052525C2DCD
:1000D0000000000000000000000000000000000020
:1000E0000040000000494A52004952525B1C5253E2
:1000F0001C25241B2425251B0A0A2D1C12120A0A62
:100100000000000000000000404949494949525B95
:100110005B5B525B1C1C1312241C12090909120997
:100120000909090A0A0A0A0A0A13120A0A12130A10
:100130000000000000009252525252521312130952
:10014000001C0A1212401B65090A0009241B120038
:1001500000251C1C010025241C1C0024252424240B
:100160000000000000005249494000001B135249A2
:100170004900641C1C5B4A481C651C2552491C1C18
:10018000652464491C1C652564491C1C6D2E5C4952
:100190000000000000000000000000490000000016
:1001A000535200000053522500004A5225250000FA
:1001B0005B251300005B53000A1C095B1C657F373D
:1001C0004052522E2E1C525C2E251B1324251C1C23
:1001D00012002525120000121B0000132E37001BF1
:1001E00037372E2E37372E2E2E2E2E2E6E6E6E1C5D
:1001F0001313120009131200001213130012251C0E
:1002000013132E371C131313361C131B1B1B251320
:100210001C1C1B1B1B1C1C1C1C1C1C1C1C1C1C132A
:100220001312121313001313131C000913131C01D0
:100230000037131C13002E2E1C1C001C772E2500CB
:10024000137F251C010A37241C1C0A2E25250900B2
:10025000132E242525252E252525252525252D2E3E
:10026000251B2E2E251C1325251C1C1C1C011C1CAB
:100270001300011C0A000165775C016E7F6E521B42
:1002800025256D1C524925251C1353001C1C1C528E
:100290004A001B135B5B000009525C0000005B5CC2
:1002A000000000001B000000000000000000000033
:1002B000135B7F776E6E136577766E6E1B65777650
:1002C00076761B5BBF76B67609136DBFB7B6001B9B
:1002D000125C76BF0000121B125B00000000090ACE
:1002E0006E6E6E77241C6E6E77251C1C6E776E1CEE
:1002F0001C1C76761C1C2425B765646D6D1B766D01
:100300006D5B09125B5C5B125B641213131B1212B0
:100310001C1C1C1C1C241C1C242525242425251BDA
:1003200000002513000064BF00096EBFBF6D6EBFE3
:100330006D5B12135B12131209000901000000002B
:100340002E1C0900096E010009767F7F12777F7FDE
:100350006412BF775B121B095B121B0900001B09AB
:10036000000000000000000000000000000000008D
:100370007F7F5313130064121B0100001B12000047
:10038000000000000000000000000000000000006D
:10039000000000000000000000000000000000005D
:1003A0000000000000002600000026002F000000D2
:1003B0002F00370000003700FF000000FF00BF00E3
:1003C0000000BF00370000370000002626000000B4
:1003D000000000000000262626262600000000005F
:1003E0002F000000003700000000FF00000000BFE9
:1003F0000000000037000000000026262626260008
:100400000000000000002626262626002F000000FF
:100410000000370000000000FFFFFFFF0000BF00EA
:1004200000000000370000000000262626262600D7
:100430000000000000002626262600002F000000F5
:100440002F00370000003700FFFFFFFF0000BF0054
:100450000000BF00370000003700262626260000D7
:10046000000000000000000026262600002F0000EB
:100470002F00370000003700FF000000FF00BF0022
:100480000000BF00370000370000262626000000CD
:100490000000000000002600000026002F000000E1
:1004A0002F000037003700000000FF00000000BFF1
:1004B00000BF0000370000003700260000002600C3
:1004C000000000000000000000000000000000002C
:1004D000000000000000000000000000000000001C
:1004E0000000009B000000529BA400005B9B6D7706
:1004F00000000000000000000000000000000000FC
:10050000005B000000E4F6FF099BEDF6FFBFA4AD21
:10051000BFBFBFBF767F7FB7B7BF7F766EB7B7BFAE
:1005200000000000000000005BB6F6F6F6FFFFFFDB
:10053000FFBFFFFFFFBFBFAEFFFFFFB7AD65FFFF10
:10054000B7B6AD65FFFFBFB7AE6EFFFFBFB7B7650C
:10055000000000000000F6F6EDEDADA4B66D6D5C98
:10056000526E6565655265765C5C52536E246552C9
:10057000526E25255B52772D2525526E6E2D252531
:10058000000000000000A49B9B4900006564A49B40
:1005900092006D2525649349656E652E9B52242536
:1005A0006D25655225246D2D655225256E2E6452CC
:1005B00000000000000000000000004A00000000F1
:1005C0005B9B0000005B5B2D0000525B2E2E000148
:1005D0005B2D1C01005C5B014A654A5B1C6E7F77EA
:1005E000495B9B77776D5B65776E65656D2D25251E
:1005F0005C522E25130949641C09095C7F7F091C84
:100600007F7F777F777F77777F7F7776777F7F6E44
:10061000656E6EA4B6FF655BA4B7BFFF526DBFBF2A
:10062000BFFF7FBFBFBFBFFFBFBFB7BFFFFF7FB76A
:10063000BFBFFFFF6EB7BFBFFFFF77BFBFBFFFFFEB
:10064000FFFFBFBFB75BFFFFBFBFA464FFFFBFAD2E
:10065000A47FFFFFBFA4BF7FFFBFADBFBFBFFFB67B
:10066000BFBFBF77F7BFBFBF7777FFBFBFBF6452C2
:100670006D7F6E2E2D2D7F766E6E6E2E7777777650
:100680002E1C7F776E251C25776525251C096E6E2F
:100690001C0949255B494A6E7F645377BF775B5CD1
:1006A000256E6E255B4A25651C1B5B002524245B9B
:1006B00053001C1B5B5C00000A5B64000000646468
:1006C000000000005C0000000000000000000000CE
:1006D0005B5C7FBF77765C6D7FB777775C6D7FBF44
:1006E00077775C64BFBFBFBF0A5C6EBFBFBF0065EA
:1006F000646DBFBF00005B6D646D00000000125BA5
:100700007777777F6E6E77777F766D7677BF776D49
:100710006E76BF7F6D6E767FBF7676BFBF76BFBFCA
:10072000BFB664ADADB6B6ADBFFF646DADB6AD647A
:1007300077BFBFBFFFFF77BFBFBFFFFF7FBFBFBF99
:10074000FFF6BFB7ADF6FFFFA4ADFFFFFFFFFFFF52
:10075000FFFFFFFFFFFFFFF6A4005B520000000059
:10076000BFBFAD5B64BFB6ADADBFFFBFFFFFFFFF57
:10077000BF64FFFFBFB6765BFFBFBF5B0000FF5CDF
:100780000000000000000000000000000000000069
:10079000BFBF645C5C006E5C654900006D5B00007F
:1007A0000000000000000000000000000000000049
:1007B0000000000000000000000000000000000039
:1007C0000600040000000100020003000400050010
:1007D00006000700080009000A000B000C000D00CD
:1007E0000E000F0010000000110012001300140092
:1007F000150016000600030000001700180019007D
:100800001A001B001C001D001E001F0020002100FC
:100810002200230024002500260000000000000024
:1008200000000000000000000000000000000000C8
:1008300000000000000000000000010101020304AC
:10084000050607090A0C0E101112141516171718B1
:10085000171614100A05F9F3EDE7E5E2E1E0E0E12F
:10086000E1E3E4E6E8EAECEEF0F2F4F6F8FBFD0191
:100870000406090B0E101215181A1D1F2224272911
:100880002B2D2D2D2D2A241E0F01F6E3DDD6D0D0E1
:10089000CFD0D1D3D6D9DDE1E7ECF2F7FE03080ED5
:1008A0000D110C080B080B0D101215171A1C1D1E2C
:1008B00019181105060000FFFFFDF6F6EEEEEEE951
:1008C000E9E6DADDDBDBE2E6EBF2F9010810181FFE
:1008D000282D3236302C2518100AFDF3F4EEF0F1F5
:1008E000F1ECEDE3DBDEDCDFE7E9EDF3EAF2EFEC80
:1008F000F5F7FF0710181F262C3136383839302A03
:10090000231C09FBF3DAD3CCC4C9C9C8CDC6C7CDF3
:10091000CFD8E1E9F4FD0C16212C353D424A47477A
:100920004C3E3E352E210C01ECE5CFCCC4BFBCB50E
:10093000B9BBC0C8CED4DEDDE8EEF0FC030D1A244E
:100940002F373F464B4C5146443D302F29170EFF61
:10095000E4D4C0B8ACAEAFB5BAC4CBD3DCE4EDF7E9
:10096000000D15202832333737262C21161B14157D
:10097000100B03FFF9F0F3E9EBE3D9E0DEE4ECF16F
:10098000F5FCF9FF02050704080B05070C040A0A29
:100990000A0A060904070B0B0B0C0602FBFBF7F017
:1009A000F4E9E5EBEBF1F8FD03050A0B060C0C0787
:1009B0000A0804FFFCF9F8F9FDFAF9FDFD02090C3B
:1009C000111115130E15110F1104FEFDF2EDECEDD2
:1009D000EAE1E3E2DBE0E3E0E7EBEFF6FC040A1236
:1009E0001A1F252A2A2F2B2E2F2B2C22151506FDF8
:1009F000FAEAE4DAD7D1CED3D1D0D6D6D9DDDDE547
:100A0000EAF2FBFE060F131D242B303539383B3B31
:100A10003032281F190CFDF4E5D4D0CAC8C9CAC6A3
:100A2000CBCED3DBE3EAF4FC040D161D24282C2ADC
:100A30002B27252825201A0F0602F7F2EDEAE5E517
:100A4000E0D8DCDCDFE7EBEFF4FAFAFF070C15186F
:100A50001B1B15121517151912090C07070500FCA9
:100A6000FAF0E9ECECECEEEFE4E3E6E6EDF3F900A6
:100A700005080C110D12171618180A0905FF02FEB9
:100A80000103030500FF01FF03FEFF02040608083F
:100A9000FDFCFAF1F5F2F0F6F6F7F5F1EAECECEE22
:100AA000EFEDF2F6FC02070D12171B1F2125202087
:100AB0001E191E201D1B15FEF3EFEAE8E5E3DEDD3F
:100AC000DDDDD8D9D9D9DFE3EBF3F902070B121733
:100AD0001D21272C3030302E1E1A1B15180E08FE33
:100AE000E4DCD9D2D0D7DADBE0E0DEE4E9EFF6FDF2
:100AF000030B12181F22201F211D1A1F1C1E1A096A
:100B00000701F6F6F4EAE7E0D7DAD9DDE1E7EDF43C
:100B1000F7FDFFFF070D131C212426201A151713BC
:100B2000101214100705FDE9E2E2E0E3E8EBECE562
:100B3000E3E3E4E9EFF6FB02080D1016130E1113C0
:100B400013151819190A030500FD0506050600F11D
:100B5000F3F4F7FBFE0102F6F7F5F1F4F6F7F2F421
:100B6000F7F7F9FBFCFF03FBF8FDF5F7FCFDFE04CE
:100B7000090F151B1D1C110B0F11181E22211D061C
:100B8000FCF6E7E1E4E7E9EDEFE4E4DCD0D4D7DB21
:100B9000E5F0F801080B0E161C24292F322E282907
:100BA000221716160A0901F6F0E5E3D5D6D2CFD8FA
:100BB000DBE3E8EFEDEDF5FC030D151D1F1F252808
:100BC000292D231E1B09040602040606FEEEDECABA
:100BD000C6C3C3CAD2DAE4EDF5FE01020B121C272C
:100BE0003239403D3232291A181B16180D05F5E22C
:100BF000DCD0D0CED0D2CBCCD0D3D7DEE8F0FA0444
:100C00000E171C1F21181A19151B1E212320202125
:100C1000180E07FDF6F4F7F7FAFCF6F6F6F0E8E83A
:100C2000E3E5EAEFF3F7F4F1F4EEF3F8FB000A0F73
:100C300012130E04FFFDFE01060A0E0C0B0E0F0B25
:100C40001014181B1D19120BFFFAF0EEEBE5EAED7C
:100C5000F1F2EEEEE6DEDCDEE1E8F1F90109101377
:100C6000181C1D1B1F1F21212016100701F9F0F071
:100C7000F0ECEFF1F1F1EBE6E7E9EEF4FAFF040452
:100C800004090D0E1016191D1D1C120801FCFAFB9B
:100C9000FEFE010302FBF3EEE2D9D8D9DCE2EAF072
:100CA000F6FC0102080E141A20262A2B26201C19F5
:100CB0001611070404FFFEFDFBF5E9E2DFD8D7D9E2
:100CC000DDE1E6E9EDF4FAFF050C101315120B084F
:100CD000080A0C0F1212141615110D07FCFAFAFC73
:100CE000FE000100FBF1EEEAEBEDF2F6FAFCFEF895
:100CF000F5F5F7FAFE0103090D101112110A01FFB3
:100D0000FCF9FAFCFE01030306080A0C0B080706AF
:100D100000F8F7F7F7F8FBFAF8F9FBFDFEFEFEF82E
:100D2000F4F6F8FBFE0205060406070A0C0F111183
:100D30000F0B01FBF5F1EFF0F1F1F5F9FD00030503
:100D40000400FF00010306090B0B090809090A0842
:100D5000060402FBF7F7F6F7F8FAF9FAF8F8F8F9EB
:100D6000F9F8F6F3F3F5F7FAFD000305070B0E119A
:100D700014161615110C0A0604030201FFFEFDFDF0
:100D8000FDFCFAF7F1EDEBEBECEEF2F5F8FBFF0210
:100D90000508090A0A0804040404040505050404F6
:100DA0000506070707060402010000FEFDFBFAFA2C
:100DB000F9F9FAFBFCFCFBF9F9F9F9FAFCFEFF0181
:100DC00003050607080706040200000000010101F0
:100DD00002020202020100FFFEFDFCFDFDFDFEFE1F
:100DE000FFFF000000010102010100FFFFFFFEFF05
:100DF000FF000102030304040301FFFDFBFBFBFBF7
:100E0000FBFBFCFDFF0001020304030303030303D8
:100E100003030404030201010100FFFEFCFCFCFDCE
:100E2000FDFDFDFCFBFCFDFEFF0001010100FFFEDE
:100E3000FF0000FF000103050608080602FFFEFF91
:100E40000000FFFE00020303020100FEFDFCFBFBAD
:100E5000F9F7F8FBFDFDFDFE010406070602FFFCA5
:100E6000FE010403FFF9F8FB000406080A0B0C0D51
:100E70000F0C01F4EEF0F6FE040705FEFDFBF8F49E
:100E8000EEEEF1F3F7FC01040405080604070B0F6E
:100E90000F0C0D0A04030502FFFFFCFAFDFF00FA28
:100EA000F6EFEFF4F4EEE9EEF7020C16180C060F6D
:100EB0001A1D0F00FAF5EDF1FD0504FE07131B1EC8
:100EC0001506E8CCCCD8EAF6F9EDDFDFE9FA080F31
:100ED000161D242425303117F9F4F3F8061B2C25B0
:100EE00007F0EEEDDBD3DDEDF8F4E9DFDBD2E1F87E
:100EF0000A1012141913121F2B2106F1E2EF092513
:100F0000301FFBEAEFECE9F5F5E0D6E1F60B1C3417
:100F10004B4110D9E0FB06F4F4FF01EEE1F2FCF2E4
:100F2000F1091911080D11FDEAE0E1F0F5E8D3DD52
:100F3000EBFE0E1C23334C625A2D07DFDDD2D6E9BF
:100F4000F5021B3628F4D6DDCDB5BACAE0F6102678
:100F50001CEFC6DD041F27343D3A25214867611880
:100F6000D3BDB7CDEBF9E6EAF0F1D6CCBDB1C4D82C
:100F7000EF020C102855775F17EEF2FDF6052231CF
:100F80002B0B03FFF40C2B230FF1D6B8AFC6E2F7FF
:100F9000F0CEB0C5DAEBF90D161C345464470BFDE6
:100FA000010E0EF4ED061E312E3129EFCAB9D9F229
:100FB000E7C1B6D8FF03DBC9E70210192D34331897
:100FC0001F40544004E2E9EEE8D9D8F51115E6BB1C
:100FD000ABC9DFF2FE14293015F508303A1DEDFBE0
:100FE000FEF5F91021302004FBE4E3EB182B16CEBC
:100FF000ACC5E40006FED5D8E9FA040F1D29485C0B
:101000003EF7C7DCF70A141907F403F5E6062B3799
:10101000EFA4B8DDFDF7DBD4F70B07E1E90B1C22E9
:101020002B3D453E273D544B00E7D9D4CCB8CFE902
:101030000307DB9EA5C5DCE3EFFD0E1C29190000AC
:10104000294142130B120C1918203D4F32EED6E7FE
:10105000F0F3F2EBC3CAD6EDF1F4CDCFE0EDF6FB41
:1010600003132B3C2DFCF1EBFA02061C343C14E577
:10107000EAFF23374312D0CFD3D2CFD6E80108F707
:10108000DAEEFD0F151F2B382F252B2AF9FB04084C
:10109000CEC2D7F30D14EEB3C4D9ECF0FB0D1D1185
:1010A00001EEF1FD10242F39210400F9060A1E3645
:1010B0004723D2D1E5EFF5FBE4DCEBF6FEF7DBE30B
:1010C000F300050710212F16E8E4F9FEEEF2000DFB
:1010D0001C251CF6E3EE091A282005DDC6CDD9E44F
:1010E000F0020E13FDF403112026313D483E230F7C
:1010F000EAE9FD02F5E2DAEAF8E8CBBDC5D3DCE7C0
:10110000F1FE00F7F1F8FE020D1C27333E381805FA
:1011100009172632392E0FDFCDE0F2F4E5E3EDF3C7
:10112000F4F5E4E0EDF601080D0B06F2E9F3FAFE42
:10113000FBF8031119140C0E130B0A18201703F8EF
:10114000E3D5DCE5F0F9000604F6F4000D171E26E1
:101150002923120800F8F9F3F6FDFFF7F2EBE4DBC0
:10116000DEE6EDF4FBFCF5F0F0F7FE01050F191FCC
:101170002226291B090E1A1E140A02F6EFEBEDF4C3
:10118000F0ECF2F8FCFFF4ECF4FB01080B07FCEFC9
:10119000EBEFF3F9FFFEFE050905050B101618101D
:1011A0000A05F7F5FCF8EAE8F0F6FC030A07000484
:1011B0000E151C2124211C0EF8F5F7F2F6FAFE029A
:1011C000F4E0E3E3DBE0E7E7E5E4E4EAF0F6FD047E
:1011D0000A0F161F272C31382E171920160F0E0153
:1011E000F4F9F7F0F3F0EEF2F8F9EFEAF0F5F7F7CB
:1011F000F7EDE0DEE3E7EDF3FC02FF030D0A0B146D
:10120000191D25281E1005F9F90104F9EEF5FCFD5C
:10121000060C03020C0F0F130F0B1412F9F0F3EF6F
:10122000F1F9FEF9F2F1EBE1DDE0E3E7EAE8E5E709
:10123000EFF700070E15181C273034383D3317041C
:10124000FEFC0004FEF5FA00F5EEF3F7FB00F6F005
:10125000F8F9FA0300EBE1E2E2E7F0F6F8FB000050
:10126000FF01060B0F110E08080AFEF8FF01030725
:1012700005FF02090B10110A0C13181D1D1611137E
:101280000AF8F4F7F4F5F4EDECEDECE7DDD7D3D1A3
:10129000D5DBE3EAEFF6FD030A10161C21262B2D01
:1012A0002E2E2B1E120F09050701FD0001FAF6F67E
:1012B000F7F9F7F2F0EEEAEAE9E5E7EAEAEDF2F546
:1012C000F9FD0102010307090C10141310100C069C
:1012D000050606050608050203050401FEFEFEFFDD
:1012E0000102020503FBFAFCFCFCFBF9FAF9F9F92F
:1012F000F8F7F6F6F5F5F5F7FAFCFE000204070834
:101300000A0C0E0E0D0C080707040203030200006E
:10131000030301FFFE00FEFCFEFFFFFEF9F7F7F8F6
:10132000F8F9F9FAFCFDFEFEFEFEFFFFFFFF0001EB
:10133000020404020304020404060707030305056C
:10134000030406050402020502FDFDFDFEFCF9FA98
:10135000FCFCFBF9F6F3F8F6F5F8F8F9FBFDFE00F6
:101360000204050607080A0D0E0E0C0A0806050100
:10137000020402FE0101FD000401FAF6F6F8FAF596
:10138000F5F6F7F8F8F8FAFCFF0101FE0002000498
:1013900006080806050305000208080101040609FD
:1013A0000A02FCFEFCFAFA0000000406FFFB010042
:1013B000FCFAFBFBFCFDFE00FBFBFFFFFDF3F7FA75
:1013C000FAFCFDFE000305070805040407010209F5
:1013D0000A05070A010106010002FBFE040C0CFDD0
:1013E000FD05FCF6F8F4F6F7F7F7F8FAFBFFFBFD5E
:1013F000FFFFF9F5FCFDFF0104040600FF06090CE0
:1014000008030607090D0C03090AFD0103FC030389
:1014100002FDFE04FBF6FDFCF7F7F3F5F7F0F3F938
:10142000FCFFFCF6FAFCFEFF00030507080A0B0DA3
:101430000B0B060B0B05060609040104FE0001F860
:10144000FD01FFFDF9F7F5F5F9F7F7F9F9FAFBFBFF
:10145000FDFEFBFF0204060403050107010205056A
:10146000FE020406070904FF05000003FFFEFFFC5F
:1014700000FF01FF01FC0000FEFCFCFDFF00FFFE81
:1014800003FDF800F9FEFE00FBFDFFFEFF02000178
:1014900003FF010301000404050606010605060218
:1014A000030002FE030305FF05FFFAFCF9FAFAFB4D
:1014B000FBFCFCFCFEFDF8FEFBFDFEFFFEFE010159
:1014C00001020204000104040605080803060704DB
:1014D000070302FFFF0100FD01FDFFFDFFFCFAFA1B
:1014E000FAFBFAFBFCF9FAFDFCFDFEFF0001FD0230
:1014F00001010304040506060303050304050504AE
:101500000305030502FEFEFAFEFEFEFFFCFCFEFCE8
:10151000F9FCFBFBFCFDFDFFFEFCFFFF01020204EA
:1015200003FF0300010202030001030201040201A0
:1015300005010002010104FFFD00FCFF0000FEFFA9
:10154000FF00FFFDFF00FF0000FCFDFBFCFDFE00B7
:10155000FF0002FFFD01FDFF000001FF000101028D
:101560000403040603030504050601FF0102020348
:10157000FEFE00FCFFFCFAFDFCFCFDFCFAFBFAFBA6
:10158000FBFEFEFFFF00FF01010101030300020358
:1015900003050606060708040205030202FDFE0015
:1015A00000FDFBFCFDFBFDFCFAFCFCFCFCFEFBFA79
:1015B000FDFCFDFF0000010204010203030405021B
:1015C000010401010504030405020103020003FDF7
:1015D000FAFFFFFBFBFEFDFDFEFEFEFCFDFEFEFF37
:1015E000FDFEFFFFFF0002010103000002010102F6
:1015F00003FEFF02FF0002020203030303010102D4
:1016000002FFFD0001FCFE00FFFF0001FFFF01FEE5
:10161000FF00FBFDFEFDFEFF00FF0000FF0200FEDD
:101620000001FFFE010001010202030304040303A1
:1016300004030401000100FEFEFEFDFFFFFFFE01AA
:10164000FDFBFEFAFBFDFCFDFEFEFEFF00000101BE
:101650000001010201000202020303040405050364
:101660000405010201FF0000FCFEFCFCFDFDFDFE87
:10167000FEFCFDFDFDFEFCFCFEFDFEFF0001020286
:101680000303040502010200020200030202030335
:101690000203010101000101FCFFFDFCFDFDFDFE57
:1016A000FEFEFFFFFF01FDFD00FEFF00000101FF48
:1016B00003000003010002FF02FFFD00FFFF010124
:1016C0000103020203020303FF0101FF01FFFE0009
:1016D000FF0000000002FEFE00FDFEFDFDFEFDFD20
:1016E000FFFDFE00FF0000000200FE0000000101FF
:1016F00002030304040405040304030302000000BE
:10170000FDFEFEFDFEFFFDFEFEFDFEFCFBFDFCFD05
:10171000FEFEFEFF000000010101010202020102C3
:101720000202030303030303030203020101FFFF99
:10173000FEFEFDFDFEFDFEFEFEFFFEFEFEFEFFFECA
:10174000FEFFFF000000010101020202020102018E
:10175000000101000101010101010101000000007F
:10176000FFFEFFFFFFFFFFFFFFFF00000000FF0085
:1017700000FF00000000000000000000000000006A
:101780000000FF0000000000000001010101010055
:10179000010101000000000000000000001C080022
:1017A00000800F800F247232721073DD76C9763597
:1017B0007244725372B17661726F72000000010060
:1017C0000200030004000501000101010201030100
:1017D00004010502000201020202030204020503E1
:1017E00000030103020303030403050400040104CE
:1017F00002040304040405050005010502050305B0
:101800000405050600060106020603060406050790
:10181000000701070207030704070508000801087D
:10182000020803080408050900090109020903095F
:101830000409050A000A010A020A030A040A050B40
:10184000000B010B020B030B040B050C000C010C2D
:10185000020C030C040C050D000D010D020D030D0F
:10186000040D050E000E010E020E030E040E050FF0
:10187000000F010F020F030F040F051000100110DD
:1018800002100310041005110011011102110311BF
:1018900004110512001201120212031204120513A0
:1018A000001301130213031304130514001401148D
:1018B000021403140414051500150115021503156F
:1018C0000415051600160116021603160416051750
:1018D000001701170217031704170518001801183D
:1018E000021803180418051900190119021903191F
:1018F0000419051A001A011A021A031A041A051B00
:10190000001B011B021B031B041B051C001C011CEC
:10191000021C031C041C051D001D011D021D031DCE
:10192000041D051E001E011E021E031E041E051FAF
:10193000001F011F021F031F041F050505030405E7
:10194000060708090A0B0C0D0E0F101112131415BF
:10195000160000000000160517171717171718199B
:101960001A171717171717171717171717171B1CFB
:101970001D1E1F202122232425262728292A2B2C1F
:101980002D2E2F00303132333435363738393A3B4B
:101990003C3D3E3F40414243440045464748494A5A
:1019A0004B4C4D4E4F505152535455565758590069
:1019B0005A5A5B5C5D5A5A5A5A5A5A5A5A5A5A5A81
:1019C0005A5A5A5A5A5A0105170000005A00000084
:1019D0000000000000000000000000000000000007
:1019E00000000000000000000000000000000000F7
:1019F000000000000000000000000000004949490C
:101A00004949494999499949994949494949494956
:101A1000E29949E29949494949494949E2E2E2E200
:101A2000E249E299999999494949494949494949B4
:101A300049494949E2E2E2E2E249E2999999994940
:101A4000494949494949E29949E299494949494934
:101A500049499949994999494949494949000000E1
:101A600000000000494949004900490049000000C0
:101A700049004949490049004900000049494900D5
:101A8000000000000000000049494900000000007B
:101A900000000049490049490000000000000049D9
:101AA00049494949490000000000000000000000C9
:101AB0000000000051515100000051005100000091
:101AC00000000000000000515100000000510049DA
:101AD0000000510000490000510000004900005181
:101AE00000004900005151000049000000515151CF
:101AF00000000000000051510000000000510000F3
:101B000000000000510000000000510000000051E2
:101B10000000000051510051515100000000000030
:101B200000000000000000000000000000000000B5
:101B3000005151510000005100510000510000516E
:101B400000005100510000510000510051004900B7
:101B50004900000049004900000049004900000018
:101B600049494900000000000000000049494900BF
:101B700000000000000000005151515151000000D0
:101B80005100000000005100000000005100000062
:101B90000000510000000000510000000000510052
:101BA000000000005100005151515100005100004F
:101BB0004949000051000000490000515100000057
:101BC0000000005151000000000051000000000022
:101BD0005100000000005100000000005100000012
:101BE00000515100515151000000510000005100BE
:101BF00051515151000000000000000051515100AE
:101C000051005100510051005100515151000051FB
:101C1000000051005100005151510000510051008D
:101C2000000051005100510051005151510051002C
:101C300051005100510051005151510051005100CB
:101C400000000000510000000000510000000000F2
:101C50005100000000005100000000005100000091
:101C600000005100000000005100000000000000D2
:101C7000000000005151515151005100000051002D
:101C800051515151510000005100510000005100CC
:101C900051000000510051000000510051000000AF
:101CA0000000000000000000510000000000510092
:101CB0000000000051000000000051000000000082
:101CC00051000000000051000000000051005100D0
:101CD000000000515151510000000000510000511E
:101CE000515151000000000000005151515151006C
:101CF0005100000000005100000000000000000042
:101D000000005100000000005100000000005100E0
:101D10000000000051000000000051000000000021
:101D200051515151515151000000000051005100DA
:101D30000000000051000000000051000000000001
:101D400051000000000051000000000051000000A0
:101D5000000051000000000051515151510000009D
:101D600051005100000051005100000051000000DE
:101D700000005100490000005100490000005100DE
:101D80004900000051000051515151000000000075
:101D9000000051515151515151000000000000000C
:101DA0004900494949004900490000494900494959
:101DB00049000000000000000000000000000000DA
:101DC00000000000000000000000000000005100C2
:101DD0000000000000000000000000000000000003
:101DE00051000000000000000000000000000000A2
:101DF000000051000000000051515151515151005B
:101E0000000000005100000000005151515151519B
:101E1000510000000000000000000000005B5B5B60
:101E20005B5B5B00000000000000000000000000A1
:101E300000000000000000000000000000000000A2
:101E4000000000000000000000000000005B5B5B81
:101E50005B5B5B0000000000000000000000000071
:101E60000000000000000000000000000000000072
:101E70000000000000005B0000005BF6FF5B5B5BA6
:101E80005B5B5B0000000000000000000000000041
:101E9000000000000900000049ADFF0052ADFFFF47
:101EA000FEF6FFFFFEFEFFF6F6F6F6F6FE5B5B5B68
:101EB0005B5B5B000000095B090009ADFF6D13ADC2
:101EC000FFFFAD1C00FFFFAD1D0100FFB61D0A00A6
:101ED00000F65C0A0000006513000000000000002E
:101EE00000000000000000000000000000000000F2
:101EF0000000000009000000000052000000000087
:101F0000A40000000000A40000000000A4000000E5
:101F1000000000000000000000525252530900ADC2
:101F2000ADADB55C00A45BA4A35C01A4A4A4A31CF8
:101F300000A4A4AD641300A4A4A45C0A00000000E3
:101F40000000000000000000000000000000000091
:101F50000000000009000000000052000000000026
:101F6000A40000000000AD0000000000AD00000073
:101F7000000000000000000000525252520000F623
:101F8000F6F6F65B00ADA4ACA41C00ADADADA41399
:101F900000B6ADB6640A00A4A4AC5BADB500000009
:101FA0000000000000000000000000000000000031
:101FB0000000000000000000005BB600009BF6F689
:101FC000ADA4F6F6ADADADB5ADADADA45C00000011
:101FD0000000000000000009A4000052ADF6F65A0F
:101FE000ADFFF6ADADF6ADADADADADADADADADAD3D
:101FF000ADAC5BA4ADADAD135DF6ADADAD005BF6C4
:10200000F6F6B6F6F6ADADADB6B6B6B6B6B6B6B68B
:10201000B6B6B6B6B6ADADADADADADADADADADADC3
:10202000ADADADADADADF6ADADADB6F6F5B6B6B6E2
:10203000F6F6A4B6B6F6F6AD1CF6F6F6F51C01F605
:10204000F6F65C0B00B5F65C130000F6A414000075
:1020500000AD1C010000005C0A00000052140000EA
:102060000000000000000000000051494951525B8F
:10207000FFFFFFFFFFADF6F6F6F6F6B5F6F6F6F65D
:10208000F6F6F6F6F6645CFFF6F6F61301000000CD
:10209000000000000000000000525252525252FF55
:1020A000FFFFFFFFFFFEFFFFFFFFFFF6FEFEFFFF4C
:1020B000FF5C5C5C646464000000000000000000E1
:1020C000000000000000000000525252525200FF77
:1020D000FFFFFFFF09FFFFFFFFAE13FFFFFFFF65DD
:1020E00001646465651C000101010101000000003C
:1020F0000000000000000000000000525252520098
:1021000000FFFFFFFF0052FFF6F6F600A4FFF6F611
:10211000F600ADF6F6F6AD00B5B6B5B55C0000005C
:10212000000000000000000000525252525252FFC4
:10213000FFFFFFFFFFF6F6F6F6F6F6F6F6F6F5AD5C
:10214000AD5B5C5C5C5C5C020000000000000000B9
:10215000000000000000000000525252520000FF38
:10216000FFFFFFAD00F6F6F6F6F6ADADADADADADE9
:10217000AD5CADADADAD6409ADADADAD5B00000026
:1021800000000000000000000000000009525200A2
:102190000000ADFFF6000000ADADAD130000ADAD29
:1021A000AC0A0052ADA4A401005BADA4A4000000E1
:1021B000000000000000000000525252525252F63D
:1021C000F6F6F6F6B6ADADADADA4A4A4A4A4A4A451
:1021D000A4A45B5B5B5B5BA4130101010100000035
:1021E000000000000000000000525252525252AD56
:1021F000ADADADADADA4A4A4A4A4A4A4A4A4A4A472
:10220000A45B535BA49B9B0101A4A4A4A4000000B5
:10221000000000000000000000525200000952AD12
:10222000A40A005BADA45B0A005B5BA45C010049EF
:10223000A45B1C0000005B5B1300000009000000B1
:10224000000000000000000000525252000000ADEB
:10225000ADAD5200005B5B5B5B09005B5B5B5B529F
:10226000009B5B5B5B5B099B5B5B5B5B5B000000FC
:1022700000000000000000000000000000525200BA
:10228000000052ADA4000052AD52520052AD525A5D
:102290005A52AD525A5B5AA45B5A5A5A5200000025
:1022A000000000000000000000525252000000A494
:1022B000A45B0A000052525214000052521C0A0041
:1022C00000521C140000001D13000000000000005C
:1022D0000049A40000000052AD000000005BA40013
:1022E000000000A4A400000009ADA400000049A45F
:1022F0005B0000005BA49B000000A4A4A45BA4A35B
:102300005C0900A4A4A41300005B9B5B130000A461
:10231000A45B130000A4A45B0A0000A4A3130000A4
:1023200000A45B13000000A4A4A59B9B9B000000DD
:102330000052AD000000005BAD000000005BA40097
:10234000000000A4A400000009ADAD00000052ADE3
:10235000A40000005BADAD9B9BA4ADADADA4A4A457
:10236000ADADADADADADADADADA4A4A4A35B1CA4AE
:10237000A45B13140AADAD5C0B0000A4A413000011
:1023800000ADA413000000AD640A000000ADADA4D0
:102390005C140AA45C1C0A0000140A0000009B00E4
:1023A00000000052F600000009F6AD000000ADADDF
:1023B000A40000A4F6ADAD005BB6A4A4A40AF6ADDB
:1023C000ADADADADADADADADADADADADADADADA446
:1023D000ADACADADADADADADADADADA4A4A4A4A45B
:1023E000A4ADADADADADADA4A4A4A4ADA4ADADB64A
:1023F000B6F65CADADADB5A414ADADB6AC1401ADE3
:10240000ADAD1C0A00ADAD5C0B0000AD5B1400006F
:1024100000A413000051AD130A52ADF6F6130000EC
:102420000000A40000000000AD0000000000F60065
:1024300000000052FF000000A4F6F609ADF6F6F623
:10244000B6FFF6F6F6F6F6B6F6ADADF6F6FFF6F62C
:10245000AD0A00F6F6F6ADADADF6F6F6F6F6F6F622
:10246000F6F6F6FEFEF6F6F6ADADADF6F6AD0B0AF7
:102470000AF6F6A5010000F6F6AD645B5B0000000D
:10248000000000ADADADADAD5BF6FEFFFFFF64FF3C
:10249000FFFFFFFF5CADADADADAD1C0A0B0B131321
:1024A0000A0000000000005B5B5B9BA3A40000002F
:1024B000000000000000000000010000000000001B
:1024C000000000000000000000000000000000000C
:1024D0005200000000005BA4A4000000AD09FFF65C
:1024E000F6F65C5BFFF6F6B6ADA4FFF6F6B6F6AD13
:1024F000F6B6B6B6B6FFF6F6F6ADA4FFF6F6F613E8
:102500000BFFF6F6AD0B00FFF6F6B6A55B0000007C
:10251000000000ADA4A4A4A4A4F6F6B6B6B6B6B561
:10252000ADADADADADA4A4A4A4A4A40A0A0A0A0A40
:102530006400000000005B5B5B5B5B5BB649B6ADB3
:10254000ADA41CADADAD5B1C0AADAD5B130000AD21
:10255000ADAD000000ADADB5AD0000F6ADADAD1256
:1025600000B6ADADA41300F6F6F6A50A000000A46F
:10257000ADA4A40000ADA4A4A40009B6ADADAD0007
:1025800052B5ADADAD005BADADADA400ADADADAD83
:102590006400ADADADAD5B49ADADADA4A5641300B8
:1025A0000000005C0A000000005B01000000001356
:1025B00000000000001300000000000A00000000FE
:1025C00000010000000000645B5B5B5B5B0000A43B
:1025D000A35B5B0000A4A49B9B0052ADA4A4A3003A
:1025E0005BADA4ADA4005BA4A4A45B00A4A4A4A3BD
:1025F0005B09ADA4A4A45BA4A45B5B5B135B0A00B2
:102600000000005C0A000000001B01000000001335
:1026100000000000001300000000000A000000009D
:10262000A401000000ADA4000000ADA45B495B5212
:10263000525252005B5B5B5B5B00095B5B5B520071
:102640005BA45B5B5BA4A452525252A452525252FE
:10265000525B5B5B5B5B5B5B5B5A13135B5252527F
:1026600052491C5B5B5A521D135252521D0A005BA9
:102670005B5B09000052525200000052525252005D
:10268000005B5B5B5B49005B5B5B5B5B00130000BB
:10269000000000000000000000000000000000003A
:1026A000000000000000000000000000000000002A
:1026B000000000000000000000000000000000001A
:1026C000A4A4A4000049A45B9B000049A35B5B0099
:1026D00000001B1C1C0000000101010000000000A4
:1026E00000000000000000000000000000A4A4A4FE
:1026F000ADADADA39B9BA4A4A45B5B5B5B5B9B1B91
:102700001B1B1B1B1B000000000000000000000042
:1027100000000000000000000000000000ADADADB2
:10272000ACA4ACA4A4A4A4A4A49B9BA3A4A4A413FD
:10273000131313131300000000000000000000003A
:1027400000000000000000000000000000AD5C0977
:10275000000000A45C00000000A313000000AD1303
:102760001300005BAD00000052B6A4000000F6ADFF
:10277000AD0000ADADA4A4005BADA4A4A409F6AD6A
:10278000ADADADADADACADADADADACADADADADA484
:10279000ACADADACADA4A4A4A4A4A4ADADADADADA1
:1027A000ADADADADADADACA4A4A4A45B1CADADAD61
:1027B000ADAD5BADADADADADADADADADADB6F6AD49
:1027C000ADADADADADACADADADA45CADADA45C1C7F
:1027D0000B645C140A0000140A0000000065B5FEDA
:1027E000F6F6F6F6B6B6F6AD64F6F6B5651C14A4C4
:1027F0005C1C1301001C130100000000000000001D
:1028000000000000000000000000000000F6AD1C09
:102810005CF6F61C1401A4FFF6090000ADFFF600FB
:102820000000091C1B000000000000000000000068
:1028300000000000000000000000000000F6F6F6B6
:10284000FFFFFFF6F6F6F6F6F6F6F6F6F6F6F613F0
:102850001313131313000000000000000000000019
:1028600000000000000000000000000000FFFFFF6B
:10287000FFFFFFFFFFFFFFFFFFF6F6F6F6F6FE1382
:102880001B1B1C1C1C0000000000000000000000BE
:1028900000000000000000000000000000FFFF1327
:1028A0000000FEFFF6140009FFFFAD0A0049FF1CFF
:1028B0001C0900001C0000000000000000000000D7
:1028C00000000000000000000000000000F6F6F626
:1028D000F6F6FFFFFFF6F6F6F6F6F6F6B5ADAD1C2A
:1028E0001B13131313000000000000000000000081
:1028F00000000000000000000000000000FFFFFFDB
:10290000FFFFF6F6F6F6F6B6B6ADADADADADAD136E
:102910001313131313000000000000000000000058
:1029200000000000000000000000000000F6F6F6C5
:10293000640900F6F5A41C0000AD5C1C0A00001C34
:102940001401000000000000000000000000000072
:10295000000000000000000000000000005BF6AD79
:10296000ADADADADADADADADA4ADADACACA4A4124F
:102970001C1C1C1B1B0000000000000000000000CD
:1029800000000000000000000000000000ADADAD40
:10299000ADADADADACA4A4A4A4A4A4A4A4A4A41B54
:1029A0001B1C1B1B1B00000000000000000000009F
:1029B00000000000000000000000000000ADA4A422
:1029C000A4A414A4A4A4A45B13A4A4A4A45B091B9E
:1029D0001B13131C01000000000000000000000099
:1029E000000000000000000000000000000008AD32
:1029F000A4A4A400A4ADA4A4A4005B9B9B9B5B0027
:102A00000A1C13131C00000101010100000000005A
:102A100000000000000000000000000000A49B5B1C
:102A20001D01529B5C1C0000005C1C000000001C8F
:102A30000000000000000000000000000000000096
:102A4000000000000000000000000000005B5B5B75
:102A50005B5B525B5B5B5B5B52495B525252530068
:102A6000131313131C0000010101010000000000FA
:102A70000000000000000000000000000000000056
:102A80000000000A00000000001300000000000A1F
:102A90000000000000000000000000000000000036
:102AA0000000000000000000000000000000000026
:102AB0000000000000000000000000000000000016
:102AC0000000000000000000000000000000000006
:102AD000000000000000005B5B5B5B5B5B000000D4
:102AE0000000000000000000090000000000AD0030
:102AF000000000ADF60000009BAD5B000049AD5D3D
:102B00001D000000130A005B5B5B5B5B5B52F6A47D
:102B1000ACACADF6ADADADADA4ADADADA45C1CA49B
:102B2000A45C1C13005C1C130000001300000000D8
:102B3000000000000000005B5B5B5B5B5BADA45CC6
:102B40001C140A5C1C1409000013010000000000A2
:102B50000000000000000000000000000000000075
:102B6000000000000000005B5B5B5B5B5B00000043
:102B70000000000000000000000000000000000055
:102B80000000000000000000000000000000000045
:102B900000000000000000000000000000FEFEFE3B
:102BA000FEFEFEFEFEFE030D0DFEFEFE0C0F0EFEF3
:102BB000FEFE0C0E0EFEFEFE0D0E0EFEFE000E0EB6
:102BC0000EFEFE010E0E0EFEFE010E0E0EFEFEFEAF
:102BD000FEFEFE0D0D0D0D02FE0E0E0E0E03FE0E80
:102BE0000E0E0E0CFE0E0E0E0E0CFE0E0E0E0E0D2A
:102BF000000E0E0E0E0D000E0D0D0D0D01FEFEFE53
:102C0000FEFEFEFEFE030D0D0CFEFE030E0D0DFE80
:102C1000FE030E0D0DFEFE0C0E0D0DFEFE0C0E0D38
:102C20000DFEFE0C0E0D0DFEFE0D0D0D0DFEFEFE3D
:102C3000FEFEFE0C0C0C01FEFE0D0D0D03FEFE0D46
:102C40000D0D0CFEFE0D0D0D0D01FE0D0D0D0D02F9
:102C5000FE0D0D0D0D03FE0D0D0D0D0CFEFEFEFE09
:102C60000100FEFEFE030D0C0CFEFE0C0D0C0CFE16
:102C7000FE0D0D0C0CFEFE0E0E0C0CFE010F0E0CCC
:102C80000CFE020F0E0C0CFE030F0F0D0CFEFEFED1
:102C9000FEFEFE030302FEFEFE0C0C0C02FEFE0C0A
:102CA0000C0C03FEFE0C0C0C0C01FE0C0C0C0C03AB
:102CB000FE0C0C0C0C0C000C0C0C0C0C02FEFEFEA2
:102CC0000101FEFEFE030D0303FEFE0D0E0303FED7
:102CD000FE0E0F0C03FE010F0F0D03FE030F0F0E70
:102CE00003FE0D0F0F0F0C010E0F0F0F0DFEFEFE5A
:102CF000FEFEFE030201FEFEFE0B0303FEFEFE03CC
:102D0000030302FEFE03030303FEFE0303030302A9
:102D1000FE030303030301030303030302FEFEFE9A
:102D2000FE0101FEFEFE014E03FEFEFE0C570CFEF0
:102D3000FEFE0E574EFEFE024F4F57FEFE0D4F4F4A
:102D400057FE010F4F4F4FFE0B4F4F4F4FFEFEFEF2
:102D5000FEFEFE020201FEFEFE02030302FEFE0371
:102D600002020301FE0C02020202FE4E03020203F3
:102D700001570D020202024F4F03020202FEFEFE45
:102D8000FE0101FEFEFEFE554DFEFEFE025757FE01
:102D9000FEFE4D5757FEFE02575757FEFE0D575782
:102DA00057000257575757020D4F4F5757FEFEFE19
:102DB000FEFEFE0101FEFEFEFE0B0102FEFEFE56C1
:102DC000020201FEFE570C010201FE5757020102EA
:102DD0000057574D0102015757570B0102FEFEFEE7
:102DE000FEFE0BFEFEFEFE0A57FEFEFEFE5657FEE0
:102DF000FEFE0B5757FEFE01565757FEFE0C575767
:102E000057FE025757574E014D574E4E4EFEFEFE8F
:102E1000FEFEFE0CFEFEFEFEFE5702FEFEFEFE570E
:102E20004D01FEFEFE57570C01FEFE564E4E0201AE
:102E3000FE4E4E4E0D01014E4E4E4E0C01FEFEFE5C
:102E4000FEFEFEFEFEFEFEFE0CFEFEFEFE024EFE40
:102E5000FEFE000D4EFEFEFE0C4E0DFEFE024E0E60
:102E60000DFE000D4E0D0D000C4E0D0D0D02FEFE63
:102E7000FEFEFE4E01FEFEFEFE4E0D00FEFEFE0DAF
:102E80000E0BFEFEFE0D0D0D02FEFE0D0D0D0D01D5
:102E9000FE0D0D0D0D0CFE0D0D0D0D0D02FEFEFEB9
:102EA000FEFEFEFEFEFEFEFE01FEFEFEFEFE03FE3A
:102EB000FEFEFE0303FEFEFE020303FEFE0103030D
:102EC00003FEFE03030303FE02030303030100FEEC
:102ED000FEFEFE0B02FEFEFEFE030301FEFEFE03EF
:102EE000030300FEFE03030302FEFE0303030301CC
:102EF000FE0303030303FE030303030302FEFEFEBC
:102F0000FEFEFEFEFEFEFEFE0CFEFEFEFE0D0FFEB3
:102F1000FEFE034F03FEFE010F0D02FEFE0D0E022C
:102F200002FE0B4F030202020F0C0202020202FE1B
:102F3000FEFEFE0D02FEFEFEFE020202FEFEFE028E
:102F4000020201FEFE02020202FEFE020202020173
:102F5000FE020202020200020202020201FEFEFE64
:102F6000FEFEFEFEFEFEFE020DFEFEFE020F4FFE08
:102F7000FEFE0E4F0FFEFE0C4F4F0CFE024F4F0E8B
:102F800002000E4F4F03010C4F4F0D0101010300D2
:102F9000FEFEFE0F0C01FEFEFE0E010100FEFE0213
:102FA000010101FEFE0101010100FE01010101011B
:102FB000FE010101010100010101010101FEFEFE0E
:102FC000FEFEFEFEFEFEFE010CFEFEFEFE0D4FFEB0
:102FD000FEFE034F0FFEFEFE0E4F0FFEFE0C4F4F88
:102FE0004FFE024F4F4F4FFE0D4F4F4F0EFE01024F
:102FF00002FEFE0D0E0F03FEFE0F4F0D0101FE0F30
:103000000F020101FE4F0C010101000F020101013D
:10301000010C0101010101020101010101FEFEFE9D
:10302000FEFEFEFEFEFEFE030CFEFEFE010F4FFE48
:10303000FEFE0D4F0FFEFE024F4F4FFEFE0D4F4F97
:103040004F00024F4F4F4F010D4F4F4F4FFE0001AA
:103050000200FE0D0E0F0E00FE4F0F4F0B01FE4F34
:103060004F0E0201FE4F4F0D0101004F4F020101B3
:10307000014F0E010101014F0C01010101FEFEFE95
:10308000FEFEFEFEFEFE020D0DFEFEFE0C4F0FFECE
:10309000FE000E0F0FFEFE014F4F0FFEFE0B4F4FB7
:1030A0004FFEFE0D4F4F4FFE004E4F4F4FFE0000A4
:1030B0000000FE0D0D0E0E02FE0F0E0E0E02FE0E95
:1030C0000E0E0E02FE0F0E0E0E02FE0F0E0E0E0262
:1030D000FE4F0F0E0E02FE4E0E0E0E02FE00000000
:1030E00000000000000000000000000000000000E0
:1030F00000000000000000000F00000000000000C1
:1031000000000000000000000000000000FEFEFEC5
:10311000020202FEFEFE010101FEFEFE010101FEB1
:10312000FEFE010101FEFEFE010101FEFEFE0101A7
:1031300001FEFEFE010101FEFEFEFEFEFE02020297
:103140000202FE0101010101FE0101010101FE0176
:1031500001010101FE0101010101FE010101010165
:10316000FE0101010101FEFEFEFEFEFEFEFEFE0C62
:10317000020202FEFE0C020101FEFE03020101FE3C
:10318000FE03020101FEFE02020101FEFE02020137
:1031900001FEFE01010101FEFEFEFEFEFE02020234
:1031A0000202FE0101010101FE0101010101FE0116
:1031B000010101FEFE01010101FEFE01010201FE0D
:1031C000FE01010100FEFEFEFEFEFEFEFEFE030FFE
:1031D0000F0301FE020F0E0201FE010F0D0101FEA1
:1031E000FE0E0C0101FEFE0D030101FEFE0C0201AC
:1031F00001FEFE02020101FEFEFEFEFEFE020202D2
:103200000202010101010101000101010101FE01B0
:1032100001010100FE01010101FEFE01010201FEAA
:10322000FE010101FEFEFEFEFEFEFEFEFE010E0F91
:103230000F0F0DFE0D0F0F0F03FE030F0F0E01FEFC
:10324000020F0F0C01FEFE0E0E0201FEFE0C0D0120
:1032500001FEFE03030101FEFE000100FE01020269
:103260000202010101010101000101010101FE0150
:10327000010101FEFE01010101FEFE01010100FE4E
:10328000FE010101FEFEFEFEFEFEFEFEFEFE0C0F36
:103290000F4F4FFE010F0F0F4FFEFE0D0F0F4FFE92
:1032A000FE020F0E4FFEFEFE0E0F0EFEFEFE0B0F79
:1032B0000CFEFEFE010E02FEFEFEFE01004F4F025E
:1032C0000101024F0C010101010E02010101010C7B
:1032D00001010101FE0201010101FE01010201FEE5
:1032E000FE010101FEFEFEFEFEFEFEFEFE010E4F91
:1032F0004F4F4FFE024F4F4F4FFEFE0D4F4E4EFEB3
:10330000FE024F4E4EFEFEFE0D4F4EFEFEFE020E24
:103310000EFEFEFEFE0D0DFEFEFEFE02014F575795
:103320000B01014F4F0D0101014F4E020101004FF2
:103330000C010101FE0D010101FEFE03010100FE71
:10334000FE010101FEFEFEFEFEFEFEFEFE014E4FF0
:103350004E4E4E00024F4E4E4EFEFE0C4E4E4EFE58
:10336000FEFE0E0E0EFEFEFE0B0E0EFEFEFEFE0D11
:103370000EFEFEFEFE020EFEFEFEFEFE034E4E4E54
:103380004E0C014E4E4E0D02010E0E0E0201FE0EAF
:103390000E0C0100FE0E0D0101FEFE0D0201FEFEEF
:1033A000FE0B01FEFEFEFE01FEFEFEFEFE000C0E0A
:1033B0000D0D0DFE010D0D0D0DFEFE020D0D0DFE90
:1033C000FEFE0C0D0DFEFEFEFE0D0DFEFEFEFE02CF
:1033D0000DFEFEFEFEFE0BFEFEFEFEFE010D0D0DC1
:1033E0000D0D030D0D0D0D0CFE0D0D0D0D01FE0D42
:1033F0000D0D02FEFE0D0D0BFEFEFE0D0C01FEFE80
:10340000FE0D01FEFEFEFE02FEFEFEFEFEFE0203BD
:10341000030303FEFE03030303FEFE01030303FE97
:10342000FEFE020303FEFEFEFE0203FEFEFEFE00A3
:1034300003FEFEFEFEFE01FEFEFEFEFEFE03030395
:103440000303020303030303FE0303030301FE0359
:10345000030302FEFE03030300FEFE030301FEFE60
:10346000FE0302FEFEFEFE0100FEFEFEFE01030262
:10347000020202FE0102020202FEFE02020202FE3D
:10348000FE00020202FEFEFE010202FEFEFEFE0140
:1034900002FEFEFEFEFE01FEFEFEFEFEFE02020239
:1034A0000202020202020202000202020201FE0203
:1034B00002020200FE02020201FEFE020202FEFE03
:1034C000FE020201FEFEFE0101FEFEFEFE020303FD
:1034D000020101000202020201FE0102020201FEDB
:1034E000FE01020202FEFE00020202FEFEFE0102D8
:1034F00002FEFEFEFE0102FEFEFEFEFEFE010101D8
:103500000101010101010101000101010101FE01AF
:1035100001010100FE01010101FEFE02010100FEA8
:10352000FE020201FEFEFE000100FEFEFEFE03039F
:10353000030302FE0002020202FEFE01020202FE7C
:10354000FEFE020202FEFEFE010202FEFEFEFE0280
:1035500002FEFEFEFE0001FEFEFEFEFEFE01010179
:103560000101010201010101010201010101010248
:1035700002010101000202010101FE020202010139
:10358000FE0202020200FEFE000101FEFE01020335
:10359000030303000002020202FEFE02020202FE18
:1035A000FE01020202FEFEFE010202FEFEFE00021B
:1035B00002FEFEFEFE0101FEFEFEFEFEFE03020115
:1035C00001010102020101010102020101010102E6
:1035D00002020101000202020101FE0202020201D6
:1035E000FE0202020200FEFEFE0001FEFEFE0002DE
:1035F000020202FEFE01010101FEFE01010101FEC7
:10360000FE00010101FEFEFE010101FEFEFE0102BF
:1036100001FEFEFE000101FEFEFEFEFEFE020202B3
:103620000201FE0101010101FE0101010101FE0192
:1036300001010101FE0101010101FE010101010180
:10364000FE0101010101FEFE00000000FE01FF017C
:103650000001FF01FEFDF9FAF7F3F0F3EAF0EDF4F3
:10366000E4FAE9F1F4F3F3FDF8F802ECFEEDFDEB1A
:10367000F8F4E9F5EDF0F4F1F7F4FBFB010B1211AE
:103680001A1B191E211F1A170F0B0A0000F4F0E66F
:10369000E1D7D0D0CBCDCDCCD2D7D9E3EDF5FD0459
:1036A000080D12161B1E1F26282D2F3435343538D1
:1036B000383C3F3F4244484E4C4C4948433F3C36DF
:1036C0003631322E2A292320191610090501F9F660
:1036D000EFE8DED9CDCBC1BBB0A8A2A09B9B979948
:1036E0009A999D9FA3A9AEB7BFC4CED2DAE1E3EA0F
:1036F000ECF2F2F5FAF7FEFBFFFE00FF0001010419
:10370000040307080808080807090B0E0E1010121A
:10371000131313161A1A1F1F24262A2F33373B3D63
:1037200040424546464644413D372F261B1003F78D
:10373000EBE0D8D0CAC6C1BFBCBABAB8B9BABBBB35
:10374000BFC1C6CACED3DADFE7EEF7FD060C131908
:103750001E23282D31373A3E414446494C4D4F4FA8
:103760004F4F4E4D4B4A4643403C3934312C271F76
:103770001C160F090601FDF9F4F0EAE6E3DFDBDBD6
:10378000D9D9DADADCDEE0E2E5E8EBEEF1F4F6F9DD
:10379000FDFCFEFF0000FFFFFEFDFCFBFBF9F9F660
:1037A000F7F4F4F3F4F4F4F4F5F5F5F6F7F8F9F8C2
:1037B000F9F9F9F8F6F5F2EFEDEBE6E1DBD6CEC676
:1037C000BFB9B3B0AFB0B2B5B9BEC4CAD0D6DCE2EF
:1037D000E7ECF1F6FBFE03080C0F1316191B1E1F76
:1037E000222426282B2D303235383A3D3F414245A0
:1037F00046484949494947464442403D3A36332EB6
:1038000029231E17100902FAF2E9E0D6CDC4BDB78C
:10381000B3B0AFAFB0B1B2B3B5B7BABDC0C4C8CB27
:10382000D0D3D7DBDEE2E6E9EDF1F4F8FC01050ADE
:103830000E13171C2024292C3034383B3E414446BB
:103840004848494A4948474543403D39332E272097
:1038500018100700F9F3EEEBE7E5E3E1E0DFDEDC6B
:10386000DCDBDADADADADAD9D9D9D9D9D8D8D8D8C2
:10387000D8D8D8D8D8DADBDCDDDFE1E3E6E8ECEF56
:10388000F3F7FBFF03070C1014181D2024272A2C24
:103890002E2F2F302F2E2D2A27211C160F0902FD27
:1038A000F8F6F5F5F6F8FBFD000306080B0D0F1111
:1038B00012131414131311100D0B080502FFFBF85B
:1038C000F4F1EEEBE9E7E5E4E2E1E0E0DFDFDFDFA2
:1038D000DFDFDFE0DFDFDFDFDEDEDEDDDCDCDBDA0B
:1038E000D9D9D8D8D9DADCDFE2E5E9EDF1F5FAFF8C
:1038F00003080D12161B1E2326292D3032353739A9
:103900003B3C3E3F40414141414140403F3E3D3CC8
:103910003B393836353332302E2C2B282623201CC9
:1039200018140F0903FCF5EDE4DBD1C7BCB2A9A163
:103930009C979594949597999C9EA1A5A8ACB0B49A
:10394000B8BCC0C4C8CBCED1D4D7DADDE0E4E7EA56
:10395000EEF2F6FAFE02070B0F13171B1F23262A9F
:103960002D303336393B3D3E404141424242414198
:10397000403F3E3C3B3938363432302F2D2B2A28FD
:1039800027252422201F1D1B19171412100E0B09A6
:10399000060401FFFCFAF7F5F2EFEDEAE7E4E2DFF7
:1039A000DDDBD9D7D7D6D6D5D5D6D6D6D6D6D6D6A8
:1039B000D5D4D3D2D0CECBC8C4C0BBB5AFAAA5A2F4
:1039C000A0A1A3A6ABB1B7BDC4CBD2D9E0E7EFF6B7
:1039D000FC03090F151A1F23272A2D3032353739DA
:1039E0003B3D3F41434546484A4B4C4D4E4F4F505F
:1039F00050504F4E4D4C4A484643413E3A37332F84
:103A00002B27221E1914100B0703FFFBF7F4F1EE0E
:103A1000ECEAE7E5E3E1DFDDDBDAD8D6D5D3D2D0D7
:103A2000CFCECDCCCCCCCCCCCCCCCCCCCDCDCECECA
:103A3000CFD0D2D3D5D7DADDDFE2E5E8EBEDEFF199
:103A4000F2F3F4F4F4F3F2F0EEEBE7E3DFDBD8D6D5
:103A5000D5D6D8DCE0E5EAF0F6FB01070D13181E19
:103A600023282C303336383A3B3B3C3C3B3C3B3CF8
:103A70003B3B3A3B3B3B3B3B3A3A3A3939373735AC
:103A80003432312E2D2A2825211F1B1814100C0822
:103A90000400FBF8F3EFEBE8E4E1DDDBD8D6D4D3A8
:103AA000D1D0CFCECECCCCCCCCCBCCCBCCCCCECD45
:103AB000CFD0D1D2D3D4D5D7D8D9DBDCDDE0E1E388
:103AC000E5E8EAEDEFF2F5F8FCFF0205080A0C0E56
:103AD0001011111111100F0C090601FCF7F3EFED95
:103AE000ECEDEEF2F4F9FD02060B0F14171C202486
:103AF000282B2E3032333534353334323230302EB9
:103B00002D2C2D2A292A282927262825232521223C
:103B10001F1E1D1D181815120F0F08090102FAF6B5
:103B2000F4F0ECE8E2DFDBDAD5D4CDCFCCCBC9CCF6
:103B3000C7C9CACCC8CCCCD0CCCECFD7D2D6D6D79A
:103B4000DADEDCDDE0E1E5E1E4E5E8EBECECEFF426
:103B5000F3F7FBFD000405070D0E111117191D18D1
:103B60001C201A1B171A14140D0901FCFAF5F0EBAE
:103B7000EBEEEEF1F3F9F2FE0906071212161C1C29
:103B80002722282B2D2D322A322E2F2D2F2B2C2A77
:103B90002F2429242C2529212426252326212823C6
:103BA000231F23211C1C1C14190D0E0A05FFF5F6FA
:103BB000ECE7DED7D1C9C7C2BBBABCBBBAB9BDBD81
:103BC000BBBFC6C8C2CDCCCED5D3DCD8DBDFE5E4E5
:103BD000E4E6E6EBEAEBEFECF0EFFAF1F5FAFCFCE9
:103BE000040105090C0C151316171C1C1E211E219F
:103BF000211D1E1B181B1115070801FDF8F2EFED22
:103C0000ECEEEAEDF1F5F7F8FB0301090A100F16E7
:103C1000161B1E1E2024222325262325242424228D
:103C20002621222125242126262128272627292846
:103C30002A2C2B262A2A252820211A17120E0504A1
:103C4000F8F4EBE2DBD4D0CBC7C6C4C8C6CAC8CD33
:103C5000D0D3D2D8DBDDE0E4E5EBE9EFEFF1F1F42E
:103C6000F7F3F6F5F5F7F6F7F8F7F9F8F9FAFBFCDC
:103C7000FEFF01020306060609080A090B0A0808E6
:103C800004070300FEFCF9F7F2F1EDE9E7E4E3E2F3
:103C9000E1E1E1E3E4E7E8EBECEEF2F4F6F8FBFD5A
:103CA000FF02040607090A0C0C0D0F0F0F10121269
:103CB000131314161618191B1C1D1F202224262747
:103CC000292A2C2C2D2C2C2B2A2825231F1B17119D
:103CD0000B05FDF7F1EBE7E4E3E2E3E4E6E8EBED07
:103CE000F0F3F6F9FBFE010406080A0C0D0E0E0FA8
:103CF0000F0F0F0E0E0D0C0C0B0A0A0A090908080B
:103D00000808080807070706060504030200FFFD68
:103D1000FBF9F6F4F1EEECE9E7E4E1E0DDDCDAD919
:103D2000D7D7D6D6D6D7D7D8D9DADBDCDDDFE0E2F5
:103D3000E3E4E6E8E9ECEDF0F2F3F5F7F9FBFCFE7D
:103D40000002040507090B0D0F111416181A1C1E8A
:103D5000202224242525242423211F1C1814100A82
:103D600005FEF8F2ECE7E4E1E0E0E1E2E5E7EAECA9
:103D7000EFF2F5F8FBFE010406090B0D0E0F101013
:103D8000111111101010100F0F0F0F0E0F0F0F1039
:103D900010101111111212121212121111100F0D16
:103DA0000C0B090706040200FEFDFBFAF8F7F6F516
:103DB000F5F4F4F4F4F5F5F6F6F7F8F9FAFBFBFC94
:103DC000FDFEFEFFFF0001010102020303030304E5
:103DD0000404040405050606070708090A0A0B0C73
:103DE0000D0D0D0E0D0D0C0B09070401FEFBF7F375
:103DF000EEEAE6E2DEDCDAD9D8D9D9DBDDE0E2E5CD
:103E0000E7ECEEF1F6F8FCFD0104060A080C0B0DD8
:103E10000C0E100F0F1010100E110F1210111011A8
:103E2000140F150C101309120B09050A05F6F9FBFE
:103E3000F4F3FDF4F005FFFD0B07111623222922F0
:103E40002631252123221D1E1D0D15070E080904EC
:103E5000FCFFF8FCF6EDF2ECEEE3EFE1DEE0E5DA94
:103E6000E0DBDEE2E6E4E9EBF3F6F8F8FE00020C54
:103E70000500FEFAF7EDEDE2E0D8D9D8D7DBDEE4B5
:103E8000E2EEF0F3F8FC010709090B0B17131C16FF
:103E9000181E201F1E1F252126221F1F211C1D1733
:103EA0001717170F12110C0D0D0C090A070B0A0C2E
:103EB0000B0B0A0C0D100B09060303FDF5ECE6DDF8
:103EC000D1D0C7C3C2C7C8CFD1D7DDE0EAECF3F485
:103ED000F9FBFD000604050A080A0A0A0D0D0D0A81
:103EE0000C0C0C0B0E0C090E0B0F0E0E10111213F6
:103EF00013151013101212110F1113151419151494
:103F00001417110E0A03FEF4EEE6DEDBD5D3D1CD95
:103F1000D3D0D4D7DBE1E5E7EDF0F5F9FAFC020404
:103F2000060B090B0F1011110E0E0E0B0B0A0908D0
:103F30000807040504050306050506050708070A22
:103F40000B0A0E0E0F1113151315150F0F0802FA99
:103F5000F4EEE8E1E0DDD7DAD8D7D6D8DDDFE0E768
:103F6000E8EEF3F6F9FE0208090C0F151418181AFA
:103F7000181A1918161412110E0C09090504040058
:103F800000FFFFFEFFFC0101000505060B0C0C10F5
:103F9000111110100B0803FCF7EFE8E3DDD9D5D1C0
:103FA000D1CECECFD2D6DADFE2E9EDF3F8FD0007CD
:103FB0000A0E1315171A1B1D1D1D1E1C1D1B18167E
:103FC00014120F0D0A09050605020401020303037A
:103FD0000605070B0C0D0F101012110E0E0905002F
:103FE000FAF2ECE6E0DAD4D1CDCAC8C9CDCED4D944
:103FF000DDE4E8EEF3F8FF02070C0F1216171A1BA8
:104000001B1D1B1B1A171613120E0D0A080605039B
:10401000030303030405050608090B0C0E0F10111A
:10402000131112100F0C0804FFF9F3EDE7E1DAD6D3
:10403000D0CDCCCBCED1D5D9DEE4E8EEF3F7FD017F
:1040400004080C0F1113161618191919181716133E
:10405000120F0D0B090705040302030102020304FA
:10406000040607080A0B0C0D0E0F0F0E0F0D0B099F
:104070000300FAF4EEE7E1DAD4D1CFCED0D3D6DB29
:10408000DFE4E8EEF2F7FBFE0205080B0E0F121359
:10409000151617171716161413100F0D0A09060513
:1040A00004030201020102020202030405050608DC
:1040B000090B0C0D0F0F100E0C090400F9F1EAE2C8
:1040C000DCD6D3D2D2D3D7DBDEE2E6EAEFF4F7FADE
:1040D000FE0104070A0D0F111314161616161514F7
:1040E00012100E0C0A08060403020100010001016F
:1040F0000202020304040507080A0B0E1010111037
:104100000F0C0802FBF4EBE4DDD7D4D3D3D4D7DA19
:10411000DEE2E6EBEFF3F7FAFE0104070A0D0F12F9
:10412000131516161716151412100E0C090806048E
:104130000302020101010102030304050506070849
:104140000A0B0D0F101111100E0A0600F8F1E9E12B
:10415000DBD5D3D1D2D4D7DADEE3E7EBF0F4F8FB4A
:10416000FF0205080A0D0F11131415151515141368
:10417000110F0D0B090706050403030302030303D4
:1041800004040505060708090B0C0E0F1112111087
:104190000E0A05FFF8F0E9E1DBD6D3D2D3D5D8DBA0
:1041A000DFE4E8ECF0F5F9FCFF0305080B0D0F1157
:1041B0001314141514141311100E0C0A0807050516
:1041C00004030303030304040405050606070809A2
:1041D0000A0C0E0F1011110F0D0904FEF7EFE8E1A4
:1041E000DBD6D3D3D3D5D8DCE0E4E8EDF0F5F8FCAA
:1041F000000305090B0D10121314151515141311D6
:10420000100E0C0A09070605040403030304040442
:10421000050505060707080A0B0D0E101111110FF1
:104220000C0803FDF5EFE6E0DAD6D3D3D4D6D9DD1A
:10423000E0E5E9EDF1F5F9FD000306090B0E1011BB
:1042400013141515141412110F0E0C0A0907060485
:104250000404030404040304040703070807090A09
:104260000D0D101111130F0F0C0901FCF4EDE6DF19
:10427000DAD6D3D2D3D5DADCE1E6E8EEF2F7FBFD0D
:10428000010407090D0E1012131415141513121042
:104290000F0C0B09080706050404040403040404B6
:1042A00006040605060608080A0A0C0C0D0D0C0982
:1042B000070300FAF5F0EBE6E3E0DFDEDFE1E3E63B
:1042C000E9ECEFF3F6F9FCFE0103050609090B0C16
:1042D0000D0D0E0E0D0D0D0B0A0A0907070605053B
:1042E000040404040403040304040404050506068A
:1042F0000707080809090807060401FEFBF8F4F19E
:10430000EEECEAE9E8E9E9EAECEEF1F3F5F8FAFCBB
:10431000FE0002030506070809090A0A0A0A090934
:104320000808070706050504040403030303030341
:104330000303030303040404050505060606060536
:1043400005030200FEFCFAF7F5F3F2F1F0F0F0F1EC
:10435000F2F3F4F6F8F9FBFDFEFF00020203040598
:104360000505060606060605050505040403030300
:10437000030202020202020202020202020202031B
:1043800003030303040404030302020100FEFDFB14
:10439000FAF9F8F7F7F6F7F7F7F8F9FAFBFCFDFE8C
:1043A000FEFF0000010202030303030304030303EF
:1043B00003030302020202020101010101010101E2
:1043C00001010101010102010202020202020202D4
:1043D0000202010100FFFEFDFDFCFBFBFBFBFBFB02
:1043E000FBFCFCFDFDFEFEFFFF00000101010101E1
:1043F00002020202020202020202020201010101A1
:10440000010101010101010101010101010101019C
:104410000101010101010101010101000000FFFF93
:10442000FFFEFEFEFDFDFDFDFEFEFEFEFFFFFF00AA
:104430000000000001010101010101010101010170
:10444000010101010101010101010101010001005E
:104450000000000100000101010101010001010152
:104460000100000000000000FFFFFFFFFFFFFFFF53
:10447000FFFFFFFFFF000000000000000000000041
:104480000100010101010101000101000000000023
:10449000000000000000000000000000000000001C
:1044A000000000000000000000000000000000000C
:1044B000000000FFFF00FFFFFF0000000000000001
:1044C00000000000000000000000000000000000EC
:1044D00000000000000000000000000000000000DC
:1044E00000000000000000000000000000000000CC
:1044F00000000000000000000000000000000000BC
:1045000000000000000000000000000000000000AB
:10451000000000000000000000000000000000009B
:10452000000000000000000000000000000000008B
:10453000000000000000000000000000000000007B
:10454000000000000000000000000000000000006B
:10455000000000000000000000000000000000005B
:10456000000000000000000000000000000000004B
:10457000000000000000000000000000000000003B
:10458000000000000000000000000000000000002B
:1045900000000000000000000000000000FFFC0020
:1045A000000E1303E8E01013E8011BF6DAFF0E1803
:1045B000FF000D2F2314FB05F5E8E9E6F5D1D8AF90
:1045C000B1DC23F6F904221100DCD4DBF0EAF0E2DE
:1045D000F1EAF6070B0F08D9C2E6DEF50715451F0D
:1045E000152C1904F6F4F6FFDEDCDBFCC2B195D520
:1045F000E9E2FB1F24232A1A012D584639414D5365
:104600005E5749493E4C56483E26152624241A0B2F
:10461000FAF8F3F0EDDBE1DCDEDEDFFC0AFEF0EDC4
:10462000130BFEFD0C1D1906F5FA0D07F0EDE6DE85
:10463000D0D3C4CAC5BBB8AEB39D9CA6AAB1B8B40A
:10464000A2B7C9CDC8E7EAF50204050F1729272B41
:1046500033332D32422D25231A132C271E1E2C1FD7
:104660001617070C0D090B0F1210040A0B00080790
:1046700007021225221620192821252019151715A1
:10468000130E0D100308FAFAF8F2EEEEE5E0EFEC87
:10469000EBDCD0CFD4E8D7D3DCE3E0DBDFE8E6EB3C
:1046A000E8E3F9F4F6EFFEF6030205FDFE060C0959
:1046B00003130A161B1611191F1E271E1825252D58
:1046C0002C2D3233292C2B2C2725210B1E0B0E0AC7
:1046D0000B01F5F5F0F8F2EFD9EFE2DBDEEAD4D822
:1046E000D3D8E6D9D6DEE7F4F2E0E2FAF6FBFD072E
:1046F0000605060C1C170D1E2B20110E19261D1069
:10470000271A1B0F090B110E061BFCF50C0901F3F0
:10471000EBF1EFEDE7E5E9E3D9E0DBDFDBD6D7E16D
:10472000D5D9E6D0CCDFD5DCDCD8DCEDE1E6E4EDB4
:10473000FCF6F4FC02120C10151F23211B322F274C
:1047400039383A303C2F3740303D3F3D2D353734F6
:1047500029242C28221A0D0F0A06FBF2F5E9E4E3BE
:10476000D8E0D8CCD2D2C7D1D2CDCFD1CFC9CEC943
:10477000CCD0D2D4CFDBE8D5D9E1EAE7EDEFEBFC42
:1047800003FA010A07070C0C1E20171E23222C2FE8
:1047900026323930313A342F3A3D363035382827F1
:1047A0002F2E24211A1D1518120F0EFFFEFC02FADF
:1047B000F8F1EDEFEBE8E8DFDDDCDBCFD8CFC9D1F6
:1047C000D3D0C9D2CECFD3D3D4CFD8D8D8DADCE3A4
:1047D000DFDFE4EBE9EEEDF3F9FBFA0201090A0B86
:1047E0000D0F0B0F161B1F201D1F252C27232928FB
:1047F0002928272526251C221E1A161916121112E1
:10480000120507050705FDFCF5F3F9F7EEF1F0E6F3
:10481000EDEDE7E8E4E4E6E6E1DEE3E2DEE1DCDC60
:10482000DEE1DEE0DEE6EAE5E6EAEAF0F5F3F2F5FF
:10483000FDFD0206050606090C131817181A201D9F
:104840001F25262424272726272529262325222419
:10485000232323221F23201B1B1C1A1715140E0AA7
:10486000080B0B0200FDFEFAF6F1F0EDE9E8E5E2D7
:10487000DED9D9DAD5D1D4D5D2CECDCBCECDCECE10
:10488000CBCCCECED0CECED5D6D5D6DCDDE2E3E5D0
:10489000E8E9EEF2F5F7F9FCFF0003060C0C0B0E4D
:1048A000141515181E1D1F2226252427292A2D2BF5
:1048B0002B2E2C2D312E2C2D2F292C2E292A27273B
:1048C0002426242022211D1D1A19151412120C0B46
:1048D00009040200FAF9F7F4F1F0ECEAE8E7E4E29F
:1048E000E1DEDBD9D8D4D4D3D3CECCCFCDCDCCCD93
:1048F000CCCDCBCCCECECED2D1D2D2D7D8D8D8DA9E
:10490000DEE1E3E2E5E8EBEBEEF3F5F5F9FD0003BC
:1049100005070C0E101314171A1D1F232325272A11
:104920002A2E2D2F2F333132323130313131322F87
:104930002F2D2F2E2D2B2C292827262321221F1DFA
:104940001A18171414120F0D0B0A06040200FDFCAE
:10495000F8F6F5F3EFEFECE9E6E5E3E1DFDDDDD9CD
:10496000D8D6D4D3D2D1CFCFD0CCCDCECDCECDCE44
:10497000CFD1D1D1D3D2D5D5D6D7DADADDDEE0E1C9
:10498000E3E5E7E9EBEEEFF1F3F7F9FBFCFF0305F5
:1049900007090C1011131418181A1D1E21232423A3
:1049A0002728282A2B2C2D2D2E31302F30312F2E39
:1049B0002D2D2C2C2928272726242221201E1C19A6
:1049C0001918161414141412110D070402FDFE0018
:1049D00002070503FEF9F0ECEAE4E2E3E7EBEEECB4
:1049E000EDEAE8DDD3C9C1BDBEBBBEBEBDBBB7AE3F
:1049F000A49E9A9B9DA2A4A9A8A5A8ADB0B3B8BB3C
:104A0000C4CED8E2EAF2FA010C141A212A3642493D
:104A10004C4D4D48413D38383D4244423D39353397
:104A2000312F2C2A292A2B2B2B29282524221D1A09
:104A300018181B1C1E1D1C1A140E09080709090A48
:104A4000060200FFFF00020101FFFDFAF8F6F4F391
:104A5000F2F2F2F0EEEDEDECEDEDECE9E9E9E9EA88
:104A6000EBEEF1F3F4F4F2F3F4F8F9FBFBFCFDFDEB
:104A7000FCFDFF0106090A0A0C0C0D0C0B090602CD
:104A8000FEF9F4EDE6E0DBD5CFC9C4C1C2C5C8CD9F
:104A9000D2D6DADDDFE2E5EBF1F7FC0204080C1018
:104AA000131517191B1E1F20202225282928272609
:104AB00027282A2B2D2F302F2C2A2928292928274F
:104AC000262422201F1E1A1A181613110E0D0C0B65
:104AD0000A07050200FCFCFAFAFAFAF9F7F6F4F50F
:104AE000F5F6F6F8F8F8F8F9F8F9FAFCFEFFFEFE2C
:104AF000FDFEFEFE00FF00FFFFFEFEFDFEFF0101CA
:104B00000102020304050708080806050503020060
:104B1000FDF9F4EDE6DED5CEC8C4C1BFBEBEC0C24D
:104B2000C5C9CED1D7DBE0E3E7ECF0F5F8FBFCFF3D
:104B3000FF010305070707080809090A0B0D0F10F5
:104B4000111011111111121315141513131314143C
:104B5000151515141312110F0D0B080400FAF6F0B9
:104B6000ECE7E2DEDBD9D9D9D9DBDEE2E6EAEDF02B
:104B7000F2F6F9FD0105080B0D1011131516181AA0
:104B80001B1C1D1F2021232426272829292A2C2FDE
:104B900030323334353535353535353432302C28EF
:104BA00024201B16100A03FBF4EDE7E2DEDCDBDA5F
:104BB000DBDCDDE0E3E5E8EBEDF0F2F4F6F8FAFB40
:104BC000FCFCFCFBFBFAFAFAF9F9F9F9F8F7F6F54F
:104BD000F5F5F5F5F5F5F5F5F5F5F5F5F5F5F6F683
:104BE000F6F7F7F7F6F5F4F2F0EDEAE7E3E0DBD7F6
:104BF000D0CAC4BFBAB7B6B6B7BABDC1C6CACFD499
:104C0000DADFE5EAEFF5FAFF03080C0F1215181AC0
:104C10001D2022242628292B2C2E303133353738DD
:104C2000393A3B3C3D3D3E3E3E3E3D3C3B3A3735CE
:104C3000332F2C2824211D1915110C09050200FE03
:104C4000FCFBF9F9F8F8F8F8F8F8F8F7F8F8F7F7DE
:104C5000F7F6F6F6F5F4F4F3F2F2F1F1F0EFEFEE29
:104C6000EDECECEBEBEAEAEAE9E9E9E9E9E9EAEAA1
:104C7000EAEBEBEBEBEAEAEAE9E9E7E5E3E0DEDBC6
:104C8000D8D5D2CFCDCCCBCBCCCED0D3D6DADDE2FB
:104C9000E6EAEFF4F8FD0105080B0E111416181AD8
:104CA0001C1E1F20212223242526262728292929C6
:104CB00029292929282827272625242322211F1EA0
:104CC0001C1B1917151412100E0C0A0907050302F4
:104CD0000100FEFDFCFCFAFAF9F8F7F7F6F6F5F537
:104CE000F4F4F4F4F3F3F3F3F3F3F3F3F3F3F3F390
:104CF000F3F4F4F4F4F5F5F5F6F7F7F8F8F9F9FA52
:104D0000FBFCFCFDFDFEFEFFFFFFFFFFFFFFFEFDC6
:104D1000FCFCFBFBFBFBFBFBFBFCFCFDFDFEFF01CE
:104D200001030305050707080809090A0A0A0A0B0F
:104D30000A0A0A0A090A09090909090908090808E1
:104D4000070807070606060605050405040402030E
:104D500001010000FEFFFEFEFFFEFEFFFCFEFCFE6A
:104D6000FBFBFAFBFCFCFBFBFBFEFCFDFBFEFDFF83
:104D7000FCFFFCFEFEFDFDFD00FC00FF0001FF034B
:104D800000FE07FB020101FE0307FAFB0102FB051F
:104D9000FEF202FEF1FBF1F0EFF3ECEBE5E0ECE408
:104DA000E0E6E6E9EEF8EFFDF9050E1823222F34D0
:104DB0003B423B443C3E3239312525291F19170F10
:104DC000130F0E090705050002FCFFF803FDF8F8B4
:104DD000F7FAF3F6F2F0ECEAEBE7E8E3E6DEE2E11D
:104DE000DDDDDBDDDCDAD8D9D5DFDEE3E0E1E7EBE2
:104DF000E9E9E8EFEFF3F5F5F5FAFCFF0101050548
:104E0000060A0D0D1315191A1E1F22211F1E171336
:104E10000E0703FBF0EBE8E5E2E2E0E2E7E5EAEEAD
:104E2000EDF1F8FCFF03060C0B13121617191918F5
:104E3000191C1A171C1C1B1E1D1E201D1F1E2224A0
:104E400021232420211E1E1A1A1615120F0C0D09DB
:104E500007040300FEF9F8F8F7F3F5F5F1F2F4F5BD
:104E6000F1F5F4F6F1F5F4F2F6F6F6F4F5F8F3F4FC
:104E7000F3F2F0F3EEEFEFF1EFF0F2F1F5F5F7F911
:104E8000FAFB00FEFEFFFEFBF9F4F0EAE2DBD2CC17
:104E9000CAC4C6C5C5C9CDD1D5DADFE1E8EAEFF1AC
:104EA000FAFBFD010308080A0C0D100F121315166A
:104EB0001818191A1B1B1C1B191A1E1A1C1B19194E
:104EC0001A161718161413120F0F0F0B0A090605DE
:104ED0000201FEF9F9F7F2F1F1EEEDEEEEEFF0F18D
:104EE000F2F5F4F7F8FAFCFDFD00020103050406F3
:104EF00007080B090C0D10111414151718161614A9
:104F000014100E0903FFF6F1E8E3DFD8D7D5D7D5A3
:104F1000DBDCDFE3E6EAECF0F4F6F9FDFE01030585
:104F200005070A090A0A0B0B0D0D0D0F0E111010C3
:104F3000121212121213121313121313131213124A
:104F40001110110D0C0B08070300FDF7F4EEE9E456
:104F5000DEDAD5D3D1D1D1D3D5D8DCE0E3E7EBEE9F
:104F6000F2F6F8FCFE0103040709090B0C0D0F1102
:104F7000121415171819191819171513100C0904FC
:104F8000FEFAF4F1EEECEAEAEAEAECEDEEEFF0F22A
:104F9000F3F6F7F8FAFBFCFDFEFEFE00000101024D
:104FA0000404060607090A0B0B0D0E0F1010111250
:104FB0001112121212121213121213121211100ED7
:104FC0000C090602FEF9F3EDE6E0DAD5D1CFCECE3C
:104FD000D0D2D5D9DDE0E4E9EDF1F5F8FCFE01032E
:104FE00005060708090A0B0B0D0E101012131416F4
:104FF00016161717171716151412110F0D0C0A098C
:105000000705040201FFFFFEFCFCFBFAFAF9F8F9C0
:10501000F9F8F8F8F9F9FAF9FAFAFAFBFBFCFCFDF1
:10502000FDFDFDFEFEFEFEFEFEFEFEFFFFFF00009C
:10503000010102020303040403030200FEFCFAF769
:10504000F4F2EFECEBE8E7E7E6E7E8E9EBEDF0F2A6
:10505000F4F7F9FBFEFF0103030405050606070745
:105060000708080809090A0A0B0B0B0B0C0C0C0C9F
:105070000C0C0B0B0B0A09090807060504040302B4
:1050800001010000FFFFFFFFFEFEFEFEFEFEFEFE32
:10509000FEFEFEFEFEFEFFFEFEFFFEFFFEFFFEFE2C
:1050A000FEFEFEFEFEFEFEFFFFFF0000000001010F
:1050B0000100010000FFFEFDFCFBFAF9F8F8F7F72C
:1050C000F6F6F7F7F7F8F9FAFAFBFCFDFDFEFFFF3D
:1050D00000000001010102020202020203030303B5
:1050E0000303030303030303030303030202030293
:1050F000020202020202010101010100000000009F
:1051000000FFFFFFFFFFFFFFFFFFFFFFFFFFFFFFAE
:10511000FFFFFFFEFFFFFEFFFFFFFFFF000000009D
:10512000000100000100000101000101000000FF7A
:10513000FFFEFEFDFDFDFCFDFCFCFCFDFCFDFDFDA0
:10514000FEFEFFFFFFFF000000FF00FFFFFEFEFF6F
:10515000FF00000101020203030404040504040427
:10516000040302010100FFFEFEFEFEFDFEFDFEFE49
:10517000FFFFFFFFFFFFFEFFFFFEFEFFFF0000013E
:10518000020202020302030202010100010000FF09
:10519000FFFEFEFDFDFCFDFDFBFDFBFDFCFBFAF94A
:1051A000F8F6F6F3F2EFEFE9EAE6E7E5E6E5E8EB35
:1051B000EDF1F6FC02070E141B21282D3033333598
:1051C00033322F2E2B282523201E1A1815120F0DCF
:1051D00009070402FFFCFBF9F5F5F1F1EEEDEBE850
:1051E000E9E8E7E7E7E7E5E6E4E3E0DDDAD9DADA9C
:1051F000DCDDDFE0E2E5E5E9EAECEDF1F3F4F8FB14
:10520000FF000404080B0F101316191A1A191713AC
:105210000E0601F8F1EBE8E4E1E0E0E3E4E7E9EEB3
:10522000F0F3F7FD01060A0E1215171B1C1E1E20B7
:10523000212123232222222221212220211E1E1C61
:105240001C1B1A1A18181615141211100E0D090726
:10525000060300FFFDFBF9F9F7F7F6F5F4F3F2F1B9
:10526000F0F0F0F0F0F2F2F3F4F5F5F5F7F7F9FA03
:10527000FCFDFF000101020100FFFCF9F5F1EAE489
:10528000DEDAD5D2D1D1D3D6D9DDE1E5EAEEF1F53A
:10529000F8FBFEFF020305060708090A0B0B0C0DBD
:1052A0000F101113141616171819181918171716A6
:1052B00016151312100F0D0B09080605040303033E
:1052C00002020100FFFDFBF8F5F2EFECE9E8E7E789
:1052D000E7E9EBEDEFF2F4F7F9FCFF020407090A46
:1052E0000C0D0E0E0E0D0C0A080501FCF8F3EFEB89
:1052F000E9E7E7E9EAEDEFF2F5F8FBFDFF02030568
:10530000050607070707070809090B0C0E0F101100
:1053100013131415151616161515141312110F0E56
:105320000C0B0A09080808080708080707060504FF
:1053300002FFFCF8F4EEE9E4DFDBD7D6D5D6D8DA05
:10534000DDE1E4E8ECF0F4F8FC0104070A0C0E0FD0
:105350000F0F0E0D0B080602FFFCF8F6F4F3F3F442
:10536000F6F7F9FCFE000203050506060707070627
:1053700006060505040404040504050607070809D4
:10538000090A0B0B0B0C0C0C0C0B0B0B0B0A0A0A6F
:105390000A0A0B0B0D0D0E0E0E0D0C0A080400FB75
:1053A000F5EFE9E2DDD8D4D2D2D3D5D8DBDFE3E81C
:1053B000ECF1F5FAFE010507090B0C0D0E0E0E0DB2
:1053C0000D0C0B0A0908080808080A0B0C0E0F1030
:1053D00010111111100F0E0D0B090705040200FF2B
:1053E000FEFDFDFDFCFCFDFDFDFEFEFFFF000101DD
:1053F0000202020202020101010102020304050786
:1054000008090B0C0C0C0B090703FFFAF4EEE7E09C
:10541000DAD5D2D0D0D1D3D6DADDE2E6EAEFF3F7AF
:10542000FAFE000204060708090A0B0C0D0E0F1104
:10543000121415161719191A1A1B1B1A19181715F1
:1054400013110F0D0A0806040200FFFEFDFCFCFC10
:10545000FCFCFCFDFDFDFEFEFFFFFF000000000068
:105460000000000101020203050607090A0C0D0EE7
:105470000E0D0C0A0703FEF8F2EBE4DED8D3D0CF12
:10548000CFD0D3D6DADEE2E6EBEFF4F8FBFE010391
:1054900005060708090A0B0C0D0E0F101113141541
:1054A000161718181919181817161513110F0D0BB0
:1054B000090705030100FEFDFCFCFCFBFCFCFCFCF9
:1054C000FCFDFDFEFEFEFEFFFFFF000000010101EE
:1054D000020303050607090B0C0D0E0E0E0D0B093A
:1054E0000501FCF6EFE9E2DCD7D3D1D0D0D2D5D894
:1054F000DCE0E5E9EEF1F6FAFD0002050607080931
:105500000A0B0B0D0D0F0F0F1011111113130F0FAD
:10551000120C0F06090904030006F409FAFBF40053
:10552000F0FCF7FFFAF2FDEBF6F0EFF1ECF2ECEF46
:10553000EFF0F3F5F9FC0003100A191D191D1F25E2
:105540001E1D18151710100401F8F3E7DDD4D2C79B
:10555000C6C1BFBFC2C5CFD7E3F3F5FF0D111E23F0
:105560002F32373A454145473E3D3935362D2624C1
:10557000201E1B1B181A14161612171419171A1BA3
:105580001616140C0904FFFAF8EEEDE6E1DBD2CCB6
:10559000C7C1B8B5ADADA6A9A8AAAAADAFB6B8C1E6
:1055A000C4CDD8E1EAEFF7FF030E0C141219191F4E
:1055B000212223222421221F1C1A1914130E0B0945
:1055C00004FF01FF00000204080A0A0D0E0F141563
:1055D0001819191D1D1E1F212121222222222220DD
:1055E00023222221211E1B18130F0D0602FCF8F3A3
:1055F000EBE5DFD8D5D0CCC8C6C2C1C1C2C2C3C5D5
:10560000C7CCCFD5D9DFE6ECF2F8FF040A0F1518A6
:105610001D202327292B2F303232333332322F2EC5
:105620002C292724201C18130F0B0502FDFBF6F66E
:10563000F4F4F3F2F1F2F1F2F2F3F4F5F5F8F9FB28
:10564000FEFF00040407080B0D0F101110111110BC
:105650000E0E0B0B0808040301FEFEFBFBF8F6F52B
:10566000F4F3F2F0EFEEEDECEBEAEAE8E9E7E7E677
:10567000E5E4E5E5E7E6E5E6E6E6E7E7E8E9EAEBBF
:10568000ECECEEEFF1F3F6F9FBFEFF020304050785
:1056900007090A0C0E0F10121213141516171919F8
:1056A0001C1D1F20222426272829292B2B2C2C2C9B
:1056B0002A29282623211E1B1715110F0A0704006B
:1056C000FDFBF8F6F2F0EEEBE9E6E3E1DFDDDBD837
:1056D000D7D5D4D1D1D0D0D1D2D2D4D4D6D7D9DB8A
:1056E000DDDFE2E5E8EAEDF0F3F6FAFD0104070B91
:1056F0000D101315181A1D1F2122242526272828CE
:10570000292928292829272626252422211F1D1B4F
:10571000191613110D0A0603FFFBF7F3EFECE9E688
:10572000E3E0DDDBD9D7D6D5D3D3D2D2D1D1D1D115
:10573000D2D3D3D4D5D7D9DBDDE0E3E6E9EDF0F37E
:10574000F7FAFE0104080B0F1216191C1F2224265B
:10575000292A2C2D2F2F3031313232323131302F56
:105760002F2E2D2B2A29272523211E1B1916131016
:105770000C090602FFFBF7F3F0ECE8E4E0DCD9D516
:10578000D2CFCDCAC8C6C5C4C3C2C1C1C1C1C1C2BE
:10579000C3C4C5C6C8C9CBCED0D2D5D8DBDFE2E6FC
:1057A000E9EDF1F5FAFE02060A0E12161A1E22257E
:1057B000282C2E313436383A3B3D3D3F3F40404067
:1057C00040403F3F3E3D3B3A3937363432302D2A58
:1057D0002825221F1C1916130F0C080401FDF9F5CA
:1057E000F2EEEAE6E2DEDBD7D4D1CFCCCAC8C6C43B
:1057F000C3C1C0BEBDBCBCBBBBBBBCBCBDBEBFC0CF
:10580000C2C3C5C7C9CBCED1D4D7DADDE1E5E8EC58
:10581000EFF3F7FAFE0105080B0E1215181B1E21F7
:105820002427292B2D2F31333435373839393A3B5A
:105830003B3C3C3B3B3B3A393837363433312F2EF7
:105840002B292724221F1C191613100D0A070401E7
:10585000FEFBF8F5F2EFECE9E6E3E0DDDBD8D6D4C9
:10586000D2D1CFCECCCBCACAC8C8C7C7C6C6C6C796
:10587000C7C7C8C9CACBCCCDCED0D1D3D5D7DADC37
:10588000DFE2E5E7EAEDF0F3F6F9FCFF0205080BCD
:105890000E111316191B1E20222426282A2B2D2E0A
:1058A0002F303132333334343434343434333332CC
:1058B0003230302E2D2C2B2928262422201E1C1A73
:1058C000181512100D0B08050300FDFBF8F6F3F197
:1058D000EEECE9E7E5E2E0DEDCDAD8D6D5D3D2D0EB
:1058E000D0CFCFCECECDCDCECDCECECFCFD0D1D1CD
:1058F000D2D3D5D6D7D9DADCDEDFE1E3E5E6E9EAD3
:10590000EDEFF2F4F6FAFCFF010306080A0D0F11A1
:10591000131517191A1C1F1F22232425272829298C
:105920002B2B2C2C2C2C2C2C2C2C2B2B2A2B2829C5
:10593000272725252323211F1F1C1C191916151382
:1059400012100E0D0B0907050301FEFDFAF9F6F51D
:10595000F2F2EFEEEBEAE7E6E3E1DFDCDAD8D6D30A
:10596000D1CECCCAC8C6C3C1BFBCBBB9B7B5B3B230
:10597000B1B1B1B2B3B6B8BDC0C5CAD1D7DFE7EFD8
:10598000F9010D141F262F353A3E41434545464542
:1059900045444342413F3F3C3B3938363533323052
:1059A0002E2D2A2B2628242421221E1F1B1B1917CB
:1059B000161312100E0C0A090704030100FBFEF96E
:1059C000F9F7F4F6F3F0F2EEEFECECEAEDE8E8E7E5
:1059D000E6E3E6E1E4DFE1DFDCDDDEDCDCDADADAD7
:1059E000DDDCDEDCDEDFDEDFE3E0E1E3E7E3E6E5AE
:1059F000EBE6E8E8F0EDF0F2F2F7FBFDFD04040B56
:105A0000080B0B0E0F100C0D0B080202FBF5F1EA50
:105A1000E1DFD9D6D1D4D4DBD7DDE6E7EAEFF6FA79
:105A200000040A0D0F1A1D2422292D3134373B336F
:105A300039433E3A413F3B423B443B3E3E40384285
:105A4000373D3C3A3739383435362F2F2A2E29281E
:105A5000231F1F1C181710130E0A070404FDFDFB5B
:105A6000F4F6F0EEEBE9E8DEE3DEDEDAD8D7D7D302
:105A7000D7D0D3D4D3D3D0D3D2D1D1CED8D0D1D202
:105A8000D4D3D4D4D6D3D4D7DDD3DCD6DBDDDCDF9E
:105A9000DCE0DFE6E6E1E9E8EAF1EFF3F2F9F9FE4E
:105AA00002FF020907080B0A0C090C05080101FB9B
:105AB000F7F4E7E9E2E2DEDDDFE1E6E9EBEDF8FB52
:105AC000FF00090D0F17191F202328282E2A322F17
:105AD0002E302F322F2F302E302E312C2E2C302FD7
