:100000000C94CA320C9471330C9471330C94713388
:100010000C9471330C9471330C9471330C947133D0
:100020000C9471330C9471330C9471330C947133C0
:100030000C9471330C949B340C9471330C94713385
:100040000C9471330C9471330C9471330C947133A0
:100050000C9471330C9471330C9471330C94713390
:100060000C9471330C9471330C9471330C94713380
:10007000A73FB53F85405F444944B83FC73FD63F9F
:100080002F44E43FF23F00C00000B0077F00C000F3
:1000900000C10000B1076A00C20000B2076C009006
:1000A000476100C20000923B6000C10000914361C3
:1000B0000443000090470008923B0006905358000C
:1000C000914F580490530000914F000290474D000B
:1000D00091434D0490470000914300099053610003
:1000E000914F610490530000914F000890475C00CD
:1000F00091435C1143000090470001535B00914F16
:100100005B0590530000914F0001904748019143D7
:100110004800923B5E0490470000914300089053D2
:100120006000914F6002923B0002914F000090539B
:10013000000892355F0190455B0091415B0490455A
:1001400000009141000A9235000490514100914D08
:100150003D0490510000914D0003904536009141BF
:100160003204904500009141000890515B00914D90
:10017000570490510000914D000892355F00904562
:100180005C0091415C0D9235000591410000904565
:100190000001514400914D400092375D04905100A0
:1001A00000914D00029045310091412D0490450091
:1001B00000914100029237000690515F00914D5B23
:1001C0000092395E0490510000914D000692390072
:1001D000033B5F009047590091435904904700004A
:1001E00091430009923B000690533D00914F3D041E
:1001F0004F00009053000247320091433204430005
:100200000090470008535700914F57049053000047
:10021000914F0008923B5E00904759009143590D61
:10022000923B00059047000091430001905340002D
:10023000914F4000923C5E0490530000914F0002A9
:1002400090472D0091432D02923C00029047000000
:1002500091430008923E5D0090535B00914F5B0418
:1002600090530001914F0005923E0003405D0190C4
:10027000455E0091415E0490450000914100059269
:100280004000093E5D0090514100914D3A0490516B
:100290000000914D00019045360091412F0490459A
:1002A000000091410001923E000790515B00914D8A
:1002B0005400923C5D0490510000914D0005923C29
:1002C000000490455E00923B5D0091415E119045B7
:1002D00000009141000190514400914D3D01923B3D
:1002E000000390510000914D000290453100923C76
:1002F0005D0091412A0541000090450008515F00D2
:10030000914D58044D000090510007923C00013B74
:100310005C0191435C0090475C04470000914300FE
:1003200004923B000B914F410090533D04914F00CC
:1003300000905300029143360090473204914300ED
:100340000090470008914F5B009053570453000002
:10035000914F000943590090475900923B5C0A3B7A
:100360000006395C019143000090470001914F4421
:100370000090534004530000914F0002433100901D
:10038000472D049239000090470000914300084F28
:100390005F0090535B0192375B0390530000914FD5
:1003A000000592370003355B0091455B0190485B87
:1003B000044800009145000692350004904A66000A
:1003C0009147660092375B0691470000904A00040F
:1003D0009237000E395B00904C660091486607909A
:1003E0004C0000914800039239000F3B5C00904D97
:1003F0005B00914A5B04923B0001914A0000904DE2
:1004000000094C6500923C5C0091486507923C00F5
:100410000391480000904C000F4A5B0091475B013C
:10042000923E5C363E0001904A000191470000FF79
:100430002F000002080106000100EC01FF0002018C
:100440000106000100EC01FF00FF00FF00FF0002B9
:10045000010100EC00FF0002080008480108340117
:10046000083E01050000FF0002080000EC01083C06
:1004700001084401083C010850010846010500003C
:10048000FF0002080000E200084805050000FF0028
:1004900002080000F90008542D050000FF000000CC
:1004A0003204000000000000003D040000000000D5
:1004B00000004804000000000000004A04000000A2
:1004C000000000004C04000000000000004E04008A
:1004D000000000000000560400000000000000675B
:1004E0000400000000000000810400000000000083
:1004F000008F0400000000FEFEFEFEFE0000FEFE77
:10050000FEFEFE00FFAD01FEFEFEFE00FFAD01FEA1
:10051000FEFEFE00FFAD00FEFEFEFE00FFAD00FE93
:10052000FEFEFE00FFAD00FE0000FE00FFFF00002B
:10053000FFFF0000FFFFFFFEFEFEFEFEFEFEFEFED2
:10054000FEFEFEFEFEFEFEFEFEFEFEFEFEFEFEFECB
:10055000FEFEFEFEFEFEFE00000000FEFEFEFEFFB2
:10056000AD00AD0000FEFEFFAD00AD00AD00FEFF32
:10057000FFFFADFFAD00FEFEFEFEFEFEFEFEFEFE38
:10058000FEFEFEFEFEFEFEFEFEFEFEFEFEFEFEFE8B
:10059000FEFEFEFEFEFEFEFEFEFEFEFEFEFEFEFE7B
:1005A000FEFEFEFEFEFEFEFEFEFEFEFEFEFEFEFE6B
:1005B000FEFEFEFEFEFEFEFEFEFEFEFEFEFEFEFE5B
:1005C000FEFEFEFEFEFEFEFEFEFEFEFE0000FEFE47
:1005D000FEFEFE000B0B00FEFEFE006E1E000BFE7C
:1005E000FEFE0014000B14FEFEFEFE000B146EFE59
:1005F000FEFE000B146E6EFEFE0000FEFEFEFEFE12
:10060000000B0B00FEFEFE000B146E6E00FEFE0BD8
:10061000146E6E1E1E00FE146E6E1E1E1E1E006EDA
:100620006E1E1E1E1E140B6E1E1E1E1E14140B1E8E
:100630001E1E1E14140B0BFEFEFEFEFEFEFEFEFE34
:10064000FEFEFEFEFEFEFEFEFEFEFEFEFEFEFEFECA
:10065000FEFEFEFEFEFEFEFEFEFEFEFEFEFEFE00B8
:10066000FEFEFEFEFEFEFE00FEFEFEFEFEFEFE00A6
:10067000FEFEFEFEFEFEFEFEFEFEFEFEFEFEFEFE9A
:10068000FEFEFEFEFEFEFEFEFEFE0000000000FE80
:10069000FE000B146E1E1EFEFE000B146E1E1EFED0
:1006A000FE000B146E1E1EFEFE000B146E1E1EFEC0
:1006B000FE000B146E1E1EFEFEFEFEFEFEFEFEFE85
:1006C000FEFEFEFEFEFEFE0000FEFEFEFEFEFE1430
:1006D0000B00FEFEFEFEFE140B00FEFEFEFEFE14F0
:1006E0000B00FEFEFEFEFE140B00FEFEFEFEFE14E0
:1006F0000B00FEFEFEFEFE00FFFFAD00FFFF00FE52
:1007000000FFFFADFFFF00FEFE00FFFFFFFF00FE4A
:10071000FE00FFFFFFFF00FEFEFE00FFFFFFFFFEEB
:10072000FEFEFE00FFFFFFFEFEFEFEFE00ADADFE84
:10073000FEFEFEFEFE0000AD00AD00FFAD00FEAD12
:1007400000AD00FFAD00FEAD00AD00FFAD00FEADA1
:1007500000AD00FFAD00FEFFFFFFFFAD00FEFEFF9E
:10076000FFFFADAD00FEFEADADADAD00FEFEFE0087
:10077000000000FEFEFEFEFEFE000B146E6E1EFE6E
:10078000000B146E6E1E1E000B146E6E1E1E1E00DD
:10079000146E6E1E1E1E1EFE006E1E1E1E1E14FEFB
:1007A000FE001E1E1E1414FEFEFE001414140BFE8A
:1007B000FEFEFE000B0B0B1E1E1E14140B0B001E68
:1007C0001E14140B0B00FE1E14140B0B00FEFE1463
:1007D000140B0B000000FE140B0B0000000B000BB1
:1007E0000B0000000B140B0B00FE000B1414140084
:1007F000FEFEFE00141E1EFEFEFEFEFEFEFEFEFEC1
:10080000FEFEFEFEFEFEFEFEFEFEFEFEFEFEFEFE08
:10081000FEFEFEFEFEFEFEFEFEFEFEFEFEFEFE00F6
:10082000FEFEFEFEFEFEFE0B00FEFEFEFEFEFE14C3
:100830000B00FEFEFEFEFEFE00000B146E1E1E00F0
:100840001E000B146E1E1E0014000B146E1E1E00E4
:100850000B000B146E1E1EFE00000B146E1E1EFEFF
:10086000FE000B146E1E1EFEFE000B146E1E1EFEFE
:10087000FE000B146E1E1E140B000000000000147E
:100880000B00001E1E1E1E140B0000141414141462
:100890000B00000B0B0B0B140B00000000000014EE
:1008A0000B00FEFEFEFEFE140B00FEFEFEFEFE141E
:1008B0000B00FEFEFEFEFE00000000000000FE1E1B
:1008C0001E1E1E1E1E0B001414141414140B000BF9
:1008D0000B0B0B0B0B0B0000000000000000FEFEDA
:1008E000FEFEFEFEFEFEFEFEFEFEFEFEFEFEFEFE28
:1008F000FEFEFEFEFEFEFEFEFEFEFEFE000000FE12
:10090000FEFEFEFEFEFEFEFEFEFEFEFEFEFEFEFE07
:10091000FEFEFEFEFEFEFEFEFEFEFEFEFEFEFEFEF7
:10092000FEFEFEFEFEFEFEFEFEFEFEFEFEFEFEFEE7
:10093000FEFEFEFEFEFEFEFEFEFEFEFE00141EFE9F
:10094000FEFEFEFEFE0014FEFEFEFEFEFEFE00FEAD
:10095000FEFEFEFEFEFEFEFEFEFEFEFEFEFEFEFEB7
:10096000FEFEFEFEFEFEFEFEFEFEFEFEFEFEFEFEA7
:10097000FEFEFEFEFEFEFE1E140B00FEFEFEFE1E32
:100980001E140B00FEFEFE141E1E1E0B00FEFE00BB
:10099000141E1E140B00FEFE001414140B00FEFEA9
:1009A000FE000B0B00FEFEFEFEFE0000FEFEFEFE45
:1009B000FEFEFEFEFEFEFEFEFE000B146E1E1EFE82
:1009C000FE000B146E1E1EFEFEFE0000000000FE68
:1009D000FEFEFEFEFEFEFEFEFEFEFEFEFEFEFEFE37
:1009E000FEFEFEFEFEFEFEFEFEFEFEFEFEFEFEFE27
:1009F000FEFEFEFEFEFEFE140B00FEFEFEFEFE14DC
:100A00000B00FEFEFEFEFE0000FEFEFEFEFEFEFEF3
:100A1000FEFEFEFEFEFEFEFEFEFEFEFEFEFEFEFEF6
:100A2000FEFEFEFEFEFEFEFEFEFEFEFEFEFEFEFEE6
:100A3000FEFEFEFEFEFEFE030300010208090202A6
:100A4000020203030304050A0B0C10111203030630
:100A500007020D0E0F1314021B1600000000000009
:100A60000000000000000000000000000000000086
:100A70000000000000931E1A1B1C1D1E1F1A1B1CC9
:100A80001D1E1F1A1B1C1D1E1F1A1B1C1D1E1F9422
:100A900095969798999596339798999596339798B0
:100AA0009995963397989995963397050600000087
:100AB0000000000000000000000000000000000036
:100AC0000000000000011011000000000000000004
:100AD0000000000000000000000000000000000016
:100AE0000C1E1F00000000000000000000000000BD
:100AF00000000000000000000000001A9633000013
:100B000000000000000000000000000000000000E5
:100B10000000000000009705060000000000000033
:100B200000000000000000000000000000000000C5
:100B30000001101100000000000000000000000093
:100B40000000000000000000000000000C1E1F005C
:100B50000000000000000000000000000000000095
:100B6000000000000000001A9633000000000000A2
:100B70000000000000000000000000000000000075
:100B800000009705060000000000000000000000C3
:100B90000000000000000000000000000001101133
:100BA0000000000000000000000000000000000045
:100BB00000000000000000000C1E1F0000000000EC
:100BC0000000000000000000000000000000000025
:100BD0000000001A96330000000000000000000032
:100BE0000000000000000000000000000000970569
:100BF00006000000000000000000000000000000EF
:100C000000000000000000000001101100000000C2
:100C100000000000000000000000000000000000D4
:100C2000000000000C1E1F0000000000000000007B
:100C30000000000000000000000000000000001A9A
:100C400096330000000000000000000000000000DB
:100C500000000000000000000000970506010203EC
:100C6000040506010203040506010203040506014A
:100C700002030405060110110C0D0E0F10110C0DCE
:100C80000E0F10110C0D0E0F10110C0D0E0F101178
:100C90000C9A1F1A1B1C1D1E1F1A1B1C1D1E1F1A1F
:100CA0001B1C1D1E1F1A1B1C1D1E1F9B0604010260
:100CB000030405060C0D0E0F10111A1B1C1D1E1F20
:100CC0002E2F3031323306040102030405060C0DC9
:100CD0000E0F10111A2021221E1F2E3435363233EA
:100CE00006040102030405060C0D0E0F10111A2351
:100CF00024251E1F2E37383932330604010203041F
:100D000005060C12131410111A2627281E1F3A3B31
:100D10003C3D323306040102030405060C532454FF
:100D200010111A6B6C6D1E1F7B7C7D7E7F33060459
:100D30000102030405060C55565710111A6E6F7008
:100D40001E1F808182837F3306040102030405068F
:100D50000C58595A10111A7172731E1F8485868798
:100D6000883306040102030405060C0D0E0F101152
:100D70001A1B1C1D1E1F2E898A8B32330502070881
:100D8000090A0B15161718190502292A2B2C2D3EB6
:100D90003F4041420702434445464748495B5C5D4A
:100DA0005E5F606109024A4B4C4D4E4F505152629A
:100DB000636465666768696A07027475767778792F
:100DC0007A8C8D8E8F9091920000000000000000C0
:100DD0000000000000000000000000000000000013
:100DE0000000000000000000000000000000000003
:100DF00000000000000000000000000000000000F3
:100E00000000000000000000196B19226322226B11
:100E1000196B2222622222222222192222226B6BA9
:100E2000192222196B222B6B19226B196B6B2A6BFF
:100E3000196A6B6B226B226B6322746B6B222B2201
:100E40006B626B6B226B226B6B6B2122226A182AFE
:100E50006B6B6B222A22196B2A2A6B222A2A2122E7
:100E60006B222A212A6B21196B6B212122736B22A1
:100E700022BD196A226B732262BD21212A2A6B2AA4
:100E800022732A19212A2A732A736B6B22222122A8
:100E90002A6B6B216B222A21226B6B19226A6B222F
:100EA00021226A2219196A2A2221222222186A6B17
:100EB0002B22191922196B2A222A6B2263226B1901
:100EC00022226B6B6B21736B222A6B22226B212AED
:100ED00022222A6B2B6B2A21212A2A6B6B2A2A2297
:100EE000222A742A2B222A22222A2A2B6A21216BC7
:100EF0006B222B73196A197373226A7419222A2AB6
:100F00006B6B6B6A6B6B6B2A2A2A216A2A2121225E
:100F1000192221222A19221921226B2122226B2235
:100F20006B22222222216B6A227421192A222A6B27
:100F30006A6B7319226B2A19732B746B6B212A222B
:100F40006B626B732A2A2A192A6B2A19196B6B197F
:100F500022226B2219216B226B197321196A2A2212
:100F600074196A22196B21222A6B216B22222A2AE8
:100F70002A2A226B2A19226A226B21226A22186AE3
:100F80006A6A22222222222109090909090909097A
:100F9000002727272727272700272727272727272F
:100FA0000027276FAEF6536D002F77FFFFF65BAD7E
:100FB0000037B6FFFF00000000375BFFFFF6521C52
:100FC000003F2D49B6FFFF09090909090909090967
:100FD00027272727272727272727272727272727A1
:100FE000B6AEAD656D651C27FFFFFFFFFFAD001CB2
:100FF000005BFFFF0000005B125BFFFF000012FFC1
:101000001B6DFFFF00007FFF090909090909090994
:101010002727272727272727272727272727272760
:101020002FAF132627276FB6B6FF5B132F2FFFFFB7
:10103000FFFFFF521337FFFFFFADFFFF091BFFFF4D
:10104000FF52F6FFB600FFFF09090909090909095E
:101050002727272727272727272727272727272720
:10106000AEAEA51C26B6AEAEF6B6FFFF52FFFFFF32
:101070005B00ADFFAD0000ADF6ADFFFFA40000AD1D
:10108000FFFFFF5B00001BAD09090909090900000A
:101090002727272727271F0027272727272713004A
:1010A000A5656D651D271300FFFFFF5B00251B0075
:1010B000FFAD0000001C1B00FFAD00001B371B0034
:1010C000FFAD00123F3F1B006B6B226B226B6B224C
:1010D0006222196B22227419196B73222222742145
:1010E000226B6B6B19226A7322222A6A222121BC8D
:1010F000222A2A196B21217422212A2219732262A1
:1011000022226A22196A73216B196B2222226B6ACE
:101110006B6B6B212A22216B226B6B106A2221746C
:1011200019626B11622222742122621922746B747B
:101130006A186B106A6B6B6A6A2262106222222242
:101140002122211922222222222B6B1974222A7396
:10115000221A6B196B6B212A19227422222A6A2106
:101160002263742222222A211A6B6B222A212A222C
:1011700062226B732A212A2A6A222273216B6B2A2C
:10118000226A19226A6B2A732A6B6B22216A2A6AE5
:101190006B222A226B222A732A2A73196B2A2A6B42
:1011A00073222A226B2A6B6B7373212122732A22EA
:1011B0002B6B212A196B6B212A6B196B6A216B2A05
:1011C0002A2A2273226A736B2A22732A2A736B22B9
:1011D00021226B73226B746B2A226A2A6B2A737327
:1011E0006B2273226B6B2A2A742274192A732A2A9F
:1011F0006B6B7319107C216B196B6B6B1074222A4B
:1012000021227322226B73216B222A212222222285
:101210006B22226B196B21216B6B6B7321222A10BD
:10122000736B2B732A212A6B2A7322732A29217349
:10123000216A192A2A7321216B21732A2A216A190A
:101240002173212A2A212A216B196B2222226B6AFF
:101250006B6B6B212A22216B226B6B106A2221742B
:1012600019626B11622222002122621922000013EE
:101270006A186B1000131D006A226200131D001D06
:10128000212200131D1D1DFF222B6B1974222A73AE
:10129000221A6B196B6B212A19227422222A6A21C5
:1012A00000000000000000001313131313131313A6
:1012B000001D1D1D1D1D00001D1D1D1D1D1D1D1DB5
:1012C000FFFF1D1D1DFFFFFF2A6B6B22216A2A6A8B
:1012D0006B222A226B222A732A2A73196B2A2A6B01
:1012E00073222A226B2A6B6B0000212122732A228F
:1012F0001313002A196B6B21001D13006A216B2A3E
:101300001D1D1D13006A736B003F3F64A4FFFF5255
:10131000003F7FFFFFFFAD0000372DA45B490000B9
:101320000037371300000012002F2F26131C262F22
:10133000002F2F2F2F2F2F2F00140A0A0A0A0A0A14
:101340000000000000000000006DFFFF0909FFFF22
:10135000006EFFFF52ADFFFF002D5B5200005252A6
:10136000252E0000000000002F2F2E1C1D2E2E25E4
:101370002F2F2F2F2F2F2F2F0A0A0A0A0A0A0A0AA5
:101380000000000000000000F6F6FFFFFFA4FFFFD2
:10139000490000A4FFFFFFFF000009005B52495213
:1013A0000013372E00000000252F2F2F2E1C25267E
:1013B0002F2F2F2F2F2F2F2F0A0A0A0A0A0A0A0A65
:1013C0000000000000000000A4FFFF5B001B366D62
:1013D0005B5BFFFF091B3F6D09005B52090036652F
:1013E0000000130000002E25252E2F1C252E2F2F48
:1013F0002F2F2F2F2F2F2F2F0A0A0A0A0A0A0A0A25
:101400000000000000000000FFF600123F3F1B003C
:10141000FFFF00093F3F1B005B52000037371B00F6
:101420000000001337371B00251C252F2F2F1B0012
:101430002F2F2F2F2F2F13000A0A0A0A0A0A0A0039
:101440000000000000000000216B21222222222245
:1014500022217321222A2119226A226A216B221059
:101460001973196A19216B62622274226B186B62FC
:101470006B182222626B2262226B18192274216A75
:10148000226A6A101973212122211819226B226AFB
:101490006B221019196B216B196B2219086B212112
:1014A00010196B6210226A21222219626B21106AC4
:1014B000192B6A106A7322222121741810226B21C1
:1014C00021196B6A08191921226A1910626B2A7393
:1014D000222A6B10226B21732221196B226B21733C
:1014E0006B221962212A2A2A212A2A196B2A2A21E7
:1014F0002A216A18622A2A2A22216A1921212A21EC
:1015000022212122222121196B2221732A2A2273CE
:101510006B19196B2273212A6B21212A6B2A2A6BE2
:101520007319212A6B2A6B212A2221212A21732156
:101530006A6219192A216B216B7C19212A182173DF
:10154000216A222A2122222A6B186A732B6B2222FB
:10155000736B6A6B217321196B6A2A6B22227421C7
:101560002A216A197421222A2A212A106B6A182B2F
:101570006A2129196A6B2A2A2A2173196B216B2A7D
:101580002A186A192A22186B1873212A2A212A106C
:101590002A6B6A2A2A217321226B6A216A216A2115
:1015A0002A222A6A2A21212A2A2A2A2A6A21212150
:1015B0002A2A2A6B2A2A6A212A6A2A196B18226A7D
:1015C00021222A196B21182222211819226B226A42
:1015D0006B221019196B216B196B2219086B2121D1
:1015E00010196B6210226A21222219626B21106A83
:1015F000192B6A106A73220021217418100000133D
:1016000021196B6A00131D00226A1910626B2A737C
:10161000222A6B10226B21732221196B226B2173FA
:101620006B221962212A2A2A212A2A196B2A2A21A5
:101630000000000000000000131313131313131312
:10164000001D1D1D1D1D00006B2221732A2A2273FF
:101650006B19196B2273212A6B21212A6B2A2A6BA1
:101660007319212A6B2A6B212A2221212A21732115
:101670006A6219192A216B21000019212A18217385
:101680001313002A2122222A22211819226B220058
:101690006B22101919000013196B221900131D0079
:1016A00010196B00131D001D222200131D1D1DFFAC
:1016B000192B00131D13FFFF2121001D1D13FFFF18
:1016C0002119001D1D13FFFF000000000000000095
:1016D0001313131313131313001D1D1D1D1D0000E1
:1016E0001D1D1D1D1D1D1D1DFFFF1D1D1DFFFFFFC0
:1016F000FFFFFF1DFFFFFFFFFF0000FF0000FFFFD8
:10170000FF0000FF0000FFFF6B2221732A2A2273D3
:101710000000196B2273212A1313002A6B2A2A6BEB
:10172000001D13006B2A6B211D1D1D130021732149
:10173000FF131D1300216B21FF131D1D00182173C2
:10174000FF131D1D0022222A222100131D13FFFF5B
:101750006B22001D1D13FFFF196B001D1D13FFFFE2
:101760001000131D1D13FFFF2200131D1D1D13FF6D
:101770001900131D1D1D1D000013131D1D1D1D002F
:1017800000131D1D1D1D1D00FFFFFF1DFFFFFFFF9F
:10179000FF0000FF0000FFFFFF0000FF0000FFFF51
:1017A000FFFFFFFFFFFFFFFFFF0000000000FFFF44
:1017B0000000520000000000005200000000000085
:1017C0000000000000000000FF131D13002A227318
:1017D000FF131D1D0073212AFF131D1D002A2A6BF4
:1017E000FF131D1D13006B21131D1D1D13007321FD
:1017F0001D1D1D1D13006B211D1D1D1D13130073C9
:101800001D1D1D1D1D13002A00000000000000000A
:10181000001414141414141400142727272727273E
:101820000014272727272727001C2F2F77B6F653CA
:10183000001C3777FFFFF65B001C37B6FFFF000088
:10184000001C3F5BFFFFF65200000000000000009C
:1018500014141414141414142727272727272727B0
:1018600027272727272727276DB6AEAD656D651C6F
:10187000ADFFFFFFFFFFAD0000005BFFFF000000BA
:1018800024125BFFFF0000120000000000000000B7
:101890001414141414141414272727272727272770
:1018A00027272727272727272F2FB713262F2F77DD
:1018B0001CB6FF5B132F37FF5BFFFFFF521B37FF89
:1018C000FFFFADFFFF091BFF00000000000000004C
:1018D0001414141414141414272727272727272730
:1018E0002727272727272727B6AEAEA51C26B6B65B
:1018F000FFF6B6FFFF52FFFFFF5B00ADFFAD00003C
:10190000FFF6ADFFFFA40000000000000000000093
:10191000141414141414140027272727272727002A
:101920002727272727272700AEA5656D65252F00C8
:10193000FFFFFFFF5B002500ADFFAD0000001C00B6
:10194000ADFFAD00001B360018226B19196A191182
:1019500021181A110800000019080000000A0A0ADC
:1019600000000A0A0A0A09090800000A0909000019
:1019700019110000000000002122221911080000A6
:10198000192222192A192A22110808080000000029
:10199000000A0A0A0A0A0A000A0A090909000013C9
:1019A0000909000000131D0000000000131D001DA8
:1019B000000000131D1D1DFF000000131D13FFFF7D
:1019C00022191108080800000000000000000000B3
:1019D000000000000000000013131313131313136F
:1019E000001D1D1D1D1D00001D1D1D1D1D1D1D1D7E
:1019F000FFFF1D1D1DFFFFFFFFFFFF1DFFFFFFFF7F
:101A0000000000000000000000000000080911199B
:101A10000A0A0A0A0A0A0A0A000009090909090A3F
:101A20001313000000000009001D13000000000057
:101A30001D1D1D1300000000FF131D1300000000FA
:101A400000000000081119621921216B187C21186F
:101A500000000011116B73180A0A0A000000111926
:101A600009090A0A0A000000000009000000000835
:101A700000000000000811220000091119212A1994
:101A8000102A21216A2222186A212A216B19192A77
:101A90002221222A2273106A102A21212A6A2A1856
:101AA0002A6B186A2A222A212A22106B2A22212A2A
:101AB00022221022222121212A6219192119191901
:101AC0006A1919222219191811080800131D001D7E
:101AD000000A00131D1D1DFF0A0A00131D13FFFF3E
:101AE0000909001D1D13FFFF0000001D1D13FFFF4E
:101AF0000000131D1D13FFFF0000131D1D1D13FF0C
:101B000022191108080800001D1D1D1D1D1D1D1D89
:101B1000FFFF1D1D1DFFFFFFFFFFFF1DFFFFFFFF5D
:101B2000FF0000FF0000FFFFFF0000FF0000FFFFBD
:101B3000FFFFFFFFFFFFFFFFFF0000000000FFFFB0
:101B40000000000000000000001D1300080911192A
:101B50001D1D1D13000A0A0AFF131D130009090A9F
:101B6000FF131D1D00000009FF131D1D00000000D4
:101B7000FF131D1D13000000131D1D1D1300000089
:101B800000000000081119621100131D1D13FFFF52
:101B90000000131D1D1D13FF0A00131D1D1D1D0038
:101BA0000013131D1D1D1D0000131D1D1D1D1D00F7
:101BB00000131D1D131D131D00131D1D131D1D13CB
:101BC0002219110808080000FFFFFFFFFFFFFFFFB9
:101BD000FF0000000000FFFF0000520000000000B6
:101BE00000520000000000000000000000000000A3
:101BF000000000000000001D1D00000000001D137B
:101C00000000000000000000FF131D1D130011194B
:101C1000131D1D1D13000A0A1D1D1D1D1300090A99
:101C20001D1D1D1D131300091D1D1D1D1D1300006D
:101C3000131D1D1D1D1300001D1D131D1D13000070
:101C4000000000000811196218226B19196A191195
:101C500021181A110800000019080000000A0A0AD9
:101C600000000A0A0A0A09090800000A0909000016
:101C700019110000000000002122221911000000AB
:101C8000192222192A192A2200131D1D131D131DA2
:101C900000131D1D131D1D1300131D1D1D001D1DF3
:101CA00009001D1D1D00000000001D1D1D1D000060
:101CB00000131D1D1D1D1D00000000001D1D1D1D0C
:101CC0002219110808080000000000000000001D93
:101CD0001D00000000001D131D1D1D131D1D1D1DD9
:101CE0005252520052525200FFFFFF00FFFFFF000E
:101CF00000FFFF00FFFF00001D1D1D1D1D1D1D1D00
:101D00000000000000000000131D131D1D1300192A
:101D10001D1D131D1D13000A1D001D1D1D13000A8E
:101D200000001D1D1D130009001D1D1D1D000000CC
:101D30001D1D1D1D1D1300001D1D1D1D000000008B
:101D4000000000000811196200243F2D49B6FFFF72
:101D5000001C3F3F64A4FFFF001C377FFFFFFFAD67
:101D6000001C3725A45B4900001C2F2F1300000026
:101D700000142F2F26131426001427272727272780
:101D80000000000000000000091B6DFFFF00007F45
:101D900052006DFFFF0909FF00006EFFFF52ADFF0B
:101DA00000002D5B520000520A252E0000000000AA
:101DB0002F2F2F26141D26262727272727272727BB
:101DC0000000000000000000FFFF52F6FFB600FF19
:101DD000FFF6F6FFFFFFA4FFFF490000A4FFFFFF8F
:101DE00052000009005B52490000132F260000003A
:101DF0001D1D2F2F2F26141D27272727272727278D
:101E00000000000000000000FFFFFFFF5B00001B60
:101E1000FFA4FFFF5B001B36FF5B5BFFFF091B3767
:101E20005209005B5209002E000000130000002E32
:101E3000261D2627141D262F272727272727272754
:101E40000000000000000000ADFFAD00123F3F00A9
:101E50006DFFF600123F3F006DFFFF0009373700AE
:101E6000655B52000037370025000000132F2F005C
:101E70002F1D141D2F2F270027272727272727004F
:101E800000000000000000006B6B2122226A182A6B
:101E90006B6B6B222A22196B2A221A111111090964
:101EA0006A11000000000000620009151F1F1F1FBB
:101EB00019000A272727272719000A2F2F2F130079
:101EC0001900123737371B002A736B6B222221222D
:101ED0002A6B6B216B222A21091119111911111179
:101EE00000000000000000001F15140A010B15156A
:101EF0002727272727272727001C2F2F2F2F2F2F74
:101F00000013373737373737222A6B22226B212AC3
:101F100022222A6B2B6B2A21081111111A2A2A223C
:101F20000000000000212A2215151F1F0011216B3F
:101F3000272727270A1119631400000008221A080E
:101F40001C1212006B2208002A2A216A2A2121224F
:101F500019222121221922192122621109196B2229
:101F60006B19080000086B221909000B15001119E4
:101F700008000B272713000800132F2F2F2F09000D
:101F80001337373737372E002A6B2A19196B6B191D
:101F900022226B2219216B226211110808111111E2
:101FA0001100000000000000000B151F1F1F1F156F
:101FB00000132727271F272700132F2F2F0A001C66
:101FC000001B373737120000196B19226322226B6E
:101FD000196B221A1A1A222211110909080819224A
:101FE00000000000000A000914090B1F1F1F140045
:101FF00027271414272727142F2F2F141C2F2F2F98
:102000002F373737001C37376B6B2122226A182A8B
:102010006B6B6B222A22196B2A22111111111119D3
:10202000110800000000000800000B1E1F1F15090A
:102030000B1E2727271401112F2F2F260A081A2AD3
:10204000372F1B00112A2A736B6B2122226A182A50
:102050006B6B6B222A22196B2A2A6B191111090941
:102060006B1909000000000062090001141F1F1F06
:1020700011000927272727270900262F2F130000E3
:1020800000093737370000002A736B6B22222122A8
:102090002A6B6B216B222A21111A6B19226A6B1190
:1020A00000006222191909001E0A112219080009EC
:1020B000270119190800091E000011080009262F20
:1020C00000000000002E3725222A6B22226B212AD5
:1020D00022222A6B2B6B2A21111A2A6B6B221921BF
:1020E00000086B2A220800111500112A09000B00B4
:1020F00027140011000A27132F2F1200001D2F2F65
:1021000024373709093737372A2A216A2A21212219
:10211000192221222A19221921221A111911110911
:102120006A1900000000000009090014000A1F1FBE
:1021300000000A27130A27271300262F26122F2F05
:1021400037243737371B37372A6B2A19196B6B1926
:1021500022226B2219216B2211081111196A2A22DD
:1021600000000000196B21221F1F1F0911222A2ABB
:1021700027272701221922221C0000086A22181191
:1021800037371B0822222211196B19226322226B76
:10219000196B22226222222222221111091111110D
:1021A0001911000000000000090001141F1F1F1575
:1021B00000001E272713272700132F2F1C00252F71
:1021C0000025373712002E376B6B2122226A182A1E
:1021D0006B6B2A222A22196B11111111192211116C
:1021E00000000000081100001F1F1F150008001F3D
:1021F0001E2727270A0013272F132F2F2500262FEE
:1022000037122537372437372A736B6B2222212266
:102210002A6B6B216B222A2109111108111111114E
:1022200000000000000000001F1F1F1F1F1F151FC0
:102230002727272727271D272F2F2F1C0000252F73
:1022400036373737371B2437222A6B22226B212A55
:1022500021222A6B2B6B2A21081111111A2A2A22FA
:1022600000000000000919221F1F1F160B00086B39
:10227000271D2727271E00632F09001D2F2F09194F
:10228000371C2437373709226B196B2222226B0047
:102290006B6B6B212A000013226B6B1000131D0067
:1022A00019626B00131D001D212200131D1D1DFF4F
:1022B0006A1800131D13FFFF6A22001D1D13FFFF84
:1022C0002122001D1D13FFFF2A6B6B22216A2A6A3F
:1022D00000002A226B222A73131300196B2A2A6B1F
:1022E000001D13006B2A6B6B1D1D1D1300732A222A
:1022F000FF131D13006B6B21FF131D1D00216B2AA3
:10230000FF131D1D006A736B6B196B2222226B0079
:102310006B6B6B212A000013226B6B1000131D1DC9
:1023200019626B00131D1D1D212200131D1D1D1D93
:102330006A1800131D1D1D006A22001D1D1D0000CE
:102340002122001D1D1D1D000000000000000000D6
:1023500013131313131313131D1D1D1D1D1D1D1DFD
:102360001D1D1D1D1D1D1D1D1D1D1D1D1D1D1D1D9D
:102370001D1D1D1D1D1D1D00001D1D1D1D1D000001
:102380001D1D1D1D1D1D1D002A6B6B22216A2A6A41
:1023900000002A226B222A73131300196B2A2A6B5E
:1023A0001D1D13006B2A6B6B1D1D1D1300732A224C
:1023B0001D1D1D13006B6B21001D1D1D00216B2AAF
:1023C0001D1D1D1D006A736B6B196B2222226BFF92
:1023D0006B6B6B212AFFFFEC226B6B10FFECE2E2D0
:1023E00019626BFFECE2E2E22122FFECE2E2E2E2C0
:1023F0006A18FFECE2E2E2FF6A22FFE2E2E2FFFF9C
:102400002122FFE2E2E2E2FFFFFFFFFFFFFFFFFF0B
:10241000ECECECECECECECECE2E2E2E2E2E2E2E24C
:10242000E2E2E2E2E2E2E2E2E2E2E2E2E2E2E2E28C
:10243000E2E2E2E2E2E2E2FFFFE2E2E2E2E2FFFF08
:10244000E2E2E2E2E2E2E2FF2A6B6B22216A2A6A1E
:10245000FFFF2A226B222A73ECECFF196B2A2A6BEE
:10246000E2E2ECFF6B2A6B6BE2E2E2ECFF732A2202
:10247000E2E2E2ECFF6B6B21FFE2E2E2FF216B2A7A
:10248000E2E2E2E2FF6A736B1A00123F3F3F362E30
:102490005A00123F3F3F3F3F1900123F3F3F253751
:1024A0001100123737371B1219080A2F2F2F13006C
:1024B0006A080000000009116A22621062212222CB
:1024C00021222119222222223F3F3F3F373F3F3F17
:1024D0003F3F361B123F3F3F3F3F3709123F3F3FD1
:1024E0003737372E12373737132F2F260A2F2F2F34
:1024F00000131300091313131108116B11080808B6
:10250000226A19226A6B2A733F3F3F001908001B99
:10251000362D2D000900093F1B0000000009373F40
:102520002E252525092F37372F2F2F2F272F2F2FF8
:10253000130A0A130A13141D0811080909080808C8
:102540002A2A2273226A736B3F3F3F1B363F3F2587
:102550003F3F2D001B3F3F3F3F3F3F3F3F3F3F3F00
:10256000371C1B1B1B2537371D0009080000272FB0
:10257000015A731908000A13106B6B6B106208087C
:1025800021227322226B7321001B3F3F3F12000068
:102590001B123F3F3F120000371B3F3F3F120024FA
:1025A000372E3737371C2E372F2F262F2F2F2F2F31
:1025B0000A0A00000A0A090011116B1911111919F0
:1025C0002173212A2A212A212D3F3F3F12123F3F0A
:1025D0003F3F3F3F00123F3F3F3F3F1B00123F3F07
:1025E00037371C00001237371D0A0811000A2F2F39
:1025F00008192A1911000A0A22212A22195A09093E
:1026000022226A22196A73213F1B082222226B6A46
:102610003F1B08212A22216B3F1B08106A222174CC
:1026200037250011622222742F1D001922746B7449
:102630000A0911106A6B6B6A111162106222222260
:10264000212221192222222200123F3F36001B2D77
:10265000110037373712001B1100132F2F2F2F2F88
:102660001911000A1427272721221A080000000048
:102670006A186B10626B6B626A22621062222222FD
:1026800021222119222222223F3F2400363F3F24CB
:1026900037371B2D373737372F2F2F2F2F25000098
:1026A000271E1E27270911210000000000082A22EA
:1026B00062226B732A212A2A6A222273216B6B2AD7
:1026C000226A19226A6B2A732D3F3F361B3F3F3F18
:1026D0003737373737373709000A2F2F2F2F130097
:1026E0001A00130A131E09116B1A080800001122A0
:1026F0002B6B212A196B6B212A6B196B6A216B2AB0
:102700002A2A2273226A736B3F3F3F3F3F3F3F3F7E
:102710003737371B37373737122F1C002E2F2F2F05
:102720000014090800000013110863192A7319081E
:102730006B6B7319107C216B196B6B6B1074222AF5
:1027400021227322226B73213F3F1B082222221178
:1027500024000009196B21112F26130911222A08C0
:102760001314270919212A6B080000092A2921734B
:10277000216A182A2A7321216B21732A2A216A19B6
:102780002173212A2A212A21002D3F3F12003F3F99
:102790000025373724123737000A2F2F2F2F2F2FDE
:1027A00011000A1E27272713221908000000001114
:1027B000222A2A196B21217422212A2219732262CA
:1027C00022226A22196A73213F1200363F3F3F36A8
:1027D00037000009373737121C091A00132F25005C
:1027E000081A6208001401111922621109091A74E9
:1027F0006A186B106A6B6B6A6A226210622222226C
:102800002122211922222222123F3F3F3F1B243F37
:1028100012373724000024370A2F2F2F2613252F95
:1028200000001313142709001A5A09080000091997
:1028300062226B732A212A2A6A222273216B6B2A55
:10284000226A19226A6B2A733F3F3F3F1B09096ABC
:10285000371C37371B0022732F09252F2F09116BC7
:102860000A0009271E13116B1919000000112A22F2
:102870002B6B212A196B6B212A6B196B6A216B2A2E
:102880002A2A2273226A736B2200131D1D13FFFF75
:102890006B00131D1D1D13FF1900131D1D1D1D00B1
:1028A0000013131D1D1D1D0000131D1D1D1D1D00EA
:1028B00000131D1D131D131D00131D1D131D1D13BE
:1028C00000131D1D1D001D1DFFFFFFFFFFFFFFFF6C
:1028D000FF0000000000FFFF0000520000000000A9
:1028E0000052000000000000000000000000000096
:1028F000000000000000001D1D00000000001D136E
:102900001D1D1D131D1D1D1DFF131D1D13002273F5
:10291000131D1D1D1300212A1D1D1D1D13002A6BD3
:102920001D1D1D1D131300211D1D1D1D1D13002127
:10293000131D131D1D1300211D1D131D1D130073D9
:102940001D001D1D1D13002A2200131D1D1D1D1D10
:102950006B00131D1D1D1D1D1900131D1D1D1D00C8
:102960000013131D1D1D1D0000131D1D1D1D131D16
:1029700000131D1D1D1D1D1300131D1D1D1D1D1DDF
:1029800000131D1D1D1D00001D1D1D1D1D1D1D1DD8
:10299000000052000000001D005200000000000076
:1029A0000000000000000000000000000000001D0A
:1029B0001D00000000001D131D1D1D1D1D1D1D1DE2
:1029C00000000000000000001D1D1D1D13002273EB
:1029D0001D1D1D1D1300212A1D1D1D1D13002A6B09
:1029E0001D1D1D1D13130021131D1D1D1D13002171
:1029F0001D1D1D1D1D1300211D1D1D1D1D130073FB
:102A0000001D1D1D1D13002A22FFECE2E2E2E2E29E
:102A10006BFFECE2E2E2E2E219FFECE2E2E2E2FF6B
:102A2000FFECECE2E2E2E2FFFFECE2E2E2E2ECE207
:102A3000FFECE2E2E2E2E2ECFFECE2E2E2E2E2E21E
:102A4000FFECE2E2E2E2FFFFE2E2E2E2E2E2E2E205
:102A5000FFFFADFFFFFFFFE2FFADFFFFFFFFFFFF47
:102A6000FFFFFFFFFFFFFFFFFFFFFFFFFFFFFFE293
:102A7000E2FFFFFFFFFFE2ECE2E2E2E2E2E2E2E29B
:102A8000FFFFFFFFFFFFFFFFE2E2E2E2ECFF227346
:102A9000E2E2E2E2ECFF212AE2E2E2E2ECFF2A6B70
:102AA000E2E2E2E2ECECFF21ECE2E2E2E2ECFF2126
:102AB000E2E2E2E2E2ECFF21E2E2E2E2E2ECFF73D8
:102AC000FFE2E2E2E2ECFF2A6B621111226A181ABD
:102AD000110900001122110800000A0B001100006A
:102AE000001E1F1F0B00000B00141F1F1500011FED
:102AF000000A272727001C2711002F2F2F132F2F05
:102B00001100243737373737196B621A1922192207
:102B100000110900001111080B00000A0B00000051
:102B20001E00001F1F1F1F1F1F0A0A1F1F1F1F1F1E
:102B3000271D1427272727272F2F262F2F2F2F2F0B
:102B400037373737371B3737222A6B22226B212A38
:102B500009111A11111111190000080000000008D4
:102B60001F00000B1F1F15001F0000131F1F1D005B
:102B70002700001327271D002F1C13252F2F2500AA
:102B800037373737373725002A2A21621A11212291
:102B9000192219110000191921221900010B08220C
:102BA0006B1A0800151E001A2111000B1F1F0B08BD
:102BB0001A00002627271D0009001C2F2F2F2F0A7F
:102BC00000093737373737252A6B2A19196B6B19E4
:102BD00022226211080811116B190900000000007F
:102BE0006B08000B1F1F1F1511000B1F1F1F1F1F3E
:102BF00008002627270A0A1D00092F2F2F00000092
:102C00000012373737001100196B19226322226B2B
:102C10000911090911111111000000000000000044
:102C20000B1F1F1F0000151F1F1F1F1F001E1F1F30
:102C30001327272726272727132F2F2F2F2F2F1331
:102C40001B373737373712096B6B21222262182A5C
:102C500011111109110908190000000000000000FD
:102C60000B0B0B1F1F1F1F0B1F140A1F1F1F1F0AF9
:102C700013000927272727090809092F2F2F2F00BD
:102C80002211003737372E0018226B19196A1911D3
:102C900021181A110800000019080000000A00009D
:102CA00000000A0A0A0013130800000A00131D1D81
:102CB000191100000000001D212222191108000036
:102CC000192222192A192A2211001D1D1D00000097
:102CD00000001D1D1D1D000000131D1D1D1D1D00DC
:102CE000131D1D1D1D1D1D1D1D1D1D1D1D1D1D1D1E
:102CF0001D1D1D1D1D1D1D1D0000000000000000EC
:102D00002219110808080000525252005252520073
:102D1000FFFFFF00FFFFFF0000FFFF00FFFF0000BD
:102D20001D1D1D1D1D1D1D1D1D1D1D1D1D1D1D1DD3
:102D30001D1D1D1D1D1D1D1D0000000000000000AB
:102D4000000000000000000000001D1D1D13001900
:102D5000001D1D1D1D000A0A1D1D1D1D1D13000047
:102D60001D1D1D1D1D1D13131D1D1D1D1D1D1D1DA7
:102D70001D1D1D1D1D1D1D1D00000000000000006B
:102D800000000000081119621921216B187C21181C
:102D900000000011116B73180A0A0A0000001119D3
:102DA00000000A0A0A0000001D13000000000008CD
:102DB00000000000000811220000091119212A1941
:102DC000102A21216A22221818226B19196A191156
:102DD00021181A110800000019080000000A00005C
:102DE00000000A0A0A0013130800000A00131D1D40
:102DF0001911000000000000212222191108000012
:102E0000192222192A192A221100131D1D00FFFF61
:102E10000000131D1D00525200131D1D1D00FFFF59
:102E2000131D1D1D1D1D00001D1D1D1D1D1D1D1D16
:102E30001D1D131D1D1D1D1D0000000000000000B4
:102E4000221911080808000052FFFF52FFFF52FF2D
:102E5000525252525252525252FFFF52FFFF52FFF1
:102E600000000000000000001D1D1D1D1D1D1D1D7A
:102E70001D1D1D1D1D1D1D1D00000000000000006A
:102E80000000000000000000FF001D1D13130019CA
:102E900052001D1D13000A0AFF001D1D1D13000016
:102EA000001D1D1D1D1D13131D1D1D1D1D1D1D1D83
:102EB0001D1D1D1D131D1D1D000000000000000034
:102EC000000000000811196218226B19196A191103
:102ED00021181A110800000019080000000AFFFF5D
:102EE00000000A0A0AFFECEC0800000AFFECE2E22C
:102EF0001911000000000000212222191108000011
:102F0000192222192A192A2211FFECE2E2FF0000FD
:102F100000FFECE2E2FFADADFFECE2E2E2FF000019
:102F2000ECE2E2E2E2E2FFFFE2E2E2E2E2E2E2E23D
:102F3000E2E2ECE2E2E2E2E2000000000000000077
:102F40002219110808080000AD0000AD0000AD0016
:102F5000ADADADADADADADADAD0000AD0000AD0002
:102F6000FFFFFFFFFFFFFFFFE2E2E2E2E2E2E2E259
:102F7000E2E2E2E2E2E2E2E2000000000000000041
:102F8000000000000000000000FFE2E2ECECFF198E
:102F9000ADFFE2E2ECFF0A0A00FFE2E2E2ECFFFF33
:102FA000FFE2E2E2E2E2ECECE2E2E2E2E2E2E2E2D0
:102FB000E2E2E2E2ECE2E2E20000000000000000F7
:102FC00000000000081119621921216B187C2118DA
:102FD00000000011116B73180A0A0A000000111991
:102FE000FFFF0A0A0A000000E2ECFF0000000008F0
:102FF00000000000000811220000091119212A19FF
:10300000102A21216A222218110808080000000055
:10301000000A0A0A0A0A0A0A0A0A09090909090920
:10302000090900000000000000000000000000008E
:103030000000000000000000000000000000000090
:10304000221911080808000000000000000000001C
:103050000A0A0A0A0A0A0A0A0909090909090909D8
:103060000000000000000000000000000000000060
:103070000000000000000000000000000000000050
:103080000000000000000000000000000809111905
:103090000A0A0A0A0A0A0A0A090909090909090A97
:1030A0000000000000000009000000000000000017
:1030B0000000000000000000000000000000000010
:1030C00000000000081119621A00123F3F3F3F3F05
:1030D0006B09003F3F3F3F3F2211002D3F3F3F2400
:1030E0001919001B37372E00212209002F2F09083C
:1030F0006A1811001E13091A6A2219000A082222EE
:1031000021222111112222223F3F3F3F37003F3F22
:103110003F3F3F3F24003F3F363F3F3F12003F3F8E
:103120001337372E0000373700262F1300002E2FBD
:10313000000A2701090026271900130919080000B1
:10314000221108226A6B2A733F3F3F3F3F3F2D0009
:103150003F09001B3F3F2D003F09001B3F3F2D0053
:103160003712001B37372D1C2F0A00132F2F252F46
:103170002713001327272727000910000001131326
:103180002A2A227319110800002D3F3F1B2E3F3FB2
:103190001B3F3F3F00243F3F373F3F2E1B2D3F3F0C
:1031A00037373737373737372F2F1C0000001C2FA2
:1031B0002727091108080A271F1D086B1011001383
:1031C00000005A22226A190812123F3F3F001100E4
:1031D00024123F3F3F0008003F093F3F3F090000E6
:1031E0003724373737251B2D2F2F1C2F2F2F2F2F0D
:1031F0002727132727272727130900091D27271407
:1032000008621908000000001B3F3F3F3F120022E8
:103210001B3F3F3F3F2D00081B3F3F3F3F3F1B00F1
:103220001B37373737373712132F2F25132F2F2FF1
:103230001327271D00142727131E130B08000B004C
:1032400000000811191A11196B0800363F3F2500BC
:103250006B11002D3F3F2409111900000000005A96
:103260000008002D37371211090000252F2F095AA9
:103270001E00001D27270162000808000000092227
:10328000212221192222222200000000002A22737A
:103290000000006B2273212A0000212A6B2A2A6B6E
:1032A0000019212A6B2A6B21002221212A21732156
:1032B0006A6219192A216B216B7C19212A18217342
:1032C000216A222A2122222A216B210000000000EB
:1032D0002221732122000000226A226A216B000051
:1032E0001973196A19216B00622274226B186B0022
:1032F0006B182222626B2262226B18192274216AD7
:10330000226A6A101973212119191021196A2A6A6F
:103310001921191919192A73086A18216A18182A03
:103320001919106B191919216B10106B6A102222D0
:103330006311116A2222226B2222220822216A733F
:1033400021101010192A2A6B2221216B187C2118B8
:1033500022211973216B73186A18622A2A2A2A22D9
:10336000106B6B2B216A2A211922732A212A222A07
:103370006A1073211922212A2219732A21212A195C
:10338000182A21216A22221818226B19196A212170
:1033900021182222192A6B21226A18222A192B2A83
:1033A000222221192A19196B222A221922212A7371
:1033B000196B6A186B22227321222221222A222AC7
:1033C000192222192A192A2A2119196B22192110C6
:1033D0002A1819226A10226B6A2119222211192136
:1033E0002173226B19226A101921226A73222A2260
:1033F0001819222119736A6B22222A211873217449
:103400006B222A212222196B212221222222222A06
:103410001021192222226B192218191922226A62FC
:10342000196B1022226B2A6B1973081A1921732247
:10343000196B6B086B182A6B741074191929226B9D
:10344000742121741073216A6B186A732B6B22220A
:10345000736B6A6B217321196B6A2A6B22227421A8
:1034600000216A197421222A00212A106B6A182B64
:10347000000029196A6B2A2A000000196B216B2AA7
:10348000000000000022186B216B21222222222240
:1034900022217321222A2119226A226A216B2210F9
:1034A0001973196A19216B00622274226B186B0060
:1034B0006B182222626B0000226B18192200000098
:1034C000226A6A0000000000000000000000000006
:1034D00000000000000000000000000000000000EC
:1034E00000000000000000000000000000000000DC
:1034F00000000000000000000000000000000000CC
:1035000000000000000000000000FFFFFF000000BE
:103510000000FFFFFF0000000000FFFFFF000000B1
:103520000000FFFF000000000000FFFF000000009F
:1035300000000000000000000000FFFF000000008D
:1035400000000000000000000000FF00FF0000007D
:103550000000FF00FF0000000000FF00FF0000006F
:10356000000000000000000000000000000000005B
:10357000000000000000000000000000000000004B
:10358000000000000000000000FF000000FF00003D
:10359000FFFFFFFFFFFFFF0000FF000000FF000034
:1035A00000FF000000FF000000FF000000FF00001F
:1035B000FFFFFFFFFFFFFF0000FF000000FF000014
:1035C0000000000000000000000000FF00000000FC
:1035D00000FFFFFFFFFFFF00FF0000FF00000000F3
:1035E00000FFFFFFFFFF0000000000FF0000FF00E2
:1035F000FFFFFFFFFFFF0000000000FF00000000D2
:103600000000000000000000FFFF000000000000BC
:10361000FFFF0000FF000000000000FF00000000AE
:103620000000FF000000000000FF0000000000009C
:10363000FF0000FFFF000000000000FFFF0000008F
:1036400000000000000000000000FFFF000000007C
:1036500000FF0000FF00000000FFFF00FF0000006F
:1036600000FFFFFF00000000FF0000FFFF00FF0061
:10367000FF000000FFFF000000FFFFFFFF00FF0052
:10368000000000000000000000FFFF00000000003C
:1036900000FFFF00000000000000FF00000000002D
:1036A00000FF00000000000000000000000000001B
:1036B000000000000000000000000000000000000A
:1036C000000000000000000000000000FFFF0000FC
:1036D000000000FF000000000000FF0000000000EC
:1036E0000000FF00000000000000FF0000000000DC
:1036F000000000FF0000000000000000FFFF0000CD
:1037000000000000000000000000FFFF00000000BB
:1037100000000000FF0000000000000000FF0000AB
:103720000000000000FF00000000000000FF00009B
:1037300000000000FF0000000000FFFF000000008C
:103740000000000000000000000000000000000079
:10375000000000FF0000000000FF00FF00FF00006D
:103760000000FFFFFF00000000FF00FF00FF00005F
:10377000000000FF0000000000000000000000004A
:103780000000000000000000000000000000000039
:10379000000000FF00000000000000FF000000002B
:1037A00000FFFFFFFFFF0000000000FF000000001F
:1037B000000000FF0000000000000000000000000A
:1037C00000000000000000000000000000000000F9
:1037D00000000000000000000000000000000000E9
:1037E00000000000000000000000FFFF00000000DB
:1037F0000000FFFF0000000000FFFF0000000000CD
:1038000000000000000000000000000000000000B8
:1038100000000000000000000000000000000000A8
:1038200000FFFFFFFFFF000000000000000000009D
:103830000000000000000000000000000000000088
:103840000000000000000000000000000000000078
:103850000000000000000000000000000000000068
:103860000000000000000000000000000000000058
:103870000000FFFF000000000000FFFF000000004C
:103880000000000000000000000000000000FF0039
:103890000000000000FF000000000000FF0000002A
:1038A000000000FF000000000000FF00000000001A
:1038B00000FF000000000000FF000000000000000A
:1038C000000000000000000000002F2F2F0000006B
:1038D000002F00002F2F00002F2F0000002F2F009F
:1038E0002F2F0000002F2F002F2F0000002F2F0060
:1038F000002F2F00002F000000002F2F2F000000AE
:1039000000000000000000000000002F2F00000059
:1039100000002F2F2F0000000000002F2F000000BC
:103920000000002F2F0000000000002F2F000000DB
:103930000000002F2F000000002F2F2F2F2F2F000F
:103940000000000000000000002F2F2F2F2F00008C
:103950002F2F0000002F2F00000000002F2F2F001E
:1039600000002F2F2F2F0000002F2F2F2F000000DF
:103970002F2F2F00000000002F2F2F2F2F2F2F0071
:103980000000000000000000002F2F2F2F2F2F001D
:10399000000000002F2F00000000002F2F0000006B
:1039A00000002F2F2F2F000000000000002F2F00FD
:1039B0002F2F0000002F2F00002F2F2F2F2F000060
:1039C00000000000000000000000002F2F2F00006A
:1039D00000002F2F2F2F0000002F2F002F2F00006F
:1039E0002F2F00002F2F00002F2F2F2F2F2F2F00D2
:1039F000000000002F2F0000000000002F2F00000B
:103A000000000000000000002F2F2F2F2F2F00009C
:103A10002F2F0000000000002F2F2F2F2F2F00002E
:103A200000000000002F2F0000000000002F2F00DA
:103A30002F2F0000002F2F00002F2F2F2F2F0000DF
:103A4000000000000000000000002F2F2F2F0000BA
:103A5000002F2F00000000002F2F000000000000AA
:103A60002F2F2F2F2F2F00002F2F0000002F2F0080
:103A70002F2F0000002F2F00002F2F2F2F2F00009F
:103A800000000000000000002F2F2F2F2F2F2F00ED
:103A90002F2F0000002F2F00000000002F2F00000C
:103AA0000000002F2F00000000002F2F000000005A
:103AB00000002F2F0000000000002F2F000000004A
:103AC0000000000000000000002F2F2F2F0000003A
:103AD0002F2F0000002F00002F2F2F00002F00009D
:103AE000002F2F2F2F0000002F00002F2F2F2F002F
:103AF0002F000000002F2F00002F2F2F2F2F00004E
:103B00000000000000000000002F2F2F2F2F0000CA
:103B10002F2F0000002F2F002F2F0000002F2F002D
:103B2000002F2F2F2F2F2F0000000000002F2F001D
:103B3000000000002F2F0000002F2F2F2F0000006B
:103B40000000000000000000000000000000000075
:103B50000000FFFF000000000000FFFF0000000069
:103B600000000000000000000000FFFF0000000057
:103B70000000FFFF00000000000000000000000047
:103B80000000000000000000000000000000000035
:103B90000000FFFF000000000000FFFF0000000029
:103BA00000000000000000000000FFFF0000000017
:103BB0000000FFFF0000000000FFFF000000000009
:103BC000000000000000000000000000FF000000F6
:103BD000000000FF000000000000FF0000000000E7
:103BE00000FF0000000000000000FF0000000000D7
:103BF000000000FF0000000000000000FF000000C7
:103C000000000000000000000000000000000000B4
:103C1000000000000000000000FFFFFFFFFF0000A9
:103C2000000000000000000000FFFFFFFFFF000099
:103C30000000000000000000000000000000000084
:103C400000000000000000000000FF000000000075
:103C5000000000FF0000000000000000FF00000066
:103C60000000000000FF000000000000FF00000056
:103C7000000000FF000000000000FF000000000046
:103C8000000000000000000000FFFFFFFFFF000039
:103C9000FFFFFFFFFFFFFF00FFFF000000FFFF002F
:103CA00000000000FFFF00000000FFFFFF00000019
:103CB00000000000000000000000FFFFFF00000007
:103CC00000000000000000000000FFFFFF000000F7
:103CD00000FF000000FF0000FF0000FF00FF0000E9
:103CE000FF00FF00FFFF0000FF0000FFFF000000DB
:103CF00000FF0000000000000000FFFFFFFF0000C9
:103D000000000000000000000000FFFFFF000000B6
:103D100000FFFF00FFFF0000FFFF000000FFFF00AB
:103D2000FFFF000000FFFF00FFFFFFFFFFFFFF009E
:103D3000FFFF000000FFFF00FFFF000000FFFF008B
:103D40000000000000000000FFFFFFFFFFFF000079
:103D5000FFFF000000FFFF00FFFF000000FFFF006B
:103D6000FFFFFFFFFFFF0000FFFF000000FFFF005D
:103D7000FFFF000000FFFF00FFFFFFFFFFFF00004D
:103D800000000000000000000000FFFFFFFF000037
:103D900000FFFF0000FFFF00FFFF00000000000029
:103DA000FFFF000000000000FFFF00000000000017
:103DB00000FFFF0000FFFF000000FFFFFFFF00000B
:103DC0000000000000000000FFFFFFFFFF000000F8
:103DD000FFFF0000FFFF0000FFFF000000FFFF00EB
:103DE000FFFF000000FFFF00FFFF000000FFFF00DB
:103DF000FFFF0000FFFF0000FFFFFFFFFF000000CC
:103E00000000000000000000FFFFFFFFFFFFFF00B9
:103E1000FFFF000000000000FFFF000000000000A6
:103E2000FFFFFFFFFFFF0000FFFF0000000000009A
:103E3000FFFF000000000000FFFFFFFFFFFFFF008B
:103E40000000000000000000FFFFFFFFFFFFFF0079
:103E5000FFFF000000000000FFFF00000000000066
:103E6000FFFFFFFFFFFF0000FFFF0000000000005A
:103E7000FFFF000000000000FFFF00000000000046
:103E800000000000000000000000FFFFFFFFFF0037
:103E900000FFFF0000000000FFFF00000000000026
:103EA000FFFF0000FFFFFF00FFFF000000FFFF001B
:103EB00000FFFF0000FFFF000000FFFFFFFFFF000B
:103EC0000000000000000000FFFF000000FFFF00F6
:103ED000FFFF000000FFFF00FFFF000000FFFF00EA
:103EE000FFFFFFFFFFFFFF00FFFF000000FFFF00DD
:103EF000FFFF000000FFFF00FFFF000000FFFF00CA
:103F0000000000000000000000FFFFFFFFFFFF00B7
:103F1000000000FFFF000000000000FFFF000000A5
:103F2000000000FFFF000000000000FFFF00000095
:103F3000000000FFFF00000000FFFFFFFFFFFF0089
:103F40000000000000000000000000FFFFFFFF0075
:103F500000000000FFFF000000000000FFFF000065
:103F600000000000FFFF000000000000FFFF000055
:103F7000FF000000FFFF000000FFFFFFFF00000048
:103F80000000000000000000FFFF000000FFFF0035
:103F9000FFFF0000FFFF0000FFFF00FFFF00000029
:103FA000FFFFFFFF00000000FFFFFFFFFF0000001A
:103FB000FFFF00FFFFFF0000FFFF0000FFFFFF000B
:103FC000000000000000000000FFFF0000000000F3
:103FD00000FFFF000000000000FFFF0000000000E5
:103FE00000FFFF000000000000FFFF0000000000D5
:103FF00000FFFF000000000000FFFFFFFFFFFF00C9
:104000000000000000000000FFFF000000FFFF00B4
:10401000FFFFFF00FFFFFF00FFFFFFFFFFFFFF00AD
:10402000FFFFFFFFFFFFFF00FFFF00FF00FFFF009C
:10403000FFFF000000FFFF00FFFF000000FFFF0088
:104040000000000000000000FFFF000000FFFF0074
:10405000FFFFFF0000FFFF00FFFFFFFF00FFFF006B
:10406000FFFFFFFFFFFFFF00FFFF00FFFFFFFF005D
:10407000FFFF0000FFFFFF00FFFF000000FFFF0049
:10408000000000000000000000FFFFFFFFFF000035
:10409000FFFF000000FFFF00FFFF000000FFFF0028
:1040A000FFFF000000FFFF00FFFF000000FFFF0018
:1040B000FFFF000000FFFF0000FFFFFFFFFF000009
:1040C0000000000000000000FFFFFFFFFFFF0000F6
:1040D000FFFF000000FFFF00FFFF000000FFFF00E8
:1040E000FFFF000000FFFF00FFFFFFFFFFFF0000DA
:1040F000FFFF000000000000FFFF000000000000C4
:10410000000000000000000000FFFFFFFFFF0000B4
:10411000FFFF000000FFFF00FFFF000000FFFF00A7
:10412000FFFF000000FFFF00FFFF00FFFFFFFF0099
:10413000FFFF0000FFFF000000FFFFFFFF00FF0088
:104140000000000000000000FFFFFFFFFFFF000075
:10415000FFFF000000FFFF00FFFF000000FFFF0067
:10416000FFFF0000FFFFFF00FFFFFFFFFF00000059
:10417000FFFF00FFFFFF0000FFFF0000FFFFFF0049
:10418000000000000000000000FFFFFFFF00000033
:10419000FFFF0000FFFF0000FFFF00000000000025
:1041A00000FFFFFFFFFF00000000000000FFFF0016
:1041B000FFFF000000FFFF0000FFFFFFFFFF000008
:1041C000000000000000000000FFFFFFFFFFFF00F5
:1041D000000000FFFF000000000000FFFF000000E3
:1041E000000000FFFF000000000000FFFF000000D3
:1041F000000000FFFF000000000000FFFF000000C3
:104200000000000000000000FFFF000000FFFF00B2
:10421000FFFF000000FFFF00FFFF000000FFFF00A6
:10422000FFFF000000FFFF00FFFF000000FFFF0096
:10423000FFFF000000FFFF0000FFFFFFFFFF000087
:104240000000000000000000FFFF000000FFFF0072
:10425000FFFF000000FFFF00FFFF000000FFFF0066
:10426000FFFFFF00FFFFFF0000FFFFFFFFFF000059
:104270000000FFFFFF000000000000FF0000000042
:104280000000000000000000FFFF000000FFFF0032
:10429000FFFF000000FFFF00FFFF00FF00FFFF0027
:1042A000FFFFFFFFFFFFFF00FFFFFFFFFFFFFF001C
:1042B000FFFFFF00FFFFFF00FFFF000000FFFF0008
:1042C0000000000000000000FFFF000000FFFF00F2
:1042D000FFFFFF00FFFFFF0000FFFFFFFFFF0000E9
:1042E0000000FFFFFF00000000FFFFFFFFFF0000D6
:1042F000FFFFFF00FFFFFF00FFFF000000FFFF00C8
:10430000000000000000000000FFFF0000FFFF00B1
:1043100000FFFF0000FFFF0000FFFF0000FFFF00A5
:104320000000FFFFFFFF0000000000FFFF00000093
:10433000000000FFFF000000000000FFFF00000081
:104340000000000000000000FFFFFFFFFFFFFF0074
:1043500000000000FFFFFF00000000FFFFFF000063
:104360000000FFFFFF00000000FFFFFF0000000053
:10437000FFFFFF0000000000FFFFFFFFFFFFFF0047
:1043800000000000000000000000FFFFFFFF000031
:104390000000FFFF000000000000FFFF0000000021
:1043A0000000FFFF000000000000FFFF0000000011
:1043B0000000FFFF000000000000FFFFFFFF000003
:1043C00000000000000000000000FFFFFFFF0000F1
:1043D00000FF00000000FF00FF0000FFFF0000FFE3
:1043E000FF00FF00000000FFFF00FF00000000FFD3
:1043F000FF0000FFFF0000FF00FF00000000FF00C3
:104400000000FFFFFFFF00000000FFFFFFFF0000B4
:1044100000000000FFFF000000000000FFFF0000A0
:1044200000000000FFFF000000000000FFFF000090
:1044300000000000FFFF00000000FFFFFFFF000082
:1044400000000000000000000000FF00000000006D
:1044500000FF00FF00000000FF000000FF00000060
:10446000000000000000000000000000000000004C
:10447000000000000000000000000000000000003C
:10448000000000000000000000000000000000002C
:10449000000000000000000000000000000000001C
:1044A000000000000000000000000000000000000C
:1044B0000000000000000000FFFFFFFFFFFFFF0003
:1044C00000000000000000000000000000000000EC
:1044D00000000000000000000000000000000000DC
:1044E00000000000000000000000000000000000CC
:1044F00000000000000000000000000000000000BC
:1045000000000000000000000000000000000000AB
:10451000090B0B151F1F0B00091F1F1F1F1F150065
:10452000001E2727272727000014272727272713C0
:10453000000927272727271D00002F2F2F2F2F2F78
:1045400000001C2F2F2F2F2F000000000000000064
:1045500000000000000B000000000000091F130015
:10456000000000001E271F0000000013272727134C
:10457000000009272727272700001C2F2F2F2F2F68
:104580001B0A2F2F2F2F2F2F0000000000000000EC
:10459000000000161F150B0B0000091F1F1F1F1F17
:1045A000000013272727272700001E272727272754
:1045B000000927272727272713132F2F2F2F2F2FC8
:1045C0002F2E2F2F2F2F2F2F000000000000000074
:1045D0000B0B0000000000001F1E00000000000088
:1045E000272727271300000027272727130000006D
:1045F00027272727130000002F2F2F2F130000003D
:104600002F2F2F2F1B0000000000000000000000D3
:10461000000000000000000000000000000000009A
:104620000113142727270A000A272727272709000D
:104630000A27272727270900132F2F2F2F2F09009D
:10464000132F2F2F2F2F000000000000000000006C
:104650000000000000000000000000001400000046
:104660000000000A271400000000001D2727090091
:10467000000009272727260000001C2F2F2F2F1CA2
:1046800000092F2F2F2F2F2F000000000000000007
:10469000000000000000000000000000000000001A
:1046A000000000000000000000000000000000000A
:1046B000000000000000001C000000000000002FAF
:1046C000090000000000122F0000000000000000A0
:1046D00000000000000000000000131E1F1F1F1339
:1046E000091E2727272727271E272727272727278A
:1046F00027272727272727272F2F2F2F2F2F2F2F0A
:104700002F2F2F2F1B0009250000000000000000A4
:10471000000000000000000009001F1513130A002C
:10472000270027272727271327002727272727138F
:10473000260027272727271325002F2F2F2F2F135A
:104740001C002F2F2F2F2F2F000000000000000033
:104750000000000000000000000000000000000059
:104760000000001D1E13010000001D27272727271A
:10477000001D272727272714252F2F2F2F2F250010
:104780002F2F2F2F2F260000000000000000000018
:104790000000000000000000000000000000000019
:1047A0000000000000000000090000000000000000
:1047B00000000000000000000000000000000000F9
:1047C00000000000000000000000000000000000E9
:1047D0000000000000090B0000000000001E1E0089
:1047E000000000001427270B0000000A2727271EBF
:1047F000000000262727272700001C2F2F2F2F2FF0
:1048000000122F2F2F2F2F2F00000000000000007C
:104810000000000000000000000000000000000098
:104820000000000000000000000000000000000088
:10483000130000000000000026000000000000003F
:104840002F13000000000000000000000000000B1B
:10485000000000000000001F000000000000131F07
:104860000000000000001E270000000000092727AC
:10487000000000000014272700000000002F2F2F49
:1048800000000000122F2F2F000000000000000089
:104890000000000000000000130000000000000005
:1048A0001D000000000000002709000000000009B2
:1048B00027130000000000262F2600000000132F01
:1048C0002F2F0A0000002F2F000000000000000022
:1048D000000B0A0000000000001F14000000000090
:1048E00014271E0000000000272727090000001ED3
:1048F00027272713000013272F2F2F1D00002F2FEE
:104900002F2F2F2F00122F2F00000000000000007B
:104910000000000000000000000A151F1F1F1E13EA
:104920001D27272727272727272727272727272721
:1049300027272727272727272F2F2F2600262F2F08
:104940002F2F2F12001B2F2F00000000000000004F
:104950000000000000000000000000000000000057
:104960001E01002727272727271E0027272727275D
:1049700027271326272727272F2F26262F2F2F2FAE
:104980002F2F2F252F2F2F2F0000000000000000B9
:10499000000000000000000000000000001F1F1EBB
:1049A000271D000000272727271D00000027272795
:1049B000271D0000002727272F250000002F2F2F5D
:1049C0002F250000002F2F2F000000000000000006
:1049D0000000000000000000131313131300000078
:1049E000272727272727270B272727272727270A90
:1049F00027272727272727092F2F251D2F2F2F0070
:104A00002F2F1B0000000000000012373737373708
:104A10000000003737373737000000243F3F3F3F63
:104A2000000000123F3F3F3F000000003F3F3F3F7C
:104A3000000000002D3F3F3F00000000123F3F3FBD
:104A40000000000000373737252E37373737373724
:104A500037373737373737373F3F3F3F3F3F3F3FA6
:104A60003F3F3F3F3F3F3F3F3F3F3F3F3F3F3F3F56
:104A70003F3F3F3F3F3F3F3F3F3F3F3F25243F3F7B
:104A8000373737370009373737373737373737371B
:104A900037373737373737373F3F3F3F3F3F253F80
:104AA0003F3F3F3F3F3F123F3F3F3F3F3F3F003F82
:104AB0003F3F3F3F3F1B003F3F3F3F3F3F09003FDE
:104AC000373737372D000037373737371B000000AF
:104AD00037373737373737373F3F3F3F3F3F3F3F26
:104AE0003F3F3F3F3F3F3F3F3F3F3F3F3F3F3F3FD6
:104AF0003F3F3F3F1B0000003F3F3F3F1B00000088
:104B0000373737371B0000001B3737373737000080
:104B100037373737373700003F3F3F3F3F3F0000D1
:104B20003F3F3F3F3F3600093F3F3F3F3F36002476
:104B30001B3F3F3F3F36093F243F3F3F3F36243F27
:104B400024373737372D373700243737373737375C
:104B50000937373737373737243F3F3F3F373F3FF6
:104B60003F3F3F3F2D1B3F3F3F3F3F3F1B003F3FEE
:104B70003F3F3F3F09001B3F3F3F3F2E00000037B4
:104B800037373737373737372E00000000001C37EC
:104B9000371C000000002D373F3F12000000363F59
:104BA0003F3F360000003F3F3F3F3F2400003F3F74
:104BB0003F3F3F3F12003F3F3F3F3F3F36003F3FB9
:104BC00037373737371C36373737372F0000000075
:104BD0003737372D000000003F3F3F240000000022
:104BE0003F3F3F1B000000003F3F3F1B0000000015
:104BF0003F3F3F1B000000003F3F3F1B0000000005
:104C00003737371C00000000090037373737373790
:104C1000000037373737373700003F3F3F3F3F3FD0
:104C200000003F3F3F3F3F3F0000363F3F3F3F3F99
:104C30000000363F3F3F3F3F0000363F3F3F3F3F92
:104C40000000363737373737373737372F09000007
:104C500037373737090000003F3F3F120000002D73
:104C60003F3F1B00000000363F36000000000036CA
:104C70003F3F2D000000003F3F3F3F2D0000000060
:104C8000373737372E00000000000000000000001A
:104C900000000000000000003F3F3F3F3F3F3F3F1C
:104CA0003F3F3F3F3F3F3F3F3F3F3F3F3F3F3F3F14
:104CB0003F3F3F3F3F3F3F3F0000000000000000FC
:104CC00000000000000000000000000000000000E4
:104CD00000000000000000003F3F3700000000120D
:104CE0003F3F3600000000363F3F240000002D3FCC
:104CF0003F3F1B0000123F3F0000000000373F3FD6
:104D00000000000025373737002E37373737373761
:104D100024373737373737373F3F3F3F3F1B3F3F1A
:104D20003F3F3F3F3600363F3F3F3F3F1B00243F62
:104D30003F3F3F360000123F3F3F3F2D1B1B1B3FB5
:104D40003737373737373737372E00000000000046
:104D500037371B00000000003F3F360000002D3FAA
:104D60003F3F3F1B0000363F3F3F3F360000363F8E
:104D70003F3F3F3F1B003F3F3F3F3F3F360000006C
:104D800037373737371B000000000000253737372B
:104D900000000000373737373F37001B3F3F3F3FAA
:104DA0003F3600363F3F3F3F3F24093F3F3F3F3FB5
:104DB0003F1B243F3F3F3F3F0000373F3F3F3F3FC8
:104DC000001237373737372D37372400002437376D
:104DD00037373700093737373F3F3F122E3F3F3FC6
:104DE0003F3F3F373F3F3F3F3F3F3F3F3F3F3F3FDB
:104DF0003F3F3F3F3F3F3F3F3F3F3F3F3F3F3F2ED4
:104E0000373737373737370937373737121C3737A0
:104E100037373737242E37373F3F3F3F37363F3F0F
:104E20003F3F3F3F3F3F3F3F3F3F3F3F3F3F3F3F92
:104E30003F3F3F3F3F3F3F3F373F3F3F3F3F3F3F8A
:104E4000253737373737373737372F00001237379F
:104E500037372D00000937373F3F240000093F3F17
:104E60003F3F1B0000093F3F3F3F1B0000093F3F02
:104E70003F3F1B0000123F3F3F3F1B00001B3F3FD7
:104E800037371C00001B3737373737373737373757
:104E900037373737373737373F3F3F3F3F3F3F3F62
:104EA0003F3F3F363F3F3F3F3F3F3F2D3F3F3F3F2D
:104EB0003F3F3F1B3F3F3F3F3F3F3F1B3F3F3F3F4A
:104EC0003737371B37373737372500000037373745
:104ED000372D0000003737373F240000003F3F3FA9
:104EE0003F240000003F3F3F3F240000003F3F3F82
:104EF0003F240000003F3F3F3F240000003F3F3F72
:104F0000372400000037373737371B000000000018
:104F100037371B00000000003F3F3F3F3F2D0000A0
:104F20003F3F3F3F3F2D00003F3F3F3F3F2D0000B1
:104F30003F3F3F3F3F2D00003F3F1B000000000070
:104F400037371B0000000000000000000025373745
:104F500000000000001B37370000000000002F2F6A
:104F60000000000000001D2F0000000000001327BB
:104F7000000000000000011E000000000000000012
:104F8000000000000000000037373712000024370F
:104F900037371C00000009372F2600000000001CD6
:104FA0002F090000000000001300000000000000B6
:104FB00000000000000000000000000000000000F1
:104FC00000000000000000003737373712000037BC
:104FD0003737372F000000372F2F2F130000002FF7
:104FE000272F2F090000002F13271D000000002786
:104FF000001F0B0000000000001300000000000074
:105000000000000000000000373737371B000000A9
:10501000373737371B0000002F2F2F2F13000000CA
:105020002F2F2F2F13000000272727271300000002
:10503000000013130A000000000000000000000040
:1050400000000000000000002437373737253737CD
:105050002537373737373737252F2F2F2F2F2F2F3C
:105060001D2F2F2F2F2F2F2F1E27272727272727AB
:1050700013131E272727131500000000000000004F
:105080000000000000000000373737373737373768
:1050900037373737373737372F2F1C0000000000DE
:1050A0002F2F0A000000000027270000000000004A
:1050B00027140000000000000000000000000000B5
:1050C0000000000000000000373737373737373728
:1050D0003737373737373737092F2F2F2F2F2F2FC6
:1050E000001C2F2F2F2F2F2F000927272727272797
:1050F000000014271413130100000000000000003A
:1051000000000000000000003737372500000009CC
:105110003737373709091C372F2F2F2F2F2F2F2FD6
:105120002F2F2F2F2F2F2F2F2727272727272727CF
:10513000000A152727271E130000000000000000AA
:10514000000000000000000009002E373737373715
:1051500025002E373737372E2F13262F2F2F2F26A8
:105160002F272F2F2F2F2F27271D272727272727A9
:1051700001001E271D131313000000000000000093
:10518000000000000000000037373737372E0900D5
:105190002537373737372F0900252F2F2F2F2F2F60
:1051A0000000262F2F2F2F2F0000001E2727272734
:1051B000000000001E1E131300000000000000008D
:1051C00000000000000000000000000000000000DF
:1051D00000000000000000000A00000000000000C5
:1051E0002F1200000000000027270A000000000026
:1051F00000000000000000000000000000000000AF
:1052000000000000000000000000001237373737B0
:105210000000092F3737373700001D2F2F2F2F2F72
:1052200000132F2F2F2F2F2F092727272727272737
:105230000000001313131F1E0000000000000000F8
:1052400000000000000000003737373737373737A6
:1052500037373737251B1B1B2F13000000000000BA
:105260002600000000000000130000000000000005
:10527000000000000000000000000000000000002E
:10528000000000000000000037373737372E0000DD
:105290002F373737373713001D2F2F2F2F2F26008B
:1052A000132F2F2F2F2F2F13002727272727271EB6
:1052B000001D271E13131300000000000000000053
:1052C00000000000000000000000000000000000DE
:1052D00000000000000000000000000000000000CE
:1052E00000000000000000000000000000000009B5
:1052F00000000000000000000000000000000000AE
:105300000000000000000000002537373737371253
:105310000037373737372E00132F2F2F2F2F13003B
:10532000262F2F2F2F2F090027272727271D000083
:1053300000000013130A000000000000000000003D
:1053400000000000000000002437373737371C000A
:105350000A373737372E000000252F2F2F0A00007D
:10536000000A2F2F1400000000001D1E0000000086
:1053700000000A0A00000000000000000000000019
:10538000000000000000000012373737373737378A
:10539000002F373737373737001D2F2F2F2F2F2F5D
:1053A00000132F2F2F2F2F2F0000272727272727E6
:1053B000000015271F131313000000000000000059
:1053C000000000000000000037372E0000253737AE
:1053D00037373700092F37372F2F2F25262F2F2F1D
:1053E0002F2F2F2F2F2F2F2F27272727272727270D
:1053F0000A142727271F13010000000000000000E7
:10540000000000000000000037372E133737373711
:1054100037371B13373737372F2F000A2F2F2F2FF0
:105420002F12000A2F2F2F2F1300000A27272727BC
:1054300000000001272727270000000000000000CF
:10544000000000000000000037240000003737375C
:1054500037262F37373737372F2F2F2F2F2F2F2F35
:105460002F2F2F2F2F2F2F2F27272727272727278C
:105470001E131313131300000000000000000000AF
:10548000000000000000000037371B000000000093
:105490003737251B1B0000002F2F2F2F2F2F2F25D5
:1054A0002F2F2F2F2F2F2F1427272727272727137B
:1054B0000A1313131427270900000000000000003E
:1054C00000000000000000000000000000000000DC
:1054D00000000000000000000000000000000000CC
:1054E00000000000000000000000000000000000BC
:1054F00000000000000000000000000000000000AC
:1055000000000000000000000000FFFFFF0000009E
:105510000000FFFFFF0000000000FFFFFF00000091
:105520000000FFFF000000000000FFFF000000007F
:1055300000000000000000000000FFFF000000006D
:1055400000000000000000000000FF00FF0000005D
:105550000000FF00FF0000000000FF00FF0000004F
:10556000000000000000000000000000000000003B
:10557000000000000000000000000000000000002B
:10558000000000000000000000FF000000FF00001D
:10559000FFFFFFFFFFFFFF0000FF000000FF000014
:1055A00000FF000000FF000000FF000000FF0000FF
:1055B000FFFFFFFFFFFFFF0000FF000000FF0000F4
:1055C0000000000000000000000000FF00000000DC
:1055D00000FFFFFFFFFFFF00FF0000FF00000000D3
:1055E00000FFFFFFFFFF0000000000FF0000FF00C2
:1055F000FFFFFFFFFFFF0000000000FF00000000B2
:105600000000000000000000FFFF0000000000009C
:10561000FFFF0000FF000000000000FF000000008E
:105620000000FF000000000000FF0000000000007C
:10563000FF0000FFFF000000000000FFFF0000006F
:1056400000000000000000000000FFFF000000005C
:1056500000FF0000FF00000000FFFF00FF0000004F
:1056600000FFFFFF00000000FF0000FFFF00FF0041
:10567000FF000000FFFF000000FFFFFFFF00FF0032
:10568000000000000000000000FFFF00000000001C
:1056900000FFFF00000000000000FF00000000000D
:1056A00000FF0000000000000000000000000000FB
:1056B00000000000000000000000000000000000EA
:1056C000000000000000000000000000FFFF0000DC
:1056D000000000FF000000000000FF0000000000CC
:1056E0000000FF00000000000000FF0000000000BC
:1056F000000000FF0000000000000000FFFF0000AD
:1057000000000000000000000000FFFF000000009B
:1057100000000000FF0000000000000000FF00008B
:105720000000000000FF00000000000000FF00007B
:1057300000000000FF0000000000FFFF000000006C
:105740000000000000000000000000000000000059
:10575000000000FF0000000000FF00FF00FF00004D
:105760000000FFFFFF00000000FF00FF00FF00003F
:10577000000000FF0000000000000000000000002A
:105780000000000000000000000000000000000019
:10579000000000FF00000000000000FF000000000B
:1057A00000FFFFFFFFFF0000000000FF00000000FF
:1057B000000000FF000000000000000000000000EA
:1057C00000000000000000000000000000000000D9
:1057D00000000000000000000000000000000000C9
:1057E00000000000000000000000FFFF00000000BB
:1057F0000000FFFF0000000000FFFF0000000000AD
:105800000000000000000000000000000000000098
:105810000000000000000000000000000000000088
:1058200000FFFFFFFFFF000000000000000000007D
:105830000000000000000000000000000000000068
:105840000000000000000000000000000000000058
:105850000000000000000000000000000000000048
:105860000000000000000000000000000000000038
:105870000000FFFF000000000000FFFF000000002C
:105880000000000000000000000000000000FF0019
:105890000000000000FF000000000000FF0000000A
:1058A000000000FF000000000000FF0000000000FA
:1058B00000FF000000000000FF00000000000000EA
:1058C000000000000000000000002F2F2F0000004B
:1058D000002F00002F2F00002F2F0000002F2F007F
:1058E0002F2F0000002F2F002F2F0000002F2F0040
:1058F000002F2F00002F000000002F2F2F0000008E
:1059000000000000000000000000002F2F00000039
:1059100000002F2F2F0000000000002F2F0000009C
:105920000000002F2F0000000000002F2F000000BB
:105930000000002F2F000000002F2F2F2F2F2F00EF
:105940000000000000000000002F2F2F2F2F00006C
:105950002F2F0000002F2F00000000002F2F2F00FE
:1059600000002F2F2F2F0000002F2F2F2F000000BF
:105970002F2F2F00000000002F2F2F2F2F2F2F0051
:105980000000000000000000002F2F2F2F2F2F00FD
:10599000000000002F2F00000000002F2F0000004B
:1059A00000002F2F2F2F000000000000002F2F00DD
:1059B0002F2F0000002F2F00002F2F2F2F2F000040
:1059C00000000000000000000000002F2F2F00004A
:1059D00000002F2F2F2F0000002F2F002F2F00004F
:1059E0002F2F00002F2F00002F2F2F2F2F2F2F00B2
:1059F000000000002F2F0000000000002F2F0000EB
:105A000000000000000000002F2F2F2F2F2F00007C
:105A10002F2F0000000000002F2F2F2F2F2F00000E
:105A200000000000002F2F0000000000002F2F00BA
:105A30002F2F0000002F2F00002F2F2F2F2F0000BF
:105A4000000000000000000000002F2F2F2F00009A
:105A5000002F2F00000000002F2F0000000000008A
:105A60002F2F2F2F2F2F00002F2F0000002F2F0060
:105A70002F2F0000002F2F00002F2F2F2F2F00007F
:105A800000000000000000002F2F2F2F2F2F2F00CD
:105A90002F2F0000002F2F00000000002F2F0000EC
:105AA0000000002F2F00000000002F2F000000003A
:105AB00000002F2F0000000000002F2F000000002A
:105AC0000000000000000000002F2F2F2F0000001A
:105AD0002F2F0000002F00002F2F2F00002F00007D
