:020000020000FC
:100000000EC0189549C0ACC018951895189518954C
:100010001895189518951895189518958DC002E0A3
:100020000EBF0FE50DBF00E20BBF00E105BB00E214
:100030000ABF02E007BB00E008BB00E409BF04E020
:100040000EBD0FBC7BE0662788275527992711270F
:100050000024102C1394212C2394322C3394A0E6EA
:10006000B0E0ED010FB700680FBF5115F1F306B313
:1000700005700130D1F706B305700430E1F7512D5A
:100080000CE50DB900E40EB90FB8AC1771F30D9182
:10009000AF77A0660FB9E9CF4FB7603059F43FE0B2
:1000A00030BF7B3028F4733018F08695B3998068A0
:1000B00061E016C060E07A9599F48993CF77C066C5
:1000C0007BE000BE0FBC2CBC8A3A51F43FEF00002D
:1000D000000000003A95D9F73EEEC32E03D0912DD3
:1000E0004FBF1895BC9A30E9E32E31E0F32EE118AA
:1000F000F008E9F7BB9ABC983AE03A95F1F7B49961
:10010000FECF38E0E32EBB98C0FEBB9AB49BFECF77
:10011000B499FECFC694EA94B1F7BB98B49BFECFD6
:10012000B499FECFBB98B399FECFB499FECFB39BE1
:10013000FECFB49BFECF08954FB72FB1769A11270B
:10014000203031F4AC1749F01D91AF77A06605C09F
:10015000213019F411270DB855271FB94FBF189535
:0C016000602D7BE000BE0FBC2CBC18958D
:00000001FF
