:100000000C940B0C0C948D0C0C948D0C0C948D0C8E
:100010000C948D0C0C948D0C0C948D0C0C948D0CFC
:100020000C948D0C0C948D0C0C948D0C0C948D0CEC
:100030000C948D0C0C9430130C948D0C0C948D0C32
:100040000C948D0C0C948D0C0C948D0C0C948D0CCC
:100050000C948D0C0C948D0C0C948D0C0C948D0CBC
:100060000C948D0C0C948D0C0C948D0C0C948D0CAC
:100070000000000000000000000000000000000080
:100080000000000000000000000000000000000070
:100090000000000000000000000000000000000060
:1000A0000000FF00000000FFFFFF000000FFFFFF57
:1000B00000000000FF0000000000FF000000000042
:1000C000000000000000FF00000000000000000031
:1000D000FFFF00FFFF00FFFF00FFFF00FF0000FF2A
:1000E0000000000000000000000000000000000010
:1000F0000000000000000000000000000000000000
:1001000000000000000000FF00FF0000FFFFFFFFF5
:10011000FF0000FF00FF000000FF00FF0000FFFFE6
:10012000FFFFFF0000FF00FF0000000000000000D4
:1001300000FF0000000000FFFFFF0000FF000000C4
:10014000000000FFFF000000000000FF0000FFFFB4
:10015000FF0000000000FF000000000000000000A1
:10016000FFFF0000FF00FFFF0000FF00000000FF96
:1001700000000000FF00000000FF00000000FF0082
:1001800000FFFF00FF0000FFFF0000000000000074
:1001900000FF00000000FF00FF000000FF00FF0064
:1001A000000000FF00000000FF00FF00FF00FF0054
:1001B00000FF000000FFFF00FF0000000000000043
:1001C00000FFFF00000000FFFF00000000FF000034
:1001D000000000000000000000000000000000001F
:1001E000000000000000000000000000000000000F
:1001F0000000FF00000000FF0000000000FF000002
:10020000000000FF0000000000FF0000000000FFF1
:10021000000000000000FF000000000000000000DF
:1002200000FF000000000000FF0000000000FF00D1
:1002300000000000FF0000000000FF0000000000C0
:10024000FF00000000FF00000000000000000000B0
:1002500000000000000000FF00FF000000FFFFFFA3
:100260000000FFFFFFFFFF0000FFFFFF000000FF97
:1002700000FF00000000000000000000000000007F
:100280000000000000000000FF0000000000FF0070
:100290000000FFFFFFFFFF000000FF000000000064
:1002A000FF0000000000000000000000000000004F
:1002B000000000000000000000000000000000003E
:1002C000000000000000000000000000000000FF2F
:1002D000FF00000000FFFF00000000FF0000000022
:1002E000000000000000000000000000000000000E
:1002F0000000FFFFFFFFFF00000000000000000003
:1003000000000000000000000000000000000000ED
:1003100000000000000000000000000000000000DD
:10032000000000000000000000000000000000FFCE
:10033000FF00000000FFFF000000000000000000C0
:1003400000000000000000000000FF00000000FFAF
:1003500000000000FF00000000FF00000000FF00A0
:10036000000000000000000000000000000000008D
:10037000002F2F2F00002F0000002F002F00002F34
:100380002F002F002F002F002F2F00002F002F00F5
:1003900000002F00002F2F2F0000000000000000A1
:1003A00000002F000000002F2F00000000002F0091
:1003B000000000002F00000000002F0000000000DF
:1003C0002F000000002F2F2F000000000000000071
:1003D000002F2F2F00002F0000002F000000000032
:1003E0002F0000002F2F0000002F000000002F0022
:1003F000000000002F2F2F2F2F0000000000000012
:10040000002F2F2F00002F0000002F000000000001
:100410002F00002F2F2F0000000000002F002F00C2
:1004200000002F00002F2F2F000000000000000010
:100430000000002F000000002F2F0000002F002FD1
:1004400000002F00002F00002F2F2F2F2F00000063
:10045000002F00000000002F00000000000000003E
:100460002F2F2F2F2F002F00000000002F00000043
:1004700000002F2F2F2F0000000000002F002F0062
:1004800000002F00002F2F2F0000000000000000B0
:1004900000002F2F0000002F000000002F000000A0
:1004A00000002F2F2F2F00002F0000002F002F0003
:1004B00000002F00002F2F2F000000000000000080
:1004C0002F2F2F2F2F00000000002F000000002FE3
:1004D000000000002F000000002F00000000002F8F
:1004E00000000000002F00000000000000000000DD
:1004F000002F2F2F00002F0000002F002F000000E2
:100500002F00002F2F2F00002F0000002F002F00A2
:1005100000002F00002F2F2F00000000000000001F
:10052000002F2F2F00002F0000002F002F000000B1
:100530002F00002F2F2F2F00000000002F000000A1
:10054000002F0000002F2F0000000000000000001E
:1005500000000000000000000000000000FFFF009D
:10056000000000FFFF00000000000000000000FF8E
:10057000FF00000000FFFF0000000000000000007E
:1005800000000000000000000000000000FFFF006D
:10059000000000FFFF00000000000000000000FF5E
:1005A000FF00000000FFFF00000000FF000000004F
:1005B00000000000FF00000000FF00000000FF003E
:1005C000000000FF000000000000FF00000000002D
:1005D00000FF000000000000FF000000000000001D
:1005E000000000000000000000000000FFFFFFFF0F
:1005F000FF00000000000000000000000000FFFFFE
:10060000FFFFFF00000000000000000000000000ED
:1006100000FF000000000000FF000000000000FFDD
:10062000000000000000FF00000000FF00000000CC
:10063000FF00000000FF00000000000000000000BC
:1006400000FFFFFF0000FF000000FF0000000000AF
:10065000FF000000FFFF00000000FF00000000009E
:10066000000000000000FF0000000000000000008B
:1006700000FFFFFF0000FF000000FF00FF00FFFF82
:10068000FF00FF00FF00FF00FF00FFFFFF00FF0073
:100690000000000000FFFFFF00000000000000005D
:1006A00000FFFFFF0000FF000000FF00FF00000050
:1006B000FF00FF000000FF00FFFFFFFFFF00FF0043
:1006C0000000FF00FF000000FF000000000000002D
:1006D000FFFFFFFF0000FF000000FF00FF00000021
:1006E000FF00FFFFFFFF0000FF000000FF00FF0012
:1006F0000000FF00FFFFFFFF0000000000000000FF
:1007000000FFFFFF0000FF000000FF00FF000000EF
:100710000000FF0000000000FF0000000000FF00DC
:100720000000FF0000FFFFFF0000000000000000CD
:10073000FFFFFFFF0000FF000000FF00FF000000C0
:10074000FF00FF000000FF00FF000000FF00FF00AF
:100750000000FF00FFFFFFFF00000000000000009E
:10076000FFFFFFFFFF00FF0000000000FF00000090
:100770000000FFFFFFFF0000FF0000000000FF007F
:1007800000000000FFFFFFFFFF000000000000006E
:10079000FFFFFFFFFF00FF0000000000FF00000060
:1007A0000000FFFFFFFF0000FF0000000000FF004F
:1007B00000000000FF00000000000000000000003A
:1007C00000FFFFFF0000FF000000FF00FF0000002F
:1007D0000000FF00FFFFFF00FF000000FF00FF0020
:1007E0000000FF0000FFFFFFFF000000000000000E
:1007F000FF000000FF00FF000000FF00FF000000FE
:10080000FF00FFFFFFFFFF00FF000000FF00FF00F1
:100810000000FF00FF000000FF00000000000000DB
:1008200000FFFFFF00000000FF0000000000FF00CD
:1008300000000000FF0000000000FF0000000000BA
:10084000FF00000000FFFFFF0000000000000000AC
:1008500000000000FF0000000000FF00000000009A
:10086000FF0000000000FF00FF000000FF00FF008D
:100870000000FF0000FFFFFF00000000000000007C
:10088000FF000000FF00FF0000FF0000FF00FF006E
:100890000000FFFF00000000FF00FF000000FF005D
:1008A00000FF0000FF000000FF000000000000004B
:1008B000FF0000000000FF0000000000FF0000003B
:1008C0000000FF0000000000FF0000000000FF002B
:1008D00000000000FFFFFFFFFF000000000000001D
:1008E000FF000000FF00FFFF00FFFF00FF00FF0010
:1008F000FF00FF000000FF00FF000000FF00FF00FE
:100900000000FF00FF000000FF00000000000000EA
:10091000FF000000FF00FFFF0000FF00FF00FF00DE
:10092000FF00FF0000FFFF00FF000000FF00FF00CE
:100930000000FF00FF000000FF00000000000000BA
:1009400000FFFFFF0000FF000000FF00FF000000AD
:10095000FF00FF000000FF00FF000000FF00FF009D
:100960000000FF0000FFFFFF00000000000000008B
:10097000FFFFFFFF0000FF000000FF00FF0000007E
:10098000FF00FFFFFFFF0000FF0000000000FF006E
:1009900000000000FF000000000000000000000058
:1009A00000FFFFFF0000FF000000FF00FF0000004D
:1009B000FF00FF000000FF00FF00FF00FF00FF003E
:1009C00000FF000000FFFF00FF000000000000002B
:1009D000FFFFFFFF0000FF000000FF00FF0000001E
:1009E000FF00FFFFFFFF0000FF0000FF0000FF000F
:1009F0000000FF00FF000000FF00000000000000FA
:100A000000FFFFFF0000FF000000FF00FF000000EC
:100A1000000000FFFFFF000000000000FF00FF00DB
:100A20000000FF0000FFFFFF0000000000000000CA
:100A3000FFFFFFFFFF000000FF0000000000FF00BD
:100A400000000000FF0000000000FF0000000000A8
:100A5000FF0000000000FF00000000000000000098
:100A6000FF000000FF00FF000000FF00FF0000008B
:100A7000FF00FF000000FF00FF000000FF00FF007C
:100A80000000FF0000FFFFFF00000000000000006A
:100A9000FF000000FF00FF000000FF00FF0000005B
:100AA000FF00FF000000FF00FF000000FF0000FF4C
:100AB00000FF00000000FF00000000000000000038
:100AC000FF000000FF00FF000000FF00FF00FF002C
:100AD000FF00FF00FF00FF00FF00FF00FF00FF001E
:100AE000FF00FF0000FF00FF00000000000000000A
:100AF000FF000000FF00FF000000FF0000FF00FFFC
:100B000000000000FF00000000FF00FF0000FF00E9
:100B10000000FF00FF000000FF00000000000000D8
:100B2000FF000000FF00FF000000FF00FF000000CA
:100B3000FF0000FF00FF00000000FF0000000000B9
:100B4000FF0000000000FF000000000000000000A7
:100B5000FFFFFFFF0000000000FF00000000FF009B
:100B6000000000FF00000000FF0000000000FF0088
:100B700000000000FFFFFFFF000000000000000079
:100B80000000FFFF000000FF0000000000FF000069
:100B90000000FFFF0000000000FF0000000000FF59
:100BA000000000000000FFFF000000000000000047
:100BB0000000FFFF000000FF0000FF00FF00FFFF3C
:100BC00000FFFF00FF0000FFFF00FFFF00FF00FF2E
:100BD0000000FF000000FFFF000000000000000018
:100BE00000FFFF000000000000FF0000000000FF09
:100BF0000000000000FFFF00000000FF00000000F8
:100C000000FF000000FFFF000000000000000000E7
:100C10003020202038383030383818183030383804
:100C20001818303038381818303038381818303034
:100C300020201818302020202018202020202020BC
:100C40000101010202020101010A010A0201010B74
:100C50001301020101130A020201010A1302020236
:100C600001130B020201010A0A020102021313011D
:100C70000A02020202020A0B0B0A010A130A0A0BF9
:100C80001301130B0A130A02130A0B0A13020202BE
:100C9000010201010201010101010102020202003F
:100CA0000A02020202020A0B0B0A010A130A0A0BC9
:100CB0001301130B0A130A02130A0B0A130202028E
:100CC00001130B020201010A0A02010202131301BD
:100CD0000101010202020101010A010A0201010BE4
:100CE0001301020101130A020201010A13020202A6
:100CF00001020101020100010101010202020200E0
:100D00000A02020202020A0B0B0A010A130A0A0B68
:100D10001301130B0A130A02130A0B0A130213130B
:100D20000A130B02130A0A0A0A020B131313130104
:100D30000A02020202020A0B3F3F010A13FFFFFFF1
:100D4000FF013F00FF00FF3F3FFFFFFFFF3F3F3F2F
:100D50003F3F3F3F133F3F3F3F020B133F3F1301D6
:100D60000A02020202020A0B3F3F010A13FFFFFFC1
:100D7000FF013FFF00FF003F3FFFFFFFFF3F3F3FFF
:100D80003F3F3F3F133F3F3F3F020B133F3F1301A6
:100D90000A02020202020A0B3F3F010A1300FF008F
:100DA000FF013FFFFFFFFF3F3FFFFFFFFF3F3F3FD1
:100DB0003F3F3F3F133F3F3F3F020B133F3F130176
:100DC0000A02020202020A0B3F3F010A13FFFFFF61
:100DD000FF013FFFFFFFFF3F3F00FF00FF3F3F3F9F
:100DE0003F3F3F3F133F3F3F3F020B133F3F130146
:100DF0000AFF0202FF020AFFFFFFFF0A13FF0A0BAE
:100E0000FF0113FF0A13FF0213FFFFFFFF0213FF8F
:100E10000A13FF0213FF0A0AFF020B131313130135
:100E200000000000000000000000000000000000C2
:100E300000000000000000000000000000000000B2
:100E400000000000000000000000000000000000A2
:100E5000C7C7C7C7C7C7C7C7C7C7C7C7C7C7C7C722
:100E6000C7C7C7C7C7C7C7C7C7C7C7C7C7C7C7C712
:100E7000C7C7C7C7C7C7C7C7C7C7C7C7C7C7C7C702
:100E800000594F5520455343415045442100534993
:100E90004D504C45204D415A452044454D4F202D45
:100EA00020434C415920434F5747494C4C2C20324A
:100EB000303038000000000000000000000000009A
:100EC0000000000000000000000000000000000022
:100ED0000000000000000000000000000000000012
:100EE0000000000000000000000000000000000002
:100EF00000000000000000000000000000000000F2
:100F000000000000000000490000004952520000AB
:100F100052525C2D000000000000000000000000A4
:100F2000000000000040000000494A5200495252AF
:100F30005B1C52531C25241B2425251B0A0A2D1C2F
:100F400012120A0A0000000000000000404949494E
:100F50004949525B5B5B525B1C1C1312241C120937
:100F6000090912090909090A0A0A0A0A0A13120ACE
:100F70000A12130A0000000000009252525252520C
:100F800013121309001C0A1212401B65090A0009FA
:100F9000241B120000251C1C010025241C1C0024FD
:100FA000252424240000000000005249494000008C
:100FB0001B1352494900641C1C5B4A481C651C25D4
:100FC00052491C1C652464491C1C652564491C1C71
:100FD0006D2E5C4900000000000000000000004988
:100FE00000000000535200000053522500004A52F6
:100FF000252500005B251300005B53000A1C095BDC
:101000001C657F374052522E2E1C525C2E251B131E
:1010100024251C1C12002525120000121B000013A1
:101020002E37001B37372E2E37372E2E2E2E2E2EF4
:101030006E6E6E1C131312000913120000121313AC
:101040000012251C13132E371C131313361C131BED
:101050001B1B25131C1C1B1B1B1C1C1C1C1C1C1CD5
:101060001C1C1C131312121313001313131C00095E
:1010700013131C010037131C13002E2E1C1C001C04
:10108000772E2500137F251C010A37241C1C0A2EED
:1010900025250900132E242525252E252525252542
:1010A00025252D2E251B2E2E251C1325251C1C1C0D
:1010B0001C011C1C1300011C0A000165775C016EF9
:1010C0007F6E521B25256D1C524925251C1353008C
:1010D0001C1C1C524A001B135B5B000009525C0085
:1010E00000005B5C000000001B000000000000002E
:1010F00000000000135B7F776E6E136577766E6E6F
:101100001B65777676761B5BBF76B67609136DBF67
:10111000B7B6001B125C76BF0000121B125B00000A
:101120000000090A6E6E6E77241C6E6E77251C1CFB
:101130006E776E1C1C1C76761C1C2425B765646DAE
:101140006D1B766D6D5B09125B5C5B125B64121349
:10115000131B12121C1C1C1C1C241C1C24252524C3
:101160002425251B00002513000064BF00096EBF65
:10117000BF6D6EBF6D5B12135B1213120900090184
:10118000000000002E1C0900096E010009767F7F17
:1011900012777F7F6412BF775B121B095B121B09FA
:1011A00000001B090000000000000000000000001B
:1011B000000000007F7F5313130064121B01000026
:1011C0001B120000000000000000000000000000F2
:1011D000000000000000000000000000000000000F
:1011E00000000000000000000000260000002600B3
:1011F0002F0000002F00370000003700FF00000024
:10120000FF00BF000000BF003700003700000026CD
:1012100026000000000000000000262626262600EA
:10122000000000002F000000003700000000FF0059
:10123000000000BF0000000037000000000026266C
:10124000262626000000000000002626262626006E
:101250002F0000000000370000000000FFFFFFFF2C
:101260000000BF000000000037000000000026263C
:101270002626260000000000000026262626000064
:101280002F0000002F00370000003700FFFFFFFF96
:101290000000BF000000BF00370000003700262616
:1012A0002626000000000000000000002626260080
:1012B000002F00002F00370000003700FF00000063
:1012C000FF00BF000000BF003700003700002626E7
:1012D000260000000000000000002600000026009C
:1012E0002F0000002F000037003700000000FF0033
:1012F000000000BF00BF00003700000037002600DC
:1013000000002600000000000000000000000000B7
:1013100000000000000000000000000000000000CD
:10132000000000000000009B000000529BA4000091
:101330005B9B6D77000000000000000000000000D3
:1013400000000000005B000000E4F6FF099BEDF6E2
:10135000FFBFA4ADBFBFBFBF767F7FB7B7BF7F76EC
:101360006EB7B7BF00000000000000005BB6F6F6E5
:10137000F6FFFFFFFFBFFFFFFFBFBFAEFFFFFFB7DF
:10138000AD65FFFFB7B6AD65FFFFBFB7AE6EFFFF40
:10139000BFB7B765000000000000F6F6EDEDADA4A4
:1013A000B66D6D5C526E6565655265765C5C5253D8
:1013B0006E246552526E25255B52772D2525526E7F
:1013C0006E2D2525000000000000A49B9B49000015
:1013D0006564A49B92006D2525649349656E652E16
:1013E0009B5224256D25655225246D2D655225259A
:1013F0006E2E645200000000000000000000004A51
:10140000000000005B9B0000005B5B2D0000525B56
:101410002E2E00015B2D1C01005C5B014A654A5BBE
:101420001C6E7F77495B9B77776D5B65776E656533
:101430006D2D25255C522E25130949641C09095C74
:101440007F7F091C7F7F777F777F77777F7F7776B6
:10145000777F7F6E656E6EA4B6FF655BA4B7BFFF36
:10146000526DBFBFBFFF7FBFBFBFBFFFBFBFB7BF13
:10147000FFFF7FB7BFBFFFFF6EB7BFBFFFFF77BFE5
:10148000BFBFFFFFFFFFBFBFB75BFFFFBFBFA464CE
:10149000FFFFBFADA47FFFFFBFA4BF7FFFBFADBFF6
:1014A000BFBFFFB6BFBFBF77F7BFBFBF7777FFBF75
:1014B000BFBF64526D7F6E2E2D2D7F766E6E6E2EA9
:1014C000777777762E1C7F776E251C257765252507
:1014D0001C096E6E1C0949255B494A6E7F6453776F
:1014E000BF775B5C256E6E255B4A25651C1B5B0028
:1014F0002524245B53001C1B5B5C00000A5B64001A
:1015000000006464000000005C00000000000000B7
:10151000000000005B5C7FBF77765C6D7FB77777FC
:101520005C6D7FBF77775C64BFBFBFBF0A5C6EBF77
:10153000BFBF0065646DBFBF00005B6D646D0000E0
:101540000000125B7777777F6E6E77777F766D76A8
:1015500077BF776D6E76BF7F6D6E767FBF7676BF15
:10156000BF76BFBFBFB664ADADB6B6ADBFFF646DED
:10157000ADB6AD6477BFBFBFFFFF77BFBFBFFFFF93
:101580007FBFBFBFFFF6BFB7ADF6FFFFA4ADFFFF44
:10159000FFFFFFFFFFFFFFFFFFFFFFF6A4005B520F
:1015A00000000000BFBFAD5B64BFB6ADADBFFFBF05
:1015B000FFFFFFFFBF64FFFFBFB6765BFFBFBF5BF0
:1015C0000000FF5C000000000000000000000000C0
:1015D00000000000BFBF645C5C006E5C65490000F9
:1015E0006D5B000000000000000000000000000033
:1015F00000000000000000000000000000000000EB
:1016000000000000060004000000010002000300CA
:101610000400050006000700080009000A000B008E
:101620000C000D000E000F00100000001100120051
:101630001300140015001600060003000000170038
:10164000180019001A001B001C001D001E001F00BE
:101650002000210022002300240025002600000095
:1016600000020800085504085A0000F8000990001C
:101670000A1E32050000FF00000060160000000096
:10168000B914C714A5152C191819CA14D914E814BB
:101690000019F61404150000000100020003000404
:1016A000000501000101010201030104010502001E
:1016B0000201020202030204020503000301030205
:1016C00003030304030504000401040204030404E7
:1016D00004050500050105020503050405050600CE
:1016E00006010602060306040605070007010702B5
:1016F0000703070407050800080108020803080497
:1017000008050900090109020903090409050A007D
:101710000A010A020A030A040A050B000B010B0264
:101720000B030B040B050C000C010C020C030C0446
:101730000C050D000D010D020D030D040D050E002D
:101740000E010E020E030E040E050F000F010F0214
:101750000F030F040F0510001001100210031004F6
:1017600010051100110111021103110411051200DD
:1017700012011202120312041205130013011302C4
:1017800013031304130514001401140214031404A6
:10179000140515001501150215031504150516008D
:1017A0001601160216031604160517001701170274
:1017B0001703170417051800180118021803180456
:1017C00018051900190119021903190419051A003D
:1017D0001A011A021A031A041A051B001B011B0224
:1017E0001B031B041B051C001C011C021C031C0406
:1017F0001C051D001D011D021D031D041D051E00ED
:101800001E011E021E031E041E051F001F011F02D3
:101810001F031F041F0511241FBECFEFD0E1DEBF41
:10182000CDBF14BE88E10FB6F8948093600010928B
:1018300060000FBE11E0A0E0B1E0E4E0F7E402C018
:1018400005900D92AC30B107D9F710E1ACE0B1E0F2
:1018500001C01D92A835B107E1F7F894E1E0FAE084
:1018600080E090E020E802C02193019632E08C30C5
:101870009307D4F381E09AE090930E0C80930D0CC3
:1018800010920F0CE2E1FCE080E090E003C01082D7
:1018900001963A9684309105D4F39093F10F80939A
:1018A000F00F91E09093320C9093330C9093310CA5
:1018B0001092810015BC8FEF87B984B980E88AB98E
:1018C0008CE081B983EF82B91092E00986E08093C1
:1018D000E109109285001092840083E080938900D2
:1018E0008DE88093880089E08093810082E0809376
:1018F0006F0082E484BD17BC95BD83E88093B0007F
:101900001092B3009093B10081E185B978940E9460
:101910006F140E947A0D0C9480230C9400006F9237
:101920007F928F929F92AF92BF92CF92DF92EF926F
:10193000FF920F931F93CF93DF938C01EB016A010A
:1019400088809980FC01A080B1809A0146E2642ED3
:10195000712CF901E050FF4F8081E82EFF24E7FC55
:10196000F094A701440F551F480D591DF901EC5F74
:10197000FE4F8081682F772767FD7095DB01AA0FE6
:10198000BB1FAA0DBB1DA69DF001A79DF00DB69D26
:10199000F00D1124E40FF51FE65CF34F80818136D2
:1019A00009F52083F80180819181680F791F86E213
:1019B00090E0689FF001699FF00D789FF00D112471
:1019C000EE0DFF1D88819981E80FF91FE65CF34F4A
:1019D00080E2808359834883F801B183A08321E0AA
:1019E00030E017C0B9016F5F7F4F80E090E0233097
:1019F000310514F481E090E0869F9001879F300DBF
:101A0000969F300D11242C153D0509F0A2CF20E042
:101A100030E0C901DF91CF911F910F91FF90EF90BE
:101A2000DF90CF90BF90AF909F908F907F906F90FE
:101A30000895CF92DF92EF92FF921F93CF93DF939F
:101A400080E19CE00E943D14C0E0D0E056E2C52E4B
:101A5000D12C29C0F70180818F3479F080352CF4A6
:101A6000803241F08A3279F40BC0813661F440E073
:101A700050E00BC045E050E008C04AE050E005C02F
:101A800047E050E002C042E050E06C2F812F0E94FE
:101A900019140894E11CF11C1F5F1832D9F6219625
:101AA000C831D10569F0CC9D7001CD9DF00CDC9D55
:101AB000F00C11248AE39CE0E80EF91E13E0CACF73
:101AC00013E045E050E068E1812F0E9419141F5F88
:101AD0001832B9F74EE85EE06AE170E083E090E02A
:101AE0000E94AD19DF91CF911F91FF90EF90DF9091
:101AF000CF9008952F923F924F925F926F927F9274
:101B00008F929F92AF92BF92CF92DF92EF92FF920D
:101B10000F931F93DF93CF9300D000D0CDB7DEB7E4
:101B200080E790E00E9438140E94B11353985B9AAA
:101B30005524EE246624772496E2892E912C80E2A7
:101B4000382E04E0202E1AE2412E20E030E022C0A0
:101B5000289DF001299DF00D389DF00D1124E65CC3
:101B6000F34F80E090E01816190664F4121613067D
:101B70004CF48432910531F02831310519F041E6F9
:101B8000408301C03082019631968532910559F724
:101B90002F5F3F4F29313105DCF282E090E09A83DC
:101BA00089839C838B832092880C0E94D12283702E
:101BB0009070AC01BE016D5F7F4FCE0101960E9417
:101BC0008F0C892B91F749815A812B813C81489D4B
:101BD000F001499DF00D589DF00D1124E20FF31F07
:101BE000E65CF34F8081A82FBB27A7FDB09530821C
:101BF000A430B105BCF4FD01E050FF4F80816EEFD1
:101C00008602C0011124820F931F9C838B83AC5FDB
:101C1000BE4F8C918602C0011124840F951F9A83B8
:101C20008983C3CF0E94D122F82E82508232D0F70E
:101C30000E94D122182F82508631D0F7812F90E058
:101C4000AF2CBB24889DF001899DF00D989DF00D6F
:101C50001124EA0DFB1DE65CF34F8081813611F300
:101C600040820E94D1228370813051F0813028F06F
:101C7000823059F0833081F40BC0B2E05B2E02C099
:101C8000A2E25A2EF2E0EF2E07C0E2E25E2E02C080
:101C900072E0572E66E1E62EC52CDD24C5018C19B5
:101CA0009D090F964F97E8F2AE2CBB24A89CF0013B
:101CB000A99CF00DB89CF00D1124EC0DFD1DE65C07
:101CC000F34F8FE48083A6C00894611C711C80E0F0
:101CD0000E944914082F81E090E00E94061B002317
:101CE00009F495C0812F90E0AF2DB0E0889DF00100
:101CF000899DF00D989DF00D1124EA0FFB1FE65C05
:101D0000F34F308206FF10C00196889DF001899D37
:101D1000F00D989DF00D1124EA0FFB1FE65CF34FC8
:101D20008081813609F01F5F07FF12C0812F90E08C
:101D30000197889DF001899DF00D989DF00D11246B
:101D4000EA0FFB1FE65CF34F8081813609F01150EA
:101D500005FF12C0812F90E09C01289DC001299DA4
:101D6000900D389D900D1124A80FB91FA75CB34F9B
:101D70008C91813609F0FA9404FF11C0812F90E014
:101D8000889DF001899DF00D989DF00D1124E65C71
:101D9000F34FEF0DF11D8181813609F0F394812F0E
:101DA00090E0889DF001899DF00D989DF00D112423
:101DB000EF0DF11DE65CF34F80818F3439F586E23B
:101DC00090E0A89EF001A99EF00DB89EF00D1124A0
:101DD000EC0DFD1DE65CF34F40820E94190D41E8B9
:101DE0005EE069E170E08EE090E00E94AD198EE166
:101DF00090E00E94061B1EE04BE050E069E1812F5D
:101E00000E9419141F5F1A31B9F79FCE4082C30197
:101E10000E94D6220E94190D4B9956CF96CE6F1371
:101E2000791387139212EEEDC8950000EA95E1F759
:101E3000000000000000000000000000C0E2D1E04F
:101E400000EEA02E662776E03BD434E23A95F1F717
:101E50000E945A0F3FE03A95F1F70000AA94A9F0CA
:101E60000000639500000000683029F0C895C8950F
:101E7000C8950000E9CF6627002430E5C30FD01DC8
:101E80000000000000000000DFCFC895C895C8958D
:101E9000C895C8950000000013D411E00091E30933
:101EA00001270093E30900FF1093E209E2E0E093C9
:101EB000360008958F939F93DE01679FC001000055
:101EC0004D915D91480F591FFA01059108B94D9147
:101ED000059108B95D91059108B900C0059108B94F
:101EE00000C0059108B9480F591F059108B90000B5
:101EF000FA01059108B94D91059108B95D910591D7
:101F000008B900C0059108B900C0059108B9480F8B
:101F1000591F059108B90000FA01059108B94D91C2
:101F2000059108B95D91059108B900C0059108B9FE
:101F300000C0059108B9480F591F059108B9000064
:101F4000FA01059108B94D91059108B95D91059186
:101F500008B900C0059108B900C0059108B9480F3B
:101F6000591F059108B90000FA01059108B94D9172
:101F7000059108B95D91059108B900C0059108B9AE
:101F800000C0059108B9480F591F059108B9000014
:101F9000FA01059108B94D91059108B95D91059136
:101FA00008B900C0059108B900C0059108B9480FEB
:101FB000591F059108B90000FA01059108B94D9122
:101FC000059108B95D91059108B900C0059108B95E
:101FD00000C0059108B9480F591F059108B90000C4
:101FE000FA01059108B94D91059108B95D910591E6
:101FF00008B900C0059108B900C0059108B9480F9B
:10200000591F059108B90000FA01059108B94D91D1
:10201000059108B95D91059108B900C0059108B90D
:1020200000C0059108B9480F591F059108B9000073
:10203000FA01059108B94D91059108B95D91059195
:1020400008B900C0059108B900C0059108B9480F4A
:10205000591F059108B90000FA01059108B94D9181
:10206000059108B95D91059108B900C0059108B9BD
:1020700000C0059108B9480F591F059108B9000023
:10208000FA01059108B94D91059108B95D91059145
:1020900008B900C0059108B900C0059108B9480FFA
:1020A000591F059108B90000FA01059108B94D9131
:1020B000059108B95D91059108B900C0059108B96D
:1020C00000C0059108B9480F591F059108B90000D3
:1020D000FA01059108B94D91059108B95D910591F5
:1020E00008B900C0059108B900C0059108B9480FAA
:1020F000591F059108B90000FA01059108B94D91E1
:10210000059108B95D91059108B900C0059108B91C
:1021100000C0059108B9480F591F059108B9000082
:10212000FA01059108B94D91059108B95D910591A4
:1021300008B900C0059108B900C0059108B9480F59
:10214000591F059108B90000FA01059108B94D9190
:10215000059108B95D91059108B900C0059108B9CC
:1021600000C0059108B9480F591F059108B9000032
:10217000FA01059108B94D91059108B95D91059154
:1021800008B900C0059108B900C0059108B9480F09
:10219000591F059108B90000FA01059108B94D9140
:1021A000059108B95D91059108B900C0059108B97C
:1021B00000C0059108B9480F591F059108B90000E2
:1021C000FA01059108B94D91059108B95D91059104
:1021D00008B900C0059108B900C0059108B9480FB9
:1021E000591F059108B90000FA01059108B94D91F0
:1021F000059108B95D91059108B900C0059108B92C
:1022000000C0059108B9480F591F059108B9000091
:10221000FA01059108B94D91059108B95D910591B3
:1022200008B900C0059108B900C0059108B9480F68
:10223000591F059108B90000FA01059108B94D919F
:10224000059108B95D91059108B900C0059108B9DB
:1022500000C0059108B9480F591F059108B9000041
:10226000FA01059108B94D91059108B95D91059163
:1022700008B900C0059108B900C0059108B9480F18
:10228000591F059108B90000FA01059108B94D914F
:10229000059108B95D91059108B900C0059108B98B
:1022A00000C0059108B9480F591F059108B90000F1
:1022B000FA01059108B94D91059108B95D91059113
:1022C00008B900C0059108B900C0059108B9480FC8
:1022D000591F059108B90000FA01059108B94D91FF
:1022E000059108B95D91059108B900C0059108B93B
:1022F00000C0059108B9480F591F059108B90000A1
:10230000FA01059108B94D91059108B95D910591C2
:1023100008B900C0059108B900C0059108B9480F77
:10232000591F059108B90000FA01059108B94D91AE
:10233000059108B95D91059108B900C0059108B9EA
:1023400000C0059108B9480F591F059108B9000050
:10235000FA01059108B94D91059108B95D91059172
:1023600008B900C0059108B900C0059108B9480F27
:10237000591F059108B90000FA01059108B94D915E
:10238000059108B95D91059108B900C0059108B99A
:1023900000C0059108B9480F591F059108B9000000
:1023A000FA01059108B94D91059108B95D91059122
:1023B00008B900C0059108B900C0059108B9480FD7
:1023C000591F059108B90000FA01059108B94D910E
:1023D000059108B95D91059108B900C0059108B94A
:1023E00000C0059108B9480F591F059108B90000B0
:1023F000FA01059108B94D91059108B95D910591D2
:1024000008B900C0059108B900C0059108B9480F86
:10241000591F059108B90000FA01059108B94D91BD
:10242000059108B95D91059108B900C0059108B9F9
:1024300000C0059108B9480F591F059108B900005F
:10244000FA01059108B94D91059108B95D91059181
:1024500008B900C0059108B900C0059108B9480F36
:10246000591F059108B90000FA01059108B94D916D
:10247000059108B95D91059108B900C0059108B9A9
:1024800000C0059108B9480F591F059108B900000F
:10249000FA01059108B94D91059108B95D91059131
:1024A00008B900C0059108B900C0059108B9480FE6
:1024B000591F059108B90000FA01059108B94D911D
:1024C000059108B95D91059108B900C0059108B959
:1024D00000C0059108B9480F591F059108B90000BF
:1024E000FA01059108B94D91059108B95D910591E1
:1024F00008B900C0059108B900C0059108B9480F96
:10250000591F059108B90000FA01000000270000DA
:1025100008B908E00A95F1F70000000000009F915B
:102520008F91089528980E94A71CE7E1EA95F1F79A
:10253000289A10D1E0E0F6E0F3D0E0FF4ED0E0FFC3
:1025400002C00E94C71B0895129A0C94A7120C9403
:10255000A912129844275527662777278CE00C94F8
:10256000B1120C94B3120C94B5120C94B7120C94D3
:10257000B9120C94BB12440F551F00994160660FAD
:10258000771F01996160139A0C94C6120C94C812BB
:1025900013980C94CB120C94CD120C94CF120C9473
:1025A000D1128A9541F740955095609570955F706E
:1025B0007F704093EA095093EB096093EC097093A4
:1025C000ED099BE04830590711F40E94631468300C
:1025D000790711F40E9463140895EF93E091E109E3
:1025E000E93EE0F5E930D0F12F923F924F925F92B1
:1025F0006F927F928F929F92AF92BF92CF92DF9213
:10260000EF92FF920F931F932F933F934F935F93FC
:102610006F937F938F939F93AF93BF93CF93DF93EA
:102620000E94130FDF91CF91BF91AF919F918F9136
:102630007F916F915F914F913F912F911F910F91DA
:10264000FF90EF90DF90CF90BF90AF909F908F90D2
:102650007F906F905F904F903F902F90EF910895F3
:10266000FF93EF93EFB7EF93E0918400EE50E130EA
:1026700000F0E23000F0E33000F0E43000F0E5304C
:1026800000F0E63000F0E73000F0E83000F0E9302C
:1026900000F005D0EF91EFBFEF91FF9118950F92E9
:1026A0001F92EEE1FEE10090E009000C1124E00D24
:1026B000F11D05901490F00109951F900F90089559
:1026C00028980E94A71CE5E1EA95F1F7E091E1095D
:1026D000EA95E093E109289A0000000008952898FF
:1026E0000E94D01C289A0000E1E0F6E019D02BD01F
:1026F000089528980E94D01CE0EB0000EA95E9F7C5
:1027000000000000289AF6E0E2E00AD00895289838
:102710000E94D01C289A0000E3E0FDEF01D008954C
:102720000090E1090A9410905F0011FC0F2E0092B6
:10273000E1090090E00911FC0E2E0092E009E0E0B2
:1027400011FCE1E00895E3E0E0938900EDE8E09317
:1027500088000895E7E0E0938900EBE1E0938800CA
:102760000895E0E6F4E0A0E2B1E06091E80970913C
:10277000E9096D937D933197E1F7112408950F9343
:102780001F9380E694E0A0E2B1E0E091E609F091C9
:10279000E70940E30091E4091091E509659175911D
:1027A000649F9001749F300D200F311F2D933D9336
:1027B0000197A1F711241F910F9108959927772769
:1027C000332720E5629F880F080E131EE091E6096B
:1027D000F091E709E00DF11D45915591A0E2B1E0BE
:1027E000A00DB11D20E3429FB001529F700D40919A
:1027F000E4095091E509640F751F6D937C931124D2
:1028000008959927552728E2220F629F880F080E06
:10281000191EA0E2B1E0A00DB11D6091E809709110
:10282000E90920E3429F600D711D6D937C93112493
:1028300008959927772728E2220F629F880F080EB4
:10284000191EA0E2B1E0A00DB11D6091E4097091E4
:10285000E50920E3429F600D711D529F700D6D933D
:102860007C93112408958093E6099093E7090895D5
:102870008093E8099093E90908958093E40990937F
:10288000E50908958091E209089511241092E20962
:102890000895882329F48091EA099091EB0908951D
:1028A0008091EC099091ED09089580E891E0809382
:1028B000610090936100089580E890E0809361004A
:1028C00090936100089528E088E190E00FB6F894B5
:1028D000A895809360000FBE209360000895EF924A
:1028E000FF920F931F9307E716E1C8010E9412158C
:1028F00084EBE82E8EE0F82EC7010E943D14C7013C
:102900000E9438140E94B1138FE090E00E94061BD1
:10291000C8010E94121541E06FEF80E00E949018FC
:1029200004E016E1A8016CE082E10E94B91A83E09C
:1029300090E00E94061B48E356E16CE082E10E94B1
:10294000B91A82E090E00E94061BA8016CE082E1C7
:102950000E94B91A8EE190E00E94061B0E94B113FA
:1029600084E190E00E94061B1F910F91FF90EF9071
:10297000089590E025E130E0829FF001839FF00D03
:10298000929FF00D1124EC50F04F618708956093F1
:10299000310C089590E025E130E0829FF001839FA3
:1029A000F00D929FF00D1124EC50F04F1286118221
:1029B000089590E025E130E0829FF001839FF00DC3
:1029C000929FF00D1124EC50F04F81E0828B08951E
:1029D00090E025E130E0829FF001839FF00D929F0F
:1029E000F00D1124EC50F04F6087089590E025E140
:1029F00030E0829FF001839FF00D929FF00D112433
:102A0000EC50F04F6483089590E025E130E0829F20
:102A1000F001839FF00D929FF00D1124EC50F04FC8
:102A20006583089590934B1080934A108FE68093AE
:102A300050101092000AE4EFFFE021E09FEF88E1E0
:102A4000208317829683138611828583759630E1E1
:102A5000E834F307A9F708951092F50F10920A10C1
:102A600010921F101092341001969093541080937E
:102A700053109093F30F8093F20F9093571080931D
:102A8000561010925210109251101092491010923C
:102A9000481010924C1081E08093000A10924F1061
:102AA00010924E1008958091F20F9091F30F0E94B2
:102AB0002C1508958091FD0F87FD03C08AEF809348
:102AC000FD0F8091121087FD03C08AEF80931210D2
:102AD0008091271087FD03C08AEF80932710809193
:102AE0003C1087FD03C08AEF80933C101092000ACF
:102AF000089581E08093000A0895DC01ED91FC9136
:102B00001197AF014F5F5F4F11965C934E93E49125
:102B10002E2F30E0E7FF13C02F7730703695322F1D
:102B2000222737952795FA014F5F5F4FE4918E2F4B
:102B30008F77280F311DE7FDF1CF4D935C93C901CD
:102B4000089580935010089508950E949F1B089542
:102B5000EF92FF920F931F93CF93DF93182F062FBF
:102B6000F42EE22EC82FD0E085E190E0C89FF0015E
:102B7000C99FF00DD89FF00D1124EC50F04F8285C5
:102B8000882321F08181882309F087C0EE2091F409
:102B900085E190E0C89FF001C99FF00DD89FF00D2E
:102BA0001124EC50F04F128A8185882309F075C0FA
:102BB000178273C0133059F481E091E09093330C85
:102BC0008093320C81E08093310C0F2D08C060E0BF
:102BD000812F0E949F1B6F2D812F0E94801B0F371A
:102BE00099F485E190E0C89FF001C99FF00DD89F4E
:102BF000F00D1124EC50F04F80914D1086878EE43B
:102C000090E1948B838B30C089E0089FC001112430
:102C1000E0914A10F0914B10E80FF91F339645915F
:102C200054914115510571F485E190E0C89FF00180
:102C3000C99FF00DD89FF00D1124EC50F04F148A6D
:102C4000138A12C0FA01249185E190E0C89FF00137
:102C5000C99FF00DD89FF00D1124EC50F04F26873E
:102C60004F5F5F4F548B438B85E190E0C89FF0012D
:102C7000C99FF00DD89FF00D1124EC50F04F17862E
:102C80001186038711828FEF8087E782F282108A94
:102C900081E08287128A118A1482DF91CF911F917D
:102CA0000F91FF90EF900895CF92DF92FF920F93D4
:102CB0001F93CF93DF93ECEFFFE08181282F332721
:102CC00027FD30958081280F311D2F3F310519F0E8
:102CD00014F02FEF30E0C90137FF02C080E090E030
:102CE0008083759640E1E035F40739F78091000A5A
:102CF000882309F019C135C1E0915310F0915410A7
:102D00009F012F5F3F4F30935410209353104491F5
:102D10004F3F69F5A9014F5F5F4F509354104093A7
:102D20005310F90184918F3219F41092000A0AC1EC
:102D3000863009F0EAC0FA013196CF0101969093EE
:102D4000541080935310E491E33529F49093571075
:102D500080935610DAC0E53409F0D7C08091561040
:102D6000909157109093541080935310CEC047FF0A
:102D700002C040934C10542F5F70842F90E0807FEE
:102D80009070803B910529F1803C910579F1803963
:102D9000910509F042C0C9010196F90144910196DB
:102DA00090935410809353100197FC012491852F28
:102DB00090E08C9FF0018D9FF00D9C9FF00D1124F1
:102DC000EC50F04F8081882309F49FC0220F638567
:102DD00052C0C9010196F901449101969093541093
:102DE000809353100197FC01249153C02F5F3F4FF4
:102DF000309354102093531021503040F901249106
:102E0000852F90E08C9FF0018D9FF00D9C9FF00D21
:102E10001124EC50F04F238778C080914C10582F2C
:102E20005F7090E0807F9070803B910541F1803C25
:102E3000910509F45EC08039910509F066C02F5FE5
:102E40003F4F309354102093531021503040F901DC
:102E50002491852F90E08C9FD0018D9FB00D9C9F79
:102E6000B00D1124AC50B04F8C91882309F44DC0A3
:102E7000220F1B966C91852F0E94A81546C02F5FCC
:102E80003F4F309354102093531021503040F9019C
:102E90002491473071F4852F90E08C9FF0018D9F35
:102EA000F00D9C9FF00D1124EC50F04F220F268363
:102EB0002CC04C3571F4852F90E08C9FF0018D9FD4
:102EC000F00D9C9FF00D1124EC50F04F220F248345
:102ED0001CC04436D1F4852F90E08C9FF0018D9F6B
:102EE000F00D9C9FF00D1124EC50F04F220F258324
:102EF0000CC0852F90E08C9FF0018D9FF00D9C9F62
:102F0000F00D1124EC50F04F438783E590E10E94CF
:102F10007D1596958795909352108093511010923D
:102F200049101092481002C0C5E1D0E060914810ED
:102F30007091491080915110909152106817790743
:102F400009F4DACE6F5F7F4F709349106093481099
:102F500080914E1090914F10019690934F10809356
:102F60004E1002E11CE0C5EFDFE0FF24BFEFCB2EE7
:102F7000D12C8989882309F05EC08A899B89892B95
:102F800009F456C09E858D85981708F04CC050C036
:102F90008A852A893B898F37E9F4D9018D91BB8BCA
:102FA000AA8B8F3F01F1F90161811196BB8BAA8B2E
:102FB000E82FF0E0EE0FFF1FE058F94E0190F0818E
:102FC000E02D8F2D0995EA89FB8981918D87FB8BF7
:102FD000EA8B28C0A9014F5F5F4F5B8B4A8BF901D9
:102FE00084918F3F21F418821B8A1A8A21C04F5F77
:102FF0005F4F5B8B4A8B41505040FA01649190E0E7
:10300000880F991F8058994EFC01259134918F2D7E
:10301000F9010995EA89FB893196FB8BEA8B319797
:10302000E491ED871E869E858D85981709F4B0CFB3
:103030008E858F5F8E878985882319F420E030E0A4
:103040005DC08F858F3F11F08F5F8F879E819923A1
:1030500009F44EC02F81222309F44AC08D818823B0
:1030600009F446C040915010442309F441C0899F9F
:10307000C001112480509F4F892F992730E0BC0157
:10308000629FC001639F900D729F900D112480502C
:103090009F4F892F9927242F30E0FC01E29FC00128
:1030A000E39F900DF29F900D112480509F4F292F88
:1030B00033278B818823F1F0EA81F0E0E050F64C71
:1030C000E491E058E89FC001112480509F4F892F60
:1030D0009927A601481B590B429FC001439F900DA1
:1030E000529F900D112480509F4F292F332702C0EB
:1030F00020E030E08A819C81890F8A83F801208357
:10310000F394065F1F4F6596F4E0FF1609F031CF88
:10311000DF91CF911F910F91FF90DF90CF90089595
:103120001F93CF93DF93582F89E0589FC00111243C
:1031300020914A1030914B10280F391FC901039676
:10314000FC01A591B491F90184918150823010F471
:1031500013E01DC080910A108823B1F080911510F2
:10316000851711F4442381F480911F10882371F096
:1031700080912A10851711F4442341F4909119107D
:1031800080912E10891710F411E001C012E0212F58
:1031900030E0FD01449185E190E0289FE001299F06
:1031A000D00D389FD00D1124CC50D04F4E871196A2
:1031B000BC8BAB8B1F8680E58A836F838FEF8887FC
:1031C00019861A8A188A21E02A87198A5C87298336
:1031D0001C82133049F481E091E09093330C80938A
:1031E000320C2093310C08C060E5812F0E94801BB7
:1031F0006989812F0E949F1BDF91CF911F910895B4
:10320000FF920F931F93082FF62E0E94801B10E051
:1032100085E190E0089FF001099FF00D189FF00DE7
:103220001124EC50F04FF2821F910F91FF900895FE
:10323000962F482F50E025E130E0429FF001439F58
:10324000F00D529FF00D1124EC50F04F6281691B7C
:1032500062830E94801B0895482F50E025E130E0F2
:10326000429FF001439FF00D529FF00D1124EC504E
:10327000F04F9281690F62830E94801B08951F9313
:10328000CF93DF93FA01549131961491C52FD0E07A
:103290009F012F5F3F4F70E095E0660F771F9A9573
:1032A000E1F7680F711D40E00FC084918C93119677
:1032B0001C9211979F5F319612969517B0F34F5F4E
:1032C0002C0F3D1F605E7F4F411740F4DB01AA0FBA
:1032D000BB1FA05EBE4FF90190E0EFCFDF91CF9111
:1032E0001F9108958F929F92AF92BF92CF92DF92DB
:1032F000EF92FF920F931F93CF93DF93882E962E1A
:103300005A016901F02E00E010E080EEF80E0CC0CA
:103310004F2D6E2D882D8C0F0E9401142196CA15F9
:10332000DB05B4F30F5F1F4F0C151D052CF4C0E037
:10333000D0E0E02EE90CF3CFDF91CF911F910F91F8
:10334000FF90EF90DF90CF90BF90AF909F908F90C5
:10335000089540520E9401140895FF920F931F9305
:10336000CF93DF938C01F62EEA01FE014491219662
:10337000442349F0802F0F5F1F4F4F7740526F2D2E
:103380000E940114F2CFDF91CF911F910F91FF9016
:103390000895FF920F931F93182F062FF42E429536
:1033A0004F704A3010F4405F01C0495E602F812F9A
:1033B0000E9401144F2D4F70812F8F5F4A3010F4FF
:1033C000405F01C0495E602F0E9401141F910F9160
:1033D000FF900895FF920F931F93F82E162F042F3E
:1033E000452F0E94C919402F612F8F2D8E5F0E949B
:1033F000C9191F910F91FF900895EF92FF920F93BB
:103400001F93F62E042F182F28E0E22EE80E07FF58
:1034100002C041E101C040E16F2D812F0E940114E3
:103420001F5F1E1511F0000FF2CF1F910F91FF903B
:10343000EF900895FF920F931F93CF93DF93F62E93
:10344000042FEC0110E0002311F4112339F4802F34
:103450006AE00E94E122905F492F01C040E06F2D99
:103460008C2F0E9401141F5F2197133031F0802FA1
:103470006AE00E94E122082FE6CFDF91CF911F91F1
:103480000F91FF900895CF92DF92EF92FF920F93EA
:103490001F93CF93DF93C62E79018A01EC01DD24BF
:1034A000E114F1040105110511F4DD2059F4C801FE
:1034B000B7012AE030E040E050E00E94ED22462FC4
:1034C000405F01C040E06C2D8C2F0E940114D3940A
:1034D000219786E0D81669F0C801B7012AE030E0EC
:1034E00040E050E00E94ED22C901DA017C018D012B
:1034F000D7CFDF91CF911F910F91FF90EF90DF9089
:10350000CF9008957F928F929F92AF92BF92CF9269
:10351000DF92EF92FF920F931F93CF93DF93782E5A
:10352000862E5A016901780100E010E00CC0A70165
:10353000692D872D8C0F0E9419142196CA15DB0561
:10354000B4F30F5F1F4F0C151D052CF4C0E0D0E045
:10355000902E980CF3CFDF91CF911F910F91FF9098
:10356000EF90DF90CF90BF90AF909F908F907F9023
:1035700008957F928F929F92AF92BF92CF92DF92E7
:10358000EF92FF920F931F93CF93DF93782E862EA7
:10359000EA01FA01C590D490FA013296A590B49050
:1035A00000E016C0FC01EE0DFF1D3296EE0FFF1F6E
:1035B000EC0FFD1F45915491692D812F870D0E94BD
:1035C00019141F5F812F90E08C159D055CF30F5F30
:1035D000802F90E08A159B055CF48C9D70018D9D79
:1035E000F00C9C9DF00C112410E0902E980CEACF6A
:1035F000DF91CF911F910F91FF90EF90DF90CF90CF
:10360000BF90AF909F908F907F9008950F931F93DE
:10361000CF93DF938C01C0E0D0E007C00E9442143A
:103620008823E1F30E9445142196C017D107B4F313
:10363000DF91CF911F910F910895000000000000CD
:10364000000000000000000000000000000000007A
:10365000000000000000000000000000000000006A
:10366000000000000000000000000000000000005A
:10367000000000000000000000000000000000004A
:10368000000000000000000000000000000000003A
:10369000000000000000000000000000000000002A
:1036A000000000000000000000000000000000001A
:1036B000000000000000000000000000000000000A
:1036C00000000000000000000000000000000000FA
:1036D00000000000000000000000000000000000EA
:1036E00000000000000000000000000000000000DA
:1036F00000000000000000000000000000000000CA
:1037000099277727833008F00895E0E0F4E4660F06
:10371000771FE60FF71FA591B491E2E1FCE02AE0E4
:10372000289FE00DF11DA183B2831124089590918B
:10373000310C9170880F892B8093310C0895992753
:103740007727E2E1FCE02AE0289FE00DF11D6E3FC3
:1037500031F46091310C6E7F6093310C0BC06F3F80
:1037600031F46091310C6E6F6093310C03C07AE3D9
:10377000760F75831124089599277727E2E1FCE0FD
:103780002AE0289FE00DF11D6083112408952F93F6
:103790003F934F935F936F937F938F939F93AF93D9
:1037A000BF93789411240E94A4120E9454162F9261
:1037B0003F924F925F926F927F928F929F92AF92C1
:1037C000BF92CF92DF92EF92FF920F931F93CF930E
:1037D000DF9300900F0C002019F4A1E0BAE002C0C2
:1037E000A7E0BBE001E0002600920F0C02E000938E
:1037F000100C5091300C6091320C7091330C809110
:10380000340C2090130C3090140C4090160C5090F7
:10381000170C6090150C1091120C70901D0C80907C
:103820001E0C90901F0CA090200CB090210C2091A9
:103830001C0CC090270CD090280CE0902A0CF09023
:103840002B0C0091290C3091260C9FEF620C431C2D
:10385000F2014491410300240008C12DD02D970CA2
:10386000A81CF5014491420300240008C10DD01D9D
:103870000C0DED1CF7014491430300240008C10D19
:10388000D01D8A956AF44091310C842F8695062EBE
:103890000694062600FA7695679576F940FF66F954
:1038A00040E860FD4FE7450300240008C10DD01D2E
:1038B0000024C038D0050CF0CFE70A94C038D005FA
:1038C0000CF4C0E8C058CD939A9509F0BFCF409151
:1038D000100C4A954093100C97E009F0B7CF609216
:1038E000150C4092160C90921F0CA092200C009385
:1038F000290CE0922A0C6093320C7093330C809365
:10390000340CDF91CF911F910F91FF90EF90DF90DA
:10391000CF90BF90AF909F908F907F906F905F906F
:103920004F903F902F9099278091E00977276091E1
:10393000E10911240E94A415BF91AF919F918F912D
:103940007F916F915F914F913F912F9108950C94CA
:10395000A91C0C94AB1C0F931F932ABDE0910D0C76
:10396000F0910E0C019100000093B3000CE0ED30DB
:10397000F00710F40000000010F0E1E0FAE0E0933E
:103980000D0CF0930E0CC895C895C895C895C895B0
:10399000C8950000000000002AB51F910F910895FE
:1039A0000000E091E109E0FFD6CFE1E1EA95F1F70F
:1039B000000000000895000000000000000000006A
:1039C00000000000000000000000000000000000F7
:1039D00000000000000000000000000000000000E7
:1039E00000000000000000000000000000000000D7
:1039F00000000000000000000000000000000000C7
:103A0000000306090C101316191C1F2225282B2E43
:103A1000313336393C3F414447494C4E5153555858
:103A20005A5C5E60626466686A6B6D6F7071737415
:103A3000757678797A7A7B7C7D7D7E7E7E7F7F7FCE
:103A40007F7F7F7F7E7E7E7D7D7C7B7A7A797876B4
:103A500075747371706F6D6B6A68666462605E5CCA
:103A60005A585553514E4C494744413F3C393633DF
:103A7000312E2B2825221F1C191613100C090603A2
:103A800000FDFAF7F4F0EDEAE7E4E1DEDBD8D5D2A9
:103A9000CFCDCAC7C4C1BFBCB9B7B4B2AFADABA874
:103AA000A6A4A2A09E9C9A9896959391908F8D8C97
:103AB0008B8A8887868685848383828282818181BE
:103AC0008181818182828283838485868687888AB8
:103AD0008B8C8D8F9091939596989A9C9EA0A2A482
:103AE000A6A8ABADAFB2B4B7B9BCBFC1C4C7CACD4D
:103AF000CFD2D5D8DBDEE1E4E7EAEDF0F4F7FAFD6A
:103B0000808182838485868788898A8B8C8D8E8F3D
:103B1000909192939495969798999A9B9C9D9E9F2D
:103B2000A0A1A2A3A4A5A6A7A8A9AAABACADAEAF1D
:103B3000B0B1B2B3B4B5B6B7B8B9BABBBCBDBEBF0D
:103B4000C0C1C2C3C4C5C6C7C8C9CACBCCCDCECFFD
:103B5000D0D1D2D3D4D5D6D7D8D9DADBDCDDDEDFED
:103B6000E0E1E2E3E4E5E6E7E8E9EAEBECEDEEEFDD
:103B7000F0F1F2F3F4F5F6F7F8F9FAFBFCFDFEFFCD
:103B8000000102030405060708090A0B0C0D0E0FBD
:103B9000101112131415161718191A1B1C1D1E1FAD
:103BA000202122232425262728292A2B2C2D2E2F9D
:103BB000303132333435363738393A3B3C3D3E3F8D
:103BC000404142434445464748494A4B4C4D4E4F7D
:103BD000505152535455565758595A5B5C5D5E5F6D
:103BE000606162636465666768696A6B6C6D6E6F5D
:103BF000707172737475767778797A7B7C7D7E7F4D
:103C000000020406080A0C0E10121416181A1C1EC4
:103C100020222426282A2C2E30323436383A3C3EB4
:103C200040424446484A4C4E50525456585A5C5EA4
:103C300060626466686A6C6E70727476787A7C7E94
:103C40007F7D7B79777573716F6D6B696765636174
:103C50005F5D5B59575553514F4D4B494745434164
:103C60003F3D3B39373533312F2D2B292725232154
:103C70001F1D1B19171513110F0D0B090705030144
:103C8000FFFDFBF9F7F5F3F1EFEDEBE9E7E5E3E134
:103C9000DFDDDBD9D7D5D3D1CFCDCBC9C7C5C3C124
:103CA000BFBDBBB9B7B5B3B1AFADABA9A7A5A3A114
:103CB0009F9D9B99979593918F8D8B898785838104
:103CC00080828486888A8C8E90929496989A9C9E04
:103CD000A0A2A4A6A8AAACAEB0B2B4B6B8BABCBEF4
:103CE000C0C2C4C6C8CACCCED0D2D4D6D8DADCDEE4
:103CF000E0E2E4E6E8EAECEEF0F2F4F6F8FAFCFED4
:103D00007F7F7F7F7F7F7F7F7F7F7F7F7F7F7F7FC3
:103D10007F7F7F7F7F7F7F7F7F7F7F7F7F7F7F7FB3
:103D20007F7F7F7F7F7F7F7F7F7F7F7F7F7F7F7FA3
:103D30007F7F7F7F7F7F7F7F7F7F7F7F7F7F7F7F93
:104000000309131E28313A40464C5054585B5E61F8
:10401000636567696B6C6E6F7071727374757677B8
:10402000777879797A7A7B7B7C7C7C7D7D7D7E7EDE
:104030007E7E7F7F7F7F7F7F7F7F7F7F7F7F7F7F92
:104040007F7F7F7F7F7F7F7F7F7F7F7F7F7E7E7E83
:104050007E7D7D7D7C7C7C7B7B7A7A7979787777B5
:10406000767574737271706F6E6C6B69676563617E
:104070005E5B5854504C46403A31281E13090300E9
:10408000C6CCD5DBDFE3E5E7E9EAEBECEDEEEFEFFD
:10409000F0F0F0F1F1F1F1F2F2F2F2F2F2F2F2F309
:1040A000F3F3F3F3F3F3F3F3F3F3F3F3F3F3F3F3E0
:1040B000F3F3F3F3F3F3F3F3F3F3F3F3F3F3F3F3D0
:1040C000F3F3F3F3F3F3F3F3F3F3F3F3F3F3F3F3C0
:1040D000F3F3F3F3F3F3F3F3F3F3F3F3F3F3F3F3B0
:1040E000F2F2F2F2F2F2F2F2F1F1F1F1F0F0F0EFBD
:1040F000EFEEEDECEBEAE9E7E5E3DFDBD5CCC6007C
:1041000000283D42302D2C2B2C2D2E2F30323335D4
:1041100037393B3D3F414345484A4C4E5053555734
:10412000595B5D5F61636567696B6C6E7071737419
:10413000757778797A7B7C7D7D7E7E7F7F7F7F7FC0
:104140007F7F7F7F7F7F7E7E7D7D7C7B7A797877A6
:1041500075747371706E6C6B69676563615F5D5BCD
:1041600059575553504E4C4A484543413F3D3B39C2
:1041700037353332302F2E2D2C2B2C2D30423D282D
:1041800000E9E5FED4D7D7D7D6D4D2D0CECCCAC892
:10419000C6C3C1BFBDBAB8B6B4B1AFADABA9A7A5D0
:1041A000A3A19F9E9C9A999795949391908F8D8CA3
:1041B0008B8A8988888786858584848483838383A2
:1041C0008383838383848484858586878888898A9A
:1041D0008B8C8D8F909193949597999A9C9E9FA18B
:1041E000A3A5A7A9ABADAFB1B4B6B8BABDBFC1C3A3
:1041F000C6C8CACCCED0D2D4D6D7D7D7D4FEE5E95C
:10420000F9F8F9F5EBE1DDDEE0E2E4E5E6E5E4E22C
:10421000DED9D2CAC1B7ACA299918A868381808047
:104220008182838586888A8C8D8F909293959697CC
:1042300098999A9B9B9C9D9D9D9E9E9E9F9F9F9FB4
:104240009F9F9F9E9E9E9D9D9D9C9B9B9A999897AC
:1042500096959392908F8D8C8A88868583828180B3
:10426000808183868A9199A2ACB7C1CAD2D9DEE295
:10427000E4E5E6E5E4E2E0DEDDE1EBF5F9F8F9009E
:104280000708070B151F2322201E1C1B1A1B1C1EB0
:1042900022272E363F49545E676F767A7E7F7F7F76
:1042A0007F7E7D7B7A7876747371706E6D6B6A69D0
:1042B00068676665656464636362626261616161C7
:1042C00061616162626263636364656566676869B0
:1042D0006A6B6D6E7071737476787A7B7D7E7F7F8A
:1042E0007F7F7E7A766F675E54493F362E27221E87
:1042F0001C1B1A1B1C1E2022231F150B070807005E
:104300001F313D444E5354565A5F64696E7476793A
:104310007C7F7F7F7F7F7F7F7F7F7F7F7F7F7F7FB0
:104320007F7F7F7F7F7F7F7F7F7F7F7F7F7F7F7F9D
:104330007F7F7F7F7F7F7F7F7F7F7F7F7F7F7F7F8D
:104340007F7F7F7F7F7F7F7F7F7F7F7F7F7F7F7F7D
:104350007F7F7F7F7F7F7F7F7F7F7F7F7F7F7F7F6D
:104360007F7F7F7F7F7F7F7F7F7F7F7F7F7F7F7F5D
:104370007F7F7F7F7F7F7F7F7F7F7F7C7871684CAF
:104380002C1C120C0A0B0A05FDF3E9DFD4CAC0B7D6
:10439000AEA69E97918B868582808080808080806B
:1043A000808080808080808080808080808080800D
:1043B00080808080808080808080808080808080FD
:1043C00080808080808080808080808080808080ED
:1043D00080808080808080808080808080808080DD
:1043E00080808080808080808080808080808080CD
:1043F000808080808087919DACC4CBD4DDF2FAFAB6
:1044000022002400260028002B002D00300033005D
:10441000360039003D004000440048004C00510087
:1044200056005B00600066006C007300790081003C
:10443000880090009900A200AC00B600C100CC003A
:10444000D800E500F300010110012101320144010F
:1044500057016C0181019801B001CA01E501020216
:104460002102410264028802AE02D7020303300334
:1044700061039403CB03050442048304C7041005BD
:104480005D05AF0505066106C206290796070908FE
:10449000830805098E09200ABA0A5D0B0A0CC10CB3
:1044A000840D510E2B0F121007110A121D13401408
:1044B0007415BA1614188319071BA31C571E242041
:1044C0000E22142439267F28E82A752D2930063338
:1044D0000F364539AD3C49401B442848734CFE50CB
:1044E000CF55EA5A51600C661D6C8B725A799280D6
:1044F00037885090E598FDA19FABD3B5A3C00000CD
:10450000A0E0B0E0E6E8F2E20C945123EC01A880D0
:10451000B980CA80DB80A114B104C104D10441F484
:1045200084E2A82E89EDB82E8BE5C82E87E0D82E20
:10453000C601B5012DE133EF41E050E00E942E238A
:1045400027EA31E440E050E00E940F237B018C0118
:10455000C601B5012DE133EF41E050E00E942E236A
:10456000CA01B9012CEE34EF4FEF5FEF0E940F2329
:104570006E0D7F1D801F911F97FF04C0615070401A
:1045800080409048688379838A839B839B013F772F
:10459000C901CDB7DEB7EAE00C946D230E948022FA
:1045A000089588E091E00E9480220895A0E0B0E0A4
:1045B0008093080190930901A0930A01B0930B0125
:1045C0000895991B79E004C0991F961708F0961B6F
:1045D000881F7A95C9F780950895A1E21A2EAA1B23
:1045E000BB1BFD010DC0AA1FBB1FEE1FFF1FA217A3
:1045F000B307E407F50720F0A21BB30BE40BF50BA0
:10460000661F771F881F991F1A9469F76095709528
:10461000809590959B01AC01BD01CF010895629FEB
:10462000D001739FF001829FE00DF11D649FE00DAA
:10463000F11D929FF00D839FF00D749FF00D659F0B
:10464000F00D9927729FB00DE11DF91F639FB00D0A
:10465000E11DF91FBD01CF011124089597FB092E1B
:1046600005260ED057FD04D0B8DF0AD0001C38F460
:1046700050954095309521953F4F4F4F5F4F08958E
:10468000F6F790958095709561957F4F8F4F9F4F6E
:1046900008952F923F924F925F926F927F928F92E6
:1046A0009F92AF92BF92CF92DF92EF92FF920F93C1
:1046B0001F93CF93DF93CDB7DEB7CA1BDB0B0FB6CB
:1046C000F894DEBF0FBECDBF09942A883988488888
:1046D0005F846E847D848C849B84AA84B984C8841E
:1046E000DF80EE80FD800C811B81AA81B981CE0F15
:1046F000D11D0FB6F894DEBF0FBECDBFED010895FA
:04470000F894FFCF5B
:0C4704000100FF0000FF000101000000A8
:00000001FF
