:10F000000C9438780C9444780C9444780C9444789C
:10F010000C9444780C9444780C9444780C94447880
:10F020000C9444780C9444780C9444780C94447870
:10F030000C9444780C9419790C9444780C9444788A
:10F040000C9444780C9444780C9444780C94447850
:10F050000C9444780C9444780C9444780C94447840
:10F060000C9444780C9444780C9444780C94447830
:10F0700011241FBECFEFD0E1DEBFCDBF0E94987933
:10F080000E94367B0C94A47D0C9400785BA4F6F669
:10F09000F6A45B524B7968797579B5788EE591E085
:10F0A0000197F1F700C0C0E0D1E06091BD0B78E0BE
:10F0B000679F702D6627E1D036E23A95F1F70E94FE
:10F0C0007E7836E13A95F1F700C07A9559F063956C
:10F0D000683019F0C89500C0EECF662730E5C30F41
:10F0E000D61FE9CF34E03A95F1F700C0C6D011E061
:10F0F0001093BA0BE2E0E093360008950027ECE8A5
:10F10000F0EFE60FF01F4490DE0158E0E0ECF9E08C
:10F11000E60FF01FCF010D91059FE00DF11D2D9021
:10F12000008118E2222D07FD242D28B94D91222DB2
:10F1300006FD242D28B9459F222D05FD242D28B933
:10F14000080E191E222D04FD242D28B9F0011A9550
:10F15000222D03FD242D28B90081222D2D9028B9C0
:10F1600009F7C895002708B9089528980E94007AE1
:10F17000E7E1EA95F1F7289AE7E0E0938900EBE10F
:10F18000E0938800E0E0F6E0B8D0E0FF30D0E0FFA8
:10F1900003C078940E94CD7808958F93129A0C94AE
:10F1A000D1780C94D3781298EE27FF2784E08A95C3
:10F1B000F1F78CE0EE0FFF1F0099E160139A0C94B9
:10F1C000E1780C94E37813980C94E6780C94E87842
:10F1D0000C94EA780C94EC788A9561F7E095F095B8
:10F1E000FF70E093C00BF093C10B8F910895EF93E4
:10F1F000FDEF0090BC0BF019E091B90BEF17B8F4DC
:10F200000090BD0BE8E00E9EF019E091B90BEF17EE
:10F2100070F0EDE1FF2700800F92EA95E1F70E9480
:10F220004E78E1E0FF270F900192EE31E0F3EF918D
:10F230000895FF93EF93EFB7EF93E0918400EE50C2
:10F24000F1E0EF1700F0F395F431D8F305D0EF912A
:10F25000EFBFEF91FF9118950F921F92E4E9F0EF45
:10F260000090B80B000C1124E00DF11D05901490D6
:10F27000F00109951F900F90089528980E94007A38
:10F28000E5E1EA95F1F7E091B90BEA95E093B90B66
:10F29000289A00C0089528980E94007A289AE1E0F0
:10F2A000F6E02BD0E3E0E0938900EDE8E0938800FE
:10F2B000F091BE0BF03059F0F093BC0BF091BF0B06
:10F2C000F093BD0BFF27F093BE0BF093BF0B089597
:10F2D00028980E94007AE0EB0000EA95E9F700C068
:10F2E000289AF6E0E2E009D0089528980E94007A72
:10F2F000289AE3E0FDEF01D008950090B90B0A943D
:10F3000010905F0011FC0F2E0092B90B0090B80B0B
:10F3100011FC0E2E0092B80BE0E011FCE1E0089524
:10F32000E0ECF8E0A0E0B1E01D923197E9F7089534
:10F33000F89444274093C30B4093BE0B4093BF0BFC
:10F3400040938100409345004093850040938400A2
:10F350004FEF47B944B940E94AB941E04C7F4C60AE
:10F3600041B91298139800E00093B80B06E000939F
:10F37000B90B43E0409389004DE84093880049E091
:10F380004093810042E040936F0042E44093440088
:10F3900040E04093470041E04093450043E84093FC
:10F3A000B00040E04093B30041E04093B10041E140
:10F3B00045B944E14093BC0B4CE14093BD0BE6E3FF
:10F3C000F5EFA0ECB9E08FE305911591259135910A
:10F3D000459178E00D9365E0441F331F221F111FF4
:10F3E000001F6A95C9F77A95A9F78A9569F705B755
:10F3F000102F016005BF12E015BF78941124089505
:10F400000F931F93E9E0EA95F1F700000091C20B1A
:10F410001091C30BE091C40B01030024065AE05580
:10F42000101110400093C20B1093C30BE093C40B58
:10F4300000E8101A1092B3001F910F910895909157
:10F44000BA0B9030E1F399279093BA0B8A95B9F7EC
:10F450000895DC01A050BF4FFB0180819591F7FD1D
:10F46000892F882321F080528D934D93F6CF0895F4
:10F47000FC01E050FF4F418332966A95E1F7089511
:10F480002F923F924F925F926F927F928F929F92B4
:10F49000AF92BF92CF92DF92EF92FF920F931F93A2
:10F4A000CF93DF930994DF91CF911F910F91FF903C
:10F4B000EF90DF90CF90BF90AF909F908F907F9014
:10F4C0006F905F904F903F902F900994E9E6FAE794
:10F4D000D7CF21D1812DEEE6FAE7E5CF11240895AB
:10F4E000E3E7FAE7CDCFAFD1812DE8E7FAE7DBCF4D
:10F4F00011240895EDE7FAE7C3CF0E94437D812DE3
:10F50000E3E8FAE7D0CF11240895E8E8FAE7B8CFA6
:10F510000E94537D812DEEE8FAE7C5CF11240895AE
:10F52000E3E9FAE7ADCF0E94F07C812DE9E9FAE743
:10F53000BACF112408950000000000239C420080EF
:10F54000DEE400000002BEA57D4043A0C17080CE75
:10F5500044444E6045288AC9A06310000000221070
:10F560008420804108421100029DF728000109F221
:10F57000100000000031880001F0000000000031A0
:10F5800080004444400074675CC5C023084211C039
:10F5900074426443E07442E0C5C011952F8840FC7A
:10F5A00021E0C5C03221E8C5C0F84444210074629E
:10F5B000E8C5C07462F089800018C031800018C0AE
:10F5C00031880888820820003E007C004104111127
:10F5D000007442620080746F5BC1C074631FC620F8
:10F5E000F463E8C7C074610845C0F46318C7C0FC81
:10F5F00021E843E0FC21E84200746178C5E08C63B7
:10F60000F8C62071084211C0084218C5C08CA98AEA
:10F610004A2084210843E08EEB18C6208E6B38C642
:10F6200020746318C5C0F463E8420074631AC9A06B
:10F63000F463E946207460E0C5C0F9084210808C8C
:10F640006318C5C08C6318A8808C6B5AD5408C5445
:10F650004546208C62A21080F0888843C032118415
:10F6600020C0326D4B24C000000000000E94907941
:10F670000E948B7B81E061E020E040E30FEF1016F9
:10F6800009F441E30E94237C0E94F07C0E94437DA8
:10F690000E94537D86E00E941F7A40E055E00E9460
:10F6A000847DF8CF4FEF4EBD2DB427FAEEF70EB4A0
:10F6B00008951FEF0E94527B0116E1F708950AE0BA
:10F6C0000E94527B0A95E1F708950E945F7B0BB17F
:10F6D00000640BB908951EEF0E945A7B011608952D
:10F6E0000BB10F7B0BB9042F0E94527B402F0E945D
:10F6F000537B452F0E94537B462F0E94537B472FFD
:10F700000E94537B482F0E94537B45E90E94537B04
:10F710000E94527B089505B10F75006405B904B1CC
:10F72000006A04B90BB100640BB90AB100640AB9EC
:10F7300004B1016004B900E50CBD01E00DBD0AE0B3
:10F740004FEF012E0E94537B0A95D9F740E460E009
:10F7500070E080E090E00E94707B0E94527B01E0AC
:10F76000001609F037C00E94527B00E0001641F0FD
:10F7700041E460E070E080E090E00E94707BF3CFB5
:10F780000E94657B00E0001609F424C01FC041E51B
:10F790008827742D652D562D8894771F661F551F59
:10F7A0000E94707BA5ECBBE00E946B7B09F012C04D
:10F7B00032E020E00E94527B0D922A95D9F73A95CB
:10F7C000C1F70E94527B0E94527B00C00E94657B61
:10F7D000112408950E94657B112410940895488097
:10F7E00059806A807B80089588809980AA80BB8038
:10F7F000089588809980AA24BB240895488259825C
:10F800006A827B820895480C591C6A1C7B1C0895EF
:10F8100001E40ABB0AE30ABB79BA69BA59BA49BA20
:10F820000AE00ABB089502E40ABB0AE30ABBB9BABC
:10F83000A9BA99BA89BA0AE00ABB0895555A45424D
:10F840004F5800757A6544245524662477240E9415
:10F85000C77B112009F0ADC0CBE8DDE00E94EF7B53
:10F860000E94C77B112009F0A4C0C3EDDBE00E9419
:10F87000F97B0E94037CC9ECDDE00E94FE7BCBEDAE
:10F88000DBE00E94F97B0E94037C0E94037CCDECAC
:10F89000DDE00E94FE7BC2EDDBE00881C3EDDDE030
:10F8A000088344275527E8EBFCE70E948E7C7FC045
:10F8B000CDECDDE00E94EF7B00244015500591F077
:10F8C00041505040C3EDDDE02880429D802C912CBA
:10F8D000AA24BB24529D900CA11CBB1C0E94137C2B
:10F8E0000E94037C0895852E9924AA24BB24C9EC88
:10F8F000DDE00E94EF7B0E94037CC5ECDDE00E940E
:10F90000FE7B0E94C77B99248894881C991CC5ECB7
:10F91000DBE0C80DD91D4881598108950E94587CAB
:10F920000E94087C06C0002401E0400E501C601CB0
:10F93000701C0E94C77B00E1C5ECDBE01B851E3418
:10F9400091F01881103099F0153E69F01E3259F08F
:10F95000CF93DF93EF93FF930995FF91EF91DF91A1
:10F96000CF91112021F4A0960A9541F7DCCF08959C
:10F9700011241B851071D1F0ECE3F8EF30E0383042
:10F9800059F0339525911991203019F4103221F056
:10F990000DC01217A1F30AC0C31BD0404A8D5B8D66
:10F9A000C1EDDDE04883598313940895089511242F
:10F9B000089511241094089520203E3E3E202020DA
:10F9C00020555A45424F5820424F4F544C4F4144C6
:10F9D0004552204D454E55202020203C3C3C2020C7
:10F9E0000024C4EDDDE009920992C4EDDDE0099246
:10F9F0000992A0E0B1E0E8EBF9EF10E508E225910B
:10FA000020522D931D930A95D1F7A0E9B7E0C0ECE1
:10FA1000D9E010E511961D93AC17BD07D9F70895ED
:10FA20001B85107171F52885253559F529852A35ED
:10FA300041F52A85253429F5EC14FD04F0F0A6EDF6
:10FA4000BDE09C91923128F093959C9311241394DE
:10FA50000895E7EDFDE026E0299FE00DF11D2A8DD8
:10FA600021932B8D21932C8D21932D8D21932E8DE0
:10FA700021932F8D219393959C9311E0E10E1127F3
:10FA8000F11E11240895C1EDDDE048815981C4EDD6
:10FA9000DDE0C880D980EE24FF243324E0E1FDE7D7
:10FAA0000E948E7C0895C6EDDDE0F880EE24E7ED3F
:10FAB000FDE0419151910E94587C0E94087C0E9477
:10FAC000C77BE9BAA0EAB1E000E5E09EA00DB11D58
:10FAD0001496C3EDDBE000E21991103051F01136BD
:10FAE00018F01B370CF4105210521D9311960A9502
:10FAF00099F704E0E00F0027E01F02E1E394E0162D
:10FB000011F0EF14B1F60895A0EAB1E000E5409FCE
:10FB1000A00DB11D08E211965D930A95E1F70895D5
:10FB2000A3E4BEE00C91E7EDFDE026E0209FE00DB0
:10FB3000F11D419151910E94587C0E94C77BC3EDF9
:0CFB4000DBE0A0E9B7E00895F894FFCFE7
:040000030000F00009
:00000001FF
