:100000000C94DF0D0C94540E0C94540E0C94540E5E
:100010000C94540E0C94540E0C94540E0C94540ED8
:100020000C94540E0C94540E0C94540E0C94540EC8
:100030000C94540E0C94B10E0C94F10E0C94540EBE
:100040000C94540E0C94540E0C94540E0C94540EA8
:100050000C94540E0C94540E0C94540E0C94540E98
:100060000C94540E0C94540E0C94540E0C94540E88
:100070005A5501200101003808000000000000006E
:100080000000000000000000000000000000000070
:100090008100450027FF24FF2A902B1C210C22FB06
:1000A000850084008903888D81096F0244424700DE
:1000B0004501B083B300B10125118A4F8B036E1146
:1000C000711179117D1185118D11921197119A116C
:1000D000B311B611B911F611F911FC110040889154
:1000E000D2E4ADB5B6BEBFFF0000000000000000C6
:1000F0000000000000000000000000000000000000
:1001000000000000000000000000000000000000EF
:1001100000000000000000000000000000000000DF
:1001200000000000000000000000000000000000CF
:100130000000000000000000000000000000FF00C0
:1001400000000000FF0000000000FF0000000000B1
:10015000FF0000000000FF000000000000000000A1
:100160000000FF0000000000000000000000000090
:10017000000000000000000000000000000000FF80
:1001800000FF000000FF00FF000000FF00FF000074
:10019000000000000000000000000000000000005F
:1001A000000000000000000000000000000000004F
:1001B000000000000000000000000000000000003F
:1001C000000000000000000000000000000000002F
:1001D000000000FF00FF0000FFFFFFFFFF0000FF27
:1001E00000FF000000FF00FF0000FFFFFFFFFF0017
:1001F00000FF00FF00000000000000000000000001
:1002000000000000000000000000000000000000EE
:10021000FF00000000FFFFFF0000FF00FF00FF00E5
:10022000FF00FF00000000FFFFFF00000000FF00D4
:10023000FF00FF00FF00FF0000FFFFFF00000000C5
:10024000FF000000000000000000000000000000AF
:10025000000000000000000000000000FFFF0000A0
:10026000FF00FFFF0000FF00000000FF0000000093
:10027000FF00000000FF00000000FF0000FFFF0083
:10028000FF0000FFFF000000000000000000000071
:10029000000000000000000000000000000000005E
:1002A0000000000000FF00000000FF00FF00000051
:1002B000FF00FF00000000FF00000000FF00FF0043
:1002C000FF00FF0000FF000000FFFF00FF00000034
:1002D000000000000000000000000000000000001E
:1002E0000000000000000000FF0000000000FF0010
:1002F00000000000FF0000000000000000000000FF
:1003000000000000000000000000000000000000ED
:1003100000000000000000000000000000000000DD
:1003200000000000000000000000000000000000CD
:1003300000FF00000000FF0000000000FF000000C0
:1003400000FF0000000000FF0000000000FF0000B0
:1003500000000000FF0000000000FF00000000009F
:1003600000FF00000000000000000000000000008E
:1003700000000000000000FF000000000000FF007F
:1003800000000000FF000000000000FF000000006F
:1003900000FF0000000000FF00000000FF00000060
:1003A0000000FF00000000FF00000000000000004F
:1003B000000000000000000000000000000000003D
:1003C000000000000000FF000000FF00FF00FF0031
:1003D00000FFFFFF00000000FF00000000FFFFFF24
:1003E0000000FF00FF00FF000000FF000000000011
:1003F00000000000000000000000000000000000FD
:1004000000000000000000000000000000000000EC
:1004100000000000FF0000000000FF000000FFFFE0
:10042000FFFFFF000000FF0000000000FF000000D1
:1004300000000000000000000000000000000000BC
:1004400000000000000000000000000000000000AC
:10045000000000000000000000000000000000009C
:10046000000000000000000000000000000000008C
:10047000000000FFFF00000000FFFF000000FFFF82
:10048000000000000000000000000000000000006C
:10049000000000000000000000000000000000005C
:1004A0000000000000000000000000000000FFFF4E
:1004B000FFFFFF000000000000000000000000003F
:1004C000000000000000000000000000000000002C
:1004D000000000000000000000000000000000001C
:1004E000000000000000000000000000000000000C
:1004F00000000000000000000000000000000000FC
:10050000000000FFFF00000000FFFF0000000000EF
:1005100000000000000000000000000000000000DB
:1005200000000000000000000000000000000000CB
:10053000FF00000000FF0000000000FF00000000BE
:10054000FF00000000FF0000000000FF00000000AE
:10055000FF0000000000000000000000000000009C
:10056000000000000000000000000000000000008B
:10057000000000000000FFFF000000FF0000FF007F
:1005800000FF0000FF0000FF0000FF0000FF000070
:10059000FF0000FF0000FF000000FFFF0000000060
:1005A000000000000000000000000000000000004B
:1005B0000000000000000000000000000000FF003C
:1005C000000000FFFF0000000000FF00000000002E
:1005D000FF0000000000FF0000000000FF0000001E
:1005E00000FFFFFF0000000000000000000000000E
:1005F00000000000000000000000000000000000FB
:100600000000000000FFFFFF0000FF000000FF00EF
:1006100000000000FF00000000FF00000000FF00DD
:10062000000000FF00000000FFFFFFFFFF000000D0
:1006300000000000000000000000000000000000BA
:10064000000000000000000000000000FFFFFFFFAE
:10065000FF0000000000FF00000000FF000000009D
:10066000FFFF000000000000FF00FF000000FF008F
:1006700000FFFFFF0000000000000000000000007D
:10068000000000000000000000000000000000006A
:1006900000000000000000FF00000000FFFF00005D
:1006A00000FF00FF0000FF0000FF0000FFFFFFFF52
:1006B000FF00000000FF0000000000FF000000003D
:1006C000000000000000000000000000000000002A
:1006D000000000000000000000000000FFFFFFFF1E
:1006E000FF00FF0000000000FFFFFFFF0000000010
:1006F0000000FF0000000000FF00FF000000FF00FE
:1007000000FFFFFF000000000000000000000000EC
:1007100000000000000000000000000000000000D9
:10072000000000000000FFFF000000FF00000000CC
:10073000FF0000000000FFFFFFFF0000FF000000BF
:10074000FF00FF000000FF0000FFFFFF00000000AF
:100750000000000000000000000000000000000099
:10076000000000000000000000000000FFFFFFFF8D
:10077000FF0000000000FF00000000FF000000007C
:1007800000FF00000000FF0000000000FF0000006C
:100790000000FF000000000000000000000000005A
:1007A0000000000000000000000000000000000049
:1007B0000000000000FFFFFF0000FF000000FF003E
:1007C000FF000000FF0000FFFFFF0000FF0000002F
:1007D000FF00FF000000FF0000FFFFFF000000001F
:1007E0000000000000000000000000000000000009
:1007F00000000000000000000000000000FFFFFFFC
:100800000000FF000000FF00FF000000FF0000FFED
:10081000FFFFFF0000000000FF00000000FF0000DD
:1008200000FFFF00000000000000000000000000CA
:1008300000000000000000000000000000000000B8
:1008400000000000000000000000000000000000A8
:1008500000FFFF00000000FFFF000000000000009C
:10086000000000FFFF00000000FFFF00000000008C
:100870000000000000000000000000000000000078
:100880000000000000000000000000000000000068
:10089000000000000000000000FFFF00000000FF5B
:1008A000FF00000000000000000000FFFF0000004B
:1008B00000FFFF000000FFFF00000000000000003C
:1008C0000000000000000000000000000000000028
:1008D00000000000000000000000000000FF000019
:1008E0000000FF00000000FF000000000000FF000B
:1008F0000000000000FF00000000000000000000F9
:1009000000000000000000000000000000000000E7
:1009100000000000000000000000000000000000D7
:100920000000000000000000FFFFFFFFFF000000CC
:1009300000000000FFFFFFFFFF00000000000000BC
:1009400000000000000000000000000000000000A7
:100950000000000000000000000000000000000097
:100960000000000000000000000000FF0000000088
:100970000000FF000000000000FF00000000FF007A
:10098000000000FF00000000000000000000000068
:100990000000000000000000000000000000000057
:1009A00000000000000000000000000000FFFFFF4A
:1009B0000000FF000000FF00000000FF000000003A
:1009C000FF0000000000FF00000000000000000029
:1009D0000000FF0000000000000000000000000018
:1009E0000000000000000000000000000000000007
:1009F0000000000000FFFFFF0000FF000000FF00FC
:100A0000FF00FFFFFF00FF00FF00FF00FF00FFFFF0
:100A1000FF00FF000000000000FFFFFF00000000DB
:100A200000000000000000000000000000000000C6
:100A300000000000000000000000000000FFFFFFB9
:100A40000000FF000000FF00FF000000FF00FFFFAC
:100A5000FFFFFF00FF000000FF00FF000000FF009D
:100A6000FF000000FF000000000000000000000088
:100A70000000000000000000000000000000000076
:100A800000000000FFFFFFFF000000FF0000FF006C
:100A900000FF0000FF0000FFFFFF000000FF00005C
:100AA000FF0000FF0000FF00FFFFFFFF000000004D
:100AB0000000000000000000000000000000000036
:100AC00000000000000000000000000000FFFFFF29
:100AD0000000FF000000FF00FF0000000000FF001A
:100AE00000000000FF0000000000FF000000FF0009
:100AF00000FFFFFF000000000000000000000000F9
:100B000000000000000000000000000000000000E5
:100B100000000000FFFFFFFF000000FF0000FF00DB
:100B200000FF0000FF0000FF0000FF0000FF0000CA
:100B3000FF0000FF0000FF00FFFFFFFF00000000BC
:100B400000000000000000000000000000000000A5
:100B5000000000000000000000000000FFFFFFFF99
:100B6000FF00FF0000000000FF0000000000FFFF8A
:100B7000FFFF0000FF0000000000FF000000000079
:100B8000FFFFFFFFFF00000000000000000000006A
:100B90000000000000000000000000000000000055
:100BA00000000000FFFFFFFFFF00FF00000000004B
:100BB000FF0000000000FFFFFFFF0000FF0000003B
:100BC0000000FF0000000000FF0000000000000027
:100BD0000000000000000000000000000000000015
:100BE00000000000000000000000000000FFFFFF08
:100BF0000000FF000000FF00FF0000000000FF00F9
:100C000000000000FF0000FFFF00FF000000FF00E9
:100C100000FFFFFF000000000000000000000000D7
:100C200000000000000000000000000000000000C4
:100C300000000000FF000000FF00FF000000FF00B8
:100C4000FF000000FF00FFFFFFFFFF00FF000000AC
:100C5000FF00FF000000FF00FF000000FF00000099
:100C60000000000000000000000000000000000084
:100C700000000000000000000000000000FFFFFF77
:100C800000000000FF0000000000FF000000000066
:100C9000FF0000000000FF0000000000FF00000057
:100CA00000FFFFFF00000000000000000000000047
:100CB0000000000000000000000000000000000034
:100CC000000000000000FFFFFF00000000FF000028
:100CD000000000FF0000000000FF0000000000FF17
:100CE0000000FF0000FF000000FFFF000000000008
:100CF00000000000000000000000000000000000F4
:100D0000000000000000000000000000FF000000E4
:100D1000FF00FF0000FF0000FF00FF000000FFFFDA
:100D200000000000FF00FF000000FF0000FF0000C7
:100D3000FF000000FF0000000000000000000000B5
:100D400000000000000000000000000000000000A3
:100D500000000000FF0000000000FF000000000095
:100D6000FF0000000000FF0000000000FF00000086
:100D70000000FF0000000000FFFFFFFFFF00000079
:100D80000000000000000000000000000000000063
:100D9000000000000000000000000000FF00000054
:100DA000FF00FFFF00FFFF00FF00FF00FF00FF004C
:100DB0000000FF00FF000000FF00FF000000FF0038
:100DC000FF000000FF000000000000000000000025
:100DD0000000000000000000000000000000000013
:100DE00000000000FF000000FF00FF000000FF0007
:100DF000FFFF0000FF00FF00FF00FF00FF0000FFFB
:100E0000FF00FF000000FF00FF000000FF000000E7
:100E100000000000000000000000000000000000D2
:100E200000000000000000000000000000FFFFFFC5
:100E30000000FF000000FF00FF000000FF00FF00B7
:100E40000000FF00FF000000FF00FF000000FF00A7
:100E500000FFFFFF00000000000000000000000095
:100E60000000000000000000000000000000000082
:100E700000000000FFFFFFFF0000FF000000FF0078
:100E8000FF000000FF00FFFFFFFF0000FF00000069
:100E90000000FF0000000000FF0000000000000054
:100EA0000000000000000000000000000000000042
:100EB00000000000000000000000000000FFFFFF35
:100EC0000000FF000000FF00FF000000FF00FF0027
:100ED0000000FF00FF00FF00FF00FF0000FF000018
:100EE00000FFFF00FF000000000000000000000005
:100EF00000000000000000000000000000000000F2
:100F000000000000FFFFFFFF0000FF000000FF00E7
:100F1000FF000000FF00FFFFFFFF0000FF00FF00D9
:100F20000000FF0000FF0000FF000000FF000000C5
:100F300000000000000000000000000000000000B1
:100F400000000000000000000000000000FFFFFFA4
:100F50000000FF000000FF00FF000000000000FF95
:100F6000FFFF000000000000FF00FF000000FF0086
:100F700000FFFFFF00000000000000000000000074
:100F80000000000000000000000000000000000061
:100F900000000000FFFFFFFFFF000000FF00000057
:100FA0000000FF0000000000FF0000000000FF0044
:100FB00000000000FF0000000000FF000000000033
:100FC0000000000000000000000000000000000021
:100FD000000000000000000000000000FF00000012
:100FE000FF00FF000000FF00FF000000FF00FF0007
:100FF0000000FF00FF000000FF00FF000000FF00F6
:1010000000FFFFFF000000000000000000000000E3
:1010100000000000000000000000000000000000D0
:1010200000000000FF000000FF00FF000000FF00C4
:10103000FF000000FF00FF000000FF0000FF00FFB6
:10104000000000FF00FF00000000FF0000000000A3
:101050000000000000000000000000000000000090
:10106000000000000000000000000000FF00000081
:10107000FF00FF000000FF00FF000000FF00FF0076
:101080000000FF00FF00FF00FF00FF00FF00FF0067
:1010900000FF00FF00000000000000000000000052
:1010A0000000000000000000000000000000000040
:1010B00000000000FF000000FF00FF000000FF0034
:1010C00000FF00FF00000000FF00000000FF00FF25
:1010D0000000FF000000FF00FF000000FF00000014
:1010E0000000000000000000000000000000000000
:1010F000000000000000000000000000FF000000F1
:10110000FF00FF000000FF0000FF00FF00000000E4
:10111000FF0000000000FF0000000000FF000000D2
:101120000000FF00000000000000000000000000C0
:1011300000000000000000000000000000000000AF
:1011400000000000FFFFFFFFFF0000000000FF00A5
:10115000000000FF00000000FF00000000FF000092
:101160000000FF0000000000FFFFFFFFFF00000085
:10117000000000000000000000000000000000006F
:1011800000000000000000FFFFFF000000FF000063
:10119000000000FF0000000000FF0000000000FF52
:1011A0000000000000FF0000000000FF0000000041
:1011B00000FF0000000000FFFFFF00000000000033
:1011C000000000000000000000000000000000001F
:1011D00000000000FF000000000000FF0000000011
:1011E00000FF000000000000FF000000000000FF02
:1011F0000000000000FF000000000000FF000000F1
:1012000000000000000000000000000000000000DE
:1012100000000000000000FFFFFF0000000000FFD2
:101220000000000000FF0000000000FF00000000C0
:1012300000FF0000000000FF0000000000FF0000B1
:10124000000000FF000000FFFFFF000000000000A2
:10125000000000000000000000000000000000008E
:10126000FF00000000FF00FF0000FF000000FF0083
:10127000000000000000000000000000000000006E
:10128000000000000000000000000000000000005E
:10129000000000000000000000000000000000004E
:1012A000000000000000000000000000000000003E
:1012B000000000000000000000000000000000002E
:1012C000000000000000000000000000000000001E
:1012D000000000000000000000000000FFFFFFFF12
:1012E000FF0000000000000000000000000000FF00
:1012F000000000000000FF000000000000FF0000F0
:1013000000000000000000000000000000000000DD
:1013100000000000000000000000000000000000CD
:1013200000000000000000000000000000000000BD
:1013300000000000000000000000000000000000AD
:10134000000000000000000000FFFFFF00000000A0
:101350000000FF0000FFFFFFFF00FF000000FF0094
:1013600000FFFFFFFF000000000000000000000081
:10137000000000000000000000000000000000006D
:1013800000000000FF0000000000FF00000000005F
:10139000FFFFFFFF0000FF000000FF00FF00000054
:1013A000FF00FF000000FF00FFFFFFFF0000000044
:1013B000000000000000000000000000000000002D
:1013C000000000000000000000000000000000001D
:1013D000000000000000000000FFFFFF0000FF0011
:1013E0000000FF00FF0000000000FF000000FF0001
:1013F00000FFFFFF000000000000000000000000F0
:1014000000000000000000000000000000000000DC
:101410000000000000000000FF0000000000FF00CE
:1014200000FFFFFFFF00FF000000FF00FF000000C3
:10143000FF00FF000000FF0000FFFFFFFF000000B3
:10144000000000000000000000000000000000009C
:10145000000000000000000000000000000000008C
:10146000000000000000000000FFFFFF0000FF0080
:101470000000FF00FFFFFFFF0000FF000000000072
:1014800000FFFFFF0000000000000000000000005F
:10149000000000000000000000000000000000004C
:1014A000000000000000FFFF000000FF0000FF0040
:1014B00000FF00000000FFFFFF00000000FF000031
:1014C000000000FF0000000000FF0000000000001E
:1014D000000000000000000000000000000000000C
:1014E00000000000000000000000000000000000FC
:1014F000000000000000000000FFFFFF0000FF00F0
:101500000000FF00FF000000FF00FF000000FF00E0
:1015100000FFFFFFFF0000000000FF0000FFFFFFD3
:1015200000000000000000000000000000000000BB
:1015300000000000FF0000000000FF0000000000AD
:10154000FFFFFFFF0000FF000000FF00FF000000A2
:10155000FF00FF000000FF00FF000000FF00000090
:10156000000000000000000000000000000000007B
:101570000000000000000000000000000000FF006C
:10158000000000000000000000FFFF00000000005D
:10159000FF0000000000FF0000000000FF0000004E
:1015A00000FFFFFF0000000000000000000000003E
:1015B000000000000000000000000000000000002B
:1015C0000000000000000000FF000000000000001C
:1015D000000000FFFF0000000000FF00000000000E
:1015E000FF0000000000FF0000000000FF0000FFFF
:1015F0000000FF000000FFFF0000000000000000EE
:10160000000000000000000000000000FF000000DB
:101610000000FF0000000000FF000000FF00FF00CE
:1016200000FF0000FFFFFF000000FF0000FF0000C0
:10163000FF000000FF0000000000000000000000AC
:10164000000000000000000000000000000000009A
:101650000000000000FFFF0000000000FF0000008D
:101660000000FF0000000000FF0000000000FF007D
:1016700000000000FF00000000FFFFFF000000006E
:10168000000000000000000000000000000000005A
:10169000000000000000000000000000000000004A
:1016A0000000000000000000FFFF00FF0000FF003E
:1016B000FF00FF00FF00FF00FF00FF00FF00FF0032
:1016C000FF00FF00FF00000000000000000000001D
:1016D000000000000000000000000000000000000A
:1016E00000000000000000000000000000000000FA
:1016F000FF00FFFF0000FFFF0000FF00FF000000F1
:10170000FF00FF000000FF00FF000000FF000000DE
:1017100000000000000000000000000000000000C9
:1017200000000000000000000000000000000000B9
:10173000000000000000000000FFFFFF0000FF00AD
:101740000000FF00FF000000FF00FF000000FF009E
:1017500000FFFFFF0000000000000000000000008C
:101760000000000000000000000000000000000079
:101770000000000000000000000000000000000069
:10178000FFFFFFFF0000FF000000FF00FF00000060
:10179000FF00FF000000FF00FFFFFFFF0000FF0051
:1017A00000000000FF00000000000000000000003A
:1017B0000000000000000000000000000000000029
:1017C000000000000000000000FFFFFFFF00FF001E
:1017D0000000FF00FF000000FF00FF000000FF000E
:1017E00000FFFFFFFF0000000000FF0000000000FE
:1017F000FF000000000000000000000000000000EA
:1018000000000000000000000000000000000000D8
:10181000FF00FFFF0000FFFF0000FF00FF000000CF
:101820000000FF0000000000FF00000000000000BA
:1018300000000000000000000000000000000000A8
:101840000000000000000000000000000000000098
:10185000000000000000000000FFFFFFFF00FF008D
:101860000000000000FFFFFF000000000000FF007C
:10187000FFFFFFFF0000000000000000000000006C
:101880000000000000000000000000000000000058
:10189000000000000000FF0000000000FF0000004A
:1018A000FFFFFFFFFF000000FF0000000000FF003F
:1018B00000000000FF000000000000FFFF0000002B
:1018C0000000000000000000000000000000000018
:1018D0000000000000000000000000000000000008
:1018E0000000000000000000FF000000FF00FF00FB
:1018F0000000FF00FF000000FF00FF0000FFFF00EE
:1019000000FFFF00FF0000000000000000000000DA
:1019100000000000000000000000000000000000C7
:1019200000000000000000000000000000000000B7
:10193000FF000000FF00FF000000FF00FF000000AC
:10194000FF0000FF00FF00000000FF00000000009B
:101950000000000000000000000000000000000087
:101960000000000000000000000000000000000077
:101970000000000000000000FF000000FF00FF006A
:101980000000FF00FF00FF00FF00FF00FF00FF005E
:1019900000FF00FF00000000000000000000000049
:1019A0000000000000000000000000000000000037
:1019B0000000000000000000000000000000000027
:1019C000FF000000FF0000FF00FF00000000FF001C
:1019D000000000FF00FF0000FF000000FF0000000B
:1019E00000000000000000000000000000000000F7
:1019F00000000000000000000000000000000000E7
:101A00000000000000000000FF000000FF00FF00D9
:101A10000000FF00FF000000FF0000FF00FF0000CB
:101A20000000FF00000000FF00000000FF000000B9
:101A300000000000000000000000000000000000A6
:101A40000000000000000000000000000000000096
:101A5000FFFFFFFFFF00000000FF00000000FF008D
:101A6000000000FF00000000FFFFFFFFFF0000007C
:101A70000000000000000000000000000000000066
:101A8000000000000000000000FF00000000FF0058
:101A900000000000FF0000000000FF00000000FF49
:101AA000000000000000FF0000000000FF00000038
:101AB0000000FF000000000000FF00000000000028
:101AC0000000000000000000000000000000000016
:101AD000FF0000000000FF0000000000FF00000009
:101AE0000000FF0000000000FF0000000000FF00F9
:101AF00000000000FF0000000000FF0000000000E8
:101B0000FF000000000000000000000000000000D6
:101B100000000000000000FF000000000000FF00C7
:101B200000000000FF0000000000FF0000000000B7
:101B300000FF00000000FF0000000000FF000000A8
:101B40000000FF00000000FF000000000000000097
:101B50000000000000000000000000000000000085
:101B60000000000000000000000000000000000075
:101B700000FF0000FF00FF00FF00FF00FF0000FF6C
:101B80000000000000000000000000000000000055
:101B90000000000000000000000000000000000045
:101BA00048656C6C6F20576F726C642046726F6D65
:101BB0002054686520557A65626F782100001124F1
:101BC0001FBECFEFD0E1DEBFCDBF11E0A0E0B1E09E
:101BD000E4ECFAE302C005900D92AC30B107D9F7FE
:101BE00019E0ACE0B1E001C01D92A639B107E1F700
:101BF00014BE88E10FB6F8948093600010926000E4
:101C00000FBE0E945711811102C00E943511F89435
:101C1000E9EFF6E080E8819329E0E530F207D9F7B3
:101C200089EF96E0909306098093050910920709C1
:101C300081E080931E0980931F0980931D091092F3
:101C40000A09109210091092160910921C0910929C
:101C5000E4061092E60692E19093E50698ED9093E3
:101C6000EC0694E19093EB061092F0061092EF06CA
:101C70001092F4061092F306809309090E94811BCA
:101C800080E990E0FC0125913491F901FF27308330
:101C9000029620E08E3B9207A9F778940E94801B61
:101CA0000E94111D0C94601D0C94000030EE3A95BA
:101CB0000C945A0EE1F70C945D0ECCE0D1E008EDE7
:101CC000A02E662776E036D13BE23A95F1F70E94E6
:101CD000900E31E13A95F1F7AA9489F0C895639591
:101CE0006C3029F033E03A95F1F70000ECCF66272D
:101CF000002430E5C30FD01DC8950000E4CF35E0C7
:101D00003A95F1F70000000015D1E091E60642E0B7
:101D1000E427E160E093E606E2E0E0933600089510
:101D2000DE014D915D91679FC001480F591FFA0177
:101D300028E2059108B94D91059108B95D91059189
:101D400008B900C0059108B9480F591F059108B995
:101D50000591FA012A9508B961F7C895002708B9D5
:101D600008950F921F92EF93FF93EFB7EF93E091D7
:101D70008400E251F1E0EF1700F0F395FA30D8F368
:101D80000C94C20EE091E506EA95E093E506F09129
:101D9000E406F0FD57C0EC3098F0F3E0F0938900D2
:101DA000FDE8F0938800E0FB289826F4E1E00E942B
:101DB0007B10B9C0E5E1EA95F1F70000289AB3C0BD
:101DC000E63038F100C000C02898E0FBE4E016F4EB
:101DD0000E947B10E4E0E0933600E6E0E0936F00C1
:101DE000A2C0EF93EFB7EF93E0918400ED55E1309F
:101DF00000F0E23000F0E33000F0E43000F0E530D5
:101E000000F0289AE2E0E0936F00EF91EFBFEF91CE
:101E1000189500C0E0FB289826F4E1E00E947B10B2
:101E200005C0E5E1EA95F1F70000289AE091E506A2
:101E3000E03009F078C0EDEFE093E506E1E0E093F3
:101E4000E40671C0E7E0E0938900EBE1E0938800ED
:101E500000C02898E2E000C00E947B10FDEF0090D7
:101E6000EB06F019E091E506EF17E0F4FDEF0090C6
:101E7000EB06F0190090EC06F019EF1798F0EDE181
:101E8000FF2700800F92EA95E1F70FE10A95F1F73D
:101E9000000000000E94560EE1E0FF270F90019223
:101EA000EE31E0F3E091E506E03009F03CC02F931D
:101EB0003F934F935F936F937F938F939F93AF93D2
:101EC000BF9378941124EE27E093E406E2E1E093D7
:101ED000E5068091F5069091F60601968093F50649
:101EE0009093F606E091E706F091E806E115F1051A
:101EF00009F009950E9425110E94821B0E94A50FDE
:101F00001124E091E906F091EA06E115F10509F0E6
:101F10000995BF91AF919F918F917F916F915F9143
:101F20004F913F912F91EF91EFBFFF91EF911F9054
:101F30000F9018952898E2E000C00E947B10E09175
:101F4000E506EA95E093E5060895E0910909E0FDCC
:101F50000E94261200900709002019F4A9EFB6E0AC
:101F600002C0AFEFB7E021E002260092070922E0AD
:101F700020930809E0910909E0FF08952F923F920C
:101F80004F925F926F927F928F929F92AF92BF9289
:101F9000CF92DF92EF92FF920F931F93CF93DF9335
:101FA00050911C0960911E0970911F0980912009B0
:101FB00020900B0930900C0940900E0950900F09A9
:101FC00060900D0910910A09709011098090120912
:101FD00090901309A0901409B09015092091100950
:101FE000C0901709D0901809E0901A09F0901B09C9
:101FF00000911909309116099FEF620C431CF20100
:10200000449141030008C12DD02D970CA81CF50167
:10201000449142030008C10DD01D0C0DED1CF701C9
:10202000449143030008C10DD01D8A956AF4409184
:102030001D09842F8695062E0694062600FA7695AD
:10204000679576F940FF66F940E860FD4FE7450384
:102050000008C10DD01D0024C038D0050CF0CFE71A
:102060000A94C038D0050CF4C0E8C058CD939A95B6
:1020700009F0C3CF409108094A954093080997E0B9
:1020800009F0BBCF60920D0940920E09909213099E
:10209000A092140900931909E0921A0960931E098D
:1020A00070931F0980932009DF91CF911F910F91A9
:1020B000FF90EF90DF90CF90BF90AF909F908F9068
:1020C0007F906F905F904F903F902F900895E09198
:1020D0000509F0910609019100000093B30009E0A1
:1020E000E530F00709EF16E008F0F801E093050984
:1020F000F093060908950F931F932F93EF93E091A8
:102100000509F091060901910093B30009E0E5305B
:10211000F00709EF16E008F0F801E0930509F093E5
:102120000609E8E0EA95F1F7EF912F911F910F91E1
:10213000E0FD289AE0FF01C00895F4E1FA95F1F777
:1021400000C0E1FD289AE1FF00C00895EAEEF2E048
:10215000ACE0B1E06091E0067091E1066D937D9393
:102160003197E1F7112408959927552728E2220F86
:10217000629F880F080E191EACE0B1E0A00DB11DE2
:102180006091E0067091E10628E4429F600D711DA8
:102190006D937C93112408958093E0069093E1065B
:1021A0000895F999FECF92BD81BD60BDF894FA9A69
:1021B000F99A78940895F999FECF92BD81BDF8946B
:1021C000F89A80B57894089598E088E10FB6F8946D
:1021D000A895809360000FBE90936000FFCF129A85
:1021E000C895C895C895C895129840E180E090E0E0
:1021F00020E030E03695279596958795C895C89547
:10220000C895C8951398009B3068019B9068139AF5
:10221000C895C895C895C895415061F73093EE06AA
:102220002093ED069093F2068093F1068091ED06DF
:102230009091EE060F9731F08091F1069091F206A1
:102240000F9711F40E94E410089510922409009948
:1022500003C081E080932409019905C0809124097D
:102260008260809324090C94EF10CF93DF93C0E039
:10227000D0E0FE01E059FF4F6491CE010E94D110E1
:102280002196C032D105A9F7C0E2D0E06FEFCE01B0
:102290000E94D1106FEFCE0101960E94D110A0963E
:1022A000C11588E0D80791F7DF91CF910895CF93BA
:1022B00080E090E00E94DB10C82F81E090E00E9457
:1022C000DB10282F30E0322F22272C0F311D81E028
:1022D0002A35354509F080E0CF910895FC01468705
:1022E0000895EAE0F9E081E091E0958B848B438BDF
:1022F0000895862F642F0C943415FC01862F91814C
:10230000642F690F61830C941D15FC01862F918148
:10231000692F641B61830C941D15FC0190819F75CE
:1023200090830895FC019081906490830895FC014E
:10233000458708950F931F93CF93DF931F92CDB7D7
:10234000DEB78C01862F642F49830E941D154981B9
:10235000F80141838081877F80830F90DF91CF9147
:102360001F910F910895FC0141870895FC01428758
:1023700008951F93CF93DF93EC01162F298130E04E
:10238000F901EE0FFF1FE85FF44D65917491F901BB
:10239000E40FF11D47FDFA95EE0FFF1FE85FF44DC6
:1023A00085919491861B970B60912E0970E00E9495
:1023B0004C1D6115710511F461E070E086E0189F15
:1023C000F0011124E65FF64F81819281860F971FFD
:1023D000928381837D836C838881886088838981EF
:1023E000480F4E83DF91CF911F91089540932E099E
:1023F0000895FC0143830895DC0113968C91139793
:10240000882319F155962D913C915697442379F0E4
:10241000552747FD50954F5F5F4FBA01660F771FF5
:10242000460F571F241B350B09C0EF3F39F02350CF
:102430003109F9013297E491ED30B9F756963C93A2
:102440002E935597815013968C9308955F926F92B7
:102450007F928F929F92AF92BF92CF92DF92EF9234
:10246000FF920F931F93CF93DF93C7E2D9E08AE0E7
:10247000E82E89E0F82ED7019E0140E050E0CA0125
:10248000895D964F6C01FC018685882391F06585F6
:10249000992787FD9095860F911D8F3F910519F023
:1024A00014F08FEF90E097FF02C080E090E0F6011B
:1024B0008587F901108113FF29C064817581119608
:1024C0008D919C911297860F971F12969C938E93D5
:1024D0001197F6010681E02FF0E0EE0FFF1FE85F95
:1024E000F44DC590D4901616170624F48C159D054E
:1024F00030F40CC0672B51F0C816D90638F012968C
:10250000DC92CE921197177FF9011083495E5F4FDD
:10251000295E3F4F16964C35510509F0B0CF80919A
:10252000F806882309F4CBC017E1809183099091C4
:1025300084092091890930918A098217930709F04B
:10254000B9C020918C0930918D09B9016F5F7F4F1F
:1025500070938D0960938C09F90144914F3F79F58F
:10256000A9014E5F5F4F50938D0940938C09FB0189
:1025700064916F3219F41092F8069CC0663009F02D
:102580008CC0FA014491C901049690938D098093FF
:102590008C09F9013396E491E33529F490938F097E
:1025A00080938E097AC0E53409F077C080918E0956
:1025B00090918F0990938D0980938C096EC047FD8F
:1025C0004093870990918709892F8F7047FF08C032
:1025D0002E5F3F4F30938D0920938C09FB0144916E
:1025E000907F903BE1F0903C09F451C0903909F0A4
:1025F00054C0E0918C09F0918D099F012F5F3F4FEE
:1026000030938D0920938C092491220F189FF0019B
:102610001124E95DF64F67850E94E6143EC0E09103
:102620008C09F0918D099F012F5F3F4F30938D09E9
:1026300020938C09E491473049F4189FD00111246C
:10264000A95DB64FEE0F1B96EC9327C04B3049F4B3
:10265000189FD0011124A95DB64FEE0F1296EC938E
:102660001CC04C3549F4189FD0011124A95DB64F08
:10267000EE0F1996EC9311C0443679F4189FD001EF
:102680001124A95DB64FEE0F1A96EC9306C0189F61
:10269000F0011124E95DF64F47878CE899E00E942C
:1026A0004D1490938A09809389091092840910929D
:1026B00083093BCF019690938409809383099FE21D
:1026C000A92E99E0B92E0AE319E029E3C22E29E0E8
:1026D000D22E3BE3832E39E0932E512C66246A944C
:1026E000712C888186FD43C08D899E89892B09F4D0
:1026F0003AC0D8019C91F6018081981708F433C044
:10270000D8019C91F601808198132DC0ED89FE8936
:10271000AF014F5F5F4F5E8B4D8B84918F3F31F4E4
:1027200088818F7788831E8A1D8A1DC03296FE8B12
:10273000ED8BFA014491E82FF0E0EE0FFF1FE25419
:10274000FF4F25913491652DCE01F9010995ED8951
:10275000FE89CF0101969E8B8D8BE491D601EC937F
:10276000F8011082CDCFD8018C918F5F8C93988126
:1027700095FF6CC0F40180818F3F11F08F5F8083E3
:1027800097FD04C0F8013897908101C09FEFF801D0
:1027900037978081882309F44EC0319650815523A4
:1027A00009F449C0992309F446C04091880944239B
:1027B00009F441C0899FC00111249395892F99275D
:1027C000589F9001599F300D1124C9019395892F6D
:1027D00099273B975081589F9001599F300D1124A4
:1027E0003395232F3327429FC001439F900D11241F
:1027F0009395892F9927379620812223F1F0D501CF
:10280000EC91F0E0E050F34DE491E0582E9FF001A0
:102810001124F395EF2FFF27A3014E1B5F0B489F59
:102820009001499F300D589F300D1124C901939597
:10283000892F992702C080E090E0F5013081F801EE
:1028400039972081230FD5012C9302C080E090E0BE
:10285000F701808353946796F6E0EF0EF11C87E151
:10286000A80EB11C095E1F4F97E1C90ED11CA7E14C
:102870008A0E911CB4E05B1234CFDF91CF911F918F
:102880000F91FF90EF90DF90CF90BF90AF909F900F
:102890008F907F906F905F900895DC01ED91FC9197
:1028A00011979F012F5F3F4F11963C932E93E49118
:1028B000E7FD03C08E2F90E00895EF778E2F90E014
:1028C0009695982F8827979587952F5F3F4FF90109
:1028D0003197E4914E2F4F77840F911DE7FDF0CF94
:1028E0002D933C930895FF920F931F93CF93DF9303
:1028F000182F062FC82FD0E087E1189FF001112470
:10290000E95DF64F9081F92EFF1CFF24FF1C138A0E
:1029100016868FEF85874487148A977B9062908311
:1029200011861086218313828283133069F4F1109B
:1029300001C0022F81E091E090931F0980931E094E
:1029400081E080931D0908C0622F812F0E941D1510
:1029500060E0812F0E94341587E18C9FF0018D9FEC
:10296000F00D1124E95DF64FFF2011F0008B01C03E
:102970000787E0918509F091860989E0089FE00DBD
:10298000F11D1124339685919491009759F487E1B4
:102990008C9FF0018D9FF00D1124E95DF64F168A92
:1029A000158A0EC0FC01249137E13C9FF0013D9F48
:1029B000F00D1124E95DF64F228B0196968B858BE5
:1029C000DF91CF911F910F91FF900895322FA82F83
:1029D000B0E097E1899FF0011124E95DF64F908105
:1029E00095FF02C097FD28C0311118C087E18A9F6A
:1029F000F0018B9FF00D1124E95DF64F8685811162
:102A000002C096FF148687E18A9FF0018B9FF00D2C
:102A10001124E95DF64F9F7B9083089527E12A9F5B
:102A2000F0012B9FF00D1124E95DF64F9F77908305
:102A3000242F432F0C9473140895992777278330FC
:102A400008F00895E8E0FBE2660F771FE60FF71F36
:102A5000A591B491EAE0F9E026E0289FE00DF11D90
:102A6000A183B2831124089599277727EAE0F9E03A
:102A700026E0289FE00DF11D6E3F31F460911D09A5
:102A80006E7F60931D090BC06F3F31F460911D098B
:102A90006E6F60931D0903C07DE2760F758311246C
:102AA0000895000000000000000000000000000089
:102AB0000000000000000000000000000000000016
:102AC0000000000000000000000000000000000006
:102AD00000000000000000000000000000000000F6
:102AE00000000000000000000000000000000000E6
:102AF00000000000000000000000000000000000D6
:102B000080E080930909089522002400260028000F
:102B10002B002D0030003300360039003D0040000E
:102B2000440048004C00510056005B006000660005
:102B30006C00730079008100880090009900A20069
:102B4000AC00B600C100CC00D800E500F3000101E4
:102B5000100121013201440157016C0181019801EA
:102B6000B001CA01E50102022102410264028802A9
:102B7000AE02D7020303300361039403CB030504C1
:102B800042048304C70410055D05AF050506610610
:102B9000C206290796070908830805098E09200A35
:102BA000BA0A5D0B0A0CC10C840D510E2B0F1210CA
:102BB00007110A121D1340147415BA16141883193C
:102BC000071BA31C571E24200E22142439267F28FD
:102BD000E82A752D293006330F364539AD3C49407A
:102BE0001B442848734CFE50CF55EA5A51600C667E
:102BF0001D6C8B725A79928037885090E598FDA1B0
:102C00009FABD3B5A3C0000000000000000000008F
:102C100000000000000000000000000000000000B4
:102C200000000000000000000000000000000000A4
:102C30000000000000000000000000000000000094
:102C40000000000000000000000000000000000084
:102C50000000000000000000000000000000000074
:102C60000000000000000000000000000000000064
:102C70000000000000000000000000000000000054
:102C80000000000000000000000000000000000044
:102C90000000000000000000000000000000000034
:102CA0000000000000000000000000000000000024
:102CB0000000000000000000000000000000000014
:102CC0000000000000000000000000000000000004
:102CD00000000000000000000000000000000000F4
:102CE00000000000000000000000000000000000E4
:102CF00000000000000000000000000000000000D4
:102D0000000306090C101316191C1F2225282B2E50
:102D1000313336393C3F414447494C4E5153555865
:102D20005A5C5E60626466686A6B6D6F7071737422
:102D3000757678797A7A7B7C7D7D7E7E7E7F7F7FDB
:102D40007F7F7F7F7E7E7E7D7D7C7B7A7A797876C1
:102D500075747371706F6D6B6A68666462605E5CD7
:102D60005A585553514E4C494744413F3C393633EC
:102D7000312E2B2825221F1C191613100C090603AF
:102D800000FDFAF7F4F0EDEAE7E4E1DEDBD8D5D2B6
:102D9000CFCDCAC7C4C1BFBCB9B7B4B2AFADABA881
:102DA000A6A4A2A09E9C9A9896959391908F8D8CA4
:102DB0008B8A8887868685848383828282818181CB
:102DC0008181818182828283838485868687888AC5
:102DD0008B8C8D8F9091939596989A9C9EA0A2A48F
:102DE000A6A8ABADAFB2B4B7B9BCBFC1C4C7CACD5A
:102DF000CFD2D5D8DBDEE1E4E7EAEDF0F4F7FAFD77
:102E0000808182838485868788898A8B8C8D8E8F4A
:102E1000909192939495969798999A9B9C9D9E9F3A
:102E2000A0A1A2A3A4A5A6A7A8A9AAABACADAEAF2A
:102E3000B0B1B2B3B4B5B6B7B8B9BABBBCBDBEBF1A
:102E4000C0C1C2C3C4C5C6C7C8C9CACBCCCDCECF0A
:102E5000D0D1D2D3D4D5D6D7D8D9DADBDCDDDEDFFA
:102E6000E0E1E2E3E4E5E6E7E8E9EAEBECEDEEEFEA
:102E7000F0F1F2F3F4F5F6F7F8F9FAFBFCFDFEFFDA
:102E8000000102030405060708090A0B0C0D0E0FCA
:102E9000101112131415161718191A1B1C1D1E1FBA
:102EA000202122232425262728292A2B2C2D2E2FAA
:102EB000303132333435363738393A3B3C3D3E3F9A
:102EC000404142434445464748494A4B4C4D4E4F8A
:102ED000505152535455565758595A5B5C5D5E5F7A
:102EE000606162636465666768696A6B6C6D6E6F6A
:102EF000707172737475767778797A7B7C7D7E7F5A
:102F000000020406080A0C0E10121416181A1C1ED1
:102F100020222426282A2C2E30323436383A3C3EC1
:102F200040424446484A4C4E50525456585A5C5EB1
:102F300060626466686A6C6E70727476787A7C7EA1
:102F40007F7D7B79777573716F6D6B696765636181
:102F50005F5D5B59575553514F4D4B494745434171
:102F60003F3D3B39373533312F2D2B292725232161
:102F70001F1D1B19171513110F0D0B090705030151
:102F8000FFFDFBF9F7F5F3F1EFEDEBE9E7E5E3E141
:102F9000DFDDDBD9D7D5D3D1CFCDCBC9C7C5C3C131
:102FA000BFBDBBB9B7B5B3B1AFADABA9A7A5A3A121
:102FB0009F9D9B99979593918F8D8B898785838111
:102FC00080828486888A8C8E90929496989A9C9E11
:102FD000A0A2A4A6A8AAACAEB0B2B4B6B8BABCBE01
:102FE000C0C2C4C6C8CACCCED0D2D4D6D8DADCDEF1
:102FF000E0E2E4E6E8EAECEEF0F2F4F6F8FAFCFEE1
:103000007F7F7F7F7F7F7F7F7F7F7F7F7F7F7F7FD0
:103010007F7F7F7F7F7F7F7F7F7F7F7F7F7F7F7FC0
:103020007F7F7F7F7F7F7F7F7F7F7F7F7F7F7F7FB0
:103030007F7F7F7F7F7F7F7F7F7F7F7F7F7F7F7FA0
:103300000309131E28313A40464C5054585B5E6105
:10331000636567696B6C6E6F7071727374757677C5
:10332000777879797A7A7B7B7C7C7C7D7D7D7E7EEB
:103330007E7E7F7F7F7F7F7F7F7F7F7F7F7F7F7F9F
:103340007F7F7F7F7F7F7F7F7F7F7F7F7F7E7E7E90
:103350007E7D7D7D7C7C7C7B7B7A7A7979787777C2
:10336000767574737271706F6E6C6B69676563618B
:103370005E5B5854504C46403A31281E13090300F6
:10338000C6CCD5DBDFE3E5E7E9EAEBECEDEEEFEF0A
:10339000F0F0F0F1F1F1F1F2F2F2F2F2F2F2F2F316
:1033A000F3F3F3F3F3F3F3F3F3F3F3F3F3F3F3F3ED
:1033B000F3F3F3F3F3F3F3F3F3F3F3F3F3F3F3F3DD
:1033C000F3F3F3F3F3F3F3F3F3F3F3F3F3F3F3F3CD
:1033D000F3F3F3F3F3F3F3F3F3F3F3F3F3F3F3F3BD
:1033E000F2F2F2F2F2F2F2F2F1F1F1F1F0F0F0EFCA
:1033F000EFEEEDECEBEAE9E7E5E3DFDBD5CCC60089
:1034000000283D42302D2C2B2C2D2E2F30323335E1
:1034100037393B3D3F414345484A4C4E5053555741
:10342000595B5D5F61636567696B6C6E7071737426
:10343000757778797A7B7C7D7D7E7E7F7F7F7F7FCD
:103440007F7F7F7F7F7F7E7E7D7D7C7B7A797877B3
:1034500075747371706E6C6B69676563615F5D5BDA
:1034600059575553504E4C4A484543413F3D3B39CF
:1034700037353332302F2E2D2C2B2C2D30423D283A
:1034800000E9E5FED4D7D7D7D6D4D2D0CECCCAC89F
:10349000C6C3C1BFBDBAB8B6B4B1AFADABA9A7A5DD
:1034A000A3A19F9E9C9A999795949391908F8D8CB0
:1034B0008B8A8988888786858584848483838383AF
:1034C0008383838383848484858586878888898AA7
:1034D0008B8C8D8F909193949597999A9C9E9FA198
:1034E000A3A5A7A9ABADAFB1B4B6B8BABDBFC1C3B0
:1034F000C6C8CACCCED0D2D4D6D7D7D7D4FEE5E969
:10350000F9F8F9F5EBE1DDDEE0E2E4E5E6E5E4E239
:10351000DED9D2CAC1B7ACA299918A868381808054
:103520008182838586888A8C8D8F909293959697D9
:1035300098999A9B9B9C9D9D9D9E9E9E9F9F9F9FC1
:103540009F9F9F9E9E9E9D9D9D9C9B9B9A999897B9
:1035500096959392908F8D8C8A88868583828180C0
:10356000808183868A9199A2ACB7C1CAD2D9DEE2A2
:10357000E4E5E6E5E4E2E0DEDDE1EBF5F9F8F900AB
:103580000708070B151F2322201E1C1B1A1B1C1EBD
:1035900022272E363F49545E676F767A7E7F7F7F83
:1035A0007F7E7D7B7A7876747371706E6D6B6A69DD
:1035B00068676665656464636362626261616161D4
:1035C00061616162626263636364656566676869BD
:1035D0006A6B6D6E7071737476787A7B7D7E7F7F97
:1035E0007F7F7E7A766F675E54493F362E27221E94
:1035F0001C1B1A1B1C1E2022231F150B070807006B
:103600001F313D444E5354565A5F64696E74767947
:103610007C7F7F7F7F7F7F7F7F7F7F7F7F7F7F7FBD
:103620007F7F7F7F7F7F7F7F7F7F7F7F7F7F7F7FAA
:103630007F7F7F7F7F7F7F7F7F7F7F7F7F7F7F7F9A
:103640007F7F7F7F7F7F7F7F7F7F7F7F7F7F7F7F8A
:103650007F7F7F7F7F7F7F7F7F7F7F7F7F7F7F7F7A
:103660007F7F7F7F7F7F7F7F7F7F7F7F7F7F7F7F6A
:103670007F7F7F7F7F7F7F7F7F7F7F7C7871684CBC
:103680002C1C120C0A0B0A05FDF3E9DFD4CAC0B7E3
:10369000AEA69E97918B8685828080808080808078
:1036A000808080808080808080808080808080801A
:1036B000808080808080808080808080808080800A
:1036C00080808080808080808080808080808080FA
:1036D00080808080808080808080808080808080EA
:1036E00080808080808080808080808080808080DA
:1036F000808080808087919DACC4CBD4DDF2FAFAC3
:10370000089508950C94A21B0F931F93CF93DF93FA
:10371000062FC42FD52F182F141BFE0144914423CC
:1037200049F04F774052602F8C2F810F0E94B410C8
:103730002196F3CFDF91CF911F910F9108954052C1
:103740000C94B41080919309882301F1809194091D
:10375000811119C08091910980939409E091950994
:10376000F0E0E552FF4FE491E7B990919209809122
:103770009509890F80939509882311F08D3031F4D4
:103780001092930908958150809394090895BC0183
:103790000ED061507040E1F7089509D0682F07D02E
:1037A000782F05D0482F03D0582FCA01089512D082
:1037B000F0912209E09123093196E0932309F23038
:1037C00019F0F09322090895E09322098F9311D004
:1037D0008F9108958FEF8EBD8DB587FFFDCF8EB58C
:1037E0000895EFEFFFEF319719F0F4DF8F3FD9F332
:1037F0000895EFEFFFEF319719F0ECDF8E3FD9F727
:1038000008959AE0E7DF9A95E9F78BB180648BB968
:10381000089540E050E0BA019BB19F7B9BB9982F7F
:10382000D9DF892F8064D7DF872FD5DF862FD3DFBD
:10383000852FD1DF842FCFDF85E9CDDFCBDF089562
:1038400085B18F75806485B984B1806A84B95E9AC8
:10385000569A209A80E58CBD81E08DBD9AE0BADF52
:103860009A95E9F780E0D5DFBCDF813019F0C9DF38
:1038700081E00895AFDF803019F081E0CADFFACF30
:10388000C0DF08954427562F672F782F550F661FE6
:10389000771F82E1C1DFADDF8E3F19F0B2DF8FEF1E
:1038A00008958827809322098093230908958CE046
:1038B000B0DF90DF08954F925F926F927F928F9268
:1038C0009F92AF92BF92CF92DF92EF92FF920F93AF
:1038D0001F93CF93DF938C010E94201C60E070E067
:1038E000CB010E94421C86EC91E00E94C71B0E9403
:1038F000CD1B4B015C010E94571CC501B4010E9405
:10390000421C8BE090E00E94C71B0E94D11B7C01EF
:103910000E94D71B782E0E94D11B6C0181E090E0A1
:103920000E94C71B0E94D11BEC0183E090E00E9423
:10393000C71B0E94D11BA601662757FD6095762FF5
:10394000480D591D6A1D7B1D880F991F4C01AA2423
:1039500097FCA094BA2C840E951EA61EB71E0E943A
:10396000571CC501B4010E94421C68012BE0C20E25
:10397000D11C2801662463940E94D71BF201219177
:103980002F0190E0332727FD30958217930709F028
:10399000612C4C145D0481F7611005C085E190E055
:1039A0000E94C71BE6CF8FE090E00E94C71B0E94D9
:1039B000D11B8C010E94571CCE0125E0880F991F56
:1039C0002A95E1F7B7010E944C1DCB01AA2797FD6C
:1039D000A095BA2F880E991EAA1EBB1E025011096F
:1039E000272D2003A001219F500D1124662757FD8C
:1039F0006095762FCB01BA01680D791D8A1D9B1D3C
:103A0000DF91CF911F910F91FF90EF90DF90CF90BA
:103A1000BF90AF909F908F907F906F905F904F90EE
:103A2000089580E091E00E945B1C882777FD8095D7
:103A3000982F0E94421C88EE90E00E94CC100E94B9
:103A4000A610C6E0D0E00E94D71B482F6AE070E0C5
:103A5000CE010E949F1B2196C232D105A1F740EAF8
:103A60005BE168E070E086E090E00E94841BFFCF9D
:103A7000AA1BBB1B51E107C0AA1FBB1FA617B70794
:103A800010F0A61BB70B881F991F5A95A9F78095B0
:103A90009095BC01CD01089597FB072E16F4009474
:103AA00007D077FD09D00E94381D07FC05D03EF4F1
:103AB000909581959F4F0895709561957F4F0895DA
:043AC000F894FFCFA8
:0C3AC40048454C4C57524C445458540098
:00000001FF
